{"contracts/Join.sol":{"DaiJoin":{"abi":[{"inputs":[{"internalType":"address","name":"vat_","type":"address"},{"internalType":"address","name":"dai_","type":"address"}],"stateMutability":"nonpayable","type":"constructor"},{"inputs":[],"name":"cage","outputs":[],"stateMutability":"nonpayable","type":"function"},{"inputs":[],"name":"dai","outputs":[{"internalType":"contract StableCoinLike","name":"","type":"address"}],"stateMutability":"view","type":"function"},{"inputs":[{"internalType":"address","name":"usr","type":"address"}],"name":"deny","outputs":[],"stateMutability":"nonpayable","type":"function"},{"inputs":[{"internalType":"address","name":"usr","type":"address"},{"internalType":"uint256","name":"wad","type":"uint256"}],"name":"exit","outputs":[],"stateMutability":"nonpayable","type":"function"},{"inputs":[{"internalType":"address","name":"usr","type":"address"},{"internalType":"uint256","name":"wad","type":"uint256"}],"name":"join","outputs":[],"stateMutability":"nonpayable","type":"function"},{"inputs":[],"name":"live","outputs":[{"internalType":"uint256","name":"","type":"uint256"}],"stateMutability":"view","type":"function"},{"inputs":[{"internalType":"address","name":"usr","type":"address"}],"name":"rely","outputs":[],"stateMutability":"nonpayable","type":"function"},{"inputs":[],"name":"vat","outputs":[{"internalType":"contract VatLike","name":"","type":"address"}],"stateMutability":"view","type":"function"},{"inputs":[{"internalType":"address","name":"","type":"address"}],"name":"wards","outputs":[{"internalType":"uint256","name":"","type":"uint256"}],"stateMutability":"view","type":"function"}],"evm":{"bytecode":{"linkReferences":{},"object":"60803461009d57601f61063738819003918201601f19168301916001600160401b038311848410176100a257808492604094855283398101031261009d57610052602061004b836100b8565b92016100b8565b3360005260006020526001604060002055600160035560018060a01b03908160018060a01b031993168360015416176001551690600254161760025560405161056a90816100cd8239f35b600080fd5b634e487b7160e01b600052604160045260246000fd5b51906001600160a01b038216820361009d5756fe608060408181526004918236101561001657600080fd5b600092833560e01c91826336569e771461040a575081633b4da69f1461032257816365fae35e146102dc57816369245009146102ad578163957aa58c1461028e578382639c52a7f11461024457508163bf353dbb1461020d578163ef693bed146100b5575063f4b9fa751461008a57600080fd5b346100b157816003193601126100b15760025490516001600160a01b039091168152602090f35b5080fd5b8383346100b157806003193601126100b1576100cf61042f565b90602435936001600354036101d857600154939485946001600160a01b039081166100f9836104b9565b90803b156101d457855163bb35783b60e01b8152338682019081523060208201526040810193909352918891839182908490829060600103925af180156101ca579087916101b6575b505060025416803b156101b25783516340c10f1960e01b81526001600160a01b03909516928501928352602083019190915284918491908290849082906040015b03925af19081156101a957506101965750f35b61019f9061048f565b6101a65780f35b80fd5b513d84823e3d90fd5b8580fd5b6101bf9061048f565b6101b2578588610142565b85513d89823e3d90fd5b8780fd5b6020606492519162461bcd60e51b8352820152601060248201526f4461694a6f696e2f6e6f742d6c69766560801b6044820152fd5b5050346100b15760203660031901126100b15760209181906001600160a01b0361023561042f565b16815280845220549051908152f35b80843461028b57602036600319011261028b5761025f61042f565b338352826020526102756001838520541461044a565b6001600160a01b03168252602082905281205580f35b50fd5b5050346100b157816003193601126100b1576020906003549051908152f35b5050346100b157816003193601126100b15760016102d591338452836020528320541461044a565b8060035580f35b5050346100b15760203660031901126100b1576001906102fa61042f565b3384528360205261030f83838620541461044a565b828060a01b031683528260205282205580f35b839150346100b157826003193601126100b15761033d61042f565b926024359160018060a01b038060015416610357856104b9565b96813b1561040657845163bb35783b60e01b8152308582019081526001600160a01b03909216602083015260408201989098528691889182908490829060600103925af180156103fc576103e8575b8495506002541692833b156103e4578251632770a7eb60e21b8152339281019283526020830191909152928491849190829084908290604001610183565b8480fd5b9390946103f49061048f565b9284906103a6565b83513d87823e3d90fd5b8680fd5b8490346100b157816003193601126100b1576001546001600160a01b03168152602090f35b600435906001600160a01b038216820361044557565b600080fd5b1561045157565b60405162461bcd60e51b815260206004820152601660248201527511185a529bda5b8bdb9bdd0b585d5d1a1bdc9a5e995960521b6044820152606490fd5b67ffffffffffffffff81116104a357604052565b634e487b7160e01b600052604160045260246000fd5b906b033b2e3c9fd0803ce8000000918281029281840481148215171561051e578304036104e257565b60405162461bcd60e51b815260206004820152601460248201527364732d6d6174682d6d756c2d6f766572666c6f7760601b6044820152606490fd5b634e487b7160e01b600052601160045260246000fdfea2646970667358221220264e98459cd9aafd9988eef627ab1c9e1167fb4215037cb10d99bfbf5153435464736f6c63430008130033","opcodes":"PUSH1 0x80 CALLVALUE PUSH2 0x9D JUMPI PUSH1 0x1F PUSH2 0x637 CODESIZE DUP2 SWAP1 SUB SWAP2 DUP3 ADD PUSH1 0x1F NOT AND DUP4 ADD SWAP2 PUSH1 0x1 PUSH1 0x1 PUSH1 0x40 SHL SUB DUP4 GT DUP5 DUP5 LT OR PUSH2 0xA2 JUMPI DUP1 DUP5 SWAP3 PUSH1 0x40 SWAP5 DUP6 MSTORE DUP4 CODECOPY DUP2 ADD SUB SLT PUSH2 0x9D JUMPI PUSH2 0x52 PUSH1 0x20 PUSH2 0x4B DUP4 PUSH2 0xB8 JUMP JUMPDEST SWAP3 ADD PUSH2 0xB8 JUMP JUMPDEST CALLER PUSH1 0x0 MSTORE PUSH1 0x0 PUSH1 0x20 MSTORE PUSH1 0x1 PUSH1 0x40 PUSH1 0x0 KECCAK256 SSTORE PUSH1 0x1 PUSH1 0x3 SSTORE PUSH1 0x1 DUP1 PUSH1 0xA0 SHL SUB SWAP1 DUP2 PUSH1 0x1 DUP1 PUSH1 0xA0 SHL SUB NOT SWAP4 AND DUP4 PUSH1 0x1 SLOAD AND OR PUSH1 0x1 SSTORE AND SWAP1 PUSH1 0x2 SLOAD AND OR PUSH1 0x2 SSTORE PUSH1 0x40 MLOAD PUSH2 0x56A SWAP1 DUP2 PUSH2 0xCD DUP3 CODECOPY RETURN JUMPDEST PUSH1 0x0 DUP1 REVERT JUMPDEST PUSH4 0x4E487B71 PUSH1 0xE0 SHL PUSH1 0x0 MSTORE PUSH1 0x41 PUSH1 0x4 MSTORE PUSH1 0x24 PUSH1 0x0 REVERT JUMPDEST MLOAD SWAP1 PUSH1 0x1 PUSH1 0x1 PUSH1 0xA0 SHL SUB DUP3 AND DUP3 SUB PUSH2 0x9D JUMPI JUMP INVALID PUSH1 0x80 PUSH1 0x40 DUP2 DUP2 MSTORE PUSH1 0x4 SWAP2 DUP3 CALLDATASIZE LT ISZERO PUSH2 0x16 JUMPI PUSH1 0x0 DUP1 REVERT JUMPDEST PUSH1 0x0 SWAP3 DUP4 CALLDATALOAD PUSH1 0xE0 SHR SWAP2 DUP3 PUSH4 0x36569E77 EQ PUSH2 0x40A JUMPI POP DUP2 PUSH4 0x3B4DA69F EQ PUSH2 0x322 JUMPI DUP2 PUSH4 0x65FAE35E EQ PUSH2 0x2DC JUMPI DUP2 PUSH4 0x69245009 EQ PUSH2 0x2AD JUMPI DUP2 PUSH4 0x957AA58C EQ PUSH2 0x28E JUMPI DUP4 DUP3 PUSH4 0x9C52A7F1 EQ PUSH2 0x244 JUMPI POP DUP2 PUSH4 0xBF353DBB EQ PUSH2 0x20D JUMPI DUP2 PUSH4 0xEF693BED EQ PUSH2 0xB5 JUMPI POP PUSH4 0xF4B9FA75 EQ PUSH2 0x8A JUMPI PUSH1 0x0 DUP1 REVERT JUMPDEST CALLVALUE PUSH2 0xB1 JUMPI DUP2 PUSH1 0x3 NOT CALLDATASIZE ADD SLT PUSH2 0xB1 JUMPI PUSH1 0x2 SLOAD SWAP1 MLOAD PUSH1 0x1 PUSH1 0x1 PUSH1 0xA0 SHL SUB SWAP1 SWAP2 AND DUP2 MSTORE PUSH1 0x20 SWAP1 RETURN JUMPDEST POP DUP1 REVERT JUMPDEST DUP4 DUP4 CALLVALUE PUSH2 0xB1 JUMPI DUP1 PUSH1 0x3 NOT CALLDATASIZE ADD SLT PUSH2 0xB1 JUMPI PUSH2 0xCF PUSH2 0x42F JUMP JUMPDEST SWAP1 PUSH1 0x24 CALLDATALOAD SWAP4 PUSH1 0x1 PUSH1 0x3 SLOAD SUB PUSH2 0x1D8 JUMPI PUSH1 0x1 SLOAD SWAP4 SWAP5 DUP6 SWAP5 PUSH1 0x1 PUSH1 0x1 PUSH1 0xA0 SHL SUB SWAP1 DUP2 AND PUSH2 0xF9 DUP4 PUSH2 0x4B9 JUMP JUMPDEST SWAP1 DUP1 EXTCODESIZE ISZERO PUSH2 0x1D4 JUMPI DUP6 MLOAD PUSH4 0xBB35783B PUSH1 0xE0 SHL DUP2 MSTORE CALLER DUP7 DUP3 ADD SWAP1 DUP2 MSTORE ADDRESS PUSH1 0x20 DUP3 ADD MSTORE PUSH1 0x40 DUP2 ADD SWAP4 SWAP1 SWAP4 MSTORE SWAP2 DUP9 SWAP2 DUP4 SWAP2 DUP3 SWAP1 DUP5 SWAP1 DUP3 SWAP1 PUSH1 0x60 ADD SUB SWAP3 GAS CALL DUP1 ISZERO PUSH2 0x1CA JUMPI SWAP1 DUP8 SWAP2 PUSH2 0x1B6 JUMPI JUMPDEST POP POP PUSH1 0x2 SLOAD AND DUP1 EXTCODESIZE ISZERO PUSH2 0x1B2 JUMPI DUP4 MLOAD PUSH4 0x40C10F19 PUSH1 0xE0 SHL DUP2 MSTORE PUSH1 0x1 PUSH1 0x1 PUSH1 0xA0 SHL SUB SWAP1 SWAP6 AND SWAP3 DUP6 ADD SWAP3 DUP4 MSTORE PUSH1 0x20 DUP4 ADD SWAP2 SWAP1 SWAP2 MSTORE DUP5 SWAP2 DUP5 SWAP2 SWAP1 DUP3 SWAP1 DUP5 SWAP1 DUP3 SWAP1 PUSH1 0x40 ADD JUMPDEST SUB SWAP3 GAS CALL SWAP1 DUP2 ISZERO PUSH2 0x1A9 JUMPI POP PUSH2 0x196 JUMPI POP RETURN JUMPDEST PUSH2 0x19F SWAP1 PUSH2 0x48F JUMP JUMPDEST PUSH2 0x1A6 JUMPI DUP1 RETURN JUMPDEST DUP1 REVERT JUMPDEST MLOAD RETURNDATASIZE DUP5 DUP3 RETURNDATACOPY RETURNDATASIZE SWAP1 REVERT JUMPDEST DUP6 DUP1 REVERT JUMPDEST PUSH2 0x1BF SWAP1 PUSH2 0x48F JUMP JUMPDEST PUSH2 0x1B2 JUMPI DUP6 DUP9 PUSH2 0x142 JUMP JUMPDEST DUP6 MLOAD RETURNDATASIZE DUP10 DUP3 RETURNDATACOPY RETURNDATASIZE SWAP1 REVERT JUMPDEST DUP8 DUP1 REVERT JUMPDEST PUSH1 0x20 PUSH1 0x64 SWAP3 MLOAD SWAP2 PUSH3 0x461BCD PUSH1 0xE5 SHL DUP4 MSTORE DUP3 ADD MSTORE PUSH1 0x10 PUSH1 0x24 DUP3 ADD MSTORE PUSH16 0x4461694A6F696E2F6E6F742D6C697665 PUSH1 0x80 SHL PUSH1 0x44 DUP3 ADD MSTORE REVERT JUMPDEST POP POP CALLVALUE PUSH2 0xB1 JUMPI PUSH1 0x20 CALLDATASIZE PUSH1 0x3 NOT ADD SLT PUSH2 0xB1 JUMPI PUSH1 0x20 SWAP2 DUP2 SWAP1 PUSH1 0x1 PUSH1 0x1 PUSH1 0xA0 SHL SUB PUSH2 0x235 PUSH2 0x42F JUMP JUMPDEST AND DUP2 MSTORE DUP1 DUP5 MSTORE KECCAK256 SLOAD SWAP1 MLOAD SWAP1 DUP2 MSTORE RETURN JUMPDEST DUP1 DUP5 CALLVALUE PUSH2 0x28B JUMPI PUSH1 0x20 CALLDATASIZE PUSH1 0x3 NOT ADD SLT PUSH2 0x28B JUMPI PUSH2 0x25F PUSH2 0x42F JUMP JUMPDEST CALLER DUP4 MSTORE DUP3 PUSH1 0x20 MSTORE PUSH2 0x275 PUSH1 0x1 DUP4 DUP6 KECCAK256 SLOAD EQ PUSH2 0x44A JUMP JUMPDEST PUSH1 0x1 PUSH1 0x1 PUSH1 0xA0 SHL SUB AND DUP3 MSTORE PUSH1 0x20 DUP3 SWAP1 MSTORE DUP2 KECCAK256 SSTORE DUP1 RETURN JUMPDEST POP REVERT JUMPDEST POP POP CALLVALUE PUSH2 0xB1 JUMPI DUP2 PUSH1 0x3 NOT CALLDATASIZE ADD SLT PUSH2 0xB1 JUMPI PUSH1 0x20 SWAP1 PUSH1 0x3 SLOAD SWAP1 MLOAD SWAP1 DUP2 MSTORE RETURN JUMPDEST POP POP CALLVALUE PUSH2 0xB1 JUMPI DUP2 PUSH1 0x3 NOT CALLDATASIZE ADD SLT PUSH2 0xB1 JUMPI PUSH1 0x1 PUSH2 0x2D5 SWAP2 CALLER DUP5 MSTORE DUP4 PUSH1 0x20 MSTORE DUP4 KECCAK256 SLOAD EQ PUSH2 0x44A JUMP JUMPDEST DUP1 PUSH1 0x3 SSTORE DUP1 RETURN JUMPDEST POP POP CALLVALUE PUSH2 0xB1 JUMPI PUSH1 0x20 CALLDATASIZE PUSH1 0x3 NOT ADD SLT PUSH2 0xB1 JUMPI PUSH1 0x1 SWAP1 PUSH2 0x2FA PUSH2 0x42F JUMP JUMPDEST CALLER DUP5 MSTORE DUP4 PUSH1 0x20 MSTORE PUSH2 0x30F DUP4 DUP4 DUP7 KECCAK256 SLOAD EQ PUSH2 0x44A JUMP JUMPDEST DUP3 DUP1 PUSH1 0xA0 SHL SUB AND DUP4 MSTORE DUP3 PUSH1 0x20 MSTORE DUP3 KECCAK256 SSTORE DUP1 RETURN JUMPDEST DUP4 SWAP2 POP CALLVALUE PUSH2 0xB1 JUMPI DUP3 PUSH1 0x3 NOT CALLDATASIZE ADD SLT PUSH2 0xB1 JUMPI PUSH2 0x33D PUSH2 0x42F JUMP JUMPDEST SWAP3 PUSH1 0x24 CALLDATALOAD SWAP2 PUSH1 0x1 DUP1 PUSH1 0xA0 SHL SUB DUP1 PUSH1 0x1 SLOAD AND PUSH2 0x357 DUP6 PUSH2 0x4B9 JUMP JUMPDEST SWAP7 DUP2 EXTCODESIZE ISZERO PUSH2 0x406 JUMPI DUP5 MLOAD PUSH4 0xBB35783B PUSH1 0xE0 SHL DUP2 MSTORE ADDRESS DUP6 DUP3 ADD SWAP1 DUP2 MSTORE PUSH1 0x1 PUSH1 0x1 PUSH1 0xA0 SHL SUB SWAP1 SWAP3 AND PUSH1 0x20 DUP4 ADD MSTORE PUSH1 0x40 DUP3 ADD SWAP9 SWAP1 SWAP9 MSTORE DUP7 SWAP2 DUP9 SWAP2 DUP3 SWAP1 DUP5 SWAP1 DUP3 SWAP1 PUSH1 0x60 ADD SUB SWAP3 GAS CALL DUP1 ISZERO PUSH2 0x3FC JUMPI PUSH2 0x3E8 JUMPI JUMPDEST DUP5 SWAP6 POP PUSH1 0x2 SLOAD AND SWAP3 DUP4 EXTCODESIZE ISZERO PUSH2 0x3E4 JUMPI DUP3 MLOAD PUSH4 0x2770A7EB PUSH1 0xE2 SHL DUP2 MSTORE CALLER SWAP3 DUP2 ADD SWAP3 DUP4 MSTORE PUSH1 0x20 DUP4 ADD SWAP2 SWAP1 SWAP2 MSTORE SWAP3 DUP5 SWAP2 DUP5 SWAP2 SWAP1 DUP3 SWAP1 DUP5 SWAP1 DUP3 SWAP1 PUSH1 0x40 ADD PUSH2 0x183 JUMP JUMPDEST DUP5 DUP1 REVERT JUMPDEST SWAP4 SWAP1 SWAP5 PUSH2 0x3F4 SWAP1 PUSH2 0x48F JUMP JUMPDEST SWAP3 DUP5 SWAP1 PUSH2 0x3A6 JUMP JUMPDEST DUP4 MLOAD RETURNDATASIZE DUP8 DUP3 RETURNDATACOPY RETURNDATASIZE SWAP1 REVERT JUMPDEST DUP7 DUP1 REVERT JUMPDEST DUP5 SWAP1 CALLVALUE PUSH2 0xB1 JUMPI DUP2 PUSH1 0x3 NOT CALLDATASIZE ADD SLT PUSH2 0xB1 JUMPI PUSH1 0x1 SLOAD PUSH1 0x1 PUSH1 0x1 PUSH1 0xA0 SHL SUB AND DUP2 MSTORE PUSH1 0x20 SWAP1 RETURN JUMPDEST PUSH1 0x4 CALLDATALOAD SWAP1 PUSH1 0x1 PUSH1 0x1 PUSH1 0xA0 SHL SUB DUP3 AND DUP3 SUB PUSH2 0x445 JUMPI JUMP JUMPDEST PUSH1 0x0 DUP1 REVERT JUMPDEST ISZERO PUSH2 0x451 JUMPI JUMP JUMPDEST PUSH1 0x40 MLOAD PUSH3 0x461BCD PUSH1 0xE5 SHL DUP2 MSTORE PUSH1 0x20 PUSH1 0x4 DUP3 ADD MSTORE PUSH1 0x16 PUSH1 0x24 DUP3 ADD MSTORE PUSH22 0x11185A529BDA5B8BDB9BDD0B585D5D1A1BDC9A5E9959 PUSH1 0x52 SHL PUSH1 0x44 DUP3 ADD MSTORE PUSH1 0x64 SWAP1 REVERT JUMPDEST PUSH8 0xFFFFFFFFFFFFFFFF DUP2 GT PUSH2 0x4A3 JUMPI PUSH1 0x40 MSTORE JUMP JUMPDEST PUSH4 0x4E487B71 PUSH1 0xE0 SHL PUSH1 0x0 MSTORE PUSH1 0x41 PUSH1 0x4 MSTORE PUSH1 0x24 PUSH1 0x0 REVERT JUMPDEST SWAP1 PUSH12 0x33B2E3C9FD0803CE8000000 SWAP2 DUP3 DUP2 MUL SWAP3 DUP2 DUP5 DIV DUP2 EQ DUP3 ISZERO OR ISZERO PUSH2 0x51E JUMPI DUP4 DIV SUB PUSH2 0x4E2 JUMPI JUMP JUMPDEST PUSH1 0x40 MLOAD PUSH3 0x461BCD PUSH1 0xE5 SHL DUP2 MSTORE PUSH1 0x20 PUSH1 0x4 DUP3 ADD MSTORE PUSH1 0x14 PUSH1 0x24 DUP3 ADD MSTORE PUSH20 0x64732D6D6174682D6D756C2D6F766572666C6F77 PUSH1 0x60 SHL PUSH1 0x44 DUP3 ADD MSTORE PUSH1 0x64 SWAP1 REVERT JUMPDEST PUSH4 0x4E487B71 PUSH1 0xE0 SHL PUSH1 0x0 MSTORE PUSH1 0x11 PUSH1 0x4 MSTORE PUSH1 0x24 PUSH1 0x0 REVERT INVALID LOG2 PUSH5 0x6970667358 0x22 SLT KECCAK256 0x26 0x4E SWAP9 GASLIMIT SWAP13 0xD9 0xAA REVERT SWAP10 DUP9 0xEE 0xF6 0x27 0xAB SHR SWAP15 GT PUSH8 0xFB4215037CB10D99 0xBF 0xBF MLOAD MSTORE8 NUMBER SLOAD PUSH5 0x736F6C6343 STOP ADDMOD SGT STOP CALLER "},"methodIdentifiers":{"cage()":"69245009","dai()":"f4b9fa75","deny(address)":"9c52a7f1","exit(address,uint256)":"ef693bed","join(address,uint256)":"3b4da69f","live()":"957aa58c","rely(address)":"65fae35e","vat()":"36569e77","wards(address)":"bf353dbb"}}}}}