{"contracts/PriceFeed.sol":{"PriceFeed":{"abi":[{"inputs":[],"stateMutability":"nonpayable","type":"constructor"},{"anonymous":false,"inputs":[{"indexed":false,"internalType":"bytes32","name":"val","type":"bytes32"}],"name":"LogValue","type":"event"},{"inputs":[{"internalType":"address","name":"usr","type":"address"}],"name":"deny","outputs":[],"stateMutability":"nonpayable","type":"function"},{"inputs":[],"name":"peek","outputs":[{"internalType":"bytes32","name":"","type":"bytes32"},{"internalType":"bool","name":"","type":"bool"}],"stateMutability":"view","type":"function"},{"inputs":[{"internalType":"uint128","name":"wut","type":"uint128"}],"name":"poke","outputs":[],"stateMutability":"nonpayable","type":"function"},{"inputs":[],"name":"read","outputs":[{"internalType":"bytes32","name":"","type":"bytes32"}],"stateMutability":"view","type":"function"},{"inputs":[{"internalType":"address","name":"usr","type":"address"}],"name":"rely","outputs":[],"stateMutability":"nonpayable","type":"function"},{"inputs":[],"name":"val","outputs":[{"internalType":"uint128","name":"","type":"uint128"}],"stateMutability":"view","type":"function"},{"inputs":[],"name":"void","outputs":[],"stateMutability":"nonpayable","type":"function"},{"inputs":[{"internalType":"address","name":"","type":"address"}],"name":"wards","outputs":[{"internalType":"uint256","name":"","type":"uint256"}],"stateMutability":"view","type":"function"},{"inputs":[],"name":"zzz","outputs":[{"internalType":"uint32","name":"","type":"uint32"}],"stateMutability":"view","type":"function"}],"evm":{"bytecode":{"linkReferences":{},"object":"608080604052346100275733600052600060205260016040600020556103c9908161002d8239f35b600080fdfe6080604081815260048036101561001557600080fd5b600092833560e01c9081633c6bb436146103225750806357de26a4146102af57806359e02dd71461027e57806365fae35e14610234578381639c52a7f1146101e757508063a4dff0a2146101bf578063ac4c25b21461014a578063bf353dbb146101125763cdd193041461008857600080fd5b3461010e57602036600319011261010e5735906001600160801b03821680920361010e577f296ba4ca62c6c21c95e828080cb8aec7481b71390585605300a8a76f9e95b527916020913385528483526100e660018287205414610347565b600180546001600160a01b03191683174260801b63ffffffff60801b1617905551908152a180f35b8280fd5b503461010e57602036600319011261010e57356001600160a01b0381169081900361010e578282916020945280845220549051908152f35b5050346101bb57816003193601126101bb5760207f296ba4ca62c6c21c95e828080cb8aec7481b71390585605300a8a76f9e95b5279133845283825261019560018286205414610347565b600180546001600160a01b0319164260801b63ffffffff60801b1617905551838152a180f35b5080fd5b5050346101bb57816003193601126101bb5760209063ffffffff60015460801c169051908152f35b8084843461023057602036600319011261023057356001600160a01b03811690819003610230573383528260205261022460018385205414610347565b82528160205281205580f35b5050fd5b503461010e57602036600319011261010e57356001600160a01b038116919082900361010e5760019133845283602052610272838386205414610347565b83528260205282205580f35b8284346102ac57806003193601126102ac57506001600160801b036001541681519080825215156020820152f35b80fd5b5082346102ac57806003193601126102ac57506001600160801b03600154169081156102df575060209151908152f35b606490602084519162461bcd60e51b8352820152601c60248201527f5072696365466565642f696e76616c69642d70726963652d66656564000000006044820152fd5b8490346101bb57816003193601126101bb576020906001600160801b03600154168152f35b1561034e57565b60405162461bcd60e51b815260206004820152601860248201527f5072696365466565642f6e6f742d617574686f72697a656400000000000000006044820152606490fdfea2646970667358221220349c7b7fda9850b9ca38460de92582194fb8f72633fa5562ee068ff995a2d72b64736f6c63430008130033","opcodes":"PUSH1 0x80 DUP1 PUSH1 0x40 MSTORE CALLVALUE PUSH2 0x27 JUMPI CALLER PUSH1 0x0 MSTORE PUSH1 0x0 PUSH1 0x20 MSTORE PUSH1 0x1 PUSH1 0x40 PUSH1 0x0 KECCAK256 SSTORE PUSH2 0x3C9 SWAP1 DUP2 PUSH2 0x2D DUP3 CODECOPY RETURN JUMPDEST PUSH1 0x0 DUP1 REVERT INVALID PUSH1 0x80 PUSH1 0x40 DUP2 DUP2 MSTORE PUSH1 0x4 DUP1 CALLDATASIZE LT ISZERO PUSH2 0x15 JUMPI PUSH1 0x0 DUP1 REVERT JUMPDEST PUSH1 0x0 SWAP3 DUP4 CALLDATALOAD PUSH1 0xE0 SHR SWAP1 DUP2 PUSH4 0x3C6BB436 EQ PUSH2 0x322 JUMPI POP DUP1 PUSH4 0x57DE26A4 EQ PUSH2 0x2AF JUMPI DUP1 PUSH4 0x59E02DD7 EQ PUSH2 0x27E JUMPI DUP1 PUSH4 0x65FAE35E EQ PUSH2 0x234 JUMPI DUP4 DUP2 PUSH4 0x9C52A7F1 EQ PUSH2 0x1E7 JUMPI POP DUP1 PUSH4 0xA4DFF0A2 EQ PUSH2 0x1BF JUMPI DUP1 PUSH4 0xAC4C25B2 EQ PUSH2 0x14A JUMPI DUP1 PUSH4 0xBF353DBB EQ PUSH2 0x112 JUMPI PUSH4 0xCDD19304 EQ PUSH2 0x88 JUMPI PUSH1 0x0 DUP1 REVERT JUMPDEST CALLVALUE PUSH2 0x10E JUMPI PUSH1 0x20 CALLDATASIZE PUSH1 0x3 NOT ADD SLT PUSH2 0x10E JUMPI CALLDATALOAD SWAP1 PUSH1 0x1 PUSH1 0x1 PUSH1 0x80 SHL SUB DUP3 AND DUP1 SWAP3 SUB PUSH2 0x10E JUMPI PUSH32 0x296BA4CA62C6C21C95E828080CB8AEC7481B71390585605300A8A76F9E95B527 SWAP2 PUSH1 0x20 SWAP2 CALLER DUP6 MSTORE DUP5 DUP4 MSTORE PUSH2 0xE6 PUSH1 0x1 DUP3 DUP8 KECCAK256 SLOAD EQ PUSH2 0x347 JUMP JUMPDEST PUSH1 0x1 DUP1 SLOAD PUSH1 0x1 PUSH1 0x1 PUSH1 0xA0 SHL SUB NOT AND DUP4 OR TIMESTAMP PUSH1 0x80 SHL PUSH4 0xFFFFFFFF PUSH1 0x80 SHL AND OR SWAP1 SSTORE MLOAD SWAP1 DUP2 MSTORE LOG1 DUP1 RETURN JUMPDEST DUP3 DUP1 REVERT JUMPDEST POP CALLVALUE PUSH2 0x10E JUMPI PUSH1 0x20 CALLDATASIZE PUSH1 0x3 NOT ADD SLT PUSH2 0x10E JUMPI CALLDATALOAD PUSH1 0x1 PUSH1 0x1 PUSH1 0xA0 SHL SUB DUP2 AND SWAP1 DUP2 SWAP1 SUB PUSH2 0x10E JUMPI DUP3 DUP3 SWAP2 PUSH1 0x20 SWAP5 MSTORE DUP1 DUP5 MSTORE KECCAK256 SLOAD SWAP1 MLOAD SWAP1 DUP2 MSTORE RETURN JUMPDEST POP POP CALLVALUE PUSH2 0x1BB JUMPI DUP2 PUSH1 0x3 NOT CALLDATASIZE ADD SLT PUSH2 0x1BB JUMPI PUSH1 0x20 PUSH32 0x296BA4CA62C6C21C95E828080CB8AEC7481B71390585605300A8A76F9E95B527 SWAP2 CALLER DUP5 MSTORE DUP4 DUP3 MSTORE PUSH2 0x195 PUSH1 0x1 DUP3 DUP7 KECCAK256 SLOAD EQ PUSH2 0x347 JUMP JUMPDEST PUSH1 0x1 DUP1 SLOAD PUSH1 0x1 PUSH1 0x1 PUSH1 0xA0 SHL SUB NOT AND TIMESTAMP PUSH1 0x80 SHL PUSH4 0xFFFFFFFF PUSH1 0x80 SHL AND OR SWAP1 SSTORE MLOAD DUP4 DUP2 MSTORE LOG1 DUP1 RETURN JUMPDEST POP DUP1 REVERT JUMPDEST POP POP CALLVALUE PUSH2 0x1BB JUMPI DUP2 PUSH1 0x3 NOT CALLDATASIZE ADD SLT PUSH2 0x1BB JUMPI PUSH1 0x20 SWAP1 PUSH4 0xFFFFFFFF PUSH1 0x1 SLOAD PUSH1 0x80 SHR AND SWAP1 MLOAD SWAP1 DUP2 MSTORE RETURN JUMPDEST DUP1 DUP5 DUP5 CALLVALUE PUSH2 0x230 JUMPI PUSH1 0x20 CALLDATASIZE PUSH1 0x3 NOT ADD SLT PUSH2 0x230 JUMPI CALLDATALOAD PUSH1 0x1 PUSH1 0x1 PUSH1 0xA0 SHL SUB DUP2 AND SWAP1 DUP2 SWAP1 SUB PUSH2 0x230 JUMPI CALLER DUP4 MSTORE DUP3 PUSH1 0x20 MSTORE PUSH2 0x224 PUSH1 0x1 DUP4 DUP6 KECCAK256 SLOAD EQ PUSH2 0x347 JUMP JUMPDEST DUP3 MSTORE DUP2 PUSH1 0x20 MSTORE DUP2 KECCAK256 SSTORE DUP1 RETURN JUMPDEST POP POP REVERT JUMPDEST POP CALLVALUE PUSH2 0x10E JUMPI PUSH1 0x20 CALLDATASIZE PUSH1 0x3 NOT ADD SLT PUSH2 0x10E JUMPI CALLDATALOAD PUSH1 0x1 PUSH1 0x1 PUSH1 0xA0 SHL SUB DUP2 AND SWAP2 SWAP1 DUP3 SWAP1 SUB PUSH2 0x10E JUMPI PUSH1 0x1 SWAP2 CALLER DUP5 MSTORE DUP4 PUSH1 0x20 MSTORE PUSH2 0x272 DUP4 DUP4 DUP7 KECCAK256 SLOAD EQ PUSH2 0x347 JUMP JUMPDEST DUP4 MSTORE DUP3 PUSH1 0x20 MSTORE DUP3 KECCAK256 SSTORE DUP1 RETURN JUMPDEST DUP3 DUP5 CALLVALUE PUSH2 0x2AC JUMPI DUP1 PUSH1 0x3 NOT CALLDATASIZE ADD SLT PUSH2 0x2AC JUMPI POP PUSH1 0x1 PUSH1 0x1 PUSH1 0x80 SHL SUB PUSH1 0x1 SLOAD AND DUP2 MLOAD SWAP1 DUP1 DUP3 MSTORE ISZERO ISZERO PUSH1 0x20 DUP3 ADD MSTORE RETURN JUMPDEST DUP1 REVERT JUMPDEST POP DUP3 CALLVALUE PUSH2 0x2AC JUMPI DUP1 PUSH1 0x3 NOT CALLDATASIZE ADD SLT PUSH2 0x2AC JUMPI POP PUSH1 0x1 PUSH1 0x1 PUSH1 0x80 SHL SUB PUSH1 0x1 SLOAD AND SWAP1 DUP2 ISZERO PUSH2 0x2DF JUMPI POP PUSH1 0x20 SWAP2 MLOAD SWAP1 DUP2 MSTORE RETURN JUMPDEST PUSH1 0x64 SWAP1 PUSH1 0x20 DUP5 MLOAD SWAP2 PUSH3 0x461BCD PUSH1 0xE5 SHL DUP4 MSTORE DUP3 ADD MSTORE PUSH1 0x1C PUSH1 0x24 DUP3 ADD MSTORE PUSH32 0x5072696365466565642F696E76616C69642D70726963652D6665656400000000 PUSH1 0x44 DUP3 ADD MSTORE REVERT JUMPDEST DUP5 SWAP1 CALLVALUE PUSH2 0x1BB JUMPI DUP2 PUSH1 0x3 NOT CALLDATASIZE ADD SLT PUSH2 0x1BB JUMPI PUSH1 0x20 SWAP1 PUSH1 0x1 PUSH1 0x1 PUSH1 0x80 SHL SUB PUSH1 0x1 SLOAD AND DUP2 MSTORE RETURN JUMPDEST ISZERO PUSH2 0x34E JUMPI JUMP JUMPDEST PUSH1 0x40 MLOAD PUSH3 0x461BCD PUSH1 0xE5 SHL DUP2 MSTORE PUSH1 0x20 PUSH1 0x4 DUP3 ADD MSTORE PUSH1 0x18 PUSH1 0x24 DUP3 ADD MSTORE PUSH32 0x5072696365466565642F6E6F742D617574686F72697A65640000000000000000 PUSH1 0x44 DUP3 ADD MSTORE PUSH1 0x64 SWAP1 REVERT INVALID LOG2 PUSH5 0x6970667358 0x22 SLT KECCAK256 CALLVALUE SWAP13 PUSH28 0x7FDA9850B9CA38460DE92582194FB8F72633FA5562EE068FF995A2D7 0x2B PUSH5 0x736F6C6343 STOP ADDMOD SGT STOP CALLER "},"methodIdentifiers":{"deny(address)":"9c52a7f1","peek()":"59e02dd7","poke(uint128)":"cdd19304","read()":"57de26a4","rely(address)":"65fae35e","val()":"3c6bb436","void()":"ac4c25b2","wards(address)":"bf353dbb","zzz()":"a4dff0a2"}}}}}