{"contracts/PriceFeed.sol":{"Api3PriceFeed":{"abi":[{"inputs":[{"internalType":"address","name":"_priceFeed","type":"address"}],"stateMutability":"nonpayable","type":"constructor"},{"inputs":[{"internalType":"address","name":"usr","type":"address"}],"name":"deny","outputs":[],"stateMutability":"nonpayable","type":"function"},{"inputs":[],"name":"peek","outputs":[{"internalType":"bytes32","name":"","type":"bytes32"},{"internalType":"bool","name":"","type":"bool"}],"stateMutability":"view","type":"function"},{"inputs":[],"name":"read","outputs":[{"internalType":"bytes32","name":"","type":"bytes32"}],"stateMutability":"view","type":"function"},{"inputs":[{"internalType":"address","name":"usr","type":"address"}],"name":"rely","outputs":[],"stateMutability":"nonpayable","type":"function"},{"inputs":[{"internalType":"uint256","name":"_stalePeriod","type":"uint256"}],"name":"setStalePeriod","outputs":[],"stateMutability":"nonpayable","type":"function"},{"inputs":[],"name":"stalePeriod","outputs":[{"internalType":"uint256","name":"","type":"uint256"}],"stateMutability":"view","type":"function"},{"inputs":[{"internalType":"address","name":"","type":"address"}],"name":"wards","outputs":[{"internalType":"uint256","name":"","type":"uint256"}],"stateMutability":"view","type":"function"}],"evm":{"bytecode":{"linkReferences":{},"object":"60803461008757601f61047238819003918201601f19168301916001600160401b0383118484101761008c5780849260209460405283398101031261008757516001600160a01b0381169081900361008757336000526000602052600160406000205560018060a01b03196001541617600155610e106002556040516103cf90816100a38239f35b600080fd5b634e487b7160e01b600052604160045260246000fdfe6040608081526004908136101561001557600080fd5b600091823560e01c806357de26a4146101c157806359e02dd71461019557806365fae35e1461014b578381639c52a7f1146100fe57508063a5b36a36146100db578063a6f4ab2e146100ab5763bf353dbb1461007057600080fd5b346100a75760203660031901126100a757356001600160a01b038116908190036100a7578282916020945280845220549051908152f35b8280fd5b5090346100a75760203660031901126100a75760016100d4913385528460205284205414610231565b3560025580f35b5050346100fa57816003193601126100fa576020906002549051908152f35b5080fd5b8084843461014757602036600319011261014757356001600160a01b03811690819003610147573383528260205261013b60018385205414610231565b82528160205281205580f35b5050fd5b50346100a75760203660031901126100a757356001600160a01b03811691908290036100a75760019133845283602052610189838386205414610231565b83528260205282205580f35b8284346101be57806003193601126101be57506101b061027d565b825191825215156020820152f35b80fd5b5082346101be57806003193601126101be57506101dc61027d565b919091156101ee575060209151908152f35b606490602084519162461bcd60e51b8352820152602060248201527f417069335072696365466565642f696e76616c69642d70726963652d666565646044820152fd5b1561023857565b60405162461bcd60e51b815260206004820152601c60248201527f417069335072696365466565642f6e6f742d617574686f72697a6564000000006044820152606490fd5b600154604080516315f789a960e21b815290918290829060049082906001600160a01b03165afa8091600093849361031b575b50506102c1575b5050600090600090565b600082601b0b1390816102e9575b506102da57806102b7565b6001600160e01b031690600190565b63ffffffff9150164203428111610305576002541015386102cf565b634e487b7160e01b600052601160045260246000fd5b80919293503d8211610392575b601f8101601f1916830167ffffffffffffffff81118482101761037e5782528201829003126100a75780519081601b0b820361037a57602001519263ffffffff841684036101be5750919038806102b0565b8380fd5b634e487b7160e01b86526041600452602486fd5b503d61032856fea26469706673582212200806781bb38e884b1b537b7da8ed6bd87c7a3e113470666a7bf15954a370f37d64736f6c63430008130033","opcodes":"PUSH1 0x80 CALLVALUE PUSH2 0x87 JUMPI PUSH1 0x1F PUSH2 0x472 CODESIZE DUP2 SWAP1 SUB SWAP2 DUP3 ADD PUSH1 0x1F NOT AND DUP4 ADD SWAP2 PUSH1 0x1 PUSH1 0x1 PUSH1 0x40 SHL SUB DUP4 GT DUP5 DUP5 LT OR PUSH2 0x8C JUMPI DUP1 DUP5 SWAP3 PUSH1 0x20 SWAP5 PUSH1 0x40 MSTORE DUP4 CODECOPY DUP2 ADD SUB SLT PUSH2 0x87 JUMPI MLOAD PUSH1 0x1 PUSH1 0x1 PUSH1 0xA0 SHL SUB DUP2 AND SWAP1 DUP2 SWAP1 SUB PUSH2 0x87 JUMPI CALLER PUSH1 0x0 MSTORE PUSH1 0x0 PUSH1 0x20 MSTORE PUSH1 0x1 PUSH1 0x40 PUSH1 0x0 KECCAK256 SSTORE PUSH1 0x1 DUP1 PUSH1 0xA0 SHL SUB NOT PUSH1 0x1 SLOAD AND OR PUSH1 0x1 SSTORE PUSH2 0xE10 PUSH1 0x2 SSTORE PUSH1 0x40 MLOAD PUSH2 0x3CF SWAP1 DUP2 PUSH2 0xA3 DUP3 CODECOPY RETURN JUMPDEST PUSH1 0x0 DUP1 REVERT JUMPDEST PUSH4 0x4E487B71 PUSH1 0xE0 SHL PUSH1 0x0 MSTORE PUSH1 0x41 PUSH1 0x4 MSTORE PUSH1 0x24 PUSH1 0x0 REVERT INVALID PUSH1 0x40 PUSH1 0x80 DUP2 MSTORE PUSH1 0x4 SWAP1 DUP2 CALLDATASIZE LT ISZERO PUSH2 0x15 JUMPI PUSH1 0x0 DUP1 REVERT JUMPDEST PUSH1 0x0 SWAP2 DUP3 CALLDATALOAD PUSH1 0xE0 SHR DUP1 PUSH4 0x57DE26A4 EQ PUSH2 0x1C1 JUMPI DUP1 PUSH4 0x59E02DD7 EQ PUSH2 0x195 JUMPI DUP1 PUSH4 0x65FAE35E EQ PUSH2 0x14B JUMPI DUP4 DUP2 PUSH4 0x9C52A7F1 EQ PUSH2 0xFE JUMPI POP DUP1 PUSH4 0xA5B36A36 EQ PUSH2 0xDB JUMPI DUP1 PUSH4 0xA6F4AB2E EQ PUSH2 0xAB JUMPI PUSH4 0xBF353DBB EQ PUSH2 0x70 JUMPI PUSH1 0x0 DUP1 REVERT JUMPDEST CALLVALUE PUSH2 0xA7 JUMPI PUSH1 0x20 CALLDATASIZE PUSH1 0x3 NOT ADD SLT PUSH2 0xA7 JUMPI CALLDATALOAD PUSH1 0x1 PUSH1 0x1 PUSH1 0xA0 SHL SUB DUP2 AND SWAP1 DUP2 SWAP1 SUB PUSH2 0xA7 JUMPI DUP3 DUP3 SWAP2 PUSH1 0x20 SWAP5 MSTORE DUP1 DUP5 MSTORE KECCAK256 SLOAD SWAP1 MLOAD SWAP1 DUP2 MSTORE RETURN JUMPDEST DUP3 DUP1 REVERT JUMPDEST POP SWAP1 CALLVALUE PUSH2 0xA7 JUMPI PUSH1 0x20 CALLDATASIZE PUSH1 0x3 NOT ADD SLT PUSH2 0xA7 JUMPI PUSH1 0x1 PUSH2 0xD4 SWAP2 CALLER DUP6 MSTORE DUP5 PUSH1 0x20 MSTORE DUP5 KECCAK256 SLOAD EQ PUSH2 0x231 JUMP JUMPDEST CALLDATALOAD PUSH1 0x2 SSTORE DUP1 RETURN JUMPDEST POP POP CALLVALUE PUSH2 0xFA JUMPI DUP2 PUSH1 0x3 NOT CALLDATASIZE ADD SLT PUSH2 0xFA JUMPI PUSH1 0x20 SWAP1 PUSH1 0x2 SLOAD SWAP1 MLOAD SWAP1 DUP2 MSTORE RETURN JUMPDEST POP DUP1 REVERT JUMPDEST DUP1 DUP5 DUP5 CALLVALUE PUSH2 0x147 JUMPI PUSH1 0x20 CALLDATASIZE PUSH1 0x3 NOT ADD SLT PUSH2 0x147 JUMPI CALLDATALOAD PUSH1 0x1 PUSH1 0x1 PUSH1 0xA0 SHL SUB DUP2 AND SWAP1 DUP2 SWAP1 SUB PUSH2 0x147 JUMPI CALLER DUP4 MSTORE DUP3 PUSH1 0x20 MSTORE PUSH2 0x13B PUSH1 0x1 DUP4 DUP6 KECCAK256 SLOAD EQ PUSH2 0x231 JUMP JUMPDEST DUP3 MSTORE DUP2 PUSH1 0x20 MSTORE DUP2 KECCAK256 SSTORE DUP1 RETURN JUMPDEST POP POP REVERT JUMPDEST POP CALLVALUE PUSH2 0xA7 JUMPI PUSH1 0x20 CALLDATASIZE PUSH1 0x3 NOT ADD SLT PUSH2 0xA7 JUMPI CALLDATALOAD PUSH1 0x1 PUSH1 0x1 PUSH1 0xA0 SHL SUB DUP2 AND SWAP2 SWAP1 DUP3 SWAP1 SUB PUSH2 0xA7 JUMPI PUSH1 0x1 SWAP2 CALLER DUP5 MSTORE DUP4 PUSH1 0x20 MSTORE PUSH2 0x189 DUP4 DUP4 DUP7 KECCAK256 SLOAD EQ PUSH2 0x231 JUMP JUMPDEST DUP4 MSTORE DUP3 PUSH1 0x20 MSTORE DUP3 KECCAK256 SSTORE DUP1 RETURN JUMPDEST DUP3 DUP5 CALLVALUE PUSH2 0x1BE JUMPI DUP1 PUSH1 0x3 NOT CALLDATASIZE ADD SLT PUSH2 0x1BE JUMPI POP PUSH2 0x1B0 PUSH2 0x27D JUMP JUMPDEST DUP3 MLOAD SWAP2 DUP3 MSTORE ISZERO ISZERO PUSH1 0x20 DUP3 ADD MSTORE RETURN JUMPDEST DUP1 REVERT JUMPDEST POP DUP3 CALLVALUE PUSH2 0x1BE JUMPI DUP1 PUSH1 0x3 NOT CALLDATASIZE ADD SLT PUSH2 0x1BE JUMPI POP PUSH2 0x1DC PUSH2 0x27D JUMP JUMPDEST SWAP2 SWAP1 SWAP2 ISZERO PUSH2 0x1EE JUMPI POP PUSH1 0x20 SWAP2 MLOAD SWAP1 DUP2 MSTORE RETURN JUMPDEST PUSH1 0x64 SWAP1 PUSH1 0x20 DUP5 MLOAD SWAP2 PUSH3 0x461BCD PUSH1 0xE5 SHL DUP4 MSTORE DUP3 ADD MSTORE PUSH1 0x20 PUSH1 0x24 DUP3 ADD MSTORE PUSH32 0x417069335072696365466565642F696E76616C69642D70726963652D66656564 PUSH1 0x44 DUP3 ADD MSTORE REVERT JUMPDEST ISZERO PUSH2 0x238 JUMPI JUMP JUMPDEST PUSH1 0x40 MLOAD PUSH3 0x461BCD PUSH1 0xE5 SHL DUP2 MSTORE PUSH1 0x20 PUSH1 0x4 DUP3 ADD MSTORE PUSH1 0x1C PUSH1 0x24 DUP3 ADD MSTORE PUSH32 0x417069335072696365466565642F6E6F742D617574686F72697A656400000000 PUSH1 0x44 DUP3 ADD MSTORE PUSH1 0x64 SWAP1 REVERT JUMPDEST PUSH1 0x1 SLOAD PUSH1 0x40 DUP1 MLOAD PUSH4 0x15F789A9 PUSH1 0xE2 SHL DUP2 MSTORE SWAP1 SWAP2 DUP3 SWAP1 DUP3 SWAP1 PUSH1 0x4 SWAP1 DUP3 SWAP1 PUSH1 0x1 PUSH1 0x1 PUSH1 0xA0 SHL SUB AND GAS STATICCALL DUP1 SWAP2 PUSH1 0x0 SWAP4 DUP5 SWAP4 PUSH2 0x31B JUMPI JUMPDEST POP POP PUSH2 0x2C1 JUMPI JUMPDEST POP POP PUSH1 0x0 SWAP1 PUSH1 0x0 SWAP1 JUMP JUMPDEST PUSH1 0x0 DUP3 PUSH1 0x1B SIGNEXTEND SGT SWAP1 DUP2 PUSH2 0x2E9 JUMPI JUMPDEST POP PUSH2 0x2DA JUMPI DUP1 PUSH2 0x2B7 JUMP JUMPDEST PUSH1 0x1 PUSH1 0x1 PUSH1 0xE0 SHL SUB AND SWAP1 PUSH1 0x1 SWAP1 JUMP JUMPDEST PUSH4 0xFFFFFFFF SWAP2 POP AND TIMESTAMP SUB TIMESTAMP DUP2 GT PUSH2 0x305 JUMPI PUSH1 0x2 SLOAD LT ISZERO CODESIZE PUSH2 0x2CF JUMP JUMPDEST PUSH4 0x4E487B71 PUSH1 0xE0 SHL PUSH1 0x0 MSTORE PUSH1 0x11 PUSH1 0x4 MSTORE PUSH1 0x24 PUSH1 0x0 REVERT JUMPDEST DUP1 SWAP2 SWAP3 SWAP4 POP RETURNDATASIZE DUP3 GT PUSH2 0x392 JUMPI JUMPDEST PUSH1 0x1F DUP2 ADD PUSH1 0x1F NOT AND DUP4 ADD PUSH8 0xFFFFFFFFFFFFFFFF DUP2 GT DUP5 DUP3 LT OR PUSH2 0x37E JUMPI DUP3 MSTORE DUP3 ADD DUP3 SWAP1 SUB SLT PUSH2 0xA7 JUMPI DUP1 MLOAD SWAP1 DUP2 PUSH1 0x1B SIGNEXTEND DUP3 SUB PUSH2 0x37A JUMPI PUSH1 0x20 ADD MLOAD SWAP3 PUSH4 0xFFFFFFFF DUP5 AND DUP5 SUB PUSH2 0x1BE JUMPI POP SWAP2 SWAP1 CODESIZE DUP1 PUSH2 0x2B0 JUMP JUMPDEST DUP4 DUP1 REVERT JUMPDEST PUSH4 0x4E487B71 PUSH1 0xE0 SHL DUP7 MSTORE PUSH1 0x41 PUSH1 0x4 MSTORE PUSH1 0x24 DUP7 REVERT JUMPDEST POP RETURNDATASIZE PUSH2 0x328 JUMP INVALID LOG2 PUSH5 0x6970667358 0x22 SLT KECCAK256 ADDMOD MOD PUSH25 0x1BB38E884B1B537B7DA8ED6BD87C7A3E113470666A7BF15954 LOG3 PUSH17 0xF37D64736F6C6343000813003300000000 "},"methodIdentifiers":{"deny(address)":"9c52a7f1","peek()":"59e02dd7","read()":"57de26a4","rely(address)":"65fae35e","setStalePeriod(uint256)":"a6f4ab2e","stalePeriod()":"a5b36a36","wards(address)":"bf353dbb"}}}}}