{"contracts/PriceFeed.sol":{"MedianPriceFeed":{"abi":[{"inputs":[{"internalType":"bytes32","name":"wat_","type":"bytes32"}],"stateMutability":"nonpayable","type":"constructor"},{"inputs":[],"name":"age","outputs":[{"internalType":"uint32","name":"","type":"uint32"}],"stateMutability":"view","type":"function"},{"inputs":[],"name":"bar","outputs":[{"internalType":"uint256","name":"","type":"uint256"}],"stateMutability":"view","type":"function"},{"inputs":[],"name":"compute","outputs":[{"internalType":"uint128","name":"","type":"uint128"},{"internalType":"uint32","name":"","type":"uint32"}],"stateMutability":"view","type":"function"},{"inputs":[{"internalType":"address","name":"usr","type":"address"}],"name":"deny","outputs":[],"stateMutability":"nonpayable","type":"function"},{"inputs":[{"internalType":"address[]","name":"a","type":"address[]"}],"name":"drop","outputs":[],"stateMutability":"nonpayable","type":"function"},{"inputs":[{"internalType":"address[]","name":"a","type":"address[]"}],"name":"lift","outputs":[],"stateMutability":"nonpayable","type":"function"},{"inputs":[{"internalType":"uint256","name":"","type":"uint256"}],"name":"oracles","outputs":[{"internalType":"address","name":"","type":"address"}],"stateMutability":"view","type":"function"},{"inputs":[],"name":"peek","outputs":[{"internalType":"bytes32","name":"","type":"bytes32"},{"internalType":"bool","name":"","type":"bool"}],"stateMutability":"view","type":"function"},{"inputs":[],"name":"poke","outputs":[],"stateMutability":"nonpayable","type":"function"},{"inputs":[],"name":"read","outputs":[{"internalType":"bytes32","name":"","type":"bytes32"}],"stateMutability":"view","type":"function"},{"inputs":[{"internalType":"address","name":"usr","type":"address"}],"name":"rely","outputs":[],"stateMutability":"nonpayable","type":"function"},{"inputs":[{"internalType":"uint256","name":"bar_","type":"uint256"}],"name":"setBar","outputs":[],"stateMutability":"nonpayable","type":"function"},{"inputs":[{"internalType":"address","name":"","type":"address"}],"name":"slot","outputs":[{"internalType":"uint256","name":"","type":"uint256"}],"stateMutability":"view","type":"function"},{"inputs":[],"name":"val","outputs":[{"internalType":"uint128","name":"","type":"uint128"}],"stateMutability":"view","type":"function"},{"inputs":[{"internalType":"address","name":"","type":"address"}],"name":"wards","outputs":[{"internalType":"uint256","name":"","type":"uint256"}],"stateMutability":"view","type":"function"},{"inputs":[],"name":"wat","outputs":[{"internalType":"bytes32","name":"","type":"bytes32"}],"stateMutability":"view","type":"function"}],"evm":{"bytecode":{"linkReferences":{},"object":"60803461006757601f610c6538819003918201601f19168301916001600160401b0383118484101761006c57808492602094604052833981010312610067575160016003553360005260006020526001604060002055600255604051610be290816100838239f35b600080fd5b634e487b7160e01b600052604160045260246000fdfe6040608081526004908136101561001557600080fd5b600091823560e01c90816318178358146106895781631a43c33814610650578163262a9dff14610628578163352d3fba146105515781633c6bb436146105295781634ca299231461050a57816357de26a41461048b57816359e02dd71461045d5781635b69a7d81461041a57816365fae35e146103cf5781636c62fd77146103955781638ef5eaf01461032e5781639431810614610180578382639c52a7f11461013357508163bf353dbb146100f6575063febb0f7e146100d557600080fd5b346100f257816003193601126100f2576020906003549051908152f35b5080fd5b90503461012f57602036600319011261012f57356001600160a01b0381169081900361012f578282916020945280845220549051908152f35b8280fd5b9291503461017c57602036600319011261017c57356001600160a01b0381169081900361017c573383528260205261017060018385205414610777565b82528160205281205580f35b5050fd5b90503461012f5761019036610725565b91903385526020908582526001946101ac868289205414610777565b865b85811061028257505067ffffffffffffffff841161026f5768010000000000000000841161026f57825484845580851061022d575b50918552845b8381106101f4578580f35b849082610200856107f8565b940193817f8a35acfbc15ff81a39ae7d344fd709f28e8600b4aa8c65c6b64bfe7fe36bd19b0155016101e9565b85857f8a35acfbc15ff81a39ae7d344fd709f28e8600b4aa8c65c6b64bfe7fe36bd19b92830192015b8281106102645750506101e3565b888155018690610256565b634e487b7160e01b865260418352602486fd5b6001600160a01b038061029e610299848a886107e8565b6107f8565b16156102eb57878201908183116102d8579082916102c36102996102d3958b896107e8565b168a5260058652838a20556107c3565b6101ae565b634e487b7160e01b8a526011875260248afd5b825162461bcd60e51b8152808701869052601d60248201527f4d656469616e5072696365466565642f6e6f2d636f6e74726163742d300000006044820152606490fd5b5050346100f25761033e36610725565b919033845260209084825261035860018487205414610777565b845b848110610365578580f35b610390906001600160a01b0361037f6102998389876107e8565b1687526005845286858120556107c3565b61035a565b90503461012f57602036600319011261012f57356001600160a01b0381169081900361012f57828291602094526005845220549051908152f35b90503461012f57602036600319011261012f57356001600160a01b038116919082900361012f576001913384528360205261040e838386205414610777565b83528260205282205580f35b82843461045a57602036600319011261045a578235925483101561045a57506104446020926106d8565b905491519160018060a01b039160031b1c168152f35b80fd5b82843461045a578060031936011261045a57506001600160801b036001541681519080825215156020820152f35b9050823461045a578060031936011261045a57506001600160801b03600154169081156104bc575060209151908152f35b608490602084519162461bcd60e51b8352820152602260248201527f4d656469616e5072696365466565642f696e76616c69642d70726963652d6665604482015261195960f21b6064820152fd5b5050346100f257816003193601126100f2576020906002549051908152f35b5050346100f257816003193601126100f2576020906001600160801b03600154169051908152f35b90503461012f57602036600319011261012f578035913384528360205261057d60018286205414610777565b82156105e557600183161561059457505060035580f35b906020608492519162461bcd60e51b8352820152602560248201527f4d656469616e5072696365466565642f71756f72756d2d6e6f742d6f64642d6e6044820152643ab6b132b960d91b6064820152fd5b906020606492519162461bcd60e51b8352820152601e60248201527f4d656469616e5072696365466565642f71756f72756d2d69732d7a65726f00006044820152fd5b5050346100f257816003193601126100f25760209063ffffffff60015460801c169051908152f35b82843461045a578060031936011261045a575063ffffffff610670610870565b6001600160801b03849392935193168352166020820152f35b833461045a578060031936011261045a576106a2610870565b906001600160801b0360015491169163ffffffff60801b9060801b16906bffffffffffffffffffffffff60a01b16171760015580f35b60045481101561070f5760046000527f8a35acfbc15ff81a39ae7d344fd709f28e8600b4aa8c65c6b64bfe7fe36bd19b0190600090565b634e487b7160e01b600052603260045260246000fd5b9060206003198301126107725760043567ffffffffffffffff9283821161077257806023830112156107725781600401359384116107725760248460051b83010111610772576024019190565b600080fd5b1561077e57565b60405162461bcd60e51b815260206004820152601e60248201527f4d656469616e5072696365466565642f6e6f742d617574686f72697a656400006044820152606490fd5b60001981146107d25760010190565b634e487b7160e01b600052601160045260246000fd5b919081101561070f5760051b0190565b356001600160a01b03811681036107725790565b90601f8019910116810190811067ffffffffffffffff82111761082e57604052565b634e487b7160e01b600052604160045260246000fd5b67ffffffffffffffff811161082e5760051b60200190565b805182101561070f5760209160051b010190565b60049081546003805491828110610b685761088a81610844565b9260409061089a8251958661080c565b828552601f196108a984610844565b01926020933685880137600094855b828110610aae575050508310610a5c5750506000905b60001993818501828111610a47578310156109a95760005b83830383811161099457868101908111610994578110156109815761090b818661085c565b51600182019081831161096c57906109359291610928828961085c565b511061093a575b506107c3565b6108e6565b610965610947838961085c565b5191610953818a61085c565b5161095e858b61085c565b528861085c565b523861092f565b601189634e487b7160e01b6000525260246000fd5b5093509061098e906107c3565b906108ce565b601188634e487b7160e01b6000525260246000fd5b94929350905060018116610a295760011c6000198101818111610a1457906109d46109db928561085c565b519361085c565b5182018092116109ff57506001600160801b039060011c5b169063ffffffff421690565b601190634e487b7160e01b6000525260246000fd5b601183634e487b7160e01b6000525260246000fd5b610a419150916001600160801b039260011c9061085c565b516109f3565b601187634e487b7160e01b6000525260246000fd5b5162461bcd60e51b815280860191909152602660248201527f4d656469616e5072696365466565642f6e6f742d656e6f7567682d76616c69646044820152652d666565647360d01b6064820152608490fd5b8985610ab9836106d8565b905482516359e02dd760e01b815293849290918391881b1c6001600160a01b03165afa806000928392610b28575b50610afd575b5050610af8906107c3565b6108b8565b610b08575b80610aed565b87610b2191610b1b610af8949a8c61085c565b526107c3565b9690610b02565b9091508781813d8311610b61575b610b40818361080c565b8101031261012f5788815191015192831515840361045a5750919038610ae7565b503d610b36565b60405162461bcd60e51b8152602081870181905260248201527f4d656469616e5072696365466565642f6e6f742d656e6f7567682d66656564736044820152606490fdfea26469706673582212204389750b6b5ab5603c17df18e203ea3c753e3b78dbc00da2f1f23ab47c9115a364736f6c63430008130033","opcodes":"PUSH1 0x80 CALLVALUE PUSH2 0x67 JUMPI PUSH1 0x1F PUSH2 0xC65 CODESIZE DUP2 SWAP1 SUB SWAP2 DUP3 ADD PUSH1 0x1F NOT AND DUP4 ADD SWAP2 PUSH1 0x1 PUSH1 0x1 PUSH1 0x40 SHL SUB DUP4 GT DUP5 DUP5 LT OR PUSH2 0x6C JUMPI DUP1 DUP5 SWAP3 PUSH1 0x20 SWAP5 PUSH1 0x40 MSTORE DUP4 CODECOPY DUP2 ADD SUB SLT PUSH2 0x67 JUMPI MLOAD PUSH1 0x1 PUSH1 0x3 SSTORE CALLER PUSH1 0x0 MSTORE PUSH1 0x0 PUSH1 0x20 MSTORE PUSH1 0x1 PUSH1 0x40 PUSH1 0x0 KECCAK256 SSTORE PUSH1 0x2 SSTORE PUSH1 0x40 MLOAD PUSH2 0xBE2 SWAP1 DUP2 PUSH2 0x83 DUP3 CODECOPY RETURN JUMPDEST PUSH1 0x0 DUP1 REVERT JUMPDEST PUSH4 0x4E487B71 PUSH1 0xE0 SHL PUSH1 0x0 MSTORE PUSH1 0x41 PUSH1 0x4 MSTORE PUSH1 0x24 PUSH1 0x0 REVERT INVALID PUSH1 0x40 PUSH1 0x80 DUP2 MSTORE PUSH1 0x4 SWAP1 DUP2 CALLDATASIZE LT ISZERO PUSH2 0x15 JUMPI PUSH1 0x0 DUP1 REVERT JUMPDEST PUSH1 0x0 SWAP2 DUP3 CALLDATALOAD PUSH1 0xE0 SHR SWAP1 DUP2 PUSH4 0x18178358 EQ PUSH2 0x689 JUMPI DUP2 PUSH4 0x1A43C338 EQ PUSH2 0x650 JUMPI DUP2 PUSH4 0x262A9DFF EQ PUSH2 0x628 JUMPI DUP2 PUSH4 0x352D3FBA EQ PUSH2 0x551 JUMPI DUP2 PUSH4 0x3C6BB436 EQ PUSH2 0x529 JUMPI DUP2 PUSH4 0x4CA29923 EQ PUSH2 0x50A JUMPI DUP2 PUSH4 0x57DE26A4 EQ PUSH2 0x48B JUMPI DUP2 PUSH4 0x59E02DD7 EQ PUSH2 0x45D JUMPI DUP2 PUSH4 0x5B69A7D8 EQ PUSH2 0x41A JUMPI DUP2 PUSH4 0x65FAE35E EQ PUSH2 0x3CF JUMPI DUP2 PUSH4 0x6C62FD77 EQ PUSH2 0x395 JUMPI DUP2 PUSH4 0x8EF5EAF0 EQ PUSH2 0x32E JUMPI DUP2 PUSH4 0x94318106 EQ PUSH2 0x180 JUMPI DUP4 DUP3 PUSH4 0x9C52A7F1 EQ PUSH2 0x133 JUMPI POP DUP2 PUSH4 0xBF353DBB EQ PUSH2 0xF6 JUMPI POP PUSH4 0xFEBB0F7E EQ PUSH2 0xD5 JUMPI PUSH1 0x0 DUP1 REVERT JUMPDEST CALLVALUE PUSH2 0xF2 JUMPI DUP2 PUSH1 0x3 NOT CALLDATASIZE ADD SLT PUSH2 0xF2 JUMPI PUSH1 0x20 SWAP1 PUSH1 0x3 SLOAD SWAP1 MLOAD SWAP1 DUP2 MSTORE RETURN JUMPDEST POP DUP1 REVERT JUMPDEST SWAP1 POP CALLVALUE PUSH2 0x12F JUMPI PUSH1 0x20 CALLDATASIZE PUSH1 0x3 NOT ADD SLT PUSH2 0x12F JUMPI CALLDATALOAD PUSH1 0x1 PUSH1 0x1 PUSH1 0xA0 SHL SUB DUP2 AND SWAP1 DUP2 SWAP1 SUB PUSH2 0x12F JUMPI DUP3 DUP3 SWAP2 PUSH1 0x20 SWAP5 MSTORE DUP1 DUP5 MSTORE KECCAK256 SLOAD SWAP1 MLOAD SWAP1 DUP2 MSTORE RETURN JUMPDEST DUP3 DUP1 REVERT JUMPDEST SWAP3 SWAP2 POP CALLVALUE PUSH2 0x17C JUMPI PUSH1 0x20 CALLDATASIZE PUSH1 0x3 NOT ADD SLT PUSH2 0x17C JUMPI CALLDATALOAD PUSH1 0x1 PUSH1 0x1 PUSH1 0xA0 SHL SUB DUP2 AND SWAP1 DUP2 SWAP1 SUB PUSH2 0x17C JUMPI CALLER DUP4 MSTORE DUP3 PUSH1 0x20 MSTORE PUSH2 0x170 PUSH1 0x1 DUP4 DUP6 KECCAK256 SLOAD EQ PUSH2 0x777 JUMP JUMPDEST DUP3 MSTORE DUP2 PUSH1 0x20 MSTORE DUP2 KECCAK256 SSTORE DUP1 RETURN JUMPDEST POP POP REVERT JUMPDEST SWAP1 POP CALLVALUE PUSH2 0x12F JUMPI PUSH2 0x190 CALLDATASIZE PUSH2 0x725 JUMP JUMPDEST SWAP2 SWAP1 CALLER DUP6 MSTORE PUSH1 0x20 SWAP1 DUP6 DUP3 MSTORE PUSH1 0x1 SWAP5 PUSH2 0x1AC DUP7 DUP3 DUP10 KECCAK256 SLOAD EQ PUSH2 0x777 JUMP JUMPDEST DUP7 JUMPDEST DUP6 DUP2 LT PUSH2 0x282 JUMPI POP POP PUSH8 0xFFFFFFFFFFFFFFFF DUP5 GT PUSH2 0x26F JUMPI PUSH9 0x10000000000000000 DUP5 GT PUSH2 0x26F JUMPI DUP3 SLOAD DUP5 DUP5 SSTORE DUP1 DUP6 LT PUSH2 0x22D JUMPI JUMPDEST POP SWAP2 DUP6 MSTORE DUP5 JUMPDEST DUP4 DUP2 LT PUSH2 0x1F4 JUMPI DUP6 DUP1 RETURN JUMPDEST DUP5 SWAP1 DUP3 PUSH2 0x200 DUP6 PUSH2 0x7F8 JUMP JUMPDEST SWAP5 ADD SWAP4 DUP2 PUSH32 0x8A35ACFBC15FF81A39AE7D344FD709F28E8600B4AA8C65C6B64BFE7FE36BD19B ADD SSTORE ADD PUSH2 0x1E9 JUMP JUMPDEST DUP6 DUP6 PUSH32 0x8A35ACFBC15FF81A39AE7D344FD709F28E8600B4AA8C65C6B64BFE7FE36BD19B SWAP3 DUP4 ADD SWAP3 ADD JUMPDEST DUP3 DUP2 LT PUSH2 0x264 JUMPI POP POP PUSH2 0x1E3 JUMP JUMPDEST DUP9 DUP2 SSTORE ADD DUP7 SWAP1 PUSH2 0x256 JUMP JUMPDEST PUSH4 0x4E487B71 PUSH1 0xE0 SHL DUP7 MSTORE PUSH1 0x41 DUP4 MSTORE PUSH1 0x24 DUP7 REVERT JUMPDEST PUSH1 0x1 PUSH1 0x1 PUSH1 0xA0 SHL SUB DUP1 PUSH2 0x29E PUSH2 0x299 DUP5 DUP11 DUP9 PUSH2 0x7E8 JUMP JUMPDEST PUSH2 0x7F8 JUMP JUMPDEST AND ISZERO PUSH2 0x2EB JUMPI DUP8 DUP3 ADD SWAP1 DUP2 DUP4 GT PUSH2 0x2D8 JUMPI SWAP1 DUP3 SWAP2 PUSH2 0x2C3 PUSH2 0x299 PUSH2 0x2D3 SWAP6 DUP12 DUP10 PUSH2 0x7E8 JUMP JUMPDEST AND DUP11 MSTORE PUSH1 0x5 DUP7 MSTORE DUP4 DUP11 KECCAK256 SSTORE PUSH2 0x7C3 JUMP JUMPDEST PUSH2 0x1AE JUMP JUMPDEST PUSH4 0x4E487B71 PUSH1 0xE0 SHL DUP11 MSTORE PUSH1 0x11 DUP8 MSTORE PUSH1 0x24 DUP11 REVERT JUMPDEST DUP3 MLOAD PUSH3 0x461BCD PUSH1 0xE5 SHL DUP2 MSTORE DUP1 DUP8 ADD DUP7 SWAP1 MSTORE PUSH1 0x1D PUSH1 0x24 DUP3 ADD MSTORE PUSH32 0x4D656469616E5072696365466565642F6E6F2D636F6E74726163742D30000000 PUSH1 0x44 DUP3 ADD MSTORE PUSH1 0x64 SWAP1 REVERT JUMPDEST POP POP CALLVALUE PUSH2 0xF2 JUMPI PUSH2 0x33E CALLDATASIZE PUSH2 0x725 JUMP JUMPDEST SWAP2 SWAP1 CALLER DUP5 MSTORE PUSH1 0x20 SWAP1 DUP5 DUP3 MSTORE PUSH2 0x358 PUSH1 0x1 DUP5 DUP8 KECCAK256 SLOAD EQ PUSH2 0x777 JUMP JUMPDEST DUP5 JUMPDEST DUP5 DUP2 LT PUSH2 0x365 JUMPI DUP6 DUP1 RETURN JUMPDEST PUSH2 0x390 SWAP1 PUSH1 0x1 PUSH1 0x1 PUSH1 0xA0 SHL SUB PUSH2 0x37F PUSH2 0x299 DUP4 DUP10 DUP8 PUSH2 0x7E8 JUMP JUMPDEST AND DUP8 MSTORE PUSH1 0x5 DUP5 MSTORE DUP7 DUP6 DUP2 KECCAK256 SSTORE PUSH2 0x7C3 JUMP JUMPDEST PUSH2 0x35A JUMP JUMPDEST SWAP1 POP CALLVALUE PUSH2 0x12F JUMPI PUSH1 0x20 CALLDATASIZE PUSH1 0x3 NOT ADD SLT PUSH2 0x12F JUMPI CALLDATALOAD PUSH1 0x1 PUSH1 0x1 PUSH1 0xA0 SHL SUB DUP2 AND SWAP1 DUP2 SWAP1 SUB PUSH2 0x12F JUMPI DUP3 DUP3 SWAP2 PUSH1 0x20 SWAP5 MSTORE PUSH1 0x5 DUP5 MSTORE KECCAK256 SLOAD SWAP1 MLOAD SWAP1 DUP2 MSTORE RETURN JUMPDEST SWAP1 POP CALLVALUE PUSH2 0x12F JUMPI PUSH1 0x20 CALLDATASIZE PUSH1 0x3 NOT ADD SLT PUSH2 0x12F JUMPI CALLDATALOAD PUSH1 0x1 PUSH1 0x1 PUSH1 0xA0 SHL SUB DUP2 AND SWAP2 SWAP1 DUP3 SWAP1 SUB PUSH2 0x12F JUMPI PUSH1 0x1 SWAP2 CALLER DUP5 MSTORE DUP4 PUSH1 0x20 MSTORE PUSH2 0x40E DUP4 DUP4 DUP7 KECCAK256 SLOAD EQ PUSH2 0x777 JUMP JUMPDEST DUP4 MSTORE DUP3 PUSH1 0x20 MSTORE DUP3 KECCAK256 SSTORE DUP1 RETURN JUMPDEST DUP3 DUP5 CALLVALUE PUSH2 0x45A JUMPI PUSH1 0x20 CALLDATASIZE PUSH1 0x3 NOT ADD SLT PUSH2 0x45A JUMPI DUP3 CALLDATALOAD SWAP3 SLOAD DUP4 LT ISZERO PUSH2 0x45A JUMPI POP PUSH2 0x444 PUSH1 0x20 SWAP3 PUSH2 0x6D8 JUMP JUMPDEST SWAP1 SLOAD SWAP2 MLOAD SWAP2 PUSH1 0x1 DUP1 PUSH1 0xA0 SHL SUB SWAP2 PUSH1 0x3 SHL SHR AND DUP2 MSTORE RETURN JUMPDEST DUP1 REVERT JUMPDEST DUP3 DUP5 CALLVALUE PUSH2 0x45A JUMPI DUP1 PUSH1 0x3 NOT CALLDATASIZE ADD SLT PUSH2 0x45A JUMPI POP PUSH1 0x1 PUSH1 0x1 PUSH1 0x80 SHL SUB PUSH1 0x1 SLOAD AND DUP2 MLOAD SWAP1 DUP1 DUP3 MSTORE ISZERO ISZERO PUSH1 0x20 DUP3 ADD MSTORE RETURN JUMPDEST SWAP1 POP DUP3 CALLVALUE PUSH2 0x45A JUMPI DUP1 PUSH1 0x3 NOT CALLDATASIZE ADD SLT PUSH2 0x45A JUMPI POP PUSH1 0x1 PUSH1 0x1 PUSH1 0x80 SHL SUB PUSH1 0x1 SLOAD AND SWAP1 DUP2 ISZERO PUSH2 0x4BC JUMPI POP PUSH1 0x20 SWAP2 MLOAD SWAP1 DUP2 MSTORE RETURN JUMPDEST PUSH1 0x84 SWAP1 PUSH1 0x20 DUP5 MLOAD SWAP2 PUSH3 0x461BCD PUSH1 0xE5 SHL DUP4 MSTORE DUP3 ADD MSTORE PUSH1 0x22 PUSH1 0x24 DUP3 ADD MSTORE PUSH32 0x4D656469616E5072696365466565642F696E76616C69642D70726963652D6665 PUSH1 0x44 DUP3 ADD MSTORE PUSH2 0x1959 PUSH1 0xF2 SHL PUSH1 0x64 DUP3 ADD MSTORE REVERT JUMPDEST POP POP CALLVALUE PUSH2 0xF2 JUMPI DUP2 PUSH1 0x3 NOT CALLDATASIZE ADD SLT PUSH2 0xF2 JUMPI PUSH1 0x20 SWAP1 PUSH1 0x2 SLOAD SWAP1 MLOAD SWAP1 DUP2 MSTORE RETURN JUMPDEST POP POP CALLVALUE PUSH2 0xF2 JUMPI DUP2 PUSH1 0x3 NOT CALLDATASIZE ADD SLT PUSH2 0xF2 JUMPI PUSH1 0x20 SWAP1 PUSH1 0x1 PUSH1 0x1 PUSH1 0x80 SHL SUB PUSH1 0x1 SLOAD AND SWAP1 MLOAD SWAP1 DUP2 MSTORE RETURN JUMPDEST SWAP1 POP CALLVALUE PUSH2 0x12F JUMPI PUSH1 0x20 CALLDATASIZE PUSH1 0x3 NOT ADD SLT PUSH2 0x12F JUMPI DUP1 CALLDATALOAD SWAP2 CALLER DUP5 MSTORE DUP4 PUSH1 0x20 MSTORE PUSH2 0x57D PUSH1 0x1 DUP3 DUP7 KECCAK256 SLOAD EQ PUSH2 0x777 JUMP JUMPDEST DUP3 ISZERO PUSH2 0x5E5 JUMPI PUSH1 0x1 DUP4 AND ISZERO PUSH2 0x594 JUMPI POP POP PUSH1 0x3 SSTORE DUP1 RETURN JUMPDEST SWAP1 PUSH1 0x20 PUSH1 0x84 SWAP3 MLOAD SWAP2 PUSH3 0x461BCD PUSH1 0xE5 SHL DUP4 MSTORE DUP3 ADD MSTORE PUSH1 0x25 PUSH1 0x24 DUP3 ADD MSTORE PUSH32 0x4D656469616E5072696365466565642F71756F72756D2D6E6F742D6F64642D6E PUSH1 0x44 DUP3 ADD MSTORE PUSH5 0x3AB6B132B9 PUSH1 0xD9 SHL PUSH1 0x64 DUP3 ADD MSTORE REVERT JUMPDEST SWAP1 PUSH1 0x20 PUSH1 0x64 SWAP3 MLOAD SWAP2 PUSH3 0x461BCD PUSH1 0xE5 SHL DUP4 MSTORE DUP3 ADD MSTORE PUSH1 0x1E PUSH1 0x24 DUP3 ADD MSTORE PUSH32 0x4D656469616E5072696365466565642F71756F72756D2D69732D7A65726F0000 PUSH1 0x44 DUP3 ADD MSTORE REVERT JUMPDEST POP POP CALLVALUE PUSH2 0xF2 JUMPI DUP2 PUSH1 0x3 NOT CALLDATASIZE ADD SLT PUSH2 0xF2 JUMPI PUSH1 0x20 SWAP1 PUSH4 0xFFFFFFFF PUSH1 0x1 SLOAD PUSH1 0x80 SHR AND SWAP1 MLOAD SWAP1 DUP2 MSTORE RETURN JUMPDEST DUP3 DUP5 CALLVALUE PUSH2 0x45A JUMPI DUP1 PUSH1 0x3 NOT CALLDATASIZE ADD SLT PUSH2 0x45A JUMPI POP PUSH4 0xFFFFFFFF PUSH2 0x670 PUSH2 0x870 JUMP JUMPDEST PUSH1 0x1 PUSH1 0x1 PUSH1 0x80 SHL SUB DUP5 SWAP4 SWAP3 SWAP4 MLOAD SWAP4 AND DUP4 MSTORE AND PUSH1 0x20 DUP3 ADD MSTORE RETURN JUMPDEST DUP4 CALLVALUE PUSH2 0x45A JUMPI DUP1 PUSH1 0x3 NOT CALLDATASIZE ADD SLT PUSH2 0x45A JUMPI PUSH2 0x6A2 PUSH2 0x870 JUMP JUMPDEST SWAP1 PUSH1 0x1 PUSH1 0x1 PUSH1 0x80 SHL SUB PUSH1 0x1 SLOAD SWAP2 AND SWAP2 PUSH4 0xFFFFFFFF PUSH1 0x80 SHL SWAP1 PUSH1 0x80 SHL AND SWAP1 PUSH12 0xFFFFFFFFFFFFFFFFFFFFFFFF PUSH1 0xA0 SHL AND OR OR PUSH1 0x1 SSTORE DUP1 RETURN JUMPDEST PUSH1 0x4 SLOAD DUP2 LT ISZERO PUSH2 0x70F JUMPI PUSH1 0x4 PUSH1 0x0 MSTORE PUSH32 0x8A35ACFBC15FF81A39AE7D344FD709F28E8600B4AA8C65C6B64BFE7FE36BD19B ADD SWAP1 PUSH1 0x0 SWAP1 JUMP JUMPDEST PUSH4 0x4E487B71 PUSH1 0xE0 SHL PUSH1 0x0 MSTORE PUSH1 0x32 PUSH1 0x4 MSTORE PUSH1 0x24 PUSH1 0x0 REVERT JUMPDEST SWAP1 PUSH1 0x20 PUSH1 0x3 NOT DUP4 ADD SLT PUSH2 0x772 JUMPI PUSH1 0x4 CALLDATALOAD PUSH8 0xFFFFFFFFFFFFFFFF SWAP3 DUP4 DUP3 GT PUSH2 0x772 JUMPI DUP1 PUSH1 0x23 DUP4 ADD SLT ISZERO PUSH2 0x772 JUMPI DUP2 PUSH1 0x4 ADD CALLDATALOAD SWAP4 DUP5 GT PUSH2 0x772 JUMPI PUSH1 0x24 DUP5 PUSH1 0x5 SHL DUP4 ADD ADD GT PUSH2 0x772 JUMPI PUSH1 0x24 ADD SWAP2 SWAP1 JUMP JUMPDEST PUSH1 0x0 DUP1 REVERT JUMPDEST ISZERO PUSH2 0x77E JUMPI JUMP JUMPDEST PUSH1 0x40 MLOAD PUSH3 0x461BCD PUSH1 0xE5 SHL DUP2 MSTORE PUSH1 0x20 PUSH1 0x4 DUP3 ADD MSTORE PUSH1 0x1E PUSH1 0x24 DUP3 ADD MSTORE PUSH32 0x4D656469616E5072696365466565642F6E6F742D617574686F72697A65640000 PUSH1 0x44 DUP3 ADD MSTORE PUSH1 0x64 SWAP1 REVERT JUMPDEST PUSH1 0x0 NOT DUP2 EQ PUSH2 0x7D2 JUMPI PUSH1 0x1 ADD SWAP1 JUMP JUMPDEST PUSH4 0x4E487B71 PUSH1 0xE0 SHL PUSH1 0x0 MSTORE PUSH1 0x11 PUSH1 0x4 MSTORE PUSH1 0x24 PUSH1 0x0 REVERT JUMPDEST SWAP2 SWAP1 DUP2 LT ISZERO PUSH2 0x70F JUMPI PUSH1 0x5 SHL ADD SWAP1 JUMP JUMPDEST CALLDATALOAD PUSH1 0x1 PUSH1 0x1 PUSH1 0xA0 SHL SUB DUP2 AND DUP2 SUB PUSH2 0x772 JUMPI SWAP1 JUMP JUMPDEST SWAP1 PUSH1 0x1F DUP1 NOT SWAP2 ADD AND DUP2 ADD SWAP1 DUP2 LT PUSH8 0xFFFFFFFFFFFFFFFF DUP3 GT OR PUSH2 0x82E JUMPI PUSH1 0x40 MSTORE JUMP JUMPDEST PUSH4 0x4E487B71 PUSH1 0xE0 SHL PUSH1 0x0 MSTORE PUSH1 0x41 PUSH1 0x4 MSTORE PUSH1 0x24 PUSH1 0x0 REVERT JUMPDEST PUSH8 0xFFFFFFFFFFFFFFFF DUP2 GT PUSH2 0x82E JUMPI PUSH1 0x5 SHL PUSH1 0x20 ADD SWAP1 JUMP JUMPDEST DUP1 MLOAD DUP3 LT ISZERO PUSH2 0x70F JUMPI PUSH1 0x20 SWAP2 PUSH1 0x5 SHL ADD ADD SWAP1 JUMP JUMPDEST PUSH1 0x4 SWAP1 DUP2 SLOAD PUSH1 0x3 DUP1 SLOAD SWAP2 DUP3 DUP2 LT PUSH2 0xB68 JUMPI PUSH2 0x88A DUP2 PUSH2 0x844 JUMP JUMPDEST SWAP3 PUSH1 0x40 SWAP1 PUSH2 0x89A DUP3 MLOAD SWAP6 DUP7 PUSH2 0x80C JUMP JUMPDEST DUP3 DUP6 MSTORE PUSH1 0x1F NOT PUSH2 0x8A9 DUP5 PUSH2 0x844 JUMP JUMPDEST ADD SWAP3 PUSH1 0x20 SWAP4 CALLDATASIZE DUP6 DUP9 ADD CALLDATACOPY PUSH1 0x0 SWAP5 DUP6 JUMPDEST DUP3 DUP2 LT PUSH2 0xAAE JUMPI POP POP POP DUP4 LT PUSH2 0xA5C JUMPI POP POP PUSH1 0x0 SWAP1 JUMPDEST PUSH1 0x0 NOT SWAP4 DUP2 DUP6 ADD DUP3 DUP2 GT PUSH2 0xA47 JUMPI DUP4 LT ISZERO PUSH2 0x9A9 JUMPI PUSH1 0x0 JUMPDEST DUP4 DUP4 SUB DUP4 DUP2 GT PUSH2 0x994 JUMPI DUP7 DUP2 ADD SWAP1 DUP2 GT PUSH2 0x994 JUMPI DUP2 LT ISZERO PUSH2 0x981 JUMPI PUSH2 0x90B DUP2 DUP7 PUSH2 0x85C JUMP JUMPDEST MLOAD PUSH1 0x1 DUP3 ADD SWAP1 DUP2 DUP4 GT PUSH2 0x96C JUMPI SWAP1 PUSH2 0x935 SWAP3 SWAP2 PUSH2 0x928 DUP3 DUP10 PUSH2 0x85C JUMP JUMPDEST MLOAD LT PUSH2 0x93A JUMPI JUMPDEST POP PUSH2 0x7C3 JUMP JUMPDEST PUSH2 0x8E6 JUMP JUMPDEST PUSH2 0x965 PUSH2 0x947 DUP4 DUP10 PUSH2 0x85C JUMP JUMPDEST MLOAD SWAP2 PUSH2 0x953 DUP2 DUP11 PUSH2 0x85C JUMP JUMPDEST MLOAD PUSH2 0x95E DUP6 DUP12 PUSH2 0x85C JUMP JUMPDEST MSTORE DUP9 PUSH2 0x85C JUMP JUMPDEST MSTORE CODESIZE PUSH2 0x92F JUMP JUMPDEST PUSH1 0x11 DUP10 PUSH4 0x4E487B71 PUSH1 0xE0 SHL PUSH1 0x0 MSTORE MSTORE PUSH1 0x24 PUSH1 0x0 REVERT JUMPDEST POP SWAP4 POP SWAP1 PUSH2 0x98E SWAP1 PUSH2 0x7C3 JUMP JUMPDEST SWAP1 PUSH2 0x8CE JUMP JUMPDEST PUSH1 0x11 DUP9 PUSH4 0x4E487B71 PUSH1 0xE0 SHL PUSH1 0x0 MSTORE MSTORE PUSH1 0x24 PUSH1 0x0 REVERT JUMPDEST SWAP5 SWAP3 SWAP4 POP SWAP1 POP PUSH1 0x1 DUP2 AND PUSH2 0xA29 JUMPI PUSH1 0x1 SHR PUSH1 0x0 NOT DUP2 ADD DUP2 DUP2 GT PUSH2 0xA14 JUMPI SWAP1 PUSH2 0x9D4 PUSH2 0x9DB SWAP3 DUP6 PUSH2 0x85C JUMP JUMPDEST MLOAD SWAP4 PUSH2 0x85C JUMP JUMPDEST MLOAD DUP3 ADD DUP1 SWAP3 GT PUSH2 0x9FF JUMPI POP PUSH1 0x1 PUSH1 0x1 PUSH1 0x80 SHL SUB SWAP1 PUSH1 0x1 SHR JUMPDEST AND SWAP1 PUSH4 0xFFFFFFFF TIMESTAMP AND SWAP1 JUMP JUMPDEST PUSH1 0x11 SWAP1 PUSH4 0x4E487B71 PUSH1 0xE0 SHL PUSH1 0x0 MSTORE MSTORE PUSH1 0x24 PUSH1 0x0 REVERT JUMPDEST PUSH1 0x11 DUP4 PUSH4 0x4E487B71 PUSH1 0xE0 SHL PUSH1 0x0 MSTORE MSTORE PUSH1 0x24 PUSH1 0x0 REVERT JUMPDEST PUSH2 0xA41 SWAP2 POP SWAP2 PUSH1 0x1 PUSH1 0x1 PUSH1 0x80 SHL SUB SWAP3 PUSH1 0x1 SHR SWAP1 PUSH2 0x85C JUMP JUMPDEST MLOAD PUSH2 0x9F3 JUMP JUMPDEST PUSH1 0x11 DUP8 PUSH4 0x4E487B71 PUSH1 0xE0 SHL PUSH1 0x0 MSTORE MSTORE PUSH1 0x24 PUSH1 0x0 REVERT JUMPDEST MLOAD PUSH3 0x461BCD PUSH1 0xE5 SHL DUP2 MSTORE DUP1 DUP7 ADD SWAP2 SWAP1 SWAP2 MSTORE PUSH1 0x26 PUSH1 0x24 DUP3 ADD MSTORE PUSH32 0x4D656469616E5072696365466565642F6E6F742D656E6F7567682D76616C6964 PUSH1 0x44 DUP3 ADD MSTORE PUSH6 0x2D6665656473 PUSH1 0xD0 SHL PUSH1 0x64 DUP3 ADD MSTORE PUSH1 0x84 SWAP1 REVERT JUMPDEST DUP10 DUP6 PUSH2 0xAB9 DUP4 PUSH2 0x6D8 JUMP JUMPDEST SWAP1 SLOAD DUP3 MLOAD PUSH4 0x59E02DD7 PUSH1 0xE0 SHL DUP2 MSTORE SWAP4 DUP5 SWAP3 SWAP1 SWAP2 DUP4 SWAP2 DUP9 SHL SHR PUSH1 0x1 PUSH1 0x1 PUSH1 0xA0 SHL SUB AND GAS STATICCALL DUP1 PUSH1 0x0 SWAP3 DUP4 SWAP3 PUSH2 0xB28 JUMPI JUMPDEST POP PUSH2 0xAFD JUMPI JUMPDEST POP POP PUSH2 0xAF8 SWAP1 PUSH2 0x7C3 JUMP JUMPDEST PUSH2 0x8B8 JUMP JUMPDEST PUSH2 0xB08 JUMPI JUMPDEST DUP1 PUSH2 0xAED JUMP JUMPDEST DUP8 PUSH2 0xB21 SWAP2 PUSH2 0xB1B PUSH2 0xAF8 SWAP5 SWAP11 DUP13 PUSH2 0x85C JUMP JUMPDEST MSTORE PUSH2 0x7C3 JUMP JUMPDEST SWAP7 SWAP1 PUSH2 0xB02 JUMP JUMPDEST SWAP1 SWAP2 POP DUP8 DUP2 DUP2 RETURNDATASIZE DUP4 GT PUSH2 0xB61 JUMPI JUMPDEST PUSH2 0xB40 DUP2 DUP4 PUSH2 0x80C JUMP JUMPDEST DUP2 ADD SUB SLT PUSH2 0x12F JUMPI DUP9 DUP2 MLOAD SWAP2 ADD MLOAD SWAP3 DUP4 ISZERO ISZERO DUP5 SUB PUSH2 0x45A JUMPI POP SWAP2 SWAP1 CODESIZE PUSH2 0xAE7 JUMP JUMPDEST POP RETURNDATASIZE PUSH2 0xB36 JUMP JUMPDEST PUSH1 0x40 MLOAD PUSH3 0x461BCD PUSH1 0xE5 SHL DUP2 MSTORE PUSH1 0x20 DUP2 DUP8 ADD DUP2 SWAP1 MSTORE PUSH1 0x24 DUP3 ADD MSTORE PUSH32 0x4D656469616E5072696365466565642F6E6F742D656E6F7567682D6665656473 PUSH1 0x44 DUP3 ADD MSTORE PUSH1 0x64 SWAP1 REVERT INVALID LOG2 PUSH5 0x6970667358 0x22 SLT KECCAK256 NUMBER DUP10 PUSH22 0xB6B5AB5603C17DF18E203EA3C753E3B78DBC00DA2F1 CALLCODE GASPRICE 0xB4 PUSH29 0x9115A364736F6C63430008130033000000000000000000000000000000 "},"methodIdentifiers":{"age()":"262a9dff","bar()":"febb0f7e","compute()":"1a43c338","deny(address)":"9c52a7f1","drop(address[])":"8ef5eaf0","lift(address[])":"94318106","oracles(uint256)":"5b69a7d8","peek()":"59e02dd7","poke()":"18178358","read()":"57de26a4","rely(address)":"65fae35e","setBar(uint256)":"352d3fba","slot(address)":"6c62fd77","val()":"3c6bb436","wards(address)":"bf353dbb","wat()":"4ca29923"}}}}}