{"contracts/PriceFeed.sol":{"ChainlinkPriceFeed":{"abi":[{"inputs":[{"internalType":"address","name":"_priceFeed","type":"address"}],"stateMutability":"nonpayable","type":"constructor"},{"inputs":[{"internalType":"address","name":"usr","type":"address"}],"name":"deny","outputs":[],"stateMutability":"nonpayable","type":"function"},{"inputs":[],"name":"feedDecimals","outputs":[{"internalType":"uint8","name":"","type":"uint8"}],"stateMutability":"view","type":"function"},{"inputs":[],"name":"peek","outputs":[{"internalType":"bytes32","name":"","type":"bytes32"},{"internalType":"bool","name":"","type":"bool"}],"stateMutability":"view","type":"function"},{"inputs":[],"name":"read","outputs":[{"internalType":"bytes32","name":"","type":"bytes32"}],"stateMutability":"view","type":"function"},{"inputs":[{"internalType":"address","name":"usr","type":"address"}],"name":"rely","outputs":[],"stateMutability":"nonpayable","type":"function"},{"inputs":[{"internalType":"uint256","name":"_stalePeriod","type":"uint256"}],"name":"setStalePeriod","outputs":[],"stateMutability":"nonpayable","type":"function"},{"inputs":[],"name":"stalePeriod","outputs":[{"internalType":"uint256","name":"","type":"uint256"}],"stateMutability":"view","type":"function"},{"inputs":[{"internalType":"address","name":"","type":"address"}],"name":"wards","outputs":[{"internalType":"uint256","name":"","type":"uint256"}],"stateMutability":"view","type":"function"}],"evm":{"bytecode":{"linkReferences":{},"object":"60808060405234610108578061063e803803809161001d828561010d565b833960209283918101031261010857516001600160a01b038116908190036101085760009133835282815260016040842055600154928260018060a01b031985161760015560405163313ce56760e01b81528281600481875afa9283156100fd5782936100ba575b5050506001600160a81b03199092161760a09190911b60ff60a01b1617600155610e106002556040516104f790816101478239f35b9080929350813d83116100f6575b6100d2818361010d565b810103126100f257519060ff821682036100ef5750388080610085565b80fd5b5080fd5b503d6100c8565b6040513d84823e3d90fd5b600080fd5b601f909101601f19168101906001600160401b0382119082101761013057604052565b634e487b7160e01b600052604160045260246000fdfe6040608081526004908136101561001557600080fd5b600091823560e01c90816357de26a4146101f557816359e02dd7146101c957816365fae35e1461017e578382639c52a7f11461013157508163a5b36a3614610112578163a6f4ab2e146100e1578163bf353dbb146100a4575063c23953d01461007d57600080fd5b346100a057816003193601126100a05760209060ff60015460a01c169051908152f35b5080fd5b9050346100dd5760203660031901126100dd57356001600160a01b038116908190036100dd578282916020945280845220549051908152f35b8280fd5b919050346100dd5760203660031901126100dd57600161010b913385528460205284205414610274565b3560025580f35b5050346100a057816003193601126100a0576020906002549051908152f35b9291503461017a57602036600319011261017a57356001600160a01b0381169081900361017a573383528260205261016e60018385205414610274565b82528160205281205580f35b5050fd5b9050346100dd5760203660031901126100dd57356001600160a01b03811691908290036100dd57600191338452836020526101bd838386205414610274565b83528260205282205580f35b8284346101f257806003193601126101f257506101e461030d565b825191825215156020820152f35b80fd5b905082346101f257806003193601126101f2575061021161030d565b91909115610223575060209151908152f35b608490602084519162461bcd60e51b8352820152602560248201527f436861696e6c696e6b5072696365466565642f696e76616c69642d70726963656044820152640b5999595960da1b6064820152fd5b1561027b57565b60405162461bcd60e51b815260206004820152602160248201527f436861696e6c696e6b5072696365466565642f6e6f742d617574686f72697a656044820152601960fa1b6064820152608490fd5b519069ffffffffffffffffffff821682036102e157565b600080fd5b60ff16604d81116102f757600a0a90565b634e487b7160e01b600052601160045260246000fd5b600154604051633fabe5a360e21b81529060049060a08383816001600160a01b0385165afa806000948592610442575b5061034f575b50505050600090600090565b60008413908161042c575b506103655780610343565b60a01c60ff1660128110156103cb5760120360ff81116103b657610388906102e6565b918281029281840414901517156103a157505b90600190565b601190634e487b7160e01b6000525260246000fd5b601182634e487b7160e01b6000525260246000fd5b9091906012811115610424576011190160ff811161040f576103ec906102e6565b9182156103fa57500461039b565b601290634e487b7160e01b6000525260246000fd5b601183634e487b7160e01b6000525260246000fd5b50905061039b565b9050420342811161040f5760025410153861035a565b9490915060a03d81116104ba575b601f8101601f1916860167ffffffffffffffff8111878210176104a75760a0918791604052810103126101f25750610487846102ca565b50602084015161049e6080606087015196016102ca565b5093903861033d565b634e487b7160e01b835260418652602483fd5b503d61045056fea2646970667358221220e3d67d74df650c8b431cd4acd257d7bede53bec3bfffd829de83c8b568da38db64736f6c63430008130033","opcodes":"PUSH1 0x80 DUP1 PUSH1 0x40 MSTORE CALLVALUE PUSH2 0x108 JUMPI DUP1 PUSH2 0x63E DUP1 CODESIZE SUB DUP1 SWAP2 PUSH2 0x1D DUP3 DUP6 PUSH2 0x10D JUMP JUMPDEST DUP4 CODECOPY PUSH1 0x20 SWAP3 DUP4 SWAP2 DUP2 ADD SUB SLT PUSH2 0x108 JUMPI MLOAD PUSH1 0x1 PUSH1 0x1 PUSH1 0xA0 SHL SUB DUP2 AND SWAP1 DUP2 SWAP1 SUB PUSH2 0x108 JUMPI PUSH1 0x0 SWAP2 CALLER DUP4 MSTORE DUP3 DUP2 MSTORE PUSH1 0x1 PUSH1 0x40 DUP5 KECCAK256 SSTORE PUSH1 0x1 SLOAD SWAP3 DUP3 PUSH1 0x1 DUP1 PUSH1 0xA0 SHL SUB NOT DUP6 AND OR PUSH1 0x1 SSTORE PUSH1 0x40 MLOAD PUSH4 0x313CE567 PUSH1 0xE0 SHL DUP2 MSTORE DUP3 DUP2 PUSH1 0x4 DUP2 DUP8 GAS STATICCALL SWAP3 DUP4 ISZERO PUSH2 0xFD JUMPI DUP3 SWAP4 PUSH2 0xBA JUMPI JUMPDEST POP POP POP PUSH1 0x1 PUSH1 0x1 PUSH1 0xA8 SHL SUB NOT SWAP1 SWAP3 AND OR PUSH1 0xA0 SWAP2 SWAP1 SWAP2 SHL PUSH1 0xFF PUSH1 0xA0 SHL AND OR PUSH1 0x1 SSTORE PUSH2 0xE10 PUSH1 0x2 SSTORE PUSH1 0x40 MLOAD PUSH2 0x4F7 SWAP1 DUP2 PUSH2 0x147 DUP3 CODECOPY RETURN JUMPDEST SWAP1 DUP1 SWAP3 SWAP4 POP DUP2 RETURNDATASIZE DUP4 GT PUSH2 0xF6 JUMPI JUMPDEST PUSH2 0xD2 DUP2 DUP4 PUSH2 0x10D JUMP JUMPDEST DUP2 ADD SUB SLT PUSH2 0xF2 JUMPI MLOAD SWAP1 PUSH1 0xFF DUP3 AND DUP3 SUB PUSH2 0xEF JUMPI POP CODESIZE DUP1 DUP1 PUSH2 0x85 JUMP JUMPDEST DUP1 REVERT JUMPDEST POP DUP1 REVERT JUMPDEST POP RETURNDATASIZE PUSH2 0xC8 JUMP JUMPDEST PUSH1 0x40 MLOAD RETURNDATASIZE DUP5 DUP3 RETURNDATACOPY RETURNDATASIZE SWAP1 REVERT JUMPDEST PUSH1 0x0 DUP1 REVERT JUMPDEST PUSH1 0x1F SWAP1 SWAP2 ADD PUSH1 0x1F NOT AND DUP2 ADD SWAP1 PUSH1 0x1 PUSH1 0x1 PUSH1 0x40 SHL SUB DUP3 GT SWAP1 DUP3 LT OR PUSH2 0x130 JUMPI PUSH1 0x40 MSTORE JUMP JUMPDEST PUSH4 0x4E487B71 PUSH1 0xE0 SHL PUSH1 0x0 MSTORE PUSH1 0x41 PUSH1 0x4 MSTORE PUSH1 0x24 PUSH1 0x0 REVERT INVALID PUSH1 0x40 PUSH1 0x80 DUP2 MSTORE PUSH1 0x4 SWAP1 DUP2 CALLDATASIZE LT ISZERO PUSH2 0x15 JUMPI PUSH1 0x0 DUP1 REVERT JUMPDEST PUSH1 0x0 SWAP2 DUP3 CALLDATALOAD PUSH1 0xE0 SHR SWAP1 DUP2 PUSH4 0x57DE26A4 EQ PUSH2 0x1F5 JUMPI DUP2 PUSH4 0x59E02DD7 EQ PUSH2 0x1C9 JUMPI DUP2 PUSH4 0x65FAE35E EQ PUSH2 0x17E JUMPI DUP4 DUP3 PUSH4 0x9C52A7F1 EQ PUSH2 0x131 JUMPI POP DUP2 PUSH4 0xA5B36A36 EQ PUSH2 0x112 JUMPI DUP2 PUSH4 0xA6F4AB2E EQ PUSH2 0xE1 JUMPI DUP2 PUSH4 0xBF353DBB EQ PUSH2 0xA4 JUMPI POP PUSH4 0xC23953D0 EQ PUSH2 0x7D JUMPI PUSH1 0x0 DUP1 REVERT JUMPDEST CALLVALUE PUSH2 0xA0 JUMPI DUP2 PUSH1 0x3 NOT CALLDATASIZE ADD SLT PUSH2 0xA0 JUMPI PUSH1 0x20 SWAP1 PUSH1 0xFF PUSH1 0x1 SLOAD PUSH1 0xA0 SHR AND SWAP1 MLOAD SWAP1 DUP2 MSTORE RETURN JUMPDEST POP DUP1 REVERT JUMPDEST SWAP1 POP CALLVALUE PUSH2 0xDD JUMPI PUSH1 0x20 CALLDATASIZE PUSH1 0x3 NOT ADD SLT PUSH2 0xDD JUMPI CALLDATALOAD PUSH1 0x1 PUSH1 0x1 PUSH1 0xA0 SHL SUB DUP2 AND SWAP1 DUP2 SWAP1 SUB PUSH2 0xDD JUMPI DUP3 DUP3 SWAP2 PUSH1 0x20 SWAP5 MSTORE DUP1 DUP5 MSTORE KECCAK256 SLOAD SWAP1 MLOAD SWAP1 DUP2 MSTORE RETURN JUMPDEST DUP3 DUP1 REVERT JUMPDEST SWAP2 SWAP1 POP CALLVALUE PUSH2 0xDD JUMPI PUSH1 0x20 CALLDATASIZE PUSH1 0x3 NOT ADD SLT PUSH2 0xDD JUMPI PUSH1 0x1 PUSH2 0x10B SWAP2 CALLER DUP6 MSTORE DUP5 PUSH1 0x20 MSTORE DUP5 KECCAK256 SLOAD EQ PUSH2 0x274 JUMP JUMPDEST CALLDATALOAD PUSH1 0x2 SSTORE DUP1 RETURN JUMPDEST POP POP CALLVALUE PUSH2 0xA0 JUMPI DUP2 PUSH1 0x3 NOT CALLDATASIZE ADD SLT PUSH2 0xA0 JUMPI PUSH1 0x20 SWAP1 PUSH1 0x2 SLOAD SWAP1 MLOAD SWAP1 DUP2 MSTORE RETURN JUMPDEST SWAP3 SWAP2 POP CALLVALUE PUSH2 0x17A JUMPI PUSH1 0x20 CALLDATASIZE PUSH1 0x3 NOT ADD SLT PUSH2 0x17A JUMPI CALLDATALOAD PUSH1 0x1 PUSH1 0x1 PUSH1 0xA0 SHL SUB DUP2 AND SWAP1 DUP2 SWAP1 SUB PUSH2 0x17A JUMPI CALLER DUP4 MSTORE DUP3 PUSH1 0x20 MSTORE PUSH2 0x16E PUSH1 0x1 DUP4 DUP6 KECCAK256 SLOAD EQ PUSH2 0x274 JUMP JUMPDEST DUP3 MSTORE DUP2 PUSH1 0x20 MSTORE DUP2 KECCAK256 SSTORE DUP1 RETURN JUMPDEST POP POP REVERT JUMPDEST SWAP1 POP CALLVALUE PUSH2 0xDD JUMPI PUSH1 0x20 CALLDATASIZE PUSH1 0x3 NOT ADD SLT PUSH2 0xDD JUMPI CALLDATALOAD PUSH1 0x1 PUSH1 0x1 PUSH1 0xA0 SHL SUB DUP2 AND SWAP2 SWAP1 DUP3 SWAP1 SUB PUSH2 0xDD JUMPI PUSH1 0x1 SWAP2 CALLER DUP5 MSTORE DUP4 PUSH1 0x20 MSTORE PUSH2 0x1BD DUP4 DUP4 DUP7 KECCAK256 SLOAD EQ PUSH2 0x274 JUMP JUMPDEST DUP4 MSTORE DUP3 PUSH1 0x20 MSTORE DUP3 KECCAK256 SSTORE DUP1 RETURN JUMPDEST DUP3 DUP5 CALLVALUE PUSH2 0x1F2 JUMPI DUP1 PUSH1 0x3 NOT CALLDATASIZE ADD SLT PUSH2 0x1F2 JUMPI POP PUSH2 0x1E4 PUSH2 0x30D JUMP JUMPDEST DUP3 MLOAD SWAP2 DUP3 MSTORE ISZERO ISZERO PUSH1 0x20 DUP3 ADD MSTORE RETURN JUMPDEST DUP1 REVERT JUMPDEST SWAP1 POP DUP3 CALLVALUE PUSH2 0x1F2 JUMPI DUP1 PUSH1 0x3 NOT CALLDATASIZE ADD SLT PUSH2 0x1F2 JUMPI POP PUSH2 0x211 PUSH2 0x30D JUMP JUMPDEST SWAP2 SWAP1 SWAP2 ISZERO PUSH2 0x223 JUMPI POP PUSH1 0x20 SWAP2 MLOAD SWAP1 DUP2 MSTORE RETURN JUMPDEST PUSH1 0x84 SWAP1 PUSH1 0x20 DUP5 MLOAD SWAP2 PUSH3 0x461BCD PUSH1 0xE5 SHL DUP4 MSTORE DUP3 ADD MSTORE PUSH1 0x25 PUSH1 0x24 DUP3 ADD MSTORE PUSH32 0x436861696E6C696E6B5072696365466565642F696E76616C69642D7072696365 PUSH1 0x44 DUP3 ADD MSTORE PUSH5 0xB59995959 PUSH1 0xDA SHL PUSH1 0x64 DUP3 ADD MSTORE REVERT JUMPDEST ISZERO PUSH2 0x27B JUMPI JUMP JUMPDEST PUSH1 0x40 MLOAD PUSH3 0x461BCD PUSH1 0xE5 SHL DUP2 MSTORE PUSH1 0x20 PUSH1 0x4 DUP3 ADD MSTORE PUSH1 0x21 PUSH1 0x24 DUP3 ADD MSTORE PUSH32 0x436861696E6C696E6B5072696365466565642F6E6F742D617574686F72697A65 PUSH1 0x44 DUP3 ADD MSTORE PUSH1 0x19 PUSH1 0xFA SHL PUSH1 0x64 DUP3 ADD MSTORE PUSH1 0x84 SWAP1 REVERT JUMPDEST MLOAD SWAP1 PUSH10 0xFFFFFFFFFFFFFFFFFFFF DUP3 AND DUP3 SUB PUSH2 0x2E1 JUMPI JUMP JUMPDEST PUSH1 0x0 DUP1 REVERT JUMPDEST PUSH1 0xFF AND PUSH1 0x4D DUP2 GT PUSH2 0x2F7 JUMPI PUSH1 0xA EXP SWAP1 JUMP JUMPDEST PUSH4 0x4E487B71 PUSH1 0xE0 SHL PUSH1 0x0 MSTORE PUSH1 0x11 PUSH1 0x4 MSTORE PUSH1 0x24 PUSH1 0x0 REVERT JUMPDEST PUSH1 0x1 SLOAD PUSH1 0x40 MLOAD PUSH4 0x3FABE5A3 PUSH1 0xE2 SHL DUP2 MSTORE SWAP1 PUSH1 0x4 SWAP1 PUSH1 0xA0 DUP4 DUP4 DUP2 PUSH1 0x1 PUSH1 0x1 PUSH1 0xA0 SHL SUB DUP6 AND GAS STATICCALL DUP1 PUSH1 0x0 SWAP5 DUP6 SWAP3 PUSH2 0x442 JUMPI JUMPDEST POP PUSH2 0x34F JUMPI JUMPDEST POP POP POP POP PUSH1 0x0 SWAP1 PUSH1 0x0 SWAP1 JUMP JUMPDEST PUSH1 0x0 DUP5 SGT SWAP1 DUP2 PUSH2 0x42C JUMPI JUMPDEST POP PUSH2 0x365 JUMPI DUP1 PUSH2 0x343 JUMP JUMPDEST PUSH1 0xA0 SHR PUSH1 0xFF AND PUSH1 0x12 DUP2 LT ISZERO PUSH2 0x3CB JUMPI PUSH1 0x12 SUB PUSH1 0xFF DUP2 GT PUSH2 0x3B6 JUMPI PUSH2 0x388 SWAP1 PUSH2 0x2E6 JUMP JUMPDEST SWAP2 DUP3 DUP2 MUL SWAP3 DUP2 DUP5 DIV EQ SWAP1 ISZERO OR ISZERO PUSH2 0x3A1 JUMPI POP JUMPDEST SWAP1 PUSH1 0x1 SWAP1 JUMP JUMPDEST PUSH1 0x11 SWAP1 PUSH4 0x4E487B71 PUSH1 0xE0 SHL PUSH1 0x0 MSTORE MSTORE PUSH1 0x24 PUSH1 0x0 REVERT JUMPDEST PUSH1 0x11 DUP3 PUSH4 0x4E487B71 PUSH1 0xE0 SHL PUSH1 0x0 MSTORE MSTORE PUSH1 0x24 PUSH1 0x0 REVERT JUMPDEST SWAP1 SWAP2 SWAP1 PUSH1 0x12 DUP2 GT ISZERO PUSH2 0x424 JUMPI PUSH1 0x11 NOT ADD PUSH1 0xFF DUP2 GT PUSH2 0x40F JUMPI PUSH2 0x3EC SWAP1 PUSH2 0x2E6 JUMP JUMPDEST SWAP2 DUP3 ISZERO PUSH2 0x3FA JUMPI POP DIV PUSH2 0x39B JUMP JUMPDEST PUSH1 0x12 SWAP1 PUSH4 0x4E487B71 PUSH1 0xE0 SHL PUSH1 0x0 MSTORE MSTORE PUSH1 0x24 PUSH1 0x0 REVERT JUMPDEST PUSH1 0x11 DUP4 PUSH4 0x4E487B71 PUSH1 0xE0 SHL PUSH1 0x0 MSTORE MSTORE PUSH1 0x24 PUSH1 0x0 REVERT JUMPDEST POP SWAP1 POP PUSH2 0x39B JUMP JUMPDEST SWAP1 POP TIMESTAMP SUB TIMESTAMP DUP2 GT PUSH2 0x40F JUMPI PUSH1 0x2 SLOAD LT ISZERO CODESIZE PUSH2 0x35A JUMP JUMPDEST SWAP5 SWAP1 SWAP2 POP PUSH1 0xA0 RETURNDATASIZE DUP2 GT PUSH2 0x4BA JUMPI JUMPDEST PUSH1 0x1F DUP2 ADD PUSH1 0x1F NOT AND DUP7 ADD PUSH8 0xFFFFFFFFFFFFFFFF DUP2 GT DUP8 DUP3 LT OR PUSH2 0x4A7 JUMPI PUSH1 0xA0 SWAP2 DUP8 SWAP2 PUSH1 0x40 MSTORE DUP2 ADD SUB SLT PUSH2 0x1F2 JUMPI POP PUSH2 0x487 DUP5 PUSH2 0x2CA JUMP JUMPDEST POP PUSH1 0x20 DUP5 ADD MLOAD PUSH2 0x49E PUSH1 0x80 PUSH1 0x60 DUP8 ADD MLOAD SWAP7 ADD PUSH2 0x2CA JUMP JUMPDEST POP SWAP4 SWAP1 CODESIZE PUSH2 0x33D JUMP JUMPDEST PUSH4 0x4E487B71 PUSH1 0xE0 SHL DUP4 MSTORE PUSH1 0x41 DUP7 MSTORE PUSH1 0x24 DUP4 REVERT JUMPDEST POP RETURNDATASIZE PUSH2 0x450 JUMP INVALID LOG2 PUSH5 0x6970667358 0x22 SLT KECCAK256 0xE3 0xD6 PUSH30 0x74DF650C8B431CD4ACD257D7BEDE53BEC3BFFFD829DE83C8B568DA38DB64 PUSH20 0x6F6C634300081300330000000000000000000000 "},"methodIdentifiers":{"deny(address)":"9c52a7f1","feedDecimals()":"c23953d0","peek()":"59e02dd7","read()":"57de26a4","rely(address)":"65fae35e","setStalePeriod(uint256)":"a6f4ab2e","stalePeriod()":"a5b36a36","wards(address)":"bf353dbb"}}}}}