{"contracts/Calc.sol":{"LinearDecrease":{"abi":[{"inputs":[],"stateMutability":"nonpayable","type":"constructor"},{"inputs":[{"internalType":"address","name":"usr","type":"address"}],"name":"deny","outputs":[],"stateMutability":"nonpayable","type":"function"},{"inputs":[{"internalType":"bytes32","name":"what","type":"bytes32"},{"internalType":"uint256","name":"data","type":"uint256"}],"name":"file","outputs":[],"stateMutability":"nonpayable","type":"function"},{"inputs":[{"internalType":"uint256","name":"top","type":"uint256"},{"internalType":"uint256","name":"dur","type":"uint256"}],"name":"price","outputs":[{"internalType":"uint256","name":"","type":"uint256"}],"stateMutability":"view","type":"function"},{"inputs":[{"internalType":"address","name":"usr","type":"address"}],"name":"rely","outputs":[],"stateMutability":"nonpayable","type":"function"},{"inputs":[],"name":"tau","outputs":[{"internalType":"uint256","name":"","type":"uint256"}],"stateMutability":"view","type":"function"},{"inputs":[{"internalType":"address","name":"","type":"address"}],"name":"wards","outputs":[{"internalType":"uint256","name":"","type":"uint256"}],"stateMutability":"view","type":"function"}],"evm":{"bytecode":{"linkReferences":{},"object":"6080806040523461002d573360005260006020526001604060002055610e1060015561035090816100338239f35b600080fdfe6040608081526004908136101561001557600080fd5b600091823560e01c90816329ae81141461018a578163487a23951461015d57816365fae35e14610112578382639c52a7f1146100c557508163bf353dbb14610088575063cfc4af551461006757600080fd5b346100845781600319360112610084576020906001549051908152f35b5080fd5b9050346100c15760203660031901126100c157356001600160a01b038116908190036100c1578282916020945280845220549051908152f35b8280fd5b9291503461010e57602036600319011261010e57356001600160a01b0381169081900361010e57338352826020526101026001838520541461021d565b82528160205281205580f35b5050fd5b9050346100c15760203660031901126100c157356001600160a01b03811691908290036100c1576001913384528360205261015183838620541461021d565b83528260205282205580f35b828434610187578160031936011261018757506101806020926024359035610289565b9051908152f35b80fd5b919050346100c157806003193601126100c157338352826020526101b36001828520541461021d565b81356274617560e81b036101cb578260243560015580f35b906020608492519162461bcd60e51b8352820152602660248201527f4c696e65617244656372656173652f66696c652d756e7265636f676e697a65646044820152652d706172616d60d01b6064820152fd5b1561022457565b60405162461bcd60e51b815260206004820152601d60248201527f4c696e65617244656372656173652f6e6f742d617574686f72697a65640000006044820152606490fd5b8115610273570490565b634e487b7160e01b600052601260045260246000fd5b90600154808210156103125760009180159081156102d8575b50156102d3576102b191610269565b81039081116102bd5790565b634e487b7160e01b600052601160045260246000fd5b600080fd5b8091508402928484048214851517156102fe57506102f7849184610269565b14386102a2565b634e487b7160e01b81526011600452602490fd5b50505060009056fea26469706673582212203ec688e2ed24ca225c807ddef54de679b50a64f24a6ff0f6607de6e065ede86564736f6c63430008130033","opcodes":"PUSH1 0x80 DUP1 PUSH1 0x40 MSTORE CALLVALUE PUSH2 0x2D JUMPI CALLER PUSH1 0x0 MSTORE PUSH1 0x0 PUSH1 0x20 MSTORE PUSH1 0x1 PUSH1 0x40 PUSH1 0x0 KECCAK256 SSTORE PUSH2 0xE10 PUSH1 0x1 SSTORE PUSH2 0x350 SWAP1 DUP2 PUSH2 0x33 DUP3 CODECOPY RETURN JUMPDEST PUSH1 0x0 DUP1 REVERT INVALID PUSH1 0x40 PUSH1 0x80 DUP2 MSTORE PUSH1 0x4 SWAP1 DUP2 CALLDATASIZE LT ISZERO PUSH2 0x15 JUMPI PUSH1 0x0 DUP1 REVERT JUMPDEST PUSH1 0x0 SWAP2 DUP3 CALLDATALOAD PUSH1 0xE0 SHR SWAP1 DUP2 PUSH4 0x29AE8114 EQ PUSH2 0x18A JUMPI DUP2 PUSH4 0x487A2395 EQ PUSH2 0x15D JUMPI DUP2 PUSH4 0x65FAE35E EQ PUSH2 0x112 JUMPI DUP4 DUP3 PUSH4 0x9C52A7F1 EQ PUSH2 0xC5 JUMPI POP DUP2 PUSH4 0xBF353DBB EQ PUSH2 0x88 JUMPI POP PUSH4 0xCFC4AF55 EQ PUSH2 0x67 JUMPI PUSH1 0x0 DUP1 REVERT JUMPDEST CALLVALUE PUSH2 0x84 JUMPI DUP2 PUSH1 0x3 NOT CALLDATASIZE ADD SLT PUSH2 0x84 JUMPI PUSH1 0x20 SWAP1 PUSH1 0x1 SLOAD SWAP1 MLOAD SWAP1 DUP2 MSTORE RETURN JUMPDEST POP DUP1 REVERT JUMPDEST SWAP1 POP CALLVALUE PUSH2 0xC1 JUMPI PUSH1 0x20 CALLDATASIZE PUSH1 0x3 NOT ADD SLT PUSH2 0xC1 JUMPI CALLDATALOAD PUSH1 0x1 PUSH1 0x1 PUSH1 0xA0 SHL SUB DUP2 AND SWAP1 DUP2 SWAP1 SUB PUSH2 0xC1 JUMPI DUP3 DUP3 SWAP2 PUSH1 0x20 SWAP5 MSTORE DUP1 DUP5 MSTORE KECCAK256 SLOAD SWAP1 MLOAD SWAP1 DUP2 MSTORE RETURN JUMPDEST DUP3 DUP1 REVERT JUMPDEST SWAP3 SWAP2 POP CALLVALUE PUSH2 0x10E JUMPI PUSH1 0x20 CALLDATASIZE PUSH1 0x3 NOT ADD SLT PUSH2 0x10E JUMPI CALLDATALOAD PUSH1 0x1 PUSH1 0x1 PUSH1 0xA0 SHL SUB DUP2 AND SWAP1 DUP2 SWAP1 SUB PUSH2 0x10E JUMPI CALLER DUP4 MSTORE DUP3 PUSH1 0x20 MSTORE PUSH2 0x102 PUSH1 0x1 DUP4 DUP6 KECCAK256 SLOAD EQ PUSH2 0x21D JUMP JUMPDEST DUP3 MSTORE DUP2 PUSH1 0x20 MSTORE DUP2 KECCAK256 SSTORE DUP1 RETURN JUMPDEST POP POP REVERT JUMPDEST SWAP1 POP CALLVALUE PUSH2 0xC1 JUMPI PUSH1 0x20 CALLDATASIZE PUSH1 0x3 NOT ADD SLT PUSH2 0xC1 JUMPI CALLDATALOAD PUSH1 0x1 PUSH1 0x1 PUSH1 0xA0 SHL SUB DUP2 AND SWAP2 SWAP1 DUP3 SWAP1 SUB PUSH2 0xC1 JUMPI PUSH1 0x1 SWAP2 CALLER DUP5 MSTORE DUP4 PUSH1 0x20 MSTORE PUSH2 0x151 DUP4 DUP4 DUP7 KECCAK256 SLOAD EQ PUSH2 0x21D JUMP JUMPDEST DUP4 MSTORE DUP3 PUSH1 0x20 MSTORE DUP3 KECCAK256 SSTORE DUP1 RETURN JUMPDEST DUP3 DUP5 CALLVALUE PUSH2 0x187 JUMPI DUP2 PUSH1 0x3 NOT CALLDATASIZE ADD SLT PUSH2 0x187 JUMPI POP PUSH2 0x180 PUSH1 0x20 SWAP3 PUSH1 0x24 CALLDATALOAD SWAP1 CALLDATALOAD PUSH2 0x289 JUMP JUMPDEST SWAP1 MLOAD SWAP1 DUP2 MSTORE RETURN JUMPDEST DUP1 REVERT JUMPDEST SWAP2 SWAP1 POP CALLVALUE PUSH2 0xC1 JUMPI DUP1 PUSH1 0x3 NOT CALLDATASIZE ADD SLT PUSH2 0xC1 JUMPI CALLER DUP4 MSTORE DUP3 PUSH1 0x20 MSTORE PUSH2 0x1B3 PUSH1 0x1 DUP3 DUP6 KECCAK256 SLOAD EQ PUSH2 0x21D JUMP JUMPDEST DUP2 CALLDATALOAD PUSH3 0x746175 PUSH1 0xE8 SHL SUB PUSH2 0x1CB JUMPI DUP3 PUSH1 0x24 CALLDATALOAD PUSH1 0x1 SSTORE DUP1 RETURN JUMPDEST SWAP1 PUSH1 0x20 PUSH1 0x84 SWAP3 MLOAD SWAP2 PUSH3 0x461BCD PUSH1 0xE5 SHL DUP4 MSTORE DUP3 ADD MSTORE PUSH1 0x26 PUSH1 0x24 DUP3 ADD MSTORE PUSH32 0x4C696E65617244656372656173652F66696C652D756E7265636F676E697A6564 PUSH1 0x44 DUP3 ADD MSTORE PUSH6 0x2D706172616D PUSH1 0xD0 SHL PUSH1 0x64 DUP3 ADD MSTORE REVERT JUMPDEST ISZERO PUSH2 0x224 JUMPI JUMP JUMPDEST PUSH1 0x40 MLOAD PUSH3 0x461BCD PUSH1 0xE5 SHL DUP2 MSTORE PUSH1 0x20 PUSH1 0x4 DUP3 ADD MSTORE PUSH1 0x1D PUSH1 0x24 DUP3 ADD MSTORE PUSH32 0x4C696E65617244656372656173652F6E6F742D617574686F72697A6564000000 PUSH1 0x44 DUP3 ADD MSTORE PUSH1 0x64 SWAP1 REVERT JUMPDEST DUP2 ISZERO PUSH2 0x273 JUMPI DIV SWAP1 JUMP JUMPDEST PUSH4 0x4E487B71 PUSH1 0xE0 SHL PUSH1 0x0 MSTORE PUSH1 0x12 PUSH1 0x4 MSTORE PUSH1 0x24 PUSH1 0x0 REVERT JUMPDEST SWAP1 PUSH1 0x1 SLOAD DUP1 DUP3 LT ISZERO PUSH2 0x312 JUMPI PUSH1 0x0 SWAP2 DUP1 ISZERO SWAP1 DUP2 ISZERO PUSH2 0x2D8 JUMPI JUMPDEST POP ISZERO PUSH2 0x2D3 JUMPI PUSH2 0x2B1 SWAP2 PUSH2 0x269 JUMP JUMPDEST DUP2 SUB SWAP1 DUP2 GT PUSH2 0x2BD JUMPI SWAP1 JUMP JUMPDEST PUSH4 0x4E487B71 PUSH1 0xE0 SHL PUSH1 0x0 MSTORE PUSH1 0x11 PUSH1 0x4 MSTORE PUSH1 0x24 PUSH1 0x0 REVERT JUMPDEST PUSH1 0x0 DUP1 REVERT JUMPDEST DUP1 SWAP2 POP DUP5 MUL SWAP3 DUP5 DUP5 DIV DUP3 EQ DUP6 ISZERO OR ISZERO PUSH2 0x2FE JUMPI POP PUSH2 0x2F7 DUP5 SWAP2 DUP5 PUSH2 0x269 JUMP JUMPDEST EQ CODESIZE PUSH2 0x2A2 JUMP JUMPDEST PUSH4 0x4E487B71 PUSH1 0xE0 SHL DUP2 MSTORE PUSH1 0x11 PUSH1 0x4 MSTORE PUSH1 0x24 SWAP1 REVERT JUMPDEST POP POP POP PUSH1 0x0 SWAP1 JUMP INVALID LOG2 PUSH5 0x6970667358 0x22 SLT KECCAK256 RETURNDATACOPY 0xC6 DUP9 0xE2 0xED 0x24 0xCA 0x22 0x5C DUP1 PUSH30 0xDEF54DE679B50A64F24A6FF0F6607DE6E065EDE86564736F6C6343000813 STOP CALLER "},"methodIdentifiers":{"deny(address)":"9c52a7f1","file(bytes32,uint256)":"29ae8114","price(uint256,uint256)":"487a2395","rely(address)":"65fae35e","tau()":"cfc4af55","wards(address)":"bf353dbb"}}}}}