{"contracts/Clip.sol":{"Clipper":{"abi":[{"inputs":[{"internalType":"address","name":"vat_","type":"address"},{"internalType":"address","name":"spotter_","type":"address"},{"internalType":"address","name":"dog_","type":"address"},{"internalType":"bytes32","name":"ilk_","type":"bytes32"}],"stateMutability":"nonpayable","type":"constructor"},{"anonymous":false,"inputs":[{"indexed":true,"internalType":"uint256","name":"id","type":"uint256"},{"indexed":false,"internalType":"uint256","name":"top","type":"uint256"},{"indexed":false,"internalType":"uint256","name":"tab","type":"uint256"},{"indexed":false,"internalType":"uint256","name":"lot","type":"uint256"},{"indexed":true,"internalType":"address","name":"usr","type":"address"},{"indexed":true,"internalType":"address","name":"kpr","type":"address"},{"indexed":false,"internalType":"uint256","name":"coin","type":"uint256"}],"name":"Kick","type":"event"},{"anonymous":false,"inputs":[{"indexed":true,"internalType":"uint256","name":"id","type":"uint256"},{"indexed":false,"internalType":"uint256","name":"top","type":"uint256"},{"indexed":false,"internalType":"uint256","name":"tab","type":"uint256"},{"indexed":false,"internalType":"uint256","name":"lot","type":"uint256"},{"indexed":true,"internalType":"address","name":"usr","type":"address"},{"indexed":true,"internalType":"address","name":"kpr","type":"address"},{"indexed":false,"internalType":"uint256","name":"coin","type":"uint256"}],"name":"Redo","type":"event"},{"anonymous":false,"inputs":[{"indexed":true,"internalType":"uint256","name":"id","type":"uint256"},{"indexed":false,"internalType":"uint256","name":"max","type":"uint256"},{"indexed":false,"internalType":"uint256","name":"price","type":"uint256"},{"indexed":false,"internalType":"uint256","name":"owe","type":"uint256"},{"indexed":false,"internalType":"uint256","name":"tab","type":"uint256"},{"indexed":false,"internalType":"uint256","name":"lot","type":"uint256"},{"indexed":true,"internalType":"address","name":"usr","type":"address"}],"name":"Take","type":"event"},{"inputs":[{"internalType":"uint256","name":"","type":"uint256"}],"name":"active","outputs":[{"internalType":"uint256","name":"","type":"uint256"}],"stateMutability":"view","type":"function"},{"inputs":[],"name":"buf","outputs":[{"internalType":"uint256","name":"","type":"uint256"}],"stateMutability":"view","type":"function"},{"inputs":[],"name":"cage","outputs":[],"stateMutability":"nonpayable","type":"function"},{"inputs":[],"name":"calc","outputs":[{"internalType":"contract CalcLike","name":"","type":"address"}],"stateMutability":"view","type":"function"},{"inputs":[{"internalType":"bytes32","name":"","type":"bytes32"},{"internalType":"uint256","name":"id","type":"uint256"}],"name":"cash","outputs":[],"stateMutability":"nonpayable","type":"function"},{"inputs":[],"name":"chip","outputs":[{"internalType":"uint64","name":"","type":"uint64"}],"stateMutability":"view","type":"function"},{"inputs":[],"name":"chost","outputs":[{"internalType":"uint256","name":"","type":"uint256"}],"stateMutability":"view","type":"function"},{"inputs":[],"name":"count","outputs":[{"internalType":"uint256","name":"","type":"uint256"}],"stateMutability":"view","type":"function"},{"inputs":[],"name":"cusp","outputs":[{"internalType":"uint256","name":"","type":"uint256"}],"stateMutability":"view","type":"function"},{"inputs":[{"internalType":"address","name":"usr","type":"address"}],"name":"deny","outputs":[],"stateMutability":"nonpayable","type":"function"},{"inputs":[],"name":"dog","outputs":[{"internalType":"contract DogLike","name":"","type":"address"}],"stateMutability":"view","type":"function"},{"inputs":[{"internalType":"bytes32","name":"what","type":"bytes32"},{"internalType":"uint256","name":"data","type":"uint256"}],"name":"file","outputs":[],"stateMutability":"nonpayable","type":"function"},{"inputs":[{"internalType":"bytes32","name":"what","type":"bytes32"},{"internalType":"address","name":"data","type":"address"}],"name":"file","outputs":[],"stateMutability":"nonpayable","type":"function"},{"inputs":[{"internalType":"uint256","name":"id","type":"uint256"}],"name":"getStatus","outputs":[{"internalType":"bool","name":"needsRedo","type":"bool"},{"internalType":"uint256","name":"price","type":"uint256"},{"internalType":"uint256","name":"lot","type":"uint256"},{"internalType":"uint256","name":"tab","type":"uint256"}],"stateMutability":"view","type":"function"},{"inputs":[],"name":"ilk","outputs":[{"internalType":"bytes32","name":"","type":"bytes32"}],"stateMutability":"view","type":"function"},{"inputs":[{"internalType":"uint256","name":"tab","type":"uint256"},{"internalType":"uint256","name":"lot","type":"uint256"},{"internalType":"address","name":"usr","type":"address"},{"internalType":"address","name":"kpr","type":"address"}],"name":"kick","outputs":[{"internalType":"uint256","name":"id","type":"uint256"}],"stateMutability":"nonpayable","type":"function"},{"inputs":[],"name":"kicks","outputs":[{"internalType":"uint256","name":"","type":"uint256"}],"stateMutability":"view","type":"function"},{"inputs":[],"name":"list","outputs":[{"internalType":"uint256[]","name":"","type":"uint256[]"}],"stateMutability":"view","type":"function"},{"inputs":[],"name":"live","outputs":[{"internalType":"uint256","name":"","type":"uint256"}],"stateMutability":"view","type":"function"},{"inputs":[{"internalType":"uint256","name":"id","type":"uint256"},{"internalType":"address","name":"kpr","type":"address"}],"name":"redo","outputs":[],"stateMutability":"nonpayable","type":"function"},{"inputs":[{"internalType":"address","name":"usr","type":"address"}],"name":"rely","outputs":[],"stateMutability":"nonpayable","type":"function"},{"inputs":[{"internalType":"uint256","name":"","type":"uint256"}],"name":"sales","outputs":[{"internalType":"uint256","name":"pos","type":"uint256"},{"internalType":"uint256","name":"tab","type":"uint256"},{"internalType":"uint256","name":"lot","type":"uint256"},{"internalType":"address","name":"usr","type":"address"},{"internalType":"uint96","name":"tic","type":"uint96"},{"internalType":"uint256","name":"top","type":"uint256"}],"stateMutability":"view","type":"function"},{"inputs":[],"name":"spotter","outputs":[{"internalType":"contract SpotLike","name":"","type":"address"}],"stateMutability":"view","type":"function"},{"inputs":[],"name":"tail","outputs":[{"internalType":"uint256","name":"","type":"uint256"}],"stateMutability":"view","type":"function"},{"inputs":[{"internalType":"uint256","name":"id","type":"uint256"},{"internalType":"uint256","name":"amt","type":"uint256"},{"internalType":"uint256","name":"max","type":"uint256"},{"internalType":"address","name":"who","type":"address"},{"internalType":"bytes","name":"data","type":"bytes"}],"name":"take","outputs":[],"stateMutability":"nonpayable","type":"function"},{"inputs":[],"name":"tip","outputs":[{"internalType":"uint192","name":"","type":"uint192"}],"stateMutability":"view","type":"function"},{"inputs":[],"name":"vat","outputs":[{"internalType":"contract VatLike","name":"","type":"address"}],"stateMutability":"view","type":"function"},{"inputs":[],"name":"vow","outputs":[{"internalType":"contract VowLike","name":"","type":"address"}],"stateMutability":"view","type":"function"},{"inputs":[{"internalType":"address","name":"","type":"address"}],"name":"wards","outputs":[{"internalType":"uint256","name":"","type":"uint256"}],"stateMutability":"view","type":"function"}],"evm":{"bytecode":{"linkReferences":{},"object":"608034620000de57601f62001b7238819003918201601f19168301916001600160401b03831184841017620000e357808492608094604052833981010312620000de576200004d81620000f9565b6200005b60208301620000f9565b60606200006b60408501620000f9565b930151926001600c5560018060a01b0380928160018060a01b0319951685600254161760025516836005541617600555169060035416176003556001556b033b2e3c9fd0803ce800000060075533600052600060205260016040600020556001600f55604051611a6390816200010f8239f35b600080fd5b634e487b7160e01b600052604160045260246000fd5b51906001600160a01b0382168203620000de5756fe608080604052600436101561001357600080fd5b600090813560e01c90816306661abd146115b4575080630f560cd71461150057806313d8c840146114e257806315232515146114c45780632755cd2d146114a357806329ae8114146113c35780632e77468d1461139a57806336569e771461137157806349ed5931146113535780635c622a0e146112c8578063626cb3c51461129f57806365fae35e1461125357806369245009146112245780638033d581146111eb57806381a794cb14610c0d578063898eb2671461083a578063957aa58c1461081c57806396f1b6be146107f35780639c52a7f1146107a8578063b5f522f714610740578063b61500e414610718578063ba2cdc75146106fa578063bf353dbb146106c2578063c3b3ad7f14610699578063c5ce281e1461067b578063cfdd33021461065d578063d4e8be8314610522578063d843416d146102cb5763fe8507c61461016057600080fd5b346102c85761016e366115d0565b9050600f5461028e578160018060a01b038060025416600154848452600e6020526002604085200154823b1561028a57604051633088df1760e11b8152600481019290925230602483015233604483015260648201529083908290608490829084905af190811561027f57839161026b575b505060025416828252600e602052600160408320015490803b156102675760405163bb35783b60e01b8152306004820152336024820152604481019290925282908290606490829084905af1801561025c57610244575b50610241826118b5565b80f35b61024d906116f9565b610258578138610237565b5080fd5b6040513d84823e3d90fd5b8280fd5b610274906116f9565b6102585781386101e0565b6040513d85823e3d90fd5b8480fd5b60405162461bcd60e51b8152602060048201526012602482015271436c69707065722f7374696c6c2d6c69766560701b6044820152606490fd5b80fd5b50346102c85760403660031901126102c8576004356102e8611612565b90808352600e6020526040832090600382015461032260018060a01b039160048382169501549061031a86151561185c565b60a01c611961565b50156104e657818552600e6020526040852060018101546002820154600390920180546001600160a01b03164260a01b6001600160a01b0319161790559490919061036d8387611821565b610379600754826117e8565b96858952600e60205287600460408b200155600a5467ffffffffffffffff8160401c91168a9382158015906104dd575b610403575b505050907f275de7ecdd375b5e8049319f8b350686131c219dd4dc450a08e9cf83b03c865f946103fd926040519586951699859094939260609260808301968352602083015260408201520152565b0390a480f35b600b548085101591826104ba575b505061041e575b806103ae565b82935061043f61043a670de0b6b3a764000092610446956117ab565b611745565b0490611777565b90888460025416856004541690803b156102675760405163bb35783b60e01b81526001600160a01b03928316600482015291861660248301526044820185905282908290606490829084905af1801561025c5715610418576104aa909392936116f9565b6104b657908838610418565b8880fd5b670de0b6b3a764000091925061043a6104d3918b6117ab565b0410153880610411565b508115156103a9565b60405162461bcd60e51b815260206004820152601460248201527310db1a5c1c195c8bd8d85b9b9bdd0b5c995cd95d60621b6044820152606490fd5b50346102c85760403660031901126102c85760043561053f611612565b90338352826020526105576001604085205414611675565b6105656001600f54146116ba565b6639b837ba3a32b960c91b8103610595575060018060a01b03166001600160601b0360a01b600554161760055580f35b62646f6760e81b81036105c1575060018060a01b03166001600160601b0360a01b600354161760035580f35b62766f7760e81b81036105ed575060018060a01b03166001600160601b0360a01b600454161760045580f35b6363616c6360e01b036106185760018060a01b03166001600160601b0360a01b600654161760065580f35b60405162461bcd60e51b815260206004820152601f60248201527f436c69707065722f66696c652d756e7265636f676e697a65642d706172616d006044820152606490fd5b50346102c857806003193601126102c8576020600c54604051908152f35b50346102c857806003193601126102c8576020600154604051908152f35b50346102c857806003193601126102c8576003546040516001600160a01b039091168152602090f35b50346102c85760203660031901126102c8576020906040906001600160a01b036106ea6115e6565b1681528083522054604051908152f35b50346102c857806003193601126102c8576020600b54604051908152f35b50346102c857806003193601126102c857602067ffffffffffffffff600a5416604051908152f35b50346102c85760203660031901126102c857604060c0916004358152600e60205220805490600181015490600281015460046003830154920154926040519485526020850152604084015260018060a01b038116606084015260a01c608083015260a0820152f35b50346102c85760203660031901126102c8576107c26115e6565b338252816020526107d96001604084205414611675565b6001600160a01b0316815260208190526040812081905580f35b50346102c857806003193601126102c8576006546040516001600160a01b039091168152602090f35b50346102c857806003193601126102c8576020600f54604051908152f35b50346102c85760803660031901126102c85760249060043582356044356001600160a01b0381811691829003610c08576108726115fc565b33865260209580875260019461088d86604084205414611675565b61089a86600f54146116ba565b8615610bd1578015610b9a578415610b6357836002541660a087548b60405180948193636cb1c69b60e11b835260048301525afa90811561027f578391610b2f575b5015610aeb57600c54966000198814610ad857868801600c55600d54888452600e8a5260408420908155808801829055600281018390556001600160a01b03194260a01b166001600160a01b0388161760039091015561094861093f8383611821565b600754906117e8565b96888452600e8a52876004604086200155600d549068010000000000000000821015610ac55789610987836109a093839a999897969501600d55611628565b90919082549060031b91821b91600019901b1916179055565b600a548390604081901c9067ffffffffffffffff168115801590610abc575b610a0e575b505060408051998a5260208a019290925250870152606086015216927f7c5bfdc0a5e8192f6cd4972f382cec69116862fb62e6abff8003874c58e064b890608090a4604051908152f35b83949850670de0b6b3a76400009192955061043a61043f91610a2f956117ab565b9184600254168560045416813b156102675760405163bb35783b60e01b81526001600160a01b0391821660048201529086166024820152604481018590529082908290606490829084905af1801561025c57908a969594939291610a9a575b809793949596976109c4565b8192939597949650610aab906116f9565b6102c8579081899593969492610a8e565b508015156109bf565b634e487b7160e01b855260416004528b85fd5b634e487b7160e01b835260116004528983fd5b60405162461bcd60e51b8152600481018990526017818b01527f436c69707065722f7a65726f2d73706f742d70726963650000000000000000006044820152606490fd5b905060a0813d8211610b5b575b81610b4960a09383611723565b810103126102675760400151386108dc565b3d9150610b3c565b60405162461bcd60e51b8152600481018990526010818b01526f21b634b83832b917bd32b93796bab9b960811b6044820152606490fd5b60405162461bcd60e51b8152600481018990526010818b01526f10db1a5c1c195c8bde995c9bcb5b1bdd60821b6044820152606490fd5b60405162461bcd60e51b8152600481018990526010818b01526f21b634b83832b917bd32b93796ba30b160811b6044820152606490fd5b600080fd5b50346102c85760a03660031901126102c85760243590610c2b6115fc565b9167ffffffffffffffff8060843511610267573660236084350112156102675760843560040135116102585736602460843560040135608435010111610258576004358252600e602052610cbd6003604084200154610c8e6001600f54146116ba565b610ca26001600160a01b038216151561185c565b6004358452600e60205260046040852001549060a01c611961565b91906111b0578160443510611173576004358352600e602052604083209160016002840154930154918084111560001461116d5750825b83670de0b6b3a76400009485610d0d61043a86856117ab565b0491858311156110ed575050508293808402908482048114851517156110d95784908204036110d55782610d48610d4d928260011c90611777565b61178b565b905b610d5985856118a8565b8481116110a3576004358752600e6020526001604088200155610d7c82826118a8565b8181116110a3576004358752600e602052600260408820015560018060a01b03600254169660018060a01b0360045416883b156110d15760405163bb35783b60e01b81526001600160a01b038381166004830152919091166024820152604481018790529787908990606490829084905af180156110c6576110b2575b6002546001549798508897906001600160a01b0316803b156104b657604051633088df1760e11b815260048101929092523060248301526001600160a01b03831660448301526064820185905288908290608490829084905af19081156110a757889161108f575b50506004358752600e60205260026040882001541561107f575b60018060a01b0316928391604051916044358352602083015286604083015285606083015260808201527f05e309fd6ce72f2ab888a20056bb4210df08daed86f21f95053deb19964d86b160a060043592a360843560040135610fe6575b505060018060a01b0360035416600154813b1561028a57849160448392604051948593849263321c64fd60e21b845260048401528860248401525af1908115610fdb578491610fc7575b505080821015610f8457506004546001600160a01b031690813b15610f80578291602483926040519485938492633cdeb18760e21b845260048401525af1801561025c57610f7057505080f35b610f79906116f9565b6102c85780f35b5050fd5b6004546001600160a01b03169150813b15610f80578291602483926040519485938492633cdeb18760e21b845260048401525af1801561025c57610f7057505080f35b610fd0906116f9565b610f80578238610f23565b6040513d86823e3d90fd5b813b1561028a578490604051928391634229608760e11b83523360048401528660248401526044830152608060648301526084356004013560848301526084356004013560246084350160a48401378260a46084356004013584010152818360a482601f19601f60843560040135011681010301925af1908115610fdb57849115610ed957611074906116f9565b610f80578238610ed9565b61108a6004356118b5565b610e7b565b611098906116f9565b6110a3578638610e61565b8680fd5b6040513d8a823e3d90fd5b9590966110be906116f9565b948690610df9565b6040513d89823e3d90fd5b8780fd5b8580fd5b634e487b7160e01b87526011600452602487fd5b9092829650858193109182611163575b505015610d4f5761110e85856118a8565b8481116110a357600b541115610d4f5760405162461bcd60e51b815260206004820152601b60248201527f436c69707065722f6e6f2d7061727469616c2d707572636861736500000000006044820152606490fd5b10905081386110fd565b92610cf4565b60405162461bcd60e51b8152602060048201526015602482015274436c69707065722f746f6f2d657870656e7369766560581b6044820152606490fd5b60405162461bcd60e51b815260206004820152601360248201527210db1a5c1c195c8bdb9959591ccb5c995cd95d606a1b6044820152606490fd5b50346102c85760203660031901126102c85760043590600d548210156102c857602061121683611628565b90546040519160031b1c8152f35b50346102c857806003193601126102c8573381528060205261124c6001604083205414611675565b80600f5580f35b50346102c85760203660031901126102c85761126d6115e6565b338252816020526112846001604084205414611675565b6001600160a01b031681526020819052604081206001905580f35b50346102c857806003193601126102c8576004546040516001600160a01b039091168152602090f35b50346102c85760203660031901126102c857608090600435808252600e6020526040822091611303600460038501549401548460a01c611961565b6001600160a01b0390941615159392908461134a575b50906040918152600e6020522060016002820154910154916040519315158452602084015260408301526060820152f35b93506040611319565b50346102c857806003193601126102c8576020600954604051908152f35b50346102c857806003193601126102c8576002546040516001600160a01b039091168152602090f35b50346102c857806003193601126102c8576005546040516001600160a01b039091168152602090f35b50346102c8576113d2366115d0565b90338352826020526113ea6001604085205414611675565b6113f86001600f54146116ba565b62313ab360e91b810361140c575060075580f35b631d185a5b60e21b8103611421575060085580f35b630637573760e41b8103611436575060095580f35b630636869760e41b8103611464575067ffffffffffffffff1667ffffffffffffffff19600a541617600a5580f35b6207469760ec1b810361148f575067ffffffffffffffff600a549181199060401b16911617600a5580f35b6418da1bdcdd60da1b0361061857600b5580f35b50346102c857806003193601126102c8576020600a5460401c604051908152f35b50346102c857806003193601126102c8576020600754604051908152f35b50346102c857806003193601126102c8576020600854604051908152f35b50346102c857806003193601126102c8576040518091600d549081835260208093018092600d83527fd7b6990105719101dabeb77144f2a3385c8033acd3af97e9423a695e81ad1eb590835b8181106115a05750505084611562910385611723565b60405193838594850191818652518092526040850193925b82811061158957505050500390f35b83518552869550938101939281019260010161157a565b82548452928601926001928301920161154c565b905034610258578160031936011261025857602090600d548152f35b6040906003190112610c08576004359060243590565b600435906001600160a01b0382168203610c0857565b606435906001600160a01b0382168203610c0857565b602435906001600160a01b0382168203610c0857565b600d5481101561165f57600d6000527fd7b6990105719101dabeb77144f2a3385c8033acd3af97e9423a695e81ad1eb50190600090565b634e487b7160e01b600052603260045260246000fd5b1561167c57565b60405162461bcd60e51b815260206004820152601660248201527510db1a5c1c195c8bdb9bdd0b585d5d1a1bdc9a5e995960521b6044820152606490fd5b156116c157565b60405162461bcd60e51b815260206004820152601060248201526f436c69707065722f6e6f742d6c69766560801b6044820152606490fd5b67ffffffffffffffff811161170d57604052565b634e487b7160e01b600052604160045260246000fd5b90601f8019910116810190811067ffffffffffffffff82111761170d57604052565b906706f05b59d3b20000820191828111611761578210610c0857565b634e487b7160e01b600052601160045260246000fd5b9190820191828111611761578210610c0857565b8115611795570490565b634e487b7160e01b600052601260045260246000fd5b6000929180159182156117c2575b505015610c0857565b80820294509150811582850482141715611761576117e0908461178b565b1438806117b9565b906117f2916117ab565b6b019d971e4fe8401e74000000810190818111611761578110610c08576b033b2e3c9fd0803ce8000000900490565b906b033b2e3c9fd0803ce8000000918281029281840481148215171561176157830403610c0857610d48611859928260011c90611777565b90565b1561186357565b60405162461bcd60e51b815260206004820152601b60248201527f436c69707065722f6e6f742d72756e6e696e672d61756374696f6e00000000006044820152606490fd5b9190820391821161176157565b600d546000199190828101908111611761576118d090611628565b90549060031b1c91600092828452600e6020526040842054906118f68161098784611628565b8452600e6020526040842055600d54801561194d5781019061191782611628565b909182549160031b1b19169055600d558152600e6020526004604082208281558260018201558260028201558260038201550155565b634e487b7160e01b84526031600452602484fd5b6001600160601b0360018060a01b036006541691169161198183426118a8565b428111610c085760209060446040518095819363487a239560e01b835286600484015260248301525afa918215611a21576000926119ee575b506119c68293426118a8565b428111610c0857600854109182156119dd57505091565b6119e79250611821565b6009541191565b90916020823d8211611a19575b81611a0860209383611723565b810103126102c857505190386119ba565b3d91506119fb565b6040513d6000823e3d90fdfea2646970667358221220d0ef00554178d2e87936fce248caace9b4b6327b46b1a069beea20a2b6cfdcf964736f6c63430008130033","opcodes":"PUSH1 0x80 CALLVALUE PUSH3 0xDE JUMPI PUSH1 0x1F PUSH3 0x1B72 CODESIZE DUP2 SWAP1 SUB SWAP2 DUP3 ADD PUSH1 0x1F NOT AND DUP4 ADD SWAP2 PUSH1 0x1 PUSH1 0x1 PUSH1 0x40 SHL SUB DUP4 GT DUP5 DUP5 LT OR PUSH3 0xE3 JUMPI DUP1 DUP5 SWAP3 PUSH1 0x80 SWAP5 PUSH1 0x40 MSTORE DUP4 CODECOPY DUP2 ADD SUB SLT PUSH3 0xDE JUMPI PUSH3 0x4D DUP2 PUSH3 0xF9 JUMP JUMPDEST PUSH3 0x5B PUSH1 0x20 DUP4 ADD PUSH3 0xF9 JUMP JUMPDEST PUSH1 0x60 PUSH3 0x6B PUSH1 0x40 DUP6 ADD PUSH3 0xF9 JUMP JUMPDEST SWAP4 ADD MLOAD SWAP3 PUSH1 0x1 PUSH1 0xC SSTORE PUSH1 0x1 DUP1 PUSH1 0xA0 SHL SUB DUP1 SWAP3 DUP2 PUSH1 0x1 DUP1 PUSH1 0xA0 SHL SUB NOT SWAP6 AND DUP6 PUSH1 0x2 SLOAD AND OR PUSH1 0x2 SSTORE AND DUP4 PUSH1 0x5 SLOAD AND OR PUSH1 0x5 SSTORE AND SWAP1 PUSH1 0x3 SLOAD AND OR PUSH1 0x3 SSTORE PUSH1 0x1 SSTORE PUSH12 0x33B2E3C9FD0803CE8000000 PUSH1 0x7 SSTORE CALLER PUSH1 0x0 MSTORE PUSH1 0x0 PUSH1 0x20 MSTORE PUSH1 0x1 PUSH1 0x40 PUSH1 0x0 KECCAK256 SSTORE PUSH1 0x1 PUSH1 0xF SSTORE PUSH1 0x40 MLOAD PUSH2 0x1A63 SWAP1 DUP2 PUSH3 0x10F DUP3 CODECOPY RETURN JUMPDEST PUSH1 0x0 DUP1 REVERT JUMPDEST PUSH4 0x4E487B71 PUSH1 0xE0 SHL PUSH1 0x0 MSTORE PUSH1 0x41 PUSH1 0x4 MSTORE PUSH1 0x24 PUSH1 0x0 REVERT JUMPDEST MLOAD SWAP1 PUSH1 0x1 PUSH1 0x1 PUSH1 0xA0 SHL SUB DUP3 AND DUP3 SUB PUSH3 0xDE JUMPI JUMP INVALID PUSH1 0x80 DUP1 PUSH1 0x40 MSTORE PUSH1 0x4 CALLDATASIZE LT ISZERO PUSH2 0x13 JUMPI PUSH1 0x0 DUP1 REVERT JUMPDEST PUSH1 0x0 SWAP1 DUP2 CALLDATALOAD PUSH1 0xE0 SHR SWAP1 DUP2 PUSH4 0x6661ABD EQ PUSH2 0x15B4 JUMPI POP DUP1 PUSH4 0xF560CD7 EQ PUSH2 0x1500 JUMPI DUP1 PUSH4 0x13D8C840 EQ PUSH2 0x14E2 JUMPI DUP1 PUSH4 0x15232515 EQ PUSH2 0x14C4 JUMPI DUP1 PUSH4 0x2755CD2D EQ PUSH2 0x14A3 JUMPI DUP1 PUSH4 0x29AE8114 EQ PUSH2 0x13C3 JUMPI DUP1 PUSH4 0x2E77468D EQ PUSH2 0x139A JUMPI DUP1 PUSH4 0x36569E77 EQ PUSH2 0x1371 JUMPI DUP1 PUSH4 0x49ED5931 EQ PUSH2 0x1353 JUMPI DUP1 PUSH4 0x5C622A0E EQ PUSH2 0x12C8 JUMPI DUP1 PUSH4 0x626CB3C5 EQ PUSH2 0x129F JUMPI DUP1 PUSH4 0x65FAE35E EQ PUSH2 0x1253 JUMPI DUP1 PUSH4 0x69245009 EQ PUSH2 0x1224 JUMPI DUP1 PUSH4 0x8033D581 EQ PUSH2 0x11EB JUMPI DUP1 PUSH4 0x81A794CB EQ PUSH2 0xC0D JUMPI DUP1 PUSH4 0x898EB267 EQ PUSH2 0x83A JUMPI DUP1 PUSH4 0x957AA58C EQ PUSH2 0x81C JUMPI DUP1 PUSH4 0x96F1B6BE EQ PUSH2 0x7F3 JUMPI DUP1 PUSH4 0x9C52A7F1 EQ PUSH2 0x7A8 JUMPI DUP1 PUSH4 0xB5F522F7 EQ PUSH2 0x740 JUMPI DUP1 PUSH4 0xB61500E4 EQ PUSH2 0x718 JUMPI DUP1 PUSH4 0xBA2CDC75 EQ PUSH2 0x6FA JUMPI DUP1 PUSH4 0xBF353DBB EQ PUSH2 0x6C2 JUMPI DUP1 PUSH4 0xC3B3AD7F EQ PUSH2 0x699 JUMPI DUP1 PUSH4 0xC5CE281E EQ PUSH2 0x67B JUMPI DUP1 PUSH4 0xCFDD3302 EQ PUSH2 0x65D JUMPI DUP1 PUSH4 0xD4E8BE83 EQ PUSH2 0x522 JUMPI DUP1 PUSH4 0xD843416D EQ PUSH2 0x2CB JUMPI PUSH4 0xFE8507C6 EQ PUSH2 0x160 JUMPI PUSH1 0x0 DUP1 REVERT JUMPDEST CALLVALUE PUSH2 0x2C8 JUMPI PUSH2 0x16E CALLDATASIZE PUSH2 0x15D0 JUMP JUMPDEST SWAP1 POP PUSH1 0xF SLOAD PUSH2 0x28E JUMPI DUP2 PUSH1 0x1 DUP1 PUSH1 0xA0 SHL SUB DUP1 PUSH1 0x2 SLOAD AND PUSH1 0x1 SLOAD DUP5 DUP5 MSTORE PUSH1 0xE PUSH1 0x20 MSTORE PUSH1 0x2 PUSH1 0x40 DUP6 KECCAK256 ADD SLOAD DUP3 EXTCODESIZE ISZERO PUSH2 0x28A JUMPI PUSH1 0x40 MLOAD PUSH4 0x3088DF17 PUSH1 0xE1 SHL DUP2 MSTORE PUSH1 0x4 DUP2 ADD SWAP3 SWAP1 SWAP3 MSTORE ADDRESS PUSH1 0x24 DUP4 ADD MSTORE CALLER PUSH1 0x44 DUP4 ADD MSTORE PUSH1 0x64 DUP3 ADD MSTORE SWAP1 DUP4 SWAP1 DUP3 SWAP1 PUSH1 0x84 SWAP1 DUP3 SWAP1 DUP5 SWAP1 GAS CALL SWAP1 DUP2 ISZERO PUSH2 0x27F JUMPI DUP4 SWAP2 PUSH2 0x26B JUMPI JUMPDEST POP POP PUSH1 0x2 SLOAD AND DUP3 DUP3 MSTORE PUSH1 0xE PUSH1 0x20 MSTORE PUSH1 0x1 PUSH1 0x40 DUP4 KECCAK256 ADD SLOAD SWAP1 DUP1 EXTCODESIZE ISZERO PUSH2 0x267 JUMPI PUSH1 0x40 MLOAD PUSH4 0xBB35783B PUSH1 0xE0 SHL DUP2 MSTORE ADDRESS PUSH1 0x4 DUP3 ADD MSTORE CALLER PUSH1 0x24 DUP3 ADD MSTORE PUSH1 0x44 DUP2 ADD SWAP3 SWAP1 SWAP3 MSTORE DUP3 SWAP1 DUP3 SWAP1 PUSH1 0x64 SWAP1 DUP3 SWAP1 DUP5 SWAP1 GAS CALL DUP1 ISZERO PUSH2 0x25C JUMPI PUSH2 0x244 JUMPI JUMPDEST POP PUSH2 0x241 DUP3 PUSH2 0x18B5 JUMP JUMPDEST DUP1 RETURN JUMPDEST PUSH2 0x24D SWAP1 PUSH2 0x16F9 JUMP JUMPDEST PUSH2 0x258 JUMPI DUP2 CODESIZE PUSH2 0x237 JUMP JUMPDEST POP DUP1 REVERT JUMPDEST PUSH1 0x40 MLOAD RETURNDATASIZE DUP5 DUP3 RETURNDATACOPY RETURNDATASIZE SWAP1 REVERT JUMPDEST DUP3 DUP1 REVERT JUMPDEST PUSH2 0x274 SWAP1 PUSH2 0x16F9 JUMP JUMPDEST PUSH2 0x258 JUMPI DUP2 CODESIZE PUSH2 0x1E0 JUMP JUMPDEST PUSH1 0x40 MLOAD RETURNDATASIZE DUP6 DUP3 RETURNDATACOPY RETURNDATASIZE SWAP1 REVERT JUMPDEST DUP5 DUP1 REVERT JUMPDEST PUSH1 0x40 MLOAD PUSH3 0x461BCD PUSH1 0xE5 SHL DUP2 MSTORE PUSH1 0x20 PUSH1 0x4 DUP3 ADD MSTORE PUSH1 0x12 PUSH1 0x24 DUP3 ADD MSTORE PUSH18 0x436C69707065722F7374696C6C2D6C697665 PUSH1 0x70 SHL PUSH1 0x44 DUP3 ADD MSTORE PUSH1 0x64 SWAP1 REVERT JUMPDEST DUP1 REVERT JUMPDEST POP CALLVALUE PUSH2 0x2C8 JUMPI PUSH1 0x40 CALLDATASIZE PUSH1 0x3 NOT ADD SLT PUSH2 0x2C8 JUMPI PUSH1 0x4 CALLDATALOAD PUSH2 0x2E8 PUSH2 0x1612 JUMP JUMPDEST SWAP1 DUP1 DUP4 MSTORE PUSH1 0xE PUSH1 0x20 MSTORE PUSH1 0x40 DUP4 KECCAK256 SWAP1 PUSH1 0x3 DUP3 ADD SLOAD PUSH2 0x322 PUSH1 0x1 DUP1 PUSH1 0xA0 SHL SUB SWAP2 PUSH1 0x4 DUP4 DUP3 AND SWAP6 ADD SLOAD SWAP1 PUSH2 0x31A DUP7 ISZERO ISZERO PUSH2 0x185C JUMP JUMPDEST PUSH1 0xA0 SHR PUSH2 0x1961 JUMP JUMPDEST POP ISZERO PUSH2 0x4E6 JUMPI DUP2 DUP6 MSTORE PUSH1 0xE PUSH1 0x20 MSTORE PUSH1 0x40 DUP6 KECCAK256 PUSH1 0x1 DUP2 ADD SLOAD PUSH1 0x2 DUP3 ADD SLOAD PUSH1 0x3 SWAP1 SWAP3 ADD DUP1 SLOAD PUSH1 0x1 PUSH1 0x1 PUSH1 0xA0 SHL SUB AND TIMESTAMP PUSH1 0xA0 SHL PUSH1 0x1 PUSH1 0x1 PUSH1 0xA0 SHL SUB NOT AND OR SWAP1 SSTORE SWAP5 SWAP1 SWAP2 SWAP1 PUSH2 0x36D DUP4 DUP8 PUSH2 0x1821 JUMP JUMPDEST PUSH2 0x379 PUSH1 0x7 SLOAD DUP3 PUSH2 0x17E8 JUMP JUMPDEST SWAP7 DUP6 DUP10 MSTORE PUSH1 0xE PUSH1 0x20 MSTORE DUP8 PUSH1 0x4 PUSH1 0x40 DUP12 KECCAK256 ADD SSTORE PUSH1 0xA SLOAD PUSH8 0xFFFFFFFFFFFFFFFF DUP2 PUSH1 0x40 SHR SWAP2 AND DUP11 SWAP4 DUP3 ISZERO DUP1 ISZERO SWAP1 PUSH2 0x4DD JUMPI JUMPDEST PUSH2 0x403 JUMPI JUMPDEST POP POP POP SWAP1 PUSH32 0x275DE7ECDD375B5E8049319F8B350686131C219DD4DC450A08E9CF83B03C865F SWAP5 PUSH2 0x3FD SWAP3 PUSH1 0x40 MLOAD SWAP6 DUP7 SWAP6 AND SWAP10 DUP6 SWAP1 SWAP5 SWAP4 SWAP3 PUSH1 0x60 SWAP3 PUSH1 0x80 DUP4 ADD SWAP7 DUP4 MSTORE PUSH1 0x20 DUP4 ADD MSTORE PUSH1 0x40 DUP3 ADD MSTORE ADD MSTORE JUMP JUMPDEST SUB SWAP1 LOG4 DUP1 RETURN JUMPDEST PUSH1 0xB SLOAD DUP1 DUP6 LT ISZERO SWAP2 DUP3 PUSH2 0x4BA JUMPI JUMPDEST POP POP PUSH2 0x41E JUMPI JUMPDEST DUP1 PUSH2 0x3AE JUMP JUMPDEST DUP3 SWAP4 POP PUSH2 0x43F PUSH2 0x43A PUSH8 0xDE0B6B3A7640000 SWAP3 PUSH2 0x446 SWAP6 PUSH2 0x17AB JUMP JUMPDEST PUSH2 0x1745 JUMP JUMPDEST DIV SWAP1 PUSH2 0x1777 JUMP JUMPDEST SWAP1 DUP9 DUP5 PUSH1 0x2 SLOAD AND DUP6 PUSH1 0x4 SLOAD AND SWAP1 DUP1 EXTCODESIZE ISZERO PUSH2 0x267 JUMPI PUSH1 0x40 MLOAD PUSH4 0xBB35783B PUSH1 0xE0 SHL DUP2 MSTORE PUSH1 0x1 PUSH1 0x1 PUSH1 0xA0 SHL SUB SWAP3 DUP4 AND PUSH1 0x4 DUP3 ADD MSTORE SWAP2 DUP7 AND PUSH1 0x24 DUP4 ADD MSTORE PUSH1 0x44 DUP3 ADD DUP6 SWAP1 MSTORE DUP3 SWAP1 DUP3 SWAP1 PUSH1 0x64 SWAP1 DUP3 SWAP1 DUP5 SWAP1 GAS CALL DUP1 ISZERO PUSH2 0x25C JUMPI ISZERO PUSH2 0x418 JUMPI PUSH2 0x4AA SWAP1 SWAP4 SWAP3 SWAP4 PUSH2 0x16F9 JUMP JUMPDEST PUSH2 0x4B6 JUMPI SWAP1 DUP9 CODESIZE PUSH2 0x418 JUMP JUMPDEST DUP9 DUP1 REVERT JUMPDEST PUSH8 0xDE0B6B3A7640000 SWAP2 SWAP3 POP PUSH2 0x43A PUSH2 0x4D3 SWAP2 DUP12 PUSH2 0x17AB JUMP JUMPDEST DIV LT ISZERO CODESIZE DUP1 PUSH2 0x411 JUMP JUMPDEST POP DUP2 ISZERO ISZERO PUSH2 0x3A9 JUMP JUMPDEST PUSH1 0x40 MLOAD PUSH3 0x461BCD PUSH1 0xE5 SHL DUP2 MSTORE PUSH1 0x20 PUSH1 0x4 DUP3 ADD MSTORE PUSH1 0x14 PUSH1 0x24 DUP3 ADD MSTORE PUSH20 0x10DB1A5C1C195C8BD8D85B9B9BDD0B5C995CD95D PUSH1 0x62 SHL PUSH1 0x44 DUP3 ADD MSTORE PUSH1 0x64 SWAP1 REVERT JUMPDEST POP CALLVALUE PUSH2 0x2C8 JUMPI PUSH1 0x40 CALLDATASIZE PUSH1 0x3 NOT ADD SLT PUSH2 0x2C8 JUMPI PUSH1 0x4 CALLDATALOAD PUSH2 0x53F PUSH2 0x1612 JUMP JUMPDEST SWAP1 CALLER DUP4 MSTORE DUP3 PUSH1 0x20 MSTORE PUSH2 0x557 PUSH1 0x1 PUSH1 0x40 DUP6 KECCAK256 SLOAD EQ PUSH2 0x1675 JUMP JUMPDEST PUSH2 0x565 PUSH1 0x1 PUSH1 0xF SLOAD EQ PUSH2 0x16BA JUMP JUMPDEST PUSH7 0x39B837BA3A32B9 PUSH1 0xC9 SHL DUP2 SUB PUSH2 0x595 JUMPI POP PUSH1 0x1 DUP1 PUSH1 0xA0 SHL SUB AND PUSH1 0x1 PUSH1 0x1 PUSH1 0x60 SHL SUB PUSH1 0xA0 SHL PUSH1 0x5 SLOAD AND OR PUSH1 0x5 SSTORE DUP1 RETURN JUMPDEST PUSH3 0x646F67 PUSH1 0xE8 SHL DUP2 SUB PUSH2 0x5C1 JUMPI POP PUSH1 0x1 DUP1 PUSH1 0xA0 SHL SUB AND PUSH1 0x1 PUSH1 0x1 PUSH1 0x60 SHL SUB PUSH1 0xA0 SHL PUSH1 0x3 SLOAD AND OR PUSH1 0x3 SSTORE DUP1 RETURN JUMPDEST PUSH3 0x766F77 PUSH1 0xE8 SHL DUP2 SUB PUSH2 0x5ED JUMPI POP PUSH1 0x1 DUP1 PUSH1 0xA0 SHL SUB AND PUSH1 0x1 PUSH1 0x1 PUSH1 0x60 SHL SUB PUSH1 0xA0 SHL PUSH1 0x4 SLOAD AND OR PUSH1 0x4 SSTORE DUP1 RETURN JUMPDEST PUSH4 0x63616C63 PUSH1 0xE0 SHL SUB PUSH2 0x618 JUMPI PUSH1 0x1 DUP1 PUSH1 0xA0 SHL SUB AND PUSH1 0x1 PUSH1 0x1 PUSH1 0x60 SHL SUB PUSH1 0xA0 SHL PUSH1 0x6 SLOAD AND OR PUSH1 0x6 SSTORE DUP1 RETURN JUMPDEST PUSH1 0x40 MLOAD PUSH3 0x461BCD PUSH1 0xE5 SHL DUP2 MSTORE PUSH1 0x20 PUSH1 0x4 DUP3 ADD MSTORE PUSH1 0x1F PUSH1 0x24 DUP3 ADD MSTORE PUSH32 0x436C69707065722F66696C652D756E7265636F676E697A65642D706172616D00 PUSH1 0x44 DUP3 ADD MSTORE PUSH1 0x64 SWAP1 REVERT JUMPDEST POP CALLVALUE PUSH2 0x2C8 JUMPI DUP1 PUSH1 0x3 NOT CALLDATASIZE ADD SLT PUSH2 0x2C8 JUMPI PUSH1 0x20 PUSH1 0xC SLOAD PUSH1 0x40 MLOAD SWAP1 DUP2 MSTORE RETURN JUMPDEST POP CALLVALUE PUSH2 0x2C8 JUMPI DUP1 PUSH1 0x3 NOT CALLDATASIZE ADD SLT PUSH2 0x2C8 JUMPI PUSH1 0x20 PUSH1 0x1 SLOAD PUSH1 0x40 MLOAD SWAP1 DUP2 MSTORE RETURN JUMPDEST POP CALLVALUE PUSH2 0x2C8 JUMPI DUP1 PUSH1 0x3 NOT CALLDATASIZE ADD SLT PUSH2 0x2C8 JUMPI PUSH1 0x3 SLOAD PUSH1 0x40 MLOAD PUSH1 0x1 PUSH1 0x1 PUSH1 0xA0 SHL SUB SWAP1 SWAP2 AND DUP2 MSTORE PUSH1 0x20 SWAP1 RETURN JUMPDEST POP CALLVALUE PUSH2 0x2C8 JUMPI PUSH1 0x20 CALLDATASIZE PUSH1 0x3 NOT ADD SLT PUSH2 0x2C8 JUMPI PUSH1 0x20 SWAP1 PUSH1 0x40 SWAP1 PUSH1 0x1 PUSH1 0x1 PUSH1 0xA0 SHL SUB PUSH2 0x6EA PUSH2 0x15E6 JUMP JUMPDEST AND DUP2 MSTORE DUP1 DUP4 MSTORE KECCAK256 SLOAD PUSH1 0x40 MLOAD SWAP1 DUP2 MSTORE RETURN JUMPDEST POP CALLVALUE PUSH2 0x2C8 JUMPI DUP1 PUSH1 0x3 NOT CALLDATASIZE ADD SLT PUSH2 0x2C8 JUMPI PUSH1 0x20 PUSH1 0xB SLOAD PUSH1 0x40 MLOAD SWAP1 DUP2 MSTORE RETURN JUMPDEST POP CALLVALUE PUSH2 0x2C8 JUMPI DUP1 PUSH1 0x3 NOT CALLDATASIZE ADD SLT PUSH2 0x2C8 JUMPI PUSH1 0x20 PUSH8 0xFFFFFFFFFFFFFFFF PUSH1 0xA SLOAD AND PUSH1 0x40 MLOAD SWAP1 DUP2 MSTORE RETURN JUMPDEST POP CALLVALUE PUSH2 0x2C8 JUMPI PUSH1 0x20 CALLDATASIZE PUSH1 0x3 NOT ADD SLT PUSH2 0x2C8 JUMPI PUSH1 0x40 PUSH1 0xC0 SWAP2 PUSH1 0x4 CALLDATALOAD DUP2 MSTORE PUSH1 0xE PUSH1 0x20 MSTORE KECCAK256 DUP1 SLOAD SWAP1 PUSH1 0x1 DUP2 ADD SLOAD SWAP1 PUSH1 0x2 DUP2 ADD SLOAD PUSH1 0x4 PUSH1 0x3 DUP4 ADD SLOAD SWAP3 ADD SLOAD SWAP3 PUSH1 0x40 MLOAD SWAP5 DUP6 MSTORE PUSH1 0x20 DUP6 ADD MSTORE PUSH1 0x40 DUP5 ADD MSTORE PUSH1 0x1 DUP1 PUSH1 0xA0 SHL SUB DUP2 AND PUSH1 0x60 DUP5 ADD MSTORE PUSH1 0xA0 SHR PUSH1 0x80 DUP4 ADD MSTORE PUSH1 0xA0 DUP3 ADD MSTORE RETURN JUMPDEST POP CALLVALUE PUSH2 0x2C8 JUMPI PUSH1 0x20 CALLDATASIZE PUSH1 0x3 NOT ADD SLT PUSH2 0x2C8 JUMPI PUSH2 0x7C2 PUSH2 0x15E6 JUMP JUMPDEST CALLER DUP3 MSTORE DUP2 PUSH1 0x20 MSTORE PUSH2 0x7D9 PUSH1 0x1 PUSH1 0x40 DUP5 KECCAK256 SLOAD EQ PUSH2 0x1675 JUMP JUMPDEST PUSH1 0x1 PUSH1 0x1 PUSH1 0xA0 SHL SUB AND DUP2 MSTORE PUSH1 0x20 DUP2 SWAP1 MSTORE PUSH1 0x40 DUP2 KECCAK256 DUP2 SWAP1 SSTORE DUP1 RETURN JUMPDEST POP CALLVALUE PUSH2 0x2C8 JUMPI DUP1 PUSH1 0x3 NOT CALLDATASIZE ADD SLT PUSH2 0x2C8 JUMPI PUSH1 0x6 SLOAD PUSH1 0x40 MLOAD PUSH1 0x1 PUSH1 0x1 PUSH1 0xA0 SHL SUB SWAP1 SWAP2 AND DUP2 MSTORE PUSH1 0x20 SWAP1 RETURN JUMPDEST POP CALLVALUE PUSH2 0x2C8 JUMPI DUP1 PUSH1 0x3 NOT CALLDATASIZE ADD SLT PUSH2 0x2C8 JUMPI PUSH1 0x20 PUSH1 0xF SLOAD PUSH1 0x40 MLOAD SWAP1 DUP2 MSTORE RETURN JUMPDEST POP CALLVALUE PUSH2 0x2C8 JUMPI PUSH1 0x80 CALLDATASIZE PUSH1 0x3 NOT ADD SLT PUSH2 0x2C8 JUMPI PUSH1 0x24 SWAP1 PUSH1 0x4 CALLDATALOAD DUP3 CALLDATALOAD PUSH1 0x44 CALLDATALOAD PUSH1 0x1 PUSH1 0x1 PUSH1 0xA0 SHL SUB DUP2 DUP2 AND SWAP2 DUP3 SWAP1 SUB PUSH2 0xC08 JUMPI PUSH2 0x872 PUSH2 0x15FC JUMP JUMPDEST CALLER DUP7 MSTORE PUSH1 0x20 SWAP6 DUP1 DUP8 MSTORE PUSH1 0x1 SWAP5 PUSH2 0x88D DUP7 PUSH1 0x40 DUP5 KECCAK256 SLOAD EQ PUSH2 0x1675 JUMP JUMPDEST PUSH2 0x89A DUP7 PUSH1 0xF SLOAD EQ PUSH2 0x16BA JUMP JUMPDEST DUP7 ISZERO PUSH2 0xBD1 JUMPI DUP1 ISZERO PUSH2 0xB9A JUMPI DUP5 ISZERO PUSH2 0xB63 JUMPI DUP4 PUSH1 0x2 SLOAD AND PUSH1 0xA0 DUP8 SLOAD DUP12 PUSH1 0x40 MLOAD DUP1 SWAP5 DUP2 SWAP4 PUSH4 0x6CB1C69B PUSH1 0xE1 SHL DUP4 MSTORE PUSH1 0x4 DUP4 ADD MSTORE GAS STATICCALL SWAP1 DUP2 ISZERO PUSH2 0x27F JUMPI DUP4 SWAP2 PUSH2 0xB2F JUMPI JUMPDEST POP ISZERO PUSH2 0xAEB JUMPI PUSH1 0xC SLOAD SWAP7 PUSH1 0x0 NOT DUP9 EQ PUSH2 0xAD8 JUMPI DUP7 DUP9 ADD PUSH1 0xC SSTORE PUSH1 0xD SLOAD DUP9 DUP5 MSTORE PUSH1 0xE DUP11 MSTORE PUSH1 0x40 DUP5 KECCAK256 SWAP1 DUP2 SSTORE DUP1 DUP9 ADD DUP3 SWAP1 SSTORE PUSH1 0x2 DUP2 ADD DUP4 SWAP1 SSTORE PUSH1 0x1 PUSH1 0x1 PUSH1 0xA0 SHL SUB NOT TIMESTAMP PUSH1 0xA0 SHL AND PUSH1 0x1 PUSH1 0x1 PUSH1 0xA0 SHL SUB DUP9 AND OR PUSH1 0x3 SWAP1 SWAP2 ADD SSTORE PUSH2 0x948 PUSH2 0x93F DUP4 DUP4 PUSH2 0x1821 JUMP JUMPDEST PUSH1 0x7 SLOAD SWAP1 PUSH2 0x17E8 JUMP JUMPDEST SWAP7 DUP9 DUP5 MSTORE PUSH1 0xE DUP11 MSTORE DUP8 PUSH1 0x4 PUSH1 0x40 DUP7 KECCAK256 ADD SSTORE PUSH1 0xD SLOAD SWAP1 PUSH9 0x10000000000000000 DUP3 LT ISZERO PUSH2 0xAC5 JUMPI DUP10 PUSH2 0x987 DUP4 PUSH2 0x9A0 SWAP4 DUP4 SWAP11 SWAP10 SWAP9 SWAP8 SWAP7 SWAP6 ADD PUSH1 0xD SSTORE PUSH2 0x1628 JUMP JUMPDEST SWAP1 SWAP2 SWAP1 DUP3 SLOAD SWAP1 PUSH1 0x3 SHL SWAP2 DUP3 SHL SWAP2 PUSH1 0x0 NOT SWAP1 SHL NOT AND OR SWAP1 SSTORE JUMP JUMPDEST PUSH1 0xA SLOAD DUP4 SWAP1 PUSH1 0x40 DUP2 SWAP1 SHR SWAP1 PUSH8 0xFFFFFFFFFFFFFFFF AND DUP2 ISZERO DUP1 ISZERO SWAP1 PUSH2 0xABC JUMPI JUMPDEST PUSH2 0xA0E JUMPI JUMPDEST POP POP PUSH1 0x40 DUP1 MLOAD SWAP10 DUP11 MSTORE PUSH1 0x20 DUP11 ADD SWAP3 SWAP1 SWAP3 MSTORE POP DUP8 ADD MSTORE PUSH1 0x60 DUP7 ADD MSTORE AND SWAP3 PUSH32 0x7C5BFDC0A5E8192F6CD4972F382CEC69116862FB62E6ABFF8003874C58E064B8 SWAP1 PUSH1 0x80 SWAP1 LOG4 PUSH1 0x40 MLOAD SWAP1 DUP2 MSTORE RETURN JUMPDEST DUP4 SWAP5 SWAP9 POP PUSH8 0xDE0B6B3A7640000 SWAP2 SWAP3 SWAP6 POP PUSH2 0x43A PUSH2 0x43F SWAP2 PUSH2 0xA2F SWAP6 PUSH2 0x17AB JUMP JUMPDEST SWAP2 DUP5 PUSH1 0x2 SLOAD AND DUP6 PUSH1 0x4 SLOAD AND DUP2 EXTCODESIZE ISZERO PUSH2 0x267 JUMPI PUSH1 0x40 MLOAD PUSH4 0xBB35783B PUSH1 0xE0 SHL DUP2 MSTORE PUSH1 0x1 PUSH1 0x1 PUSH1 0xA0 SHL SUB SWAP2 DUP3 AND PUSH1 0x4 DUP3 ADD MSTORE SWAP1 DUP7 AND PUSH1 0x24 DUP3 ADD MSTORE PUSH1 0x44 DUP2 ADD DUP6 SWAP1 MSTORE SWAP1 DUP3 SWAP1 DUP3 SWAP1 PUSH1 0x64 SWAP1 DUP3 SWAP1 DUP5 SWAP1 GAS CALL DUP1 ISZERO PUSH2 0x25C JUMPI SWAP1 DUP11 SWAP7 SWAP6 SWAP5 SWAP4 SWAP3 SWAP2 PUSH2 0xA9A JUMPI JUMPDEST DUP1 SWAP8 SWAP4 SWAP5 SWAP6 SWAP7 SWAP8 PUSH2 0x9C4 JUMP JUMPDEST DUP2 SWAP3 SWAP4 SWAP6 SWAP8 SWAP5 SWAP7 POP PUSH2 0xAAB SWAP1 PUSH2 0x16F9 JUMP JUMPDEST PUSH2 0x2C8 JUMPI SWAP1 DUP2 DUP10 SWAP6 SWAP4 SWAP7 SWAP5 SWAP3 PUSH2 0xA8E JUMP JUMPDEST POP DUP1 ISZERO ISZERO PUSH2 0x9BF JUMP JUMPDEST PUSH4 0x4E487B71 PUSH1 0xE0 SHL DUP6 MSTORE PUSH1 0x41 PUSH1 0x4 MSTORE DUP12 DUP6 REVERT JUMPDEST PUSH4 0x4E487B71 PUSH1 0xE0 SHL DUP4 MSTORE PUSH1 0x11 PUSH1 0x4 MSTORE DUP10 DUP4 REVERT JUMPDEST PUSH1 0x40 MLOAD PUSH3 0x461BCD PUSH1 0xE5 SHL DUP2 MSTORE PUSH1 0x4 DUP2 ADD DUP10 SWAP1 MSTORE PUSH1 0x17 DUP2 DUP12 ADD MSTORE PUSH32 0x436C69707065722F7A65726F2D73706F742D7072696365000000000000000000 PUSH1 0x44 DUP3 ADD MSTORE PUSH1 0x64 SWAP1 REVERT JUMPDEST SWAP1 POP PUSH1 0xA0 DUP2 RETURNDATASIZE DUP3 GT PUSH2 0xB5B JUMPI JUMPDEST DUP2 PUSH2 0xB49 PUSH1 0xA0 SWAP4 DUP4 PUSH2 0x1723 JUMP JUMPDEST DUP2 ADD SUB SLT PUSH2 0x267 JUMPI PUSH1 0x40 ADD MLOAD CODESIZE PUSH2 0x8DC JUMP JUMPDEST RETURNDATASIZE SWAP2 POP PUSH2 0xB3C JUMP JUMPDEST PUSH1 0x40 MLOAD PUSH3 0x461BCD PUSH1 0xE5 SHL DUP2 MSTORE PUSH1 0x4 DUP2 ADD DUP10 SWAP1 MSTORE PUSH1 0x10 DUP2 DUP12 ADD MSTORE PUSH16 0x21B634B83832B917BD32B93796BAB9B9 PUSH1 0x81 SHL PUSH1 0x44 DUP3 ADD MSTORE PUSH1 0x64 SWAP1 REVERT JUMPDEST PUSH1 0x40 MLOAD PUSH3 0x461BCD PUSH1 0xE5 SHL DUP2 MSTORE PUSH1 0x4 DUP2 ADD DUP10 SWAP1 MSTORE PUSH1 0x10 DUP2 DUP12 ADD MSTORE PUSH16 0x10DB1A5C1C195C8BDE995C9BCB5B1BDD PUSH1 0x82 SHL PUSH1 0x44 DUP3 ADD MSTORE PUSH1 0x64 SWAP1 REVERT JUMPDEST PUSH1 0x40 MLOAD PUSH3 0x461BCD PUSH1 0xE5 SHL DUP2 MSTORE PUSH1 0x4 DUP2 ADD DUP10 SWAP1 MSTORE PUSH1 0x10 DUP2 DUP12 ADD MSTORE PUSH16 0x21B634B83832B917BD32B93796BA30B1 PUSH1 0x81 SHL PUSH1 0x44 DUP3 ADD MSTORE PUSH1 0x64 SWAP1 REVERT JUMPDEST PUSH1 0x0 DUP1 REVERT JUMPDEST POP CALLVALUE PUSH2 0x2C8 JUMPI PUSH1 0xA0 CALLDATASIZE PUSH1 0x3 NOT ADD SLT PUSH2 0x2C8 JUMPI PUSH1 0x24 CALLDATALOAD SWAP1 PUSH2 0xC2B PUSH2 0x15FC JUMP JUMPDEST SWAP2 PUSH8 0xFFFFFFFFFFFFFFFF DUP1 PUSH1 0x84 CALLDATALOAD GT PUSH2 0x267 JUMPI CALLDATASIZE PUSH1 0x23 PUSH1 0x84 CALLDATALOAD ADD SLT ISZERO PUSH2 0x267 JUMPI PUSH1 0x84 CALLDATALOAD PUSH1 0x4 ADD CALLDATALOAD GT PUSH2 0x258 JUMPI CALLDATASIZE PUSH1 0x24 PUSH1 0x84 CALLDATALOAD PUSH1 0x4 ADD CALLDATALOAD PUSH1 0x84 CALLDATALOAD ADD ADD GT PUSH2 0x258 JUMPI PUSH1 0x4 CALLDATALOAD DUP3 MSTORE PUSH1 0xE PUSH1 0x20 MSTORE PUSH2 0xCBD PUSH1 0x3 PUSH1 0x40 DUP5 KECCAK256 ADD SLOAD PUSH2 0xC8E PUSH1 0x1 PUSH1 0xF SLOAD EQ PUSH2 0x16BA JUMP JUMPDEST PUSH2 0xCA2 PUSH1 0x1 PUSH1 0x1 PUSH1 0xA0 SHL SUB DUP3 AND ISZERO ISZERO PUSH2 0x185C JUMP JUMPDEST PUSH1 0x4 CALLDATALOAD DUP5 MSTORE PUSH1 0xE PUSH1 0x20 MSTORE PUSH1 0x4 PUSH1 0x40 DUP6 KECCAK256 ADD SLOAD SWAP1 PUSH1 0xA0 SHR PUSH2 0x1961 JUMP JUMPDEST SWAP2 SWAP1 PUSH2 0x11B0 JUMPI DUP2 PUSH1 0x44 CALLDATALOAD LT PUSH2 0x1173 JUMPI PUSH1 0x4 CALLDATALOAD DUP4 MSTORE PUSH1 0xE PUSH1 0x20 MSTORE PUSH1 0x40 DUP4 KECCAK256 SWAP2 PUSH1 0x1 PUSH1 0x2 DUP5 ADD SLOAD SWAP4 ADD SLOAD SWAP2 DUP1 DUP5 GT ISZERO PUSH1 0x0 EQ PUSH2 0x116D JUMPI POP DUP3 JUMPDEST DUP4 PUSH8 0xDE0B6B3A7640000 SWAP5 DUP6 PUSH2 0xD0D PUSH2 0x43A DUP7 DUP6 PUSH2 0x17AB JUMP JUMPDEST DIV SWAP2 DUP6 DUP4 GT ISZERO PUSH2 0x10ED JUMPI POP POP POP DUP3 SWAP4 DUP1 DUP5 MUL SWAP1 DUP5 DUP3 DIV DUP2 EQ DUP6 ISZERO OR ISZERO PUSH2 0x10D9 JUMPI DUP5 SWAP1 DUP3 DIV SUB PUSH2 0x10D5 JUMPI DUP3 PUSH2 0xD48 PUSH2 0xD4D SWAP3 DUP3 PUSH1 0x1 SHR SWAP1 PUSH2 0x1777 JUMP JUMPDEST PUSH2 0x178B JUMP JUMPDEST SWAP1 JUMPDEST PUSH2 0xD59 DUP6 DUP6 PUSH2 0x18A8 JUMP JUMPDEST DUP5 DUP2 GT PUSH2 0x10A3 JUMPI PUSH1 0x4 CALLDATALOAD DUP8 MSTORE PUSH1 0xE PUSH1 0x20 MSTORE PUSH1 0x1 PUSH1 0x40 DUP9 KECCAK256 ADD SSTORE PUSH2 0xD7C DUP3 DUP3 PUSH2 0x18A8 JUMP JUMPDEST DUP2 DUP2 GT PUSH2 0x10A3 JUMPI PUSH1 0x4 CALLDATALOAD DUP8 MSTORE PUSH1 0xE PUSH1 0x20 MSTORE PUSH1 0x2 PUSH1 0x40 DUP9 KECCAK256 ADD SSTORE PUSH1 0x1 DUP1 PUSH1 0xA0 SHL SUB PUSH1 0x2 SLOAD AND SWAP7 PUSH1 0x1 DUP1 PUSH1 0xA0 SHL SUB PUSH1 0x4 SLOAD AND DUP9 EXTCODESIZE ISZERO PUSH2 0x10D1 JUMPI PUSH1 0x40 MLOAD PUSH4 0xBB35783B PUSH1 0xE0 SHL DUP2 MSTORE PUSH1 0x1 PUSH1 0x1 PUSH1 0xA0 SHL SUB DUP4 DUP2 AND PUSH1 0x4 DUP4 ADD MSTORE SWAP2 SWAP1 SWAP2 AND PUSH1 0x24 DUP3 ADD MSTORE PUSH1 0x44 DUP2 ADD DUP8 SWAP1 MSTORE SWAP8 DUP8 SWAP1 DUP10 SWAP1 PUSH1 0x64 SWAP1 DUP3 SWAP1 DUP5 SWAP1 GAS CALL DUP1 ISZERO PUSH2 0x10C6 JUMPI PUSH2 0x10B2 JUMPI JUMPDEST PUSH1 0x2 SLOAD PUSH1 0x1 SLOAD SWAP8 SWAP9 POP DUP9 SWAP8 SWAP1 PUSH1 0x1 PUSH1 0x1 PUSH1 0xA0 SHL SUB AND DUP1 EXTCODESIZE ISZERO PUSH2 0x4B6 JUMPI PUSH1 0x40 MLOAD PUSH4 0x3088DF17 PUSH1 0xE1 SHL DUP2 MSTORE PUSH1 0x4 DUP2 ADD SWAP3 SWAP1 SWAP3 MSTORE ADDRESS PUSH1 0x24 DUP4 ADD MSTORE PUSH1 0x1 PUSH1 0x1 PUSH1 0xA0 SHL SUB DUP4 AND PUSH1 0x44 DUP4 ADD MSTORE PUSH1 0x64 DUP3 ADD DUP6 SWAP1 MSTORE DUP9 SWAP1 DUP3 SWAP1 PUSH1 0x84 SWAP1 DUP3 SWAP1 DUP5 SWAP1 GAS CALL SWAP1 DUP2 ISZERO PUSH2 0x10A7 JUMPI DUP9 SWAP2 PUSH2 0x108F JUMPI JUMPDEST POP POP PUSH1 0x4 CALLDATALOAD DUP8 MSTORE PUSH1 0xE PUSH1 0x20 MSTORE PUSH1 0x2 PUSH1 0x40 DUP9 KECCAK256 ADD SLOAD ISZERO PUSH2 0x107F JUMPI JUMPDEST PUSH1 0x1 DUP1 PUSH1 0xA0 SHL SUB AND SWAP3 DUP4 SWAP2 PUSH1 0x40 MLOAD SWAP2 PUSH1 0x44 CALLDATALOAD DUP4 MSTORE PUSH1 0x20 DUP4 ADD MSTORE DUP7 PUSH1 0x40 DUP4 ADD MSTORE DUP6 PUSH1 0x60 DUP4 ADD MSTORE PUSH1 0x80 DUP3 ADD MSTORE PUSH32 0x5E309FD6CE72F2AB888A20056BB4210DF08DAED86F21F95053DEB19964D86B1 PUSH1 0xA0 PUSH1 0x4 CALLDATALOAD SWAP3 LOG3 PUSH1 0x84 CALLDATALOAD PUSH1 0x4 ADD CALLDATALOAD PUSH2 0xFE6 JUMPI JUMPDEST POP POP PUSH1 0x1 DUP1 PUSH1 0xA0 SHL SUB PUSH1 0x3 SLOAD AND PUSH1 0x1 SLOAD DUP2 EXTCODESIZE ISZERO PUSH2 0x28A JUMPI DUP5 SWAP2 PUSH1 0x44 DUP4 SWAP3 PUSH1 0x40 MLOAD SWAP5 DUP6 SWAP4 DUP5 SWAP3 PUSH4 0x321C64FD PUSH1 0xE2 SHL DUP5 MSTORE PUSH1 0x4 DUP5 ADD MSTORE DUP9 PUSH1 0x24 DUP5 ADD MSTORE GAS CALL SWAP1 DUP2 ISZERO PUSH2 0xFDB JUMPI DUP5 SWAP2 PUSH2 0xFC7 JUMPI JUMPDEST POP POP DUP1 DUP3 LT ISZERO PUSH2 0xF84 JUMPI POP PUSH1 0x4 SLOAD PUSH1 0x1 PUSH1 0x1 PUSH1 0xA0 SHL SUB AND SWAP1 DUP2 EXTCODESIZE ISZERO PUSH2 0xF80 JUMPI DUP3 SWAP2 PUSH1 0x24 DUP4 SWAP3 PUSH1 0x40 MLOAD SWAP5 DUP6 SWAP4 DUP5 SWAP3 PUSH4 0x3CDEB187 PUSH1 0xE2 SHL DUP5 MSTORE PUSH1 0x4 DUP5 ADD MSTORE GAS CALL DUP1 ISZERO PUSH2 0x25C JUMPI PUSH2 0xF70 JUMPI POP POP DUP1 RETURN JUMPDEST PUSH2 0xF79 SWAP1 PUSH2 0x16F9 JUMP JUMPDEST PUSH2 0x2C8 JUMPI DUP1 RETURN JUMPDEST POP POP REVERT JUMPDEST PUSH1 0x4 SLOAD PUSH1 0x1 PUSH1 0x1 PUSH1 0xA0 SHL SUB AND SWAP2 POP DUP2 EXTCODESIZE ISZERO PUSH2 0xF80 JUMPI DUP3 SWAP2 PUSH1 0x24 DUP4 SWAP3 PUSH1 0x40 MLOAD SWAP5 DUP6 SWAP4 DUP5 SWAP3 PUSH4 0x3CDEB187 PUSH1 0xE2 SHL DUP5 MSTORE PUSH1 0x4 DUP5 ADD MSTORE GAS CALL DUP1 ISZERO PUSH2 0x25C JUMPI PUSH2 0xF70 JUMPI POP POP DUP1 RETURN JUMPDEST PUSH2 0xFD0 SWAP1 PUSH2 0x16F9 JUMP JUMPDEST PUSH2 0xF80 JUMPI DUP3 CODESIZE PUSH2 0xF23 JUMP JUMPDEST PUSH1 0x40 MLOAD RETURNDATASIZE DUP7 DUP3 RETURNDATACOPY RETURNDATASIZE SWAP1 REVERT JUMPDEST DUP2 EXTCODESIZE ISZERO PUSH2 0x28A JUMPI DUP5 SWAP1 PUSH1 0x40 MLOAD SWAP3 DUP4 SWAP2 PUSH4 0x42296087 PUSH1 0xE1 SHL DUP4 MSTORE CALLER PUSH1 0x4 DUP5 ADD MSTORE DUP7 PUSH1 0x24 DUP5 ADD MSTORE PUSH1 0x44 DUP4 ADD MSTORE PUSH1 0x80 PUSH1 0x64 DUP4 ADD MSTORE PUSH1 0x84 CALLDATALOAD PUSH1 0x4 ADD CALLDATALOAD PUSH1 0x84 DUP4 ADD MSTORE PUSH1 0x84 CALLDATALOAD PUSH1 0x4 ADD CALLDATALOAD PUSH1 0x24 PUSH1 0x84 CALLDATALOAD ADD PUSH1 0xA4 DUP5 ADD CALLDATACOPY DUP3 PUSH1 0xA4 PUSH1 0x84 CALLDATALOAD PUSH1 0x4 ADD CALLDATALOAD DUP5 ADD ADD MSTORE DUP2 DUP4 PUSH1 0xA4 DUP3 PUSH1 0x1F NOT PUSH1 0x1F PUSH1 0x84 CALLDATALOAD PUSH1 0x4 ADD CALLDATALOAD ADD AND DUP2 ADD SUB ADD SWAP3 GAS CALL SWAP1 DUP2 ISZERO PUSH2 0xFDB JUMPI DUP5 SWAP2 ISZERO PUSH2 0xED9 JUMPI PUSH2 0x1074 SWAP1 PUSH2 0x16F9 JUMP JUMPDEST PUSH2 0xF80 JUMPI DUP3 CODESIZE PUSH2 0xED9 JUMP JUMPDEST PUSH2 0x108A PUSH1 0x4 CALLDATALOAD PUSH2 0x18B5 JUMP JUMPDEST PUSH2 0xE7B JUMP JUMPDEST PUSH2 0x1098 SWAP1 PUSH2 0x16F9 JUMP JUMPDEST PUSH2 0x10A3 JUMPI DUP7 CODESIZE PUSH2 0xE61 JUMP JUMPDEST DUP7 DUP1 REVERT JUMPDEST PUSH1 0x40 MLOAD RETURNDATASIZE DUP11 DUP3 RETURNDATACOPY RETURNDATASIZE SWAP1 REVERT JUMPDEST SWAP6 SWAP1 SWAP7 PUSH2 0x10BE SWAP1 PUSH2 0x16F9 JUMP JUMPDEST SWAP5 DUP7 SWAP1 PUSH2 0xDF9 JUMP JUMPDEST PUSH1 0x40 MLOAD RETURNDATASIZE DUP10 DUP3 RETURNDATACOPY RETURNDATASIZE SWAP1 REVERT JUMPDEST DUP8 DUP1 REVERT JUMPDEST DUP6 DUP1 REVERT JUMPDEST PUSH4 0x4E487B71 PUSH1 0xE0 SHL DUP8 MSTORE PUSH1 0x11 PUSH1 0x4 MSTORE PUSH1 0x24 DUP8 REVERT JUMPDEST SWAP1 SWAP3 DUP3 SWAP7 POP DUP6 DUP2 SWAP4 LT SWAP2 DUP3 PUSH2 0x1163 JUMPI JUMPDEST POP POP ISZERO PUSH2 0xD4F JUMPI PUSH2 0x110E DUP6 DUP6 PUSH2 0x18A8 JUMP JUMPDEST DUP5 DUP2 GT PUSH2 0x10A3 JUMPI PUSH1 0xB SLOAD GT ISZERO PUSH2 0xD4F JUMPI PUSH1 0x40 MLOAD PUSH3 0x461BCD PUSH1 0xE5 SHL DUP2 MSTORE PUSH1 0x20 PUSH1 0x4 DUP3 ADD MSTORE PUSH1 0x1B PUSH1 0x24 DUP3 ADD MSTORE PUSH32 0x436C69707065722F6E6F2D7061727469616C2D70757263686173650000000000 PUSH1 0x44 DUP3 ADD MSTORE PUSH1 0x64 SWAP1 REVERT JUMPDEST LT SWAP1 POP DUP2 CODESIZE PUSH2 0x10FD JUMP JUMPDEST SWAP3 PUSH2 0xCF4 JUMP JUMPDEST PUSH1 0x40 MLOAD PUSH3 0x461BCD PUSH1 0xE5 SHL DUP2 MSTORE PUSH1 0x20 PUSH1 0x4 DUP3 ADD MSTORE PUSH1 0x15 PUSH1 0x24 DUP3 ADD MSTORE PUSH21 0x436C69707065722F746F6F2D657870656E73697665 PUSH1 0x58 SHL PUSH1 0x44 DUP3 ADD MSTORE PUSH1 0x64 SWAP1 REVERT JUMPDEST PUSH1 0x40 MLOAD PUSH3 0x461BCD PUSH1 0xE5 SHL DUP2 MSTORE PUSH1 0x20 PUSH1 0x4 DUP3 ADD MSTORE PUSH1 0x13 PUSH1 0x24 DUP3 ADD MSTORE PUSH19 0x10DB1A5C1C195C8BDB9959591CCB5C995CD95D PUSH1 0x6A SHL PUSH1 0x44 DUP3 ADD MSTORE PUSH1 0x64 SWAP1 REVERT JUMPDEST POP CALLVALUE PUSH2 0x2C8 JUMPI PUSH1 0x20 CALLDATASIZE PUSH1 0x3 NOT ADD SLT PUSH2 0x2C8 JUMPI PUSH1 0x4 CALLDATALOAD SWAP1 PUSH1 0xD SLOAD DUP3 LT ISZERO PUSH2 0x2C8 JUMPI PUSH1 0x20 PUSH2 0x1216 DUP4 PUSH2 0x1628 JUMP JUMPDEST SWAP1 SLOAD PUSH1 0x40 MLOAD SWAP2 PUSH1 0x3 SHL SHR DUP2 MSTORE RETURN JUMPDEST POP CALLVALUE PUSH2 0x2C8 JUMPI DUP1 PUSH1 0x3 NOT CALLDATASIZE ADD SLT PUSH2 0x2C8 JUMPI CALLER DUP2 MSTORE DUP1 PUSH1 0x20 MSTORE PUSH2 0x124C PUSH1 0x1 PUSH1 0x40 DUP4 KECCAK256 SLOAD EQ PUSH2 0x1675 JUMP JUMPDEST DUP1 PUSH1 0xF SSTORE DUP1 RETURN JUMPDEST POP CALLVALUE PUSH2 0x2C8 JUMPI PUSH1 0x20 CALLDATASIZE PUSH1 0x3 NOT ADD SLT PUSH2 0x2C8 JUMPI PUSH2 0x126D PUSH2 0x15E6 JUMP JUMPDEST CALLER DUP3 MSTORE DUP2 PUSH1 0x20 MSTORE PUSH2 0x1284 PUSH1 0x1 PUSH1 0x40 DUP5 KECCAK256 SLOAD EQ PUSH2 0x1675 JUMP JUMPDEST PUSH1 0x1 PUSH1 0x1 PUSH1 0xA0 SHL SUB AND DUP2 MSTORE PUSH1 0x20 DUP2 SWAP1 MSTORE PUSH1 0x40 DUP2 KECCAK256 PUSH1 0x1 SWAP1 SSTORE DUP1 RETURN JUMPDEST POP CALLVALUE PUSH2 0x2C8 JUMPI DUP1 PUSH1 0x3 NOT CALLDATASIZE ADD SLT PUSH2 0x2C8 JUMPI PUSH1 0x4 SLOAD PUSH1 0x40 MLOAD PUSH1 0x1 PUSH1 0x1 PUSH1 0xA0 SHL SUB SWAP1 SWAP2 AND DUP2 MSTORE PUSH1 0x20 SWAP1 RETURN JUMPDEST POP CALLVALUE PUSH2 0x2C8 JUMPI PUSH1 0x20 CALLDATASIZE PUSH1 0x3 NOT ADD SLT PUSH2 0x2C8 JUMPI PUSH1 0x80 SWAP1 PUSH1 0x4 CALLDATALOAD DUP1 DUP3 MSTORE PUSH1 0xE PUSH1 0x20 MSTORE PUSH1 0x40 DUP3 KECCAK256 SWAP2 PUSH2 0x1303 PUSH1 0x4 PUSH1 0x3 DUP6 ADD SLOAD SWAP5 ADD SLOAD DUP5 PUSH1 0xA0 SHR PUSH2 0x1961 JUMP JUMPDEST PUSH1 0x1 PUSH1 0x1 PUSH1 0xA0 SHL SUB SWAP1 SWAP5 AND ISZERO ISZERO SWAP4 SWAP3 SWAP1 DUP5 PUSH2 0x134A JUMPI JUMPDEST POP SWAP1 PUSH1 0x40 SWAP2 DUP2 MSTORE PUSH1 0xE PUSH1 0x20 MSTORE KECCAK256 PUSH1 0x1 PUSH1 0x2 DUP3 ADD SLOAD SWAP2 ADD SLOAD SWAP2 PUSH1 0x40 MLOAD SWAP4 ISZERO ISZERO DUP5 MSTORE PUSH1 0x20 DUP5 ADD MSTORE PUSH1 0x40 DUP4 ADD MSTORE PUSH1 0x60 DUP3 ADD MSTORE RETURN JUMPDEST SWAP4 POP PUSH1 0x40 PUSH2 0x1319 JUMP JUMPDEST POP CALLVALUE PUSH2 0x2C8 JUMPI DUP1 PUSH1 0x3 NOT CALLDATASIZE ADD SLT PUSH2 0x2C8 JUMPI PUSH1 0x20 PUSH1 0x9 SLOAD PUSH1 0x40 MLOAD SWAP1 DUP2 MSTORE RETURN JUMPDEST POP CALLVALUE PUSH2 0x2C8 JUMPI DUP1 PUSH1 0x3 NOT CALLDATASIZE ADD SLT PUSH2 0x2C8 JUMPI PUSH1 0x2 SLOAD PUSH1 0x40 MLOAD PUSH1 0x1 PUSH1 0x1 PUSH1 0xA0 SHL SUB SWAP1 SWAP2 AND DUP2 MSTORE PUSH1 0x20 SWAP1 RETURN JUMPDEST POP CALLVALUE PUSH2 0x2C8 JUMPI DUP1 PUSH1 0x3 NOT CALLDATASIZE ADD SLT PUSH2 0x2C8 JUMPI PUSH1 0x5 SLOAD PUSH1 0x40 MLOAD PUSH1 0x1 PUSH1 0x1 PUSH1 0xA0 SHL SUB SWAP1 SWAP2 AND DUP2 MSTORE PUSH1 0x20 SWAP1 RETURN JUMPDEST POP CALLVALUE PUSH2 0x2C8 JUMPI PUSH2 0x13D2 CALLDATASIZE PUSH2 0x15D0 JUMP JUMPDEST SWAP1 CALLER DUP4 MSTORE DUP3 PUSH1 0x20 MSTORE PUSH2 0x13EA PUSH1 0x1 PUSH1 0x40 DUP6 KECCAK256 SLOAD EQ PUSH2 0x1675 JUMP JUMPDEST PUSH2 0x13F8 PUSH1 0x1 PUSH1 0xF SLOAD EQ PUSH2 0x16BA JUMP JUMPDEST PUSH3 0x313AB3 PUSH1 0xE9 SHL DUP2 SUB PUSH2 0x140C JUMPI POP PUSH1 0x7 SSTORE DUP1 RETURN JUMPDEST PUSH4 0x1D185A5B PUSH1 0xE2 SHL DUP2 SUB PUSH2 0x1421 JUMPI POP PUSH1 0x8 SSTORE DUP1 RETURN JUMPDEST PUSH4 0x6375737 PUSH1 0xE4 SHL DUP2 SUB PUSH2 0x1436 JUMPI POP PUSH1 0x9 SSTORE DUP1 RETURN JUMPDEST PUSH4 0x6368697 PUSH1 0xE4 SHL DUP2 SUB PUSH2 0x1464 JUMPI POP PUSH8 0xFFFFFFFFFFFFFFFF AND PUSH8 0xFFFFFFFFFFFFFFFF NOT PUSH1 0xA SLOAD AND OR PUSH1 0xA SSTORE DUP1 RETURN JUMPDEST PUSH3 0x74697 PUSH1 0xEC SHL DUP2 SUB PUSH2 0x148F JUMPI POP PUSH8 0xFFFFFFFFFFFFFFFF PUSH1 0xA SLOAD SWAP2 DUP2 NOT SWAP1 PUSH1 0x40 SHL AND SWAP2 AND OR PUSH1 0xA SSTORE DUP1 RETURN JUMPDEST PUSH5 0x18DA1BDCDD PUSH1 0xDA SHL SUB PUSH2 0x618 JUMPI PUSH1 0xB SSTORE DUP1 RETURN JUMPDEST POP CALLVALUE PUSH2 0x2C8 JUMPI DUP1 PUSH1 0x3 NOT CALLDATASIZE ADD SLT PUSH2 0x2C8 JUMPI PUSH1 0x20 PUSH1 0xA SLOAD PUSH1 0x40 SHR PUSH1 0x40 MLOAD SWAP1 DUP2 MSTORE RETURN JUMPDEST POP CALLVALUE PUSH2 0x2C8 JUMPI DUP1 PUSH1 0x3 NOT CALLDATASIZE ADD SLT PUSH2 0x2C8 JUMPI PUSH1 0x20 PUSH1 0x7 SLOAD PUSH1 0x40 MLOAD SWAP1 DUP2 MSTORE RETURN JUMPDEST POP CALLVALUE PUSH2 0x2C8 JUMPI DUP1 PUSH1 0x3 NOT CALLDATASIZE ADD SLT PUSH2 0x2C8 JUMPI PUSH1 0x20 PUSH1 0x8 SLOAD PUSH1 0x40 MLOAD SWAP1 DUP2 MSTORE RETURN JUMPDEST POP CALLVALUE PUSH2 0x2C8 JUMPI DUP1 PUSH1 0x3 NOT CALLDATASIZE ADD SLT PUSH2 0x2C8 JUMPI PUSH1 0x40 MLOAD DUP1 SWAP2 PUSH1 0xD SLOAD SWAP1 DUP2 DUP4 MSTORE PUSH1 0x20 DUP1 SWAP4 ADD DUP1 SWAP3 PUSH1 0xD DUP4 MSTORE PUSH32 0xD7B6990105719101DABEB77144F2A3385C8033ACD3AF97E9423A695E81AD1EB5 SWAP1 DUP4 JUMPDEST DUP2 DUP2 LT PUSH2 0x15A0 JUMPI POP POP POP DUP5 PUSH2 0x1562 SWAP2 SUB DUP6 PUSH2 0x1723 JUMP JUMPDEST PUSH1 0x40 MLOAD SWAP4 DUP4 DUP6 SWAP5 DUP6 ADD SWAP2 DUP2 DUP7 MSTORE MLOAD DUP1 SWAP3 MSTORE PUSH1 0x40 DUP6 ADD SWAP4 SWAP3 JUMPDEST DUP3 DUP2 LT PUSH2 0x1589 JUMPI POP POP POP POP SUB SWAP1 RETURN JUMPDEST DUP4 MLOAD DUP6 MSTORE DUP7 SWAP6 POP SWAP4 DUP2 ADD SWAP4 SWAP3 DUP2 ADD SWAP3 PUSH1 0x1 ADD PUSH2 0x157A JUMP JUMPDEST DUP3 SLOAD DUP5 MSTORE SWAP3 DUP7 ADD SWAP3 PUSH1 0x1 SWAP3 DUP4 ADD SWAP3 ADD PUSH2 0x154C JUMP JUMPDEST SWAP1 POP CALLVALUE PUSH2 0x258 JUMPI DUP2 PUSH1 0x3 NOT CALLDATASIZE ADD SLT PUSH2 0x258 JUMPI PUSH1 0x20 SWAP1 PUSH1 0xD SLOAD DUP2 MSTORE RETURN JUMPDEST PUSH1 0x40 SWAP1 PUSH1 0x3 NOT ADD SLT PUSH2 0xC08 JUMPI PUSH1 0x4 CALLDATALOAD SWAP1 PUSH1 0x24 CALLDATALOAD SWAP1 JUMP JUMPDEST PUSH1 0x4 CALLDATALOAD SWAP1 PUSH1 0x1 PUSH1 0x1 PUSH1 0xA0 SHL SUB DUP3 AND DUP3 SUB PUSH2 0xC08 JUMPI JUMP JUMPDEST PUSH1 0x64 CALLDATALOAD SWAP1 PUSH1 0x1 PUSH1 0x1 PUSH1 0xA0 SHL SUB DUP3 AND DUP3 SUB PUSH2 0xC08 JUMPI JUMP JUMPDEST PUSH1 0x24 CALLDATALOAD SWAP1 PUSH1 0x1 PUSH1 0x1 PUSH1 0xA0 SHL SUB DUP3 AND DUP3 SUB PUSH2 0xC08 JUMPI JUMP JUMPDEST PUSH1 0xD SLOAD DUP2 LT ISZERO PUSH2 0x165F JUMPI PUSH1 0xD PUSH1 0x0 MSTORE PUSH32 0xD7B6990105719101DABEB77144F2A3385C8033ACD3AF97E9423A695E81AD1EB5 ADD SWAP1 PUSH1 0x0 SWAP1 JUMP JUMPDEST PUSH4 0x4E487B71 PUSH1 0xE0 SHL PUSH1 0x0 MSTORE PUSH1 0x32 PUSH1 0x4 MSTORE PUSH1 0x24 PUSH1 0x0 REVERT JUMPDEST ISZERO PUSH2 0x167C JUMPI JUMP JUMPDEST PUSH1 0x40 MLOAD PUSH3 0x461BCD PUSH1 0xE5 SHL DUP2 MSTORE PUSH1 0x20 PUSH1 0x4 DUP3 ADD MSTORE PUSH1 0x16 PUSH1 0x24 DUP3 ADD MSTORE PUSH22 0x10DB1A5C1C195C8BDB9BDD0B585D5D1A1BDC9A5E9959 PUSH1 0x52 SHL PUSH1 0x44 DUP3 ADD MSTORE PUSH1 0x64 SWAP1 REVERT JUMPDEST ISZERO PUSH2 0x16C1 JUMPI JUMP JUMPDEST PUSH1 0x40 MLOAD PUSH3 0x461BCD PUSH1 0xE5 SHL DUP2 MSTORE PUSH1 0x20 PUSH1 0x4 DUP3 ADD MSTORE PUSH1 0x10 PUSH1 0x24 DUP3 ADD MSTORE PUSH16 0x436C69707065722F6E6F742D6C697665 PUSH1 0x80 SHL PUSH1 0x44 DUP3 ADD MSTORE PUSH1 0x64 SWAP1 REVERT JUMPDEST PUSH8 0xFFFFFFFFFFFFFFFF DUP2 GT PUSH2 0x170D JUMPI PUSH1 0x40 MSTORE JUMP JUMPDEST PUSH4 0x4E487B71 PUSH1 0xE0 SHL PUSH1 0x0 MSTORE PUSH1 0x41 PUSH1 0x4 MSTORE PUSH1 0x24 PUSH1 0x0 REVERT JUMPDEST SWAP1 PUSH1 0x1F DUP1 NOT SWAP2 ADD AND DUP2 ADD SWAP1 DUP2 LT PUSH8 0xFFFFFFFFFFFFFFFF DUP3 GT OR PUSH2 0x170D JUMPI PUSH1 0x40 MSTORE JUMP JUMPDEST SWAP1 PUSH8 0x6F05B59D3B20000 DUP3 ADD SWAP2 DUP3 DUP2 GT PUSH2 0x1761 JUMPI DUP3 LT PUSH2 0xC08 JUMPI JUMP JUMPDEST PUSH4 0x4E487B71 PUSH1 0xE0 SHL PUSH1 0x0 MSTORE PUSH1 0x11 PUSH1 0x4 MSTORE PUSH1 0x24 PUSH1 0x0 REVERT JUMPDEST SWAP2 SWAP1 DUP3 ADD SWAP2 DUP3 DUP2 GT PUSH2 0x1761 JUMPI DUP3 LT PUSH2 0xC08 JUMPI JUMP JUMPDEST DUP2 ISZERO PUSH2 0x1795 JUMPI DIV SWAP1 JUMP JUMPDEST PUSH4 0x4E487B71 PUSH1 0xE0 SHL PUSH1 0x0 MSTORE PUSH1 0x12 PUSH1 0x4 MSTORE PUSH1 0x24 PUSH1 0x0 REVERT JUMPDEST PUSH1 0x0 SWAP3 SWAP2 DUP1 ISZERO SWAP2 DUP3 ISZERO PUSH2 0x17C2 JUMPI JUMPDEST POP POP ISZERO PUSH2 0xC08 JUMPI JUMP JUMPDEST DUP1 DUP3 MUL SWAP5 POP SWAP2 POP DUP2 ISZERO DUP3 DUP6 DIV DUP3 EQ OR ISZERO PUSH2 0x1761 JUMPI PUSH2 0x17E0 SWAP1 DUP5 PUSH2 0x178B JUMP JUMPDEST EQ CODESIZE DUP1 PUSH2 0x17B9 JUMP JUMPDEST SWAP1 PUSH2 0x17F2 SWAP2 PUSH2 0x17AB JUMP JUMPDEST PUSH12 0x19D971E4FE8401E74000000 DUP2 ADD SWAP1 DUP2 DUP2 GT PUSH2 0x1761 JUMPI DUP2 LT PUSH2 0xC08 JUMPI PUSH12 0x33B2E3C9FD0803CE8000000 SWAP1 DIV SWAP1 JUMP JUMPDEST SWAP1 PUSH12 0x33B2E3C9FD0803CE8000000 SWAP2 DUP3 DUP2 MUL SWAP3 DUP2 DUP5 DIV DUP2 EQ DUP3 ISZERO OR ISZERO PUSH2 0x1761 JUMPI DUP4 DIV SUB PUSH2 0xC08 JUMPI PUSH2 0xD48 PUSH2 0x1859 SWAP3 DUP3 PUSH1 0x1 SHR SWAP1 PUSH2 0x1777 JUMP JUMPDEST SWAP1 JUMP JUMPDEST ISZERO PUSH2 0x1863 JUMPI JUMP JUMPDEST PUSH1 0x40 MLOAD PUSH3 0x461BCD PUSH1 0xE5 SHL DUP2 MSTORE PUSH1 0x20 PUSH1 0x4 DUP3 ADD MSTORE PUSH1 0x1B PUSH1 0x24 DUP3 ADD MSTORE PUSH32 0x436C69707065722F6E6F742D72756E6E696E672D61756374696F6E0000000000 PUSH1 0x44 DUP3 ADD MSTORE PUSH1 0x64 SWAP1 REVERT JUMPDEST SWAP2 SWAP1 DUP3 SUB SWAP2 DUP3 GT PUSH2 0x1761 JUMPI JUMP JUMPDEST PUSH1 0xD SLOAD PUSH1 0x0 NOT SWAP2 SWAP1 DUP3 DUP2 ADD SWAP1 DUP2 GT PUSH2 0x1761 JUMPI PUSH2 0x18D0 SWAP1 PUSH2 0x1628 JUMP JUMPDEST SWAP1 SLOAD SWAP1 PUSH1 0x3 SHL SHR SWAP2 PUSH1 0x0 SWAP3 DUP3 DUP5 MSTORE PUSH1 0xE PUSH1 0x20 MSTORE PUSH1 0x40 DUP5 KECCAK256 SLOAD SWAP1 PUSH2 0x18F6 DUP2 PUSH2 0x987 DUP5 PUSH2 0x1628 JUMP JUMPDEST DUP5 MSTORE PUSH1 0xE PUSH1 0x20 MSTORE PUSH1 0x40 DUP5 KECCAK256 SSTORE PUSH1 0xD SLOAD DUP1 ISZERO PUSH2 0x194D JUMPI DUP2 ADD SWAP1 PUSH2 0x1917 DUP3 PUSH2 0x1628 JUMP JUMPDEST SWAP1 SWAP2 DUP3 SLOAD SWAP2 PUSH1 0x3 SHL SHL NOT AND SWAP1 SSTORE PUSH1 0xD SSTORE DUP2 MSTORE PUSH1 0xE PUSH1 0x20 MSTORE PUSH1 0x4 PUSH1 0x40 DUP3 KECCAK256 DUP3 DUP2 SSTORE DUP3 PUSH1 0x1 DUP3 ADD SSTORE DUP3 PUSH1 0x2 DUP3 ADD SSTORE DUP3 PUSH1 0x3 DUP3 ADD SSTORE ADD SSTORE JUMP JUMPDEST PUSH4 0x4E487B71 PUSH1 0xE0 SHL DUP5 MSTORE PUSH1 0x31 PUSH1 0x4 MSTORE PUSH1 0x24 DUP5 REVERT JUMPDEST PUSH1 0x1 PUSH1 0x1 PUSH1 0x60 SHL SUB PUSH1 0x1 DUP1 PUSH1 0xA0 SHL SUB PUSH1 0x6 SLOAD AND SWAP2 AND SWAP2 PUSH2 0x1981 DUP4 TIMESTAMP PUSH2 0x18A8 JUMP JUMPDEST TIMESTAMP DUP2 GT PUSH2 0xC08 JUMPI PUSH1 0x20 SWAP1 PUSH1 0x44 PUSH1 0x40 MLOAD DUP1 SWAP6 DUP2 SWAP4 PUSH4 0x487A2395 PUSH1 0xE0 SHL DUP4 MSTORE DUP7 PUSH1 0x4 DUP5 ADD MSTORE PUSH1 0x24 DUP4 ADD MSTORE GAS STATICCALL SWAP2 DUP3 ISZERO PUSH2 0x1A21 JUMPI PUSH1 0x0 SWAP3 PUSH2 0x19EE JUMPI JUMPDEST POP PUSH2 0x19C6 DUP3 SWAP4 TIMESTAMP PUSH2 0x18A8 JUMP JUMPDEST TIMESTAMP DUP2 GT PUSH2 0xC08 JUMPI PUSH1 0x8 SLOAD LT SWAP2 DUP3 ISZERO PUSH2 0x19DD JUMPI POP POP SWAP2 JUMP JUMPDEST PUSH2 0x19E7 SWAP3 POP PUSH2 0x1821 JUMP JUMPDEST PUSH1 0x9 SLOAD GT SWAP2 JUMP JUMPDEST SWAP1 SWAP2 PUSH1 0x20 DUP3 RETURNDATASIZE DUP3 GT PUSH2 0x1A19 JUMPI JUMPDEST DUP2 PUSH2 0x1A08 PUSH1 0x20 SWAP4 DUP4 PUSH2 0x1723 JUMP JUMPDEST DUP2 ADD SUB SLT PUSH2 0x2C8 JUMPI POP MLOAD SWAP1 CODESIZE PUSH2 0x19BA JUMP JUMPDEST RETURNDATASIZE SWAP2 POP PUSH2 0x19FB JUMP JUMPDEST PUSH1 0x40 MLOAD RETURNDATASIZE PUSH1 0x0 DUP3 RETURNDATACOPY RETURNDATASIZE SWAP1 REVERT INVALID LOG2 PUSH5 0x6970667358 0x22 SLT KECCAK256 0xD0 0xEF STOP SSTORE COINBASE PUSH25 0xD2E87936FCE248CAACE9B4B6327B46B1A069BEEA20A2B6CFDC 0xF9 PUSH5 0x736F6C6343 STOP ADDMOD SGT STOP CALLER "},"methodIdentifiers":{"active(uint256)":"8033d581","buf()":"15232515","cage()":"69245009","calc()":"96f1b6be","cash(bytes32,uint256)":"fe8507c6","chip()":"b61500e4","chost()":"ba2cdc75","count()":"06661abd","cusp()":"49ed5931","deny(address)":"9c52a7f1","dog()":"c3b3ad7f","file(bytes32,address)":"d4e8be83","file(bytes32,uint256)":"29ae8114","getStatus(uint256)":"5c622a0e","ilk()":"c5ce281e","kick(uint256,uint256,address,address)":"898eb267","kicks()":"cfdd3302","list()":"0f560cd7","live()":"957aa58c","redo(uint256,address)":"d843416d","rely(address)":"65fae35e","sales(uint256)":"b5f522f7","spotter()":"2e77468d","tail()":"13d8c840","take(uint256,uint256,uint256,address,bytes)":"81a794cb","tip()":"2755cd2d","vat()":"36569e77","vow()":"626cb3c5","wards(address)":"bf353dbb"}}}}}