{"contracts/Pot.sol":{"Pot":{"abi":[{"inputs":[{"internalType":"address","name":"vat_","type":"address"}],"stateMutability":"nonpayable","type":"constructor"},{"anonymous":false,"inputs":[],"name":"Cage","type":"event"},{"anonymous":false,"inputs":[{"indexed":false,"internalType":"uint256","name":"tmp","type":"uint256"}],"name":"Drip","type":"event"},{"anonymous":false,"inputs":[{"indexed":true,"internalType":"address","name":"usr","type":"address"},{"indexed":false,"internalType":"uint256","name":"wad","type":"uint256"}],"name":"Exit","type":"event"},{"anonymous":false,"inputs":[{"indexed":true,"internalType":"bytes32","name":"what","type":"bytes32"},{"indexed":false,"internalType":"uint256","name":"data","type":"uint256"}],"name":"File","type":"event"},{"anonymous":false,"inputs":[{"indexed":true,"internalType":"bytes32","name":"what","type":"bytes32"},{"indexed":false,"internalType":"address","name":"addr","type":"address"}],"name":"File","type":"event"},{"anonymous":false,"inputs":[{"indexed":true,"internalType":"address","name":"usr","type":"address"},{"indexed":false,"internalType":"uint256","name":"wad","type":"uint256"}],"name":"Join","type":"event"},{"inputs":[],"name":"Pie","outputs":[{"internalType":"uint256","name":"","type":"uint256"}],"stateMutability":"view","type":"function"},{"inputs":[],"name":"cage","outputs":[],"stateMutability":"nonpayable","type":"function"},{"inputs":[],"name":"chi","outputs":[{"internalType":"uint256","name":"","type":"uint256"}],"stateMutability":"view","type":"function"},{"inputs":[{"internalType":"address","name":"guy","type":"address"}],"name":"deny","outputs":[],"stateMutability":"nonpayable","type":"function"},{"inputs":[],"name":"drip","outputs":[{"internalType":"uint256","name":"tmp","type":"uint256"}],"stateMutability":"nonpayable","type":"function"},{"inputs":[],"name":"dsr","outputs":[{"internalType":"uint256","name":"","type":"uint256"}],"stateMutability":"view","type":"function"},{"inputs":[{"internalType":"uint256","name":"wad","type":"uint256"}],"name":"exit","outputs":[],"stateMutability":"nonpayable","type":"function"},{"inputs":[{"internalType":"bytes32","name":"what","type":"bytes32"},{"internalType":"uint256","name":"data","type":"uint256"}],"name":"file","outputs":[],"stateMutability":"nonpayable","type":"function"},{"inputs":[{"internalType":"bytes32","name":"what","type":"bytes32"},{"internalType":"address","name":"addr","type":"address"}],"name":"file","outputs":[],"stateMutability":"nonpayable","type":"function"},{"inputs":[{"internalType":"uint256","name":"wad","type":"uint256"}],"name":"join","outputs":[],"stateMutability":"nonpayable","type":"function"},{"inputs":[],"name":"live","outputs":[{"internalType":"uint256","name":"","type":"uint256"}],"stateMutability":"view","type":"function"},{"inputs":[{"internalType":"address","name":"","type":"address"}],"name":"pie","outputs":[{"internalType":"uint256","name":"","type":"uint256"}],"stateMutability":"view","type":"function"},{"inputs":[{"internalType":"address","name":"guy","type":"address"}],"name":"rely","outputs":[],"stateMutability":"nonpayable","type":"function"},{"inputs":[],"name":"rho","outputs":[{"internalType":"uint256","name":"","type":"uint256"}],"stateMutability":"view","type":"function"},{"inputs":[],"name":"vat","outputs":[{"internalType":"contract VatLike","name":"","type":"address"}],"stateMutability":"view","type":"function"},{"inputs":[],"name":"vow","outputs":[{"internalType":"address","name":"","type":"address"}],"stateMutability":"view","type":"function"},{"inputs":[{"internalType":"address","name":"","type":"address"}],"name":"wards","outputs":[{"internalType":"uint256","name":"","type":"uint256"}],"stateMutability":"view","type":"function"}],"evm":{"bytecode":{"linkReferences":{},"object":"60803461009e57601f610cde38819003918201601f19168301916001600160401b038311848410176100a35780849260209460405283398101031261009e57516001600160a01b0381169081900361009e57336000526000602052600160406000205560018060a01b031960055416176005556b033b2e3c9fd0803ce800000080600355600455426007556001600855604051610c2490816100ba8239f35b600080fd5b634e487b7160e01b600052604160045260246000fdfe6080604052600436101561001257600080fd5b60003560e01c8063049878f3146101275780630bebac861461012257806320aba08b1461011d57806329ae8114146101185780632c69ed581461011357806336569e771461010e578063487bf08214610109578063626cb3c51461010457806365fae35e146100ff57806369245009146100fa5780637f8661a1146100f5578063957aa58c146100f05780639c52a7f1146100eb5780639f678cca146100e6578063bf353dbb146100e1578063c92aecc4146100dc5763d4e8be83146100d757600080fd5b6107d2565b6107b4565b61077a565b610644565b6105f7565b6105d9565b6104df565b610478565b61042a565b610401565b6103e3565b6103ba565b61039c565b6102da565b6102bc565b610277565b34610246576020366003190112610246576004356101486007544214610abd565b33600090815260016020526040902061016390829054610aff565b3360009081526001602052604090205561018761018282600254610aff565b600255565b6005546101a4906001600160a01b03165b6001600160a01b031690565b6101b082600454610a86565b90803b156102465760405163bb35783b60e01b815233600482015230602482015260448101929092526000908290606490829084905af1801561024157610228575b5060405190815233907fb4e09949657f21548b58afe74e7b86cd2295da5ff1598ae1e5faecb1cf19ca959080602081015b0390a2005b8061023561023b92610951565b806102b1565b386101f2565b61097b565b600080fd5b600435906001600160a01b038216820361024657565b602435906001600160a01b038216820361024657565b34610246576020366003190112610246576001600160a01b0361029861024b565b1660005260016020526020604060002054604051908152f35b600091031261024657565b34610246576000366003190112610246576020600754604051908152f35b346102465760403660031901126102465760043560243533600052600060205261030b60016040600020541461086f565b6103196001600854146108b0565b623239b960e91b8203610357576020817fe986e40cc8c151830d4f61050f4fb2e4add8567caad2d5f5496f9158e91fe4c792600355604051908152a2005b60405162461bcd60e51b815260206004820152601b60248201527f506f742f66696c652d756e7265636f676e697a65642d706172616d00000000006044820152606490fd5b34610246576000366003190112610246576020600254604051908152f35b34610246576000366003190112610246576005546040516001600160a01b039091168152602090f35b34610246576000366003190112610246576020600354604051908152f35b34610246576000366003190112610246576006546040516001600160a01b039091168152602090f35b346102465760203660031901126102465761044361024b565b6000903382528160205261045d600160408420541461086f565b6001600160a01b031681526020819052604081206001905580f35b34610246576000806003193601126104dc57338152806020526104a1600160408320541461086f565b806008556b033b2e3c9fd0803ce80000006003557f2308ed18a14e800c39b86eb6ea43270105955ca385b603b64eca89f98ae8fbda8180a180f35b80fd5b34610246576020366003190112610246573360009081526001602052604090206004359061050f90829054610a46565b3360009081526001602052604090205561052e61018282600254610a46565b600554610543906001600160a01b0316610198565b61054f82600454610a86565b90803b156102465760405163bb35783b60e01b815230600482015233602482015260448101929092526000908290606490829084905af18015610241576105c6575b5060405190815233907f22d324652c93739755cf4581508b60875ebdd78c20c0cff5cf8e23452b299631908060208101610223565b806102356105d392610951565b38610591565b34610246576000366003190112610246576020600854604051908152f35b346102465760203660031901126102465761061061024b565b6000903382528160205261062a600160408420541461086f565b6001600160a01b0316815260208190526040812081905580f35b34610246576000806003193601126104dc5761067b600754610668814210156108eb565b610675600354914261093f565b90610987565b61069261068b6004548093610b13565b9182610a46565b9161069c82600455565b6106a542600755565b6005546106ba906001600160a01b0316610198565b6006546106d3906001600160a01b031694600254610a86565b90803b156107765760405163f24e23eb60e01b81526001600160a01b0395909516600486015230602486015260448501919091528390606490829084905af19182156102415761075f92610763575b506040518181527f8d4562abe433425096ff8e6c5eccbdd894a1d21198d2ef95803c85f31d2ffb1390602090a16040519081529081906020820190565b0390f35b8061023561077092610951565b38610722565b8280fd5b34610246576020366003190112610246576001600160a01b0361079b61024b565b1660005260006020526020604060002054604051908152f35b34610246576000366003190112610246576020600454604051908152f35b34610246576040366003190112610246576004356107ee610261565b33600052600060205261080860016040600020541461086f565b6108166001600854146108b0565b62766f7760e81b820361035757600680546001600160a01b0319166001600160a01b0390921691821790556040519081527f8fef588b5fc1afbf5b2f06c1a435d513f208da2e6704c3d8f0e0ec91167066ba90602090a2005b1561087657565b60405162461bcd60e51b8152602060048201526012602482015271141bdd0bdb9bdd0b585d5d1a1bdc9a5e995960721b6044820152606490fd5b156108b757565b60405162461bcd60e51b815260206004820152600c60248201526b506f742f6e6f742d6c69766560a01b6044820152606490fd5b156108f257565b60405162461bcd60e51b815260206004820152600f60248201526e506f742f696e76616c69642d6e6f7760881b6044820152606490fd5b634e487b7160e01b600052601160045260246000fd5b9190820391821161094c57565b610929565b67ffffffffffffffff811161096557604052565b634e487b7160e01b600052604160045260246000fd5b6040513d6000823e3d90fd5b9091908015610a2a57600183811615610a175781935b811c805b6109aa57505050565b8280029280840403610246576b019d971e4fe8401e7400000092838101908110610246576b033b2e3c9fd0803ce8000000809104938383166109f1575b5050811c806109a1565b8487929397029185830414158515151661024657810190811061024657049338806109e7565b6b033b2e3c9fd0803ce80000009361099d565b509015610a3657600090565b6b033b2e3c9fd0803ce800000090565b90810390811161094c5790565b8181029291811591840414171561094c57565b8115610a70570490565b634e487b7160e01b600052601260045260246000fd5b600092918015918215610a9d575b50501561024657565b91509250610ab5610aae8483610a53565b9384610a66565b143880610a94565b15610ac457565b60405162461bcd60e51b8152602060048201526013602482015272141bdd0bdc9a1bcb5b9bdd0b5d5c19185d1959606a1b6044820152606490fd5b919082019182811161094c57821061024657565b6000918015918215610bce575b505015610b92576b019d971e4fe8401e7400000081019081811161094c578110610b56576b033b2e3c9fd0803ce8000000900490565b60405162461bcd60e51b815260206004820152601460248201527364732d6d6174682d6164642d6f766572666c6f7760601b6044820152606490fd5b60405162461bcd60e51b815260206004820152601460248201527364732d6d6174682d6d756c2d6f766572666c6f7760601b6044820152606490fd5b91509150610be6610bdf8383610a53565b9283610a66565b143880610b2056fea26469706673582212203eeddbaeb8cfebce506bf2224a7b75ffccc311ea1f5fcd6d01d45a25aac4b2ee64736f6c63430008130033","opcodes":"PUSH1 0x80 CALLVALUE PUSH2 0x9E JUMPI PUSH1 0x1F PUSH2 0xCDE CODESIZE DUP2 SWAP1 SUB SWAP2 DUP3 ADD PUSH1 0x1F NOT AND DUP4 ADD SWAP2 PUSH1 0x1 PUSH1 0x1 PUSH1 0x40 SHL SUB DUP4 GT DUP5 DUP5 LT OR PUSH2 0xA3 JUMPI DUP1 DUP5 SWAP3 PUSH1 0x20 SWAP5 PUSH1 0x40 MSTORE DUP4 CODECOPY DUP2 ADD SUB SLT PUSH2 0x9E JUMPI MLOAD PUSH1 0x1 PUSH1 0x1 PUSH1 0xA0 SHL SUB DUP2 AND SWAP1 DUP2 SWAP1 SUB PUSH2 0x9E JUMPI CALLER PUSH1 0x0 MSTORE PUSH1 0x0 PUSH1 0x20 MSTORE PUSH1 0x1 PUSH1 0x40 PUSH1 0x0 KECCAK256 SSTORE PUSH1 0x1 DUP1 PUSH1 0xA0 SHL SUB NOT PUSH1 0x5 SLOAD AND OR PUSH1 0x5 SSTORE PUSH12 0x33B2E3C9FD0803CE8000000 DUP1 PUSH1 0x3 SSTORE PUSH1 0x4 SSTORE TIMESTAMP PUSH1 0x7 SSTORE PUSH1 0x1 PUSH1 0x8 SSTORE PUSH1 0x40 MLOAD PUSH2 0xC24 SWAP1 DUP2 PUSH2 0xBA DUP3 CODECOPY RETURN JUMPDEST PUSH1 0x0 DUP1 REVERT JUMPDEST PUSH4 0x4E487B71 PUSH1 0xE0 SHL PUSH1 0x0 MSTORE PUSH1 0x41 PUSH1 0x4 MSTORE PUSH1 0x24 PUSH1 0x0 REVERT INVALID PUSH1 0x80 PUSH1 0x40 MSTORE PUSH1 0x4 CALLDATASIZE LT ISZERO PUSH2 0x12 JUMPI PUSH1 0x0 DUP1 REVERT JUMPDEST PUSH1 0x0 CALLDATALOAD PUSH1 0xE0 SHR DUP1 PUSH4 0x49878F3 EQ PUSH2 0x127 JUMPI DUP1 PUSH4 0xBEBAC86 EQ PUSH2 0x122 JUMPI DUP1 PUSH4 0x20ABA08B EQ PUSH2 0x11D JUMPI DUP1 PUSH4 0x29AE8114 EQ PUSH2 0x118 JUMPI DUP1 PUSH4 0x2C69ED58 EQ PUSH2 0x113 JUMPI DUP1 PUSH4 0x36569E77 EQ PUSH2 0x10E JUMPI DUP1 PUSH4 0x487BF082 EQ PUSH2 0x109 JUMPI DUP1 PUSH4 0x626CB3C5 EQ PUSH2 0x104 JUMPI DUP1 PUSH4 0x65FAE35E EQ PUSH2 0xFF JUMPI DUP1 PUSH4 0x69245009 EQ PUSH2 0xFA JUMPI DUP1 PUSH4 0x7F8661A1 EQ PUSH2 0xF5 JUMPI DUP1 PUSH4 0x957AA58C EQ PUSH2 0xF0 JUMPI DUP1 PUSH4 0x9C52A7F1 EQ PUSH2 0xEB JUMPI DUP1 PUSH4 0x9F678CCA EQ PUSH2 0xE6 JUMPI DUP1 PUSH4 0xBF353DBB EQ PUSH2 0xE1 JUMPI DUP1 PUSH4 0xC92AECC4 EQ PUSH2 0xDC JUMPI PUSH4 0xD4E8BE83 EQ PUSH2 0xD7 JUMPI PUSH1 0x0 DUP1 REVERT JUMPDEST PUSH2 0x7D2 JUMP JUMPDEST PUSH2 0x7B4 JUMP JUMPDEST PUSH2 0x77A JUMP JUMPDEST PUSH2 0x644 JUMP JUMPDEST PUSH2 0x5F7 JUMP JUMPDEST PUSH2 0x5D9 JUMP JUMPDEST PUSH2 0x4DF JUMP JUMPDEST PUSH2 0x478 JUMP JUMPDEST PUSH2 0x42A JUMP JUMPDEST PUSH2 0x401 JUMP JUMPDEST PUSH2 0x3E3 JUMP JUMPDEST PUSH2 0x3BA JUMP JUMPDEST PUSH2 0x39C JUMP JUMPDEST PUSH2 0x2DA JUMP JUMPDEST PUSH2 0x2BC JUMP JUMPDEST PUSH2 0x277 JUMP JUMPDEST CALLVALUE PUSH2 0x246 JUMPI PUSH1 0x20 CALLDATASIZE PUSH1 0x3 NOT ADD SLT PUSH2 0x246 JUMPI PUSH1 0x4 CALLDATALOAD PUSH2 0x148 PUSH1 0x7 SLOAD TIMESTAMP EQ PUSH2 0xABD JUMP JUMPDEST CALLER PUSH1 0x0 SWAP1 DUP2 MSTORE PUSH1 0x1 PUSH1 0x20 MSTORE PUSH1 0x40 SWAP1 KECCAK256 PUSH2 0x163 SWAP1 DUP3 SWAP1 SLOAD PUSH2 0xAFF JUMP JUMPDEST CALLER PUSH1 0x0 SWAP1 DUP2 MSTORE PUSH1 0x1 PUSH1 0x20 MSTORE PUSH1 0x40 SWAP1 KECCAK256 SSTORE PUSH2 0x187 PUSH2 0x182 DUP3 PUSH1 0x2 SLOAD PUSH2 0xAFF JUMP JUMPDEST PUSH1 0x2 SSTORE JUMP JUMPDEST PUSH1 0x5 SLOAD PUSH2 0x1A4 SWAP1 PUSH1 0x1 PUSH1 0x1 PUSH1 0xA0 SHL SUB AND JUMPDEST PUSH1 0x1 PUSH1 0x1 PUSH1 0xA0 SHL SUB AND SWAP1 JUMP JUMPDEST PUSH2 0x1B0 DUP3 PUSH1 0x4 SLOAD PUSH2 0xA86 JUMP JUMPDEST SWAP1 DUP1 EXTCODESIZE ISZERO PUSH2 0x246 JUMPI PUSH1 0x40 MLOAD PUSH4 0xBB35783B PUSH1 0xE0 SHL DUP2 MSTORE CALLER PUSH1 0x4 DUP3 ADD MSTORE ADDRESS PUSH1 0x24 DUP3 ADD MSTORE PUSH1 0x44 DUP2 ADD SWAP3 SWAP1 SWAP3 MSTORE PUSH1 0x0 SWAP1 DUP3 SWAP1 PUSH1 0x64 SWAP1 DUP3 SWAP1 DUP5 SWAP1 GAS CALL DUP1 ISZERO PUSH2 0x241 JUMPI PUSH2 0x228 JUMPI JUMPDEST POP PUSH1 0x40 MLOAD SWAP1 DUP2 MSTORE CALLER SWAP1 PUSH32 0xB4E09949657F21548B58AFE74E7B86CD2295DA5FF1598AE1E5FAECB1CF19CA95 SWAP1 DUP1 PUSH1 0x20 DUP2 ADD JUMPDEST SUB SWAP1 LOG2 STOP JUMPDEST DUP1 PUSH2 0x235 PUSH2 0x23B SWAP3 PUSH2 0x951 JUMP JUMPDEST DUP1 PUSH2 0x2B1 JUMP JUMPDEST CODESIZE PUSH2 0x1F2 JUMP JUMPDEST PUSH2 0x97B JUMP JUMPDEST PUSH1 0x0 DUP1 REVERT JUMPDEST PUSH1 0x4 CALLDATALOAD SWAP1 PUSH1 0x1 PUSH1 0x1 PUSH1 0xA0 SHL SUB DUP3 AND DUP3 SUB PUSH2 0x246 JUMPI JUMP JUMPDEST PUSH1 0x24 CALLDATALOAD SWAP1 PUSH1 0x1 PUSH1 0x1 PUSH1 0xA0 SHL SUB DUP3 AND DUP3 SUB PUSH2 0x246 JUMPI JUMP JUMPDEST CALLVALUE PUSH2 0x246 JUMPI PUSH1 0x20 CALLDATASIZE PUSH1 0x3 NOT ADD SLT PUSH2 0x246 JUMPI PUSH1 0x1 PUSH1 0x1 PUSH1 0xA0 SHL SUB PUSH2 0x298 PUSH2 0x24B JUMP JUMPDEST AND PUSH1 0x0 MSTORE PUSH1 0x1 PUSH1 0x20 MSTORE PUSH1 0x20 PUSH1 0x40 PUSH1 0x0 KECCAK256 SLOAD PUSH1 0x40 MLOAD SWAP1 DUP2 MSTORE RETURN JUMPDEST PUSH1 0x0 SWAP2 SUB SLT PUSH2 0x246 JUMPI JUMP JUMPDEST CALLVALUE PUSH2 0x246 JUMPI PUSH1 0x0 CALLDATASIZE PUSH1 0x3 NOT ADD SLT PUSH2 0x246 JUMPI PUSH1 0x20 PUSH1 0x7 SLOAD PUSH1 0x40 MLOAD SWAP1 DUP2 MSTORE RETURN JUMPDEST CALLVALUE PUSH2 0x246 JUMPI PUSH1 0x40 CALLDATASIZE PUSH1 0x3 NOT ADD SLT PUSH2 0x246 JUMPI PUSH1 0x4 CALLDATALOAD PUSH1 0x24 CALLDATALOAD CALLER PUSH1 0x0 MSTORE PUSH1 0x0 PUSH1 0x20 MSTORE PUSH2 0x30B PUSH1 0x1 PUSH1 0x40 PUSH1 0x0 KECCAK256 SLOAD EQ PUSH2 0x86F JUMP JUMPDEST PUSH2 0x319 PUSH1 0x1 PUSH1 0x8 SLOAD EQ PUSH2 0x8B0 JUMP JUMPDEST PUSH3 0x3239B9 PUSH1 0xE9 SHL DUP3 SUB PUSH2 0x357 JUMPI PUSH1 0x20 DUP2 PUSH32 0xE986E40CC8C151830D4F61050F4FB2E4ADD8567CAAD2D5F5496F9158E91FE4C7 SWAP3 PUSH1 0x3 SSTORE PUSH1 0x40 MLOAD SWAP1 DUP2 MSTORE LOG2 STOP JUMPDEST PUSH1 0x40 MLOAD PUSH3 0x461BCD PUSH1 0xE5 SHL DUP2 MSTORE PUSH1 0x20 PUSH1 0x4 DUP3 ADD MSTORE PUSH1 0x1B PUSH1 0x24 DUP3 ADD MSTORE PUSH32 0x506F742F66696C652D756E7265636F676E697A65642D706172616D0000000000 PUSH1 0x44 DUP3 ADD MSTORE PUSH1 0x64 SWAP1 REVERT JUMPDEST CALLVALUE PUSH2 0x246 JUMPI PUSH1 0x0 CALLDATASIZE PUSH1 0x3 NOT ADD SLT PUSH2 0x246 JUMPI PUSH1 0x20 PUSH1 0x2 SLOAD PUSH1 0x40 MLOAD SWAP1 DUP2 MSTORE RETURN JUMPDEST CALLVALUE PUSH2 0x246 JUMPI PUSH1 0x0 CALLDATASIZE PUSH1 0x3 NOT ADD SLT PUSH2 0x246 JUMPI PUSH1 0x5 SLOAD PUSH1 0x40 MLOAD PUSH1 0x1 PUSH1 0x1 PUSH1 0xA0 SHL SUB SWAP1 SWAP2 AND DUP2 MSTORE PUSH1 0x20 SWAP1 RETURN JUMPDEST CALLVALUE PUSH2 0x246 JUMPI PUSH1 0x0 CALLDATASIZE PUSH1 0x3 NOT ADD SLT PUSH2 0x246 JUMPI PUSH1 0x20 PUSH1 0x3 SLOAD PUSH1 0x40 MLOAD SWAP1 DUP2 MSTORE RETURN JUMPDEST CALLVALUE PUSH2 0x246 JUMPI PUSH1 0x0 CALLDATASIZE PUSH1 0x3 NOT ADD SLT PUSH2 0x246 JUMPI PUSH1 0x6 SLOAD PUSH1 0x40 MLOAD PUSH1 0x1 PUSH1 0x1 PUSH1 0xA0 SHL SUB SWAP1 SWAP2 AND DUP2 MSTORE PUSH1 0x20 SWAP1 RETURN JUMPDEST CALLVALUE PUSH2 0x246 JUMPI PUSH1 0x20 CALLDATASIZE PUSH1 0x3 NOT ADD SLT PUSH2 0x246 JUMPI PUSH2 0x443 PUSH2 0x24B JUMP JUMPDEST PUSH1 0x0 SWAP1 CALLER DUP3 MSTORE DUP2 PUSH1 0x20 MSTORE PUSH2 0x45D PUSH1 0x1 PUSH1 0x40 DUP5 KECCAK256 SLOAD EQ PUSH2 0x86F JUMP JUMPDEST PUSH1 0x1 PUSH1 0x1 PUSH1 0xA0 SHL SUB AND DUP2 MSTORE PUSH1 0x20 DUP2 SWAP1 MSTORE PUSH1 0x40 DUP2 KECCAK256 PUSH1 0x1 SWAP1 SSTORE DUP1 RETURN JUMPDEST CALLVALUE PUSH2 0x246 JUMPI PUSH1 0x0 DUP1 PUSH1 0x3 NOT CALLDATASIZE ADD SLT PUSH2 0x4DC JUMPI CALLER DUP2 MSTORE DUP1 PUSH1 0x20 MSTORE PUSH2 0x4A1 PUSH1 0x1 PUSH1 0x40 DUP4 KECCAK256 SLOAD EQ PUSH2 0x86F JUMP JUMPDEST DUP1 PUSH1 0x8 SSTORE PUSH12 0x33B2E3C9FD0803CE8000000 PUSH1 0x3 SSTORE PUSH32 0x2308ED18A14E800C39B86EB6EA43270105955CA385B603B64ECA89F98AE8FBDA DUP2 DUP1 LOG1 DUP1 RETURN JUMPDEST DUP1 REVERT JUMPDEST CALLVALUE PUSH2 0x246 JUMPI PUSH1 0x20 CALLDATASIZE PUSH1 0x3 NOT ADD SLT PUSH2 0x246 JUMPI CALLER PUSH1 0x0 SWAP1 DUP2 MSTORE PUSH1 0x1 PUSH1 0x20 MSTORE PUSH1 0x40 SWAP1 KECCAK256 PUSH1 0x4 CALLDATALOAD SWAP1 PUSH2 0x50F SWAP1 DUP3 SWAP1 SLOAD PUSH2 0xA46 JUMP JUMPDEST CALLER PUSH1 0x0 SWAP1 DUP2 MSTORE PUSH1 0x1 PUSH1 0x20 MSTORE PUSH1 0x40 SWAP1 KECCAK256 SSTORE PUSH2 0x52E PUSH2 0x182 DUP3 PUSH1 0x2 SLOAD PUSH2 0xA46 JUMP JUMPDEST PUSH1 0x5 SLOAD PUSH2 0x543 SWAP1 PUSH1 0x1 PUSH1 0x1 PUSH1 0xA0 SHL SUB AND PUSH2 0x198 JUMP JUMPDEST PUSH2 0x54F DUP3 PUSH1 0x4 SLOAD PUSH2 0xA86 JUMP JUMPDEST SWAP1 DUP1 EXTCODESIZE ISZERO PUSH2 0x246 JUMPI PUSH1 0x40 MLOAD PUSH4 0xBB35783B PUSH1 0xE0 SHL DUP2 MSTORE ADDRESS PUSH1 0x4 DUP3 ADD MSTORE CALLER PUSH1 0x24 DUP3 ADD MSTORE PUSH1 0x44 DUP2 ADD SWAP3 SWAP1 SWAP3 MSTORE PUSH1 0x0 SWAP1 DUP3 SWAP1 PUSH1 0x64 SWAP1 DUP3 SWAP1 DUP5 SWAP1 GAS CALL DUP1 ISZERO PUSH2 0x241 JUMPI PUSH2 0x5C6 JUMPI JUMPDEST POP PUSH1 0x40 MLOAD SWAP1 DUP2 MSTORE CALLER SWAP1 PUSH32 0x22D324652C93739755CF4581508B60875EBDD78C20C0CFF5CF8E23452B299631 SWAP1 DUP1 PUSH1 0x20 DUP2 ADD PUSH2 0x223 JUMP JUMPDEST DUP1 PUSH2 0x235 PUSH2 0x5D3 SWAP3 PUSH2 0x951 JUMP JUMPDEST CODESIZE PUSH2 0x591 JUMP JUMPDEST CALLVALUE PUSH2 0x246 JUMPI PUSH1 0x0 CALLDATASIZE PUSH1 0x3 NOT ADD SLT PUSH2 0x246 JUMPI PUSH1 0x20 PUSH1 0x8 SLOAD PUSH1 0x40 MLOAD SWAP1 DUP2 MSTORE RETURN JUMPDEST CALLVALUE PUSH2 0x246 JUMPI PUSH1 0x20 CALLDATASIZE PUSH1 0x3 NOT ADD SLT PUSH2 0x246 JUMPI PUSH2 0x610 PUSH2 0x24B JUMP JUMPDEST PUSH1 0x0 SWAP1 CALLER DUP3 MSTORE DUP2 PUSH1 0x20 MSTORE PUSH2 0x62A PUSH1 0x1 PUSH1 0x40 DUP5 KECCAK256 SLOAD EQ PUSH2 0x86F JUMP JUMPDEST PUSH1 0x1 PUSH1 0x1 PUSH1 0xA0 SHL SUB AND DUP2 MSTORE PUSH1 0x20 DUP2 SWAP1 MSTORE PUSH1 0x40 DUP2 KECCAK256 DUP2 SWAP1 SSTORE DUP1 RETURN JUMPDEST CALLVALUE PUSH2 0x246 JUMPI PUSH1 0x0 DUP1 PUSH1 0x3 NOT CALLDATASIZE ADD SLT PUSH2 0x4DC JUMPI PUSH2 0x67B PUSH1 0x7 SLOAD PUSH2 0x668 DUP2 TIMESTAMP LT ISZERO PUSH2 0x8EB JUMP JUMPDEST PUSH2 0x675 PUSH1 0x3 SLOAD SWAP2 TIMESTAMP PUSH2 0x93F JUMP JUMPDEST SWAP1 PUSH2 0x987 JUMP JUMPDEST PUSH2 0x692 PUSH2 0x68B PUSH1 0x4 SLOAD DUP1 SWAP4 PUSH2 0xB13 JUMP JUMPDEST SWAP2 DUP3 PUSH2 0xA46 JUMP JUMPDEST SWAP2 PUSH2 0x69C DUP3 PUSH1 0x4 SSTORE JUMP JUMPDEST PUSH2 0x6A5 TIMESTAMP PUSH1 0x7 SSTORE JUMP JUMPDEST PUSH1 0x5 SLOAD PUSH2 0x6BA SWAP1 PUSH1 0x1 PUSH1 0x1 PUSH1 0xA0 SHL SUB AND PUSH2 0x198 JUMP JUMPDEST PUSH1 0x6 SLOAD PUSH2 0x6D3 SWAP1 PUSH1 0x1 PUSH1 0x1 PUSH1 0xA0 SHL SUB AND SWAP5 PUSH1 0x2 SLOAD PUSH2 0xA86 JUMP JUMPDEST SWAP1 DUP1 EXTCODESIZE ISZERO PUSH2 0x776 JUMPI PUSH1 0x40 MLOAD PUSH4 0xF24E23EB PUSH1 0xE0 SHL DUP2 MSTORE PUSH1 0x1 PUSH1 0x1 PUSH1 0xA0 SHL SUB SWAP6 SWAP1 SWAP6 AND PUSH1 0x4 DUP7 ADD MSTORE ADDRESS PUSH1 0x24 DUP7 ADD MSTORE PUSH1 0x44 DUP6 ADD SWAP2 SWAP1 SWAP2 MSTORE DUP4 SWAP1 PUSH1 0x64 SWAP1 DUP3 SWAP1 DUP5 SWAP1 GAS CALL SWAP2 DUP3 ISZERO PUSH2 0x241 JUMPI PUSH2 0x75F SWAP3 PUSH2 0x763 JUMPI JUMPDEST POP PUSH1 0x40 MLOAD DUP2 DUP2 MSTORE PUSH32 0x8D4562ABE433425096FF8E6C5ECCBDD894A1D21198D2EF95803C85F31D2FFB13 SWAP1 PUSH1 0x20 SWAP1 LOG1 PUSH1 0x40 MLOAD SWAP1 DUP2 MSTORE SWAP1 DUP2 SWAP1 PUSH1 0x20 DUP3 ADD SWAP1 JUMP JUMPDEST SUB SWAP1 RETURN JUMPDEST DUP1 PUSH2 0x235 PUSH2 0x770 SWAP3 PUSH2 0x951 JUMP JUMPDEST CODESIZE PUSH2 0x722 JUMP JUMPDEST DUP3 DUP1 REVERT JUMPDEST CALLVALUE PUSH2 0x246 JUMPI PUSH1 0x20 CALLDATASIZE PUSH1 0x3 NOT ADD SLT PUSH2 0x246 JUMPI PUSH1 0x1 PUSH1 0x1 PUSH1 0xA0 SHL SUB PUSH2 0x79B PUSH2 0x24B JUMP JUMPDEST AND PUSH1 0x0 MSTORE PUSH1 0x0 PUSH1 0x20 MSTORE PUSH1 0x20 PUSH1 0x40 PUSH1 0x0 KECCAK256 SLOAD PUSH1 0x40 MLOAD SWAP1 DUP2 MSTORE RETURN JUMPDEST CALLVALUE PUSH2 0x246 JUMPI PUSH1 0x0 CALLDATASIZE PUSH1 0x3 NOT ADD SLT PUSH2 0x246 JUMPI PUSH1 0x20 PUSH1 0x4 SLOAD PUSH1 0x40 MLOAD SWAP1 DUP2 MSTORE RETURN JUMPDEST CALLVALUE PUSH2 0x246 JUMPI PUSH1 0x40 CALLDATASIZE PUSH1 0x3 NOT ADD SLT PUSH2 0x246 JUMPI PUSH1 0x4 CALLDATALOAD PUSH2 0x7EE PUSH2 0x261 JUMP JUMPDEST CALLER PUSH1 0x0 MSTORE PUSH1 0x0 PUSH1 0x20 MSTORE PUSH2 0x808 PUSH1 0x1 PUSH1 0x40 PUSH1 0x0 KECCAK256 SLOAD EQ PUSH2 0x86F JUMP JUMPDEST PUSH2 0x816 PUSH1 0x1 PUSH1 0x8 SLOAD EQ PUSH2 0x8B0 JUMP JUMPDEST PUSH3 0x766F77 PUSH1 0xE8 SHL DUP3 SUB PUSH2 0x357 JUMPI PUSH1 0x6 DUP1 SLOAD PUSH1 0x1 PUSH1 0x1 PUSH1 0xA0 SHL SUB NOT AND PUSH1 0x1 PUSH1 0x1 PUSH1 0xA0 SHL SUB SWAP1 SWAP3 AND SWAP2 DUP3 OR SWAP1 SSTORE PUSH1 0x40 MLOAD SWAP1 DUP2 MSTORE PUSH32 0x8FEF588B5FC1AFBF5B2F06C1A435D513F208DA2E6704C3D8F0E0EC91167066BA SWAP1 PUSH1 0x20 SWAP1 LOG2 STOP JUMPDEST ISZERO PUSH2 0x876 JUMPI JUMP JUMPDEST PUSH1 0x40 MLOAD PUSH3 0x461BCD PUSH1 0xE5 SHL DUP2 MSTORE PUSH1 0x20 PUSH1 0x4 DUP3 ADD MSTORE PUSH1 0x12 PUSH1 0x24 DUP3 ADD MSTORE PUSH18 0x141BDD0BDB9BDD0B585D5D1A1BDC9A5E9959 PUSH1 0x72 SHL PUSH1 0x44 DUP3 ADD MSTORE PUSH1 0x64 SWAP1 REVERT JUMPDEST ISZERO PUSH2 0x8B7 JUMPI JUMP JUMPDEST PUSH1 0x40 MLOAD PUSH3 0x461BCD PUSH1 0xE5 SHL DUP2 MSTORE PUSH1 0x20 PUSH1 0x4 DUP3 ADD MSTORE PUSH1 0xC PUSH1 0x24 DUP3 ADD MSTORE PUSH12 0x506F742F6E6F742D6C697665 PUSH1 0xA0 SHL PUSH1 0x44 DUP3 ADD MSTORE PUSH1 0x64 SWAP1 REVERT JUMPDEST ISZERO PUSH2 0x8F2 JUMPI JUMP JUMPDEST PUSH1 0x40 MLOAD PUSH3 0x461BCD PUSH1 0xE5 SHL DUP2 MSTORE PUSH1 0x20 PUSH1 0x4 DUP3 ADD MSTORE PUSH1 0xF PUSH1 0x24 DUP3 ADD MSTORE PUSH15 0x506F742F696E76616C69642D6E6F77 PUSH1 0x88 SHL PUSH1 0x44 DUP3 ADD MSTORE PUSH1 0x64 SWAP1 REVERT JUMPDEST PUSH4 0x4E487B71 PUSH1 0xE0 SHL PUSH1 0x0 MSTORE PUSH1 0x11 PUSH1 0x4 MSTORE PUSH1 0x24 PUSH1 0x0 REVERT JUMPDEST SWAP2 SWAP1 DUP3 SUB SWAP2 DUP3 GT PUSH2 0x94C JUMPI JUMP JUMPDEST PUSH2 0x929 JUMP JUMPDEST PUSH8 0xFFFFFFFFFFFFFFFF DUP2 GT PUSH2 0x965 JUMPI PUSH1 0x40 MSTORE JUMP JUMPDEST PUSH4 0x4E487B71 PUSH1 0xE0 SHL PUSH1 0x0 MSTORE PUSH1 0x41 PUSH1 0x4 MSTORE PUSH1 0x24 PUSH1 0x0 REVERT JUMPDEST PUSH1 0x40 MLOAD RETURNDATASIZE PUSH1 0x0 DUP3 RETURNDATACOPY RETURNDATASIZE SWAP1 REVERT JUMPDEST SWAP1 SWAP2 SWAP1 DUP1 ISZERO PUSH2 0xA2A JUMPI PUSH1 0x1 DUP4 DUP2 AND ISZERO PUSH2 0xA17 JUMPI DUP2 SWAP4 JUMPDEST DUP2 SHR DUP1 JUMPDEST PUSH2 0x9AA JUMPI POP POP POP JUMP JUMPDEST DUP3 DUP1 MUL SWAP3 DUP1 DUP5 DIV SUB PUSH2 0x246 JUMPI PUSH12 0x19D971E4FE8401E74000000 SWAP3 DUP4 DUP2 ADD SWAP1 DUP2 LT PUSH2 0x246 JUMPI PUSH12 0x33B2E3C9FD0803CE8000000 DUP1 SWAP2 DIV SWAP4 DUP4 DUP4 AND PUSH2 0x9F1 JUMPI JUMPDEST POP POP DUP2 SHR DUP1 PUSH2 0x9A1 JUMP JUMPDEST DUP5 DUP8 SWAP3 SWAP4 SWAP8 MUL SWAP2 DUP6 DUP4 DIV EQ ISZERO DUP6 ISZERO ISZERO AND PUSH2 0x246 JUMPI DUP2 ADD SWAP1 DUP2 LT PUSH2 0x246 JUMPI DIV SWAP4 CODESIZE DUP1 PUSH2 0x9E7 JUMP JUMPDEST PUSH12 0x33B2E3C9FD0803CE8000000 SWAP4 PUSH2 0x99D JUMP JUMPDEST POP SWAP1 ISZERO PUSH2 0xA36 JUMPI PUSH1 0x0 SWAP1 JUMP JUMPDEST PUSH12 0x33B2E3C9FD0803CE8000000 SWAP1 JUMP JUMPDEST SWAP1 DUP2 SUB SWAP1 DUP2 GT PUSH2 0x94C JUMPI SWAP1 JUMP JUMPDEST DUP2 DUP2 MUL SWAP3 SWAP2 DUP2 ISZERO SWAP2 DUP5 DIV EQ OR ISZERO PUSH2 0x94C JUMPI JUMP JUMPDEST DUP2 ISZERO PUSH2 0xA70 JUMPI DIV SWAP1 JUMP JUMPDEST PUSH4 0x4E487B71 PUSH1 0xE0 SHL PUSH1 0x0 MSTORE PUSH1 0x12 PUSH1 0x4 MSTORE PUSH1 0x24 PUSH1 0x0 REVERT JUMPDEST PUSH1 0x0 SWAP3 SWAP2 DUP1 ISZERO SWAP2 DUP3 ISZERO PUSH2 0xA9D JUMPI JUMPDEST POP POP ISZERO PUSH2 0x246 JUMPI JUMP JUMPDEST SWAP2 POP SWAP3 POP PUSH2 0xAB5 PUSH2 0xAAE DUP5 DUP4 PUSH2 0xA53 JUMP JUMPDEST SWAP4 DUP5 PUSH2 0xA66 JUMP JUMPDEST EQ CODESIZE DUP1 PUSH2 0xA94 JUMP JUMPDEST ISZERO PUSH2 0xAC4 JUMPI JUMP JUMPDEST PUSH1 0x40 MLOAD PUSH3 0x461BCD PUSH1 0xE5 SHL DUP2 MSTORE PUSH1 0x20 PUSH1 0x4 DUP3 ADD MSTORE PUSH1 0x13 PUSH1 0x24 DUP3 ADD MSTORE PUSH19 0x141BDD0BDC9A1BCB5B9BDD0B5D5C19185D1959 PUSH1 0x6A SHL PUSH1 0x44 DUP3 ADD MSTORE PUSH1 0x64 SWAP1 REVERT JUMPDEST SWAP2 SWAP1 DUP3 ADD SWAP2 DUP3 DUP2 GT PUSH2 0x94C JUMPI DUP3 LT PUSH2 0x246 JUMPI JUMP JUMPDEST PUSH1 0x0 SWAP2 DUP1 ISZERO SWAP2 DUP3 ISZERO PUSH2 0xBCE JUMPI JUMPDEST POP POP ISZERO PUSH2 0xB92 JUMPI PUSH12 0x19D971E4FE8401E74000000 DUP2 ADD SWAP1 DUP2 DUP2 GT PUSH2 0x94C JUMPI DUP2 LT PUSH2 0xB56 JUMPI PUSH12 0x33B2E3C9FD0803CE8000000 SWAP1 DIV SWAP1 JUMP JUMPDEST PUSH1 0x40 MLOAD PUSH3 0x461BCD PUSH1 0xE5 SHL DUP2 MSTORE PUSH1 0x20 PUSH1 0x4 DUP3 ADD MSTORE PUSH1 0x14 PUSH1 0x24 DUP3 ADD MSTORE PUSH20 0x64732D6D6174682D6164642D6F766572666C6F77 PUSH1 0x60 SHL PUSH1 0x44 DUP3 ADD MSTORE PUSH1 0x64 SWAP1 REVERT JUMPDEST PUSH1 0x40 MLOAD PUSH3 0x461BCD PUSH1 0xE5 SHL DUP2 MSTORE PUSH1 0x20 PUSH1 0x4 DUP3 ADD MSTORE PUSH1 0x14 PUSH1 0x24 DUP3 ADD MSTORE PUSH20 0x64732D6D6174682D6D756C2D6F766572666C6F77 PUSH1 0x60 SHL PUSH1 0x44 DUP3 ADD MSTORE PUSH1 0x64 SWAP1 REVERT JUMPDEST SWAP2 POP SWAP2 POP PUSH2 0xBE6 PUSH2 0xBDF DUP4 DUP4 PUSH2 0xA53 JUMP JUMPDEST SWAP3 DUP4 PUSH2 0xA66 JUMP JUMPDEST EQ CODESIZE DUP1 PUSH2 0xB20 JUMP INVALID LOG2 PUSH5 0x6970667358 0x22 SLT KECCAK256 RETURNDATACOPY 0xED 0xDB 0xAE 0xB8 0xCF 0xEB 0xCE POP PUSH12 0xF2224A7B75FFCCC311EA1F5F 0xCD PUSH14 0x1D45A25AAC4B2EE64736F6C6343 STOP ADDMOD SGT STOP CALLER "},"methodIdentifiers":{"Pie()":"2c69ed58","cage()":"69245009","chi()":"c92aecc4","deny(address)":"9c52a7f1","drip()":"9f678cca","dsr()":"487bf082","exit(uint256)":"7f8661a1","file(bytes32,address)":"d4e8be83","file(bytes32,uint256)":"29ae8114","join(uint256)":"049878f3","live()":"957aa58c","pie(address)":"0bebac86","rely(address)":"65fae35e","rho()":"20aba08b","vat()":"36569e77","vow()":"626cb3c5","wards(address)":"bf353dbb"}}}}}