{"contracts/Multicall.sol":{"Multicall":{"abi":[{"inputs":[],"stateMutability":"nonpayable","type":"constructor"},{"anonymous":true,"inputs":[{"indexed":true,"internalType":"bytes4","name":"sig","type":"bytes4"},{"indexed":true,"internalType":"address","name":"usr","type":"address"},{"indexed":true,"internalType":"bytes32","name":"arg1","type":"bytes32"},{"indexed":true,"internalType":"bytes32","name":"arg2","type":"bytes32"},{"indexed":false,"internalType":"bytes","name":"data","type":"bytes"}],"name":"LogNote","type":"event"},{"stateMutability":"payable","type":"fallback"},{"inputs":[{"components":[{"internalType":"address","name":"target","type":"address"},{"internalType":"bytes","name":"callData","type":"bytes"}],"internalType":"struct Multicall.Call[]","name":"calls","type":"tuple[]"}],"name":"aggregate","outputs":[{"internalType":"uint256","name":"blockNumber","type":"uint256"},{"internalType":"bytes[]","name":"returnData","type":"bytes[]"}],"stateMutability":"payable","type":"function"},{"inputs":[{"components":[{"internalType":"address","name":"target","type":"address"},{"internalType":"bytes","name":"callData","type":"bytes"}],"internalType":"struct Multicall.Call[]","name":"calls","type":"tuple[]"}],"name":"blockAndAggregate","outputs":[{"internalType":"uint256","name":"blockNumber","type":"uint256"},{"internalType":"bytes32","name":"blockHash","type":"bytes32"},{"components":[{"internalType":"bool","name":"success","type":"bool"},{"internalType":"bytes","name":"returnData","type":"bytes"}],"internalType":"struct Multicall.Result[]","name":"returnData","type":"tuple[]"}],"stateMutability":"payable","type":"function"},{"inputs":[],"name":"cage","outputs":[],"stateMutability":"nonpayable","type":"function"},{"inputs":[{"internalType":"address","name":"user","type":"address"},{"internalType":"address","name":"vatAddr","type":"address"},{"internalType":"address","name":"gemJoinAddr","type":"address"},{"internalType":"address","name":"daiJoinAddr","type":"address"},{"internalType":"bytes32","name":"ilk","type":"bytes32"},{"internalType":"uint256","name":"collateralAmount","type":"uint256"},{"internalType":"uint256","name":"daiAmount","type":"uint256"}],"name":"createCDPBatch","outputs":[{"components":[{"internalType":"address","name":"target","type":"address"},{"internalType":"bytes","name":"callData","type":"bytes"}],"internalType":"struct Multicall.Call[]","name":"calls","type":"tuple[]"}],"stateMutability":"pure","type":"function"},{"inputs":[{"internalType":"bytes","name":"data","type":"bytes"}],"name":"decodeAddress","outputs":[{"internalType":"address","name":"","type":"address"}],"stateMutability":"pure","type":"function"},{"inputs":[{"internalType":"bytes","name":"data","type":"bytes"}],"name":"decodeBool","outputs":[{"internalType":"bool","name":"","type":"bool"}],"stateMutability":"pure","type":"function"},{"inputs":[{"internalType":"bytes","name":"data","type":"bytes"}],"name":"decodeUint256","outputs":[{"internalType":"uint256","name":"","type":"uint256"}],"stateMutability":"pure","type":"function"},{"inputs":[{"internalType":"address","name":"usr","type":"address"}],"name":"deny","outputs":[],"stateMutability":"nonpayable","type":"function"},{"inputs":[{"internalType":"address","name":"target","type":"address"},{"internalType":"bytes","name":"data","type":"bytes"}],"name":"encodeCall","outputs":[{"components":[{"internalType":"address","name":"target","type":"address"},{"internalType":"bytes","name":"callData","type":"bytes"}],"internalType":"struct Multicall.Call","name":"","type":"tuple"}],"stateMutability":"pure","type":"function"},{"inputs":[{"internalType":"uint256","name":"blockNumber","type":"uint256"}],"name":"getBlockHash","outputs":[{"internalType":"bytes32","name":"blockHash","type":"bytes32"}],"stateMutability":"view","type":"function"},{"inputs":[],"name":"getBlockNumber","outputs":[{"internalType":"uint256","name":"blockNumber","type":"uint256"}],"stateMutability":"view","type":"function"},{"inputs":[],"name":"getChainId","outputs":[{"internalType":"uint256","name":"chainid","type":"uint256"}],"stateMutability":"view","type":"function"},{"inputs":[],"name":"getCurrentBlockCoinbase","outputs":[{"internalType":"address","name":"coinbase","type":"address"}],"stateMutability":"view","type":"function"},{"inputs":[],"name":"getCurrentBlockDifficulty","outputs":[{"internalType":"uint256","name":"difficulty","type":"uint256"}],"stateMutability":"view","type":"function"},{"inputs":[],"name":"getCurrentBlockGasLimit","outputs":[{"internalType":"uint256","name":"gaslimit","type":"uint256"}],"stateMutability":"view","type":"function"},{"inputs":[],"name":"getCurrentBlockTimestamp","outputs":[{"internalType":"uint256","name":"timestamp","type":"uint256"}],"stateMutability":"view","type":"function"},{"inputs":[{"internalType":"address","name":"addr","type":"address"}],"name":"getEthBalance","outputs":[{"internalType":"uint256","name":"balance","type":"uint256"}],"stateMutability":"view","type":"function"},{"inputs":[],"name":"getLastBlockHash","outputs":[{"internalType":"bytes32","name":"blockHash","type":"bytes32"}],"stateMutability":"view","type":"function"},{"inputs":[],"name":"live","outputs":[{"internalType":"uint256","name":"","type":"uint256"}],"stateMutability":"view","type":"function"},{"inputs":[{"internalType":"address","name":"usr","type":"address"}],"name":"rely","outputs":[],"stateMutability":"nonpayable","type":"function"},{"inputs":[{"internalType":"bool","name":"requireSuccess","type":"bool"},{"components":[{"internalType":"address","name":"target","type":"address"},{"internalType":"bytes","name":"callData","type":"bytes"}],"internalType":"struct Multicall.Call[]","name":"calls","type":"tuple[]"}],"name":"tryAggregate","outputs":[{"components":[{"internalType":"bool","name":"success","type":"bool"},{"internalType":"bytes","name":"returnData","type":"bytes"}],"internalType":"struct Multicall.Result[]","name":"returnData","type":"tuple[]"}],"stateMutability":"payable","type":"function"},{"inputs":[{"internalType":"address","name":"","type":"address"}],"name":"wards","outputs":[{"internalType":"uint256","name":"","type":"uint256"}],"stateMutability":"view","type":"function"},{"stateMutability":"payable","type":"receive"}],"evm":{"bytecode":{"linkReferences":{},"object":"6080806040523461002b5733600052600060205260016040600020556001805561101e90816100318239f35b600080fdfe608060408181526004908136101561001f575b505050361561001d57005b005b600092833560e01c9081630f28c97d14610b8b57508063252dba4214610a2657806327e86d6e146109e85780633408e470146109cd57806342cbb15c146109b25780634d2301cc1461098c5780634ed5a4cd146106ac5780635b76f28b1461063757806365fae35e146105f157806369245009146105c25780636d78dc9c1461057357806372425d9d1461055857806386d516e81461053d578063957aa58c1461051e578381639c52a7f1146104d457508063a8b0574e146104b9578063af91c8aa1461045b578063bce38bd714610318578063bf353dbb146102e1578063c3077fa914610197578063c62173d01461013d5763ee82ac5e0361001257346101395760203660031901126101395760209250519035408152f35b8280fd5b509034610139576020366003190112610139578035906001600160401b0382116101935761016d91369101610c5f565b602081805181010312610139576020015190811515809203610139576020925051908152f35b8380fd5b5091602091826003193601126102dd5780356001600160401b038111610139576101c391369101610ca6565b906001906101dc828054146101d781610e8d565b610e8d565b8251926101e884610c12565b936101f587519586610bf1565b808552610204601f1991610c12565b0185835b8281106102c7575050508282905b610240575b86514380825240818801526060818901819052819061023c90820188610dd1565b0390f35b81518110156102c2576102bc9083806001600160a01b036102618487610f46565b5151168961026f8588610f46565b51015190828b83519301915af1610284610f5a565b61028d82610f8a565b89519161029983610ba5565b15158252888201526102ab8288610f46565b526102b68187610f46565b50610ece565b83610216565b61021b565b6102cf610fce565b828289010152018690610208565b5080fd5b8382346102dd5760203660031901126102dd5760209181906001600160a01b03610309610c29565b16815280845220549051908152f35b508060031936011261013957813591821515830361019357602435906001600160401b0382116104575761034e91369101610ca6565b9160019361035e85805414610e8d565b83519361036a85610c12565b9461037785519687610bf1565b808652610386601f1991610c12565b01825b8181106104405750508582905b6103b0575b84516020808252819061023c90820189610dd1565b815181101561043b57610427906001600160a01b036103cf8285610f46565b515116858580602093846103e3878a610f46565b51015190828683519301915af1916103f9610f5a565b9161042d575b88519261040b84610ba5565b1515835282015261041c8289610f46565b526102b68188610f46565b86610396565b61043683610f8a565b6103ff565b61039b565b60209061044b610fce565b82828a01015201610389565b8480fd5b509034610139576020366003190112610139578035906001600160401b0382116101935761048b91369101610c5f565b60208180518101031261013957602001516001600160a01b0381169190829003610139576020925051908152f35b8382346102dd57816003193601126102dd5760209051418152f35b80833461051b57602036600319011261051b576104ef610c29565b3383528260205261050560018385205414610e41565b6001600160a01b03168252602082905281205580f35b50fd5b8382346102dd57816003193601126102dd576020906001549051908152f35b8382346102dd57816003193601126102dd5760209051458152f35b8382346102dd57816003193601126102dd5760209051448152f35b509034610139576020366003190112610139578035906001600160401b038211610193576105a391369101610c5f565b916020838051810103126105bf57506020809201519051908152f35b80fd5b8382346102dd57816003193601126102dd5760016105ea913384528360205283205414610e41565b8060015580f35b8382346102dd5760203660031901126102dd5760019061060f610c29565b33845283602052610624838386205414610e41565b828060a01b031683528260205282205580f35b508290346102dd57806003193601126102dd57610652610c29565b91602435906001600160401b0382116105bf575061023c9361067691369101610c5f565b61067e610fce565b5081519261068b84610ba5565b60018060a01b03168352602083015251918291602083526020830190610da9565b5091346105bf5760e03660031901126105bf576106c7610c29565b6001600160a01b0391906024803584811692919083900361019357604435958587168097036104575760643593868516809503610988579088929160a43560c435928551996107158b610bd6565b818b52895b6080811061096157508651633b4da69f60e01b6020808301919091526001600160a01b038a16888301908152808201869052909d919081906040010398610769601f199a8b8101845283610bf1565b519161077483610ba5565b82528d8201526107838c610ef3565b5261078d8b610ef3565b508c5190637608870360e01b8d8301526084358783015288169283604483015283606483015283608483015260a48201528460c482015260c481526101008101908082106001600160401b0383111761094f57818e526107ec82610ba5565b8482526101208101526107fe8b610f16565b526108088a610f16565b506b033b2e3c9fd0803ce80000009081850291858304148515171561093d5750916108be959493916108b2938d51918d63bb35783b60e01b908401528683015289604483015260648201526064815261086081610bd6565b8c519161086c83610ba5565b82528b82015261087b8a610f26565b5261088589610f26565b508a5163ef693bed60e01b8b8201526001600160a01b039096169286019283526020830152849160400190565b03908101835282610bf1565b8551916108ca83610ba5565b8252848201526108d983610f36565b526108e382610f36565b5083519280840190808552835180925280868601968360051b870101940192955b8287106109115785850386f35b90919293828061092d600193603f198a82030186528851610da9565b9601920196019592919092610904565b634e487b7160e01b8a52601190528489fd5b634e487b7160e01b8b5260418352868bfd5b602091929394959697508b8282610976610fce565b9201015201908c96959493929161071a565b8580fd5b8382346102dd5760203660031901126102dd576020906109aa610c29565b319051908152f35b8382346102dd57816003193601126102dd5760209051438152f35b8382346102dd57816003193601126102dd5760209051468152f35b508290346102dd57816003193601126102dd57600019430191438311610a1357602083835190408152f35b634e487b7160e01b815260118452602490fd5b508290602092836003193601126101395780356001600160401b03811161019357849291610a5691369101610ca6565b92600191610a6683805414610e8d565b845194610a7286610c12565b95610a7f83519788610bf1565b808752610a8e601f1991610c12565b01835b818110610b7c5750508383905b610b05575b505080519381850191438652818601528551809252606085018160608460051b880101970193905b838210610ad85786880387f35b90919293948380610af4839a605f198b82030186528951610d69565b999701959493919091019101610acb565b93809694829693949651811015610b7057610b649087806001600160a01b03610b2e8488610f46565b51511687610b3c8589610f46565b51015190828983519301915af1610b5a610b54610f5a565b91610f8a565b61041c8289610f46565b90949695939295610a9e565b50939594929194610aa3565b60608882018801528601610a91565b8490346102dd57816003193601126102dd57602090428152f35b604081019081106001600160401b03821117610bc057604052565b634e487b7160e01b600052604160045260246000fd5b60a081019081106001600160401b03821117610bc057604052565b90601f801991011681019081106001600160401b03821117610bc057604052565b6001600160401b038111610bc05760051b60200190565b600435906001600160a01b0382168203610c3f57565b600080fd5b6001600160401b038111610bc057601f01601f191660200190565b81601f82011215610c3f57803590610c7682610c44565b92610c846040519485610bf1565b82845260208383010111610c3f57816000926020809301838601378301015290565b81601f82011215610c3f57803590610cbd82610c12565b92604092610ccd84519586610bf1565b808552602093848087019260051b85010193838511610c3f57858101925b858410610cfc575050505050505090565b6001600160401b038435818111610c3f5783019184601f198489030112610c3f578451610d2881610ba5565b838a01356001600160a01b0381168103610c3f57815285840135928311610c3f57610d5a888b80969581960101610c5f565b83820152815201930192610ceb565b919082519283825260005b848110610d95575050826000602080949584010152601f8019910116010190565b602081830181015184830182015201610d74565b9060406020610dce9360018060a01b0381511684520151918160208201520190610d69565b90565b908082519081815260208091019281808460051b8301019501936000915b848310610dff5750505050505090565b9091929394958480610e31600193601f19868203018752828b5180511515835201519060409081858201520190610d69565b9801930193019194939290610def565b15610e4857565b60405162461bcd60e51b815260206004820152601860248201527f4d756c746963616c6c2f6e6f742d617574686f72697a656400000000000000006044820152606490fd5b15610e9457565b60405162461bcd60e51b81526020600482015260126024820152714d756c746963616c6c2f6e6f742d6c69766560701b6044820152606490fd5b6000198114610edd5760010190565b634e487b7160e01b600052601160045260246000fd5b805115610f005760200190565b634e487b7160e01b600052603260045260246000fd5b805160011015610f005760400190565b805160021015610f005760600190565b805160031015610f005760800190565b8051821015610f005760209160051b010190565b3d15610f85573d90610f6b82610c44565b91610f796040519384610bf1565b82523d6000602084013e565b606090565b15610f9157565b60405162461bcd60e51b8152602060048201526015602482015274135d5b1d1a58d85b1b0bd8d85b1b0b59985a5b1959605a1b6044820152606490fd5b60405190610fdb82610ba5565b606060208360008152015256fea2646970667358221220faebd09c85a025774d3d9e3b6a6609b71b3407c895b7608a64ae1d3686c3f6fe64736f6c63430008130033","opcodes":"PUSH1 0x80 DUP1 PUSH1 0x40 MSTORE CALLVALUE PUSH2 0x2B JUMPI CALLER PUSH1 0x0 MSTORE PUSH1 0x0 PUSH1 0x20 MSTORE PUSH1 0x1 PUSH1 0x40 PUSH1 0x0 KECCAK256 SSTORE PUSH1 0x1 DUP1 SSTORE PUSH2 0x101E SWAP1 DUP2 PUSH2 0x31 DUP3 CODECOPY RETURN JUMPDEST PUSH1 0x0 DUP1 REVERT INVALID PUSH1 0x80 PUSH1 0x40 DUP2 DUP2 MSTORE PUSH1 0x4 SWAP1 DUP2 CALLDATASIZE LT ISZERO PUSH2 0x1F JUMPI JUMPDEST POP POP POP CALLDATASIZE ISZERO PUSH2 0x1D JUMPI STOP JUMPDEST STOP JUMPDEST PUSH1 0x0 SWAP3 DUP4 CALLDATALOAD PUSH1 0xE0 SHR SWAP1 DUP2 PUSH4 0xF28C97D EQ PUSH2 0xB8B JUMPI POP DUP1 PUSH4 0x252DBA42 EQ PUSH2 0xA26 JUMPI DUP1 PUSH4 0x27E86D6E EQ PUSH2 0x9E8 JUMPI DUP1 PUSH4 0x3408E470 EQ PUSH2 0x9CD JUMPI DUP1 PUSH4 0x42CBB15C EQ PUSH2 0x9B2 JUMPI DUP1 PUSH4 0x4D2301CC EQ PUSH2 0x98C JUMPI DUP1 PUSH4 0x4ED5A4CD EQ PUSH2 0x6AC JUMPI DUP1 PUSH4 0x5B76F28B EQ PUSH2 0x637 JUMPI DUP1 PUSH4 0x65FAE35E EQ PUSH2 0x5F1 JUMPI DUP1 PUSH4 0x69245009 EQ PUSH2 0x5C2 JUMPI DUP1 PUSH4 0x6D78DC9C EQ PUSH2 0x573 JUMPI DUP1 PUSH4 0x72425D9D EQ PUSH2 0x558 JUMPI DUP1 PUSH4 0x86D516E8 EQ PUSH2 0x53D JUMPI DUP1 PUSH4 0x957AA58C EQ PUSH2 0x51E JUMPI DUP4 DUP2 PUSH4 0x9C52A7F1 EQ PUSH2 0x4D4 JUMPI POP DUP1 PUSH4 0xA8B0574E EQ PUSH2 0x4B9 JUMPI DUP1 PUSH4 0xAF91C8AA EQ PUSH2 0x45B JUMPI DUP1 PUSH4 0xBCE38BD7 EQ PUSH2 0x318 JUMPI DUP1 PUSH4 0xBF353DBB EQ PUSH2 0x2E1 JUMPI DUP1 PUSH4 0xC3077FA9 EQ PUSH2 0x197 JUMPI DUP1 PUSH4 0xC62173D0 EQ PUSH2 0x13D JUMPI PUSH4 0xEE82AC5E SUB PUSH2 0x12 JUMPI CALLVALUE PUSH2 0x139 JUMPI PUSH1 0x20 CALLDATASIZE PUSH1 0x3 NOT ADD SLT PUSH2 0x139 JUMPI PUSH1 0x20 SWAP3 POP MLOAD SWAP1 CALLDATALOAD BLOCKHASH DUP2 MSTORE RETURN JUMPDEST DUP3 DUP1 REVERT JUMPDEST POP SWAP1 CALLVALUE PUSH2 0x139 JUMPI PUSH1 0x20 CALLDATASIZE PUSH1 0x3 NOT ADD SLT PUSH2 0x139 JUMPI DUP1 CALLDATALOAD SWAP1 PUSH1 0x1 PUSH1 0x1 PUSH1 0x40 SHL SUB DUP3 GT PUSH2 0x193 JUMPI PUSH2 0x16D SWAP2 CALLDATASIZE SWAP2 ADD PUSH2 0xC5F JUMP JUMPDEST PUSH1 0x20 DUP2 DUP1 MLOAD DUP2 ADD SUB SLT PUSH2 0x139 JUMPI PUSH1 0x20 ADD MLOAD SWAP1 DUP2 ISZERO ISZERO DUP1 SWAP3 SUB PUSH2 0x139 JUMPI PUSH1 0x20 SWAP3 POP MLOAD SWAP1 DUP2 MSTORE RETURN JUMPDEST DUP4 DUP1 REVERT JUMPDEST POP SWAP2 PUSH1 0x20 SWAP2 DUP3 PUSH1 0x3 NOT CALLDATASIZE ADD SLT PUSH2 0x2DD JUMPI DUP1 CALLDATALOAD PUSH1 0x1 PUSH1 0x1 PUSH1 0x40 SHL SUB DUP2 GT PUSH2 0x139 JUMPI PUSH2 0x1C3 SWAP2 CALLDATASIZE SWAP2 ADD PUSH2 0xCA6 JUMP JUMPDEST SWAP1 PUSH1 0x1 SWAP1 PUSH2 0x1DC DUP3 DUP1 SLOAD EQ PUSH2 0x1D7 DUP2 PUSH2 0xE8D JUMP JUMPDEST PUSH2 0xE8D JUMP JUMPDEST DUP3 MLOAD SWAP3 PUSH2 0x1E8 DUP5 PUSH2 0xC12 JUMP JUMPDEST SWAP4 PUSH2 0x1F5 DUP8 MLOAD SWAP6 DUP7 PUSH2 0xBF1 JUMP JUMPDEST DUP1 DUP6 MSTORE PUSH2 0x204 PUSH1 0x1F NOT SWAP2 PUSH2 0xC12 JUMP JUMPDEST ADD DUP6 DUP4 JUMPDEST DUP3 DUP2 LT PUSH2 0x2C7 JUMPI POP POP POP DUP3 DUP3 SWAP1 JUMPDEST PUSH2 0x240 JUMPI JUMPDEST DUP7 MLOAD NUMBER DUP1 DUP3 MSTORE BLOCKHASH DUP2 DUP9 ADD MSTORE PUSH1 0x60 DUP2 DUP10 ADD DUP2 SWAP1 MSTORE DUP2 SWAP1 PUSH2 0x23C SWAP1 DUP3 ADD DUP9 PUSH2 0xDD1 JUMP JUMPDEST SUB SWAP1 RETURN JUMPDEST DUP2 MLOAD DUP2 LT ISZERO PUSH2 0x2C2 JUMPI PUSH2 0x2BC SWAP1 DUP4 DUP1 PUSH1 0x1 PUSH1 0x1 PUSH1 0xA0 SHL SUB PUSH2 0x261 DUP5 DUP8 PUSH2 0xF46 JUMP JUMPDEST MLOAD MLOAD AND DUP10 PUSH2 0x26F DUP6 DUP9 PUSH2 0xF46 JUMP JUMPDEST MLOAD ADD MLOAD SWAP1 DUP3 DUP12 DUP4 MLOAD SWAP4 ADD SWAP2 GAS CALL PUSH2 0x284 PUSH2 0xF5A JUMP JUMPDEST PUSH2 0x28D DUP3 PUSH2 0xF8A JUMP JUMPDEST DUP10 MLOAD SWAP2 PUSH2 0x299 DUP4 PUSH2 0xBA5 JUMP JUMPDEST ISZERO ISZERO DUP3 MSTORE DUP9 DUP3 ADD MSTORE PUSH2 0x2AB DUP3 DUP9 PUSH2 0xF46 JUMP JUMPDEST MSTORE PUSH2 0x2B6 DUP2 DUP8 PUSH2 0xF46 JUMP JUMPDEST POP PUSH2 0xECE JUMP JUMPDEST DUP4 PUSH2 0x216 JUMP JUMPDEST PUSH2 0x21B JUMP JUMPDEST PUSH2 0x2CF PUSH2 0xFCE JUMP JUMPDEST DUP3 DUP3 DUP10 ADD ADD MSTORE ADD DUP7 SWAP1 PUSH2 0x208 JUMP JUMPDEST POP DUP1 REVERT JUMPDEST DUP4 DUP3 CALLVALUE PUSH2 0x2DD JUMPI PUSH1 0x20 CALLDATASIZE PUSH1 0x3 NOT ADD SLT PUSH2 0x2DD JUMPI PUSH1 0x20 SWAP2 DUP2 SWAP1 PUSH1 0x1 PUSH1 0x1 PUSH1 0xA0 SHL SUB PUSH2 0x309 PUSH2 0xC29 JUMP JUMPDEST AND DUP2 MSTORE DUP1 DUP5 MSTORE KECCAK256 SLOAD SWAP1 MLOAD SWAP1 DUP2 MSTORE RETURN JUMPDEST POP DUP1 PUSH1 0x3 NOT CALLDATASIZE ADD SLT PUSH2 0x139 JUMPI DUP2 CALLDATALOAD SWAP2 DUP3 ISZERO ISZERO DUP4 SUB PUSH2 0x193 JUMPI PUSH1 0x24 CALLDATALOAD SWAP1 PUSH1 0x1 PUSH1 0x1 PUSH1 0x40 SHL SUB DUP3 GT PUSH2 0x457 JUMPI PUSH2 0x34E SWAP2 CALLDATASIZE SWAP2 ADD PUSH2 0xCA6 JUMP JUMPDEST SWAP2 PUSH1 0x1 SWAP4 PUSH2 0x35E DUP6 DUP1 SLOAD EQ PUSH2 0xE8D JUMP JUMPDEST DUP4 MLOAD SWAP4 PUSH2 0x36A DUP6 PUSH2 0xC12 JUMP JUMPDEST SWAP5 PUSH2 0x377 DUP6 MLOAD SWAP7 DUP8 PUSH2 0xBF1 JUMP JUMPDEST DUP1 DUP7 MSTORE PUSH2 0x386 PUSH1 0x1F NOT SWAP2 PUSH2 0xC12 JUMP JUMPDEST ADD DUP3 JUMPDEST DUP2 DUP2 LT PUSH2 0x440 JUMPI POP POP DUP6 DUP3 SWAP1 JUMPDEST PUSH2 0x3B0 JUMPI JUMPDEST DUP5 MLOAD PUSH1 0x20 DUP1 DUP3 MSTORE DUP2 SWAP1 PUSH2 0x23C SWAP1 DUP3 ADD DUP10 PUSH2 0xDD1 JUMP JUMPDEST DUP2 MLOAD DUP2 LT ISZERO PUSH2 0x43B JUMPI PUSH2 0x427 SWAP1 PUSH1 0x1 PUSH1 0x1 PUSH1 0xA0 SHL SUB PUSH2 0x3CF DUP3 DUP6 PUSH2 0xF46 JUMP JUMPDEST MLOAD MLOAD AND DUP6 DUP6 DUP1 PUSH1 0x20 SWAP4 DUP5 PUSH2 0x3E3 DUP8 DUP11 PUSH2 0xF46 JUMP JUMPDEST MLOAD ADD MLOAD SWAP1 DUP3 DUP7 DUP4 MLOAD SWAP4 ADD SWAP2 GAS CALL SWAP2 PUSH2 0x3F9 PUSH2 0xF5A JUMP JUMPDEST SWAP2 PUSH2 0x42D JUMPI JUMPDEST DUP9 MLOAD SWAP3 PUSH2 0x40B DUP5 PUSH2 0xBA5 JUMP JUMPDEST ISZERO ISZERO DUP4 MSTORE DUP3 ADD MSTORE PUSH2 0x41C DUP3 DUP10 PUSH2 0xF46 JUMP JUMPDEST MSTORE PUSH2 0x2B6 DUP2 DUP9 PUSH2 0xF46 JUMP JUMPDEST DUP7 PUSH2 0x396 JUMP JUMPDEST PUSH2 0x436 DUP4 PUSH2 0xF8A JUMP JUMPDEST PUSH2 0x3FF JUMP JUMPDEST PUSH2 0x39B JUMP JUMPDEST PUSH1 0x20 SWAP1 PUSH2 0x44B PUSH2 0xFCE JUMP JUMPDEST DUP3 DUP3 DUP11 ADD ADD MSTORE ADD PUSH2 0x389 JUMP JUMPDEST DUP5 DUP1 REVERT JUMPDEST POP SWAP1 CALLVALUE PUSH2 0x139 JUMPI PUSH1 0x20 CALLDATASIZE PUSH1 0x3 NOT ADD SLT PUSH2 0x139 JUMPI DUP1 CALLDATALOAD SWAP1 PUSH1 0x1 PUSH1 0x1 PUSH1 0x40 SHL SUB DUP3 GT PUSH2 0x193 JUMPI PUSH2 0x48B SWAP2 CALLDATASIZE SWAP2 ADD PUSH2 0xC5F JUMP JUMPDEST PUSH1 0x20 DUP2 DUP1 MLOAD DUP2 ADD SUB SLT PUSH2 0x139 JUMPI PUSH1 0x20 ADD MLOAD PUSH1 0x1 PUSH1 0x1 PUSH1 0xA0 SHL SUB DUP2 AND SWAP2 SWAP1 DUP3 SWAP1 SUB PUSH2 0x139 JUMPI PUSH1 0x20 SWAP3 POP MLOAD SWAP1 DUP2 MSTORE RETURN JUMPDEST DUP4 DUP3 CALLVALUE PUSH2 0x2DD JUMPI DUP2 PUSH1 0x3 NOT CALLDATASIZE ADD SLT PUSH2 0x2DD JUMPI PUSH1 0x20 SWAP1 MLOAD COINBASE DUP2 MSTORE RETURN JUMPDEST DUP1 DUP4 CALLVALUE PUSH2 0x51B JUMPI PUSH1 0x20 CALLDATASIZE PUSH1 0x3 NOT ADD SLT PUSH2 0x51B JUMPI PUSH2 0x4EF PUSH2 0xC29 JUMP JUMPDEST CALLER DUP4 MSTORE DUP3 PUSH1 0x20 MSTORE PUSH2 0x505 PUSH1 0x1 DUP4 DUP6 KECCAK256 SLOAD EQ PUSH2 0xE41 JUMP JUMPDEST PUSH1 0x1 PUSH1 0x1 PUSH1 0xA0 SHL SUB AND DUP3 MSTORE PUSH1 0x20 DUP3 SWAP1 MSTORE DUP2 KECCAK256 SSTORE DUP1 RETURN JUMPDEST POP REVERT JUMPDEST DUP4 DUP3 CALLVALUE PUSH2 0x2DD JUMPI DUP2 PUSH1 0x3 NOT CALLDATASIZE ADD SLT PUSH2 0x2DD JUMPI PUSH1 0x20 SWAP1 PUSH1 0x1 SLOAD SWAP1 MLOAD SWAP1 DUP2 MSTORE RETURN JUMPDEST DUP4 DUP3 CALLVALUE PUSH2 0x2DD JUMPI DUP2 PUSH1 0x3 NOT CALLDATASIZE ADD SLT PUSH2 0x2DD JUMPI PUSH1 0x20 SWAP1 MLOAD GASLIMIT DUP2 MSTORE RETURN JUMPDEST DUP4 DUP3 CALLVALUE PUSH2 0x2DD JUMPI DUP2 PUSH1 0x3 NOT CALLDATASIZE ADD SLT PUSH2 0x2DD JUMPI PUSH1 0x20 SWAP1 MLOAD PREVRANDAO DUP2 MSTORE RETURN JUMPDEST POP SWAP1 CALLVALUE PUSH2 0x139 JUMPI PUSH1 0x20 CALLDATASIZE PUSH1 0x3 NOT ADD SLT PUSH2 0x139 JUMPI DUP1 CALLDATALOAD SWAP1 PUSH1 0x1 PUSH1 0x1 PUSH1 0x40 SHL SUB DUP3 GT PUSH2 0x193 JUMPI PUSH2 0x5A3 SWAP2 CALLDATASIZE SWAP2 ADD PUSH2 0xC5F JUMP JUMPDEST SWAP2 PUSH1 0x20 DUP4 DUP1 MLOAD DUP2 ADD SUB SLT PUSH2 0x5BF JUMPI POP PUSH1 0x20 DUP1 SWAP3 ADD MLOAD SWAP1 MLOAD SWAP1 DUP2 MSTORE RETURN JUMPDEST DUP1 REVERT JUMPDEST DUP4 DUP3 CALLVALUE PUSH2 0x2DD JUMPI DUP2 PUSH1 0x3 NOT CALLDATASIZE ADD SLT PUSH2 0x2DD JUMPI PUSH1 0x1 PUSH2 0x5EA SWAP2 CALLER DUP5 MSTORE DUP4 PUSH1 0x20 MSTORE DUP4 KECCAK256 SLOAD EQ PUSH2 0xE41 JUMP JUMPDEST DUP1 PUSH1 0x1 SSTORE DUP1 RETURN JUMPDEST DUP4 DUP3 CALLVALUE PUSH2 0x2DD JUMPI PUSH1 0x20 CALLDATASIZE PUSH1 0x3 NOT ADD SLT PUSH2 0x2DD JUMPI PUSH1 0x1 SWAP1 PUSH2 0x60F PUSH2 0xC29 JUMP JUMPDEST CALLER DUP5 MSTORE DUP4 PUSH1 0x20 MSTORE PUSH2 0x624 DUP4 DUP4 DUP7 KECCAK256 SLOAD EQ PUSH2 0xE41 JUMP JUMPDEST DUP3 DUP1 PUSH1 0xA0 SHL SUB AND DUP4 MSTORE DUP3 PUSH1 0x20 MSTORE DUP3 KECCAK256 SSTORE DUP1 RETURN JUMPDEST POP DUP3 SWAP1 CALLVALUE PUSH2 0x2DD JUMPI DUP1 PUSH1 0x3 NOT CALLDATASIZE ADD SLT PUSH2 0x2DD JUMPI PUSH2 0x652 PUSH2 0xC29 JUMP JUMPDEST SWAP2 PUSH1 0x24 CALLDATALOAD SWAP1 PUSH1 0x1 PUSH1 0x1 PUSH1 0x40 SHL SUB DUP3 GT PUSH2 0x5BF JUMPI POP PUSH2 0x23C SWAP4 PUSH2 0x676 SWAP2 CALLDATASIZE SWAP2 ADD PUSH2 0xC5F JUMP JUMPDEST PUSH2 0x67E PUSH2 0xFCE JUMP JUMPDEST POP DUP2 MLOAD SWAP3 PUSH2 0x68B DUP5 PUSH2 0xBA5 JUMP JUMPDEST PUSH1 0x1 DUP1 PUSH1 0xA0 SHL SUB AND DUP4 MSTORE PUSH1 0x20 DUP4 ADD MSTORE MLOAD SWAP2 DUP3 SWAP2 PUSH1 0x20 DUP4 MSTORE PUSH1 0x20 DUP4 ADD SWAP1 PUSH2 0xDA9 JUMP JUMPDEST POP SWAP2 CALLVALUE PUSH2 0x5BF JUMPI PUSH1 0xE0 CALLDATASIZE PUSH1 0x3 NOT ADD SLT PUSH2 0x5BF JUMPI PUSH2 0x6C7 PUSH2 0xC29 JUMP JUMPDEST PUSH1 0x1 PUSH1 0x1 PUSH1 0xA0 SHL SUB SWAP2 SWAP1 PUSH1 0x24 DUP1 CALLDATALOAD DUP5 DUP2 AND SWAP3 SWAP2 SWAP1 DUP4 SWAP1 SUB PUSH2 0x193 JUMPI PUSH1 0x44 CALLDATALOAD SWAP6 DUP6 DUP8 AND DUP1 SWAP8 SUB PUSH2 0x457 JUMPI PUSH1 0x64 CALLDATALOAD SWAP4 DUP7 DUP6 AND DUP1 SWAP6 SUB PUSH2 0x988 JUMPI SWAP1 DUP9 SWAP3 SWAP2 PUSH1 0xA4 CALLDATALOAD PUSH1 0xC4 CALLDATALOAD SWAP3 DUP6 MLOAD SWAP10 PUSH2 0x715 DUP12 PUSH2 0xBD6 JUMP JUMPDEST DUP2 DUP12 MSTORE DUP10 JUMPDEST PUSH1 0x80 DUP2 LT PUSH2 0x961 JUMPI POP DUP7 MLOAD PUSH4 0x3B4DA69F PUSH1 0xE0 SHL PUSH1 0x20 DUP1 DUP4 ADD SWAP2 SWAP1 SWAP2 MSTORE PUSH1 0x1 PUSH1 0x1 PUSH1 0xA0 SHL SUB DUP11 AND DUP9 DUP4 ADD SWAP1 DUP2 MSTORE DUP1 DUP3 ADD DUP7 SWAP1 MSTORE SWAP1 SWAP14 SWAP2 SWAP1 DUP2 SWAP1 PUSH1 0x40 ADD SUB SWAP9 PUSH2 0x769 PUSH1 0x1F NOT SWAP11 DUP12 DUP2 ADD DUP5 MSTORE DUP4 PUSH2 0xBF1 JUMP JUMPDEST MLOAD SWAP2 PUSH2 0x774 DUP4 PUSH2 0xBA5 JUMP JUMPDEST DUP3 MSTORE DUP14 DUP3 ADD MSTORE PUSH2 0x783 DUP13 PUSH2 0xEF3 JUMP JUMPDEST MSTORE PUSH2 0x78D DUP12 PUSH2 0xEF3 JUMP JUMPDEST POP DUP13 MLOAD SWAP1 PUSH4 0x76088703 PUSH1 0xE0 SHL DUP14 DUP4 ADD MSTORE PUSH1 0x84 CALLDATALOAD DUP8 DUP4 ADD MSTORE DUP9 AND SWAP3 DUP4 PUSH1 0x44 DUP4 ADD MSTORE DUP4 PUSH1 0x64 DUP4 ADD MSTORE DUP4 PUSH1 0x84 DUP4 ADD MSTORE PUSH1 0xA4 DUP3 ADD MSTORE DUP5 PUSH1 0xC4 DUP3 ADD MSTORE PUSH1 0xC4 DUP2 MSTORE PUSH2 0x100 DUP2 ADD SWAP1 DUP1 DUP3 LT PUSH1 0x1 PUSH1 0x1 PUSH1 0x40 SHL SUB DUP4 GT OR PUSH2 0x94F JUMPI DUP2 DUP15 MSTORE PUSH2 0x7EC DUP3 PUSH2 0xBA5 JUMP JUMPDEST DUP5 DUP3 MSTORE PUSH2 0x120 DUP2 ADD MSTORE PUSH2 0x7FE DUP12 PUSH2 0xF16 JUMP JUMPDEST MSTORE PUSH2 0x808 DUP11 PUSH2 0xF16 JUMP JUMPDEST POP PUSH12 0x33B2E3C9FD0803CE8000000 SWAP1 DUP2 DUP6 MUL SWAP2 DUP6 DUP4 DIV EQ DUP6 ISZERO OR ISZERO PUSH2 0x93D JUMPI POP SWAP2 PUSH2 0x8BE SWAP6 SWAP5 SWAP4 SWAP2 PUSH2 0x8B2 SWAP4 DUP14 MLOAD SWAP2 DUP14 PUSH4 0xBB35783B PUSH1 0xE0 SHL SWAP1 DUP5 ADD MSTORE DUP7 DUP4 ADD MSTORE DUP10 PUSH1 0x44 DUP4 ADD MSTORE PUSH1 0x64 DUP3 ADD MSTORE PUSH1 0x64 DUP2 MSTORE PUSH2 0x860 DUP2 PUSH2 0xBD6 JUMP JUMPDEST DUP13 MLOAD SWAP2 PUSH2 0x86C DUP4 PUSH2 0xBA5 JUMP JUMPDEST DUP3 MSTORE DUP12 DUP3 ADD MSTORE PUSH2 0x87B DUP11 PUSH2 0xF26 JUMP JUMPDEST MSTORE PUSH2 0x885 DUP10 PUSH2 0xF26 JUMP JUMPDEST POP DUP11 MLOAD PUSH4 0xEF693BED PUSH1 0xE0 SHL DUP12 DUP3 ADD MSTORE PUSH1 0x1 PUSH1 0x1 PUSH1 0xA0 SHL SUB SWAP1 SWAP7 AND SWAP3 DUP7 ADD SWAP3 DUP4 MSTORE PUSH1 0x20 DUP4 ADD MSTORE DUP5 SWAP2 PUSH1 0x40 ADD SWAP1 JUMP JUMPDEST SUB SWAP1 DUP2 ADD DUP4 MSTORE DUP3 PUSH2 0xBF1 JUMP JUMPDEST DUP6 MLOAD SWAP2 PUSH2 0x8CA DUP4 PUSH2 0xBA5 JUMP JUMPDEST DUP3 MSTORE DUP5 DUP3 ADD MSTORE PUSH2 0x8D9 DUP4 PUSH2 0xF36 JUMP JUMPDEST MSTORE PUSH2 0x8E3 DUP3 PUSH2 0xF36 JUMP JUMPDEST POP DUP4 MLOAD SWAP3 DUP1 DUP5 ADD SWAP1 DUP1 DUP6 MSTORE DUP4 MLOAD DUP1 SWAP3 MSTORE DUP1 DUP7 DUP7 ADD SWAP7 DUP4 PUSH1 0x5 SHL DUP8 ADD ADD SWAP5 ADD SWAP3 SWAP6 JUMPDEST DUP3 DUP8 LT PUSH2 0x911 JUMPI DUP6 DUP6 SUB DUP7 RETURN JUMPDEST SWAP1 SWAP2 SWAP3 SWAP4 DUP3 DUP1 PUSH2 0x92D PUSH1 0x1 SWAP4 PUSH1 0x3F NOT DUP11 DUP3 SUB ADD DUP7 MSTORE DUP9 MLOAD PUSH2 0xDA9 JUMP JUMPDEST SWAP7 ADD SWAP3 ADD SWAP7 ADD SWAP6 SWAP3 SWAP2 SWAP1 SWAP3 PUSH2 0x904 JUMP JUMPDEST PUSH4 0x4E487B71 PUSH1 0xE0 SHL DUP11 MSTORE PUSH1 0x11 SWAP1 MSTORE DUP5 DUP10 REVERT JUMPDEST PUSH4 0x4E487B71 PUSH1 0xE0 SHL DUP12 MSTORE PUSH1 0x41 DUP4 MSTORE DUP7 DUP12 REVERT JUMPDEST PUSH1 0x20 SWAP2 SWAP3 SWAP4 SWAP5 SWAP6 SWAP7 SWAP8 POP DUP12 DUP3 DUP3 PUSH2 0x976 PUSH2 0xFCE JUMP JUMPDEST SWAP3 ADD ADD MSTORE ADD SWAP1 DUP13 SWAP7 SWAP6 SWAP5 SWAP4 SWAP3 SWAP2 PUSH2 0x71A JUMP JUMPDEST DUP6 DUP1 REVERT JUMPDEST DUP4 DUP3 CALLVALUE PUSH2 0x2DD JUMPI PUSH1 0x20 CALLDATASIZE PUSH1 0x3 NOT ADD SLT PUSH2 0x2DD JUMPI PUSH1 0x20 SWAP1 PUSH2 0x9AA PUSH2 0xC29 JUMP JUMPDEST BALANCE SWAP1 MLOAD SWAP1 DUP2 MSTORE RETURN JUMPDEST DUP4 DUP3 CALLVALUE PUSH2 0x2DD JUMPI DUP2 PUSH1 0x3 NOT CALLDATASIZE ADD SLT PUSH2 0x2DD JUMPI PUSH1 0x20 SWAP1 MLOAD NUMBER DUP2 MSTORE RETURN JUMPDEST DUP4 DUP3 CALLVALUE PUSH2 0x2DD JUMPI DUP2 PUSH1 0x3 NOT CALLDATASIZE ADD SLT PUSH2 0x2DD JUMPI PUSH1 0x20 SWAP1 MLOAD CHAINID DUP2 MSTORE RETURN JUMPDEST POP DUP3 SWAP1 CALLVALUE PUSH2 0x2DD JUMPI DUP2 PUSH1 0x3 NOT CALLDATASIZE ADD SLT PUSH2 0x2DD JUMPI PUSH1 0x0 NOT NUMBER ADD SWAP2 NUMBER DUP4 GT PUSH2 0xA13 JUMPI PUSH1 0x20 DUP4 DUP4 MLOAD SWAP1 BLOCKHASH DUP2 MSTORE RETURN JUMPDEST PUSH4 0x4E487B71 PUSH1 0xE0 SHL DUP2 MSTORE PUSH1 0x11 DUP5 MSTORE PUSH1 0x24 SWAP1 REVERT JUMPDEST POP DUP3 SWAP1 PUSH1 0x20 SWAP3 DUP4 PUSH1 0x3 NOT CALLDATASIZE ADD SLT PUSH2 0x139 JUMPI DUP1 CALLDATALOAD PUSH1 0x1 PUSH1 0x1 PUSH1 0x40 SHL SUB DUP2 GT PUSH2 0x193 JUMPI DUP5 SWAP3 SWAP2 PUSH2 0xA56 SWAP2 CALLDATASIZE SWAP2 ADD PUSH2 0xCA6 JUMP JUMPDEST SWAP3 PUSH1 0x1 SWAP2 PUSH2 0xA66 DUP4 DUP1 SLOAD EQ PUSH2 0xE8D JUMP JUMPDEST DUP5 MLOAD SWAP5 PUSH2 0xA72 DUP7 PUSH2 0xC12 JUMP JUMPDEST SWAP6 PUSH2 0xA7F DUP4 MLOAD SWAP8 DUP9 PUSH2 0xBF1 JUMP JUMPDEST DUP1 DUP8 MSTORE PUSH2 0xA8E PUSH1 0x1F NOT SWAP2 PUSH2 0xC12 JUMP JUMPDEST ADD DUP4 JUMPDEST DUP2 DUP2 LT PUSH2 0xB7C JUMPI POP POP DUP4 DUP4 SWAP1 JUMPDEST PUSH2 0xB05 JUMPI JUMPDEST POP POP DUP1 MLOAD SWAP4 DUP2 DUP6 ADD SWAP2 NUMBER DUP7 MSTORE DUP2 DUP7 ADD MSTORE DUP6 MLOAD DUP1 SWAP3 MSTORE PUSH1 0x60 DUP6 ADD DUP2 PUSH1 0x60 DUP5 PUSH1 0x5 SHL DUP9 ADD ADD SWAP8 ADD SWAP4 SWAP1 JUMPDEST DUP4 DUP3 LT PUSH2 0xAD8 JUMPI DUP7 DUP9 SUB DUP8 RETURN JUMPDEST SWAP1 SWAP2 SWAP3 SWAP4 SWAP5 DUP4 DUP1 PUSH2 0xAF4 DUP4 SWAP11 PUSH1 0x5F NOT DUP12 DUP3 SUB ADD DUP7 MSTORE DUP10 MLOAD PUSH2 0xD69 JUMP JUMPDEST SWAP10 SWAP8 ADD SWAP6 SWAP5 SWAP4 SWAP2 SWAP1 SWAP2 ADD SWAP2 ADD PUSH2 0xACB JUMP JUMPDEST SWAP4 DUP1 SWAP7 SWAP5 DUP3 SWAP7 SWAP4 SWAP5 SWAP7 MLOAD DUP2 LT ISZERO PUSH2 0xB70 JUMPI PUSH2 0xB64 SWAP1 DUP8 DUP1 PUSH1 0x1 PUSH1 0x1 PUSH1 0xA0 SHL SUB PUSH2 0xB2E DUP5 DUP9 PUSH2 0xF46 JUMP JUMPDEST MLOAD MLOAD AND DUP8 PUSH2 0xB3C DUP6 DUP10 PUSH2 0xF46 JUMP JUMPDEST MLOAD ADD MLOAD SWAP1 DUP3 DUP10 DUP4 MLOAD SWAP4 ADD SWAP2 GAS CALL PUSH2 0xB5A PUSH2 0xB54 PUSH2 0xF5A JUMP JUMPDEST SWAP2 PUSH2 0xF8A JUMP JUMPDEST PUSH2 0x41C DUP3 DUP10 PUSH2 0xF46 JUMP JUMPDEST SWAP1 SWAP5 SWAP7 SWAP6 SWAP4 SWAP3 SWAP6 PUSH2 0xA9E JUMP JUMPDEST POP SWAP4 SWAP6 SWAP5 SWAP3 SWAP2 SWAP5 PUSH2 0xAA3 JUMP JUMPDEST PUSH1 0x60 DUP9 DUP3 ADD DUP9 ADD MSTORE DUP7 ADD PUSH2 0xA91 JUMP JUMPDEST DUP5 SWAP1 CALLVALUE PUSH2 0x2DD JUMPI DUP2 PUSH1 0x3 NOT CALLDATASIZE ADD SLT PUSH2 0x2DD JUMPI PUSH1 0x20 SWAP1 TIMESTAMP DUP2 MSTORE RETURN JUMPDEST PUSH1 0x40 DUP2 ADD SWAP1 DUP2 LT PUSH1 0x1 PUSH1 0x1 PUSH1 0x40 SHL SUB DUP3 GT OR PUSH2 0xBC0 JUMPI PUSH1 0x40 MSTORE JUMP JUMPDEST PUSH4 0x4E487B71 PUSH1 0xE0 SHL PUSH1 0x0 MSTORE PUSH1 0x41 PUSH1 0x4 MSTORE PUSH1 0x24 PUSH1 0x0 REVERT JUMPDEST PUSH1 0xA0 DUP2 ADD SWAP1 DUP2 LT PUSH1 0x1 PUSH1 0x1 PUSH1 0x40 SHL SUB DUP3 GT OR PUSH2 0xBC0 JUMPI PUSH1 0x40 MSTORE JUMP JUMPDEST SWAP1 PUSH1 0x1F DUP1 NOT SWAP2 ADD AND DUP2 ADD SWAP1 DUP2 LT PUSH1 0x1 PUSH1 0x1 PUSH1 0x40 SHL SUB DUP3 GT OR PUSH2 0xBC0 JUMPI PUSH1 0x40 MSTORE JUMP JUMPDEST PUSH1 0x1 PUSH1 0x1 PUSH1 0x40 SHL SUB DUP2 GT PUSH2 0xBC0 JUMPI PUSH1 0x5 SHL PUSH1 0x20 ADD SWAP1 JUMP JUMPDEST PUSH1 0x4 CALLDATALOAD SWAP1 PUSH1 0x1 PUSH1 0x1 PUSH1 0xA0 SHL SUB DUP3 AND DUP3 SUB PUSH2 0xC3F JUMPI JUMP JUMPDEST PUSH1 0x0 DUP1 REVERT JUMPDEST PUSH1 0x1 PUSH1 0x1 PUSH1 0x40 SHL SUB DUP2 GT PUSH2 0xBC0 JUMPI PUSH1 0x1F ADD PUSH1 0x1F NOT AND PUSH1 0x20 ADD SWAP1 JUMP JUMPDEST DUP2 PUSH1 0x1F DUP3 ADD SLT ISZERO PUSH2 0xC3F JUMPI DUP1 CALLDATALOAD SWAP1 PUSH2 0xC76 DUP3 PUSH2 0xC44 JUMP JUMPDEST SWAP3 PUSH2 0xC84 PUSH1 0x40 MLOAD SWAP5 DUP6 PUSH2 0xBF1 JUMP JUMPDEST DUP3 DUP5 MSTORE PUSH1 0x20 DUP4 DUP4 ADD ADD GT PUSH2 0xC3F JUMPI DUP2 PUSH1 0x0 SWAP3 PUSH1 0x20 DUP1 SWAP4 ADD DUP4 DUP7 ADD CALLDATACOPY DUP4 ADD ADD MSTORE SWAP1 JUMP JUMPDEST DUP2 PUSH1 0x1F DUP3 ADD SLT ISZERO PUSH2 0xC3F JUMPI DUP1 CALLDATALOAD SWAP1 PUSH2 0xCBD DUP3 PUSH2 0xC12 JUMP JUMPDEST SWAP3 PUSH1 0x40 SWAP3 PUSH2 0xCCD DUP5 MLOAD SWAP6 DUP7 PUSH2 0xBF1 JUMP JUMPDEST DUP1 DUP6 MSTORE PUSH1 0x20 SWAP4 DUP5 DUP1 DUP8 ADD SWAP3 PUSH1 0x5 SHL DUP6 ADD ADD SWAP4 DUP4 DUP6 GT PUSH2 0xC3F JUMPI DUP6 DUP2 ADD SWAP3 JUMPDEST DUP6 DUP5 LT PUSH2 0xCFC JUMPI POP POP POP POP POP POP POP SWAP1 JUMP JUMPDEST PUSH1 0x1 PUSH1 0x1 PUSH1 0x40 SHL SUB DUP5 CALLDATALOAD DUP2 DUP2 GT PUSH2 0xC3F JUMPI DUP4 ADD SWAP2 DUP5 PUSH1 0x1F NOT DUP5 DUP10 SUB ADD SLT PUSH2 0xC3F JUMPI DUP5 MLOAD PUSH2 0xD28 DUP2 PUSH2 0xBA5 JUMP JUMPDEST DUP4 DUP11 ADD CALLDATALOAD PUSH1 0x1 PUSH1 0x1 PUSH1 0xA0 SHL SUB DUP2 AND DUP2 SUB PUSH2 0xC3F JUMPI DUP2 MSTORE DUP6 DUP5 ADD CALLDATALOAD SWAP3 DUP4 GT PUSH2 0xC3F JUMPI PUSH2 0xD5A DUP9 DUP12 DUP1 SWAP7 SWAP6 DUP2 SWAP7 ADD ADD PUSH2 0xC5F JUMP JUMPDEST DUP4 DUP3 ADD MSTORE DUP2 MSTORE ADD SWAP4 ADD SWAP3 PUSH2 0xCEB JUMP JUMPDEST SWAP2 SWAP1 DUP3 MLOAD SWAP3 DUP4 DUP3 MSTORE PUSH1 0x0 JUMPDEST DUP5 DUP2 LT PUSH2 0xD95 JUMPI POP POP DUP3 PUSH1 0x0 PUSH1 0x20 DUP1 SWAP5 SWAP6 DUP5 ADD ADD MSTORE PUSH1 0x1F DUP1 NOT SWAP2 ADD AND ADD ADD SWAP1 JUMP JUMPDEST PUSH1 0x20 DUP2 DUP4 ADD DUP2 ADD MLOAD DUP5 DUP4 ADD DUP3 ADD MSTORE ADD PUSH2 0xD74 JUMP JUMPDEST SWAP1 PUSH1 0x40 PUSH1 0x20 PUSH2 0xDCE SWAP4 PUSH1 0x1 DUP1 PUSH1 0xA0 SHL SUB DUP2 MLOAD AND DUP5 MSTORE ADD MLOAD SWAP2 DUP2 PUSH1 0x20 DUP3 ADD MSTORE ADD SWAP1 PUSH2 0xD69 JUMP JUMPDEST SWAP1 JUMP JUMPDEST SWAP1 DUP1 DUP3 MLOAD SWAP1 DUP2 DUP2 MSTORE PUSH1 0x20 DUP1 SWAP2 ADD SWAP3 DUP2 DUP1 DUP5 PUSH1 0x5 SHL DUP4 ADD ADD SWAP6 ADD SWAP4 PUSH1 0x0 SWAP2 JUMPDEST DUP5 DUP4 LT PUSH2 0xDFF JUMPI POP POP POP POP POP POP SWAP1 JUMP JUMPDEST SWAP1 SWAP2 SWAP3 SWAP4 SWAP5 SWAP6 DUP5 DUP1 PUSH2 0xE31 PUSH1 0x1 SWAP4 PUSH1 0x1F NOT DUP7 DUP3 SUB ADD DUP8 MSTORE DUP3 DUP12 MLOAD DUP1 MLOAD ISZERO ISZERO DUP4 MSTORE ADD MLOAD SWAP1 PUSH1 0x40 SWAP1 DUP2 DUP6 DUP3 ADD MSTORE ADD SWAP1 PUSH2 0xD69 JUMP JUMPDEST SWAP9 ADD SWAP4 ADD SWAP4 ADD SWAP2 SWAP5 SWAP4 SWAP3 SWAP1 PUSH2 0xDEF JUMP JUMPDEST ISZERO PUSH2 0xE48 JUMPI JUMP JUMPDEST PUSH1 0x40 MLOAD PUSH3 0x461BCD PUSH1 0xE5 SHL DUP2 MSTORE PUSH1 0x20 PUSH1 0x4 DUP3 ADD MSTORE PUSH1 0x18 PUSH1 0x24 DUP3 ADD MSTORE PUSH32 0x4D756C746963616C6C2F6E6F742D617574686F72697A65640000000000000000 PUSH1 0x44 DUP3 ADD MSTORE PUSH1 0x64 SWAP1 REVERT JUMPDEST ISZERO PUSH2 0xE94 JUMPI JUMP JUMPDEST PUSH1 0x40 MLOAD PUSH3 0x461BCD PUSH1 0xE5 SHL DUP2 MSTORE PUSH1 0x20 PUSH1 0x4 DUP3 ADD MSTORE PUSH1 0x12 PUSH1 0x24 DUP3 ADD MSTORE PUSH18 0x4D756C746963616C6C2F6E6F742D6C697665 PUSH1 0x70 SHL PUSH1 0x44 DUP3 ADD MSTORE PUSH1 0x64 SWAP1 REVERT JUMPDEST PUSH1 0x0 NOT DUP2 EQ PUSH2 0xEDD JUMPI PUSH1 0x1 ADD SWAP1 JUMP JUMPDEST PUSH4 0x4E487B71 PUSH1 0xE0 SHL PUSH1 0x0 MSTORE PUSH1 0x11 PUSH1 0x4 MSTORE PUSH1 0x24 PUSH1 0x0 REVERT JUMPDEST DUP1 MLOAD ISZERO PUSH2 0xF00 JUMPI PUSH1 0x20 ADD SWAP1 JUMP JUMPDEST PUSH4 0x4E487B71 PUSH1 0xE0 SHL PUSH1 0x0 MSTORE PUSH1 0x32 PUSH1 0x4 MSTORE PUSH1 0x24 PUSH1 0x0 REVERT JUMPDEST DUP1 MLOAD PUSH1 0x1 LT ISZERO PUSH2 0xF00 JUMPI PUSH1 0x40 ADD SWAP1 JUMP JUMPDEST DUP1 MLOAD PUSH1 0x2 LT ISZERO PUSH2 0xF00 JUMPI PUSH1 0x60 ADD SWAP1 JUMP JUMPDEST DUP1 MLOAD PUSH1 0x3 LT ISZERO PUSH2 0xF00 JUMPI PUSH1 0x80 ADD SWAP1 JUMP JUMPDEST DUP1 MLOAD DUP3 LT ISZERO PUSH2 0xF00 JUMPI PUSH1 0x20 SWAP2 PUSH1 0x5 SHL ADD ADD SWAP1 JUMP JUMPDEST RETURNDATASIZE ISZERO PUSH2 0xF85 JUMPI RETURNDATASIZE SWAP1 PUSH2 0xF6B DUP3 PUSH2 0xC44 JUMP JUMPDEST SWAP2 PUSH2 0xF79 PUSH1 0x40 MLOAD SWAP4 DUP5 PUSH2 0xBF1 JUMP JUMPDEST DUP3 MSTORE RETURNDATASIZE PUSH1 0x0 PUSH1 0x20 DUP5 ADD RETURNDATACOPY JUMP JUMPDEST PUSH1 0x60 SWAP1 JUMP JUMPDEST ISZERO PUSH2 0xF91 JUMPI JUMP JUMPDEST PUSH1 0x40 MLOAD PUSH3 0x461BCD PUSH1 0xE5 SHL DUP2 MSTORE PUSH1 0x20 PUSH1 0x4 DUP3 ADD MSTORE PUSH1 0x15 PUSH1 0x24 DUP3 ADD MSTORE PUSH21 0x135D5B1D1A58D85B1B0BD8D85B1B0B59985A5B1959 PUSH1 0x5A SHL PUSH1 0x44 DUP3 ADD MSTORE PUSH1 0x64 SWAP1 REVERT JUMPDEST PUSH1 0x40 MLOAD SWAP1 PUSH2 0xFDB DUP3 PUSH2 0xBA5 JUMP JUMPDEST PUSH1 0x60 PUSH1 0x20 DUP4 PUSH1 0x0 DUP2 MSTORE ADD MSTORE JUMP INVALID LOG2 PUSH5 0x6970667358 0x22 SLT KECCAK256 STATICCALL 0xEB 0xD0 SWAP13 DUP6 LOG0 0x25 PUSH24 0x4D3D9E3B6A6609B71B3407C895B7608A64AE1D3686C3F6FE PUSH5 0x736F6C6343 STOP ADDMOD SGT STOP CALLER "},"methodIdentifiers":{"aggregate((address,bytes)[])":"252dba42","blockAndAggregate((address,bytes)[])":"c3077fa9","cage()":"69245009","createCDPBatch(address,address,address,address,bytes32,uint256,uint256)":"4ed5a4cd","decodeAddress(bytes)":"af91c8aa","decodeBool(bytes)":"c62173d0","decodeUint256(bytes)":"6d78dc9c","deny(address)":"9c52a7f1","encodeCall(address,bytes)":"5b76f28b","getBlockHash(uint256)":"ee82ac5e","getBlockNumber()":"42cbb15c","getChainId()":"3408e470","getCurrentBlockCoinbase()":"a8b0574e","getCurrentBlockDifficulty()":"72425d9d","getCurrentBlockGasLimit()":"86d516e8","getCurrentBlockTimestamp()":"0f28c97d","getEthBalance(address)":"4d2301cc","getLastBlockHash()":"27e86d6e","live()":"957aa58c","rely(address)":"65fae35e","tryAggregate(bool,(address,bytes)[])":"bce38bd7","wards(address)":"bf353dbb"}}}}}