{"contracts/Vow.sol":{"Vow":{"abi":[{"inputs":[{"internalType":"address","name":"vat_","type":"address"},{"internalType":"address","name":"flapper_","type":"address"},{"internalType":"address","name":"flopper_","type":"address"}],"stateMutability":"nonpayable","type":"constructor"},{"anonymous":false,"inputs":[],"name":"Cage","type":"event"},{"anonymous":false,"inputs":[{"indexed":true,"internalType":"uint256","name":"era","type":"uint256"},{"indexed":false,"internalType":"uint256","name":"tab","type":"uint256"}],"name":"Fess","type":"event"},{"anonymous":false,"inputs":[{"indexed":true,"internalType":"uint256","name":"id","type":"uint256"},{"indexed":false,"internalType":"uint256","name":"lot","type":"uint256"},{"indexed":false,"internalType":"uint256","name":"bid","type":"uint256"}],"name":"Flap","type":"event"},{"anonymous":false,"inputs":[{"indexed":true,"internalType":"uint256","name":"era","type":"uint256"},{"indexed":false,"internalType":"uint256","name":"tab","type":"uint256"}],"name":"Flog","type":"event"},{"anonymous":false,"inputs":[{"indexed":true,"internalType":"uint256","name":"id","type":"uint256"},{"indexed":false,"internalType":"uint256","name":"lot","type":"uint256"},{"indexed":false,"internalType":"uint256","name":"bid","type":"uint256"}],"name":"Flop","type":"event"},{"anonymous":false,"inputs":[{"indexed":false,"internalType":"uint256","name":"rad","type":"uint256"}],"name":"Heal","type":"event"},{"anonymous":false,"inputs":[{"indexed":false,"internalType":"uint256","name":"rad","type":"uint256"}],"name":"Kiss","type":"event"},{"inputs":[],"name":"Ash","outputs":[{"internalType":"uint256","name":"","type":"uint256"}],"stateMutability":"view","type":"function"},{"inputs":[],"name":"Sin","outputs":[{"internalType":"uint256","name":"","type":"uint256"}],"stateMutability":"view","type":"function"},{"inputs":[],"name":"bump","outputs":[{"internalType":"uint256","name":"","type":"uint256"}],"stateMutability":"view","type":"function"},{"inputs":[],"name":"cage","outputs":[],"stateMutability":"nonpayable","type":"function"},{"inputs":[{"internalType":"address","name":"usr","type":"address"}],"name":"deny","outputs":[],"stateMutability":"nonpayable","type":"function"},{"inputs":[],"name":"dump","outputs":[{"internalType":"uint256","name":"","type":"uint256"}],"stateMutability":"view","type":"function"},{"inputs":[{"internalType":"uint256","name":"tab","type":"uint256"}],"name":"fess","outputs":[],"stateMutability":"nonpayable","type":"function"},{"inputs":[{"internalType":"bytes32","name":"what","type":"bytes32"},{"internalType":"uint256","name":"data","type":"uint256"}],"name":"file","outputs":[],"stateMutability":"nonpayable","type":"function"},{"inputs":[{"internalType":"bytes32","name":"what","type":"bytes32"},{"internalType":"address","name":"data","type":"address"}],"name":"file","outputs":[],"stateMutability":"nonpayable","type":"function"},{"inputs":[],"name":"flap","outputs":[{"internalType":"uint256","name":"id","type":"uint256"}],"stateMutability":"nonpayable","type":"function"},{"inputs":[],"name":"flapper","outputs":[{"internalType":"contract FlapLike","name":"","type":"address"}],"stateMutability":"view","type":"function"},{"inputs":[{"internalType":"uint256","name":"era","type":"uint256"}],"name":"flog","outputs":[],"stateMutability":"nonpayable","type":"function"},{"inputs":[],"name":"flop","outputs":[{"internalType":"uint256","name":"id","type":"uint256"}],"stateMutability":"nonpayable","type":"function"},{"inputs":[],"name":"flopper","outputs":[{"internalType":"contract FlopLike","name":"","type":"address"}],"stateMutability":"view","type":"function"},{"inputs":[{"internalType":"uint256","name":"rad","type":"uint256"}],"name":"heal","outputs":[],"stateMutability":"nonpayable","type":"function"},{"inputs":[],"name":"hump","outputs":[{"internalType":"uint256","name":"","type":"uint256"}],"stateMutability":"view","type":"function"},{"inputs":[{"internalType":"uint256","name":"rad","type":"uint256"}],"name":"kiss","outputs":[],"stateMutability":"nonpayable","type":"function"},{"inputs":[],"name":"live","outputs":[{"internalType":"uint256","name":"","type":"uint256"}],"stateMutability":"view","type":"function"},{"inputs":[{"internalType":"address","name":"usr","type":"address"}],"name":"rely","outputs":[],"stateMutability":"nonpayable","type":"function"},{"inputs":[{"internalType":"uint256","name":"","type":"uint256"}],"name":"sin","outputs":[{"internalType":"uint256","name":"","type":"uint256"}],"stateMutability":"view","type":"function"},{"inputs":[],"name":"sump","outputs":[{"internalType":"uint256","name":"","type":"uint256"}],"stateMutability":"view","type":"function"},{"inputs":[],"name":"vat","outputs":[{"internalType":"contract VatLike","name":"","type":"address"}],"stateMutability":"view","type":"function"},{"inputs":[],"name":"wait","outputs":[{"internalType":"uint256","name":"","type":"uint256"}],"stateMutability":"view","type":"function"},{"inputs":[{"internalType":"address","name":"","type":"address"}],"name":"wards","outputs":[{"internalType":"uint256","name":"","type":"uint256"}],"stateMutability":"view","type":"function"}],"evm":{"bytecode":{"linkReferences":{},"object":"6080346200012f57601f6200137b38819003918201601f1916830192916001600160401b039182851184861017620001345781606092859260409788528339810103126200012f5762000052826200014a565b6200006d8462000065602086016200014a565b94016200014a565b6000933385528460205260018686205560018060a01b03809316928060018060a01b0319928584600154161760015516928383600254161760025516906003541617600355813b156200012b5783929160248492875196879384926328ec8bf160e21b845260048401525af180156200012157620000fa575b836001600c555161121b9081620001608239f35b82116200010d57508152388080620000e6565b634e487b7160e01b81526041600452602490fd5b84513d84823e3d90fd5b8380fd5b600080fd5b634e487b7160e01b600052604160045260246000fd5b51906001600160a01b03821682036200012f5756fe6080604081815260048036101561001557600080fd5b600092833560e01c9081630e01198b14610ded575080631b8e8cfa14610dce5780632506855a14610c4e57806329ae811414610baf5780632a1d2b3c14610b9057806336569e7714610b675780634081d73a14610b3e5780635ca0d72314610b1557806364bd701314610af657806365fae35e14610ab057806368110b2f14610a9157806369245009146108de578063697efb7814610857578063957aa58c14610838578381639c52a7f1146107ee57508063bbbb0d7b146105e8578063bf353dbb146105b1578063c349d36214610592578063cb5cc1091461056c578063d0adc35f1461054d578063d4e8be83146103a9578063d7ee674b146102ed578063e4330545146102ca5763f37ac61c1461012d57600080fd5b3461024e5760209081600319360112610240576001548351633612d9a360e11b8152308184015282359286926001600160a01b0316918581602481865afa90811561028c578491610296575b506101869085111561115e565b855163782c909560e11b815230828201528581602481865afa90811561028c578491610252575b506101ca6101c16101d29260055490611151565b60065490611151565b8511156111a1565b813b1561024e5783602484928389519586948593633cdeb18760e21b85528401525af180156102445761022c575b50507f917d6982889419f491488c036c2e6abe788b07222064ab462158ec64ca2c4db79251908152a180f35b610235906110db565b610240578338610200565b8380fd5b85513d84823e3d90fd5b8280fd5b809450868092503d8311610285575b61026b8183611105565b810103126102805791518692906101ca6101ad565b600080fd5b503d610261565b87513d86823e3d90fd5b809450868092503d83116102c3575b6102af8183611105565b810103126102805761018687935190610179565b503d6102a5565b5050346102e957816003193601126102e9576020906008549051908152f35b5080fd5b509190346102e9576020928360031936011261024e57803561031160075482611127565b421061036f579383946103306005548287528484528587205490611151565b600555808552828252807f77f6d637bdb297972e16e03f99afbda73b21a36342b99e24dca178d404e6ab9f83868820548751908152a284525281205580f35b5083606492519162461bcd60e51b83528201526015602482015274159bddcbddd85a5d0b5b9bdd0b599a5b9a5cda1959605a1b6044820152fd5b503461024e578160031936011261024e578035916024356001600160a01b038181169391849003610280578594338652856020526103ec6001858820541461109a565b66333630b83832b960c91b81036104c8575080600154168160025416813b156104c45786916024839287519485938492636e26907d60e11b8452898401525af180156104ba579086916104a6575b5050600280546001600160a01b031916851790556001541692833b156104a2576024859283855196879485936328ec8bf160e21b85528401525af1908115610499575061048657505080f35b61048f906110db565b6104965780f35b80fd5b513d84823e3d90fd5b8480fd5b6104af906110db565b6104a257843861043a565b84513d88823e3d90fd5b8680fd5b939450909266333637b83832b960c91b141590506104fd5750506bffffffffffffffffffffffff60a01b600354161760035580f35b61054992505191829162461bcd60e51b8352820160609060208152601b60208201527f566f772f66696c652d756e7265636f676e697a65642d706172616d000000000060408201520190565b0390fd5b5050346102e957816003193601126102e9576020906005549051908152f35b503461024e57602036600319011261024e57602092818392358252845220549051908152f35b5050346102e957816003193601126102e9576020906009549051908152f35b5050346102e95760203660031901126102e95760209181906001600160a01b036105d9611084565b16815280845220549051908152f35b509190346102e957816003193601126102e957600954600154825163782c909560e11b81523081870152602095916001600160a01b0391908216908781602481855afa9081156107b557889088926107bf575b5061064b60249260055490611151565b9261066461065c6006548096611151565b8811156111a1565b8751633612d9a360e11b8152308782015292839182905afa9081156107b5578791610788575b5061074e5786929161069e85606493611127565b6006556003541691866008549387519687958694632dfa734960e21b86523090860152602485015260448401525af19283156107435792610714575b50817f71220da0d6a18fdcb119b93d05387ffc264a73b9a1fda95000aeeae4ca846a5f82600854600954825191825287820152a251908152f35b9091508281813d831161073c575b61072c8183611105565b81010312610280575190386106da565b503d610722565b8251903d90823e3d90fd5b845162461bcd60e51b81528084018890526014602482015273566f772f737572706c75732d6e6f742d7a65726f60601b6044820152606490fd5b90508781813d83116107ae575b61079f8183611105565b8101031261028057513861068a565b503d610795565b86513d89823e3d90fd5b809250813d83116107e7575b6107d58183611105565b8101031261028057518761064b61063b565b503d6107cb565b80843461083557602036600319011261083557610809611084565b3383528260205261081f6001838520541461109a565b6001600160a01b03168252602082905281205580f35b50fd5b5050346102e957816003193601126102e957602090600c549051908152f35b50903461024e57602036600319011261024e57813591338452836020526108836001838620541461109a565b428452806020526108978383862054611127565b90428552602052818420556108ae82600554611127565b600555519081527fec6aabc8ebabf9cf9e97376009d8c9a2d2807697fead1b96074a1e786276fb0860204292a280f35b508290346102e957816003193601126102e9573382526020928284526109096001828520541461109a565b6001600c5403610a6057829383600c55836005558360065560018060a01b03908160025416906024818460015416865192838092633612d9a360e11b8252308b8301525afa918215610a56578792610a25575b5050813b15610a21578591602483928651948593849263517c8d7960e11b84528a8401525af18015610a1757908591610a03575b50506003541691823b156109fe578151636924500960e01b81529284918491829084905af190811561049957506109ea575b50807f2308ed18a14e800c39b86eb6ea43270105955ca385b603b64eca89f98ae8fbda91a180f35b6109f3906110db565b6104965780826109c2565b505050fd5b610a0c906110db565b6109fe578386610990565b83513d87823e3d90fd5b8580fd5b8197508092503d8311610a4f575b610a3d8183611105565b8101031261028057859451878061095c565b503d610a33565b85513d89823e3d90fd5b5162461bcd60e51b8152908101839052600c60248201526b566f772f6e6f742d6c69766560a01b6044820152606490fd5b5050346102e957816003193601126102e957602090600a549051908152f35b5050346102e95760203660031901126102e957600190610ace611084565b33845283602052610ae383838620541461109a565b828060a01b031683528260205282205580f35b5050346102e957816003193601126102e9576020906007549051908152f35b5050346102e957816003193601126102e95760025490516001600160a01b039091168152602090f35b5050346102e957816003193601126102e95760035490516001600160a01b039091168152602090f35b5050346102e957816003193601126102e95760015490516001600160a01b039091168152602090f35b5050346102e957816003193601126102e9576020906006549051908152f35b503461024e578160031936011261024e578035916024359233855284602052610bdd6001838720541461109a565b631dd85a5d60e21b8103610bf45750505060075580f35b63064756d760e41b8103610c0b5750505060085580f35b63073756d760e41b8103610c225750505060095580f35b63062756d760e41b8103610c3957505050600a5580f35b63068756d760e41b036104fd575050600b5580f35b508290346102e9576020908160031936011261024e57600654813591818311610d96576001548651633612d9a360e11b815230838201526001600160a01b0390911692908581602481875afa908115610d8c579085918891610d59575b5091610cbc610cc19383111561115e565b611151565b600655813b156104a25782602486928389519586948593633cdeb18760e21b85528401525af18015610d4f57610d1e575b507fdf1d0254f949dd4607095c8a45ed43a96d548776dbb1d6e8347513d07b109e9b929351908152a180f35b92610d497fdf1d0254f949dd4607095c8a45ed43a96d548776dbb1d6e8347513d07b109e9b946110db565b92610cf2565b85513d86823e3d90fd5b809250878092503d8311610d85575b610d728183611105565b810103126104c457518490610cbc610cab565b503d610d68565b88513d89823e3d90fd5b855162461bcd60e51b815290810184905260126024820152710acdeee5edcdee85acadcdeeaced05ac2e6d60731b6044820152606490fd5b5050346102e957816003193601126102e957602090600b549051908152f35b82848634610496578060031936011261049657600154633612d9a360e11b8552308486015260209460249490916001600160a01b0390811687848881845afa938415610fda578594611055575b50855163782c909560e11b8082523085830152909489868a81865afa958615610d8c578796611026575b50610e72600a548097611127565b11610fe457889088885180948193825230888301525afa908115610fda578591610fab575b506101c1610ea89160055490611151565b610f75578692918460449260025416818851998a96879563ca40c41960e01b87528601528401525af1928315610f69578193610f18575b507fbdddd1971eeec114baaa6f1eb123c0f9f9a713ff6374b8d93f711205d472ecc3828492600a5490825191825287820152a251908152f35b909192508381813d8311610f62575b610f318183611105565b810103126102e9575191907fbdddd1971eeec114baaa6f1eb123c0f9f9a713ff6374b8d93f711205d472ecc3610edf565b503d610f27565b509051903d90823e3d90fd5b845162461bcd60e51b815280830188905260118188015270566f772f646562742d6e6f742d7a65726f60781b6044820152606490fd5b90508781813d8311610fd3575b610fc28183611105565b810103126104a257516101c1610e97565b503d610fb8565b86513d87823e3d90fd5b865162461bcd60e51b81528085018a90526018818a01527f566f772f696e73756666696369656e742d737572706c757300000000000000006044820152606490fd5b9095508981813d831161104e575b61103e8183611105565b810103126104c45751948a610e64565b503d611034565b9093508781813d831161107d575b61106d8183611105565b810103126104a257519288610e3a565b503d611063565b600435906001600160a01b038216820361028057565b156110a157565b60405162461bcd60e51b8152602060048201526012602482015271159bddcbdb9bdd0b585d5d1a1bdc9a5e995960721b6044820152606490fd5b67ffffffffffffffff81116110ef57604052565b634e487b7160e01b600052604160045260246000fd5b90601f8019910116810190811067ffffffffffffffff8211176110ef57604052565b919082019182811161113b57821061028057565b634e487b7160e01b600052601160045260246000fd5b90810390811161113b5790565b1561116557565b60405162461bcd60e51b8152602060048201526014602482015273566f772f696e73756666696369656e742d64616960601b6044820152606490fd5b156111a857565b60405162461bcd60e51b8152602060048201526015602482015274159bddcbda5b9cdd59999a58da595b9d0b5919589d605a1b6044820152606490fdfea2646970667358221220637482408c708c8b85c480cb2d4ac406707352c1e39d83dc735334ceefb07cd064736f6c63430008130033","opcodes":"PUSH1 0x80 CALLVALUE PUSH3 0x12F JUMPI PUSH1 0x1F PUSH3 0x137B CODESIZE DUP2 SWAP1 SUB SWAP2 DUP3 ADD PUSH1 0x1F NOT AND DUP4 ADD SWAP3 SWAP2 PUSH1 0x1 PUSH1 0x1 PUSH1 0x40 SHL SUB SWAP2 DUP3 DUP6 GT DUP5 DUP7 LT OR PUSH3 0x134 JUMPI DUP2 PUSH1 0x60 SWAP3 DUP6 SWAP3 PUSH1 0x40 SWAP8 DUP9 MSTORE DUP4 CODECOPY DUP2 ADD SUB SLT PUSH3 0x12F JUMPI PUSH3 0x52 DUP3 PUSH3 0x14A JUMP JUMPDEST PUSH3 0x6D DUP5 PUSH3 0x65 PUSH1 0x20 DUP7 ADD PUSH3 0x14A JUMP JUMPDEST SWAP5 ADD PUSH3 0x14A JUMP JUMPDEST PUSH1 0x0 SWAP4 CALLER DUP6 MSTORE DUP5 PUSH1 0x20 MSTORE PUSH1 0x1 DUP7 DUP7 KECCAK256 SSTORE PUSH1 0x1 DUP1 PUSH1 0xA0 SHL SUB DUP1 SWAP4 AND SWAP3 DUP1 PUSH1 0x1 DUP1 PUSH1 0xA0 SHL SUB NOT SWAP3 DUP6 DUP5 PUSH1 0x1 SLOAD AND OR PUSH1 0x1 SSTORE AND SWAP3 DUP4 DUP4 PUSH1 0x2 SLOAD AND OR PUSH1 0x2 SSTORE AND SWAP1 PUSH1 0x3 SLOAD AND OR PUSH1 0x3 SSTORE DUP2 EXTCODESIZE ISZERO PUSH3 0x12B JUMPI DUP4 SWAP3 SWAP2 PUSH1 0x24 DUP5 SWAP3 DUP8 MLOAD SWAP7 DUP8 SWAP4 DUP5 SWAP3 PUSH4 0x28EC8BF1 PUSH1 0xE2 SHL DUP5 MSTORE PUSH1 0x4 DUP5 ADD MSTORE GAS CALL DUP1 ISZERO PUSH3 0x121 JUMPI PUSH3 0xFA JUMPI JUMPDEST DUP4 PUSH1 0x1 PUSH1 0xC SSTORE MLOAD PUSH2 0x121B SWAP1 DUP2 PUSH3 0x160 DUP3 CODECOPY RETURN JUMPDEST DUP3 GT PUSH3 0x10D JUMPI POP DUP2 MSTORE CODESIZE DUP1 DUP1 PUSH3 0xE6 JUMP JUMPDEST PUSH4 0x4E487B71 PUSH1 0xE0 SHL DUP2 MSTORE PUSH1 0x41 PUSH1 0x4 MSTORE PUSH1 0x24 SWAP1 REVERT JUMPDEST DUP5 MLOAD RETURNDATASIZE DUP5 DUP3 RETURNDATACOPY RETURNDATASIZE SWAP1 REVERT JUMPDEST DUP4 DUP1 REVERT JUMPDEST PUSH1 0x0 DUP1 REVERT JUMPDEST PUSH4 0x4E487B71 PUSH1 0xE0 SHL PUSH1 0x0 MSTORE PUSH1 0x41 PUSH1 0x4 MSTORE PUSH1 0x24 PUSH1 0x0 REVERT JUMPDEST MLOAD SWAP1 PUSH1 0x1 PUSH1 0x1 PUSH1 0xA0 SHL SUB DUP3 AND DUP3 SUB PUSH3 0x12F JUMPI JUMP INVALID PUSH1 0x80 PUSH1 0x40 DUP2 DUP2 MSTORE PUSH1 0x4 DUP1 CALLDATASIZE LT ISZERO PUSH2 0x15 JUMPI PUSH1 0x0 DUP1 REVERT JUMPDEST PUSH1 0x0 SWAP3 DUP4 CALLDATALOAD PUSH1 0xE0 SHR SWAP1 DUP2 PUSH4 0xE01198B EQ PUSH2 0xDED JUMPI POP DUP1 PUSH4 0x1B8E8CFA EQ PUSH2 0xDCE JUMPI DUP1 PUSH4 0x2506855A EQ PUSH2 0xC4E JUMPI DUP1 PUSH4 0x29AE8114 EQ PUSH2 0xBAF JUMPI DUP1 PUSH4 0x2A1D2B3C EQ PUSH2 0xB90 JUMPI DUP1 PUSH4 0x36569E77 EQ PUSH2 0xB67 JUMPI DUP1 PUSH4 0x4081D73A EQ PUSH2 0xB3E JUMPI DUP1 PUSH4 0x5CA0D723 EQ PUSH2 0xB15 JUMPI DUP1 PUSH4 0x64BD7013 EQ PUSH2 0xAF6 JUMPI DUP1 PUSH4 0x65FAE35E EQ PUSH2 0xAB0 JUMPI DUP1 PUSH4 0x68110B2F EQ PUSH2 0xA91 JUMPI DUP1 PUSH4 0x69245009 EQ PUSH2 0x8DE JUMPI DUP1 PUSH4 0x697EFB78 EQ PUSH2 0x857 JUMPI DUP1 PUSH4 0x957AA58C EQ PUSH2 0x838 JUMPI DUP4 DUP2 PUSH4 0x9C52A7F1 EQ PUSH2 0x7EE JUMPI POP DUP1 PUSH4 0xBBBB0D7B EQ PUSH2 0x5E8 JUMPI DUP1 PUSH4 0xBF353DBB EQ PUSH2 0x5B1 JUMPI DUP1 PUSH4 0xC349D362 EQ PUSH2 0x592 JUMPI DUP1 PUSH4 0xCB5CC109 EQ PUSH2 0x56C JUMPI DUP1 PUSH4 0xD0ADC35F EQ PUSH2 0x54D JUMPI DUP1 PUSH4 0xD4E8BE83 EQ PUSH2 0x3A9 JUMPI DUP1 PUSH4 0xD7EE674B EQ PUSH2 0x2ED JUMPI DUP1 PUSH4 0xE4330545 EQ PUSH2 0x2CA JUMPI PUSH4 0xF37AC61C EQ PUSH2 0x12D JUMPI PUSH1 0x0 DUP1 REVERT JUMPDEST CALLVALUE PUSH2 0x24E JUMPI PUSH1 0x20 SWAP1 DUP2 PUSH1 0x3 NOT CALLDATASIZE ADD SLT PUSH2 0x240 JUMPI PUSH1 0x1 SLOAD DUP4 MLOAD PUSH4 0x3612D9A3 PUSH1 0xE1 SHL DUP2 MSTORE ADDRESS DUP2 DUP5 ADD MSTORE DUP3 CALLDATALOAD SWAP3 DUP7 SWAP3 PUSH1 0x1 PUSH1 0x1 PUSH1 0xA0 SHL SUB AND SWAP2 DUP6 DUP2 PUSH1 0x24 DUP2 DUP7 GAS STATICCALL SWAP1 DUP2 ISZERO PUSH2 0x28C JUMPI DUP5 SWAP2 PUSH2 0x296 JUMPI JUMPDEST POP PUSH2 0x186 SWAP1 DUP6 GT ISZERO PUSH2 0x115E JUMP JUMPDEST DUP6 MLOAD PUSH4 0x782C9095 PUSH1 0xE1 SHL DUP2 MSTORE ADDRESS DUP3 DUP3 ADD MSTORE DUP6 DUP2 PUSH1 0x24 DUP2 DUP7 GAS STATICCALL SWAP1 DUP2 ISZERO PUSH2 0x28C JUMPI DUP5 SWAP2 PUSH2 0x252 JUMPI JUMPDEST POP PUSH2 0x1CA PUSH2 0x1C1 PUSH2 0x1D2 SWAP3 PUSH1 0x5 SLOAD SWAP1 PUSH2 0x1151 JUMP JUMPDEST PUSH1 0x6 SLOAD SWAP1 PUSH2 0x1151 JUMP JUMPDEST DUP6 GT ISZERO PUSH2 0x11A1 JUMP JUMPDEST DUP2 EXTCODESIZE ISZERO PUSH2 0x24E JUMPI DUP4 PUSH1 0x24 DUP5 SWAP3 DUP4 DUP10 MLOAD SWAP6 DUP7 SWAP5 DUP6 SWAP4 PUSH4 0x3CDEB187 PUSH1 0xE2 SHL DUP6 MSTORE DUP5 ADD MSTORE GAS CALL DUP1 ISZERO PUSH2 0x244 JUMPI PUSH2 0x22C JUMPI JUMPDEST POP POP PUSH32 0x917D6982889419F491488C036C2E6ABE788B07222064AB462158EC64CA2C4DB7 SWAP3 MLOAD SWAP1 DUP2 MSTORE LOG1 DUP1 RETURN JUMPDEST PUSH2 0x235 SWAP1 PUSH2 0x10DB JUMP JUMPDEST PUSH2 0x240 JUMPI DUP4 CODESIZE PUSH2 0x200 JUMP JUMPDEST DUP4 DUP1 REVERT JUMPDEST DUP6 MLOAD RETURNDATASIZE DUP5 DUP3 RETURNDATACOPY RETURNDATASIZE SWAP1 REVERT JUMPDEST DUP3 DUP1 REVERT JUMPDEST DUP1 SWAP5 POP DUP7 DUP1 SWAP3 POP RETURNDATASIZE DUP4 GT PUSH2 0x285 JUMPI JUMPDEST PUSH2 0x26B DUP2 DUP4 PUSH2 0x1105 JUMP JUMPDEST DUP2 ADD SUB SLT PUSH2 0x280 JUMPI SWAP2 MLOAD DUP7 SWAP3 SWAP1 PUSH2 0x1CA PUSH2 0x1AD JUMP JUMPDEST PUSH1 0x0 DUP1 REVERT JUMPDEST POP RETURNDATASIZE PUSH2 0x261 JUMP JUMPDEST DUP8 MLOAD RETURNDATASIZE DUP7 DUP3 RETURNDATACOPY RETURNDATASIZE SWAP1 REVERT JUMPDEST DUP1 SWAP5 POP DUP7 DUP1 SWAP3 POP RETURNDATASIZE DUP4 GT PUSH2 0x2C3 JUMPI JUMPDEST PUSH2 0x2AF DUP2 DUP4 PUSH2 0x1105 JUMP JUMPDEST DUP2 ADD SUB SLT PUSH2 0x280 JUMPI PUSH2 0x186 DUP8 SWAP4 MLOAD SWAP1 PUSH2 0x179 JUMP JUMPDEST POP RETURNDATASIZE PUSH2 0x2A5 JUMP JUMPDEST POP POP CALLVALUE PUSH2 0x2E9 JUMPI DUP2 PUSH1 0x3 NOT CALLDATASIZE ADD SLT PUSH2 0x2E9 JUMPI PUSH1 0x20 SWAP1 PUSH1 0x8 SLOAD SWAP1 MLOAD SWAP1 DUP2 MSTORE RETURN JUMPDEST POP DUP1 REVERT JUMPDEST POP SWAP2 SWAP1 CALLVALUE PUSH2 0x2E9 JUMPI PUSH1 0x20 SWAP3 DUP4 PUSH1 0x3 NOT CALLDATASIZE ADD SLT PUSH2 0x24E JUMPI DUP1 CALLDATALOAD PUSH2 0x311 PUSH1 0x7 SLOAD DUP3 PUSH2 0x1127 JUMP JUMPDEST TIMESTAMP LT PUSH2 0x36F JUMPI SWAP4 DUP4 SWAP5 PUSH2 0x330 PUSH1 0x5 SLOAD DUP3 DUP8 MSTORE DUP5 DUP5 MSTORE DUP6 DUP8 KECCAK256 SLOAD SWAP1 PUSH2 0x1151 JUMP JUMPDEST PUSH1 0x5 SSTORE DUP1 DUP6 MSTORE DUP3 DUP3 MSTORE DUP1 PUSH32 0x77F6D637BDB297972E16E03F99AFBDA73B21A36342B99E24DCA178D404E6AB9F DUP4 DUP7 DUP9 KECCAK256 SLOAD DUP8 MLOAD SWAP1 DUP2 MSTORE LOG2 DUP5 MSTORE MSTORE DUP2 KECCAK256 SSTORE DUP1 RETURN JUMPDEST POP DUP4 PUSH1 0x64 SWAP3 MLOAD SWAP2 PUSH3 0x461BCD PUSH1 0xE5 SHL DUP4 MSTORE DUP3 ADD MSTORE PUSH1 0x15 PUSH1 0x24 DUP3 ADD MSTORE PUSH21 0x159BDDCBDDD85A5D0B5B9BDD0B599A5B9A5CDA1959 PUSH1 0x5A SHL PUSH1 0x44 DUP3 ADD MSTORE REVERT JUMPDEST POP CALLVALUE PUSH2 0x24E JUMPI DUP2 PUSH1 0x3 NOT CALLDATASIZE ADD SLT PUSH2 0x24E JUMPI DUP1 CALLDATALOAD SWAP2 PUSH1 0x24 CALLDATALOAD PUSH1 0x1 PUSH1 0x1 PUSH1 0xA0 SHL SUB DUP2 DUP2 AND SWAP4 SWAP2 DUP5 SWAP1 SUB PUSH2 0x280 JUMPI DUP6 SWAP5 CALLER DUP7 MSTORE DUP6 PUSH1 0x20 MSTORE PUSH2 0x3EC PUSH1 0x1 DUP6 DUP9 KECCAK256 SLOAD EQ PUSH2 0x109A JUMP JUMPDEST PUSH7 0x333630B83832B9 PUSH1 0xC9 SHL DUP2 SUB PUSH2 0x4C8 JUMPI POP DUP1 PUSH1 0x1 SLOAD AND DUP2 PUSH1 0x2 SLOAD AND DUP2 EXTCODESIZE ISZERO PUSH2 0x4C4 JUMPI DUP7 SWAP2 PUSH1 0x24 DUP4 SWAP3 DUP8 MLOAD SWAP5 DUP6 SWAP4 DUP5 SWAP3 PUSH4 0x6E26907D PUSH1 0xE1 SHL DUP5 MSTORE DUP10 DUP5 ADD MSTORE GAS CALL DUP1 ISZERO PUSH2 0x4BA JUMPI SWAP1 DUP7 SWAP2 PUSH2 0x4A6 JUMPI JUMPDEST POP POP PUSH1 0x2 DUP1 SLOAD PUSH1 0x1 PUSH1 0x1 PUSH1 0xA0 SHL SUB NOT AND DUP6 OR SWAP1 SSTORE PUSH1 0x1 SLOAD AND SWAP3 DUP4 EXTCODESIZE ISZERO PUSH2 0x4A2 JUMPI PUSH1 0x24 DUP6 SWAP3 DUP4 DUP6 MLOAD SWAP7 DUP8 SWAP5 DUP6 SWAP4 PUSH4 0x28EC8BF1 PUSH1 0xE2 SHL DUP6 MSTORE DUP5 ADD MSTORE GAS CALL SWAP1 DUP2 ISZERO PUSH2 0x499 JUMPI POP PUSH2 0x486 JUMPI POP POP DUP1 RETURN JUMPDEST PUSH2 0x48F SWAP1 PUSH2 0x10DB JUMP JUMPDEST PUSH2 0x496 JUMPI DUP1 RETURN JUMPDEST DUP1 REVERT JUMPDEST MLOAD RETURNDATASIZE DUP5 DUP3 RETURNDATACOPY RETURNDATASIZE SWAP1 REVERT JUMPDEST DUP5 DUP1 REVERT JUMPDEST PUSH2 0x4AF SWAP1 PUSH2 0x10DB JUMP JUMPDEST PUSH2 0x4A2 JUMPI DUP5 CODESIZE PUSH2 0x43A JUMP JUMPDEST DUP5 MLOAD RETURNDATASIZE DUP9 DUP3 RETURNDATACOPY RETURNDATASIZE SWAP1 REVERT JUMPDEST DUP7 DUP1 REVERT JUMPDEST SWAP4 SWAP5 POP SWAP1 SWAP3 PUSH7 0x333637B83832B9 PUSH1 0xC9 SHL EQ ISZERO SWAP1 POP PUSH2 0x4FD JUMPI POP POP PUSH12 0xFFFFFFFFFFFFFFFFFFFFFFFF PUSH1 0xA0 SHL PUSH1 0x3 SLOAD AND OR PUSH1 0x3 SSTORE DUP1 RETURN JUMPDEST PUSH2 0x549 SWAP3 POP MLOAD SWAP2 DUP3 SWAP2 PUSH3 0x461BCD PUSH1 0xE5 SHL DUP4 MSTORE DUP3 ADD PUSH1 0x60 SWAP1 PUSH1 0x20 DUP2 MSTORE PUSH1 0x1B PUSH1 0x20 DUP3 ADD MSTORE PUSH32 0x566F772F66696C652D756E7265636F676E697A65642D706172616D0000000000 PUSH1 0x40 DUP3 ADD MSTORE ADD SWAP1 JUMP JUMPDEST SUB SWAP1 REVERT JUMPDEST POP POP CALLVALUE PUSH2 0x2E9 JUMPI DUP2 PUSH1 0x3 NOT CALLDATASIZE ADD SLT PUSH2 0x2E9 JUMPI PUSH1 0x20 SWAP1 PUSH1 0x5 SLOAD SWAP1 MLOAD SWAP1 DUP2 MSTORE RETURN JUMPDEST POP CALLVALUE PUSH2 0x24E JUMPI PUSH1 0x20 CALLDATASIZE PUSH1 0x3 NOT ADD SLT PUSH2 0x24E JUMPI PUSH1 0x20 SWAP3 DUP2 DUP4 SWAP3 CALLDATALOAD DUP3 MSTORE DUP5 MSTORE KECCAK256 SLOAD SWAP1 MLOAD SWAP1 DUP2 MSTORE RETURN JUMPDEST POP POP CALLVALUE PUSH2 0x2E9 JUMPI DUP2 PUSH1 0x3 NOT CALLDATASIZE ADD SLT PUSH2 0x2E9 JUMPI PUSH1 0x20 SWAP1 PUSH1 0x9 SLOAD SWAP1 MLOAD SWAP1 DUP2 MSTORE RETURN JUMPDEST POP POP CALLVALUE PUSH2 0x2E9 JUMPI PUSH1 0x20 CALLDATASIZE PUSH1 0x3 NOT ADD SLT PUSH2 0x2E9 JUMPI PUSH1 0x20 SWAP2 DUP2 SWAP1 PUSH1 0x1 PUSH1 0x1 PUSH1 0xA0 SHL SUB PUSH2 0x5D9 PUSH2 0x1084 JUMP JUMPDEST AND DUP2 MSTORE DUP1 DUP5 MSTORE KECCAK256 SLOAD SWAP1 MLOAD SWAP1 DUP2 MSTORE RETURN JUMPDEST POP SWAP2 SWAP1 CALLVALUE PUSH2 0x2E9 JUMPI DUP2 PUSH1 0x3 NOT CALLDATASIZE ADD SLT PUSH2 0x2E9 JUMPI PUSH1 0x9 SLOAD PUSH1 0x1 SLOAD DUP3 MLOAD PUSH4 0x782C9095 PUSH1 0xE1 SHL DUP2 MSTORE ADDRESS DUP2 DUP8 ADD MSTORE PUSH1 0x20 SWAP6 SWAP2 PUSH1 0x1 PUSH1 0x1 PUSH1 0xA0 SHL SUB SWAP2 SWAP1 DUP3 AND SWAP1 DUP8 DUP2 PUSH1 0x24 DUP2 DUP6 GAS STATICCALL SWAP1 DUP2 ISZERO PUSH2 0x7B5 JUMPI DUP9 SWAP1 DUP9 SWAP3 PUSH2 0x7BF JUMPI JUMPDEST POP PUSH2 0x64B PUSH1 0x24 SWAP3 PUSH1 0x5 SLOAD SWAP1 PUSH2 0x1151 JUMP JUMPDEST SWAP3 PUSH2 0x664 PUSH2 0x65C PUSH1 0x6 SLOAD DUP1 SWAP7 PUSH2 0x1151 JUMP JUMPDEST DUP9 GT ISZERO PUSH2 0x11A1 JUMP JUMPDEST DUP8 MLOAD PUSH4 0x3612D9A3 PUSH1 0xE1 SHL DUP2 MSTORE ADDRESS DUP8 DUP3 ADD MSTORE SWAP3 DUP4 SWAP2 DUP3 SWAP1 GAS STATICCALL SWAP1 DUP2 ISZERO PUSH2 0x7B5 JUMPI DUP8 SWAP2 PUSH2 0x788 JUMPI JUMPDEST POP PUSH2 0x74E JUMPI DUP7 SWAP3 SWAP2 PUSH2 0x69E DUP6 PUSH1 0x64 SWAP4 PUSH2 0x1127 JUMP JUMPDEST PUSH1 0x6 SSTORE PUSH1 0x3 SLOAD AND SWAP2 DUP7 PUSH1 0x8 SLOAD SWAP4 DUP8 MLOAD SWAP7 DUP8 SWAP6 DUP7 SWAP5 PUSH4 0x2DFA7349 PUSH1 0xE2 SHL DUP7 MSTORE ADDRESS SWAP1 DUP7 ADD MSTORE PUSH1 0x24 DUP6 ADD MSTORE PUSH1 0x44 DUP5 ADD MSTORE GAS CALL SWAP3 DUP4 ISZERO PUSH2 0x743 JUMPI SWAP3 PUSH2 0x714 JUMPI JUMPDEST POP DUP2 PUSH32 0x71220DA0D6A18FDCB119B93D05387FFC264A73B9A1FDA95000AEEAE4CA846A5F DUP3 PUSH1 0x8 SLOAD PUSH1 0x9 SLOAD DUP3 MLOAD SWAP2 DUP3 MSTORE DUP8 DUP3 ADD MSTORE LOG2 MLOAD SWAP1 DUP2 MSTORE RETURN JUMPDEST SWAP1 SWAP2 POP DUP3 DUP2 DUP2 RETURNDATASIZE DUP4 GT PUSH2 0x73C JUMPI JUMPDEST PUSH2 0x72C DUP2 DUP4 PUSH2 0x1105 JUMP JUMPDEST DUP2 ADD SUB SLT PUSH2 0x280 JUMPI MLOAD SWAP1 CODESIZE PUSH2 0x6DA JUMP JUMPDEST POP RETURNDATASIZE PUSH2 0x722 JUMP JUMPDEST DUP3 MLOAD SWAP1 RETURNDATASIZE SWAP1 DUP3 RETURNDATACOPY RETURNDATASIZE SWAP1 REVERT JUMPDEST DUP5 MLOAD PUSH3 0x461BCD PUSH1 0xE5 SHL DUP2 MSTORE DUP1 DUP5 ADD DUP9 SWAP1 MSTORE PUSH1 0x14 PUSH1 0x24 DUP3 ADD MSTORE PUSH20 0x566F772F737572706C75732D6E6F742D7A65726F PUSH1 0x60 SHL PUSH1 0x44 DUP3 ADD MSTORE PUSH1 0x64 SWAP1 REVERT JUMPDEST SWAP1 POP DUP8 DUP2 DUP2 RETURNDATASIZE DUP4 GT PUSH2 0x7AE JUMPI JUMPDEST PUSH2 0x79F DUP2 DUP4 PUSH2 0x1105 JUMP JUMPDEST DUP2 ADD SUB SLT PUSH2 0x280 JUMPI MLOAD CODESIZE PUSH2 0x68A JUMP JUMPDEST POP RETURNDATASIZE PUSH2 0x795 JUMP JUMPDEST DUP7 MLOAD RETURNDATASIZE DUP10 DUP3 RETURNDATACOPY RETURNDATASIZE SWAP1 REVERT JUMPDEST DUP1 SWAP3 POP DUP2 RETURNDATASIZE DUP4 GT PUSH2 0x7E7 JUMPI JUMPDEST PUSH2 0x7D5 DUP2 DUP4 PUSH2 0x1105 JUMP JUMPDEST DUP2 ADD SUB SLT PUSH2 0x280 JUMPI MLOAD DUP8 PUSH2 0x64B PUSH2 0x63B JUMP JUMPDEST POP RETURNDATASIZE PUSH2 0x7CB JUMP JUMPDEST DUP1 DUP5 CALLVALUE PUSH2 0x835 JUMPI PUSH1 0x20 CALLDATASIZE PUSH1 0x3 NOT ADD SLT PUSH2 0x835 JUMPI PUSH2 0x809 PUSH2 0x1084 JUMP JUMPDEST CALLER DUP4 MSTORE DUP3 PUSH1 0x20 MSTORE PUSH2 0x81F PUSH1 0x1 DUP4 DUP6 KECCAK256 SLOAD EQ PUSH2 0x109A JUMP JUMPDEST PUSH1 0x1 PUSH1 0x1 PUSH1 0xA0 SHL SUB AND DUP3 MSTORE PUSH1 0x20 DUP3 SWAP1 MSTORE DUP2 KECCAK256 SSTORE DUP1 RETURN JUMPDEST POP REVERT JUMPDEST POP POP CALLVALUE PUSH2 0x2E9 JUMPI DUP2 PUSH1 0x3 NOT CALLDATASIZE ADD SLT PUSH2 0x2E9 JUMPI PUSH1 0x20 SWAP1 PUSH1 0xC SLOAD SWAP1 MLOAD SWAP1 DUP2 MSTORE RETURN JUMPDEST POP SWAP1 CALLVALUE PUSH2 0x24E JUMPI PUSH1 0x20 CALLDATASIZE PUSH1 0x3 NOT ADD SLT PUSH2 0x24E JUMPI DUP2 CALLDATALOAD SWAP2 CALLER DUP5 MSTORE DUP4 PUSH1 0x20 MSTORE PUSH2 0x883 PUSH1 0x1 DUP4 DUP7 KECCAK256 SLOAD EQ PUSH2 0x109A JUMP JUMPDEST TIMESTAMP DUP5 MSTORE DUP1 PUSH1 0x20 MSTORE PUSH2 0x897 DUP4 DUP4 DUP7 KECCAK256 SLOAD PUSH2 0x1127 JUMP JUMPDEST SWAP1 TIMESTAMP DUP6 MSTORE PUSH1 0x20 MSTORE DUP2 DUP5 KECCAK256 SSTORE PUSH2 0x8AE DUP3 PUSH1 0x5 SLOAD PUSH2 0x1127 JUMP JUMPDEST PUSH1 0x5 SSTORE MLOAD SWAP1 DUP2 MSTORE PUSH32 0xEC6AABC8EBABF9CF9E97376009D8C9A2D2807697FEAD1B96074A1E786276FB08 PUSH1 0x20 TIMESTAMP SWAP3 LOG2 DUP1 RETURN JUMPDEST POP DUP3 SWAP1 CALLVALUE PUSH2 0x2E9 JUMPI DUP2 PUSH1 0x3 NOT CALLDATASIZE ADD SLT PUSH2 0x2E9 JUMPI CALLER DUP3 MSTORE PUSH1 0x20 SWAP3 DUP3 DUP5 MSTORE PUSH2 0x909 PUSH1 0x1 DUP3 DUP6 KECCAK256 SLOAD EQ PUSH2 0x109A JUMP JUMPDEST PUSH1 0x1 PUSH1 0xC SLOAD SUB PUSH2 0xA60 JUMPI DUP3 SWAP4 DUP4 PUSH1 0xC SSTORE DUP4 PUSH1 0x5 SSTORE DUP4 PUSH1 0x6 SSTORE PUSH1 0x1 DUP1 PUSH1 0xA0 SHL SUB SWAP1 DUP2 PUSH1 0x2 SLOAD AND SWAP1 PUSH1 0x24 DUP2 DUP5 PUSH1 0x1 SLOAD AND DUP7 MLOAD SWAP3 DUP4 DUP1 SWAP3 PUSH4 0x3612D9A3 PUSH1 0xE1 SHL DUP3 MSTORE ADDRESS DUP12 DUP4 ADD MSTORE GAS STATICCALL SWAP2 DUP3 ISZERO PUSH2 0xA56 JUMPI DUP8 SWAP3 PUSH2 0xA25 JUMPI JUMPDEST POP POP DUP2 EXTCODESIZE ISZERO PUSH2 0xA21 JUMPI DUP6 SWAP2 PUSH1 0x24 DUP4 SWAP3 DUP7 MLOAD SWAP5 DUP6 SWAP4 DUP5 SWAP3 PUSH4 0x517C8D79 PUSH1 0xE1 SHL DUP5 MSTORE DUP11 DUP5 ADD MSTORE GAS CALL DUP1 ISZERO PUSH2 0xA17 JUMPI SWAP1 DUP6 SWAP2 PUSH2 0xA03 JUMPI JUMPDEST POP POP PUSH1 0x3 SLOAD AND SWAP2 DUP3 EXTCODESIZE ISZERO PUSH2 0x9FE JUMPI DUP2 MLOAD PUSH4 0x69245009 PUSH1 0xE0 SHL DUP2 MSTORE SWAP3 DUP5 SWAP2 DUP5 SWAP2 DUP3 SWAP1 DUP5 SWAP1 GAS CALL SWAP1 DUP2 ISZERO PUSH2 0x499 JUMPI POP PUSH2 0x9EA JUMPI JUMPDEST POP DUP1 PUSH32 0x2308ED18A14E800C39B86EB6EA43270105955CA385B603B64ECA89F98AE8FBDA SWAP2 LOG1 DUP1 RETURN JUMPDEST PUSH2 0x9F3 SWAP1 PUSH2 0x10DB JUMP JUMPDEST PUSH2 0x496 JUMPI DUP1 DUP3 PUSH2 0x9C2 JUMP JUMPDEST POP POP POP REVERT JUMPDEST PUSH2 0xA0C SWAP1 PUSH2 0x10DB JUMP JUMPDEST PUSH2 0x9FE JUMPI DUP4 DUP7 PUSH2 0x990 JUMP JUMPDEST DUP4 MLOAD RETURNDATASIZE DUP8 DUP3 RETURNDATACOPY RETURNDATASIZE SWAP1 REVERT JUMPDEST DUP6 DUP1 REVERT JUMPDEST DUP2 SWAP8 POP DUP1 SWAP3 POP RETURNDATASIZE DUP4 GT PUSH2 0xA4F JUMPI JUMPDEST PUSH2 0xA3D DUP2 DUP4 PUSH2 0x1105 JUMP JUMPDEST DUP2 ADD SUB SLT PUSH2 0x280 JUMPI DUP6 SWAP5 MLOAD DUP8 DUP1 PUSH2 0x95C JUMP JUMPDEST POP RETURNDATASIZE PUSH2 0xA33 JUMP JUMPDEST DUP6 MLOAD RETURNDATASIZE DUP10 DUP3 RETURNDATACOPY RETURNDATASIZE SWAP1 REVERT JUMPDEST MLOAD PUSH3 0x461BCD PUSH1 0xE5 SHL DUP2 MSTORE SWAP1 DUP2 ADD DUP4 SWAP1 MSTORE PUSH1 0xC PUSH1 0x24 DUP3 ADD MSTORE PUSH12 0x566F772F6E6F742D6C697665 PUSH1 0xA0 SHL PUSH1 0x44 DUP3 ADD MSTORE PUSH1 0x64 SWAP1 REVERT JUMPDEST POP POP CALLVALUE PUSH2 0x2E9 JUMPI DUP2 PUSH1 0x3 NOT CALLDATASIZE ADD SLT PUSH2 0x2E9 JUMPI PUSH1 0x20 SWAP1 PUSH1 0xA SLOAD SWAP1 MLOAD SWAP1 DUP2 MSTORE RETURN JUMPDEST POP POP CALLVALUE PUSH2 0x2E9 JUMPI PUSH1 0x20 CALLDATASIZE PUSH1 0x3 NOT ADD SLT PUSH2 0x2E9 JUMPI PUSH1 0x1 SWAP1 PUSH2 0xACE PUSH2 0x1084 JUMP JUMPDEST CALLER DUP5 MSTORE DUP4 PUSH1 0x20 MSTORE PUSH2 0xAE3 DUP4 DUP4 DUP7 KECCAK256 SLOAD EQ PUSH2 0x109A JUMP JUMPDEST DUP3 DUP1 PUSH1 0xA0 SHL SUB AND DUP4 MSTORE DUP3 PUSH1 0x20 MSTORE DUP3 KECCAK256 SSTORE DUP1 RETURN JUMPDEST POP POP CALLVALUE PUSH2 0x2E9 JUMPI DUP2 PUSH1 0x3 NOT CALLDATASIZE ADD SLT PUSH2 0x2E9 JUMPI PUSH1 0x20 SWAP1 PUSH1 0x7 SLOAD SWAP1 MLOAD SWAP1 DUP2 MSTORE RETURN JUMPDEST POP POP CALLVALUE PUSH2 0x2E9 JUMPI DUP2 PUSH1 0x3 NOT CALLDATASIZE ADD SLT PUSH2 0x2E9 JUMPI PUSH1 0x2 SLOAD SWAP1 MLOAD PUSH1 0x1 PUSH1 0x1 PUSH1 0xA0 SHL SUB SWAP1 SWAP2 AND DUP2 MSTORE PUSH1 0x20 SWAP1 RETURN JUMPDEST POP POP CALLVALUE PUSH2 0x2E9 JUMPI DUP2 PUSH1 0x3 NOT CALLDATASIZE ADD SLT PUSH2 0x2E9 JUMPI PUSH1 0x3 SLOAD SWAP1 MLOAD PUSH1 0x1 PUSH1 0x1 PUSH1 0xA0 SHL SUB SWAP1 SWAP2 AND DUP2 MSTORE PUSH1 0x20 SWAP1 RETURN JUMPDEST POP POP CALLVALUE PUSH2 0x2E9 JUMPI DUP2 PUSH1 0x3 NOT CALLDATASIZE ADD SLT PUSH2 0x2E9 JUMPI PUSH1 0x1 SLOAD SWAP1 MLOAD PUSH1 0x1 PUSH1 0x1 PUSH1 0xA0 SHL SUB SWAP1 SWAP2 AND DUP2 MSTORE PUSH1 0x20 SWAP1 RETURN JUMPDEST POP POP CALLVALUE PUSH2 0x2E9 JUMPI DUP2 PUSH1 0x3 NOT CALLDATASIZE ADD SLT PUSH2 0x2E9 JUMPI PUSH1 0x20 SWAP1 PUSH1 0x6 SLOAD SWAP1 MLOAD SWAP1 DUP2 MSTORE RETURN JUMPDEST POP CALLVALUE PUSH2 0x24E JUMPI DUP2 PUSH1 0x3 NOT CALLDATASIZE ADD SLT PUSH2 0x24E JUMPI DUP1 CALLDATALOAD SWAP2 PUSH1 0x24 CALLDATALOAD SWAP3 CALLER DUP6 MSTORE DUP5 PUSH1 0x20 MSTORE PUSH2 0xBDD PUSH1 0x1 DUP4 DUP8 KECCAK256 SLOAD EQ PUSH2 0x109A JUMP JUMPDEST PUSH4 0x1DD85A5D PUSH1 0xE2 SHL DUP2 SUB PUSH2 0xBF4 JUMPI POP POP POP PUSH1 0x7 SSTORE DUP1 RETURN JUMPDEST PUSH4 0x64756D7 PUSH1 0xE4 SHL DUP2 SUB PUSH2 0xC0B JUMPI POP POP POP PUSH1 0x8 SSTORE DUP1 RETURN JUMPDEST PUSH4 0x73756D7 PUSH1 0xE4 SHL DUP2 SUB PUSH2 0xC22 JUMPI POP POP POP PUSH1 0x9 SSTORE DUP1 RETURN JUMPDEST PUSH4 0x62756D7 PUSH1 0xE4 SHL DUP2 SUB PUSH2 0xC39 JUMPI POP POP POP PUSH1 0xA SSTORE DUP1 RETURN JUMPDEST PUSH4 0x68756D7 PUSH1 0xE4 SHL SUB PUSH2 0x4FD JUMPI POP POP PUSH1 0xB SSTORE DUP1 RETURN JUMPDEST POP DUP3 SWAP1 CALLVALUE PUSH2 0x2E9 JUMPI PUSH1 0x20 SWAP1 DUP2 PUSH1 0x3 NOT CALLDATASIZE ADD SLT PUSH2 0x24E JUMPI PUSH1 0x6 SLOAD DUP2 CALLDATALOAD SWAP2 DUP2 DUP4 GT PUSH2 0xD96 JUMPI PUSH1 0x1 SLOAD DUP7 MLOAD PUSH4 0x3612D9A3 PUSH1 0xE1 SHL DUP2 MSTORE ADDRESS DUP4 DUP3 ADD MSTORE PUSH1 0x1 PUSH1 0x1 PUSH1 0xA0 SHL SUB SWAP1 SWAP2 AND SWAP3 SWAP1 DUP6 DUP2 PUSH1 0x24 DUP2 DUP8 GAS STATICCALL SWAP1 DUP2 ISZERO PUSH2 0xD8C JUMPI SWAP1 DUP6 SWAP2 DUP9 SWAP2 PUSH2 0xD59 JUMPI JUMPDEST POP SWAP2 PUSH2 0xCBC PUSH2 0xCC1 SWAP4 DUP4 GT ISZERO PUSH2 0x115E JUMP JUMPDEST PUSH2 0x1151 JUMP JUMPDEST PUSH1 0x6 SSTORE DUP2 EXTCODESIZE ISZERO PUSH2 0x4A2 JUMPI DUP3 PUSH1 0x24 DUP7 SWAP3 DUP4 DUP10 MLOAD SWAP6 DUP7 SWAP5 DUP6 SWAP4 PUSH4 0x3CDEB187 PUSH1 0xE2 SHL DUP6 MSTORE DUP5 ADD MSTORE GAS CALL DUP1 ISZERO PUSH2 0xD4F JUMPI PUSH2 0xD1E JUMPI JUMPDEST POP PUSH32 0xDF1D0254F949DD4607095C8A45ED43A96D548776DBB1D6E8347513D07B109E9B SWAP3 SWAP4 MLOAD SWAP1 DUP2 MSTORE LOG1 DUP1 RETURN JUMPDEST SWAP3 PUSH2 0xD49 PUSH32 0xDF1D0254F949DD4607095C8A45ED43A96D548776DBB1D6E8347513D07B109E9B SWAP5 PUSH2 0x10DB JUMP JUMPDEST SWAP3 PUSH2 0xCF2 JUMP JUMPDEST DUP6 MLOAD RETURNDATASIZE DUP7 DUP3 RETURNDATACOPY RETURNDATASIZE SWAP1 REVERT JUMPDEST DUP1 SWAP3 POP DUP8 DUP1 SWAP3 POP RETURNDATASIZE DUP4 GT PUSH2 0xD85 JUMPI JUMPDEST PUSH2 0xD72 DUP2 DUP4 PUSH2 0x1105 JUMP JUMPDEST DUP2 ADD SUB SLT PUSH2 0x4C4 JUMPI MLOAD DUP5 SWAP1 PUSH2 0xCBC PUSH2 0xCAB JUMP JUMPDEST POP RETURNDATASIZE PUSH2 0xD68 JUMP JUMPDEST DUP9 MLOAD RETURNDATASIZE DUP10 DUP3 RETURNDATACOPY RETURNDATASIZE SWAP1 REVERT JUMPDEST DUP6 MLOAD PUSH3 0x461BCD PUSH1 0xE5 SHL DUP2 MSTORE SWAP1 DUP2 ADD DUP5 SWAP1 MSTORE PUSH1 0x12 PUSH1 0x24 DUP3 ADD MSTORE PUSH18 0xACDEEE5EDCDEE85ACADCDEEACED05AC2E6D PUSH1 0x73 SHL PUSH1 0x44 DUP3 ADD MSTORE PUSH1 0x64 SWAP1 REVERT JUMPDEST POP POP CALLVALUE PUSH2 0x2E9 JUMPI DUP2 PUSH1 0x3 NOT CALLDATASIZE ADD SLT PUSH2 0x2E9 JUMPI PUSH1 0x20 SWAP1 PUSH1 0xB SLOAD SWAP1 MLOAD SWAP1 DUP2 MSTORE RETURN JUMPDEST DUP3 DUP5 DUP7 CALLVALUE PUSH2 0x496 JUMPI DUP1 PUSH1 0x3 NOT CALLDATASIZE ADD SLT PUSH2 0x496 JUMPI PUSH1 0x1 SLOAD PUSH4 0x3612D9A3 PUSH1 0xE1 SHL DUP6 MSTORE ADDRESS DUP5 DUP7 ADD MSTORE PUSH1 0x20 SWAP5 PUSH1 0x24 SWAP5 SWAP1 SWAP2 PUSH1 0x1 PUSH1 0x1 PUSH1 0xA0 SHL SUB SWAP1 DUP2 AND DUP8 DUP5 DUP9 DUP2 DUP5 GAS STATICCALL SWAP4 DUP5 ISZERO PUSH2 0xFDA JUMPI DUP6 SWAP5 PUSH2 0x1055 JUMPI JUMPDEST POP DUP6 MLOAD PUSH4 0x782C9095 PUSH1 0xE1 SHL DUP1 DUP3 MSTORE ADDRESS DUP6 DUP4 ADD MSTORE SWAP1 SWAP5 DUP10 DUP7 DUP11 DUP2 DUP7 GAS STATICCALL SWAP6 DUP7 ISZERO PUSH2 0xD8C JUMPI DUP8 SWAP7 PUSH2 0x1026 JUMPI JUMPDEST POP PUSH2 0xE72 PUSH1 0xA SLOAD DUP1 SWAP8 PUSH2 0x1127 JUMP JUMPDEST GT PUSH2 0xFE4 JUMPI DUP9 SWAP1 DUP9 DUP9 MLOAD DUP1 SWAP5 DUP2 SWAP4 DUP3 MSTORE ADDRESS DUP9 DUP4 ADD MSTORE GAS STATICCALL SWAP1 DUP2 ISZERO PUSH2 0xFDA JUMPI DUP6 SWAP2 PUSH2 0xFAB JUMPI JUMPDEST POP PUSH2 0x1C1 PUSH2 0xEA8 SWAP2 PUSH1 0x5 SLOAD SWAP1 PUSH2 0x1151 JUMP JUMPDEST PUSH2 0xF75 JUMPI DUP7 SWAP3 SWAP2 DUP5 PUSH1 0x44 SWAP3 PUSH1 0x2 SLOAD AND DUP2 DUP9 MLOAD SWAP10 DUP11 SWAP7 DUP8 SWAP6 PUSH4 0xCA40C419 PUSH1 0xE0 SHL DUP8 MSTORE DUP7 ADD MSTORE DUP5 ADD MSTORE GAS CALL SWAP3 DUP4 ISZERO PUSH2 0xF69 JUMPI DUP2 SWAP4 PUSH2 0xF18 JUMPI JUMPDEST POP PUSH32 0xBDDDD1971EEEC114BAAA6F1EB123C0F9F9A713FF6374B8D93F711205D472ECC3 DUP3 DUP5 SWAP3 PUSH1 0xA SLOAD SWAP1 DUP3 MLOAD SWAP2 DUP3 MSTORE DUP8 DUP3 ADD MSTORE LOG2 MLOAD SWAP1 DUP2 MSTORE RETURN JUMPDEST SWAP1 SWAP2 SWAP3 POP DUP4 DUP2 DUP2 RETURNDATASIZE DUP4 GT PUSH2 0xF62 JUMPI JUMPDEST PUSH2 0xF31 DUP2 DUP4 PUSH2 0x1105 JUMP JUMPDEST DUP2 ADD SUB SLT PUSH2 0x2E9 JUMPI MLOAD SWAP2 SWAP1 PUSH32 0xBDDDD1971EEEC114BAAA6F1EB123C0F9F9A713FF6374B8D93F711205D472ECC3 PUSH2 0xEDF JUMP JUMPDEST POP RETURNDATASIZE PUSH2 0xF27 JUMP JUMPDEST POP SWAP1 MLOAD SWAP1 RETURNDATASIZE SWAP1 DUP3 RETURNDATACOPY RETURNDATASIZE SWAP1 REVERT JUMPDEST DUP5 MLOAD PUSH3 0x461BCD PUSH1 0xE5 SHL DUP2 MSTORE DUP1 DUP4 ADD DUP9 SWAP1 MSTORE PUSH1 0x11 DUP2 DUP9 ADD MSTORE PUSH17 0x566F772F646562742D6E6F742D7A65726F PUSH1 0x78 SHL PUSH1 0x44 DUP3 ADD MSTORE PUSH1 0x64 SWAP1 REVERT JUMPDEST SWAP1 POP DUP8 DUP2 DUP2 RETURNDATASIZE DUP4 GT PUSH2 0xFD3 JUMPI JUMPDEST PUSH2 0xFC2 DUP2 DUP4 PUSH2 0x1105 JUMP JUMPDEST DUP2 ADD SUB SLT PUSH2 0x4A2 JUMPI MLOAD PUSH2 0x1C1 PUSH2 0xE97 JUMP JUMPDEST POP RETURNDATASIZE PUSH2 0xFB8 JUMP JUMPDEST DUP7 MLOAD RETURNDATASIZE DUP8 DUP3 RETURNDATACOPY RETURNDATASIZE SWAP1 REVERT JUMPDEST DUP7 MLOAD PUSH3 0x461BCD PUSH1 0xE5 SHL DUP2 MSTORE DUP1 DUP6 ADD DUP11 SWAP1 MSTORE PUSH1 0x18 DUP2 DUP11 ADD MSTORE PUSH32 0x566F772F696E73756666696369656E742D737572706C75730000000000000000 PUSH1 0x44 DUP3 ADD MSTORE PUSH1 0x64 SWAP1 REVERT JUMPDEST SWAP1 SWAP6 POP DUP10 DUP2 DUP2 RETURNDATASIZE DUP4 GT PUSH2 0x104E JUMPI JUMPDEST PUSH2 0x103E DUP2 DUP4 PUSH2 0x1105 JUMP JUMPDEST DUP2 ADD SUB SLT PUSH2 0x4C4 JUMPI MLOAD SWAP5 DUP11 PUSH2 0xE64 JUMP JUMPDEST POP RETURNDATASIZE PUSH2 0x1034 JUMP JUMPDEST SWAP1 SWAP4 POP DUP8 DUP2 DUP2 RETURNDATASIZE DUP4 GT PUSH2 0x107D JUMPI JUMPDEST PUSH2 0x106D DUP2 DUP4 PUSH2 0x1105 JUMP JUMPDEST DUP2 ADD SUB SLT PUSH2 0x4A2 JUMPI MLOAD SWAP3 DUP9 PUSH2 0xE3A JUMP JUMPDEST POP RETURNDATASIZE PUSH2 0x1063 JUMP JUMPDEST PUSH1 0x4 CALLDATALOAD SWAP1 PUSH1 0x1 PUSH1 0x1 PUSH1 0xA0 SHL SUB DUP3 AND DUP3 SUB PUSH2 0x280 JUMPI JUMP JUMPDEST ISZERO PUSH2 0x10A1 JUMPI JUMP JUMPDEST PUSH1 0x40 MLOAD PUSH3 0x461BCD PUSH1 0xE5 SHL DUP2 MSTORE PUSH1 0x20 PUSH1 0x4 DUP3 ADD MSTORE PUSH1 0x12 PUSH1 0x24 DUP3 ADD MSTORE PUSH18 0x159BDDCBDB9BDD0B585D5D1A1BDC9A5E9959 PUSH1 0x72 SHL PUSH1 0x44 DUP3 ADD MSTORE PUSH1 0x64 SWAP1 REVERT JUMPDEST PUSH8 0xFFFFFFFFFFFFFFFF DUP2 GT PUSH2 0x10EF JUMPI PUSH1 0x40 MSTORE JUMP JUMPDEST PUSH4 0x4E487B71 PUSH1 0xE0 SHL PUSH1 0x0 MSTORE PUSH1 0x41 PUSH1 0x4 MSTORE PUSH1 0x24 PUSH1 0x0 REVERT JUMPDEST SWAP1 PUSH1 0x1F DUP1 NOT SWAP2 ADD AND DUP2 ADD SWAP1 DUP2 LT PUSH8 0xFFFFFFFFFFFFFFFF DUP3 GT OR PUSH2 0x10EF JUMPI PUSH1 0x40 MSTORE JUMP JUMPDEST SWAP2 SWAP1 DUP3 ADD SWAP2 DUP3 DUP2 GT PUSH2 0x113B JUMPI DUP3 LT PUSH2 0x280 JUMPI JUMP JUMPDEST PUSH4 0x4E487B71 PUSH1 0xE0 SHL PUSH1 0x0 MSTORE PUSH1 0x11 PUSH1 0x4 MSTORE PUSH1 0x24 PUSH1 0x0 REVERT JUMPDEST SWAP1 DUP2 SUB SWAP1 DUP2 GT PUSH2 0x113B JUMPI SWAP1 JUMP JUMPDEST ISZERO PUSH2 0x1165 JUMPI JUMP JUMPDEST PUSH1 0x40 MLOAD PUSH3 0x461BCD PUSH1 0xE5 SHL DUP2 MSTORE PUSH1 0x20 PUSH1 0x4 DUP3 ADD MSTORE PUSH1 0x14 PUSH1 0x24 DUP3 ADD MSTORE PUSH20 0x566F772F696E73756666696369656E742D646169 PUSH1 0x60 SHL PUSH1 0x44 DUP3 ADD MSTORE PUSH1 0x64 SWAP1 REVERT JUMPDEST ISZERO PUSH2 0x11A8 JUMPI JUMP JUMPDEST PUSH1 0x40 MLOAD PUSH3 0x461BCD PUSH1 0xE5 SHL DUP2 MSTORE PUSH1 0x20 PUSH1 0x4 DUP3 ADD MSTORE PUSH1 0x15 PUSH1 0x24 DUP3 ADD MSTORE PUSH21 0x159BDDCBDA5B9CDD59999A58DA595B9D0B5919589D PUSH1 0x5A SHL PUSH1 0x44 DUP3 ADD MSTORE PUSH1 0x64 SWAP1 REVERT INVALID LOG2 PUSH5 0x6970667358 0x22 SLT KECCAK256 PUSH4 0x7482408C PUSH17 0x8C8B85C480CB2D4AC406707352C1E39D83 0xDC PUSH20 0x5334CEEFB07CD064736F6C634300081300330000 "},"methodIdentifiers":{"Ash()":"2a1d2b3c","Sin()":"d0adc35f","bump()":"68110b2f","cage()":"69245009","deny(address)":"9c52a7f1","dump()":"e4330545","fess(uint256)":"697efb78","file(bytes32,address)":"d4e8be83","file(bytes32,uint256)":"29ae8114","flap()":"0e01198b","flapper()":"5ca0d723","flog(uint256)":"d7ee674b","flop()":"bbbb0d7b","flopper()":"4081d73a","heal(uint256)":"f37ac61c","hump()":"1b8e8cfa","kiss(uint256)":"2506855a","live()":"957aa58c","rely(address)":"65fae35e","sin(uint256)":"cb5cc109","sump()":"c349d362","vat()":"36569e77","wait()":"64bd7013","wards(address)":"bf353dbb"}}}}}