{"contracts/Vat.sol":{"Vat":{"abi":[{"inputs":[],"stateMutability":"nonpayable","type":"constructor"},{"anonymous":true,"inputs":[{"indexed":true,"internalType":"bytes4","name":"sig","type":"bytes4"},{"indexed":true,"internalType":"address","name":"usr","type":"address"},{"indexed":true,"internalType":"bytes32","name":"arg1","type":"bytes32"},{"indexed":true,"internalType":"bytes32","name":"arg2","type":"bytes32"},{"indexed":false,"internalType":"bytes","name":"data","type":"bytes"}],"name":"LogNote","type":"event"},{"inputs":[],"name":"Line","outputs":[{"internalType":"uint256","name":"","type":"uint256"}],"stateMutability":"view","type":"function"},{"inputs":[],"name":"cage","outputs":[],"stateMutability":"nonpayable","type":"function"},{"inputs":[{"internalType":"address","name":"","type":"address"},{"internalType":"address","name":"","type":"address"}],"name":"can","outputs":[{"internalType":"uint256","name":"","type":"uint256"}],"stateMutability":"view","type":"function"},{"inputs":[{"internalType":"address","name":"","type":"address"}],"name":"dai","outputs":[{"internalType":"uint256","name":"","type":"uint256"}],"stateMutability":"view","type":"function"},{"inputs":[],"name":"debt","outputs":[{"internalType":"uint256","name":"","type":"uint256"}],"stateMutability":"view","type":"function"},{"inputs":[{"internalType":"address","name":"usr","type":"address"}],"name":"deny","outputs":[],"stateMutability":"nonpayable","type":"function"},{"inputs":[{"internalType":"bytes32","name":"ilk","type":"bytes32"},{"internalType":"bytes32","name":"what","type":"bytes32"},{"internalType":"uint256","name":"data","type":"uint256"}],"name":"file","outputs":[],"stateMutability":"nonpayable","type":"function"},{"inputs":[{"internalType":"bytes32","name":"what","type":"bytes32"},{"internalType":"uint256","name":"data","type":"uint256"}],"name":"file","outputs":[],"stateMutability":"nonpayable","type":"function"},{"inputs":[{"internalType":"bytes32","name":"ilk","type":"bytes32"},{"internalType":"address","name":"src","type":"address"},{"internalType":"address","name":"dst","type":"address"},{"internalType":"uint256","name":"wad","type":"uint256"}],"name":"flux","outputs":[],"stateMutability":"nonpayable","type":"function"},{"inputs":[{"internalType":"bytes32","name":"i","type":"bytes32"},{"internalType":"address","name":"u","type":"address"},{"internalType":"int256","name":"rate","type":"int256"}],"name":"fold","outputs":[],"stateMutability":"nonpayable","type":"function"},{"inputs":[{"internalType":"bytes32","name":"i","type":"bytes32"},{"internalType":"address","name":"u","type":"address"},{"internalType":"address","name":"v","type":"address"},{"internalType":"address","name":"w","type":"address"},{"internalType":"int256","name":"dink","type":"int256"},{"internalType":"int256","name":"dart","type":"int256"}],"name":"frob","outputs":[],"stateMutability":"nonpayable","type":"function"},{"inputs":[{"internalType":"bytes32","name":"","type":"bytes32"},{"internalType":"address","name":"","type":"address"}],"name":"gem","outputs":[{"internalType":"uint256","name":"","type":"uint256"}],"stateMutability":"view","type":"function"},{"inputs":[{"internalType":"bytes32","name":"i","type":"bytes32"},{"internalType":"address","name":"u","type":"address"},{"internalType":"address","name":"v","type":"address"},{"internalType":"address","name":"w","type":"address"},{"internalType":"int256","name":"dink","type":"int256"},{"internalType":"int256","name":"dart","type":"int256"}],"name":"grab","outputs":[],"stateMutability":"nonpayable","type":"function"},{"inputs":[{"internalType":"uint256","name":"rad","type":"uint256"}],"name":"heal","outputs":[],"stateMutability":"nonpayable","type":"function"},{"inputs":[{"internalType":"address","name":"usr","type":"address"}],"name":"hope","outputs":[],"stateMutability":"nonpayable","type":"function"},{"inputs":[{"internalType":"bytes32","name":"","type":"bytes32"}],"name":"ilks","outputs":[{"internalType":"uint256","name":"Art","type":"uint256"},{"internalType":"uint256","name":"rate","type":"uint256"},{"internalType":"uint256","name":"spot","type":"uint256"},{"internalType":"uint256","name":"line","type":"uint256"},{"internalType":"uint256","name":"dust","type":"uint256"}],"stateMutability":"view","type":"function"},{"inputs":[{"internalType":"bytes32","name":"ilk","type":"bytes32"}],"name":"init","outputs":[],"stateMutability":"nonpayable","type":"function"},{"inputs":[],"name":"live","outputs":[{"internalType":"uint256","name":"","type":"uint256"}],"stateMutability":"view","type":"function"},{"inputs":[{"internalType":"address","name":"src","type":"address"},{"internalType":"address","name":"dst","type":"address"},{"internalType":"uint256","name":"rad","type":"uint256"}],"name":"move","outputs":[],"stateMutability":"nonpayable","type":"function"},{"inputs":[{"internalType":"address","name":"usr","type":"address"}],"name":"nope","outputs":[],"stateMutability":"nonpayable","type":"function"},{"inputs":[{"internalType":"address","name":"usr","type":"address"}],"name":"rely","outputs":[],"stateMutability":"nonpayable","type":"function"},{"inputs":[{"internalType":"address","name":"","type":"address"}],"name":"sin","outputs":[{"internalType":"uint256","name":"","type":"uint256"}],"stateMutability":"view","type":"function"},{"inputs":[{"internalType":"bytes32","name":"ilk","type":"bytes32"},{"internalType":"address","name":"usr","type":"address"},{"internalType":"int256","name":"wad","type":"int256"}],"name":"slip","outputs":[],"stateMutability":"nonpayable","type":"function"},{"inputs":[{"internalType":"address","name":"u","type":"address"},{"internalType":"address","name":"v","type":"address"},{"internalType":"uint256","name":"rad","type":"uint256"}],"name":"suck","outputs":[],"stateMutability":"nonpayable","type":"function"},{"inputs":[{"internalType":"bytes32","name":"","type":"bytes32"},{"internalType":"address","name":"","type":"address"}],"name":"urns","outputs":[{"internalType":"uint256","name":"ink","type":"uint256"},{"internalType":"uint256","name":"art","type":"uint256"}],"stateMutability":"view","type":"function"},{"inputs":[],"name":"vice","outputs":[{"internalType":"uint256","name":"","type":"uint256"}],"stateMutability":"view","type":"function"},{"inputs":[{"internalType":"address","name":"","type":"address"}],"name":"wards","outputs":[{"internalType":"uint256","name":"","type":"uint256"}],"stateMutability":"view","type":"function"}],"evm":{"bytecode":{"linkReferences":{},"object":"6080806040523461002c57336000526000602052600160406000205560016009556112af90816100328239f35b600080fdfe608080604052600436101561001357600080fd5b60003560e01c9081630dca59c114610f9b575080631a0b287e14610ef0578063214414d514610ea85780632424be5c14610e5757806329ae811414610dc15780632d61a35514610da35780633b66319514610d005780634538c4eb14610caf5780636111be2e14610bea57806365fae35e14610b9a5780636924500914610b685780636c25b34614610b2e57806376088703146106ee5780637bab3f40146105d75780637cdd3fde1461055e578063957aa58c146105405780639c52a7f1146104f3578063a3b22fc4146104b0578063b65337df14610415578063babe8a3f146103f7578063bb35783b14610378578063bf353dbb1461033e578063d9638d36146102e6578063dc4d20fa146102a4578063f059212a1461026a578063f24e23eb146101ca5763f37ac61c1461014857600080fd5b346101c55760203660031901126101c5576101c060043533600052600560205261017781604060002054611166565b336000526005602052604060002055600460205261019a81604060002054611166565b3360005260046020526040600020556101b581600754611166565b600755600654611166565b600655005b600080fd5b346101c5576101c06101db36611055565b91903360005260006020526101f760016040600020541461108a565b6001600160a01b0391821660008181526005602052604090205461021c908590611152565b9060005260056020526040600020551680600052600460205261024482604060002054611152565b90600052600460205260406000205561025f81600754611152565b600755600654611152565b346101c55760203660031901126101c5576001600160a01b0361028b610fcc565b1660005260056020526020604060002054604051908152f35b346101c55760203660031901126101c5576102bd610fcc565b33600052600a60205260406000209060018060a01b031660005260205260006040812055600080f35b346101c55760203660031901126101c557600435600052600160205260a06040600020805490600181015490600281015460046003830154920154926040519485526020850152604084015260608301526080820152f35b346101c55760203660031901126101c5576001600160a01b0361035f610fcc565b1660005260006020526020604060002054604051908152f35b346101c5576103e361038936611055565b92919061039e61039933846111b1565b611173565b6001600160a01b039182166000818152600460205260409020546103c3908690611166565b906000526004602052604060002055169182600052604060002054611152565b906000526004602052604060002055600080f35b346101c55760003660031901126101c5576020600854604051908152f35b346101c5576101c06104786104293661102b565b90929133600052600060205261044660016040600020541461108a565b6104546001600954146110cb565b600052600160205260406000206001810161047083825461112d565b90555461124b565b9060018060a01b03168060005260046020526104998260406000205461112d565b90600052600460205260406000205560065461112d565b346101c55760203660031901126101c5576104c9610fcc565b33600052600a60205260406000209060018060a01b03166000526020526001604060002055600080f35b346101c55760203660031901126101c55761050c610fcc565b33600052600060205261052660016040600020541461108a565b6001600160a01b0316600090815260208190526040812055005b346101c55760003660031901126101c5576020600954604051908152f35b346101c5576105b761056f3661102b565b9290919233600052600060205261058d60016040600020541461108a565b83600052600360205260406000209260018060a01b0316928360005260205260406000205461112d565b916000526003602052604060002090600052602052604060002055600080f35b346101c5576106e960056105ea36610fe2565b94909593923360005261069e6106716020976000895261061160016040600020541461108a565b8460005260028952604060002060018060a01b03809816600052895260018a81604060002088600052818d5261064d604060002093825461112d565b81550161065b84825461112d565b905561066883825461112d565b8155015461124b565b97836000526003885285604060002093169283600052885261069860406000205491611106565b9061112d565b916000526003865260406000209060005285526040600020551691826000528181526106d260406000205461069886611106565b926000525260406000205561069860075491611106565b600755005b346101c5576106fc36610fe2565b9085600096959396526002602052604060002060018060a01b038416600052602052604060002095604051946040860167ffffffffffffffff988782108a831117610b185760019160405280548852015460208701528660005260016020526040600020604051988960a08101109060a08b011117610b185760a089016040528054895260046001820154918260208c0152600281015460408c0152600381015460608c0152015460808a015215610ae0576107b983875161112d565b86526107c984602088015161112d565b60208701526107d984895161112d565b88526107e98460208a015161124b565b936107fd60208a01516020890151906111e3565b9061080a8660065461112d565b8060065561081e8b5160208d0151906111e3565b60608c015110159060085410151660008213151715610aa4576000851215600082131516610852895160408d0151906111e3565b831115811715610a705761086633896111b1565b1715610a375761087633846111b1565b600086131517156109fe57600061088d33866111b1565b91121517156109c5576020870151159060808a015111151715610995576108df6109189388600052600360205260406000209260018060a01b0316928360005260205261069860406000205491611106565b9087600052600360205260406000209060005260205260406000205560018060a01b03169182600052600460205260406000205461112d565b90600052600460205260406000205582600052600260205260406000209060018060a01b031660005260205260016020604060002092805184550151910155600052600160205260046080604060002092805184556020810151600185015560408101516002850155606081015160038501550151910155600080f35b60405162461bcd60e51b815260206004820152600860248201526715985d0bd91d5cdd60c21b6044820152606490fd5b60405162461bcd60e51b81526020600482015260116024820152705661742f6e6f742d616c6c6f7765642d7760781b6044820152606490fd5b60405162461bcd60e51b81526020600482015260116024820152702b30ba17b737ba16b0b63637bbb2b216bb60791b6044820152606490fd5b60405162461bcd60e51b81526020600482015260116024820152705661742f6e6f742d616c6c6f7765642d7560781b6044820152606490fd5b60405162461bcd60e51b815260206004820152600c60248201526b5661742f6e6f742d7361666560a01b6044820152606490fd5b60405162461bcd60e51b815260206004820152601460248201527315985d0bd8d95a5b1a5b99cb595e18d95959195960621b6044820152606490fd5b60405162461bcd60e51b815260206004820152601060248201526f15985d0bda5b1acb5b9bdd0b5a5b9a5d60821b6044820152606490fd5b634e487b7160e01b600052604160045260246000fd5b346101c55760203660031901126101c5576001600160a01b03610b4f610fcc565b1660005260046020526020604060002054604051908152f35b346101c55760003660031901126101c557336000526000602052610b9360016040600020541461108a565b6000600955005b346101c55760203660031901126101c557610bb3610fcc565b336000526000602052610bcd60016040600020541461108a565b6001600160a01b0316600090815260208190526040902060019055005b346101c55760803660031901126101c557600435610c06610fb6565b6001600160a01b0360443581811692908390036101c557610c929060643590610c3261039933836111b1565b85600052602093600385526040600020911690816000528452610c5a82604060002054611166565b908660005260038552604060002090600052845260406000205584600052600383526040600020846000528352604060002054611152565b926000526003815260406000209160005252604060002055600080f35b346101c55760403660031901126101c557610cc8610fcc565b610cd0610fb6565b9060018060a01b03809116600052600a602052604060002091166000526020526020604060002054604051908152f35b346101c55760203660031901126101c557600435336000526000602052610d2e60016040600020541461108a565b806000526001602052600160406000200154610d675760005260016020526b033b2e3c9fd0803ce8000000600160406000200155600080f35b60405162461bcd60e51b815260206004820152601460248201527315985d0bda5b1acb585b1c9958591e4b5a5b9a5d60621b6044820152606490fd5b346101c55760003660031901126101c5576020600754604051908152f35b346101c55760403660031901126101c557336000526000602052610dec60016040600020541461108a565b610dfa6001600954146110cb565b600435634c696e6560e01b03610e1257602435600855005b60405162461bcd60e51b815260206004820152601b60248201527f5661742f66696c652d756e7265636f676e697a65642d706172616d00000000006044820152606490fd5b346101c55760403660031901126101c557610e70610fb6565b600435600052600260205260406000209060018060a01b03166000526020526040806000206001815491015482519182526020820152f35b346101c55760403660031901126101c557610ec1610fb6565b600435600052600360205260406000209060018060a01b03166000526020526020604060002054604051908152f35b346101c55760603660031901126101c5576004356024359060443591336000526000602052610f2660016040600020541461108a565b610f346001600954146110cb565b631cdc1bdd60e21b8103610f5657506000526001602052600260406000200155005b636c696e6560e01b8103610f7b57506000526001602052600360406000200155600080f35b63191d5cdd60e21b03610e12576000526001602052600460406000200155005b346101c55760003660031901126101c5576020906006548152f35b602435906001600160a01b03821682036101c557565b600435906001600160a01b03821682036101c557565b60c09060031901126101c557600435906001600160a01b0360243581811681036101c5579160443582811681036101c5579160643590811681036101c557906084359060a43590565b60609060031901126101c557600435906024356001600160a01b03811681036101c5579060443590565b60609060031901126101c5576001600160a01b039060043582811681036101c5579160243590811681036101c5579060443590565b1561109157565b60405162461bcd60e51b815260206004820152601260248201527115985d0bdb9bdd0b585d5d1a1bdc9a5e995960721b6044820152606490fd5b156110d257565b60405162461bcd60e51b815260206004820152600c60248201526b5661742f6e6f742d6c69766560a01b6044820152606490fd5b600160ff1b81146111175760000390565b634e487b7160e01b600052601160045260246000fd5b90600081121561114d579061114461114a92611106565b90611166565b90565b61114a915b91908201918281116111175782106101c557565b9081039081116111175790565b1561117a57565b60405162461bcd60e51b815260206004820152600f60248201526e15985d0bdb9bdd0b585b1b1bddd959608a1b6044820152606490fd5b9060018060a01b0380911691169081600052600a60205260406000208160005260205260016040600020541491141790565b6000929183918115918215611200575b5050156111fd5750565b80fd5b8181929396500282810482148315171561123757809561122357041438806111f3565b634e487b7160e01b84526012600452602484fd5b634e487b7160e01b84526011600452602484fd5b9060008112156112705761114a9161126561126b92611106565b906111e3565b611106565b61114a916111e356fea2646970667358221220a4d415f17848afb5a4ad3862c6d0596849aac6c031a13013d0265c932e54643f64736f6c63430008130033","opcodes":"PUSH1 0x80 DUP1 PUSH1 0x40 MSTORE CALLVALUE PUSH2 0x2C JUMPI CALLER PUSH1 0x0 MSTORE PUSH1 0x0 PUSH1 0x20 MSTORE PUSH1 0x1 PUSH1 0x40 PUSH1 0x0 KECCAK256 SSTORE PUSH1 0x1 PUSH1 0x9 SSTORE PUSH2 0x12AF SWAP1 DUP2 PUSH2 0x32 DUP3 CODECOPY RETURN JUMPDEST PUSH1 0x0 DUP1 REVERT INVALID PUSH1 0x80 DUP1 PUSH1 0x40 MSTORE PUSH1 0x4 CALLDATASIZE LT ISZERO PUSH2 0x13 JUMPI PUSH1 0x0 DUP1 REVERT JUMPDEST PUSH1 0x0 CALLDATALOAD PUSH1 0xE0 SHR SWAP1 DUP2 PUSH4 0xDCA59C1 EQ PUSH2 0xF9B JUMPI POP DUP1 PUSH4 0x1A0B287E EQ PUSH2 0xEF0 JUMPI DUP1 PUSH4 0x214414D5 EQ PUSH2 0xEA8 JUMPI DUP1 PUSH4 0x2424BE5C EQ PUSH2 0xE57 JUMPI DUP1 PUSH4 0x29AE8114 EQ PUSH2 0xDC1 JUMPI DUP1 PUSH4 0x2D61A355 EQ PUSH2 0xDA3 JUMPI DUP1 PUSH4 0x3B663195 EQ PUSH2 0xD00 JUMPI DUP1 PUSH4 0x4538C4EB EQ PUSH2 0xCAF JUMPI DUP1 PUSH4 0x6111BE2E EQ PUSH2 0xBEA JUMPI DUP1 PUSH4 0x65FAE35E EQ PUSH2 0xB9A JUMPI DUP1 PUSH4 0x69245009 EQ PUSH2 0xB68 JUMPI DUP1 PUSH4 0x6C25B346 EQ PUSH2 0xB2E JUMPI DUP1 PUSH4 0x76088703 EQ PUSH2 0x6EE JUMPI DUP1 PUSH4 0x7BAB3F40 EQ PUSH2 0x5D7 JUMPI DUP1 PUSH4 0x7CDD3FDE EQ PUSH2 0x55E JUMPI DUP1 PUSH4 0x957AA58C EQ PUSH2 0x540 JUMPI DUP1 PUSH4 0x9C52A7F1 EQ PUSH2 0x4F3 JUMPI DUP1 PUSH4 0xA3B22FC4 EQ PUSH2 0x4B0 JUMPI DUP1 PUSH4 0xB65337DF EQ PUSH2 0x415 JUMPI DUP1 PUSH4 0xBABE8A3F EQ PUSH2 0x3F7 JUMPI DUP1 PUSH4 0xBB35783B EQ PUSH2 0x378 JUMPI DUP1 PUSH4 0xBF353DBB EQ PUSH2 0x33E JUMPI DUP1 PUSH4 0xD9638D36 EQ PUSH2 0x2E6 JUMPI DUP1 PUSH4 0xDC4D20FA EQ PUSH2 0x2A4 JUMPI DUP1 PUSH4 0xF059212A EQ PUSH2 0x26A JUMPI DUP1 PUSH4 0xF24E23EB EQ PUSH2 0x1CA JUMPI PUSH4 0xF37AC61C EQ PUSH2 0x148 JUMPI PUSH1 0x0 DUP1 REVERT JUMPDEST CALLVALUE PUSH2 0x1C5 JUMPI PUSH1 0x20 CALLDATASIZE PUSH1 0x3 NOT ADD SLT PUSH2 0x1C5 JUMPI PUSH2 0x1C0 PUSH1 0x4 CALLDATALOAD CALLER PUSH1 0x0 MSTORE PUSH1 0x5 PUSH1 0x20 MSTORE PUSH2 0x177 DUP2 PUSH1 0x40 PUSH1 0x0 KECCAK256 SLOAD PUSH2 0x1166 JUMP JUMPDEST CALLER PUSH1 0x0 MSTORE PUSH1 0x5 PUSH1 0x20 MSTORE PUSH1 0x40 PUSH1 0x0 KECCAK256 SSTORE PUSH1 0x4 PUSH1 0x20 MSTORE PUSH2 0x19A DUP2 PUSH1 0x40 PUSH1 0x0 KECCAK256 SLOAD PUSH2 0x1166 JUMP JUMPDEST CALLER PUSH1 0x0 MSTORE PUSH1 0x4 PUSH1 0x20 MSTORE PUSH1 0x40 PUSH1 0x0 KECCAK256 SSTORE PUSH2 0x1B5 DUP2 PUSH1 0x7 SLOAD PUSH2 0x1166 JUMP JUMPDEST PUSH1 0x7 SSTORE PUSH1 0x6 SLOAD PUSH2 0x1166 JUMP JUMPDEST PUSH1 0x6 SSTORE STOP JUMPDEST PUSH1 0x0 DUP1 REVERT JUMPDEST CALLVALUE PUSH2 0x1C5 JUMPI PUSH2 0x1C0 PUSH2 0x1DB CALLDATASIZE PUSH2 0x1055 JUMP JUMPDEST SWAP2 SWAP1 CALLER PUSH1 0x0 MSTORE PUSH1 0x0 PUSH1 0x20 MSTORE PUSH2 0x1F7 PUSH1 0x1 PUSH1 0x40 PUSH1 0x0 KECCAK256 SLOAD EQ PUSH2 0x108A JUMP JUMPDEST PUSH1 0x1 PUSH1 0x1 PUSH1 0xA0 SHL SUB SWAP2 DUP3 AND PUSH1 0x0 DUP2 DUP2 MSTORE PUSH1 0x5 PUSH1 0x20 MSTORE PUSH1 0x40 SWAP1 KECCAK256 SLOAD PUSH2 0x21C SWAP1 DUP6 SWAP1 PUSH2 0x1152 JUMP JUMPDEST SWAP1 PUSH1 0x0 MSTORE PUSH1 0x5 PUSH1 0x20 MSTORE PUSH1 0x40 PUSH1 0x0 KECCAK256 SSTORE AND DUP1 PUSH1 0x0 MSTORE PUSH1 0x4 PUSH1 0x20 MSTORE PUSH2 0x244 DUP3 PUSH1 0x40 PUSH1 0x0 KECCAK256 SLOAD PUSH2 0x1152 JUMP JUMPDEST SWAP1 PUSH1 0x0 MSTORE PUSH1 0x4 PUSH1 0x20 MSTORE PUSH1 0x40 PUSH1 0x0 KECCAK256 SSTORE PUSH2 0x25F DUP2 PUSH1 0x7 SLOAD PUSH2 0x1152 JUMP JUMPDEST PUSH1 0x7 SSTORE PUSH1 0x6 SLOAD PUSH2 0x1152 JUMP JUMPDEST CALLVALUE PUSH2 0x1C5 JUMPI PUSH1 0x20 CALLDATASIZE PUSH1 0x3 NOT ADD SLT PUSH2 0x1C5 JUMPI PUSH1 0x1 PUSH1 0x1 PUSH1 0xA0 SHL SUB PUSH2 0x28B PUSH2 0xFCC JUMP JUMPDEST AND PUSH1 0x0 MSTORE PUSH1 0x5 PUSH1 0x20 MSTORE PUSH1 0x20 PUSH1 0x40 PUSH1 0x0 KECCAK256 SLOAD PUSH1 0x40 MLOAD SWAP1 DUP2 MSTORE RETURN JUMPDEST CALLVALUE PUSH2 0x1C5 JUMPI PUSH1 0x20 CALLDATASIZE PUSH1 0x3 NOT ADD SLT PUSH2 0x1C5 JUMPI PUSH2 0x2BD PUSH2 0xFCC JUMP JUMPDEST CALLER PUSH1 0x0 MSTORE PUSH1 0xA PUSH1 0x20 MSTORE PUSH1 0x40 PUSH1 0x0 KECCAK256 SWAP1 PUSH1 0x1 DUP1 PUSH1 0xA0 SHL SUB AND PUSH1 0x0 MSTORE PUSH1 0x20 MSTORE PUSH1 0x0 PUSH1 0x40 DUP2 KECCAK256 SSTORE PUSH1 0x0 DUP1 RETURN JUMPDEST CALLVALUE PUSH2 0x1C5 JUMPI PUSH1 0x20 CALLDATASIZE PUSH1 0x3 NOT ADD SLT PUSH2 0x1C5 JUMPI PUSH1 0x4 CALLDATALOAD PUSH1 0x0 MSTORE PUSH1 0x1 PUSH1 0x20 MSTORE PUSH1 0xA0 PUSH1 0x40 PUSH1 0x0 KECCAK256 DUP1 SLOAD SWAP1 PUSH1 0x1 DUP2 ADD SLOAD SWAP1 PUSH1 0x2 DUP2 ADD SLOAD PUSH1 0x4 PUSH1 0x3 DUP4 ADD SLOAD SWAP3 ADD SLOAD SWAP3 PUSH1 0x40 MLOAD SWAP5 DUP6 MSTORE PUSH1 0x20 DUP6 ADD MSTORE PUSH1 0x40 DUP5 ADD MSTORE PUSH1 0x60 DUP4 ADD MSTORE PUSH1 0x80 DUP3 ADD MSTORE RETURN JUMPDEST CALLVALUE PUSH2 0x1C5 JUMPI PUSH1 0x20 CALLDATASIZE PUSH1 0x3 NOT ADD SLT PUSH2 0x1C5 JUMPI PUSH1 0x1 PUSH1 0x1 PUSH1 0xA0 SHL SUB PUSH2 0x35F PUSH2 0xFCC JUMP JUMPDEST AND PUSH1 0x0 MSTORE PUSH1 0x0 PUSH1 0x20 MSTORE PUSH1 0x20 PUSH1 0x40 PUSH1 0x0 KECCAK256 SLOAD PUSH1 0x40 MLOAD SWAP1 DUP2 MSTORE RETURN JUMPDEST CALLVALUE PUSH2 0x1C5 JUMPI PUSH2 0x3E3 PUSH2 0x389 CALLDATASIZE PUSH2 0x1055 JUMP JUMPDEST SWAP3 SWAP2 SWAP1 PUSH2 0x39E PUSH2 0x399 CALLER DUP5 PUSH2 0x11B1 JUMP JUMPDEST PUSH2 0x1173 JUMP JUMPDEST PUSH1 0x1 PUSH1 0x1 PUSH1 0xA0 SHL SUB SWAP2 DUP3 AND PUSH1 0x0 DUP2 DUP2 MSTORE PUSH1 0x4 PUSH1 0x20 MSTORE PUSH1 0x40 SWAP1 KECCAK256 SLOAD PUSH2 0x3C3 SWAP1 DUP7 SWAP1 PUSH2 0x1166 JUMP JUMPDEST SWAP1 PUSH1 0x0 MSTORE PUSH1 0x4 PUSH1 0x20 MSTORE PUSH1 0x40 PUSH1 0x0 KECCAK256 SSTORE AND SWAP2 DUP3 PUSH1 0x0 MSTORE PUSH1 0x40 PUSH1 0x0 KECCAK256 SLOAD PUSH2 0x1152 JUMP JUMPDEST SWAP1 PUSH1 0x0 MSTORE PUSH1 0x4 PUSH1 0x20 MSTORE PUSH1 0x40 PUSH1 0x0 KECCAK256 SSTORE PUSH1 0x0 DUP1 RETURN JUMPDEST CALLVALUE PUSH2 0x1C5 JUMPI PUSH1 0x0 CALLDATASIZE PUSH1 0x3 NOT ADD SLT PUSH2 0x1C5 JUMPI PUSH1 0x20 PUSH1 0x8 SLOAD PUSH1 0x40 MLOAD SWAP1 DUP2 MSTORE RETURN JUMPDEST CALLVALUE PUSH2 0x1C5 JUMPI PUSH2 0x1C0 PUSH2 0x478 PUSH2 0x429 CALLDATASIZE PUSH2 0x102B JUMP JUMPDEST SWAP1 SWAP3 SWAP2 CALLER PUSH1 0x0 MSTORE PUSH1 0x0 PUSH1 0x20 MSTORE PUSH2 0x446 PUSH1 0x1 PUSH1 0x40 PUSH1 0x0 KECCAK256 SLOAD EQ PUSH2 0x108A JUMP JUMPDEST PUSH2 0x454 PUSH1 0x1 PUSH1 0x9 SLOAD EQ PUSH2 0x10CB JUMP JUMPDEST PUSH1 0x0 MSTORE PUSH1 0x1 PUSH1 0x20 MSTORE PUSH1 0x40 PUSH1 0x0 KECCAK256 PUSH1 0x1 DUP2 ADD PUSH2 0x470 DUP4 DUP3 SLOAD PUSH2 0x112D JUMP JUMPDEST SWAP1 SSTORE SLOAD PUSH2 0x124B JUMP JUMPDEST SWAP1 PUSH1 0x1 DUP1 PUSH1 0xA0 SHL SUB AND DUP1 PUSH1 0x0 MSTORE PUSH1 0x4 PUSH1 0x20 MSTORE PUSH2 0x499 DUP3 PUSH1 0x40 PUSH1 0x0 KECCAK256 SLOAD PUSH2 0x112D JUMP JUMPDEST SWAP1 PUSH1 0x0 MSTORE PUSH1 0x4 PUSH1 0x20 MSTORE PUSH1 0x40 PUSH1 0x0 KECCAK256 SSTORE PUSH1 0x6 SLOAD PUSH2 0x112D JUMP JUMPDEST CALLVALUE PUSH2 0x1C5 JUMPI PUSH1 0x20 CALLDATASIZE PUSH1 0x3 NOT ADD SLT PUSH2 0x1C5 JUMPI PUSH2 0x4C9 PUSH2 0xFCC JUMP JUMPDEST CALLER PUSH1 0x0 MSTORE PUSH1 0xA PUSH1 0x20 MSTORE PUSH1 0x40 PUSH1 0x0 KECCAK256 SWAP1 PUSH1 0x1 DUP1 PUSH1 0xA0 SHL SUB AND PUSH1 0x0 MSTORE PUSH1 0x20 MSTORE PUSH1 0x1 PUSH1 0x40 PUSH1 0x0 KECCAK256 SSTORE PUSH1 0x0 DUP1 RETURN JUMPDEST CALLVALUE PUSH2 0x1C5 JUMPI PUSH1 0x20 CALLDATASIZE PUSH1 0x3 NOT ADD SLT PUSH2 0x1C5 JUMPI PUSH2 0x50C PUSH2 0xFCC JUMP JUMPDEST CALLER PUSH1 0x0 MSTORE PUSH1 0x0 PUSH1 0x20 MSTORE PUSH2 0x526 PUSH1 0x1 PUSH1 0x40 PUSH1 0x0 KECCAK256 SLOAD EQ PUSH2 0x108A JUMP JUMPDEST PUSH1 0x1 PUSH1 0x1 PUSH1 0xA0 SHL SUB AND PUSH1 0x0 SWAP1 DUP2 MSTORE PUSH1 0x20 DUP2 SWAP1 MSTORE PUSH1 0x40 DUP2 KECCAK256 SSTORE STOP JUMPDEST CALLVALUE PUSH2 0x1C5 JUMPI PUSH1 0x0 CALLDATASIZE PUSH1 0x3 NOT ADD SLT PUSH2 0x1C5 JUMPI PUSH1 0x20 PUSH1 0x9 SLOAD PUSH1 0x40 MLOAD SWAP1 DUP2 MSTORE RETURN JUMPDEST CALLVALUE PUSH2 0x1C5 JUMPI PUSH2 0x5B7 PUSH2 0x56F CALLDATASIZE PUSH2 0x102B JUMP JUMPDEST SWAP3 SWAP1 SWAP2 SWAP3 CALLER PUSH1 0x0 MSTORE PUSH1 0x0 PUSH1 0x20 MSTORE PUSH2 0x58D PUSH1 0x1 PUSH1 0x40 PUSH1 0x0 KECCAK256 SLOAD EQ PUSH2 0x108A JUMP JUMPDEST DUP4 PUSH1 0x0 MSTORE PUSH1 0x3 PUSH1 0x20 MSTORE PUSH1 0x40 PUSH1 0x0 KECCAK256 SWAP3 PUSH1 0x1 DUP1 PUSH1 0xA0 SHL SUB AND SWAP3 DUP4 PUSH1 0x0 MSTORE PUSH1 0x20 MSTORE PUSH1 0x40 PUSH1 0x0 KECCAK256 SLOAD PUSH2 0x112D JUMP JUMPDEST SWAP2 PUSH1 0x0 MSTORE PUSH1 0x3 PUSH1 0x20 MSTORE PUSH1 0x40 PUSH1 0x0 KECCAK256 SWAP1 PUSH1 0x0 MSTORE PUSH1 0x20 MSTORE PUSH1 0x40 PUSH1 0x0 KECCAK256 SSTORE PUSH1 0x0 DUP1 RETURN JUMPDEST CALLVALUE PUSH2 0x1C5 JUMPI PUSH2 0x6E9 PUSH1 0x5 PUSH2 0x5EA CALLDATASIZE PUSH2 0xFE2 JUMP JUMPDEST SWAP5 SWAP1 SWAP6 SWAP4 SWAP3 CALLER PUSH1 0x0 MSTORE PUSH2 0x69E PUSH2 0x671 PUSH1 0x20 SWAP8 PUSH1 0x0 DUP10 MSTORE PUSH2 0x611 PUSH1 0x1 PUSH1 0x40 PUSH1 0x0 KECCAK256 SLOAD EQ PUSH2 0x108A JUMP JUMPDEST DUP5 PUSH1 0x0 MSTORE PUSH1 0x2 DUP10 MSTORE PUSH1 0x40 PUSH1 0x0 KECCAK256 PUSH1 0x1 DUP1 PUSH1 0xA0 SHL SUB DUP1 SWAP9 AND PUSH1 0x0 MSTORE DUP10 MSTORE PUSH1 0x1 DUP11 DUP2 PUSH1 0x40 PUSH1 0x0 KECCAK256 DUP9 PUSH1 0x0 MSTORE DUP2 DUP14 MSTORE PUSH2 0x64D PUSH1 0x40 PUSH1 0x0 KECCAK256 SWAP4 DUP3 SLOAD PUSH2 0x112D JUMP JUMPDEST DUP2 SSTORE ADD PUSH2 0x65B DUP5 DUP3 SLOAD PUSH2 0x112D JUMP JUMPDEST SWAP1 SSTORE PUSH2 0x668 DUP4 DUP3 SLOAD PUSH2 0x112D JUMP JUMPDEST DUP2 SSTORE ADD SLOAD PUSH2 0x124B JUMP JUMPDEST SWAP8 DUP4 PUSH1 0x0 MSTORE PUSH1 0x3 DUP9 MSTORE DUP6 PUSH1 0x40 PUSH1 0x0 KECCAK256 SWAP4 AND SWAP3 DUP4 PUSH1 0x0 MSTORE DUP9 MSTORE PUSH2 0x698 PUSH1 0x40 PUSH1 0x0 KECCAK256 SLOAD SWAP2 PUSH2 0x1106 JUMP JUMPDEST SWAP1 PUSH2 0x112D JUMP JUMPDEST SWAP2 PUSH1 0x0 MSTORE PUSH1 0x3 DUP7 MSTORE PUSH1 0x40 PUSH1 0x0 KECCAK256 SWAP1 PUSH1 0x0 MSTORE DUP6 MSTORE PUSH1 0x40 PUSH1 0x0 KECCAK256 SSTORE AND SWAP2 DUP3 PUSH1 0x0 MSTORE DUP2 DUP2 MSTORE PUSH2 0x6D2 PUSH1 0x40 PUSH1 0x0 KECCAK256 SLOAD PUSH2 0x698 DUP7 PUSH2 0x1106 JUMP JUMPDEST SWAP3 PUSH1 0x0 MSTORE MSTORE PUSH1 0x40 PUSH1 0x0 KECCAK256 SSTORE PUSH2 0x698 PUSH1 0x7 SLOAD SWAP2 PUSH2 0x1106 JUMP JUMPDEST PUSH1 0x7 SSTORE STOP JUMPDEST CALLVALUE PUSH2 0x1C5 JUMPI PUSH2 0x6FC CALLDATASIZE PUSH2 0xFE2 JUMP JUMPDEST SWAP1 DUP6 PUSH1 0x0 SWAP7 SWAP6 SWAP4 SWAP7 MSTORE PUSH1 0x2 PUSH1 0x20 MSTORE PUSH1 0x40 PUSH1 0x0 KECCAK256 PUSH1 0x1 DUP1 PUSH1 0xA0 SHL SUB DUP5 AND PUSH1 0x0 MSTORE PUSH1 0x20 MSTORE PUSH1 0x40 PUSH1 0x0 KECCAK256 SWAP6 PUSH1 0x40 MLOAD SWAP5 PUSH1 0x40 DUP7 ADD PUSH8 0xFFFFFFFFFFFFFFFF SWAP9 DUP8 DUP3 LT DUP11 DUP4 GT OR PUSH2 0xB18 JUMPI PUSH1 0x1 SWAP2 PUSH1 0x40 MSTORE DUP1 SLOAD DUP9 MSTORE ADD SLOAD PUSH1 0x20 DUP8 ADD MSTORE DUP7 PUSH1 0x0 MSTORE PUSH1 0x1 PUSH1 0x20 MSTORE PUSH1 0x40 PUSH1 0x0 KECCAK256 PUSH1 0x40 MLOAD SWAP9 DUP10 PUSH1 0xA0 DUP2 ADD LT SWAP1 PUSH1 0xA0 DUP12 ADD GT OR PUSH2 0xB18 JUMPI PUSH1 0xA0 DUP10 ADD PUSH1 0x40 MSTORE DUP1 SLOAD DUP10 MSTORE PUSH1 0x4 PUSH1 0x1 DUP3 ADD SLOAD SWAP2 DUP3 PUSH1 0x20 DUP13 ADD MSTORE PUSH1 0x2 DUP2 ADD SLOAD PUSH1 0x40 DUP13 ADD MSTORE PUSH1 0x3 DUP2 ADD SLOAD PUSH1 0x60 DUP13 ADD MSTORE ADD SLOAD PUSH1 0x80 DUP11 ADD MSTORE ISZERO PUSH2 0xAE0 JUMPI PUSH2 0x7B9 DUP4 DUP8 MLOAD PUSH2 0x112D JUMP JUMPDEST DUP7 MSTORE PUSH2 0x7C9 DUP5 PUSH1 0x20 DUP9 ADD MLOAD PUSH2 0x112D JUMP JUMPDEST PUSH1 0x20 DUP8 ADD MSTORE PUSH2 0x7D9 DUP5 DUP10 MLOAD PUSH2 0x112D JUMP JUMPDEST DUP9 MSTORE PUSH2 0x7E9 DUP5 PUSH1 0x20 DUP11 ADD MLOAD PUSH2 0x124B JUMP JUMPDEST SWAP4 PUSH2 0x7FD PUSH1 0x20 DUP11 ADD MLOAD PUSH1 0x20 DUP10 ADD MLOAD SWAP1 PUSH2 0x11E3 JUMP JUMPDEST SWAP1 PUSH2 0x80A DUP7 PUSH1 0x6 SLOAD PUSH2 0x112D JUMP JUMPDEST DUP1 PUSH1 0x6 SSTORE PUSH2 0x81E DUP12 MLOAD PUSH1 0x20 DUP14 ADD MLOAD SWAP1 PUSH2 0x11E3 JUMP JUMPDEST PUSH1 0x60 DUP13 ADD MLOAD LT ISZERO SWAP1 PUSH1 0x8 SLOAD LT ISZERO AND PUSH1 0x0 DUP3 SGT ISZERO OR ISZERO PUSH2 0xAA4 JUMPI PUSH1 0x0 DUP6 SLT ISZERO PUSH1 0x0 DUP3 SGT ISZERO AND PUSH2 0x852 DUP10 MLOAD PUSH1 0x40 DUP14 ADD MLOAD SWAP1 PUSH2 0x11E3 JUMP JUMPDEST DUP4 GT ISZERO DUP2 OR ISZERO PUSH2 0xA70 JUMPI PUSH2 0x866 CALLER DUP10 PUSH2 0x11B1 JUMP JUMPDEST OR ISZERO PUSH2 0xA37 JUMPI PUSH2 0x876 CALLER DUP5 PUSH2 0x11B1 JUMP JUMPDEST PUSH1 0x0 DUP7 SGT ISZERO OR ISZERO PUSH2 0x9FE JUMPI PUSH1 0x0 PUSH2 0x88D CALLER DUP7 PUSH2 0x11B1 JUMP JUMPDEST SWAP2 SLT ISZERO OR ISZERO PUSH2 0x9C5 JUMPI PUSH1 0x20 DUP8 ADD MLOAD ISZERO SWAP1 PUSH1 0x80 DUP11 ADD MLOAD GT ISZERO OR ISZERO PUSH2 0x995 JUMPI PUSH2 0x8DF PUSH2 0x918 SWAP4 DUP9 PUSH1 0x0 MSTORE PUSH1 0x3 PUSH1 0x20 MSTORE PUSH1 0x40 PUSH1 0x0 KECCAK256 SWAP3 PUSH1 0x1 DUP1 PUSH1 0xA0 SHL SUB AND SWAP3 DUP4 PUSH1 0x0 MSTORE PUSH1 0x20 MSTORE PUSH2 0x698 PUSH1 0x40 PUSH1 0x0 KECCAK256 SLOAD SWAP2 PUSH2 0x1106 JUMP JUMPDEST SWAP1 DUP8 PUSH1 0x0 MSTORE PUSH1 0x3 PUSH1 0x20 MSTORE PUSH1 0x40 PUSH1 0x0 KECCAK256 SWAP1 PUSH1 0x0 MSTORE PUSH1 0x20 MSTORE PUSH1 0x40 PUSH1 0x0 KECCAK256 SSTORE PUSH1 0x1 DUP1 PUSH1 0xA0 SHL SUB AND SWAP2 DUP3 PUSH1 0x0 MSTORE PUSH1 0x4 PUSH1 0x20 MSTORE PUSH1 0x40 PUSH1 0x0 KECCAK256 SLOAD PUSH2 0x112D JUMP JUMPDEST SWAP1 PUSH1 0x0 MSTORE PUSH1 0x4 PUSH1 0x20 MSTORE PUSH1 0x40 PUSH1 0x0 KECCAK256 SSTORE DUP3 PUSH1 0x0 MSTORE PUSH1 0x2 PUSH1 0x20 MSTORE PUSH1 0x40 PUSH1 0x0 KECCAK256 SWAP1 PUSH1 0x1 DUP1 PUSH1 0xA0 SHL SUB AND PUSH1 0x0 MSTORE PUSH1 0x20 MSTORE PUSH1 0x1 PUSH1 0x20 PUSH1 0x40 PUSH1 0x0 KECCAK256 SWAP3 DUP1 MLOAD DUP5 SSTORE ADD MLOAD SWAP2 ADD SSTORE PUSH1 0x0 MSTORE PUSH1 0x1 PUSH1 0x20 MSTORE PUSH1 0x4 PUSH1 0x80 PUSH1 0x40 PUSH1 0x0 KECCAK256 SWAP3 DUP1 MLOAD DUP5 SSTORE PUSH1 0x20 DUP2 ADD MLOAD PUSH1 0x1 DUP6 ADD SSTORE PUSH1 0x40 DUP2 ADD MLOAD PUSH1 0x2 DUP6 ADD SSTORE PUSH1 0x60 DUP2 ADD MLOAD PUSH1 0x3 DUP6 ADD SSTORE ADD MLOAD SWAP2 ADD SSTORE PUSH1 0x0 DUP1 RETURN JUMPDEST PUSH1 0x40 MLOAD PUSH3 0x461BCD PUSH1 0xE5 SHL DUP2 MSTORE PUSH1 0x20 PUSH1 0x4 DUP3 ADD MSTORE PUSH1 0x8 PUSH1 0x24 DUP3 ADD MSTORE PUSH8 0x15985D0BD91D5CDD PUSH1 0xC2 SHL PUSH1 0x44 DUP3 ADD MSTORE PUSH1 0x64 SWAP1 REVERT JUMPDEST PUSH1 0x40 MLOAD PUSH3 0x461BCD PUSH1 0xE5 SHL DUP2 MSTORE PUSH1 0x20 PUSH1 0x4 DUP3 ADD MSTORE PUSH1 0x11 PUSH1 0x24 DUP3 ADD MSTORE PUSH17 0x5661742F6E6F742D616C6C6F7765642D77 PUSH1 0x78 SHL PUSH1 0x44 DUP3 ADD MSTORE PUSH1 0x64 SWAP1 REVERT JUMPDEST PUSH1 0x40 MLOAD PUSH3 0x461BCD PUSH1 0xE5 SHL DUP2 MSTORE PUSH1 0x20 PUSH1 0x4 DUP3 ADD MSTORE PUSH1 0x11 PUSH1 0x24 DUP3 ADD MSTORE PUSH17 0x2B30BA17B737BA16B0B63637BBB2B216BB PUSH1 0x79 SHL PUSH1 0x44 DUP3 ADD MSTORE PUSH1 0x64 SWAP1 REVERT JUMPDEST PUSH1 0x40 MLOAD PUSH3 0x461BCD PUSH1 0xE5 SHL DUP2 MSTORE PUSH1 0x20 PUSH1 0x4 DUP3 ADD MSTORE PUSH1 0x11 PUSH1 0x24 DUP3 ADD MSTORE PUSH17 0x5661742F6E6F742D616C6C6F7765642D75 PUSH1 0x78 SHL PUSH1 0x44 DUP3 ADD MSTORE PUSH1 0x64 SWAP1 REVERT JUMPDEST PUSH1 0x40 MLOAD PUSH3 0x461BCD PUSH1 0xE5 SHL DUP2 MSTORE PUSH1 0x20 PUSH1 0x4 DUP3 ADD MSTORE PUSH1 0xC PUSH1 0x24 DUP3 ADD MSTORE PUSH12 0x5661742F6E6F742D73616665 PUSH1 0xA0 SHL PUSH1 0x44 DUP3 ADD MSTORE PUSH1 0x64 SWAP1 REVERT JUMPDEST PUSH1 0x40 MLOAD PUSH3 0x461BCD PUSH1 0xE5 SHL DUP2 MSTORE PUSH1 0x20 PUSH1 0x4 DUP3 ADD MSTORE PUSH1 0x14 PUSH1 0x24 DUP3 ADD MSTORE PUSH20 0x15985D0BD8D95A5B1A5B99CB595E18D959591959 PUSH1 0x62 SHL PUSH1 0x44 DUP3 ADD MSTORE PUSH1 0x64 SWAP1 REVERT JUMPDEST PUSH1 0x40 MLOAD PUSH3 0x461BCD PUSH1 0xE5 SHL DUP2 MSTORE PUSH1 0x20 PUSH1 0x4 DUP3 ADD MSTORE PUSH1 0x10 PUSH1 0x24 DUP3 ADD MSTORE PUSH16 0x15985D0BDA5B1ACB5B9BDD0B5A5B9A5D PUSH1 0x82 SHL PUSH1 0x44 DUP3 ADD MSTORE PUSH1 0x64 SWAP1 REVERT JUMPDEST PUSH4 0x4E487B71 PUSH1 0xE0 SHL PUSH1 0x0 MSTORE PUSH1 0x41 PUSH1 0x4 MSTORE PUSH1 0x24 PUSH1 0x0 REVERT JUMPDEST CALLVALUE PUSH2 0x1C5 JUMPI PUSH1 0x20 CALLDATASIZE PUSH1 0x3 NOT ADD SLT PUSH2 0x1C5 JUMPI PUSH1 0x1 PUSH1 0x1 PUSH1 0xA0 SHL SUB PUSH2 0xB4F PUSH2 0xFCC JUMP JUMPDEST AND PUSH1 0x0 MSTORE PUSH1 0x4 PUSH1 0x20 MSTORE PUSH1 0x20 PUSH1 0x40 PUSH1 0x0 KECCAK256 SLOAD PUSH1 0x40 MLOAD SWAP1 DUP2 MSTORE RETURN JUMPDEST CALLVALUE PUSH2 0x1C5 JUMPI PUSH1 0x0 CALLDATASIZE PUSH1 0x3 NOT ADD SLT PUSH2 0x1C5 JUMPI CALLER PUSH1 0x0 MSTORE PUSH1 0x0 PUSH1 0x20 MSTORE PUSH2 0xB93 PUSH1 0x1 PUSH1 0x40 PUSH1 0x0 KECCAK256 SLOAD EQ PUSH2 0x108A JUMP JUMPDEST PUSH1 0x0 PUSH1 0x9 SSTORE STOP JUMPDEST CALLVALUE PUSH2 0x1C5 JUMPI PUSH1 0x20 CALLDATASIZE PUSH1 0x3 NOT ADD SLT PUSH2 0x1C5 JUMPI PUSH2 0xBB3 PUSH2 0xFCC JUMP JUMPDEST CALLER PUSH1 0x0 MSTORE PUSH1 0x0 PUSH1 0x20 MSTORE PUSH2 0xBCD PUSH1 0x1 PUSH1 0x40 PUSH1 0x0 KECCAK256 SLOAD EQ PUSH2 0x108A JUMP JUMPDEST PUSH1 0x1 PUSH1 0x1 PUSH1 0xA0 SHL SUB AND PUSH1 0x0 SWAP1 DUP2 MSTORE PUSH1 0x20 DUP2 SWAP1 MSTORE PUSH1 0x40 SWAP1 KECCAK256 PUSH1 0x1 SWAP1 SSTORE STOP JUMPDEST CALLVALUE PUSH2 0x1C5 JUMPI PUSH1 0x80 CALLDATASIZE PUSH1 0x3 NOT ADD SLT PUSH2 0x1C5 JUMPI PUSH1 0x4 CALLDATALOAD PUSH2 0xC06 PUSH2 0xFB6 JUMP JUMPDEST PUSH1 0x1 PUSH1 0x1 PUSH1 0xA0 SHL SUB PUSH1 0x44 CALLDATALOAD DUP2 DUP2 AND SWAP3 SWAP1 DUP4 SWAP1 SUB PUSH2 0x1C5 JUMPI PUSH2 0xC92 SWAP1 PUSH1 0x64 CALLDATALOAD SWAP1 PUSH2 0xC32 PUSH2 0x399 CALLER DUP4 PUSH2 0x11B1 JUMP JUMPDEST DUP6 PUSH1 0x0 MSTORE PUSH1 0x20 SWAP4 PUSH1 0x3 DUP6 MSTORE PUSH1 0x40 PUSH1 0x0 KECCAK256 SWAP2 AND SWAP1 DUP2 PUSH1 0x0 MSTORE DUP5 MSTORE PUSH2 0xC5A DUP3 PUSH1 0x40 PUSH1 0x0 KECCAK256 SLOAD PUSH2 0x1166 JUMP JUMPDEST SWAP1 DUP7 PUSH1 0x0 MSTORE PUSH1 0x3 DUP6 MSTORE PUSH1 0x40 PUSH1 0x0 KECCAK256 SWAP1 PUSH1 0x0 MSTORE DUP5 MSTORE PUSH1 0x40 PUSH1 0x0 KECCAK256 SSTORE DUP5 PUSH1 0x0 MSTORE PUSH1 0x3 DUP4 MSTORE PUSH1 0x40 PUSH1 0x0 KECCAK256 DUP5 PUSH1 0x0 MSTORE DUP4 MSTORE PUSH1 0x40 PUSH1 0x0 KECCAK256 SLOAD PUSH2 0x1152 JUMP JUMPDEST SWAP3 PUSH1 0x0 MSTORE PUSH1 0x3 DUP2 MSTORE PUSH1 0x40 PUSH1 0x0 KECCAK256 SWAP2 PUSH1 0x0 MSTORE MSTORE PUSH1 0x40 PUSH1 0x0 KECCAK256 SSTORE PUSH1 0x0 DUP1 RETURN JUMPDEST CALLVALUE PUSH2 0x1C5 JUMPI PUSH1 0x40 CALLDATASIZE PUSH1 0x3 NOT ADD SLT PUSH2 0x1C5 JUMPI PUSH2 0xCC8 PUSH2 0xFCC JUMP JUMPDEST PUSH2 0xCD0 PUSH2 0xFB6 JUMP JUMPDEST SWAP1 PUSH1 0x1 DUP1 PUSH1 0xA0 SHL SUB DUP1 SWAP2 AND PUSH1 0x0 MSTORE PUSH1 0xA PUSH1 0x20 MSTORE PUSH1 0x40 PUSH1 0x0 KECCAK256 SWAP2 AND PUSH1 0x0 MSTORE PUSH1 0x20 MSTORE PUSH1 0x20 PUSH1 0x40 PUSH1 0x0 KECCAK256 SLOAD PUSH1 0x40 MLOAD SWAP1 DUP2 MSTORE RETURN JUMPDEST CALLVALUE PUSH2 0x1C5 JUMPI PUSH1 0x20 CALLDATASIZE PUSH1 0x3 NOT ADD SLT PUSH2 0x1C5 JUMPI PUSH1 0x4 CALLDATALOAD CALLER PUSH1 0x0 MSTORE PUSH1 0x0 PUSH1 0x20 MSTORE PUSH2 0xD2E PUSH1 0x1 PUSH1 0x40 PUSH1 0x0 KECCAK256 SLOAD EQ PUSH2 0x108A JUMP JUMPDEST DUP1 PUSH1 0x0 MSTORE PUSH1 0x1 PUSH1 0x20 MSTORE PUSH1 0x1 PUSH1 0x40 PUSH1 0x0 KECCAK256 ADD SLOAD PUSH2 0xD67 JUMPI PUSH1 0x0 MSTORE PUSH1 0x1 PUSH1 0x20 MSTORE PUSH12 0x33B2E3C9FD0803CE8000000 PUSH1 0x1 PUSH1 0x40 PUSH1 0x0 KECCAK256 ADD SSTORE PUSH1 0x0 DUP1 RETURN JUMPDEST PUSH1 0x40 MLOAD PUSH3 0x461BCD PUSH1 0xE5 SHL DUP2 MSTORE PUSH1 0x20 PUSH1 0x4 DUP3 ADD MSTORE PUSH1 0x14 PUSH1 0x24 DUP3 ADD MSTORE PUSH20 0x15985D0BDA5B1ACB585B1C9958591E4B5A5B9A5D PUSH1 0x62 SHL PUSH1 0x44 DUP3 ADD MSTORE PUSH1 0x64 SWAP1 REVERT JUMPDEST CALLVALUE PUSH2 0x1C5 JUMPI PUSH1 0x0 CALLDATASIZE PUSH1 0x3 NOT ADD SLT PUSH2 0x1C5 JUMPI PUSH1 0x20 PUSH1 0x7 SLOAD PUSH1 0x40 MLOAD SWAP1 DUP2 MSTORE RETURN JUMPDEST CALLVALUE PUSH2 0x1C5 JUMPI PUSH1 0x40 CALLDATASIZE PUSH1 0x3 NOT ADD SLT PUSH2 0x1C5 JUMPI CALLER PUSH1 0x0 MSTORE PUSH1 0x0 PUSH1 0x20 MSTORE PUSH2 0xDEC PUSH1 0x1 PUSH1 0x40 PUSH1 0x0 KECCAK256 SLOAD EQ PUSH2 0x108A JUMP JUMPDEST PUSH2 0xDFA PUSH1 0x1 PUSH1 0x9 SLOAD EQ PUSH2 0x10CB JUMP JUMPDEST PUSH1 0x4 CALLDATALOAD PUSH4 0x4C696E65 PUSH1 0xE0 SHL SUB PUSH2 0xE12 JUMPI PUSH1 0x24 CALLDATALOAD PUSH1 0x8 SSTORE STOP JUMPDEST PUSH1 0x40 MLOAD PUSH3 0x461BCD PUSH1 0xE5 SHL DUP2 MSTORE PUSH1 0x20 PUSH1 0x4 DUP3 ADD MSTORE PUSH1 0x1B PUSH1 0x24 DUP3 ADD MSTORE PUSH32 0x5661742F66696C652D756E7265636F676E697A65642D706172616D0000000000 PUSH1 0x44 DUP3 ADD MSTORE PUSH1 0x64 SWAP1 REVERT JUMPDEST CALLVALUE PUSH2 0x1C5 JUMPI PUSH1 0x40 CALLDATASIZE PUSH1 0x3 NOT ADD SLT PUSH2 0x1C5 JUMPI PUSH2 0xE70 PUSH2 0xFB6 JUMP JUMPDEST PUSH1 0x4 CALLDATALOAD PUSH1 0x0 MSTORE PUSH1 0x2 PUSH1 0x20 MSTORE PUSH1 0x40 PUSH1 0x0 KECCAK256 SWAP1 PUSH1 0x1 DUP1 PUSH1 0xA0 SHL SUB AND PUSH1 0x0 MSTORE PUSH1 0x20 MSTORE PUSH1 0x40 DUP1 PUSH1 0x0 KECCAK256 PUSH1 0x1 DUP2 SLOAD SWAP2 ADD SLOAD DUP3 MLOAD SWAP2 DUP3 MSTORE PUSH1 0x20 DUP3 ADD MSTORE RETURN JUMPDEST CALLVALUE PUSH2 0x1C5 JUMPI PUSH1 0x40 CALLDATASIZE PUSH1 0x3 NOT ADD SLT PUSH2 0x1C5 JUMPI PUSH2 0xEC1 PUSH2 0xFB6 JUMP JUMPDEST PUSH1 0x4 CALLDATALOAD PUSH1 0x0 MSTORE PUSH1 0x3 PUSH1 0x20 MSTORE PUSH1 0x40 PUSH1 0x0 KECCAK256 SWAP1 PUSH1 0x1 DUP1 PUSH1 0xA0 SHL SUB AND PUSH1 0x0 MSTORE PUSH1 0x20 MSTORE PUSH1 0x20 PUSH1 0x40 PUSH1 0x0 KECCAK256 SLOAD PUSH1 0x40 MLOAD SWAP1 DUP2 MSTORE RETURN JUMPDEST CALLVALUE PUSH2 0x1C5 JUMPI PUSH1 0x60 CALLDATASIZE PUSH1 0x3 NOT ADD SLT PUSH2 0x1C5 JUMPI PUSH1 0x4 CALLDATALOAD PUSH1 0x24 CALLDATALOAD SWAP1 PUSH1 0x44 CALLDATALOAD SWAP2 CALLER PUSH1 0x0 MSTORE PUSH1 0x0 PUSH1 0x20 MSTORE PUSH2 0xF26 PUSH1 0x1 PUSH1 0x40 PUSH1 0x0 KECCAK256 SLOAD EQ PUSH2 0x108A JUMP JUMPDEST PUSH2 0xF34 PUSH1 0x1 PUSH1 0x9 SLOAD EQ PUSH2 0x10CB JUMP JUMPDEST PUSH4 0x1CDC1BDD PUSH1 0xE2 SHL DUP2 SUB PUSH2 0xF56 JUMPI POP PUSH1 0x0 MSTORE PUSH1 0x1 PUSH1 0x20 MSTORE PUSH1 0x2 PUSH1 0x40 PUSH1 0x0 KECCAK256 ADD SSTORE STOP JUMPDEST PUSH4 0x6C696E65 PUSH1 0xE0 SHL DUP2 SUB PUSH2 0xF7B JUMPI POP PUSH1 0x0 MSTORE PUSH1 0x1 PUSH1 0x20 MSTORE PUSH1 0x3 PUSH1 0x40 PUSH1 0x0 KECCAK256 ADD SSTORE PUSH1 0x0 DUP1 RETURN JUMPDEST PUSH4 0x191D5CDD PUSH1 0xE2 SHL SUB PUSH2 0xE12 JUMPI PUSH1 0x0 MSTORE PUSH1 0x1 PUSH1 0x20 MSTORE PUSH1 0x4 PUSH1 0x40 PUSH1 0x0 KECCAK256 ADD SSTORE STOP JUMPDEST CALLVALUE PUSH2 0x1C5 JUMPI PUSH1 0x0 CALLDATASIZE PUSH1 0x3 NOT ADD SLT PUSH2 0x1C5 JUMPI PUSH1 0x20 SWAP1 PUSH1 0x6 SLOAD DUP2 MSTORE RETURN JUMPDEST PUSH1 0x24 CALLDATALOAD SWAP1 PUSH1 0x1 PUSH1 0x1 PUSH1 0xA0 SHL SUB DUP3 AND DUP3 SUB PUSH2 0x1C5 JUMPI JUMP JUMPDEST PUSH1 0x4 CALLDATALOAD SWAP1 PUSH1 0x1 PUSH1 0x1 PUSH1 0xA0 SHL SUB DUP3 AND DUP3 SUB PUSH2 0x1C5 JUMPI JUMP JUMPDEST PUSH1 0xC0 SWAP1 PUSH1 0x3 NOT ADD SLT PUSH2 0x1C5 JUMPI PUSH1 0x4 CALLDATALOAD SWAP1 PUSH1 0x1 PUSH1 0x1 PUSH1 0xA0 SHL SUB PUSH1 0x24 CALLDATALOAD DUP2 DUP2 AND DUP2 SUB PUSH2 0x1C5 JUMPI SWAP2 PUSH1 0x44 CALLDATALOAD DUP3 DUP2 AND DUP2 SUB PUSH2 0x1C5 JUMPI SWAP2 PUSH1 0x64 CALLDATALOAD SWAP1 DUP2 AND DUP2 SUB PUSH2 0x1C5 JUMPI SWAP1 PUSH1 0x84 CALLDATALOAD SWAP1 PUSH1 0xA4 CALLDATALOAD SWAP1 JUMP JUMPDEST PUSH1 0x60 SWAP1 PUSH1 0x3 NOT ADD SLT PUSH2 0x1C5 JUMPI PUSH1 0x4 CALLDATALOAD SWAP1 PUSH1 0x24 CALLDATALOAD PUSH1 0x1 PUSH1 0x1 PUSH1 0xA0 SHL SUB DUP2 AND DUP2 SUB PUSH2 0x1C5 JUMPI SWAP1 PUSH1 0x44 CALLDATALOAD SWAP1 JUMP JUMPDEST PUSH1 0x60 SWAP1 PUSH1 0x3 NOT ADD SLT PUSH2 0x1C5 JUMPI PUSH1 0x1 PUSH1 0x1 PUSH1 0xA0 SHL SUB SWAP1 PUSH1 0x4 CALLDATALOAD DUP3 DUP2 AND DUP2 SUB PUSH2 0x1C5 JUMPI SWAP2 PUSH1 0x24 CALLDATALOAD SWAP1 DUP2 AND DUP2 SUB PUSH2 0x1C5 JUMPI SWAP1 PUSH1 0x44 CALLDATALOAD SWAP1 JUMP JUMPDEST ISZERO PUSH2 0x1091 JUMPI JUMP JUMPDEST PUSH1 0x40 MLOAD PUSH3 0x461BCD PUSH1 0xE5 SHL DUP2 MSTORE PUSH1 0x20 PUSH1 0x4 DUP3 ADD MSTORE PUSH1 0x12 PUSH1 0x24 DUP3 ADD MSTORE PUSH18 0x15985D0BDB9BDD0B585D5D1A1BDC9A5E9959 PUSH1 0x72 SHL PUSH1 0x44 DUP3 ADD MSTORE PUSH1 0x64 SWAP1 REVERT JUMPDEST ISZERO PUSH2 0x10D2 JUMPI JUMP JUMPDEST PUSH1 0x40 MLOAD PUSH3 0x461BCD PUSH1 0xE5 SHL DUP2 MSTORE PUSH1 0x20 PUSH1 0x4 DUP3 ADD MSTORE PUSH1 0xC PUSH1 0x24 DUP3 ADD MSTORE PUSH12 0x5661742F6E6F742D6C697665 PUSH1 0xA0 SHL PUSH1 0x44 DUP3 ADD MSTORE PUSH1 0x64 SWAP1 REVERT JUMPDEST PUSH1 0x1 PUSH1 0xFF SHL DUP2 EQ PUSH2 0x1117 JUMPI PUSH1 0x0 SUB SWAP1 JUMP JUMPDEST PUSH4 0x4E487B71 PUSH1 0xE0 SHL PUSH1 0x0 MSTORE PUSH1 0x11 PUSH1 0x4 MSTORE PUSH1 0x24 PUSH1 0x0 REVERT JUMPDEST SWAP1 PUSH1 0x0 DUP2 SLT ISZERO PUSH2 0x114D JUMPI SWAP1 PUSH2 0x1144 PUSH2 0x114A SWAP3 PUSH2 0x1106 JUMP JUMPDEST SWAP1 PUSH2 0x1166 JUMP JUMPDEST SWAP1 JUMP JUMPDEST PUSH2 0x114A SWAP2 JUMPDEST SWAP2 SWAP1 DUP3 ADD SWAP2 DUP3 DUP2 GT PUSH2 0x1117 JUMPI DUP3 LT PUSH2 0x1C5 JUMPI JUMP JUMPDEST SWAP1 DUP2 SUB SWAP1 DUP2 GT PUSH2 0x1117 JUMPI SWAP1 JUMP JUMPDEST ISZERO PUSH2 0x117A JUMPI JUMP JUMPDEST PUSH1 0x40 MLOAD PUSH3 0x461BCD PUSH1 0xE5 SHL DUP2 MSTORE PUSH1 0x20 PUSH1 0x4 DUP3 ADD MSTORE PUSH1 0xF PUSH1 0x24 DUP3 ADD MSTORE PUSH15 0x15985D0BDB9BDD0B585B1B1BDDD959 PUSH1 0x8A SHL PUSH1 0x44 DUP3 ADD MSTORE PUSH1 0x64 SWAP1 REVERT JUMPDEST SWAP1 PUSH1 0x1 DUP1 PUSH1 0xA0 SHL SUB DUP1 SWAP2 AND SWAP2 AND SWAP1 DUP2 PUSH1 0x0 MSTORE PUSH1 0xA PUSH1 0x20 MSTORE PUSH1 0x40 PUSH1 0x0 KECCAK256 DUP2 PUSH1 0x0 MSTORE PUSH1 0x20 MSTORE PUSH1 0x1 PUSH1 0x40 PUSH1 0x0 KECCAK256 SLOAD EQ SWAP2 EQ OR SWAP1 JUMP JUMPDEST PUSH1 0x0 SWAP3 SWAP2 DUP4 SWAP2 DUP2 ISZERO SWAP2 DUP3 ISZERO PUSH2 0x1200 JUMPI JUMPDEST POP POP ISZERO PUSH2 0x11FD JUMPI POP JUMP JUMPDEST DUP1 REVERT JUMPDEST DUP2 DUP2 SWAP3 SWAP4 SWAP7 POP MUL DUP3 DUP2 DIV DUP3 EQ DUP4 ISZERO OR ISZERO PUSH2 0x1237 JUMPI DUP1 SWAP6 PUSH2 0x1223 JUMPI DIV EQ CODESIZE DUP1 PUSH2 0x11F3 JUMP JUMPDEST PUSH4 0x4E487B71 PUSH1 0xE0 SHL DUP5 MSTORE PUSH1 0x12 PUSH1 0x4 MSTORE PUSH1 0x24 DUP5 REVERT JUMPDEST PUSH4 0x4E487B71 PUSH1 0xE0 SHL DUP5 MSTORE PUSH1 0x11 PUSH1 0x4 MSTORE PUSH1 0x24 DUP5 REVERT JUMPDEST SWAP1 PUSH1 0x0 DUP2 SLT ISZERO PUSH2 0x1270 JUMPI PUSH2 0x114A SWAP2 PUSH2 0x1265 PUSH2 0x126B SWAP3 PUSH2 0x1106 JUMP JUMPDEST SWAP1 PUSH2 0x11E3 JUMP JUMPDEST PUSH2 0x1106 JUMP JUMPDEST PUSH2 0x114A SWAP2 PUSH2 0x11E3 JUMP INVALID LOG2 PUSH5 0x6970667358 0x22 SLT KECCAK256 LOG4 0xD4 ISZERO CALL PUSH25 0x48AFB5A4AD3862C6D0596849AAC6C031A13013D0265C932E54 PUSH5 0x3F64736F6C PUSH4 0x43000813 STOP CALLER "},"methodIdentifiers":{"Line()":"babe8a3f","cage()":"69245009","can(address,address)":"4538c4eb","dai(address)":"6c25b346","debt()":"0dca59c1","deny(address)":"9c52a7f1","file(bytes32,bytes32,uint256)":"1a0b287e","file(bytes32,uint256)":"29ae8114","flux(bytes32,address,address,uint256)":"6111be2e","fold(bytes32,address,int256)":"b65337df","frob(bytes32,address,address,address,int256,int256)":"76088703","gem(bytes32,address)":"214414d5","grab(bytes32,address,address,address,int256,int256)":"7bab3f40","heal(uint256)":"f37ac61c","hope(address)":"a3b22fc4","ilks(bytes32)":"d9638d36","init(bytes32)":"3b663195","live()":"957aa58c","move(address,address,uint256)":"bb35783b","nope(address)":"dc4d20fa","rely(address)":"65fae35e","sin(address)":"f059212a","slip(bytes32,address,int256)":"7cdd3fde","suck(address,address,uint256)":"f24e23eb","urns(bytes32,address)":"2424be5c","vice()":"2d61a355","wards(address)":"bf353dbb"}}}}}