{"contracts/StableCoin.sol":{"StableCoin":{"abi":[{"inputs":[{"internalType":"uint256","name":"chainId_","type":"uint256"}],"stateMutability":"nonpayable","type":"constructor"},{"anonymous":false,"inputs":[{"indexed":true,"internalType":"address","name":"src","type":"address"},{"indexed":true,"internalType":"address","name":"guy","type":"address"},{"indexed":false,"internalType":"uint256","name":"wad","type":"uint256"}],"name":"Approval","type":"event"},{"anonymous":false,"inputs":[{"indexed":true,"internalType":"address","name":"src","type":"address"},{"indexed":true,"internalType":"address","name":"dst","type":"address"},{"indexed":false,"internalType":"uint256","name":"wad","type":"uint256"}],"name":"Transfer","type":"event"},{"inputs":[],"name":"DOMAIN_SEPARATOR","outputs":[{"internalType":"bytes32","name":"","type":"bytes32"}],"stateMutability":"view","type":"function"},{"inputs":[],"name":"PERMIT_TYPEHASH","outputs":[{"internalType":"bytes32","name":"","type":"bytes32"}],"stateMutability":"view","type":"function"},{"inputs":[{"internalType":"address","name":"","type":"address"},{"internalType":"address","name":"","type":"address"}],"name":"allowance","outputs":[{"internalType":"uint256","name":"","type":"uint256"}],"stateMutability":"view","type":"function"},{"inputs":[{"internalType":"address","name":"usr","type":"address"},{"internalType":"uint256","name":"wad","type":"uint256"}],"name":"approve","outputs":[{"internalType":"bool","name":"","type":"bool"}],"stateMutability":"nonpayable","type":"function"},{"inputs":[{"internalType":"address","name":"","type":"address"}],"name":"balanceOf","outputs":[{"internalType":"uint256","name":"","type":"uint256"}],"stateMutability":"view","type":"function"},{"inputs":[{"internalType":"address","name":"usr","type":"address"},{"internalType":"uint256","name":"wad","type":"uint256"}],"name":"burn","outputs":[],"stateMutability":"nonpayable","type":"function"},{"inputs":[],"name":"decimals","outputs":[{"internalType":"uint8","name":"","type":"uint8"}],"stateMutability":"view","type":"function"},{"inputs":[{"internalType":"address","name":"guy","type":"address"}],"name":"deny","outputs":[],"stateMutability":"nonpayable","type":"function"},{"inputs":[{"internalType":"address","name":"usr","type":"address"},{"internalType":"uint256","name":"wad","type":"uint256"}],"name":"mint","outputs":[],"stateMutability":"nonpayable","type":"function"},{"inputs":[],"name":"name","outputs":[{"internalType":"string","name":"","type":"string"}],"stateMutability":"view","type":"function"},{"inputs":[{"internalType":"address","name":"","type":"address"}],"name":"nonces","outputs":[{"internalType":"uint256","name":"","type":"uint256"}],"stateMutability":"view","type":"function"},{"inputs":[{"internalType":"address","name":"owner","type":"address"},{"internalType":"address","name":"spender","type":"address"},{"internalType":"uint256","name":"value","type":"uint256"},{"internalType":"uint256","name":"deadline","type":"uint256"},{"internalType":"uint8","name":"v","type":"uint8"},{"internalType":"bytes32","name":"r","type":"bytes32"},{"internalType":"bytes32","name":"s","type":"bytes32"}],"name":"permit","outputs":[],"stateMutability":"nonpayable","type":"function"},{"inputs":[{"internalType":"address","name":"guy","type":"address"}],"name":"rely","outputs":[],"stateMutability":"nonpayable","type":"function"},{"inputs":[],"name":"symbol","outputs":[{"internalType":"string","name":"","type":"string"}],"stateMutability":"view","type":"function"},{"inputs":[],"name":"totalSupply","outputs":[{"internalType":"uint256","name":"","type":"uint256"}],"stateMutability":"view","type":"function"},{"inputs":[{"internalType":"address","name":"dst","type":"address"},{"internalType":"uint256","name":"wad","type":"uint256"}],"name":"transfer","outputs":[{"internalType":"bool","name":"","type":"bool"}],"stateMutability":"nonpayable","type":"function"},{"inputs":[{"internalType":"address","name":"src","type":"address"},{"internalType":"address","name":"dst","type":"address"},{"internalType":"uint256","name":"wad","type":"uint256"}],"name":"transferFrom","outputs":[{"internalType":"bool","name":"","type":"bool"}],"stateMutability":"nonpayable","type":"function"},{"inputs":[],"name":"version","outputs":[{"internalType":"string","name":"","type":"string"}],"stateMutability":"view","type":"function"},{"inputs":[{"internalType":"address","name":"","type":"address"}],"name":"wards","outputs":[{"internalType":"uint256","name":"","type":"uint256"}],"stateMutability":"view","type":"function"}],"evm":{"bytecode":{"linkReferences":{},"object":"60803461010f576001600160401b0390601f610cbc38819003918201601f19168301929190848411838510176100f957816020928492604096875283398101031261010f57513360005260006020526001826000205560056020835161006481610114565b82815201645553446f6760d81b8152209160016020825161008481610114565b82815201603160f81b8152209181519260208401947f8b73c3c69bb8fe3d512ecc4cf759cc79239f7b179b0ffacaa9a75d522b39400f865283850152606084015260808301523060a083015260a0825260c0820193828510908511176100f957839052519020600555610b8c90816101308239f35b634e487b7160e01b600052604160045260246000fd5b600080fd5b604081019081106001600160401b038211176100f95760405256fe6040608081526004908136101561001557600080fd5b600091823560e01c90816306fdde031461057a578163095ea7b3146107c257816318160ddd146107a357816323b872dd1461077157816330adf81f14610736578163313ce5671461071a5781633644e515146106fb57816340c10f191461067057816354fd4d501461063357816365fae35e146105ed57816370a08231146105b55781637ecebe001461057f57816395d89b411461057a578382639c52a7f1146105335782639dc29fac1461041957508163a9059cbb146103e6578163bf353dbb146103af578163d505accf14610141575063dd62ed3e146100f657600080fd5b3461013d578060031936011261013d57806020926101126108f1565b61011a610907565b6001600160a01b0391821683526003865283832091168252845220549051908152f35b5080fd5b9050346103ab5760e03660031901126103ab5761015c6108f1565b610164610907565b9260443590606435936084359360ff85168095036103a757428610610364576005549660018060a01b0380921696878a52602096848852858b20998a549a6000198c146103515760018c019055865192858a8501957f6e71edae12b1b97f4d1f60370fef10105fa2faae0126114a169c64845d6126c987528c8a870152169b8c606086015289608086015260a085015260c084015260c0835260e0830167ffffffffffffffff948482108683111761033e578189528451902061010085019261190160f01b8452610102860152610122850152604281526101608401948186109086111761032b57848852519020835261018082015260a4356101a082015260c4356101c0909101528880528590899060809060015afa1561032157875116858115159182610317575b5050156102d65750907f8c5be1e5ebec7d5bd14f71427d1e84f3dd0314c0f7b2291e5b200ac8c7c3b9259291848752600383528087208688528352818188205551908152a380f35b83606492519162461bcd60e51b8352820152601960248201527f537461626c65436f696e2f696e76616c69642d7065726d6974000000000000006044820152fd5b149050853861028e565b82513d89823e3d90fd5b634e487b7160e01b8d526041875260248dfd5b634e487b7160e01b8e526041885260248efd5b634e487b7160e01b8d526011875260248dfd5b506020606492519162461bcd60e51b8352820152601960248201527f537461626c65436f696e2f7065726d69742d65787069726564000000000000006044820152fd5b8780fd5b8280fd5b50503461013d57602036600319011261013d5760209181906001600160a01b036103d76108f1565b16815280845220549051908152f35b50503461013d578060031936011261013d576020906104106104066108f1565b6024359033610a0b565b90519015158152f35b8084346105305780600319360112610530577fddf252ad1be2c89b69c2b068fc378daa952ba7f163c4a11628f55a4df523b3ef6104546108f1565b916024359260018060a01b0316928385526020916002835261047b82828820541015610969565b3385141580610512575b6104c0575b8486526002835261049e8282882054610b49565b85875260028452818720556104b582600154610b49565b60015551908152a380f35b8486526003835280862033875283526104de828288205410156109b5565b8486526003835280862033875283526104fa8282882054610b49565b8587526003845281872033885284528187205561048a565b50848652600383528086203387528352808620546000191415610485565b50fd5b8084346105305760203660031901126105305761054e6108f1565b338352826020526105646001838520541461091d565b6001600160a01b03168252602082905281205580f35b6108ae565b9050346103ab5760203660031901126103ab5760209282916001600160a01b036105a76108f1565b168252845220549051908152f35b50503461013d57602036600319011261013d5760209181906001600160a01b036105dd6108f1565b1681526002845220549051908152f35b50503461013d57602036600319011261013d5760019061060b6108f1565b3384528360205261062083838620541461091d565b828060a01b031683528260205282205580f35b50503461013d578160031936011261013d57805161066c9161065482610833565b60018252603160f81b60208301525191829182610865565b0390f35b50503461013d578060031936011261013d57817fddf252ad1be2c89b69c2b068fc378daa952ba7f163c4a11628f55a4df523b3ef60206106ae6108f1565b602435903385528483526106c76001878720541461091d565b60018060a01b031694858552600283526106e48282872054610b1f565b86865260028452818620556104b582600154610b1f565b50503461013d578160031936011261013d576020906005549051908152f35b50503461013d578160031936011261013d576020905160128152f35b50503461013d578160031936011261013d57602090517f6e71edae12b1b97f4d1f60370fef10105fa2faae0126114a169c64845d6126c98152f35b50503461013d57606036600319011261013d576020906104106107926108f1565b61079a610907565b60443591610a0b565b50503461013d578160031936011261013d576020906001549051908152f35b50503461013d578060031936011261013d57602091816107e06108f1565b91602435918291338152600387528181209460018060a01b0316948582528752205582519081527f8c5be1e5ebec7d5bd14f71427d1e84f3dd0314c0f7b2291e5b200ac8c7c3b925843392a35160018152f35b6040810190811067ffffffffffffffff82111761084f57604052565b634e487b7160e01b600052604160045260246000fd5b6020808252825181830181905290939260005b82811061089a57505060409293506000838284010152601f8019910116010190565b818101860151848201604001528501610878565b346108ec5760003660031901126108ec5761066c6040516108ce81610833565b60058152645553446f6760d81b602082015260405191829182610865565b600080fd5b600435906001600160a01b03821682036108ec57565b602435906001600160a01b03821682036108ec57565b1561092457565b60405162461bcd60e51b815260206004820152601960248201527f537461626c65436f696e2f6e6f742d617574686f72697a6564000000000000006044820152606490fd5b1561097057565b60405162461bcd60e51b815260206004820152601f60248201527f537461626c65436f696e2f696e73756666696369656e742d62616c616e6365006044820152606490fd5b156109bc57565b60405162461bcd60e51b815260206004820152602160248201527f537461626c65436f696e2f696e73756666696369656e742d616c6c6f77616e636044820152606560f81b6064820152608490fd5b7fddf252ad1be2c89b69c2b068fc378daa952ba7f163c4a11628f55a4df523b3ef9092919260018060a01b038091169260009484865260209260028452604091610a5a84848a20541015610969565b3387141580610b01575b610aaf575b86885260028552610a7d84848a2054610b49565b8789526002865283892055169586815281610a9b8482842054610b1f565b9188815260028652205551908152a3600190565b868852600385528288203389528552610acd84848a205410156109b5565b868852600385528288203389528552610ae984848a2054610b49565b87895260038652838920338a52865283892055610a69565b50868852600385528288203389528552828820546000191415610a64565b9190820191828111610b335782106108ec57565b634e487b7160e01b600052601160045260246000fd5b908103908111610b33579056fea2646970667358221220cd8402e6c6d97a03ecf92e0059f4c34b692d654b461d3210e5905dce15577d8064736f6c63430008130033","opcodes":"PUSH1 0x80 CALLVALUE PUSH2 0x10F JUMPI PUSH1 0x1 PUSH1 0x1 PUSH1 0x40 SHL SUB SWAP1 PUSH1 0x1F PUSH2 0xCBC CODESIZE DUP2 SWAP1 SUB SWAP2 DUP3 ADD PUSH1 0x1F NOT AND DUP4 ADD SWAP3 SWAP2 SWAP1 DUP5 DUP5 GT DUP4 DUP6 LT OR PUSH2 0xF9 JUMPI DUP2 PUSH1 0x20 SWAP3 DUP5 SWAP3 PUSH1 0x40 SWAP7 DUP8 MSTORE DUP4 CODECOPY DUP2 ADD SUB SLT PUSH2 0x10F JUMPI MLOAD CALLER PUSH1 0x0 MSTORE PUSH1 0x0 PUSH1 0x20 MSTORE PUSH1 0x1 DUP3 PUSH1 0x0 KECCAK256 SSTORE PUSH1 0x5 PUSH1 0x20 DUP4 MLOAD PUSH2 0x64 DUP2 PUSH2 0x114 JUMP JUMPDEST DUP3 DUP2 MSTORE ADD PUSH5 0x5553446F67 PUSH1 0xD8 SHL DUP2 MSTORE KECCAK256 SWAP2 PUSH1 0x1 PUSH1 0x20 DUP3 MLOAD PUSH2 0x84 DUP2 PUSH2 0x114 JUMP JUMPDEST DUP3 DUP2 MSTORE ADD PUSH1 0x31 PUSH1 0xF8 SHL DUP2 MSTORE KECCAK256 SWAP2 DUP2 MLOAD SWAP3 PUSH1 0x20 DUP5 ADD SWAP5 PUSH32 0x8B73C3C69BB8FE3D512ECC4CF759CC79239F7B179B0FFACAA9A75D522B39400F DUP7 MSTORE DUP4 DUP6 ADD MSTORE PUSH1 0x60 DUP5 ADD MSTORE PUSH1 0x80 DUP4 ADD MSTORE ADDRESS PUSH1 0xA0 DUP4 ADD MSTORE PUSH1 0xA0 DUP3 MSTORE PUSH1 0xC0 DUP3 ADD SWAP4 DUP3 DUP6 LT SWAP1 DUP6 GT OR PUSH2 0xF9 JUMPI DUP4 SWAP1 MSTORE MLOAD SWAP1 KECCAK256 PUSH1 0x5 SSTORE PUSH2 0xB8C SWAP1 DUP2 PUSH2 0x130 DUP3 CODECOPY RETURN JUMPDEST PUSH4 0x4E487B71 PUSH1 0xE0 SHL PUSH1 0x0 MSTORE PUSH1 0x41 PUSH1 0x4 MSTORE PUSH1 0x24 PUSH1 0x0 REVERT JUMPDEST PUSH1 0x0 DUP1 REVERT JUMPDEST PUSH1 0x40 DUP2 ADD SWAP1 DUP2 LT PUSH1 0x1 PUSH1 0x1 PUSH1 0x40 SHL SUB DUP3 GT OR PUSH2 0xF9 JUMPI PUSH1 0x40 MSTORE JUMP INVALID PUSH1 0x40 PUSH1 0x80 DUP2 MSTORE PUSH1 0x4 SWAP1 DUP2 CALLDATASIZE LT ISZERO PUSH2 0x15 JUMPI PUSH1 0x0 DUP1 REVERT JUMPDEST PUSH1 0x0 SWAP2 DUP3 CALLDATALOAD PUSH1 0xE0 SHR SWAP1 DUP2 PUSH4 0x6FDDE03 EQ PUSH2 0x57A JUMPI DUP2 PUSH4 0x95EA7B3 EQ PUSH2 0x7C2 JUMPI DUP2 PUSH4 0x18160DDD EQ PUSH2 0x7A3 JUMPI DUP2 PUSH4 0x23B872DD EQ PUSH2 0x771 JUMPI DUP2 PUSH4 0x30ADF81F EQ PUSH2 0x736 JUMPI DUP2 PUSH4 0x313CE567 EQ PUSH2 0x71A JUMPI DUP2 PUSH4 0x3644E515 EQ PUSH2 0x6FB JUMPI DUP2 PUSH4 0x40C10F19 EQ PUSH2 0x670 JUMPI DUP2 PUSH4 0x54FD4D50 EQ PUSH2 0x633 JUMPI DUP2 PUSH4 0x65FAE35E EQ PUSH2 0x5ED JUMPI DUP2 PUSH4 0x70A08231 EQ PUSH2 0x5B5 JUMPI DUP2 PUSH4 0x7ECEBE00 EQ PUSH2 0x57F JUMPI DUP2 PUSH4 0x95D89B41 EQ PUSH2 0x57A JUMPI DUP4 DUP3 PUSH4 0x9C52A7F1 EQ PUSH2 0x533 JUMPI DUP3 PUSH4 0x9DC29FAC EQ PUSH2 0x419 JUMPI POP DUP2 PUSH4 0xA9059CBB EQ PUSH2 0x3E6 JUMPI DUP2 PUSH4 0xBF353DBB EQ PUSH2 0x3AF JUMPI DUP2 PUSH4 0xD505ACCF EQ PUSH2 0x141 JUMPI POP PUSH4 0xDD62ED3E EQ PUSH2 0xF6 JUMPI PUSH1 0x0 DUP1 REVERT JUMPDEST CALLVALUE PUSH2 0x13D JUMPI DUP1 PUSH1 0x3 NOT CALLDATASIZE ADD SLT PUSH2 0x13D JUMPI DUP1 PUSH1 0x20 SWAP3 PUSH2 0x112 PUSH2 0x8F1 JUMP JUMPDEST PUSH2 0x11A PUSH2 0x907 JUMP JUMPDEST PUSH1 0x1 PUSH1 0x1 PUSH1 0xA0 SHL SUB SWAP2 DUP3 AND DUP4 MSTORE PUSH1 0x3 DUP7 MSTORE DUP4 DUP4 KECCAK256 SWAP2 AND DUP3 MSTORE DUP5 MSTORE KECCAK256 SLOAD SWAP1 MLOAD SWAP1 DUP2 MSTORE RETURN JUMPDEST POP DUP1 REVERT JUMPDEST SWAP1 POP CALLVALUE PUSH2 0x3AB JUMPI PUSH1 0xE0 CALLDATASIZE PUSH1 0x3 NOT ADD SLT PUSH2 0x3AB JUMPI PUSH2 0x15C PUSH2 0x8F1 JUMP JUMPDEST PUSH2 0x164 PUSH2 0x907 JUMP JUMPDEST SWAP3 PUSH1 0x44 CALLDATALOAD SWAP1 PUSH1 0x64 CALLDATALOAD SWAP4 PUSH1 0x84 CALLDATALOAD SWAP4 PUSH1 0xFF DUP6 AND DUP1 SWAP6 SUB PUSH2 0x3A7 JUMPI TIMESTAMP DUP7 LT PUSH2 0x364 JUMPI PUSH1 0x5 SLOAD SWAP7 PUSH1 0x1 DUP1 PUSH1 0xA0 SHL SUB DUP1 SWAP3 AND SWAP7 DUP8 DUP11 MSTORE PUSH1 0x20 SWAP7 DUP5 DUP9 MSTORE DUP6 DUP12 KECCAK256 SWAP10 DUP11 SLOAD SWAP11 PUSH1 0x0 NOT DUP13 EQ PUSH2 0x351 JUMPI PUSH1 0x1 DUP13 ADD SWAP1 SSTORE DUP7 MLOAD SWAP3 DUP6 DUP11 DUP6 ADD SWAP6 PUSH32 0x6E71EDAE12B1B97F4D1F60370FEF10105FA2FAAE0126114A169C64845D6126C9 DUP8 MSTORE DUP13 DUP11 DUP8 ADD MSTORE AND SWAP12 DUP13 PUSH1 0x60 DUP7 ADD MSTORE DUP10 PUSH1 0x80 DUP7 ADD MSTORE PUSH1 0xA0 DUP6 ADD MSTORE PUSH1 0xC0 DUP5 ADD MSTORE PUSH1 0xC0 DUP4 MSTORE PUSH1 0xE0 DUP4 ADD PUSH8 0xFFFFFFFFFFFFFFFF SWAP5 DUP5 DUP3 LT DUP7 DUP4 GT OR PUSH2 0x33E JUMPI DUP2 DUP10 MSTORE DUP5 MLOAD SWAP1 KECCAK256 PUSH2 0x100 DUP6 ADD SWAP3 PUSH2 0x1901 PUSH1 0xF0 SHL DUP5 MSTORE PUSH2 0x102 DUP7 ADD MSTORE PUSH2 0x122 DUP6 ADD MSTORE PUSH1 0x42 DUP2 MSTORE PUSH2 0x160 DUP5 ADD SWAP5 DUP2 DUP7 LT SWAP1 DUP7 GT OR PUSH2 0x32B JUMPI DUP5 DUP9 MSTORE MLOAD SWAP1 KECCAK256 DUP4 MSTORE PUSH2 0x180 DUP3 ADD MSTORE PUSH1 0xA4 CALLDATALOAD PUSH2 0x1A0 DUP3 ADD MSTORE PUSH1 0xC4 CALLDATALOAD PUSH2 0x1C0 SWAP1 SWAP2 ADD MSTORE DUP9 DUP1 MSTORE DUP6 SWAP1 DUP10 SWAP1 PUSH1 0x80 SWAP1 PUSH1 0x1 GAS STATICCALL ISZERO PUSH2 0x321 JUMPI DUP8 MLOAD AND DUP6 DUP2 ISZERO ISZERO SWAP2 DUP3 PUSH2 0x317 JUMPI JUMPDEST POP POP ISZERO PUSH2 0x2D6 JUMPI POP SWAP1 PUSH32 0x8C5BE1E5EBEC7D5BD14F71427D1E84F3DD0314C0F7B2291E5B200AC8C7C3B925 SWAP3 SWAP2 DUP5 DUP8 MSTORE PUSH1 0x3 DUP4 MSTORE DUP1 DUP8 KECCAK256 DUP7 DUP9 MSTORE DUP4 MSTORE DUP2 DUP2 DUP9 KECCAK256 SSTORE MLOAD SWAP1 DUP2 MSTORE LOG3 DUP1 RETURN JUMPDEST DUP4 PUSH1 0x64 SWAP3 MLOAD SWAP2 PUSH3 0x461BCD PUSH1 0xE5 SHL DUP4 MSTORE DUP3 ADD MSTORE PUSH1 0x19 PUSH1 0x24 DUP3 ADD MSTORE PUSH32 0x537461626C65436F696E2F696E76616C69642D7065726D697400000000000000 PUSH1 0x44 DUP3 ADD MSTORE REVERT JUMPDEST EQ SWAP1 POP DUP6 CODESIZE PUSH2 0x28E JUMP JUMPDEST DUP3 MLOAD RETURNDATASIZE DUP10 DUP3 RETURNDATACOPY RETURNDATASIZE SWAP1 REVERT JUMPDEST PUSH4 0x4E487B71 PUSH1 0xE0 SHL DUP14 MSTORE PUSH1 0x41 DUP8 MSTORE PUSH1 0x24 DUP14 REVERT JUMPDEST PUSH4 0x4E487B71 PUSH1 0xE0 SHL DUP15 MSTORE PUSH1 0x41 DUP9 MSTORE PUSH1 0x24 DUP15 REVERT JUMPDEST PUSH4 0x4E487B71 PUSH1 0xE0 SHL DUP14 MSTORE PUSH1 0x11 DUP8 MSTORE PUSH1 0x24 DUP14 REVERT JUMPDEST POP PUSH1 0x20 PUSH1 0x64 SWAP3 MLOAD SWAP2 PUSH3 0x461BCD PUSH1 0xE5 SHL DUP4 MSTORE DUP3 ADD MSTORE PUSH1 0x19 PUSH1 0x24 DUP3 ADD MSTORE PUSH32 0x537461626C65436F696E2F7065726D69742D6578706972656400000000000000 PUSH1 0x44 DUP3 ADD MSTORE REVERT JUMPDEST DUP8 DUP1 REVERT JUMPDEST DUP3 DUP1 REVERT JUMPDEST POP POP CALLVALUE PUSH2 0x13D JUMPI PUSH1 0x20 CALLDATASIZE PUSH1 0x3 NOT ADD SLT PUSH2 0x13D JUMPI PUSH1 0x20 SWAP2 DUP2 SWAP1 PUSH1 0x1 PUSH1 0x1 PUSH1 0xA0 SHL SUB PUSH2 0x3D7 PUSH2 0x8F1 JUMP JUMPDEST AND DUP2 MSTORE DUP1 DUP5 MSTORE KECCAK256 SLOAD SWAP1 MLOAD SWAP1 DUP2 MSTORE RETURN JUMPDEST POP POP CALLVALUE PUSH2 0x13D JUMPI DUP1 PUSH1 0x3 NOT CALLDATASIZE ADD SLT PUSH2 0x13D JUMPI PUSH1 0x20 SWAP1 PUSH2 0x410 PUSH2 0x406 PUSH2 0x8F1 JUMP JUMPDEST PUSH1 0x24 CALLDATALOAD SWAP1 CALLER PUSH2 0xA0B JUMP JUMPDEST SWAP1 MLOAD SWAP1 ISZERO ISZERO DUP2 MSTORE RETURN JUMPDEST DUP1 DUP5 CALLVALUE PUSH2 0x530 JUMPI DUP1 PUSH1 0x3 NOT CALLDATASIZE ADD SLT PUSH2 0x530 JUMPI PUSH32 0xDDF252AD1BE2C89B69C2B068FC378DAA952BA7F163C4A11628F55A4DF523B3EF PUSH2 0x454 PUSH2 0x8F1 JUMP JUMPDEST SWAP2 PUSH1 0x24 CALLDATALOAD SWAP3 PUSH1 0x1 DUP1 PUSH1 0xA0 SHL SUB AND SWAP3 DUP4 DUP6 MSTORE PUSH1 0x20 SWAP2 PUSH1 0x2 DUP4 MSTORE PUSH2 0x47B DUP3 DUP3 DUP9 KECCAK256 SLOAD LT ISZERO PUSH2 0x969 JUMP JUMPDEST CALLER DUP6 EQ ISZERO DUP1 PUSH2 0x512 JUMPI JUMPDEST PUSH2 0x4C0 JUMPI JUMPDEST DUP5 DUP7 MSTORE PUSH1 0x2 DUP4 MSTORE PUSH2 0x49E DUP3 DUP3 DUP9 KECCAK256 SLOAD PUSH2 0xB49 JUMP JUMPDEST DUP6 DUP8 MSTORE PUSH1 0x2 DUP5 MSTORE DUP2 DUP8 KECCAK256 SSTORE PUSH2 0x4B5 DUP3 PUSH1 0x1 SLOAD PUSH2 0xB49 JUMP JUMPDEST PUSH1 0x1 SSTORE MLOAD SWAP1 DUP2 MSTORE LOG3 DUP1 RETURN JUMPDEST DUP5 DUP7 MSTORE PUSH1 0x3 DUP4 MSTORE DUP1 DUP7 KECCAK256 CALLER DUP8 MSTORE DUP4 MSTORE PUSH2 0x4DE DUP3 DUP3 DUP9 KECCAK256 SLOAD LT ISZERO PUSH2 0x9B5 JUMP JUMPDEST DUP5 DUP7 MSTORE PUSH1 0x3 DUP4 MSTORE DUP1 DUP7 KECCAK256 CALLER DUP8 MSTORE DUP4 MSTORE PUSH2 0x4FA DUP3 DUP3 DUP9 KECCAK256 SLOAD PUSH2 0xB49 JUMP JUMPDEST DUP6 DUP8 MSTORE PUSH1 0x3 DUP5 MSTORE DUP2 DUP8 KECCAK256 CALLER DUP9 MSTORE DUP5 MSTORE DUP2 DUP8 KECCAK256 SSTORE PUSH2 0x48A JUMP JUMPDEST POP DUP5 DUP7 MSTORE PUSH1 0x3 DUP4 MSTORE DUP1 DUP7 KECCAK256 CALLER DUP8 MSTORE DUP4 MSTORE DUP1 DUP7 KECCAK256 SLOAD PUSH1 0x0 NOT EQ ISZERO PUSH2 0x485 JUMP JUMPDEST POP REVERT JUMPDEST DUP1 DUP5 CALLVALUE PUSH2 0x530 JUMPI PUSH1 0x20 CALLDATASIZE PUSH1 0x3 NOT ADD SLT PUSH2 0x530 JUMPI PUSH2 0x54E PUSH2 0x8F1 JUMP JUMPDEST CALLER DUP4 MSTORE DUP3 PUSH1 0x20 MSTORE PUSH2 0x564 PUSH1 0x1 DUP4 DUP6 KECCAK256 SLOAD EQ PUSH2 0x91D JUMP JUMPDEST PUSH1 0x1 PUSH1 0x1 PUSH1 0xA0 SHL SUB AND DUP3 MSTORE PUSH1 0x20 DUP3 SWAP1 MSTORE DUP2 KECCAK256 SSTORE DUP1 RETURN JUMPDEST PUSH2 0x8AE JUMP JUMPDEST SWAP1 POP CALLVALUE PUSH2 0x3AB JUMPI PUSH1 0x20 CALLDATASIZE PUSH1 0x3 NOT ADD SLT PUSH2 0x3AB JUMPI PUSH1 0x20 SWAP3 DUP3 SWAP2 PUSH1 0x1 PUSH1 0x1 PUSH1 0xA0 SHL SUB PUSH2 0x5A7 PUSH2 0x8F1 JUMP JUMPDEST AND DUP3 MSTORE DUP5 MSTORE KECCAK256 SLOAD SWAP1 MLOAD SWAP1 DUP2 MSTORE RETURN JUMPDEST POP POP CALLVALUE PUSH2 0x13D JUMPI PUSH1 0x20 CALLDATASIZE PUSH1 0x3 NOT ADD SLT PUSH2 0x13D JUMPI PUSH1 0x20 SWAP2 DUP2 SWAP1 PUSH1 0x1 PUSH1 0x1 PUSH1 0xA0 SHL SUB PUSH2 0x5DD PUSH2 0x8F1 JUMP JUMPDEST AND DUP2 MSTORE PUSH1 0x2 DUP5 MSTORE KECCAK256 SLOAD SWAP1 MLOAD SWAP1 DUP2 MSTORE RETURN JUMPDEST POP POP CALLVALUE PUSH2 0x13D JUMPI PUSH1 0x20 CALLDATASIZE PUSH1 0x3 NOT ADD SLT PUSH2 0x13D JUMPI PUSH1 0x1 SWAP1 PUSH2 0x60B PUSH2 0x8F1 JUMP JUMPDEST CALLER DUP5 MSTORE DUP4 PUSH1 0x20 MSTORE PUSH2 0x620 DUP4 DUP4 DUP7 KECCAK256 SLOAD EQ PUSH2 0x91D JUMP JUMPDEST DUP3 DUP1 PUSH1 0xA0 SHL SUB AND DUP4 MSTORE DUP3 PUSH1 0x20 MSTORE DUP3 KECCAK256 SSTORE DUP1 RETURN JUMPDEST POP POP CALLVALUE PUSH2 0x13D JUMPI DUP2 PUSH1 0x3 NOT CALLDATASIZE ADD SLT PUSH2 0x13D JUMPI DUP1 MLOAD PUSH2 0x66C SWAP2 PUSH2 0x654 DUP3 PUSH2 0x833 JUMP JUMPDEST PUSH1 0x1 DUP3 MSTORE PUSH1 0x31 PUSH1 0xF8 SHL PUSH1 0x20 DUP4 ADD MSTORE MLOAD SWAP2 DUP3 SWAP2 DUP3 PUSH2 0x865 JUMP JUMPDEST SUB SWAP1 RETURN JUMPDEST POP POP CALLVALUE PUSH2 0x13D JUMPI DUP1 PUSH1 0x3 NOT CALLDATASIZE ADD SLT PUSH2 0x13D JUMPI DUP2 PUSH32 0xDDF252AD1BE2C89B69C2B068FC378DAA952BA7F163C4A11628F55A4DF523B3EF PUSH1 0x20 PUSH2 0x6AE PUSH2 0x8F1 JUMP JUMPDEST PUSH1 0x24 CALLDATALOAD SWAP1 CALLER DUP6 MSTORE DUP5 DUP4 MSTORE PUSH2 0x6C7 PUSH1 0x1 DUP8 DUP8 KECCAK256 SLOAD EQ PUSH2 0x91D JUMP JUMPDEST PUSH1 0x1 DUP1 PUSH1 0xA0 SHL SUB AND SWAP5 DUP6 DUP6 MSTORE PUSH1 0x2 DUP4 MSTORE PUSH2 0x6E4 DUP3 DUP3 DUP8 KECCAK256 SLOAD PUSH2 0xB1F JUMP JUMPDEST DUP7 DUP7 MSTORE PUSH1 0x2 DUP5 MSTORE DUP2 DUP7 KECCAK256 SSTORE PUSH2 0x4B5 DUP3 PUSH1 0x1 SLOAD PUSH2 0xB1F JUMP JUMPDEST POP POP CALLVALUE PUSH2 0x13D JUMPI DUP2 PUSH1 0x3 NOT CALLDATASIZE ADD SLT PUSH2 0x13D JUMPI PUSH1 0x20 SWAP1 PUSH1 0x5 SLOAD SWAP1 MLOAD SWAP1 DUP2 MSTORE RETURN JUMPDEST POP POP CALLVALUE PUSH2 0x13D JUMPI DUP2 PUSH1 0x3 NOT CALLDATASIZE ADD SLT PUSH2 0x13D JUMPI PUSH1 0x20 SWAP1 MLOAD PUSH1 0x12 DUP2 MSTORE RETURN JUMPDEST POP POP CALLVALUE PUSH2 0x13D JUMPI DUP2 PUSH1 0x3 NOT CALLDATASIZE ADD SLT PUSH2 0x13D JUMPI PUSH1 0x20 SWAP1 MLOAD PUSH32 0x6E71EDAE12B1B97F4D1F60370FEF10105FA2FAAE0126114A169C64845D6126C9 DUP2 MSTORE RETURN JUMPDEST POP POP CALLVALUE PUSH2 0x13D JUMPI PUSH1 0x60 CALLDATASIZE PUSH1 0x3 NOT ADD SLT PUSH2 0x13D JUMPI PUSH1 0x20 SWAP1 PUSH2 0x410 PUSH2 0x792 PUSH2 0x8F1 JUMP JUMPDEST PUSH2 0x79A PUSH2 0x907 JUMP JUMPDEST PUSH1 0x44 CALLDATALOAD SWAP2 PUSH2 0xA0B JUMP JUMPDEST POP POP CALLVALUE PUSH2 0x13D JUMPI DUP2 PUSH1 0x3 NOT CALLDATASIZE ADD SLT PUSH2 0x13D JUMPI PUSH1 0x20 SWAP1 PUSH1 0x1 SLOAD SWAP1 MLOAD SWAP1 DUP2 MSTORE RETURN JUMPDEST POP POP CALLVALUE PUSH2 0x13D JUMPI DUP1 PUSH1 0x3 NOT CALLDATASIZE ADD SLT PUSH2 0x13D JUMPI PUSH1 0x20 SWAP2 DUP2 PUSH2 0x7E0 PUSH2 0x8F1 JUMP JUMPDEST SWAP2 PUSH1 0x24 CALLDATALOAD SWAP2 DUP3 SWAP2 CALLER DUP2 MSTORE PUSH1 0x3 DUP8 MSTORE DUP2 DUP2 KECCAK256 SWAP5 PUSH1 0x1 DUP1 PUSH1 0xA0 SHL SUB AND SWAP5 DUP6 DUP3 MSTORE DUP8 MSTORE KECCAK256 SSTORE DUP3 MLOAD SWAP1 DUP2 MSTORE PUSH32 0x8C5BE1E5EBEC7D5BD14F71427D1E84F3DD0314C0F7B2291E5B200AC8C7C3B925 DUP5 CALLER SWAP3 LOG3 MLOAD PUSH1 0x1 DUP2 MSTORE RETURN JUMPDEST PUSH1 0x40 DUP2 ADD SWAP1 DUP2 LT PUSH8 0xFFFFFFFFFFFFFFFF DUP3 GT OR PUSH2 0x84F JUMPI PUSH1 0x40 MSTORE JUMP JUMPDEST PUSH4 0x4E487B71 PUSH1 0xE0 SHL PUSH1 0x0 MSTORE PUSH1 0x41 PUSH1 0x4 MSTORE PUSH1 0x24 PUSH1 0x0 REVERT JUMPDEST PUSH1 0x20 DUP1 DUP3 MSTORE DUP3 MLOAD DUP2 DUP4 ADD DUP2 SWAP1 MSTORE SWAP1 SWAP4 SWAP3 PUSH1 0x0 JUMPDEST DUP3 DUP2 LT PUSH2 0x89A JUMPI POP POP PUSH1 0x40 SWAP3 SWAP4 POP PUSH1 0x0 DUP4 DUP3 DUP5 ADD ADD MSTORE PUSH1 0x1F DUP1 NOT SWAP2 ADD AND ADD ADD SWAP1 JUMP JUMPDEST DUP2 DUP2 ADD DUP7 ADD MLOAD DUP5 DUP3 ADD PUSH1 0x40 ADD MSTORE DUP6 ADD PUSH2 0x878 JUMP JUMPDEST CALLVALUE PUSH2 0x8EC JUMPI PUSH1 0x0 CALLDATASIZE PUSH1 0x3 NOT ADD SLT PUSH2 0x8EC JUMPI PUSH2 0x66C PUSH1 0x40 MLOAD PUSH2 0x8CE DUP2 PUSH2 0x833 JUMP JUMPDEST PUSH1 0x5 DUP2 MSTORE PUSH5 0x5553446F67 PUSH1 0xD8 SHL PUSH1 0x20 DUP3 ADD MSTORE PUSH1 0x40 MLOAD SWAP2 DUP3 SWAP2 DUP3 PUSH2 0x865 JUMP JUMPDEST PUSH1 0x0 DUP1 REVERT JUMPDEST PUSH1 0x4 CALLDATALOAD SWAP1 PUSH1 0x1 PUSH1 0x1 PUSH1 0xA0 SHL SUB DUP3 AND DUP3 SUB PUSH2 0x8EC JUMPI JUMP JUMPDEST PUSH1 0x24 CALLDATALOAD SWAP1 PUSH1 0x1 PUSH1 0x1 PUSH1 0xA0 SHL SUB DUP3 AND DUP3 SUB PUSH2 0x8EC JUMPI JUMP JUMPDEST ISZERO PUSH2 0x924 JUMPI JUMP JUMPDEST PUSH1 0x40 MLOAD PUSH3 0x461BCD PUSH1 0xE5 SHL DUP2 MSTORE PUSH1 0x20 PUSH1 0x4 DUP3 ADD MSTORE PUSH1 0x19 PUSH1 0x24 DUP3 ADD MSTORE PUSH32 0x537461626C65436F696E2F6E6F742D617574686F72697A656400000000000000 PUSH1 0x44 DUP3 ADD MSTORE PUSH1 0x64 SWAP1 REVERT JUMPDEST ISZERO PUSH2 0x970 JUMPI JUMP JUMPDEST PUSH1 0x40 MLOAD PUSH3 0x461BCD PUSH1 0xE5 SHL DUP2 MSTORE PUSH1 0x20 PUSH1 0x4 DUP3 ADD MSTORE PUSH1 0x1F PUSH1 0x24 DUP3 ADD MSTORE PUSH32 0x537461626C65436F696E2F696E73756666696369656E742D62616C616E636500 PUSH1 0x44 DUP3 ADD MSTORE PUSH1 0x64 SWAP1 REVERT JUMPDEST ISZERO PUSH2 0x9BC JUMPI JUMP JUMPDEST PUSH1 0x40 MLOAD PUSH3 0x461BCD PUSH1 0xE5 SHL DUP2 MSTORE PUSH1 0x20 PUSH1 0x4 DUP3 ADD MSTORE PUSH1 0x21 PUSH1 0x24 DUP3 ADD MSTORE PUSH32 0x537461626C65436F696E2F696E73756666696369656E742D616C6C6F77616E63 PUSH1 0x44 DUP3 ADD MSTORE PUSH1 0x65 PUSH1 0xF8 SHL PUSH1 0x64 DUP3 ADD MSTORE PUSH1 0x84 SWAP1 REVERT JUMPDEST PUSH32 0xDDF252AD1BE2C89B69C2B068FC378DAA952BA7F163C4A11628F55A4DF523B3EF SWAP1 SWAP3 SWAP2 SWAP3 PUSH1 0x1 DUP1 PUSH1 0xA0 SHL SUB DUP1 SWAP2 AND SWAP3 PUSH1 0x0 SWAP5 DUP5 DUP7 MSTORE PUSH1 0x20 SWAP3 PUSH1 0x2 DUP5 MSTORE PUSH1 0x40 SWAP2 PUSH2 0xA5A DUP5 DUP5 DUP11 KECCAK256 SLOAD LT ISZERO PUSH2 0x969 JUMP JUMPDEST CALLER DUP8 EQ ISZERO DUP1 PUSH2 0xB01 JUMPI JUMPDEST PUSH2 0xAAF JUMPI JUMPDEST DUP7 DUP9 MSTORE PUSH1 0x2 DUP6 MSTORE PUSH2 0xA7D DUP5 DUP5 DUP11 KECCAK256 SLOAD PUSH2 0xB49 JUMP JUMPDEST DUP8 DUP10 MSTORE PUSH1 0x2 DUP7 MSTORE DUP4 DUP10 KECCAK256 SSTORE AND SWAP6 DUP7 DUP2 MSTORE DUP2 PUSH2 0xA9B DUP5 DUP3 DUP5 KECCAK256 SLOAD PUSH2 0xB1F JUMP JUMPDEST SWAP2 DUP9 DUP2 MSTORE PUSH1 0x2 DUP7 MSTORE KECCAK256 SSTORE MLOAD SWAP1 DUP2 MSTORE LOG3 PUSH1 0x1 SWAP1 JUMP JUMPDEST DUP7 DUP9 MSTORE PUSH1 0x3 DUP6 MSTORE DUP3 DUP9 KECCAK256 CALLER DUP10 MSTORE DUP6 MSTORE PUSH2 0xACD DUP5 DUP5 DUP11 KECCAK256 SLOAD LT ISZERO PUSH2 0x9B5 JUMP JUMPDEST DUP7 DUP9 MSTORE PUSH1 0x3 DUP6 MSTORE DUP3 DUP9 KECCAK256 CALLER DUP10 MSTORE DUP6 MSTORE PUSH2 0xAE9 DUP5 DUP5 DUP11 KECCAK256 SLOAD PUSH2 0xB49 JUMP JUMPDEST DUP8 DUP10 MSTORE PUSH1 0x3 DUP7 MSTORE DUP4 DUP10 KECCAK256 CALLER DUP11 MSTORE DUP7 MSTORE DUP4 DUP10 KECCAK256 SSTORE PUSH2 0xA69 JUMP JUMPDEST POP DUP7 DUP9 MSTORE PUSH1 0x3 DUP6 MSTORE DUP3 DUP9 KECCAK256 CALLER DUP10 MSTORE DUP6 MSTORE DUP3 DUP9 KECCAK256 SLOAD PUSH1 0x0 NOT EQ ISZERO PUSH2 0xA64 JUMP JUMPDEST SWAP2 SWAP1 DUP3 ADD SWAP2 DUP3 DUP2 GT PUSH2 0xB33 JUMPI DUP3 LT PUSH2 0x8EC JUMPI JUMP JUMPDEST PUSH4 0x4E487B71 PUSH1 0xE0 SHL PUSH1 0x0 MSTORE PUSH1 0x11 PUSH1 0x4 MSTORE PUSH1 0x24 PUSH1 0x0 REVERT JUMPDEST SWAP1 DUP2 SUB SWAP1 DUP2 GT PUSH2 0xB33 JUMPI SWAP1 JUMP INVALID LOG2 PUSH5 0x6970667358 0x22 SLT KECCAK256 0xCD DUP5 MUL 0xE6 0xC6 0xD9 PUSH27 0x3ECF92E0059F4C34B692D654B461D3210E5905DCE15577D806473 PUSH16 0x6C634300081300330000000000000000 "},"methodIdentifiers":{"DOMAIN_SEPARATOR()":"3644e515","PERMIT_TYPEHASH()":"30adf81f","allowance(address,address)":"dd62ed3e","approve(address,uint256)":"095ea7b3","balanceOf(address)":"70a08231","burn(address,uint256)":"9dc29fac","decimals()":"313ce567","deny(address)":"9c52a7f1","mint(address,uint256)":"40c10f19","name()":"06fdde03","nonces(address)":"7ecebe00","permit(address,address,uint256,uint256,uint8,bytes32,bytes32)":"d505accf","rely(address)":"65fae35e","symbol()":"95d89b41","totalSupply()":"18160ddd","transfer(address,uint256)":"a9059cbb","transferFrom(address,address,uint256)":"23b872dd","version()":"54fd4d50","wards(address)":"bf353dbb"}}}}}