{"contracts/Join.sol":{"DogeJoin":{"abi":[{"inputs":[{"internalType":"address","name":"vat_","type":"address"},{"internalType":"address","name":"doge_","type":"address"}],"stateMutability":"nonpayable","type":"constructor"},{"inputs":[],"name":"cage","outputs":[],"stateMutability":"nonpayable","type":"function"},{"inputs":[],"name":"dec","outputs":[{"internalType":"uint256","name":"","type":"uint256"}],"stateMutability":"view","type":"function"},{"inputs":[{"internalType":"address","name":"usr","type":"address"}],"name":"deny","outputs":[],"stateMutability":"nonpayable","type":"function"},{"inputs":[{"internalType":"address","name":"usr","type":"address"},{"internalType":"uint256","name":"wad","type":"uint256"}],"name":"exit","outputs":[],"stateMutability":"nonpayable","type":"function"},{"inputs":[],"name":"gem","outputs":[{"internalType":"contract GemLike","name":"","type":"address"}],"stateMutability":"view","type":"function"},{"inputs":[],"name":"ilk","outputs":[{"internalType":"bytes32","name":"","type":"bytes32"}],"stateMutability":"view","type":"function"},{"inputs":[{"internalType":"address","name":"usr","type":"address"},{"internalType":"uint256","name":"wad","type":"uint256"}],"name":"join","outputs":[],"stateMutability":"nonpayable","type":"function"},{"inputs":[],"name":"live","outputs":[{"internalType":"uint256","name":"","type":"uint256"}],"stateMutability":"view","type":"function"},{"inputs":[{"internalType":"address","name":"usr","type":"address"}],"name":"rely","outputs":[],"stateMutability":"nonpayable","type":"function"},{"inputs":[],"name":"vat","outputs":[{"internalType":"contract VatLike","name":"","type":"address"}],"stateMutability":"view","type":"function"},{"inputs":[{"internalType":"address","name":"","type":"address"}],"name":"wards","outputs":[{"internalType":"uint256","name":"","type":"uint256"}],"stateMutability":"view","type":"function"}],"evm":{"bytecode":{"linkReferences":{},"object":"6080604090808252346101115781816107aa80380380916100208285610116565b8339810103126101115761004560046100388361014f565b926020928380920161014f565b93600094338652858352600187872055600160055560018060a01b03908160018060a01b0319931683600154161760015565444f47452d4160d01b600255168091600354161760035585519283809263313ce56760e01b82525afa9182156101075783926100c3575b8460ff84166004555161064690816101648239f35b90809250813d8311610100575b6100da8183610116565b810103126100fc57519060ff821682036100f9575060ff9038806100ae565b80fd5b5080fd5b503d6100d0565b84513d85823e3d90fd5b600080fd5b601f909101601f19168101906001600160401b0382119082101761013957604052565b634e487b7160e01b600052604160045260246000fd5b51906001600160a01b03821682036101115756fe6080604081815260048036101561001557600080fd5b600092833560e01c90816336569e771461049c575080633b4da69f1461036957806365fae35e1461032357806369245009146102f45780637bd2bea7146102cb578063957aa58c146102ac578381639c52a7f11461026257508063b3bcfa8214610245578063bf353dbb1461020e578063c5ce281e146101eb5763ef693bed1461009e57600080fd5b346101e757816003193601126101e7576100b66104c1565b600160ff1b6024356100ca82821115610521565b6001546002546001600160a01b0393909184169083146101d45790818893923b156101c6578751633e6e9fef60e11b81528781019283523360208401528385036040840152918491839182908490829060600103925af180156101ca576101ad575b50926044916020948460035416908851978896879563a9059cbb60e01b8752169085015260248401525af19081156101a15761017092508391610173575b506105c4565b80f35b610194915060203d811161019a575b61018c818361058a565b8101906105ac565b3861016a565b503d610182565b505051903d90823e3d90fd5b916101ba81959293610560565b6101c65792903861012c565b8380fd5b87513d85823e3d90fd5b634e487b7160e01b885260118652602488fd5b8280fd5b50503461020a578160031936011261020a576020906002549051908152f35b5080fd5b50503461020a57602036600319011261020a5760209181906001600160a01b036102366104c1565b16815280845220549051908152f35b50346101e757826003193601126101e75760209250549051908152f35b8084346102a95760203660031901126102a95761027d6104c1565b33835282602052610293600183852054146104dc565b6001600160a01b03168252602082905281205580f35b50fd5b50503461020a578160031936011261020a576020906005549051908152f35b50503461020a578160031936011261020a5760035490516001600160a01b039091168152602090f35b50503461020a578160031936011261020a57600161031c9133845283602052832054146104dc565b8060055580f35b50503461020a57602036600319011261020a576001906103416104c1565b338452836020526103568383862054146104dc565b828060a01b031683528260205282205580f35b50346101e757816003193601126101e7576103826104c1565b602435906001600554036104665761039c85831215610521565b6001546002546001600160a01b0392918791908416803b156101e7578751633e6e9fef60e11b81528781019283526001600160a01b03909416602083015260408201869052839182908490829060600103925af1801561045c57610443575b50906064602092600354169386865195869485936323b872dd60e01b8552339085015230602485015260448401525af19081156101a1576101709250839161017357506105c4565b6020929195610453606492610560565b959192506103fb565b85513d88823e3d90fd5b835162461bcd60e51b8152602081850152601060248201526f47656d4a6f696e2f6e6f742d6c69766560801b6044820152606490fd5b84903461020a578160031936011261020a576001546001600160a01b03168152602090f35b600435906001600160a01b03821682036104d757565b600080fd5b156104e357565b60405162461bcd60e51b815260206004820152601660248201527511d95b529bda5b8bdb9bdd0b585d5d1a1bdc9a5e995960521b6044820152606490fd5b1561052857565b60405162461bcd60e51b815260206004820152601060248201526f47656d4a6f696e2f6f766572666c6f7760801b6044820152606490fd5b67ffffffffffffffff811161057457604052565b634e487b7160e01b600052604160045260246000fd5b90601f8019910116810190811067ffffffffffffffff82111761057457604052565b908160209103126104d7575180151581036104d75790565b156105cb57565b60405162461bcd60e51b815260206004820152601760248201527f47656d4a6f696e2f6661696c65642d7472616e736665720000000000000000006044820152606490fdfea2646970667358221220d89136c2d1606f6b1ea93746513ff29d6696b7e3901ee305c31c62733dabd88f64736f6c63430008130033","opcodes":"PUSH1 0x80 PUSH1 0x40 SWAP1 DUP1 DUP3 MSTORE CALLVALUE PUSH2 0x111 JUMPI DUP2 DUP2 PUSH2 0x7AA DUP1 CODESIZE SUB DUP1 SWAP2 PUSH2 0x20 DUP3 DUP6 PUSH2 0x116 JUMP JUMPDEST DUP4 CODECOPY DUP2 ADD SUB SLT PUSH2 0x111 JUMPI PUSH2 0x45 PUSH1 0x4 PUSH2 0x38 DUP4 PUSH2 0x14F JUMP JUMPDEST SWAP3 PUSH1 0x20 SWAP3 DUP4 DUP1 SWAP3 ADD PUSH2 0x14F JUMP JUMPDEST SWAP4 PUSH1 0x0 SWAP5 CALLER DUP7 MSTORE DUP6 DUP4 MSTORE PUSH1 0x1 DUP8 DUP8 KECCAK256 SSTORE PUSH1 0x1 PUSH1 0x5 SSTORE PUSH1 0x1 DUP1 PUSH1 0xA0 SHL SUB SWAP1 DUP2 PUSH1 0x1 DUP1 PUSH1 0xA0 SHL SUB NOT SWAP4 AND DUP4 PUSH1 0x1 SLOAD AND OR PUSH1 0x1 SSTORE PUSH6 0x444F47452D41 PUSH1 0xD0 SHL PUSH1 0x2 SSTORE AND DUP1 SWAP2 PUSH1 0x3 SLOAD AND OR PUSH1 0x3 SSTORE DUP6 MLOAD SWAP3 DUP4 DUP1 SWAP3 PUSH4 0x313CE567 PUSH1 0xE0 SHL DUP3 MSTORE GAS STATICCALL SWAP2 DUP3 ISZERO PUSH2 0x107 JUMPI DUP4 SWAP3 PUSH2 0xC3 JUMPI JUMPDEST DUP5 PUSH1 0xFF DUP5 AND PUSH1 0x4 SSTORE MLOAD PUSH2 0x646 SWAP1 DUP2 PUSH2 0x164 DUP3 CODECOPY RETURN JUMPDEST SWAP1 DUP1 SWAP3 POP DUP2 RETURNDATASIZE DUP4 GT PUSH2 0x100 JUMPI JUMPDEST PUSH2 0xDA DUP2 DUP4 PUSH2 0x116 JUMP JUMPDEST DUP2 ADD SUB SLT PUSH2 0xFC JUMPI MLOAD SWAP1 PUSH1 0xFF DUP3 AND DUP3 SUB PUSH2 0xF9 JUMPI POP PUSH1 0xFF SWAP1 CODESIZE DUP1 PUSH2 0xAE JUMP JUMPDEST DUP1 REVERT JUMPDEST POP DUP1 REVERT JUMPDEST POP RETURNDATASIZE PUSH2 0xD0 JUMP JUMPDEST DUP5 MLOAD RETURNDATASIZE DUP6 DUP3 RETURNDATACOPY RETURNDATASIZE SWAP1 REVERT JUMPDEST PUSH1 0x0 DUP1 REVERT JUMPDEST PUSH1 0x1F SWAP1 SWAP2 ADD PUSH1 0x1F NOT AND DUP2 ADD SWAP1 PUSH1 0x1 PUSH1 0x1 PUSH1 0x40 SHL SUB DUP3 GT SWAP1 DUP3 LT OR PUSH2 0x139 JUMPI PUSH1 0x40 MSTORE JUMP JUMPDEST PUSH4 0x4E487B71 PUSH1 0xE0 SHL PUSH1 0x0 MSTORE PUSH1 0x41 PUSH1 0x4 MSTORE PUSH1 0x24 PUSH1 0x0 REVERT JUMPDEST MLOAD SWAP1 PUSH1 0x1 PUSH1 0x1 PUSH1 0xA0 SHL SUB DUP3 AND DUP3 SUB PUSH2 0x111 JUMPI JUMP INVALID PUSH1 0x80 PUSH1 0x40 DUP2 DUP2 MSTORE PUSH1 0x4 DUP1 CALLDATASIZE LT ISZERO PUSH2 0x15 JUMPI PUSH1 0x0 DUP1 REVERT JUMPDEST PUSH1 0x0 SWAP3 DUP4 CALLDATALOAD PUSH1 0xE0 SHR SWAP1 DUP2 PUSH4 0x36569E77 EQ PUSH2 0x49C JUMPI POP DUP1 PUSH4 0x3B4DA69F EQ PUSH2 0x369 JUMPI DUP1 PUSH4 0x65FAE35E EQ PUSH2 0x323 JUMPI DUP1 PUSH4 0x69245009 EQ PUSH2 0x2F4 JUMPI DUP1 PUSH4 0x7BD2BEA7 EQ PUSH2 0x2CB JUMPI DUP1 PUSH4 0x957AA58C EQ PUSH2 0x2AC JUMPI DUP4 DUP2 PUSH4 0x9C52A7F1 EQ PUSH2 0x262 JUMPI POP DUP1 PUSH4 0xB3BCFA82 EQ PUSH2 0x245 JUMPI DUP1 PUSH4 0xBF353DBB EQ PUSH2 0x20E JUMPI DUP1 PUSH4 0xC5CE281E EQ PUSH2 0x1EB JUMPI PUSH4 0xEF693BED EQ PUSH2 0x9E JUMPI PUSH1 0x0 DUP1 REVERT JUMPDEST CALLVALUE PUSH2 0x1E7 JUMPI DUP2 PUSH1 0x3 NOT CALLDATASIZE ADD SLT PUSH2 0x1E7 JUMPI PUSH2 0xB6 PUSH2 0x4C1 JUMP JUMPDEST PUSH1 0x1 PUSH1 0xFF SHL PUSH1 0x24 CALLDATALOAD PUSH2 0xCA DUP3 DUP3 GT ISZERO PUSH2 0x521 JUMP JUMPDEST PUSH1 0x1 SLOAD PUSH1 0x2 SLOAD PUSH1 0x1 PUSH1 0x1 PUSH1 0xA0 SHL SUB SWAP4 SWAP1 SWAP2 DUP5 AND SWAP1 DUP4 EQ PUSH2 0x1D4 JUMPI SWAP1 DUP2 DUP9 SWAP4 SWAP3 EXTCODESIZE ISZERO PUSH2 0x1C6 JUMPI DUP8 MLOAD PUSH4 0x3E6E9FEF PUSH1 0xE1 SHL DUP2 MSTORE DUP8 DUP2 ADD SWAP3 DUP4 MSTORE CALLER PUSH1 0x20 DUP5 ADD MSTORE DUP4 DUP6 SUB PUSH1 0x40 DUP5 ADD MSTORE SWAP2 DUP5 SWAP2 DUP4 SWAP2 DUP3 SWAP1 DUP5 SWAP1 DUP3 SWAP1 PUSH1 0x60 ADD SUB SWAP3 GAS CALL DUP1 ISZERO PUSH2 0x1CA JUMPI PUSH2 0x1AD JUMPI JUMPDEST POP SWAP3 PUSH1 0x44 SWAP2 PUSH1 0x20 SWAP5 DUP5 PUSH1 0x3 SLOAD AND SWAP1 DUP9 MLOAD SWAP8 DUP9 SWAP7 DUP8 SWAP6 PUSH4 0xA9059CBB PUSH1 0xE0 SHL DUP8 MSTORE AND SWAP1 DUP6 ADD MSTORE PUSH1 0x24 DUP5 ADD MSTORE GAS CALL SWAP1 DUP2 ISZERO PUSH2 0x1A1 JUMPI PUSH2 0x170 SWAP3 POP DUP4 SWAP2 PUSH2 0x173 JUMPI JUMPDEST POP PUSH2 0x5C4 JUMP JUMPDEST DUP1 RETURN JUMPDEST PUSH2 0x194 SWAP2 POP PUSH1 0x20 RETURNDATASIZE DUP2 GT PUSH2 0x19A JUMPI JUMPDEST PUSH2 0x18C DUP2 DUP4 PUSH2 0x58A JUMP JUMPDEST DUP2 ADD SWAP1 PUSH2 0x5AC JUMP JUMPDEST CODESIZE PUSH2 0x16A JUMP JUMPDEST POP RETURNDATASIZE PUSH2 0x182 JUMP JUMPDEST POP POP MLOAD SWAP1 RETURNDATASIZE SWAP1 DUP3 RETURNDATACOPY RETURNDATASIZE SWAP1 REVERT JUMPDEST SWAP2 PUSH2 0x1BA DUP2 SWAP6 SWAP3 SWAP4 PUSH2 0x560 JUMP JUMPDEST PUSH2 0x1C6 JUMPI SWAP3 SWAP1 CODESIZE PUSH2 0x12C JUMP JUMPDEST DUP4 DUP1 REVERT JUMPDEST DUP8 MLOAD RETURNDATASIZE DUP6 DUP3 RETURNDATACOPY RETURNDATASIZE SWAP1 REVERT JUMPDEST PUSH4 0x4E487B71 PUSH1 0xE0 SHL DUP9 MSTORE PUSH1 0x11 DUP7 MSTORE PUSH1 0x24 DUP9 REVERT JUMPDEST DUP3 DUP1 REVERT JUMPDEST POP POP CALLVALUE PUSH2 0x20A JUMPI DUP2 PUSH1 0x3 NOT CALLDATASIZE ADD SLT PUSH2 0x20A JUMPI PUSH1 0x20 SWAP1 PUSH1 0x2 SLOAD SWAP1 MLOAD SWAP1 DUP2 MSTORE RETURN JUMPDEST POP DUP1 REVERT JUMPDEST POP POP CALLVALUE PUSH2 0x20A JUMPI PUSH1 0x20 CALLDATASIZE PUSH1 0x3 NOT ADD SLT PUSH2 0x20A JUMPI PUSH1 0x20 SWAP2 DUP2 SWAP1 PUSH1 0x1 PUSH1 0x1 PUSH1 0xA0 SHL SUB PUSH2 0x236 PUSH2 0x4C1 JUMP JUMPDEST AND DUP2 MSTORE DUP1 DUP5 MSTORE KECCAK256 SLOAD SWAP1 MLOAD SWAP1 DUP2 MSTORE RETURN JUMPDEST POP CALLVALUE PUSH2 0x1E7 JUMPI DUP3 PUSH1 0x3 NOT CALLDATASIZE ADD SLT PUSH2 0x1E7 JUMPI PUSH1 0x20 SWAP3 POP SLOAD SWAP1 MLOAD SWAP1 DUP2 MSTORE RETURN JUMPDEST DUP1 DUP5 CALLVALUE PUSH2 0x2A9 JUMPI PUSH1 0x20 CALLDATASIZE PUSH1 0x3 NOT ADD SLT PUSH2 0x2A9 JUMPI PUSH2 0x27D PUSH2 0x4C1 JUMP JUMPDEST CALLER DUP4 MSTORE DUP3 PUSH1 0x20 MSTORE PUSH2 0x293 PUSH1 0x1 DUP4 DUP6 KECCAK256 SLOAD EQ PUSH2 0x4DC JUMP JUMPDEST PUSH1 0x1 PUSH1 0x1 PUSH1 0xA0 SHL SUB AND DUP3 MSTORE PUSH1 0x20 DUP3 SWAP1 MSTORE DUP2 KECCAK256 SSTORE DUP1 RETURN JUMPDEST POP REVERT JUMPDEST POP POP CALLVALUE PUSH2 0x20A JUMPI DUP2 PUSH1 0x3 NOT CALLDATASIZE ADD SLT PUSH2 0x20A JUMPI PUSH1 0x20 SWAP1 PUSH1 0x5 SLOAD SWAP1 MLOAD SWAP1 DUP2 MSTORE RETURN JUMPDEST POP POP CALLVALUE PUSH2 0x20A JUMPI DUP2 PUSH1 0x3 NOT CALLDATASIZE ADD SLT PUSH2 0x20A JUMPI PUSH1 0x3 SLOAD SWAP1 MLOAD PUSH1 0x1 PUSH1 0x1 PUSH1 0xA0 SHL SUB SWAP1 SWAP2 AND DUP2 MSTORE PUSH1 0x20 SWAP1 RETURN JUMPDEST POP POP CALLVALUE PUSH2 0x20A JUMPI DUP2 PUSH1 0x3 NOT CALLDATASIZE ADD SLT PUSH2 0x20A JUMPI PUSH1 0x1 PUSH2 0x31C SWAP2 CALLER DUP5 MSTORE DUP4 PUSH1 0x20 MSTORE DUP4 KECCAK256 SLOAD EQ PUSH2 0x4DC JUMP JUMPDEST DUP1 PUSH1 0x5 SSTORE DUP1 RETURN JUMPDEST POP POP CALLVALUE PUSH2 0x20A JUMPI PUSH1 0x20 CALLDATASIZE PUSH1 0x3 NOT ADD SLT PUSH2 0x20A JUMPI PUSH1 0x1 SWAP1 PUSH2 0x341 PUSH2 0x4C1 JUMP JUMPDEST CALLER DUP5 MSTORE DUP4 PUSH1 0x20 MSTORE PUSH2 0x356 DUP4 DUP4 DUP7 KECCAK256 SLOAD EQ PUSH2 0x4DC JUMP JUMPDEST DUP3 DUP1 PUSH1 0xA0 SHL SUB AND DUP4 MSTORE DUP3 PUSH1 0x20 MSTORE DUP3 KECCAK256 SSTORE DUP1 RETURN JUMPDEST POP CALLVALUE PUSH2 0x1E7 JUMPI DUP2 PUSH1 0x3 NOT CALLDATASIZE ADD SLT PUSH2 0x1E7 JUMPI PUSH2 0x382 PUSH2 0x4C1 JUMP JUMPDEST PUSH1 0x24 CALLDATALOAD SWAP1 PUSH1 0x1 PUSH1 0x5 SLOAD SUB PUSH2 0x466 JUMPI PUSH2 0x39C DUP6 DUP4 SLT ISZERO PUSH2 0x521 JUMP JUMPDEST PUSH1 0x1 SLOAD PUSH1 0x2 SLOAD PUSH1 0x1 PUSH1 0x1 PUSH1 0xA0 SHL SUB SWAP3 SWAP2 DUP8 SWAP2 SWAP1 DUP5 AND DUP1 EXTCODESIZE ISZERO PUSH2 0x1E7 JUMPI DUP8 MLOAD PUSH4 0x3E6E9FEF PUSH1 0xE1 SHL DUP2 MSTORE DUP8 DUP2 ADD SWAP3 DUP4 MSTORE PUSH1 0x1 PUSH1 0x1 PUSH1 0xA0 SHL SUB SWAP1 SWAP5 AND PUSH1 0x20 DUP4 ADD MSTORE PUSH1 0x40 DUP3 ADD DUP7 SWAP1 MSTORE DUP4 SWAP2 DUP3 SWAP1 DUP5 SWAP1 DUP3 SWAP1 PUSH1 0x60 ADD SUB SWAP3 GAS CALL DUP1 ISZERO PUSH2 0x45C JUMPI PUSH2 0x443 JUMPI JUMPDEST POP SWAP1 PUSH1 0x64 PUSH1 0x20 SWAP3 PUSH1 0x3 SLOAD AND SWAP4 DUP7 DUP7 MLOAD SWAP6 DUP7 SWAP5 DUP6 SWAP4 PUSH4 0x23B872DD PUSH1 0xE0 SHL DUP6 MSTORE CALLER SWAP1 DUP6 ADD MSTORE ADDRESS PUSH1 0x24 DUP6 ADD MSTORE PUSH1 0x44 DUP5 ADD MSTORE GAS CALL SWAP1 DUP2 ISZERO PUSH2 0x1A1 JUMPI PUSH2 0x170 SWAP3 POP DUP4 SWAP2 PUSH2 0x173 JUMPI POP PUSH2 0x5C4 JUMP JUMPDEST PUSH1 0x20 SWAP3 SWAP2 SWAP6 PUSH2 0x453 PUSH1 0x64 SWAP3 PUSH2 0x560 JUMP JUMPDEST SWAP6 SWAP2 SWAP3 POP PUSH2 0x3FB JUMP JUMPDEST DUP6 MLOAD RETURNDATASIZE DUP9 DUP3 RETURNDATACOPY RETURNDATASIZE SWAP1 REVERT JUMPDEST DUP4 MLOAD PUSH3 0x461BCD PUSH1 0xE5 SHL DUP2 MSTORE PUSH1 0x20 DUP2 DUP6 ADD MSTORE PUSH1 0x10 PUSH1 0x24 DUP3 ADD MSTORE PUSH16 0x47656D4A6F696E2F6E6F742D6C697665 PUSH1 0x80 SHL PUSH1 0x44 DUP3 ADD MSTORE PUSH1 0x64 SWAP1 REVERT JUMPDEST DUP5 SWAP1 CALLVALUE PUSH2 0x20A JUMPI DUP2 PUSH1 0x3 NOT CALLDATASIZE ADD SLT PUSH2 0x20A JUMPI PUSH1 0x1 SLOAD PUSH1 0x1 PUSH1 0x1 PUSH1 0xA0 SHL SUB AND DUP2 MSTORE PUSH1 0x20 SWAP1 RETURN JUMPDEST PUSH1 0x4 CALLDATALOAD SWAP1 PUSH1 0x1 PUSH1 0x1 PUSH1 0xA0 SHL SUB DUP3 AND DUP3 SUB PUSH2 0x4D7 JUMPI JUMP JUMPDEST PUSH1 0x0 DUP1 REVERT JUMPDEST ISZERO PUSH2 0x4E3 JUMPI JUMP JUMPDEST PUSH1 0x40 MLOAD PUSH3 0x461BCD PUSH1 0xE5 SHL DUP2 MSTORE PUSH1 0x20 PUSH1 0x4 DUP3 ADD MSTORE PUSH1 0x16 PUSH1 0x24 DUP3 ADD MSTORE PUSH22 0x11D95B529BDA5B8BDB9BDD0B585D5D1A1BDC9A5E9959 PUSH1 0x52 SHL PUSH1 0x44 DUP3 ADD MSTORE PUSH1 0x64 SWAP1 REVERT JUMPDEST ISZERO PUSH2 0x528 JUMPI JUMP JUMPDEST PUSH1 0x40 MLOAD PUSH3 0x461BCD PUSH1 0xE5 SHL DUP2 MSTORE PUSH1 0x20 PUSH1 0x4 DUP3 ADD MSTORE PUSH1 0x10 PUSH1 0x24 DUP3 ADD MSTORE PUSH16 0x47656D4A6F696E2F6F766572666C6F77 PUSH1 0x80 SHL PUSH1 0x44 DUP3 ADD MSTORE PUSH1 0x64 SWAP1 REVERT JUMPDEST PUSH8 0xFFFFFFFFFFFFFFFF DUP2 GT PUSH2 0x574 JUMPI PUSH1 0x40 MSTORE JUMP JUMPDEST PUSH4 0x4E487B71 PUSH1 0xE0 SHL PUSH1 0x0 MSTORE PUSH1 0x41 PUSH1 0x4 MSTORE PUSH1 0x24 PUSH1 0x0 REVERT JUMPDEST SWAP1 PUSH1 0x1F DUP1 NOT SWAP2 ADD AND DUP2 ADD SWAP1 DUP2 LT PUSH8 0xFFFFFFFFFFFFFFFF DUP3 GT OR PUSH2 0x574 JUMPI PUSH1 0x40 MSTORE JUMP JUMPDEST SWAP1 DUP2 PUSH1 0x20 SWAP2 SUB SLT PUSH2 0x4D7 JUMPI MLOAD DUP1 ISZERO ISZERO DUP2 SUB PUSH2 0x4D7 JUMPI SWAP1 JUMP JUMPDEST ISZERO PUSH2 0x5CB JUMPI JUMP JUMPDEST PUSH1 0x40 MLOAD PUSH3 0x461BCD PUSH1 0xE5 SHL DUP2 MSTORE PUSH1 0x20 PUSH1 0x4 DUP3 ADD MSTORE PUSH1 0x17 PUSH1 0x24 DUP3 ADD MSTORE PUSH32 0x47656D4A6F696E2F6661696C65642D7472616E73666572000000000000000000 PUSH1 0x44 DUP3 ADD MSTORE PUSH1 0x64 SWAP1 REVERT INVALID LOG2 PUSH5 0x6970667358 0x22 SLT KECCAK256 0xD8 SWAP2 CALLDATASIZE 0xC2 0xD1 PUSH1 0x6F PUSH12 0x1EA93746513FF29D6696B7E3 SWAP1 0x1E 0xE3 SDIV 0xC3 SHR PUSH3 0x733DAB 0xD8 DUP16 PUSH5 0x736F6C6343 STOP ADDMOD SGT STOP CALLER "},"methodIdentifiers":{"cage()":"69245009","dec()":"b3bcfa82","deny(address)":"9c52a7f1","exit(address,uint256)":"ef693bed","gem()":"7bd2bea7","ilk()":"c5ce281e","join(address,uint256)":"3b4da69f","live()":"957aa58c","rely(address)":"65fae35e","vat()":"36569e77","wards(address)":"bf353dbb"}}}}}