{"contracts/Spot.sol":{"Spot":{"abi":[{"inputs":[{"internalType":"address","name":"vat_","type":"address"}],"stateMutability":"nonpayable","type":"constructor"},{"anonymous":false,"inputs":[{"indexed":true,"internalType":"bytes32","name":"ilk","type":"bytes32"},{"indexed":true,"internalType":"bytes32","name":"val","type":"bytes32"},{"indexed":true,"internalType":"uint256","name":"spot","type":"uint256"}],"name":"Poke","type":"event"},{"inputs":[],"name":"cage","outputs":[],"stateMutability":"nonpayable","type":"function"},{"inputs":[{"internalType":"address","name":"guy","type":"address"}],"name":"deny","outputs":[],"stateMutability":"nonpayable","type":"function"},{"inputs":[{"internalType":"bytes32","name":"ilk","type":"bytes32"},{"internalType":"bytes32","name":"what","type":"bytes32"},{"internalType":"uint256","name":"data","type":"uint256"}],"name":"file","outputs":[],"stateMutability":"nonpayable","type":"function"},{"inputs":[{"internalType":"bytes32","name":"what","type":"bytes32"},{"internalType":"uint256","name":"data","type":"uint256"}],"name":"file","outputs":[],"stateMutability":"nonpayable","type":"function"},{"inputs":[{"internalType":"bytes32","name":"ilk","type":"bytes32"},{"internalType":"bytes32","name":"what","type":"bytes32"},{"internalType":"address","name":"pip_","type":"address"}],"name":"file","outputs":[],"stateMutability":"nonpayable","type":"function"},{"inputs":[{"internalType":"bytes32","name":"","type":"bytes32"}],"name":"ilks","outputs":[{"internalType":"contract PipLike","name":"pip","type":"address"},{"internalType":"uint256","name":"mat","type":"uint256"}],"stateMutability":"view","type":"function"},{"inputs":[],"name":"live","outputs":[{"internalType":"uint256","name":"","type":"uint256"}],"stateMutability":"view","type":"function"},{"inputs":[],"name":"par","outputs":[{"internalType":"uint256","name":"","type":"uint256"}],"stateMutability":"view","type":"function"},{"inputs":[{"internalType":"bytes32","name":"ilk","type":"bytes32"}],"name":"poke","outputs":[],"stateMutability":"nonpayable","type":"function"},{"inputs":[{"internalType":"address","name":"guy","type":"address"}],"name":"rely","outputs":[],"stateMutability":"nonpayable","type":"function"},{"inputs":[],"name":"vat","outputs":[{"internalType":"contract VatLike","name":"","type":"address"}],"stateMutability":"view","type":"function"},{"inputs":[{"internalType":"address","name":"","type":"address"}],"name":"wards","outputs":[{"internalType":"uint256","name":"","type":"uint256"}],"stateMutability":"view","type":"function"}],"evm":{"bytecode":{"linkReferences":{},"object":"60803461009657601f6107d138819003918201601f19168301916001600160401b0383118484101761009b5780849260209460405283398101031261009657516001600160a01b0381169081900361009657336000526000602052600160406000205560018060a01b031960025416176002556b033b2e3c9fd0803ce8000000600355600160045560405161071f90816100b28239f35b600080fd5b634e487b7160e01b600052604160045260246000fdfe608060408181526004908136101561001657600080fd5b600092833560e01c9081631504460f14610409575080631a0b287e146103af57806329ae81141461031757806336569e77146102ee578063495d32cb146102cf57806365fae35e1461028957838163692450091461025857508063957aa58c1461023a578381639c52a7f1146101f057508063bf353dbb146101b5578063d9638d361461017c5763ebecb39d146100ac57600080fd5b34610178576060366003190112610178576044356001600160a01b038116929083900361017357338452836020526100e96001838620541461060c565b6100f6600182541461064e565b6024356207069760ec1b03610123573583526001602052822080546001600160a01b031916909117905580f35b905162461bcd60e51b815290819061016f90820160609060208152601c60208201527f53706f742f66696c652d756e7265636f676e697a65642d706172616d0000000060408201520190565b0390fd5b600080fd5b8280fd5b509034610178576020366003190112610178579181923581526001602052206001808060a01b0382541691015482519182526020820152f35b8382346101ec5760203660031901126101ec5760209181906001600160a01b036101dd6105f6565b16815280845220549051908152f35b5080fd5b8083346102375760203660031901126102375761020b6105f6565b338352826020526102216001838520541461060c565b6001600160a01b03168252602082905281205580f35b50fd5b50903461017857826003193601126101785760209250549051908152f35b80848434610285578260031936011261028557600161028191338552846020528420541461060c565b5580f35b5050fd5b8382346101ec5760203660031901126101ec576001906102a76105f6565b338452836020526102bc83838620541461060c565b828060a01b031683528260205282205580f35b8382346101ec57816003193601126101ec576020906003549051908152f35b8382346101ec57816003193601126101ec5760025490516001600160a01b039091168152602090f35b50346101785780600319360112610178573383528260205261033e6001828520541461060c565b61034b600183541461064e565b8135623830b960e91b03610363578260243560035580f35b5162461bcd60e51b81529150819061016f90820160609060208152601c60208201527f53706f742f66696c652d756e7265636f676e697a65642d706172616d0000000060408201520190565b50903461017857606036600319011261017857338352826020526103d86001838520541461060c565b6103e5600182541461064e565b602435621b585d60ea1b036101235735825260016020526001604435918320015580f35b9190503461055b57602036600319011261055b57823590818552600160205260018060a01b03938582858381848a85822054166359e02dd760e01b83525af180156105ea578195829161057b575b50156105725750633b9aca008085029085820481148615171561055f5790858894939282040361055b576104996104b191610494600354916106aa565b61068a565b858552600160205261049460018587200154916106aa565b955b60025416803b1561055b5783906064845180968193630d05943f60e11b83528987840152631cdc1bdd60e21b60248401528b60448401525af1801561055157610521575b5050507fdfd7467e425a8107cfd368d159957692c25085aacbcf5228ce08f10f2146486e8480a480f35b67ffffffffffffffff839794971161053e575052923880806104f7565b634e487b7160e01b845260419052602483fd5b82513d89823e3d90fd5b8380fd5b634e487b7160e01b885260118352602488fd5b919082956104b3565b95505050813d83116105e3575b601f8101601f1916850167ffffffffffffffff8111868210176105d057839186918352810103126105cc5785602085519501519485151586036101ec579438610457565b8580fd5b634e487b7160e01b885260418352602488fd5b503d610588565b508251903d90823e3d90fd5b600435906001600160a01b038216820361017357565b1561061357565b60405162461bcd60e51b815260206004820152601360248201527214dc1bdd0bdb9bdd0b585d5d1a1bdc9a5e9959606a1b6044820152606490fd5b1561065557565b60405162461bcd60e51b815260206004820152600d60248201526c53706f742f6e6f742d6c69766560981b6044820152606490fd5b8115610694570490565b634e487b7160e01b600052601260045260246000fd5b906b033b2e3c9fd0803ce800000091828102928184048114821517156106d35783040361017357565b634e487b7160e01b600052601160045260246000fdfea2646970667358221220854593b408e1830ccca582ed4ae73fde23b52d316bb7249bcecfb6750c30d6d664736f6c63430008130033","opcodes":"PUSH1 0x80 CALLVALUE PUSH2 0x96 JUMPI PUSH1 0x1F PUSH2 0x7D1 CODESIZE DUP2 SWAP1 SUB SWAP2 DUP3 ADD PUSH1 0x1F NOT AND DUP4 ADD SWAP2 PUSH1 0x1 PUSH1 0x1 PUSH1 0x40 SHL SUB DUP4 GT DUP5 DUP5 LT OR PUSH2 0x9B JUMPI DUP1 DUP5 SWAP3 PUSH1 0x20 SWAP5 PUSH1 0x40 MSTORE DUP4 CODECOPY DUP2 ADD SUB SLT PUSH2 0x96 JUMPI MLOAD PUSH1 0x1 PUSH1 0x1 PUSH1 0xA0 SHL SUB DUP2 AND SWAP1 DUP2 SWAP1 SUB PUSH2 0x96 JUMPI CALLER PUSH1 0x0 MSTORE PUSH1 0x0 PUSH1 0x20 MSTORE PUSH1 0x1 PUSH1 0x40 PUSH1 0x0 KECCAK256 SSTORE PUSH1 0x1 DUP1 PUSH1 0xA0 SHL SUB NOT PUSH1 0x2 SLOAD AND OR PUSH1 0x2 SSTORE PUSH12 0x33B2E3C9FD0803CE8000000 PUSH1 0x3 SSTORE PUSH1 0x1 PUSH1 0x4 SSTORE PUSH1 0x40 MLOAD PUSH2 0x71F SWAP1 DUP2 PUSH2 0xB2 DUP3 CODECOPY RETURN JUMPDEST PUSH1 0x0 DUP1 REVERT JUMPDEST PUSH4 0x4E487B71 PUSH1 0xE0 SHL PUSH1 0x0 MSTORE PUSH1 0x41 PUSH1 0x4 MSTORE PUSH1 0x24 PUSH1 0x0 REVERT INVALID PUSH1 0x80 PUSH1 0x40 DUP2 DUP2 MSTORE PUSH1 0x4 SWAP1 DUP2 CALLDATASIZE LT ISZERO PUSH2 0x16 JUMPI PUSH1 0x0 DUP1 REVERT JUMPDEST PUSH1 0x0 SWAP3 DUP4 CALLDATALOAD PUSH1 0xE0 SHR SWAP1 DUP2 PUSH4 0x1504460F EQ PUSH2 0x409 JUMPI POP DUP1 PUSH4 0x1A0B287E EQ PUSH2 0x3AF JUMPI DUP1 PUSH4 0x29AE8114 EQ PUSH2 0x317 JUMPI DUP1 PUSH4 0x36569E77 EQ PUSH2 0x2EE JUMPI DUP1 PUSH4 0x495D32CB EQ PUSH2 0x2CF JUMPI DUP1 PUSH4 0x65FAE35E EQ PUSH2 0x289 JUMPI DUP4 DUP2 PUSH4 0x69245009 EQ PUSH2 0x258 JUMPI POP DUP1 PUSH4 0x957AA58C EQ PUSH2 0x23A JUMPI DUP4 DUP2 PUSH4 0x9C52A7F1 EQ PUSH2 0x1F0 JUMPI POP DUP1 PUSH4 0xBF353DBB EQ PUSH2 0x1B5 JUMPI DUP1 PUSH4 0xD9638D36 EQ PUSH2 0x17C JUMPI PUSH4 0xEBECB39D EQ PUSH2 0xAC JUMPI PUSH1 0x0 DUP1 REVERT JUMPDEST CALLVALUE PUSH2 0x178 JUMPI PUSH1 0x60 CALLDATASIZE PUSH1 0x3 NOT ADD SLT PUSH2 0x178 JUMPI PUSH1 0x44 CALLDATALOAD PUSH1 0x1 PUSH1 0x1 PUSH1 0xA0 SHL SUB DUP2 AND SWAP3 SWAP1 DUP4 SWAP1 SUB PUSH2 0x173 JUMPI CALLER DUP5 MSTORE DUP4 PUSH1 0x20 MSTORE PUSH2 0xE9 PUSH1 0x1 DUP4 DUP7 KECCAK256 SLOAD EQ PUSH2 0x60C JUMP JUMPDEST PUSH2 0xF6 PUSH1 0x1 DUP3 SLOAD EQ PUSH2 0x64E JUMP JUMPDEST PUSH1 0x24 CALLDATALOAD PUSH3 0x70697 PUSH1 0xEC SHL SUB PUSH2 0x123 JUMPI CALLDATALOAD DUP4 MSTORE PUSH1 0x1 PUSH1 0x20 MSTORE DUP3 KECCAK256 DUP1 SLOAD PUSH1 0x1 PUSH1 0x1 PUSH1 0xA0 SHL SUB NOT AND SWAP1 SWAP2 OR SWAP1 SSTORE DUP1 RETURN JUMPDEST SWAP1 MLOAD PUSH3 0x461BCD PUSH1 0xE5 SHL DUP2 MSTORE SWAP1 DUP2 SWAP1 PUSH2 0x16F SWAP1 DUP3 ADD PUSH1 0x60 SWAP1 PUSH1 0x20 DUP2 MSTORE PUSH1 0x1C PUSH1 0x20 DUP3 ADD MSTORE PUSH32 0x53706F742F66696C652D756E7265636F676E697A65642D706172616D00000000 PUSH1 0x40 DUP3 ADD MSTORE ADD SWAP1 JUMP JUMPDEST SUB SWAP1 REVERT JUMPDEST PUSH1 0x0 DUP1 REVERT JUMPDEST DUP3 DUP1 REVERT JUMPDEST POP SWAP1 CALLVALUE PUSH2 0x178 JUMPI PUSH1 0x20 CALLDATASIZE PUSH1 0x3 NOT ADD SLT PUSH2 0x178 JUMPI SWAP2 DUP2 SWAP3 CALLDATALOAD DUP2 MSTORE PUSH1 0x1 PUSH1 0x20 MSTORE KECCAK256 PUSH1 0x1 DUP1 DUP1 PUSH1 0xA0 SHL SUB DUP3 SLOAD AND SWAP2 ADD SLOAD DUP3 MLOAD SWAP2 DUP3 MSTORE PUSH1 0x20 DUP3 ADD MSTORE RETURN JUMPDEST DUP4 DUP3 CALLVALUE PUSH2 0x1EC JUMPI PUSH1 0x20 CALLDATASIZE PUSH1 0x3 NOT ADD SLT PUSH2 0x1EC JUMPI PUSH1 0x20 SWAP2 DUP2 SWAP1 PUSH1 0x1 PUSH1 0x1 PUSH1 0xA0 SHL SUB PUSH2 0x1DD PUSH2 0x5F6 JUMP JUMPDEST AND DUP2 MSTORE DUP1 DUP5 MSTORE KECCAK256 SLOAD SWAP1 MLOAD SWAP1 DUP2 MSTORE RETURN JUMPDEST POP DUP1 REVERT JUMPDEST DUP1 DUP4 CALLVALUE PUSH2 0x237 JUMPI PUSH1 0x20 CALLDATASIZE PUSH1 0x3 NOT ADD SLT PUSH2 0x237 JUMPI PUSH2 0x20B PUSH2 0x5F6 JUMP JUMPDEST CALLER DUP4 MSTORE DUP3 PUSH1 0x20 MSTORE PUSH2 0x221 PUSH1 0x1 DUP4 DUP6 KECCAK256 SLOAD EQ PUSH2 0x60C JUMP JUMPDEST PUSH1 0x1 PUSH1 0x1 PUSH1 0xA0 SHL SUB AND DUP3 MSTORE PUSH1 0x20 DUP3 SWAP1 MSTORE DUP2 KECCAK256 SSTORE DUP1 RETURN JUMPDEST POP REVERT JUMPDEST POP SWAP1 CALLVALUE PUSH2 0x178 JUMPI DUP3 PUSH1 0x3 NOT CALLDATASIZE ADD SLT PUSH2 0x178 JUMPI PUSH1 0x20 SWAP3 POP SLOAD SWAP1 MLOAD SWAP1 DUP2 MSTORE RETURN JUMPDEST DUP1 DUP5 DUP5 CALLVALUE PUSH2 0x285 JUMPI DUP3 PUSH1 0x3 NOT CALLDATASIZE ADD SLT PUSH2 0x285 JUMPI PUSH1 0x1 PUSH2 0x281 SWAP2 CALLER DUP6 MSTORE DUP5 PUSH1 0x20 MSTORE DUP5 KECCAK256 SLOAD EQ PUSH2 0x60C JUMP JUMPDEST SSTORE DUP1 RETURN JUMPDEST POP POP REVERT JUMPDEST DUP4 DUP3 CALLVALUE PUSH2 0x1EC JUMPI PUSH1 0x20 CALLDATASIZE PUSH1 0x3 NOT ADD SLT PUSH2 0x1EC JUMPI PUSH1 0x1 SWAP1 PUSH2 0x2A7 PUSH2 0x5F6 JUMP JUMPDEST CALLER DUP5 MSTORE DUP4 PUSH1 0x20 MSTORE PUSH2 0x2BC DUP4 DUP4 DUP7 KECCAK256 SLOAD EQ PUSH2 0x60C JUMP JUMPDEST DUP3 DUP1 PUSH1 0xA0 SHL SUB AND DUP4 MSTORE DUP3 PUSH1 0x20 MSTORE DUP3 KECCAK256 SSTORE DUP1 RETURN JUMPDEST DUP4 DUP3 CALLVALUE PUSH2 0x1EC JUMPI DUP2 PUSH1 0x3 NOT CALLDATASIZE ADD SLT PUSH2 0x1EC JUMPI PUSH1 0x20 SWAP1 PUSH1 0x3 SLOAD SWAP1 MLOAD SWAP1 DUP2 MSTORE RETURN JUMPDEST DUP4 DUP3 CALLVALUE PUSH2 0x1EC JUMPI DUP2 PUSH1 0x3 NOT CALLDATASIZE ADD SLT PUSH2 0x1EC JUMPI PUSH1 0x2 SLOAD SWAP1 MLOAD PUSH1 0x1 PUSH1 0x1 PUSH1 0xA0 SHL SUB SWAP1 SWAP2 AND DUP2 MSTORE PUSH1 0x20 SWAP1 RETURN JUMPDEST POP CALLVALUE PUSH2 0x178 JUMPI DUP1 PUSH1 0x3 NOT CALLDATASIZE ADD SLT PUSH2 0x178 JUMPI CALLER DUP4 MSTORE DUP3 PUSH1 0x20 MSTORE PUSH2 0x33E PUSH1 0x1 DUP3 DUP6 KECCAK256 SLOAD EQ PUSH2 0x60C JUMP JUMPDEST PUSH2 0x34B PUSH1 0x1 DUP4 SLOAD EQ PUSH2 0x64E JUMP JUMPDEST DUP2 CALLDATALOAD PUSH3 0x3830B9 PUSH1 0xE9 SHL SUB PUSH2 0x363 JUMPI DUP3 PUSH1 0x24 CALLDATALOAD PUSH1 0x3 SSTORE DUP1 RETURN JUMPDEST MLOAD PUSH3 0x461BCD PUSH1 0xE5 SHL DUP2 MSTORE SWAP2 POP DUP2 SWAP1 PUSH2 0x16F SWAP1 DUP3 ADD PUSH1 0x60 SWAP1 PUSH1 0x20 DUP2 MSTORE PUSH1 0x1C PUSH1 0x20 DUP3 ADD MSTORE PUSH32 0x53706F742F66696C652D756E7265636F676E697A65642D706172616D00000000 PUSH1 0x40 DUP3 ADD MSTORE ADD SWAP1 JUMP JUMPDEST POP SWAP1 CALLVALUE PUSH2 0x178 JUMPI PUSH1 0x60 CALLDATASIZE PUSH1 0x3 NOT ADD SLT PUSH2 0x178 JUMPI CALLER DUP4 MSTORE DUP3 PUSH1 0x20 MSTORE PUSH2 0x3D8 PUSH1 0x1 DUP4 DUP6 KECCAK256 SLOAD EQ PUSH2 0x60C JUMP JUMPDEST PUSH2 0x3E5 PUSH1 0x1 DUP3 SLOAD EQ PUSH2 0x64E JUMP JUMPDEST PUSH1 0x24 CALLDATALOAD PUSH3 0x1B585D PUSH1 0xEA SHL SUB PUSH2 0x123 JUMPI CALLDATALOAD DUP3 MSTORE PUSH1 0x1 PUSH1 0x20 MSTORE PUSH1 0x1 PUSH1 0x44 CALLDATALOAD SWAP2 DUP4 KECCAK256 ADD SSTORE DUP1 RETURN JUMPDEST SWAP2 SWAP1 POP CALLVALUE PUSH2 0x55B JUMPI PUSH1 0x20 CALLDATASIZE PUSH1 0x3 NOT ADD SLT PUSH2 0x55B JUMPI DUP3 CALLDATALOAD SWAP1 DUP2 DUP6 MSTORE PUSH1 0x1 PUSH1 0x20 MSTORE PUSH1 0x1 DUP1 PUSH1 0xA0 SHL SUB SWAP4 DUP6 DUP3 DUP6 DUP4 DUP2 DUP5 DUP11 DUP6 DUP3 KECCAK256 SLOAD AND PUSH4 0x59E02DD7 PUSH1 0xE0 SHL DUP4 MSTORE GAS CALL DUP1 ISZERO PUSH2 0x5EA JUMPI DUP2 SWAP6 DUP3 SWAP2 PUSH2 0x57B JUMPI JUMPDEST POP ISZERO PUSH2 0x572 JUMPI POP PUSH4 0x3B9ACA00 DUP1 DUP6 MUL SWAP1 DUP6 DUP3 DIV DUP2 EQ DUP7 ISZERO OR ISZERO PUSH2 0x55F JUMPI SWAP1 DUP6 DUP9 SWAP5 SWAP4 SWAP3 DUP3 DIV SUB PUSH2 0x55B JUMPI PUSH2 0x499 PUSH2 0x4B1 SWAP2 PUSH2 0x494 PUSH1 0x3 SLOAD SWAP2 PUSH2 0x6AA JUMP JUMPDEST PUSH2 0x68A JUMP JUMPDEST DUP6 DUP6 MSTORE PUSH1 0x1 PUSH1 0x20 MSTORE PUSH2 0x494 PUSH1 0x1 DUP6 DUP8 KECCAK256 ADD SLOAD SWAP2 PUSH2 0x6AA JUMP JUMPDEST SWAP6 JUMPDEST PUSH1 0x2 SLOAD AND DUP1 EXTCODESIZE ISZERO PUSH2 0x55B JUMPI DUP4 SWAP1 PUSH1 0x64 DUP5 MLOAD DUP1 SWAP7 DUP2 SWAP4 PUSH4 0xD05943F PUSH1 0xE1 SHL DUP4 MSTORE DUP10 DUP8 DUP5 ADD MSTORE PUSH4 0x1CDC1BDD PUSH1 0xE2 SHL PUSH1 0x24 DUP5 ADD MSTORE DUP12 PUSH1 0x44 DUP5 ADD MSTORE GAS CALL DUP1 ISZERO PUSH2 0x551 JUMPI PUSH2 0x521 JUMPI JUMPDEST POP POP POP PUSH32 0xDFD7467E425A8107CFD368D159957692C25085AACBCF5228CE08F10F2146486E DUP5 DUP1 LOG4 DUP1 RETURN JUMPDEST PUSH8 0xFFFFFFFFFFFFFFFF DUP4 SWAP8 SWAP5 SWAP8 GT PUSH2 0x53E JUMPI POP MSTORE SWAP3 CODESIZE DUP1 DUP1 PUSH2 0x4F7 JUMP JUMPDEST PUSH4 0x4E487B71 PUSH1 0xE0 SHL DUP5 MSTORE PUSH1 0x41 SWAP1 MSTORE PUSH1 0x24 DUP4 REVERT JUMPDEST DUP3 MLOAD RETURNDATASIZE DUP10 DUP3 RETURNDATACOPY RETURNDATASIZE SWAP1 REVERT JUMPDEST DUP4 DUP1 REVERT JUMPDEST PUSH4 0x4E487B71 PUSH1 0xE0 SHL DUP9 MSTORE PUSH1 0x11 DUP4 MSTORE PUSH1 0x24 DUP9 REVERT JUMPDEST SWAP2 SWAP1 DUP3 SWAP6 PUSH2 0x4B3 JUMP JUMPDEST SWAP6 POP POP POP DUP2 RETURNDATASIZE DUP4 GT PUSH2 0x5E3 JUMPI JUMPDEST PUSH1 0x1F DUP2 ADD PUSH1 0x1F NOT AND DUP6 ADD PUSH8 0xFFFFFFFFFFFFFFFF DUP2 GT DUP7 DUP3 LT OR PUSH2 0x5D0 JUMPI DUP4 SWAP2 DUP7 SWAP2 DUP4 MSTORE DUP2 ADD SUB SLT PUSH2 0x5CC JUMPI DUP6 PUSH1 0x20 DUP6 MLOAD SWAP6 ADD MLOAD SWAP5 DUP6 ISZERO ISZERO DUP7 SUB PUSH2 0x1EC JUMPI SWAP5 CODESIZE PUSH2 0x457 JUMP JUMPDEST DUP6 DUP1 REVERT JUMPDEST PUSH4 0x4E487B71 PUSH1 0xE0 SHL DUP9 MSTORE PUSH1 0x41 DUP4 MSTORE PUSH1 0x24 DUP9 REVERT JUMPDEST POP RETURNDATASIZE PUSH2 0x588 JUMP JUMPDEST POP DUP3 MLOAD SWAP1 RETURNDATASIZE SWAP1 DUP3 RETURNDATACOPY RETURNDATASIZE SWAP1 REVERT JUMPDEST PUSH1 0x4 CALLDATALOAD SWAP1 PUSH1 0x1 PUSH1 0x1 PUSH1 0xA0 SHL SUB DUP3 AND DUP3 SUB PUSH2 0x173 JUMPI JUMP JUMPDEST ISZERO PUSH2 0x613 JUMPI JUMP JUMPDEST PUSH1 0x40 MLOAD PUSH3 0x461BCD PUSH1 0xE5 SHL DUP2 MSTORE PUSH1 0x20 PUSH1 0x4 DUP3 ADD MSTORE PUSH1 0x13 PUSH1 0x24 DUP3 ADD MSTORE PUSH19 0x14DC1BDD0BDB9BDD0B585D5D1A1BDC9A5E9959 PUSH1 0x6A SHL PUSH1 0x44 DUP3 ADD MSTORE PUSH1 0x64 SWAP1 REVERT JUMPDEST ISZERO PUSH2 0x655 JUMPI JUMP JUMPDEST PUSH1 0x40 MLOAD PUSH3 0x461BCD PUSH1 0xE5 SHL DUP2 MSTORE PUSH1 0x20 PUSH1 0x4 DUP3 ADD MSTORE PUSH1 0xD PUSH1 0x24 DUP3 ADD MSTORE PUSH13 0x53706F742F6E6F742D6C697665 PUSH1 0x98 SHL PUSH1 0x44 DUP3 ADD MSTORE PUSH1 0x64 SWAP1 REVERT JUMPDEST DUP2 ISZERO PUSH2 0x694 JUMPI DIV SWAP1 JUMP JUMPDEST PUSH4 0x4E487B71 PUSH1 0xE0 SHL PUSH1 0x0 MSTORE PUSH1 0x12 PUSH1 0x4 MSTORE PUSH1 0x24 PUSH1 0x0 REVERT JUMPDEST SWAP1 PUSH12 0x33B2E3C9FD0803CE8000000 SWAP2 DUP3 DUP2 MUL SWAP3 DUP2 DUP5 DIV DUP2 EQ DUP3 ISZERO OR ISZERO PUSH2 0x6D3 JUMPI DUP4 DIV SUB PUSH2 0x173 JUMPI JUMP JUMPDEST PUSH4 0x4E487B71 PUSH1 0xE0 SHL PUSH1 0x0 MSTORE PUSH1 0x11 PUSH1 0x4 MSTORE PUSH1 0x24 PUSH1 0x0 REVERT INVALID LOG2 PUSH5 0x6970667358 0x22 SLT KECCAK256 DUP6 GASLIMIT SWAP4 0xB4 ADDMOD 0xE1 DUP4 0xC 0xCC 0xA5 DUP3 0xED 0x4A 0xE7 EXTCODEHASH 0xDE 0x23 0xB5 0x2D BALANCE PUSH12 0xB7249BCECFB6750C30D6D664 PUSH20 0x6F6C634300081300330000000000000000000000 "},"methodIdentifiers":{"cage()":"69245009","deny(address)":"9c52a7f1","file(bytes32,bytes32,address)":"ebecb39d","file(bytes32,bytes32,uint256)":"1a0b287e","file(bytes32,uint256)":"29ae8114","ilks(bytes32)":"d9638d36","live()":"957aa58c","par()":"495d32cb","poke(bytes32)":"1504460f","rely(address)":"65fae35e","vat()":"36569e77","wards(address)":"bf353dbb"}}}}}