{"contracts/Calc.sol":{"StairstepExponentialDecrease":{"abi":[{"inputs":[],"stateMutability":"nonpayable","type":"constructor"},{"inputs":[],"name":"cut","outputs":[{"internalType":"uint256","name":"","type":"uint256"}],"stateMutability":"view","type":"function"},{"inputs":[{"internalType":"address","name":"usr","type":"address"}],"name":"deny","outputs":[],"stateMutability":"nonpayable","type":"function"},{"inputs":[{"internalType":"bytes32","name":"what","type":"bytes32"},{"internalType":"uint256","name":"data","type":"uint256"}],"name":"file","outputs":[],"stateMutability":"nonpayable","type":"function"},{"inputs":[{"internalType":"uint256","name":"top","type":"uint256"},{"internalType":"uint256","name":"dur","type":"uint256"}],"name":"price","outputs":[{"internalType":"uint256","name":"","type":"uint256"}],"stateMutability":"view","type":"function"},{"inputs":[{"internalType":"address","name":"usr","type":"address"}],"name":"rely","outputs":[],"stateMutability":"nonpayable","type":"function"},{"inputs":[],"name":"step","outputs":[{"internalType":"uint256","name":"","type":"uint256"}],"stateMutability":"view","type":"function"},{"inputs":[{"internalType":"address","name":"","type":"address"}],"name":"wards","outputs":[{"internalType":"uint256","name":"","type":"uint256"}],"stateMutability":"view","type":"function"}],"evm":{"bytecode":{"linkReferences":{},"object":"6080806040523461003d57336000526000602052600160406000205561012c6001556b03370b7214c67f98c300000060025561058990816100438239f35b600080fdfe6040608081526004908136101561001557600080fd5b600091823560e01c90816329ae8114146101b3578163487a23951461018657816365fae35e1461013b578382639c52a7f1146100ee57508163bf353dbb146100b157508063e25fe175146100935763e6fd604c1461007257600080fd5b3461008f578160031936011261008f576020906002549051908152f35b5080fd5b503461008f578160031936011261008f576020906001549051908152f35b9050346100ea5760203660031901126100ea57356001600160a01b038116908190036100ea578282916020945280845220549051908152f35b8280fd5b9291503461013757602036600319011261013757356001600160a01b03811690819003610137573383528260205261012b60018385205414610331565b82528160205281205580f35b5050fd5b9050346100ea5760203660031901126100ea57356001600160a01b03811691908290036100ea576001913384528360205261017a838386205414610331565b83528260205282205580f35b8284346101b057816003193601126101b057506101a960209260243590356103b1565b9051908152f35b80fd5b9050346100ea57816003193601126100ea5780359160243592338552846020526101e260018387205414610331565b6218dd5d60ea1b810361026157506b033b2e3c9fd0803ce800000083101561020c57505060025580f35b906020608492519162461bcd60e51b8352820152602960248201527f5374616972737465704578706f6e656e7469616c44656372656173652f63757460448201526805ae8dede5ad0d2ced60bb1b6064820152fd5b630737465760e41b036102d157821561027c57505060015580f35b906020608492519162461bcd60e51b8352820152602960248201527f5374616972737465704578706f6e656e7469616c44656372656173652f737465604482015268702d746f6f2d6c6f7760b81b6064820152fd5b906020608492519162461bcd60e51b8352820152603460248201527f5374616972737465704578706f6e656e7469616c44656372656173652f66696c604482015273652d756e7265636f676e697a65642d706172616d60601b6064820152fd5b1561033857565b60405162461bcd60e51b815260206004820152602b60248201527f5374616972737465704578706f6e656e7469616c44656372656173652f6e6f7460448201526a0b585d5d1a1bdc9a5e995960aa1b6064820152608490fd5b811561039b570490565b634e487b7160e01b600052601260045260246000fd5b60018054909392811561043d57906103c891610391565b90811561043857600254938281161561042657845b92811c94855b6103f75750506103f4929350610446565b90565b8061040191610446565b9485828216610415575b50811c94856103e3565b61041f9194610446565b928561040b565b6b033b2e3c9fd0803ce80000006103dd565b925050565b50600093505050565b906000918115918215610518575b5050156104dc576b019d971e4fe8401e740000008101908181116104c657811061048a576b033b2e3c9fd0803ce8000000900490565b60405162461bcd60e51b815260206004820152601460248201527364732d6d6174682d6164642d6f766572666c6f7760601b6044820152606490fd5b634e487b7160e01b600052601160045260246000fd5b60405162461bcd60e51b815260206004820152601460248201527364732d6d6174682d6d756c2d6f766572666c6f7760601b6044820152606490fd5b8181929350029282840482148315171561053f57506105379083610391565b143880610454565b634e487b7160e01b81526011600452602490fdfea2646970667358221220c92ff80bc7d803c74c953a0e34060f2adb0f3f9542a0442ad080b0fe57ec248f64736f6c63430008130033","opcodes":"PUSH1 0x80 DUP1 PUSH1 0x40 MSTORE CALLVALUE PUSH2 0x3D JUMPI CALLER PUSH1 0x0 MSTORE PUSH1 0x0 PUSH1 0x20 MSTORE PUSH1 0x1 PUSH1 0x40 PUSH1 0x0 KECCAK256 SSTORE PUSH2 0x12C PUSH1 0x1 SSTORE PUSH12 0x3370B7214C67F98C3000000 PUSH1 0x2 SSTORE PUSH2 0x589 SWAP1 DUP2 PUSH2 0x43 DUP3 CODECOPY RETURN JUMPDEST PUSH1 0x0 DUP1 REVERT INVALID PUSH1 0x40 PUSH1 0x80 DUP2 MSTORE PUSH1 0x4 SWAP1 DUP2 CALLDATASIZE LT ISZERO PUSH2 0x15 JUMPI PUSH1 0x0 DUP1 REVERT JUMPDEST PUSH1 0x0 SWAP2 DUP3 CALLDATALOAD PUSH1 0xE0 SHR SWAP1 DUP2 PUSH4 0x29AE8114 EQ PUSH2 0x1B3 JUMPI DUP2 PUSH4 0x487A2395 EQ PUSH2 0x186 JUMPI DUP2 PUSH4 0x65FAE35E EQ PUSH2 0x13B JUMPI DUP4 DUP3 PUSH4 0x9C52A7F1 EQ PUSH2 0xEE JUMPI POP DUP2 PUSH4 0xBF353DBB EQ PUSH2 0xB1 JUMPI POP DUP1 PUSH4 0xE25FE175 EQ PUSH2 0x93 JUMPI PUSH4 0xE6FD604C EQ PUSH2 0x72 JUMPI PUSH1 0x0 DUP1 REVERT JUMPDEST CALLVALUE PUSH2 0x8F JUMPI DUP2 PUSH1 0x3 NOT CALLDATASIZE ADD SLT PUSH2 0x8F JUMPI PUSH1 0x20 SWAP1 PUSH1 0x2 SLOAD SWAP1 MLOAD SWAP1 DUP2 MSTORE RETURN JUMPDEST POP DUP1 REVERT JUMPDEST POP CALLVALUE PUSH2 0x8F JUMPI DUP2 PUSH1 0x3 NOT CALLDATASIZE ADD SLT PUSH2 0x8F JUMPI PUSH1 0x20 SWAP1 PUSH1 0x1 SLOAD SWAP1 MLOAD SWAP1 DUP2 MSTORE RETURN JUMPDEST SWAP1 POP CALLVALUE PUSH2 0xEA JUMPI PUSH1 0x20 CALLDATASIZE PUSH1 0x3 NOT ADD SLT PUSH2 0xEA JUMPI CALLDATALOAD PUSH1 0x1 PUSH1 0x1 PUSH1 0xA0 SHL SUB DUP2 AND SWAP1 DUP2 SWAP1 SUB PUSH2 0xEA JUMPI DUP3 DUP3 SWAP2 PUSH1 0x20 SWAP5 MSTORE DUP1 DUP5 MSTORE KECCAK256 SLOAD SWAP1 MLOAD SWAP1 DUP2 MSTORE RETURN JUMPDEST DUP3 DUP1 REVERT JUMPDEST SWAP3 SWAP2 POP CALLVALUE PUSH2 0x137 JUMPI PUSH1 0x20 CALLDATASIZE PUSH1 0x3 NOT ADD SLT PUSH2 0x137 JUMPI CALLDATALOAD PUSH1 0x1 PUSH1 0x1 PUSH1 0xA0 SHL SUB DUP2 AND SWAP1 DUP2 SWAP1 SUB PUSH2 0x137 JUMPI CALLER DUP4 MSTORE DUP3 PUSH1 0x20 MSTORE PUSH2 0x12B PUSH1 0x1 DUP4 DUP6 KECCAK256 SLOAD EQ PUSH2 0x331 JUMP JUMPDEST DUP3 MSTORE DUP2 PUSH1 0x20 MSTORE DUP2 KECCAK256 SSTORE DUP1 RETURN JUMPDEST POP POP REVERT JUMPDEST SWAP1 POP CALLVALUE PUSH2 0xEA JUMPI PUSH1 0x20 CALLDATASIZE PUSH1 0x3 NOT ADD SLT PUSH2 0xEA JUMPI CALLDATALOAD PUSH1 0x1 PUSH1 0x1 PUSH1 0xA0 SHL SUB DUP2 AND SWAP2 SWAP1 DUP3 SWAP1 SUB PUSH2 0xEA JUMPI PUSH1 0x1 SWAP2 CALLER DUP5 MSTORE DUP4 PUSH1 0x20 MSTORE PUSH2 0x17A DUP4 DUP4 DUP7 KECCAK256 SLOAD EQ PUSH2 0x331 JUMP JUMPDEST DUP4 MSTORE DUP3 PUSH1 0x20 MSTORE DUP3 KECCAK256 SSTORE DUP1 RETURN JUMPDEST DUP3 DUP5 CALLVALUE PUSH2 0x1B0 JUMPI DUP2 PUSH1 0x3 NOT CALLDATASIZE ADD SLT PUSH2 0x1B0 JUMPI POP PUSH2 0x1A9 PUSH1 0x20 SWAP3 PUSH1 0x24 CALLDATALOAD SWAP1 CALLDATALOAD PUSH2 0x3B1 JUMP JUMPDEST SWAP1 MLOAD SWAP1 DUP2 MSTORE RETURN JUMPDEST DUP1 REVERT JUMPDEST SWAP1 POP CALLVALUE PUSH2 0xEA JUMPI DUP2 PUSH1 0x3 NOT CALLDATASIZE ADD SLT PUSH2 0xEA JUMPI DUP1 CALLDATALOAD SWAP2 PUSH1 0x24 CALLDATALOAD SWAP3 CALLER DUP6 MSTORE DUP5 PUSH1 0x20 MSTORE PUSH2 0x1E2 PUSH1 0x1 DUP4 DUP8 KECCAK256 SLOAD EQ PUSH2 0x331 JUMP JUMPDEST PUSH3 0x18DD5D PUSH1 0xEA SHL DUP2 SUB PUSH2 0x261 JUMPI POP PUSH12 0x33B2E3C9FD0803CE8000000 DUP4 LT ISZERO PUSH2 0x20C JUMPI POP POP PUSH1 0x2 SSTORE DUP1 RETURN JUMPDEST SWAP1 PUSH1 0x20 PUSH1 0x84 SWAP3 MLOAD SWAP2 PUSH3 0x461BCD PUSH1 0xE5 SHL DUP4 MSTORE DUP3 ADD MSTORE PUSH1 0x29 PUSH1 0x24 DUP3 ADD MSTORE PUSH32 0x5374616972737465704578706F6E656E7469616C44656372656173652F637574 PUSH1 0x44 DUP3 ADD MSTORE PUSH9 0x5AE8DEDE5AD0D2CED PUSH1 0xBB SHL PUSH1 0x64 DUP3 ADD MSTORE REVERT JUMPDEST PUSH4 0x7374657 PUSH1 0xE4 SHL SUB PUSH2 0x2D1 JUMPI DUP3 ISZERO PUSH2 0x27C JUMPI POP POP PUSH1 0x1 SSTORE DUP1 RETURN JUMPDEST SWAP1 PUSH1 0x20 PUSH1 0x84 SWAP3 MLOAD SWAP2 PUSH3 0x461BCD PUSH1 0xE5 SHL DUP4 MSTORE DUP3 ADD MSTORE PUSH1 0x29 PUSH1 0x24 DUP3 ADD MSTORE PUSH32 0x5374616972737465704578706F6E656E7469616C44656372656173652F737465 PUSH1 0x44 DUP3 ADD MSTORE PUSH9 0x702D746F6F2D6C6F77 PUSH1 0xB8 SHL PUSH1 0x64 DUP3 ADD MSTORE REVERT JUMPDEST SWAP1 PUSH1 0x20 PUSH1 0x84 SWAP3 MLOAD SWAP2 PUSH3 0x461BCD PUSH1 0xE5 SHL DUP4 MSTORE DUP3 ADD MSTORE PUSH1 0x34 PUSH1 0x24 DUP3 ADD MSTORE PUSH32 0x5374616972737465704578706F6E656E7469616C44656372656173652F66696C PUSH1 0x44 DUP3 ADD MSTORE PUSH20 0x652D756E7265636F676E697A65642D706172616D PUSH1 0x60 SHL PUSH1 0x64 DUP3 ADD MSTORE REVERT JUMPDEST ISZERO PUSH2 0x338 JUMPI JUMP JUMPDEST PUSH1 0x40 MLOAD PUSH3 0x461BCD PUSH1 0xE5 SHL DUP2 MSTORE PUSH1 0x20 PUSH1 0x4 DUP3 ADD MSTORE PUSH1 0x2B PUSH1 0x24 DUP3 ADD MSTORE PUSH32 0x5374616972737465704578706F6E656E7469616C44656372656173652F6E6F74 PUSH1 0x44 DUP3 ADD MSTORE PUSH11 0xB585D5D1A1BDC9A5E9959 PUSH1 0xAA SHL PUSH1 0x64 DUP3 ADD MSTORE PUSH1 0x84 SWAP1 REVERT JUMPDEST DUP2 ISZERO PUSH2 0x39B JUMPI DIV SWAP1 JUMP JUMPDEST PUSH4 0x4E487B71 PUSH1 0xE0 SHL PUSH1 0x0 MSTORE PUSH1 0x12 PUSH1 0x4 MSTORE PUSH1 0x24 PUSH1 0x0 REVERT JUMPDEST PUSH1 0x1 DUP1 SLOAD SWAP1 SWAP4 SWAP3 DUP2 ISZERO PUSH2 0x43D JUMPI SWAP1 PUSH2 0x3C8 SWAP2 PUSH2 0x391 JUMP JUMPDEST SWAP1 DUP2 ISZERO PUSH2 0x438 JUMPI PUSH1 0x2 SLOAD SWAP4 DUP3 DUP2 AND ISZERO PUSH2 0x426 JUMPI DUP5 JUMPDEST SWAP3 DUP2 SHR SWAP5 DUP6 JUMPDEST PUSH2 0x3F7 JUMPI POP POP PUSH2 0x3F4 SWAP3 SWAP4 POP PUSH2 0x446 JUMP JUMPDEST SWAP1 JUMP JUMPDEST DUP1 PUSH2 0x401 SWAP2 PUSH2 0x446 JUMP JUMPDEST SWAP5 DUP6 DUP3 DUP3 AND PUSH2 0x415 JUMPI JUMPDEST POP DUP2 SHR SWAP5 DUP6 PUSH2 0x3E3 JUMP JUMPDEST PUSH2 0x41F SWAP2 SWAP5 PUSH2 0x446 JUMP JUMPDEST SWAP3 DUP6 PUSH2 0x40B JUMP JUMPDEST PUSH12 0x33B2E3C9FD0803CE8000000 PUSH2 0x3DD JUMP JUMPDEST SWAP3 POP POP JUMP JUMPDEST POP PUSH1 0x0 SWAP4 POP POP POP JUMP JUMPDEST SWAP1 PUSH1 0x0 SWAP2 DUP2 ISZERO SWAP2 DUP3 ISZERO PUSH2 0x518 JUMPI JUMPDEST POP POP ISZERO PUSH2 0x4DC JUMPI PUSH12 0x19D971E4FE8401E74000000 DUP2 ADD SWAP1 DUP2 DUP2 GT PUSH2 0x4C6 JUMPI DUP2 LT PUSH2 0x48A JUMPI PUSH12 0x33B2E3C9FD0803CE8000000 SWAP1 DIV SWAP1 JUMP JUMPDEST PUSH1 0x40 MLOAD PUSH3 0x461BCD PUSH1 0xE5 SHL DUP2 MSTORE PUSH1 0x20 PUSH1 0x4 DUP3 ADD MSTORE PUSH1 0x14 PUSH1 0x24 DUP3 ADD MSTORE PUSH20 0x64732D6D6174682D6164642D6F766572666C6F77 PUSH1 0x60 SHL PUSH1 0x44 DUP3 ADD MSTORE PUSH1 0x64 SWAP1 REVERT JUMPDEST PUSH4 0x4E487B71 PUSH1 0xE0 SHL PUSH1 0x0 MSTORE PUSH1 0x11 PUSH1 0x4 MSTORE PUSH1 0x24 PUSH1 0x0 REVERT JUMPDEST PUSH1 0x40 MLOAD PUSH3 0x461BCD PUSH1 0xE5 SHL DUP2 MSTORE PUSH1 0x20 PUSH1 0x4 DUP3 ADD MSTORE PUSH1 0x14 PUSH1 0x24 DUP3 ADD MSTORE PUSH20 0x64732D6D6174682D6D756C2D6F766572666C6F77 PUSH1 0x60 SHL PUSH1 0x44 DUP3 ADD MSTORE PUSH1 0x64 SWAP1 REVERT JUMPDEST DUP2 DUP2 SWAP3 SWAP4 POP MUL SWAP3 DUP3 DUP5 DIV DUP3 EQ DUP4 ISZERO OR ISZERO PUSH2 0x53F JUMPI POP PUSH2 0x537 SWAP1 DUP4 PUSH2 0x391 JUMP JUMPDEST EQ CODESIZE DUP1 PUSH2 0x454 JUMP JUMPDEST PUSH4 0x4E487B71 PUSH1 0xE0 SHL DUP2 MSTORE PUSH1 0x11 PUSH1 0x4 MSTORE PUSH1 0x24 SWAP1 REVERT INVALID LOG2 PUSH5 0x6970667358 0x22 SLT KECCAK256 0xC9 0x2F 0xF8 SIGNEXTEND 0xC7 0xD8 SUB 0xC7 0x4C SWAP6 GASPRICE 0xE CALLVALUE MOD 0xF 0x2A 0xDB 0xF EXTCODEHASH SWAP6 TIMESTAMP LOG0 PREVRANDAO 0x2A 0xD0 DUP1 0xB0 INVALID JUMPI 0xEC 0x24 DUP16 PUSH5 0x736F6C6343 STOP ADDMOD SGT STOP CALLER "},"methodIdentifiers":{"cut()":"e6fd604c","deny(address)":"9c52a7f1","file(bytes32,uint256)":"29ae8114","price(uint256,uint256)":"487a2395","rely(address)":"65fae35e","step()":"e25fe175","wards(address)":"bf353dbb"}}}}}