{"contracts/Jug.sol":{"Jug":{"abi":[{"inputs":[{"internalType":"address","name":"vat_","type":"address"}],"stateMutability":"nonpayable","type":"constructor"},{"anonymous":false,"inputs":[{"indexed":true,"internalType":"bytes32","name":"ilk","type":"bytes32"},{"indexed":false,"internalType":"uint256","name":"rate","type":"uint256"}],"name":"Drip","type":"event"},{"anonymous":false,"inputs":[{"indexed":true,"internalType":"bytes32","name":"what","type":"bytes32"},{"indexed":false,"internalType":"uint256","name":"data","type":"uint256"}],"name":"File","type":"event"},{"anonymous":false,"inputs":[{"indexed":true,"internalType":"bytes32","name":"ilk","type":"bytes32"},{"indexed":true,"internalType":"bytes32","name":"what","type":"bytes32"},{"indexed":false,"internalType":"uint256","name":"data","type":"uint256"}],"name":"File","type":"event"},{"anonymous":false,"inputs":[{"indexed":true,"internalType":"bytes32","name":"what","type":"bytes32"},{"indexed":false,"internalType":"address","name":"data","type":"address"}],"name":"File","type":"event"},{"anonymous":false,"inputs":[{"indexed":true,"internalType":"bytes32","name":"ilk","type":"bytes32"}],"name":"Init","type":"event"},{"inputs":[],"name":"base","outputs":[{"internalType":"uint256","name":"","type":"uint256"}],"stateMutability":"view","type":"function"},{"inputs":[],"name":"cage","outputs":[],"stateMutability":"nonpayable","type":"function"},{"inputs":[{"internalType":"address","name":"usr","type":"address"}],"name":"deny","outputs":[],"stateMutability":"nonpayable","type":"function"},{"inputs":[{"internalType":"bytes32","name":"ilk","type":"bytes32"}],"name":"drip","outputs":[{"internalType":"uint256","name":"rate","type":"uint256"}],"stateMutability":"nonpayable","type":"function"},{"inputs":[{"internalType":"bytes32","name":"ilk","type":"bytes32"}],"name":"duty","outputs":[{"internalType":"uint256","name":"","type":"uint256"}],"stateMutability":"view","type":"function"},{"inputs":[{"internalType":"bytes32","name":"ilk","type":"bytes32"},{"internalType":"bytes32","name":"what","type":"bytes32"},{"internalType":"uint256","name":"data","type":"uint256"}],"name":"file","outputs":[],"stateMutability":"nonpayable","type":"function"},{"inputs":[{"internalType":"bytes32","name":"what","type":"bytes32"},{"internalType":"uint256","name":"data","type":"uint256"}],"name":"file","outputs":[],"stateMutability":"nonpayable","type":"function"},{"inputs":[{"internalType":"bytes32","name":"what","type":"bytes32"},{"internalType":"address","name":"data","type":"address"}],"name":"file","outputs":[],"stateMutability":"nonpayable","type":"function"},{"inputs":[{"internalType":"bytes32","name":"","type":"bytes32"}],"name":"ilks","outputs":[{"internalType":"uint256","name":"duty","type":"uint256"},{"internalType":"uint256","name":"rho","type":"uint256"}],"stateMutability":"view","type":"function"},{"inputs":[{"internalType":"bytes32","name":"ilk","type":"bytes32"}],"name":"init","outputs":[],"stateMutability":"nonpayable","type":"function"},{"inputs":[],"name":"live","outputs":[{"internalType":"uint256","name":"","type":"uint256"}],"stateMutability":"view","type":"function"},{"inputs":[{"internalType":"address","name":"usr","type":"address"}],"name":"rely","outputs":[],"stateMutability":"nonpayable","type":"function"},{"inputs":[{"internalType":"bytes32","name":"ilk","type":"bytes32"}],"name":"rho","outputs":[{"internalType":"uint256","name":"","type":"uint256"}],"stateMutability":"view","type":"function"},{"inputs":[],"name":"vat","outputs":[{"internalType":"contract VatLike","name":"","type":"address"}],"stateMutability":"view","type":"function"},{"inputs":[],"name":"vow","outputs":[{"internalType":"address","name":"","type":"address"}],"stateMutability":"view","type":"function"},{"inputs":[{"internalType":"address","name":"","type":"address"}],"name":"wards","outputs":[{"internalType":"uint256","name":"","type":"uint256"}],"stateMutability":"view","type":"function"}],"evm":{"bytecode":{"linkReferences":{},"object":"60803461008657601f610c1738819003918201601f19168301916001600160401b0383118484101761008b5780849260209460405283398101031261008657516001600160a01b0381169081900361008657336000526000602052600160406000205560018060a01b031960025416176002556001600555604051610b7590816100a28239f35b600080fd5b634e487b7160e01b600052604160045260246000fdfe6080604052600436101561001257600080fd5b60003560e01c80631a0b287e1461011757806329ae81141461011257806336569e771461010d5780633b6631951461010857806344e2a5a8146101035780635001f3b5146100fe57806360224e63146100f9578063626cb3c5146100f457806365fae35e146100ef57806369245009146100ea578063957aa58c146100e55780639c52a7f1146100e0578063bf353dbb146100db578063d4e8be83146100d6578063d9638d36146100d15763f436f9cb146100cc57600080fd5b6107bc565b610787565b6106ea565b6106b0565b610663565b610645565b610612565b6105c4565b61056f565b610543565b610525565b610348565b61029f565b610276565b6101ed565b346101e85760603660031901126101e857600435602435604435916000923384528360205261014c60016040862054146107eb565b61015a60016005541461082c565b636475747960e01b83036101a35760207f851aa1caf4888170ad8875449d18f0f512fd6deb2a6571ea1a41fb9f95acbcd19183865260018252806040872055604051908152a380f35b60405162461bcd60e51b815260206004820152601b60248201527f4a75672f66696c652d756e7265636f676e697a65642d706172616d00000000006044820152606490fd5b600080fd5b346101e85760403660031901126101e85760043560243533600052600060205261021e6001604060002054146107eb565b61022c60016005541461082c565b636261736560e01b82036101a3576020817fe986e40cc8c151830d4f61050f4fb2e4add8567caad2d5f5496f9158e91fe4c792600455604051908152a2005b60009103126101e857565b346101e85760003660031901126101e8576002546040516001600160a01b039091168152602090f35b346101e85760203660031901126101e857600435600090338252816020526102cd60016040842054146107eb565b808252600160205260016040832001805461030c574290557feeb45f27c5b399a603237b10d4803743d494bfc24c3a004cadb716c41033a5558280a280f35b60405162461bcd60e51b8152602060048201526014602482015273129d59cbda5b1acb585b1c9958591e4b5a5b9a5d60621b6044820152606490fd5b346101e85760203660031901126101e85760043561037f6001610375836000526001602052604060002090565b0154421015610867565b6002546001600160a01b0316604051636cb1c69b60e11b815260048101839052909160a082602481865afa9182156104eb576000926104f0575b5061040e826104096103e26004546103db866000526001602052604060002090565b5490610a80565b61040360016103fb876000526001602052604060002090565b01544261093a565b90610965565b610a94565b600354909290610428906001600160a01b0316918461094c565b843b156101e85760405163b65337df60e01b8152600481018490526001600160a01b039290921660248301526044820152926000908490606490829084905af19283156104eb576104ce936104d2575b50426001610490836000526001602052604060002090565b01556040518281527f2fbd8559330c6faf38d4ee435b8463427bd58cd6bc7edd1a4e6f3ab6b57de71e90602090a26040519081529081906020820190565b0390f35b806104df6104e5926108a5565b8061026b565b38610478565b610918565b61051291925060a03d811161051e575b61050a81836108cf565b8101906108f1565b505050905090386103b9565b503d610500565b346101e85760003660031901126101e8576020600454604051908152f35b346101e85760203660031901126101e85760043560005260016020526020604060002054604051908152f35b346101e85760003660031901126101e8576003546040516001600160a01b039091168152602090f35b600435906001600160a01b03821682036101e857565b602435906001600160a01b03821682036101e857565b346101e85760203660031901126101e8576105dd610598565b600090338252816020526105f760016040842054146107eb565b6001600160a01b031681526020819052604081206001905580f35b346101e857600080600319360112610642573381528060205261063b60016040832054146107eb565b8060055580f35b80fd5b346101e85760003660031901126101e8576020600554604051908152f35b346101e85760203660031901126101e85761067c610598565b6000903382528160205261069660016040842054146107eb565b6001600160a01b0316815260208190526040812081905580f35b346101e85760203660031901126101e8576001600160a01b036106d1610598565b1660005260006020526020604060002054604051908152f35b346101e85760403660031901126101e8576004356107066105ae565b3360005260006020526107206001604060002054146107eb565b61072e60016005541461082c565b62766f7760e81b82036101a357600380546001600160a01b0319166001600160a01b0390921691821790556040519081527f8fef588b5fc1afbf5b2f06c1a435d513f208da2e6704c3d8f0e0ec91167066ba90602090a2005b346101e85760203660031901126101e85760043560005260016020526040806000206001815491015482519182526020820152f35b346101e85760203660031901126101e85760043560005260016020526020600160406000200154604051908152f35b156107f257565b60405162461bcd60e51b8152602060048201526012602482015271129d59cbdb9bdd0b585d5d1a1bdc9a5e995960721b6044820152606490fd5b1561083357565b60405162461bcd60e51b815260206004820152600c60248201526b4a75672f6e6f742d6c69766560a01b6044820152606490fd5b1561086e57565b60405162461bcd60e51b815260206004820152600f60248201526e4a75672f696e76616c69642d6e6f7760881b6044820152606490fd5b67ffffffffffffffff81116108b957604052565b634e487b7160e01b600052604160045260246000fd5b90601f8019910116810190811067ffffffffffffffff8211176108b957604052565b908160a09103126101e8578051916020820151916040810151916080606083015192015190565b6040513d6000823e3d90fd5b634e487b7160e01b600052601160045260246000fd5b9190820391821161094757565b610924565b8181039291600013801582851316918412161761094757565b9091908015610a08576001838116156109f55781935b811c805b61098857505050565b82800292808404036101e8576b019d971e4fe8401e74000000928381019081106101e8576b033b2e3c9fd0803ce8000000809104938383166109cf575b5050811c8061097f565b848792939702918583041415851515166101e85781019081106101e857049338806109c5565b6b033b2e3c9fd0803ce80000009361097b565b509015610a1457600090565b6b033b2e3c9fd0803ce800000090565b906b019d971e4fe8401e74000000820191828111610947578210610a4457565b60405162461bcd60e51b815260206004820152601460248201527364732d6d6174682d6164642d6f766572666c6f7760601b6044820152606490fd5b9190820191828111610947578210610a4457565b906000918115918215610b06575b505015610aca57610ab5610ac791610a24565b6b033b2e3c9fd0803ce8000000900490565b90565b60405162461bcd60e51b815260206004820152601460248201527364732d6d6174682d6d756c2d6f766572666c6f7760601b6044820152606490fd5b81819293945002828104821483151715610947578093610b295704143880610aa2565b634e487b7160e01b600052601260045260246000fdfea2646970667358221220953409db3b9e687cf8235a24eea8cb4e35ec4851c7aaff41e9ee641354519eb864736f6c63430008130033","opcodes":"PUSH1 0x80 CALLVALUE PUSH2 0x86 JUMPI PUSH1 0x1F PUSH2 0xC17 CODESIZE DUP2 SWAP1 SUB SWAP2 DUP3 ADD PUSH1 0x1F NOT AND DUP4 ADD SWAP2 PUSH1 0x1 PUSH1 0x1 PUSH1 0x40 SHL SUB DUP4 GT DUP5 DUP5 LT OR PUSH2 0x8B JUMPI DUP1 DUP5 SWAP3 PUSH1 0x20 SWAP5 PUSH1 0x40 MSTORE DUP4 CODECOPY DUP2 ADD SUB SLT PUSH2 0x86 JUMPI MLOAD PUSH1 0x1 PUSH1 0x1 PUSH1 0xA0 SHL SUB DUP2 AND SWAP1 DUP2 SWAP1 SUB PUSH2 0x86 JUMPI CALLER PUSH1 0x0 MSTORE PUSH1 0x0 PUSH1 0x20 MSTORE PUSH1 0x1 PUSH1 0x40 PUSH1 0x0 KECCAK256 SSTORE PUSH1 0x1 DUP1 PUSH1 0xA0 SHL SUB NOT PUSH1 0x2 SLOAD AND OR PUSH1 0x2 SSTORE PUSH1 0x1 PUSH1 0x5 SSTORE PUSH1 0x40 MLOAD PUSH2 0xB75 SWAP1 DUP2 PUSH2 0xA2 DUP3 CODECOPY RETURN JUMPDEST PUSH1 0x0 DUP1 REVERT JUMPDEST PUSH4 0x4E487B71 PUSH1 0xE0 SHL PUSH1 0x0 MSTORE PUSH1 0x41 PUSH1 0x4 MSTORE PUSH1 0x24 PUSH1 0x0 REVERT INVALID PUSH1 0x80 PUSH1 0x40 MSTORE PUSH1 0x4 CALLDATASIZE LT ISZERO PUSH2 0x12 JUMPI PUSH1 0x0 DUP1 REVERT JUMPDEST PUSH1 0x0 CALLDATALOAD PUSH1 0xE0 SHR DUP1 PUSH4 0x1A0B287E EQ PUSH2 0x117 JUMPI DUP1 PUSH4 0x29AE8114 EQ PUSH2 0x112 JUMPI DUP1 PUSH4 0x36569E77 EQ PUSH2 0x10D JUMPI DUP1 PUSH4 0x3B663195 EQ PUSH2 0x108 JUMPI DUP1 PUSH4 0x44E2A5A8 EQ PUSH2 0x103 JUMPI DUP1 PUSH4 0x5001F3B5 EQ PUSH2 0xFE JUMPI DUP1 PUSH4 0x60224E63 EQ PUSH2 0xF9 JUMPI DUP1 PUSH4 0x626CB3C5 EQ PUSH2 0xF4 JUMPI DUP1 PUSH4 0x65FAE35E EQ PUSH2 0xEF JUMPI DUP1 PUSH4 0x69245009 EQ PUSH2 0xEA JUMPI DUP1 PUSH4 0x957AA58C EQ PUSH2 0xE5 JUMPI DUP1 PUSH4 0x9C52A7F1 EQ PUSH2 0xE0 JUMPI DUP1 PUSH4 0xBF353DBB EQ PUSH2 0xDB JUMPI DUP1 PUSH4 0xD4E8BE83 EQ PUSH2 0xD6 JUMPI DUP1 PUSH4 0xD9638D36 EQ PUSH2 0xD1 JUMPI PUSH4 0xF436F9CB EQ PUSH2 0xCC JUMPI PUSH1 0x0 DUP1 REVERT JUMPDEST PUSH2 0x7BC JUMP JUMPDEST PUSH2 0x787 JUMP JUMPDEST PUSH2 0x6EA JUMP JUMPDEST PUSH2 0x6B0 JUMP JUMPDEST PUSH2 0x663 JUMP JUMPDEST PUSH2 0x645 JUMP JUMPDEST PUSH2 0x612 JUMP JUMPDEST PUSH2 0x5C4 JUMP JUMPDEST PUSH2 0x56F JUMP JUMPDEST PUSH2 0x543 JUMP JUMPDEST PUSH2 0x525 JUMP JUMPDEST PUSH2 0x348 JUMP JUMPDEST PUSH2 0x29F JUMP JUMPDEST PUSH2 0x276 JUMP JUMPDEST PUSH2 0x1ED JUMP JUMPDEST CALLVALUE PUSH2 0x1E8 JUMPI PUSH1 0x60 CALLDATASIZE PUSH1 0x3 NOT ADD SLT PUSH2 0x1E8 JUMPI PUSH1 0x4 CALLDATALOAD PUSH1 0x24 CALLDATALOAD PUSH1 0x44 CALLDATALOAD SWAP2 PUSH1 0x0 SWAP3 CALLER DUP5 MSTORE DUP4 PUSH1 0x20 MSTORE PUSH2 0x14C PUSH1 0x1 PUSH1 0x40 DUP7 KECCAK256 SLOAD EQ PUSH2 0x7EB JUMP JUMPDEST PUSH2 0x15A PUSH1 0x1 PUSH1 0x5 SLOAD EQ PUSH2 0x82C JUMP JUMPDEST PUSH4 0x64757479 PUSH1 0xE0 SHL DUP4 SUB PUSH2 0x1A3 JUMPI PUSH1 0x20 PUSH32 0x851AA1CAF4888170AD8875449D18F0F512FD6DEB2A6571EA1A41FB9F95ACBCD1 SWAP2 DUP4 DUP7 MSTORE PUSH1 0x1 DUP3 MSTORE DUP1 PUSH1 0x40 DUP8 KECCAK256 SSTORE PUSH1 0x40 MLOAD SWAP1 DUP2 MSTORE LOG3 DUP1 RETURN JUMPDEST PUSH1 0x40 MLOAD PUSH3 0x461BCD PUSH1 0xE5 SHL DUP2 MSTORE PUSH1 0x20 PUSH1 0x4 DUP3 ADD MSTORE PUSH1 0x1B PUSH1 0x24 DUP3 ADD MSTORE PUSH32 0x4A75672F66696C652D756E7265636F676E697A65642D706172616D0000000000 PUSH1 0x44 DUP3 ADD MSTORE PUSH1 0x64 SWAP1 REVERT JUMPDEST PUSH1 0x0 DUP1 REVERT JUMPDEST CALLVALUE PUSH2 0x1E8 JUMPI PUSH1 0x40 CALLDATASIZE PUSH1 0x3 NOT ADD SLT PUSH2 0x1E8 JUMPI PUSH1 0x4 CALLDATALOAD PUSH1 0x24 CALLDATALOAD CALLER PUSH1 0x0 MSTORE PUSH1 0x0 PUSH1 0x20 MSTORE PUSH2 0x21E PUSH1 0x1 PUSH1 0x40 PUSH1 0x0 KECCAK256 SLOAD EQ PUSH2 0x7EB JUMP JUMPDEST PUSH2 0x22C PUSH1 0x1 PUSH1 0x5 SLOAD EQ PUSH2 0x82C JUMP JUMPDEST PUSH4 0x62617365 PUSH1 0xE0 SHL DUP3 SUB PUSH2 0x1A3 JUMPI PUSH1 0x20 DUP2 PUSH32 0xE986E40CC8C151830D4F61050F4FB2E4ADD8567CAAD2D5F5496F9158E91FE4C7 SWAP3 PUSH1 0x4 SSTORE PUSH1 0x40 MLOAD SWAP1 DUP2 MSTORE LOG2 STOP JUMPDEST PUSH1 0x0 SWAP2 SUB SLT PUSH2 0x1E8 JUMPI JUMP JUMPDEST CALLVALUE PUSH2 0x1E8 JUMPI PUSH1 0x0 CALLDATASIZE PUSH1 0x3 NOT ADD SLT PUSH2 0x1E8 JUMPI PUSH1 0x2 SLOAD PUSH1 0x40 MLOAD PUSH1 0x1 PUSH1 0x1 PUSH1 0xA0 SHL SUB SWAP1 SWAP2 AND DUP2 MSTORE PUSH1 0x20 SWAP1 RETURN JUMPDEST CALLVALUE PUSH2 0x1E8 JUMPI PUSH1 0x20 CALLDATASIZE PUSH1 0x3 NOT ADD SLT PUSH2 0x1E8 JUMPI PUSH1 0x4 CALLDATALOAD PUSH1 0x0 SWAP1 CALLER DUP3 MSTORE DUP2 PUSH1 0x20 MSTORE PUSH2 0x2CD PUSH1 0x1 PUSH1 0x40 DUP5 KECCAK256 SLOAD EQ PUSH2 0x7EB JUMP JUMPDEST DUP1 DUP3 MSTORE PUSH1 0x1 PUSH1 0x20 MSTORE PUSH1 0x1 PUSH1 0x40 DUP4 KECCAK256 ADD DUP1 SLOAD PUSH2 0x30C JUMPI TIMESTAMP SWAP1 SSTORE PUSH32 0xEEB45F27C5B399A603237B10D4803743D494BFC24C3A004CADB716C41033A555 DUP3 DUP1 LOG2 DUP1 RETURN JUMPDEST PUSH1 0x40 MLOAD PUSH3 0x461BCD PUSH1 0xE5 SHL DUP2 MSTORE PUSH1 0x20 PUSH1 0x4 DUP3 ADD MSTORE PUSH1 0x14 PUSH1 0x24 DUP3 ADD MSTORE PUSH20 0x129D59CBDA5B1ACB585B1C9958591E4B5A5B9A5D PUSH1 0x62 SHL PUSH1 0x44 DUP3 ADD MSTORE PUSH1 0x64 SWAP1 REVERT JUMPDEST CALLVALUE PUSH2 0x1E8 JUMPI PUSH1 0x20 CALLDATASIZE PUSH1 0x3 NOT ADD SLT PUSH2 0x1E8 JUMPI PUSH1 0x4 CALLDATALOAD PUSH2 0x37F PUSH1 0x1 PUSH2 0x375 DUP4 PUSH1 0x0 MSTORE PUSH1 0x1 PUSH1 0x20 MSTORE PUSH1 0x40 PUSH1 0x0 KECCAK256 SWAP1 JUMP JUMPDEST ADD SLOAD TIMESTAMP LT ISZERO PUSH2 0x867 JUMP JUMPDEST PUSH1 0x2 SLOAD PUSH1 0x1 PUSH1 0x1 PUSH1 0xA0 SHL SUB AND PUSH1 0x40 MLOAD PUSH4 0x6CB1C69B PUSH1 0xE1 SHL DUP2 MSTORE PUSH1 0x4 DUP2 ADD DUP4 SWAP1 MSTORE SWAP1 SWAP2 PUSH1 0xA0 DUP3 PUSH1 0x24 DUP2 DUP7 GAS STATICCALL SWAP2 DUP3 ISZERO PUSH2 0x4EB JUMPI PUSH1 0x0 SWAP3 PUSH2 0x4F0 JUMPI JUMPDEST POP PUSH2 0x40E DUP3 PUSH2 0x409 PUSH2 0x3E2 PUSH1 0x4 SLOAD PUSH2 0x3DB DUP7 PUSH1 0x0 MSTORE PUSH1 0x1 PUSH1 0x20 MSTORE PUSH1 0x40 PUSH1 0x0 KECCAK256 SWAP1 JUMP JUMPDEST SLOAD SWAP1 PUSH2 0xA80 JUMP JUMPDEST PUSH2 0x403 PUSH1 0x1 PUSH2 0x3FB DUP8 PUSH1 0x0 MSTORE PUSH1 0x1 PUSH1 0x20 MSTORE PUSH1 0x40 PUSH1 0x0 KECCAK256 SWAP1 JUMP JUMPDEST ADD SLOAD TIMESTAMP PUSH2 0x93A JUMP JUMPDEST SWAP1 PUSH2 0x965 JUMP JUMPDEST PUSH2 0xA94 JUMP JUMPDEST PUSH1 0x3 SLOAD SWAP1 SWAP3 SWAP1 PUSH2 0x428 SWAP1 PUSH1 0x1 PUSH1 0x1 PUSH1 0xA0 SHL SUB AND SWAP2 DUP5 PUSH2 0x94C JUMP JUMPDEST DUP5 EXTCODESIZE ISZERO PUSH2 0x1E8 JUMPI PUSH1 0x40 MLOAD PUSH4 0xB65337DF PUSH1 0xE0 SHL DUP2 MSTORE PUSH1 0x4 DUP2 ADD DUP5 SWAP1 MSTORE PUSH1 0x1 PUSH1 0x1 PUSH1 0xA0 SHL SUB SWAP3 SWAP1 SWAP3 AND PUSH1 0x24 DUP4 ADD MSTORE PUSH1 0x44 DUP3 ADD MSTORE SWAP3 PUSH1 0x0 SWAP1 DUP5 SWAP1 PUSH1 0x64 SWAP1 DUP3 SWAP1 DUP5 SWAP1 GAS CALL SWAP3 DUP4 ISZERO PUSH2 0x4EB JUMPI PUSH2 0x4CE SWAP4 PUSH2 0x4D2 JUMPI JUMPDEST POP TIMESTAMP PUSH1 0x1 PUSH2 0x490 DUP4 PUSH1 0x0 MSTORE PUSH1 0x1 PUSH1 0x20 MSTORE PUSH1 0x40 PUSH1 0x0 KECCAK256 SWAP1 JUMP JUMPDEST ADD SSTORE PUSH1 0x40 MLOAD DUP3 DUP2 MSTORE PUSH32 0x2FBD8559330C6FAF38D4EE435B8463427BD58CD6BC7EDD1A4E6F3AB6B57DE71E SWAP1 PUSH1 0x20 SWAP1 LOG2 PUSH1 0x40 MLOAD SWAP1 DUP2 MSTORE SWAP1 DUP2 SWAP1 PUSH1 0x20 DUP3 ADD SWAP1 JUMP JUMPDEST SUB SWAP1 RETURN JUMPDEST DUP1 PUSH2 0x4DF PUSH2 0x4E5 SWAP3 PUSH2 0x8A5 JUMP JUMPDEST DUP1 PUSH2 0x26B JUMP JUMPDEST CODESIZE PUSH2 0x478 JUMP JUMPDEST PUSH2 0x918 JUMP JUMPDEST PUSH2 0x512 SWAP2 SWAP3 POP PUSH1 0xA0 RETURNDATASIZE DUP2 GT PUSH2 0x51E JUMPI JUMPDEST PUSH2 0x50A DUP2 DUP4 PUSH2 0x8CF JUMP JUMPDEST DUP2 ADD SWAP1 PUSH2 0x8F1 JUMP JUMPDEST POP POP POP SWAP1 POP SWAP1 CODESIZE PUSH2 0x3B9 JUMP JUMPDEST POP RETURNDATASIZE PUSH2 0x500 JUMP JUMPDEST CALLVALUE PUSH2 0x1E8 JUMPI PUSH1 0x0 CALLDATASIZE PUSH1 0x3 NOT ADD SLT PUSH2 0x1E8 JUMPI PUSH1 0x20 PUSH1 0x4 SLOAD PUSH1 0x40 MLOAD SWAP1 DUP2 MSTORE RETURN JUMPDEST CALLVALUE PUSH2 0x1E8 JUMPI PUSH1 0x20 CALLDATASIZE PUSH1 0x3 NOT ADD SLT PUSH2 0x1E8 JUMPI PUSH1 0x4 CALLDATALOAD PUSH1 0x0 MSTORE PUSH1 0x1 PUSH1 0x20 MSTORE PUSH1 0x20 PUSH1 0x40 PUSH1 0x0 KECCAK256 SLOAD PUSH1 0x40 MLOAD SWAP1 DUP2 MSTORE RETURN JUMPDEST CALLVALUE PUSH2 0x1E8 JUMPI PUSH1 0x0 CALLDATASIZE PUSH1 0x3 NOT ADD SLT PUSH2 0x1E8 JUMPI PUSH1 0x3 SLOAD PUSH1 0x40 MLOAD PUSH1 0x1 PUSH1 0x1 PUSH1 0xA0 SHL SUB SWAP1 SWAP2 AND DUP2 MSTORE PUSH1 0x20 SWAP1 RETURN JUMPDEST PUSH1 0x4 CALLDATALOAD SWAP1 PUSH1 0x1 PUSH1 0x1 PUSH1 0xA0 SHL SUB DUP3 AND DUP3 SUB PUSH2 0x1E8 JUMPI JUMP JUMPDEST PUSH1 0x24 CALLDATALOAD SWAP1 PUSH1 0x1 PUSH1 0x1 PUSH1 0xA0 SHL SUB DUP3 AND DUP3 SUB PUSH2 0x1E8 JUMPI JUMP JUMPDEST CALLVALUE PUSH2 0x1E8 JUMPI PUSH1 0x20 CALLDATASIZE PUSH1 0x3 NOT ADD SLT PUSH2 0x1E8 JUMPI PUSH2 0x5DD PUSH2 0x598 JUMP JUMPDEST PUSH1 0x0 SWAP1 CALLER DUP3 MSTORE DUP2 PUSH1 0x20 MSTORE PUSH2 0x5F7 PUSH1 0x1 PUSH1 0x40 DUP5 KECCAK256 SLOAD EQ PUSH2 0x7EB JUMP JUMPDEST PUSH1 0x1 PUSH1 0x1 PUSH1 0xA0 SHL SUB AND DUP2 MSTORE PUSH1 0x20 DUP2 SWAP1 MSTORE PUSH1 0x40 DUP2 KECCAK256 PUSH1 0x1 SWAP1 SSTORE DUP1 RETURN JUMPDEST CALLVALUE PUSH2 0x1E8 JUMPI PUSH1 0x0 DUP1 PUSH1 0x3 NOT CALLDATASIZE ADD SLT PUSH2 0x642 JUMPI CALLER DUP2 MSTORE DUP1 PUSH1 0x20 MSTORE PUSH2 0x63B PUSH1 0x1 PUSH1 0x40 DUP4 KECCAK256 SLOAD EQ PUSH2 0x7EB JUMP JUMPDEST DUP1 PUSH1 0x5 SSTORE DUP1 RETURN JUMPDEST DUP1 REVERT JUMPDEST CALLVALUE PUSH2 0x1E8 JUMPI PUSH1 0x0 CALLDATASIZE PUSH1 0x3 NOT ADD SLT PUSH2 0x1E8 JUMPI PUSH1 0x20 PUSH1 0x5 SLOAD PUSH1 0x40 MLOAD SWAP1 DUP2 MSTORE RETURN JUMPDEST CALLVALUE PUSH2 0x1E8 JUMPI PUSH1 0x20 CALLDATASIZE PUSH1 0x3 NOT ADD SLT PUSH2 0x1E8 JUMPI PUSH2 0x67C PUSH2 0x598 JUMP JUMPDEST PUSH1 0x0 SWAP1 CALLER DUP3 MSTORE DUP2 PUSH1 0x20 MSTORE PUSH2 0x696 PUSH1 0x1 PUSH1 0x40 DUP5 KECCAK256 SLOAD EQ PUSH2 0x7EB JUMP JUMPDEST PUSH1 0x1 PUSH1 0x1 PUSH1 0xA0 SHL SUB AND DUP2 MSTORE PUSH1 0x20 DUP2 SWAP1 MSTORE PUSH1 0x40 DUP2 KECCAK256 DUP2 SWAP1 SSTORE DUP1 RETURN JUMPDEST CALLVALUE PUSH2 0x1E8 JUMPI PUSH1 0x20 CALLDATASIZE PUSH1 0x3 NOT ADD SLT PUSH2 0x1E8 JUMPI PUSH1 0x1 PUSH1 0x1 PUSH1 0xA0 SHL SUB PUSH2 0x6D1 PUSH2 0x598 JUMP JUMPDEST AND PUSH1 0x0 MSTORE PUSH1 0x0 PUSH1 0x20 MSTORE PUSH1 0x20 PUSH1 0x40 PUSH1 0x0 KECCAK256 SLOAD PUSH1 0x40 MLOAD SWAP1 DUP2 MSTORE RETURN JUMPDEST CALLVALUE PUSH2 0x1E8 JUMPI PUSH1 0x40 CALLDATASIZE PUSH1 0x3 NOT ADD SLT PUSH2 0x1E8 JUMPI PUSH1 0x4 CALLDATALOAD PUSH2 0x706 PUSH2 0x5AE JUMP JUMPDEST CALLER PUSH1 0x0 MSTORE PUSH1 0x0 PUSH1 0x20 MSTORE PUSH2 0x720 PUSH1 0x1 PUSH1 0x40 PUSH1 0x0 KECCAK256 SLOAD EQ PUSH2 0x7EB JUMP JUMPDEST PUSH2 0x72E PUSH1 0x1 PUSH1 0x5 SLOAD EQ PUSH2 0x82C JUMP JUMPDEST PUSH3 0x766F77 PUSH1 0xE8 SHL DUP3 SUB PUSH2 0x1A3 JUMPI PUSH1 0x3 DUP1 SLOAD PUSH1 0x1 PUSH1 0x1 PUSH1 0xA0 SHL SUB NOT AND PUSH1 0x1 PUSH1 0x1 PUSH1 0xA0 SHL SUB SWAP1 SWAP3 AND SWAP2 DUP3 OR SWAP1 SSTORE PUSH1 0x40 MLOAD SWAP1 DUP2 MSTORE PUSH32 0x8FEF588B5FC1AFBF5B2F06C1A435D513F208DA2E6704C3D8F0E0EC91167066BA SWAP1 PUSH1 0x20 SWAP1 LOG2 STOP JUMPDEST CALLVALUE PUSH2 0x1E8 JUMPI PUSH1 0x20 CALLDATASIZE PUSH1 0x3 NOT ADD SLT PUSH2 0x1E8 JUMPI PUSH1 0x4 CALLDATALOAD PUSH1 0x0 MSTORE PUSH1 0x1 PUSH1 0x20 MSTORE PUSH1 0x40 DUP1 PUSH1 0x0 KECCAK256 PUSH1 0x1 DUP2 SLOAD SWAP2 ADD SLOAD DUP3 MLOAD SWAP2 DUP3 MSTORE PUSH1 0x20 DUP3 ADD MSTORE RETURN JUMPDEST CALLVALUE PUSH2 0x1E8 JUMPI PUSH1 0x20 CALLDATASIZE PUSH1 0x3 NOT ADD SLT PUSH2 0x1E8 JUMPI PUSH1 0x4 CALLDATALOAD PUSH1 0x0 MSTORE PUSH1 0x1 PUSH1 0x20 MSTORE PUSH1 0x20 PUSH1 0x1 PUSH1 0x40 PUSH1 0x0 KECCAK256 ADD SLOAD PUSH1 0x40 MLOAD SWAP1 DUP2 MSTORE RETURN JUMPDEST ISZERO PUSH2 0x7F2 JUMPI JUMP JUMPDEST PUSH1 0x40 MLOAD PUSH3 0x461BCD PUSH1 0xE5 SHL DUP2 MSTORE PUSH1 0x20 PUSH1 0x4 DUP3 ADD MSTORE PUSH1 0x12 PUSH1 0x24 DUP3 ADD MSTORE PUSH18 0x129D59CBDB9BDD0B585D5D1A1BDC9A5E9959 PUSH1 0x72 SHL PUSH1 0x44 DUP3 ADD MSTORE PUSH1 0x64 SWAP1 REVERT JUMPDEST ISZERO PUSH2 0x833 JUMPI JUMP JUMPDEST PUSH1 0x40 MLOAD PUSH3 0x461BCD PUSH1 0xE5 SHL DUP2 MSTORE PUSH1 0x20 PUSH1 0x4 DUP3 ADD MSTORE PUSH1 0xC PUSH1 0x24 DUP3 ADD MSTORE PUSH12 0x4A75672F6E6F742D6C697665 PUSH1 0xA0 SHL PUSH1 0x44 DUP3 ADD MSTORE PUSH1 0x64 SWAP1 REVERT JUMPDEST ISZERO PUSH2 0x86E JUMPI JUMP JUMPDEST PUSH1 0x40 MLOAD PUSH3 0x461BCD PUSH1 0xE5 SHL DUP2 MSTORE PUSH1 0x20 PUSH1 0x4 DUP3 ADD MSTORE PUSH1 0xF PUSH1 0x24 DUP3 ADD MSTORE PUSH15 0x4A75672F696E76616C69642D6E6F77 PUSH1 0x88 SHL PUSH1 0x44 DUP3 ADD MSTORE PUSH1 0x64 SWAP1 REVERT JUMPDEST PUSH8 0xFFFFFFFFFFFFFFFF DUP2 GT PUSH2 0x8B9 JUMPI PUSH1 0x40 MSTORE JUMP JUMPDEST PUSH4 0x4E487B71 PUSH1 0xE0 SHL PUSH1 0x0 MSTORE PUSH1 0x41 PUSH1 0x4 MSTORE PUSH1 0x24 PUSH1 0x0 REVERT JUMPDEST SWAP1 PUSH1 0x1F DUP1 NOT SWAP2 ADD AND DUP2 ADD SWAP1 DUP2 LT PUSH8 0xFFFFFFFFFFFFFFFF DUP3 GT OR PUSH2 0x8B9 JUMPI PUSH1 0x40 MSTORE JUMP JUMPDEST SWAP1 DUP2 PUSH1 0xA0 SWAP2 SUB SLT PUSH2 0x1E8 JUMPI DUP1 MLOAD SWAP2 PUSH1 0x20 DUP3 ADD MLOAD SWAP2 PUSH1 0x40 DUP2 ADD MLOAD SWAP2 PUSH1 0x80 PUSH1 0x60 DUP4 ADD MLOAD SWAP3 ADD MLOAD SWAP1 JUMP JUMPDEST PUSH1 0x40 MLOAD RETURNDATASIZE PUSH1 0x0 DUP3 RETURNDATACOPY RETURNDATASIZE SWAP1 REVERT JUMPDEST PUSH4 0x4E487B71 PUSH1 0xE0 SHL PUSH1 0x0 MSTORE PUSH1 0x11 PUSH1 0x4 MSTORE PUSH1 0x24 PUSH1 0x0 REVERT JUMPDEST SWAP2 SWAP1 DUP3 SUB SWAP2 DUP3 GT PUSH2 0x947 JUMPI JUMP JUMPDEST PUSH2 0x924 JUMP JUMPDEST DUP2 DUP2 SUB SWAP3 SWAP2 PUSH1 0x0 SGT DUP1 ISZERO DUP3 DUP6 SGT AND SWAP2 DUP5 SLT AND OR PUSH2 0x947 JUMPI JUMP JUMPDEST SWAP1 SWAP2 SWAP1 DUP1 ISZERO PUSH2 0xA08 JUMPI PUSH1 0x1 DUP4 DUP2 AND ISZERO PUSH2 0x9F5 JUMPI DUP2 SWAP4 JUMPDEST DUP2 SHR DUP1 JUMPDEST PUSH2 0x988 JUMPI POP POP POP JUMP JUMPDEST DUP3 DUP1 MUL SWAP3 DUP1 DUP5 DIV SUB PUSH2 0x1E8 JUMPI PUSH12 0x19D971E4FE8401E74000000 SWAP3 DUP4 DUP2 ADD SWAP1 DUP2 LT PUSH2 0x1E8 JUMPI PUSH12 0x33B2E3C9FD0803CE8000000 DUP1 SWAP2 DIV SWAP4 DUP4 DUP4 AND PUSH2 0x9CF JUMPI JUMPDEST POP POP DUP2 SHR DUP1 PUSH2 0x97F JUMP JUMPDEST DUP5 DUP8 SWAP3 SWAP4 SWAP8 MUL SWAP2 DUP6 DUP4 DIV EQ ISZERO DUP6 ISZERO ISZERO AND PUSH2 0x1E8 JUMPI DUP2 ADD SWAP1 DUP2 LT PUSH2 0x1E8 JUMPI DIV SWAP4 CODESIZE DUP1 PUSH2 0x9C5 JUMP JUMPDEST PUSH12 0x33B2E3C9FD0803CE8000000 SWAP4 PUSH2 0x97B JUMP JUMPDEST POP SWAP1 ISZERO PUSH2 0xA14 JUMPI PUSH1 0x0 SWAP1 JUMP JUMPDEST PUSH12 0x33B2E3C9FD0803CE8000000 SWAP1 JUMP JUMPDEST SWAP1 PUSH12 0x19D971E4FE8401E74000000 DUP3 ADD SWAP2 DUP3 DUP2 GT PUSH2 0x947 JUMPI DUP3 LT PUSH2 0xA44 JUMPI JUMP JUMPDEST PUSH1 0x40 MLOAD PUSH3 0x461BCD PUSH1 0xE5 SHL DUP2 MSTORE PUSH1 0x20 PUSH1 0x4 DUP3 ADD MSTORE PUSH1 0x14 PUSH1 0x24 DUP3 ADD MSTORE PUSH20 0x64732D6D6174682D6164642D6F766572666C6F77 PUSH1 0x60 SHL PUSH1 0x44 DUP3 ADD MSTORE PUSH1 0x64 SWAP1 REVERT JUMPDEST SWAP2 SWAP1 DUP3 ADD SWAP2 DUP3 DUP2 GT PUSH2 0x947 JUMPI DUP3 LT PUSH2 0xA44 JUMPI JUMP JUMPDEST SWAP1 PUSH1 0x0 SWAP2 DUP2 ISZERO SWAP2 DUP3 ISZERO PUSH2 0xB06 JUMPI JUMPDEST POP POP ISZERO PUSH2 0xACA JUMPI PUSH2 0xAB5 PUSH2 0xAC7 SWAP2 PUSH2 0xA24 JUMP JUMPDEST PUSH12 0x33B2E3C9FD0803CE8000000 SWAP1 DIV SWAP1 JUMP JUMPDEST SWAP1 JUMP JUMPDEST PUSH1 0x40 MLOAD PUSH3 0x461BCD PUSH1 0xE5 SHL DUP2 MSTORE PUSH1 0x20 PUSH1 0x4 DUP3 ADD MSTORE PUSH1 0x14 PUSH1 0x24 DUP3 ADD MSTORE PUSH20 0x64732D6D6174682D6D756C2D6F766572666C6F77 PUSH1 0x60 SHL PUSH1 0x44 DUP3 ADD MSTORE PUSH1 0x64 SWAP1 REVERT JUMPDEST DUP2 DUP2 SWAP3 SWAP4 SWAP5 POP MUL DUP3 DUP2 DIV DUP3 EQ DUP4 ISZERO OR ISZERO PUSH2 0x947 JUMPI DUP1 SWAP4 PUSH2 0xB29 JUMPI DIV EQ CODESIZE DUP1 PUSH2 0xAA2 JUMP JUMPDEST PUSH4 0x4E487B71 PUSH1 0xE0 SHL PUSH1 0x0 MSTORE PUSH1 0x12 PUSH1 0x4 MSTORE PUSH1 0x24 PUSH1 0x0 REVERT INVALID LOG2 PUSH5 0x6970667358 0x22 SLT KECCAK256 SWAP6 CALLVALUE MULMOD 0xDB EXTCODESIZE SWAP15 PUSH9 0x7CF8235A24EEA8CB4E CALLDATALOAD 0xEC BASEFEE MLOAD 0xC7 0xAA SELFDESTRUCT COINBASE 0xE9 0xEE PUSH5 0x1354519EB8 PUSH5 0x736F6C6343 STOP ADDMOD SGT STOP CALLER "},"methodIdentifiers":{"base()":"5001f3b5","cage()":"69245009","deny(address)":"9c52a7f1","drip(bytes32)":"44e2a5a8","duty(bytes32)":"60224e63","file(bytes32,address)":"d4e8be83","file(bytes32,bytes32,uint256)":"1a0b287e","file(bytes32,uint256)":"29ae8114","ilks(bytes32)":"d9638d36","init(bytes32)":"3b663195","live()":"957aa58c","rely(address)":"65fae35e","rho(bytes32)":"f436f9cb","vat()":"36569e77","vow()":"626cb3c5","wards(address)":"bf353dbb"}}}}}