{"contracts/Dog.sol":{"Dog":{"abi":[{"inputs":[{"internalType":"address","name":"vat_","type":"address"}],"stateMutability":"nonpayable","type":"constructor"},{"anonymous":false,"inputs":[{"indexed":true,"internalType":"bytes32","name":"ilk","type":"bytes32"},{"indexed":true,"internalType":"address","name":"urn","type":"address"},{"indexed":false,"internalType":"uint256","name":"ink","type":"uint256"},{"indexed":false,"internalType":"uint256","name":"art","type":"uint256"},{"indexed":false,"internalType":"uint256","name":"due","type":"uint256"},{"indexed":false,"internalType":"address","name":"clip","type":"address"},{"indexed":true,"internalType":"uint256","name":"id","type":"uint256"}],"name":"Bark","type":"event"},{"inputs":[],"name":"Dirt","outputs":[{"internalType":"uint256","name":"","type":"uint256"}],"stateMutability":"view","type":"function"},{"inputs":[],"name":"Hole","outputs":[{"internalType":"uint256","name":"","type":"uint256"}],"stateMutability":"view","type":"function"},{"inputs":[{"internalType":"bytes32","name":"ilk","type":"bytes32"},{"internalType":"address","name":"urn","type":"address"},{"internalType":"address","name":"kpr","type":"address"}],"name":"bark","outputs":[{"internalType":"uint256","name":"id","type":"uint256"}],"stateMutability":"nonpayable","type":"function"},{"inputs":[],"name":"cage","outputs":[],"stateMutability":"nonpayable","type":"function"},{"inputs":[{"internalType":"bytes32","name":"ilk","type":"bytes32"}],"name":"cage","outputs":[],"stateMutability":"nonpayable","type":"function"},{"inputs":[{"internalType":"bytes32","name":"ilk","type":"bytes32"}],"name":"chop","outputs":[{"internalType":"uint256","name":"","type":"uint256"}],"stateMutability":"view","type":"function"},{"inputs":[{"internalType":"address","name":"usr","type":"address"}],"name":"deny","outputs":[],"stateMutability":"nonpayable","type":"function"},{"inputs":[{"internalType":"bytes32","name":"ilk","type":"bytes32"},{"internalType":"uint256","name":"rad","type":"uint256"}],"name":"digs","outputs":[],"stateMutability":"nonpayable","type":"function"},{"inputs":[{"internalType":"bytes32","name":"ilk","type":"bytes32"},{"internalType":"bytes32","name":"what","type":"bytes32"},{"internalType":"uint256","name":"data","type":"uint256"}],"name":"file","outputs":[],"stateMutability":"nonpayable","type":"function"},{"inputs":[{"internalType":"bytes32","name":"what","type":"bytes32"},{"internalType":"uint256","name":"data","type":"uint256"}],"name":"file","outputs":[],"stateMutability":"nonpayable","type":"function"},{"inputs":[{"internalType":"bytes32","name":"what","type":"bytes32"},{"internalType":"address","name":"data","type":"address"}],"name":"file","outputs":[],"stateMutability":"nonpayable","type":"function"},{"inputs":[{"internalType":"bytes32","name":"ilk","type":"bytes32"},{"internalType":"bytes32","name":"what","type":"bytes32"},{"internalType":"address","name":"clip","type":"address"}],"name":"file","outputs":[],"stateMutability":"nonpayable","type":"function"},{"inputs":[{"internalType":"bytes32","name":"","type":"bytes32"}],"name":"ilks","outputs":[{"internalType":"contract ClipLike","name":"clip","type":"address"},{"internalType":"uint256","name":"chop","type":"uint256"},{"internalType":"uint256","name":"hole","type":"uint256"},{"internalType":"uint256","name":"dirt","type":"uint256"}],"stateMutability":"view","type":"function"},{"inputs":[],"name":"live","outputs":[{"internalType":"uint256","name":"","type":"uint256"}],"stateMutability":"view","type":"function"},{"inputs":[{"internalType":"address","name":"usr","type":"address"}],"name":"rely","outputs":[],"stateMutability":"nonpayable","type":"function"},{"inputs":[],"name":"vat","outputs":[{"internalType":"contract VatLike","name":"","type":"address"}],"stateMutability":"view","type":"function"},{"inputs":[],"name":"vow","outputs":[{"internalType":"contract VowLike","name":"","type":"address"}],"stateMutability":"view","type":"function"},{"inputs":[{"internalType":"address","name":"","type":"address"}],"name":"wards","outputs":[{"internalType":"uint256","name":"","type":"uint256"}],"stateMutability":"view","type":"function"}],"evm":{"bytecode":{"linkReferences":{},"object":"60803461008657601f610e3638819003918201601f19168301916001600160401b0383118484101761008b5780849260209460405283398101031261008657516001600160a01b0381169081900361008657336000526000602052600160406000205560018060a01b031960025416176002556001600455604051610d9490816100a28239f35b600080fd5b634e487b7160e01b600052604160045260246000fdfe6080604052600436101561001257600080fd5b6000803560e01c80631a0b287e14610b1257806329ae811414610aca57806336569e7714610aa1578063626cb3c514610a7857806365fae35e14610a2c57806369245009146109fd578063957aa58c146109df5780639c52a7f114610994578063af7cfeb114610976578063bf353dbb1461093e578063c87193f4146108db578063d4e8be831461086a578063d79265381461083e578063d9638d36146107e9578063e2702fdc14610796578063ebecb39d146106d4578063ed998908146101035763eda6e121146100e357600080fd5b346101005780600319360112610100576020600654604051908152f35b80fd5b50346101005760603660031901126101005761011d610bc5565b610125610bdb565b90610134600160045414610c32565b600254604080516309092f9760e21b815260048035908201526001600160a01b038481166024830152909216949082604481885afa9182156104e1578190829361069a575b50604051636cb1c69b60e11b815260048035908201529460a0866024818a5afa92831561068e57809781978295610642575b506101b68987610d21565b9788811515918261062e575b5050156105f8576004358252600160205260408220936040519485608081011067ffffffffffffffff6080880111176105e4576080860160405260018060a01b0381541686526001810154602087015260036002820154918260408901520154606087015261023660055460065490610d14565b8082116105dd57505b80670de0b6b3a7640000810204670de0b6b3a764000014811517156105c95780670de0b6b3a76400008082020403610511579061029761028c8c670de0b6b3a76400006102c39502610cb9565b602088015190610cb9565b8089116105bf57506102b3885b6102ae8a84610d21565b610cb9565b8082116105b75750995b87610d21565b94851561057f57851080159061056c575b15610533576003546001600160a01b03166102ee8a610cd9565b916102f888610cd9565b813b1561052f57898580949360c49360405197889687956301eeacfd60e61b8752600435600488015260018060a01b031660248701523060448701526064860152608485015260a48401525af1801561052457610515575b5090670de0b6b3a7640000610369602085015186610d21565b049361038060018060a01b03600354169186610d14565b813b15610511578391602483926040519485938492630d2fdf6f60e31b845260048401525af18015610506579083916104ee575b50506020906103c585600654610d00565b6006556103d6856060860151610d00565b600480358552600184526040808620600301929092558551915163898eb26760e01b815290810199909952602489018690526001600160a01b0388811660448b015291821660648a0152889160849183918691165af19586156104e157819661049c575b8251604080518a815260208181018990529181018790526001600160a01b0392831660608201529091899182918a1690600435907f85258d09e1e4ef299ff3fc11e74af99563f022d21f3f940db982229dc2a3358c90608090a4604051908152f35b90969391949295506020813d6020116104d9575b816104bd60209383610c97565b810103126104d557519295509193909260203861043a565b8680fd5b3d91506104b0565b50604051903d90823e3d90fd5b6104f790610c6d565b6105025781386103b4565b5080fd5b6040513d85823e3d90fd5b8380fd5b61051e90610c6d565b38610350565b6040513d84823e3d90fd5b8480fd5b60405162461bcd60e51b81526020600482015260116024820152702237b397b23ab9ba3c96b0bab1ba34b7b760791b6044820152606490fd5b5087851480156102d457508715156102d4565b60405162461bcd60e51b815260206004820152601060248201526f2237b397b73ab63616b0bab1ba34b7b760811b6044820152606490fd5b9050996102bd565b6102b390986102a4565b634e487b7160e01b84526011600452602484fd5b905061023f565b634e487b7160e01b84526041600452602484fd5b60405162461bcd60e51b815260206004820152600e60248201526d446f672f6e6f742d756e7361666560901b6044820152606490fd5b61063a91925086610d21565b1088386101c2565b98509350955060a0873d8211610686575b8161066060a09383610c97565b81010312610682576020870151956080604089015198015196979693386101ab565b8580fd5b3d9150610653565b604051903d90823e3d90fd5b9250506040823d6040116106cc575b816106b660409383610c97565b8101031261010057602082519201519138610179565b3d91506106a9565b5034610100576060366003190112610100576106ee610bdb565b338252816020526107056001604084205414610bf1565b610713600160045414610c32565b602435630636c69760e41b0361075157600435825260016020526040822080546001600160a01b0319166001600160a01b0390921691909117905580f35b60405162461bcd60e51b815260206004820152601b60248201527f446f672f66696c652d756e7265636f676e697a65642d706172616d00000000006044820152606490fd5b503461010057602036600319011261010057338152806020526107bf6001604083205414610bf1565b6004358152600160205280600360408220670de0b6b3a76400006001820155826002820155015580f35b5034610100576020366003190112610100576040608091600435815260016020522060018060a01b03815416906001810154906003600282015491015491604051938452602084015260408301526060820152f35b503461010057602036600319011261010057600160406020926004358152828452200154604051908152f35b503461010057604036600319011261010057610884610bc5565b3382528160205261089b6001604084205414610bf1565b6108a9600160045414610c32565b60043562766f7760e81b036107515760018060a01b03166bffffffffffffffffffffffff60a01b600354161760035580f35b50346101005761092b6108ed36610b94565b919091338452836020526109076001604086205414610bf1565b61091381600654610d14565b60065582845260016020526003604085200154610d14565b9082526001602052600360408320015580f35b5034610100576020366003190112610100576020906040906001600160a01b03610966610baf565b1681528083522054604051908152f35b50346101005780600319360112610100576020600554604051908152f35b5034610100576020366003190112610100576109ae610baf565b338252816020526109c56001604084205414610bf1565b6001600160a01b0316815260208190526040812081905580f35b50346101005780600319360112610100576020600454604051908152f35b503461010057806003193601126101005733815280602052610a256001604083205414610bf1565b8060045580f35b503461010057602036600319011261010057610a46610baf565b33825281602052610a5d6001604084205414610bf1565b6001600160a01b031681526020819052604081206001905580f35b50346101005780600319360112610100576003546040516001600160a01b039091168152602090f35b50346101005780600319360112610100576002546040516001600160a01b039091168152602090f35b503461010057610ad936610b94565b9033835282602052610af16001604085205414610bf1565b610aff600160045414610c32565b63486f6c6560e01b036107515760055580f35b503461010057606036600319011261010057600435602435906044359133845283602052610b466001604086205414610bf1565b610b54600160045414610c32565b63063686f760e41b8103610b75575082526001602052600160408320015580f35b63686f6c6560e01b036107515782526001602052600260408320015580f35b6040906003190112610baa576004359060243590565b600080fd5b600435906001600160a01b0382168203610baa57565b602435906001600160a01b0382168203610baa57565b604435906001600160a01b0382168203610baa57565b15610bf857565b60405162461bcd60e51b8152602060048201526012602482015271111bd9cbdb9bdd0b585d5d1a1bdc9a5e995960721b6044820152606490fd5b15610c3957565b60405162461bcd60e51b815260206004820152600c60248201526b446f672f6e6f742d6c69766560a01b6044820152606490fd5b67ffffffffffffffff8111610c8157604052565b634e487b7160e01b600052604160045260246000fd5b90601f8019910116810190811067ffffffffffffffff821117610c8157604052565b8115610cc3570490565b634e487b7160e01b600052601260045260246000fd5b600160ff1b8114610cea5760000390565b634e487b7160e01b600052601160045260246000fd5b9190820191828111610cea578210610baa57565b908103908111610cea5790565b600092918015918215610d38575b505015610baa57565b80820294509150811582850482141715610cea57610d569084610cb9565b143880610d2f56fea2646970667358221220b6e281db6ef22fffe74b6f016415922d35c786364082aa7c31d61a366c7a333d64736f6c63430008130033","opcodes":"PUSH1 0x80 CALLVALUE PUSH2 0x86 JUMPI PUSH1 0x1F PUSH2 0xE36 CODESIZE DUP2 SWAP1 SUB SWAP2 DUP3 ADD PUSH1 0x1F NOT AND DUP4 ADD SWAP2 PUSH1 0x1 PUSH1 0x1 PUSH1 0x40 SHL SUB DUP4 GT DUP5 DUP5 LT OR PUSH2 0x8B JUMPI DUP1 DUP5 SWAP3 PUSH1 0x20 SWAP5 PUSH1 0x40 MSTORE DUP4 CODECOPY DUP2 ADD SUB SLT PUSH2 0x86 JUMPI MLOAD PUSH1 0x1 PUSH1 0x1 PUSH1 0xA0 SHL SUB DUP2 AND SWAP1 DUP2 SWAP1 SUB PUSH2 0x86 JUMPI CALLER PUSH1 0x0 MSTORE PUSH1 0x0 PUSH1 0x20 MSTORE PUSH1 0x1 PUSH1 0x40 PUSH1 0x0 KECCAK256 SSTORE PUSH1 0x1 DUP1 PUSH1 0xA0 SHL SUB NOT PUSH1 0x2 SLOAD AND OR PUSH1 0x2 SSTORE PUSH1 0x1 PUSH1 0x4 SSTORE PUSH1 0x40 MLOAD PUSH2 0xD94 SWAP1 DUP2 PUSH2 0xA2 DUP3 CODECOPY RETURN JUMPDEST PUSH1 0x0 DUP1 REVERT JUMPDEST PUSH4 0x4E487B71 PUSH1 0xE0 SHL PUSH1 0x0 MSTORE PUSH1 0x41 PUSH1 0x4 MSTORE PUSH1 0x24 PUSH1 0x0 REVERT INVALID PUSH1 0x80 PUSH1 0x40 MSTORE PUSH1 0x4 CALLDATASIZE LT ISZERO PUSH2 0x12 JUMPI PUSH1 0x0 DUP1 REVERT JUMPDEST PUSH1 0x0 DUP1 CALLDATALOAD PUSH1 0xE0 SHR DUP1 PUSH4 0x1A0B287E EQ PUSH2 0xB12 JUMPI DUP1 PUSH4 0x29AE8114 EQ PUSH2 0xACA JUMPI DUP1 PUSH4 0x36569E77 EQ PUSH2 0xAA1 JUMPI DUP1 PUSH4 0x626CB3C5 EQ PUSH2 0xA78 JUMPI DUP1 PUSH4 0x65FAE35E EQ PUSH2 0xA2C JUMPI DUP1 PUSH4 0x69245009 EQ PUSH2 0x9FD JUMPI DUP1 PUSH4 0x957AA58C EQ PUSH2 0x9DF JUMPI DUP1 PUSH4 0x9C52A7F1 EQ PUSH2 0x994 JUMPI DUP1 PUSH4 0xAF7CFEB1 EQ PUSH2 0x976 JUMPI DUP1 PUSH4 0xBF353DBB EQ PUSH2 0x93E JUMPI DUP1 PUSH4 0xC87193F4 EQ PUSH2 0x8DB JUMPI DUP1 PUSH4 0xD4E8BE83 EQ PUSH2 0x86A JUMPI DUP1 PUSH4 0xD7926538 EQ PUSH2 0x83E JUMPI DUP1 PUSH4 0xD9638D36 EQ PUSH2 0x7E9 JUMPI DUP1 PUSH4 0xE2702FDC EQ PUSH2 0x796 JUMPI DUP1 PUSH4 0xEBECB39D EQ PUSH2 0x6D4 JUMPI DUP1 PUSH4 0xED998908 EQ PUSH2 0x103 JUMPI PUSH4 0xEDA6E121 EQ PUSH2 0xE3 JUMPI PUSH1 0x0 DUP1 REVERT JUMPDEST CALLVALUE PUSH2 0x100 JUMPI DUP1 PUSH1 0x3 NOT CALLDATASIZE ADD SLT PUSH2 0x100 JUMPI PUSH1 0x20 PUSH1 0x6 SLOAD PUSH1 0x40 MLOAD SWAP1 DUP2 MSTORE RETURN JUMPDEST DUP1 REVERT JUMPDEST POP CALLVALUE PUSH2 0x100 JUMPI PUSH1 0x60 CALLDATASIZE PUSH1 0x3 NOT ADD SLT PUSH2 0x100 JUMPI PUSH2 0x11D PUSH2 0xBC5 JUMP JUMPDEST PUSH2 0x125 PUSH2 0xBDB JUMP JUMPDEST SWAP1 PUSH2 0x134 PUSH1 0x1 PUSH1 0x4 SLOAD EQ PUSH2 0xC32 JUMP JUMPDEST PUSH1 0x2 SLOAD PUSH1 0x40 DUP1 MLOAD PUSH4 0x9092F97 PUSH1 0xE2 SHL DUP2 MSTORE PUSH1 0x4 DUP1 CALLDATALOAD SWAP1 DUP3 ADD MSTORE PUSH1 0x1 PUSH1 0x1 PUSH1 0xA0 SHL SUB DUP5 DUP2 AND PUSH1 0x24 DUP4 ADD MSTORE SWAP1 SWAP3 AND SWAP5 SWAP1 DUP3 PUSH1 0x44 DUP2 DUP9 GAS STATICCALL SWAP2 DUP3 ISZERO PUSH2 0x4E1 JUMPI DUP2 SWAP1 DUP3 SWAP4 PUSH2 0x69A JUMPI JUMPDEST POP PUSH1 0x40 MLOAD PUSH4 0x6CB1C69B PUSH1 0xE1 SHL DUP2 MSTORE PUSH1 0x4 DUP1 CALLDATALOAD SWAP1 DUP3 ADD MSTORE SWAP5 PUSH1 0xA0 DUP7 PUSH1 0x24 DUP2 DUP11 GAS STATICCALL SWAP3 DUP4 ISZERO PUSH2 0x68E JUMPI DUP1 SWAP8 DUP2 SWAP8 DUP3 SWAP6 PUSH2 0x642 JUMPI JUMPDEST POP PUSH2 0x1B6 DUP10 DUP8 PUSH2 0xD21 JUMP JUMPDEST SWAP8 DUP9 DUP2 ISZERO ISZERO SWAP2 DUP3 PUSH2 0x62E JUMPI JUMPDEST POP POP ISZERO PUSH2 0x5F8 JUMPI PUSH1 0x4 CALLDATALOAD DUP3 MSTORE PUSH1 0x1 PUSH1 0x20 MSTORE PUSH1 0x40 DUP3 KECCAK256 SWAP4 PUSH1 0x40 MLOAD SWAP5 DUP6 PUSH1 0x80 DUP2 ADD LT PUSH8 0xFFFFFFFFFFFFFFFF PUSH1 0x80 DUP9 ADD GT OR PUSH2 0x5E4 JUMPI PUSH1 0x80 DUP7 ADD PUSH1 0x40 MSTORE PUSH1 0x1 DUP1 PUSH1 0xA0 SHL SUB DUP2 SLOAD AND DUP7 MSTORE PUSH1 0x1 DUP2 ADD SLOAD PUSH1 0x20 DUP8 ADD MSTORE PUSH1 0x3 PUSH1 0x2 DUP3 ADD SLOAD SWAP2 DUP3 PUSH1 0x40 DUP10 ADD MSTORE ADD SLOAD PUSH1 0x60 DUP8 ADD MSTORE PUSH2 0x236 PUSH1 0x5 SLOAD PUSH1 0x6 SLOAD SWAP1 PUSH2 0xD14 JUMP JUMPDEST DUP1 DUP3 GT PUSH2 0x5DD JUMPI POP JUMPDEST DUP1 PUSH8 0xDE0B6B3A7640000 DUP2 MUL DIV PUSH8 0xDE0B6B3A7640000 EQ DUP2 ISZERO OR ISZERO PUSH2 0x5C9 JUMPI DUP1 PUSH8 0xDE0B6B3A7640000 DUP1 DUP3 MUL DIV SUB PUSH2 0x511 JUMPI SWAP1 PUSH2 0x297 PUSH2 0x28C DUP13 PUSH8 0xDE0B6B3A7640000 PUSH2 0x2C3 SWAP6 MUL PUSH2 0xCB9 JUMP JUMPDEST PUSH1 0x20 DUP9 ADD MLOAD SWAP1 PUSH2 0xCB9 JUMP JUMPDEST DUP1 DUP10 GT PUSH2 0x5BF JUMPI POP PUSH2 0x2B3 DUP9 JUMPDEST PUSH2 0x2AE DUP11 DUP5 PUSH2 0xD21 JUMP JUMPDEST PUSH2 0xCB9 JUMP JUMPDEST DUP1 DUP3 GT PUSH2 0x5B7 JUMPI POP SWAP10 JUMPDEST DUP8 PUSH2 0xD21 JUMP JUMPDEST SWAP5 DUP6 ISZERO PUSH2 0x57F JUMPI DUP6 LT DUP1 ISZERO SWAP1 PUSH2 0x56C JUMPI JUMPDEST ISZERO PUSH2 0x533 JUMPI PUSH1 0x3 SLOAD PUSH1 0x1 PUSH1 0x1 PUSH1 0xA0 SHL SUB AND PUSH2 0x2EE DUP11 PUSH2 0xCD9 JUMP JUMPDEST SWAP2 PUSH2 0x2F8 DUP9 PUSH2 0xCD9 JUMP JUMPDEST DUP2 EXTCODESIZE ISZERO PUSH2 0x52F JUMPI DUP10 DUP6 DUP1 SWAP5 SWAP4 PUSH1 0xC4 SWAP4 PUSH1 0x40 MLOAD SWAP8 DUP9 SWAP7 DUP8 SWAP6 PUSH4 0x1EEACFD PUSH1 0xE6 SHL DUP8 MSTORE PUSH1 0x4 CALLDATALOAD PUSH1 0x4 DUP9 ADD MSTORE PUSH1 0x1 DUP1 PUSH1 0xA0 SHL SUB AND PUSH1 0x24 DUP8 ADD MSTORE ADDRESS PUSH1 0x44 DUP8 ADD MSTORE PUSH1 0x64 DUP7 ADD MSTORE PUSH1 0x84 DUP6 ADD MSTORE PUSH1 0xA4 DUP5 ADD MSTORE GAS CALL DUP1 ISZERO PUSH2 0x524 JUMPI PUSH2 0x515 JUMPI JUMPDEST POP SWAP1 PUSH8 0xDE0B6B3A7640000 PUSH2 0x369 PUSH1 0x20 DUP6 ADD MLOAD DUP7 PUSH2 0xD21 JUMP JUMPDEST DIV SWAP4 PUSH2 0x380 PUSH1 0x1 DUP1 PUSH1 0xA0 SHL SUB PUSH1 0x3 SLOAD AND SWAP2 DUP7 PUSH2 0xD14 JUMP JUMPDEST DUP2 EXTCODESIZE ISZERO PUSH2 0x511 JUMPI DUP4 SWAP2 PUSH1 0x24 DUP4 SWAP3 PUSH1 0x40 MLOAD SWAP5 DUP6 SWAP4 DUP5 SWAP3 PUSH4 0xD2FDF6F PUSH1 0xE3 SHL DUP5 MSTORE PUSH1 0x4 DUP5 ADD MSTORE GAS CALL DUP1 ISZERO PUSH2 0x506 JUMPI SWAP1 DUP4 SWAP2 PUSH2 0x4EE JUMPI JUMPDEST POP POP PUSH1 0x20 SWAP1 PUSH2 0x3C5 DUP6 PUSH1 0x6 SLOAD PUSH2 0xD00 JUMP JUMPDEST PUSH1 0x6 SSTORE PUSH2 0x3D6 DUP6 PUSH1 0x60 DUP7 ADD MLOAD PUSH2 0xD00 JUMP JUMPDEST PUSH1 0x4 DUP1 CALLDATALOAD DUP6 MSTORE PUSH1 0x1 DUP5 MSTORE PUSH1 0x40 DUP1 DUP7 KECCAK256 PUSH1 0x3 ADD SWAP3 SWAP1 SWAP3 SSTORE DUP6 MLOAD SWAP2 MLOAD PUSH4 0x898EB267 PUSH1 0xE0 SHL DUP2 MSTORE SWAP1 DUP2 ADD SWAP10 SWAP1 SWAP10 MSTORE PUSH1 0x24 DUP10 ADD DUP7 SWAP1 MSTORE PUSH1 0x1 PUSH1 0x1 PUSH1 0xA0 SHL SUB DUP9 DUP2 AND PUSH1 0x44 DUP12 ADD MSTORE SWAP2 DUP3 AND PUSH1 0x64 DUP11 ADD MSTORE DUP9 SWAP2 PUSH1 0x84 SWAP2 DUP4 SWAP2 DUP7 SWAP2 AND GAS CALL SWAP6 DUP7 ISZERO PUSH2 0x4E1 JUMPI DUP2 SWAP7 PUSH2 0x49C JUMPI JUMPDEST DUP3 MLOAD PUSH1 0x40 DUP1 MLOAD DUP11 DUP2 MSTORE PUSH1 0x20 DUP2 DUP2 ADD DUP10 SWAP1 MSTORE SWAP2 DUP2 ADD DUP8 SWAP1 MSTORE PUSH1 0x1 PUSH1 0x1 PUSH1 0xA0 SHL SUB SWAP3 DUP4 AND PUSH1 0x60 DUP3 ADD MSTORE SWAP1 SWAP2 DUP10 SWAP2 DUP3 SWAP2 DUP11 AND SWAP1 PUSH1 0x4 CALLDATALOAD SWAP1 PUSH32 0x85258D09E1E4EF299FF3FC11E74AF99563F022D21F3F940DB982229DC2A3358C SWAP1 PUSH1 0x80 SWAP1 LOG4 PUSH1 0x40 MLOAD SWAP1 DUP2 MSTORE RETURN JUMPDEST SWAP1 SWAP7 SWAP4 SWAP2 SWAP5 SWAP3 SWAP6 POP PUSH1 0x20 DUP2 RETURNDATASIZE PUSH1 0x20 GT PUSH2 0x4D9 JUMPI JUMPDEST DUP2 PUSH2 0x4BD PUSH1 0x20 SWAP4 DUP4 PUSH2 0xC97 JUMP JUMPDEST DUP2 ADD SUB SLT PUSH2 0x4D5 JUMPI MLOAD SWAP3 SWAP6 POP SWAP2 SWAP4 SWAP1 SWAP3 PUSH1 0x20 CODESIZE PUSH2 0x43A JUMP JUMPDEST DUP7 DUP1 REVERT JUMPDEST RETURNDATASIZE SWAP2 POP PUSH2 0x4B0 JUMP JUMPDEST POP PUSH1 0x40 MLOAD SWAP1 RETURNDATASIZE SWAP1 DUP3 RETURNDATACOPY RETURNDATASIZE SWAP1 REVERT JUMPDEST PUSH2 0x4F7 SWAP1 PUSH2 0xC6D JUMP JUMPDEST PUSH2 0x502 JUMPI DUP2 CODESIZE PUSH2 0x3B4 JUMP JUMPDEST POP DUP1 REVERT JUMPDEST PUSH1 0x40 MLOAD RETURNDATASIZE DUP6 DUP3 RETURNDATACOPY RETURNDATASIZE SWAP1 REVERT JUMPDEST DUP4 DUP1 REVERT JUMPDEST PUSH2 0x51E SWAP1 PUSH2 0xC6D JUMP JUMPDEST CODESIZE PUSH2 0x350 JUMP JUMPDEST PUSH1 0x40 MLOAD RETURNDATASIZE DUP5 DUP3 RETURNDATACOPY RETURNDATASIZE SWAP1 REVERT JUMPDEST DUP5 DUP1 REVERT JUMPDEST PUSH1 0x40 MLOAD PUSH3 0x461BCD PUSH1 0xE5 SHL DUP2 MSTORE PUSH1 0x20 PUSH1 0x4 DUP3 ADD MSTORE PUSH1 0x11 PUSH1 0x24 DUP3 ADD MSTORE PUSH17 0x2237B397B23AB9BA3C96B0BAB1BA34B7B7 PUSH1 0x79 SHL PUSH1 0x44 DUP3 ADD MSTORE PUSH1 0x64 SWAP1 REVERT JUMPDEST POP DUP8 DUP6 EQ DUP1 ISZERO PUSH2 0x2D4 JUMPI POP DUP8 ISZERO ISZERO PUSH2 0x2D4 JUMP JUMPDEST PUSH1 0x40 MLOAD PUSH3 0x461BCD PUSH1 0xE5 SHL DUP2 MSTORE PUSH1 0x20 PUSH1 0x4 DUP3 ADD MSTORE PUSH1 0x10 PUSH1 0x24 DUP3 ADD MSTORE PUSH16 0x2237B397B73AB63616B0BAB1BA34B7B7 PUSH1 0x81 SHL PUSH1 0x44 DUP3 ADD MSTORE PUSH1 0x64 SWAP1 REVERT JUMPDEST SWAP1 POP SWAP10 PUSH2 0x2BD JUMP JUMPDEST PUSH2 0x2B3 SWAP1 SWAP9 PUSH2 0x2A4 JUMP JUMPDEST PUSH4 0x4E487B71 PUSH1 0xE0 SHL DUP5 MSTORE PUSH1 0x11 PUSH1 0x4 MSTORE PUSH1 0x24 DUP5 REVERT JUMPDEST SWAP1 POP PUSH2 0x23F JUMP JUMPDEST PUSH4 0x4E487B71 PUSH1 0xE0 SHL DUP5 MSTORE PUSH1 0x41 PUSH1 0x4 MSTORE PUSH1 0x24 DUP5 REVERT JUMPDEST PUSH1 0x40 MLOAD PUSH3 0x461BCD PUSH1 0xE5 SHL DUP2 MSTORE PUSH1 0x20 PUSH1 0x4 DUP3 ADD MSTORE PUSH1 0xE PUSH1 0x24 DUP3 ADD MSTORE PUSH14 0x446F672F6E6F742D756E73616665 PUSH1 0x90 SHL PUSH1 0x44 DUP3 ADD MSTORE PUSH1 0x64 SWAP1 REVERT JUMPDEST PUSH2 0x63A SWAP2 SWAP3 POP DUP7 PUSH2 0xD21 JUMP JUMPDEST LT DUP9 CODESIZE PUSH2 0x1C2 JUMP JUMPDEST SWAP9 POP SWAP4 POP SWAP6 POP PUSH1 0xA0 DUP8 RETURNDATASIZE DUP3 GT PUSH2 0x686 JUMPI JUMPDEST DUP2 PUSH2 0x660 PUSH1 0xA0 SWAP4 DUP4 PUSH2 0xC97 JUMP JUMPDEST DUP2 ADD SUB SLT PUSH2 0x682 JUMPI PUSH1 0x20 DUP8 ADD MLOAD SWAP6 PUSH1 0x80 PUSH1 0x40 DUP10 ADD MLOAD SWAP9 ADD MLOAD SWAP7 SWAP8 SWAP7 SWAP4 CODESIZE PUSH2 0x1AB JUMP JUMPDEST DUP6 DUP1 REVERT JUMPDEST RETURNDATASIZE SWAP2 POP PUSH2 0x653 JUMP JUMPDEST PUSH1 0x40 MLOAD SWAP1 RETURNDATASIZE SWAP1 DUP3 RETURNDATACOPY RETURNDATASIZE SWAP1 REVERT JUMPDEST SWAP3 POP POP PUSH1 0x40 DUP3 RETURNDATASIZE PUSH1 0x40 GT PUSH2 0x6CC JUMPI JUMPDEST DUP2 PUSH2 0x6B6 PUSH1 0x40 SWAP4 DUP4 PUSH2 0xC97 JUMP JUMPDEST DUP2 ADD SUB SLT PUSH2 0x100 JUMPI PUSH1 0x20 DUP3 MLOAD SWAP3 ADD MLOAD SWAP2 CODESIZE PUSH2 0x179 JUMP JUMPDEST RETURNDATASIZE SWAP2 POP PUSH2 0x6A9 JUMP JUMPDEST POP CALLVALUE PUSH2 0x100 JUMPI PUSH1 0x60 CALLDATASIZE PUSH1 0x3 NOT ADD SLT PUSH2 0x100 JUMPI PUSH2 0x6EE PUSH2 0xBDB JUMP JUMPDEST CALLER DUP3 MSTORE DUP2 PUSH1 0x20 MSTORE PUSH2 0x705 PUSH1 0x1 PUSH1 0x40 DUP5 KECCAK256 SLOAD EQ PUSH2 0xBF1 JUMP JUMPDEST PUSH2 0x713 PUSH1 0x1 PUSH1 0x4 SLOAD EQ PUSH2 0xC32 JUMP JUMPDEST PUSH1 0x24 CALLDATALOAD PUSH4 0x636C697 PUSH1 0xE4 SHL SUB PUSH2 0x751 JUMPI PUSH1 0x4 CALLDATALOAD DUP3 MSTORE PUSH1 0x1 PUSH1 0x20 MSTORE PUSH1 0x40 DUP3 KECCAK256 DUP1 SLOAD PUSH1 0x1 PUSH1 0x1 PUSH1 0xA0 SHL SUB NOT AND PUSH1 0x1 PUSH1 0x1 PUSH1 0xA0 SHL SUB SWAP1 SWAP3 AND SWAP2 SWAP1 SWAP2 OR SWAP1 SSTORE DUP1 RETURN JUMPDEST PUSH1 0x40 MLOAD PUSH3 0x461BCD PUSH1 0xE5 SHL DUP2 MSTORE PUSH1 0x20 PUSH1 0x4 DUP3 ADD MSTORE PUSH1 0x1B PUSH1 0x24 DUP3 ADD MSTORE PUSH32 0x446F672F66696C652D756E7265636F676E697A65642D706172616D0000000000 PUSH1 0x44 DUP3 ADD MSTORE PUSH1 0x64 SWAP1 REVERT JUMPDEST POP CALLVALUE PUSH2 0x100 JUMPI PUSH1 0x20 CALLDATASIZE PUSH1 0x3 NOT ADD SLT PUSH2 0x100 JUMPI CALLER DUP2 MSTORE DUP1 PUSH1 0x20 MSTORE PUSH2 0x7BF PUSH1 0x1 PUSH1 0x40 DUP4 KECCAK256 SLOAD EQ PUSH2 0xBF1 JUMP JUMPDEST PUSH1 0x4 CALLDATALOAD DUP2 MSTORE PUSH1 0x1 PUSH1 0x20 MSTORE DUP1 PUSH1 0x3 PUSH1 0x40 DUP3 KECCAK256 PUSH8 0xDE0B6B3A7640000 PUSH1 0x1 DUP3 ADD SSTORE DUP3 PUSH1 0x2 DUP3 ADD SSTORE ADD SSTORE DUP1 RETURN JUMPDEST POP CALLVALUE PUSH2 0x100 JUMPI PUSH1 0x20 CALLDATASIZE PUSH1 0x3 NOT ADD SLT PUSH2 0x100 JUMPI PUSH1 0x40 PUSH1 0x80 SWAP2 PUSH1 0x4 CALLDATALOAD DUP2 MSTORE PUSH1 0x1 PUSH1 0x20 MSTORE KECCAK256 PUSH1 0x1 DUP1 PUSH1 0xA0 SHL SUB DUP2 SLOAD AND SWAP1 PUSH1 0x1 DUP2 ADD SLOAD SWAP1 PUSH1 0x3 PUSH1 0x2 DUP3 ADD SLOAD SWAP2 ADD SLOAD SWAP2 PUSH1 0x40 MLOAD SWAP4 DUP5 MSTORE PUSH1 0x20 DUP5 ADD MSTORE PUSH1 0x40 DUP4 ADD MSTORE PUSH1 0x60 DUP3 ADD MSTORE RETURN JUMPDEST POP CALLVALUE PUSH2 0x100 JUMPI PUSH1 0x20 CALLDATASIZE PUSH1 0x3 NOT ADD SLT PUSH2 0x100 JUMPI PUSH1 0x1 PUSH1 0x40 PUSH1 0x20 SWAP3 PUSH1 0x4 CALLDATALOAD DUP2 MSTORE DUP3 DUP5 MSTORE KECCAK256 ADD SLOAD PUSH1 0x40 MLOAD SWAP1 DUP2 MSTORE RETURN JUMPDEST POP CALLVALUE PUSH2 0x100 JUMPI PUSH1 0x40 CALLDATASIZE PUSH1 0x3 NOT ADD SLT PUSH2 0x100 JUMPI PUSH2 0x884 PUSH2 0xBC5 JUMP JUMPDEST CALLER DUP3 MSTORE DUP2 PUSH1 0x20 MSTORE PUSH2 0x89B PUSH1 0x1 PUSH1 0x40 DUP5 KECCAK256 SLOAD EQ PUSH2 0xBF1 JUMP JUMPDEST PUSH2 0x8A9 PUSH1 0x1 PUSH1 0x4 SLOAD EQ PUSH2 0xC32 JUMP JUMPDEST PUSH1 0x4 CALLDATALOAD PUSH3 0x766F77 PUSH1 0xE8 SHL SUB PUSH2 0x751 JUMPI PUSH1 0x1 DUP1 PUSH1 0xA0 SHL SUB AND PUSH12 0xFFFFFFFFFFFFFFFFFFFFFFFF PUSH1 0xA0 SHL PUSH1 0x3 SLOAD AND OR PUSH1 0x3 SSTORE DUP1 RETURN JUMPDEST POP CALLVALUE PUSH2 0x100 JUMPI PUSH2 0x92B PUSH2 0x8ED CALLDATASIZE PUSH2 0xB94 JUMP JUMPDEST SWAP2 SWAP1 SWAP2 CALLER DUP5 MSTORE DUP4 PUSH1 0x20 MSTORE PUSH2 0x907 PUSH1 0x1 PUSH1 0x40 DUP7 KECCAK256 SLOAD EQ PUSH2 0xBF1 JUMP JUMPDEST PUSH2 0x913 DUP2 PUSH1 0x6 SLOAD PUSH2 0xD14 JUMP JUMPDEST PUSH1 0x6 SSTORE DUP3 DUP5 MSTORE PUSH1 0x1 PUSH1 0x20 MSTORE PUSH1 0x3 PUSH1 0x40 DUP6 KECCAK256 ADD SLOAD PUSH2 0xD14 JUMP JUMPDEST SWAP1 DUP3 MSTORE PUSH1 0x1 PUSH1 0x20 MSTORE PUSH1 0x3 PUSH1 0x40 DUP4 KECCAK256 ADD SSTORE DUP1 RETURN JUMPDEST POP CALLVALUE PUSH2 0x100 JUMPI PUSH1 0x20 CALLDATASIZE PUSH1 0x3 NOT ADD SLT PUSH2 0x100 JUMPI PUSH1 0x20 SWAP1 PUSH1 0x40 SWAP1 PUSH1 0x1 PUSH1 0x1 PUSH1 0xA0 SHL SUB PUSH2 0x966 PUSH2 0xBAF JUMP JUMPDEST AND DUP2 MSTORE DUP1 DUP4 MSTORE KECCAK256 SLOAD PUSH1 0x40 MLOAD SWAP1 DUP2 MSTORE RETURN JUMPDEST POP CALLVALUE PUSH2 0x100 JUMPI DUP1 PUSH1 0x3 NOT CALLDATASIZE ADD SLT PUSH2 0x100 JUMPI PUSH1 0x20 PUSH1 0x5 SLOAD PUSH1 0x40 MLOAD SWAP1 DUP2 MSTORE RETURN JUMPDEST POP CALLVALUE PUSH2 0x100 JUMPI PUSH1 0x20 CALLDATASIZE PUSH1 0x3 NOT ADD SLT PUSH2 0x100 JUMPI PUSH2 0x9AE PUSH2 0xBAF JUMP JUMPDEST CALLER DUP3 MSTORE DUP2 PUSH1 0x20 MSTORE PUSH2 0x9C5 PUSH1 0x1 PUSH1 0x40 DUP5 KECCAK256 SLOAD EQ PUSH2 0xBF1 JUMP JUMPDEST PUSH1 0x1 PUSH1 0x1 PUSH1 0xA0 SHL SUB AND DUP2 MSTORE PUSH1 0x20 DUP2 SWAP1 MSTORE PUSH1 0x40 DUP2 KECCAK256 DUP2 SWAP1 SSTORE DUP1 RETURN JUMPDEST POP CALLVALUE PUSH2 0x100 JUMPI DUP1 PUSH1 0x3 NOT CALLDATASIZE ADD SLT PUSH2 0x100 JUMPI PUSH1 0x20 PUSH1 0x4 SLOAD PUSH1 0x40 MLOAD SWAP1 DUP2 MSTORE RETURN JUMPDEST POP CALLVALUE PUSH2 0x100 JUMPI DUP1 PUSH1 0x3 NOT CALLDATASIZE ADD SLT PUSH2 0x100 JUMPI CALLER DUP2 MSTORE DUP1 PUSH1 0x20 MSTORE PUSH2 0xA25 PUSH1 0x1 PUSH1 0x40 DUP4 KECCAK256 SLOAD EQ PUSH2 0xBF1 JUMP JUMPDEST DUP1 PUSH1 0x4 SSTORE DUP1 RETURN JUMPDEST POP CALLVALUE PUSH2 0x100 JUMPI PUSH1 0x20 CALLDATASIZE PUSH1 0x3 NOT ADD SLT PUSH2 0x100 JUMPI PUSH2 0xA46 PUSH2 0xBAF JUMP JUMPDEST CALLER DUP3 MSTORE DUP2 PUSH1 0x20 MSTORE PUSH2 0xA5D PUSH1 0x1 PUSH1 0x40 DUP5 KECCAK256 SLOAD EQ PUSH2 0xBF1 JUMP JUMPDEST PUSH1 0x1 PUSH1 0x1 PUSH1 0xA0 SHL SUB AND DUP2 MSTORE PUSH1 0x20 DUP2 SWAP1 MSTORE PUSH1 0x40 DUP2 KECCAK256 PUSH1 0x1 SWAP1 SSTORE DUP1 RETURN JUMPDEST POP CALLVALUE PUSH2 0x100 JUMPI DUP1 PUSH1 0x3 NOT CALLDATASIZE ADD SLT PUSH2 0x100 JUMPI PUSH1 0x3 SLOAD PUSH1 0x40 MLOAD PUSH1 0x1 PUSH1 0x1 PUSH1 0xA0 SHL SUB SWAP1 SWAP2 AND DUP2 MSTORE PUSH1 0x20 SWAP1 RETURN JUMPDEST POP CALLVALUE PUSH2 0x100 JUMPI DUP1 PUSH1 0x3 NOT CALLDATASIZE ADD SLT PUSH2 0x100 JUMPI PUSH1 0x2 SLOAD PUSH1 0x40 MLOAD PUSH1 0x1 PUSH1 0x1 PUSH1 0xA0 SHL SUB SWAP1 SWAP2 AND DUP2 MSTORE PUSH1 0x20 SWAP1 RETURN JUMPDEST POP CALLVALUE PUSH2 0x100 JUMPI PUSH2 0xAD9 CALLDATASIZE PUSH2 0xB94 JUMP JUMPDEST SWAP1 CALLER DUP4 MSTORE DUP3 PUSH1 0x20 MSTORE PUSH2 0xAF1 PUSH1 0x1 PUSH1 0x40 DUP6 KECCAK256 SLOAD EQ PUSH2 0xBF1 JUMP JUMPDEST PUSH2 0xAFF PUSH1 0x1 PUSH1 0x4 SLOAD EQ PUSH2 0xC32 JUMP JUMPDEST PUSH4 0x486F6C65 PUSH1 0xE0 SHL SUB PUSH2 0x751 JUMPI PUSH1 0x5 SSTORE DUP1 RETURN JUMPDEST POP CALLVALUE PUSH2 0x100 JUMPI PUSH1 0x60 CALLDATASIZE PUSH1 0x3 NOT ADD SLT PUSH2 0x100 JUMPI PUSH1 0x4 CALLDATALOAD PUSH1 0x24 CALLDATALOAD SWAP1 PUSH1 0x44 CALLDATALOAD SWAP2 CALLER DUP5 MSTORE DUP4 PUSH1 0x20 MSTORE PUSH2 0xB46 PUSH1 0x1 PUSH1 0x40 DUP7 KECCAK256 SLOAD EQ PUSH2 0xBF1 JUMP JUMPDEST PUSH2 0xB54 PUSH1 0x1 PUSH1 0x4 SLOAD EQ PUSH2 0xC32 JUMP JUMPDEST PUSH4 0x63686F7 PUSH1 0xE4 SHL DUP2 SUB PUSH2 0xB75 JUMPI POP DUP3 MSTORE PUSH1 0x1 PUSH1 0x20 MSTORE PUSH1 0x1 PUSH1 0x40 DUP4 KECCAK256 ADD SSTORE DUP1 RETURN JUMPDEST PUSH4 0x686F6C65 PUSH1 0xE0 SHL SUB PUSH2 0x751 JUMPI DUP3 MSTORE PUSH1 0x1 PUSH1 0x20 MSTORE PUSH1 0x2 PUSH1 0x40 DUP4 KECCAK256 ADD SSTORE DUP1 RETURN JUMPDEST PUSH1 0x40 SWAP1 PUSH1 0x3 NOT ADD SLT PUSH2 0xBAA JUMPI PUSH1 0x4 CALLDATALOAD SWAP1 PUSH1 0x24 CALLDATALOAD SWAP1 JUMP JUMPDEST PUSH1 0x0 DUP1 REVERT JUMPDEST PUSH1 0x4 CALLDATALOAD SWAP1 PUSH1 0x1 PUSH1 0x1 PUSH1 0xA0 SHL SUB DUP3 AND DUP3 SUB PUSH2 0xBAA JUMPI JUMP JUMPDEST PUSH1 0x24 CALLDATALOAD SWAP1 PUSH1 0x1 PUSH1 0x1 PUSH1 0xA0 SHL SUB DUP3 AND DUP3 SUB PUSH2 0xBAA JUMPI JUMP JUMPDEST PUSH1 0x44 CALLDATALOAD SWAP1 PUSH1 0x1 PUSH1 0x1 PUSH1 0xA0 SHL SUB DUP3 AND DUP3 SUB PUSH2 0xBAA JUMPI JUMP JUMPDEST ISZERO PUSH2 0xBF8 JUMPI JUMP JUMPDEST PUSH1 0x40 MLOAD PUSH3 0x461BCD PUSH1 0xE5 SHL DUP2 MSTORE PUSH1 0x20 PUSH1 0x4 DUP3 ADD MSTORE PUSH1 0x12 PUSH1 0x24 DUP3 ADD MSTORE PUSH18 0x111BD9CBDB9BDD0B585D5D1A1BDC9A5E9959 PUSH1 0x72 SHL PUSH1 0x44 DUP3 ADD MSTORE PUSH1 0x64 SWAP1 REVERT JUMPDEST ISZERO PUSH2 0xC39 JUMPI JUMP JUMPDEST PUSH1 0x40 MLOAD PUSH3 0x461BCD PUSH1 0xE5 SHL DUP2 MSTORE PUSH1 0x20 PUSH1 0x4 DUP3 ADD MSTORE PUSH1 0xC PUSH1 0x24 DUP3 ADD MSTORE PUSH12 0x446F672F6E6F742D6C697665 PUSH1 0xA0 SHL PUSH1 0x44 DUP3 ADD MSTORE PUSH1 0x64 SWAP1 REVERT JUMPDEST PUSH8 0xFFFFFFFFFFFFFFFF DUP2 GT PUSH2 0xC81 JUMPI PUSH1 0x40 MSTORE JUMP JUMPDEST PUSH4 0x4E487B71 PUSH1 0xE0 SHL PUSH1 0x0 MSTORE PUSH1 0x41 PUSH1 0x4 MSTORE PUSH1 0x24 PUSH1 0x0 REVERT JUMPDEST SWAP1 PUSH1 0x1F DUP1 NOT SWAP2 ADD AND DUP2 ADD SWAP1 DUP2 LT PUSH8 0xFFFFFFFFFFFFFFFF DUP3 GT OR PUSH2 0xC81 JUMPI PUSH1 0x40 MSTORE JUMP JUMPDEST DUP2 ISZERO PUSH2 0xCC3 JUMPI DIV SWAP1 JUMP JUMPDEST PUSH4 0x4E487B71 PUSH1 0xE0 SHL PUSH1 0x0 MSTORE PUSH1 0x12 PUSH1 0x4 MSTORE PUSH1 0x24 PUSH1 0x0 REVERT JUMPDEST PUSH1 0x1 PUSH1 0xFF SHL DUP2 EQ PUSH2 0xCEA JUMPI PUSH1 0x0 SUB SWAP1 JUMP JUMPDEST PUSH4 0x4E487B71 PUSH1 0xE0 SHL PUSH1 0x0 MSTORE PUSH1 0x11 PUSH1 0x4 MSTORE PUSH1 0x24 PUSH1 0x0 REVERT JUMPDEST SWAP2 SWAP1 DUP3 ADD SWAP2 DUP3 DUP2 GT PUSH2 0xCEA JUMPI DUP3 LT PUSH2 0xBAA JUMPI JUMP JUMPDEST SWAP1 DUP2 SUB SWAP1 DUP2 GT PUSH2 0xCEA JUMPI SWAP1 JUMP JUMPDEST PUSH1 0x0 SWAP3 SWAP2 DUP1 ISZERO SWAP2 DUP3 ISZERO PUSH2 0xD38 JUMPI JUMPDEST POP POP ISZERO PUSH2 0xBAA JUMPI JUMP JUMPDEST DUP1 DUP3 MUL SWAP5 POP SWAP2 POP DUP2 ISZERO DUP3 DUP6 DIV DUP3 EQ OR ISZERO PUSH2 0xCEA JUMPI PUSH2 0xD56 SWAP1 DUP5 PUSH2 0xCB9 JUMP JUMPDEST EQ CODESIZE DUP1 PUSH2 0xD2F JUMP INVALID LOG2 PUSH5 0x6970667358 0x22 SLT KECCAK256 0xB6 0xE2 DUP2 0xDB PUSH15 0xF22FFFE74B6F016415922D35C78636 BLOCKHASH DUP3 0xAA PUSH29 0x31D61A366C7A333D64736F6C6343000813003300000000000000000000 "},"methodIdentifiers":{"Dirt()":"eda6e121","Hole()":"af7cfeb1","bark(bytes32,address,address)":"ed998908","cage()":"69245009","cage(bytes32)":"e2702fdc","chop(bytes32)":"d7926538","deny(address)":"9c52a7f1","digs(bytes32,uint256)":"c87193f4","file(bytes32,address)":"d4e8be83","file(bytes32,bytes32,address)":"ebecb39d","file(bytes32,bytes32,uint256)":"1a0b287e","file(bytes32,uint256)":"29ae8114","ilks(bytes32)":"d9638d36","live()":"957aa58c","rely(address)":"65fae35e","vat()":"36569e77","vow()":"626cb3c5","wards(address)":"bf353dbb"}}}}}