{"contracts/End.sol":{"End":{"abi":[{"inputs":[],"stateMutability":"nonpayable","type":"constructor"},{"anonymous":false,"inputs":[],"name":"Cage","type":"event"},{"anonymous":false,"inputs":[{"indexed":true,"internalType":"bytes32","name":"ilk","type":"bytes32"}],"name":"Cage","type":"event"},{"anonymous":false,"inputs":[{"indexed":true,"internalType":"bytes32","name":"ilk","type":"bytes32"},{"indexed":true,"internalType":"address","name":"usr","type":"address"},{"indexed":false,"internalType":"uint256","name":"wad","type":"uint256"}],"name":"Cash","type":"event"},{"anonymous":false,"inputs":[{"indexed":true,"internalType":"bytes32","name":"ilk","type":"bytes32"}],"name":"Flow","type":"event"},{"anonymous":false,"inputs":[{"indexed":true,"internalType":"bytes32","name":"ilk","type":"bytes32"},{"indexed":true,"internalType":"address","name":"usr","type":"address"},{"indexed":false,"internalType":"uint256","name":"ink","type":"uint256"}],"name":"Free","type":"event"},{"anonymous":false,"inputs":[{"indexed":true,"internalType":"address","name":"usr","type":"address"},{"indexed":false,"internalType":"uint256","name":"wad","type":"uint256"}],"name":"Pack","type":"event"},{"anonymous":false,"inputs":[{"indexed":true,"internalType":"bytes32","name":"ilk","type":"bytes32"},{"indexed":true,"internalType":"address","name":"urn","type":"address"},{"indexed":false,"internalType":"uint256","name":"wad","type":"uint256"},{"indexed":false,"internalType":"uint256","name":"art","type":"uint256"}],"name":"Skim","type":"event"},{"anonymous":false,"inputs":[{"indexed":true,"internalType":"bytes32","name":"ilk","type":"bytes32"},{"indexed":true,"internalType":"uint256","name":"id","type":"uint256"}],"name":"Skip","type":"event"},{"anonymous":false,"inputs":[],"name":"Thaw","type":"event"},{"inputs":[{"internalType":"bytes32","name":"","type":"bytes32"}],"name":"Art","outputs":[{"internalType":"uint256","name":"","type":"uint256"}],"stateMutability":"view","type":"function"},{"inputs":[{"internalType":"address","name":"","type":"address"}],"name":"bag","outputs":[{"internalType":"uint256","name":"","type":"uint256"}],"stateMutability":"view","type":"function"},{"inputs":[],"name":"cage","outputs":[],"stateMutability":"nonpayable","type":"function"},{"inputs":[{"internalType":"bytes32","name":"ilk","type":"bytes32"}],"name":"cage","outputs":[],"stateMutability":"nonpayable","type":"function"},{"inputs":[{"internalType":"bytes32","name":"ilk","type":"bytes32"},{"internalType":"uint256","name":"wad","type":"uint256"}],"name":"cash","outputs":[],"stateMutability":"nonpayable","type":"function"},{"inputs":[],"name":"debt","outputs":[{"internalType":"uint256","name":"","type":"uint256"}],"stateMutability":"view","type":"function"},{"inputs":[{"internalType":"address","name":"usr","type":"address"}],"name":"deny","outputs":[],"stateMutability":"nonpayable","type":"function"},{"inputs":[],"name":"dog","outputs":[{"internalType":"contract DogLike","name":"","type":"address"}],"stateMutability":"view","type":"function"},{"inputs":[{"internalType":"bytes32","name":"what","type":"bytes32"},{"internalType":"uint256","name":"data","type":"uint256"}],"name":"file","outputs":[],"stateMutability":"nonpayable","type":"function"},{"inputs":[{"internalType":"bytes32","name":"what","type":"bytes32"},{"internalType":"address","name":"data","type":"address"}],"name":"file","outputs":[],"stateMutability":"nonpayable","type":"function"},{"inputs":[{"internalType":"bytes32","name":"","type":"bytes32"}],"name":"fix","outputs":[{"internalType":"uint256","name":"","type":"uint256"}],"stateMutability":"view","type":"function"},{"inputs":[{"internalType":"bytes32","name":"ilk","type":"bytes32"}],"name":"flow","outputs":[],"stateMutability":"nonpayable","type":"function"},{"inputs":[{"internalType":"bytes32","name":"ilk","type":"bytes32"}],"name":"free","outputs":[],"stateMutability":"nonpayable","type":"function"},{"inputs":[{"internalType":"bytes32","name":"","type":"bytes32"}],"name":"gap","outputs":[{"internalType":"uint256","name":"","type":"uint256"}],"stateMutability":"view","type":"function"},{"inputs":[],"name":"jug","outputs":[{"internalType":"contract JugLike","name":"","type":"address"}],"stateMutability":"view","type":"function"},{"inputs":[],"name":"live","outputs":[{"internalType":"uint256","name":"","type":"uint256"}],"stateMutability":"view","type":"function"},{"inputs":[{"internalType":"bytes32","name":"","type":"bytes32"},{"internalType":"address","name":"","type":"address"}],"name":"out","outputs":[{"internalType":"uint256","name":"","type":"uint256"}],"stateMutability":"view","type":"function"},{"inputs":[{"internalType":"uint256","name":"wad","type":"uint256"}],"name":"pack","outputs":[],"stateMutability":"nonpayable","type":"function"},{"inputs":[],"name":"pot","outputs":[{"internalType":"contract PotLike","name":"","type":"address"}],"stateMutability":"view","type":"function"},{"inputs":[{"internalType":"address","name":"usr","type":"address"}],"name":"rely","outputs":[],"stateMutability":"nonpayable","type":"function"},{"inputs":[{"internalType":"bytes32","name":"ilk","type":"bytes32"},{"internalType":"address","name":"urn","type":"address"}],"name":"skim","outputs":[],"stateMutability":"nonpayable","type":"function"},{"inputs":[{"internalType":"bytes32","name":"ilk","type":"bytes32"},{"internalType":"uint256","name":"id","type":"uint256"}],"name":"skip","outputs":[],"stateMutability":"nonpayable","type":"function"},{"inputs":[],"name":"spot","outputs":[{"internalType":"contract SpotLike","name":"","type":"address"}],"stateMutability":"view","type":"function"},{"inputs":[{"internalType":"bytes32","name":"","type":"bytes32"}],"name":"tag","outputs":[{"internalType":"uint256","name":"","type":"uint256"}],"stateMutability":"view","type":"function"},{"inputs":[],"name":"thaw","outputs":[],"stateMutability":"nonpayable","type":"function"},{"inputs":[],"name":"vat","outputs":[{"internalType":"contract VatLike","name":"","type":"address"}],"stateMutability":"view","type":"function"},{"inputs":[],"name":"vow","outputs":[{"internalType":"contract VowLike","name":"","type":"address"}],"stateMutability":"view","type":"function"},{"inputs":[],"name":"wait","outputs":[{"internalType":"uint256","name":"","type":"uint256"}],"stateMutability":"view","type":"function"},{"inputs":[{"internalType":"address","name":"","type":"address"}],"name":"wards","outputs":[{"internalType":"uint256","name":"","type":"uint256"}],"stateMutability":"view","type":"function"},{"inputs":[],"name":"when","outputs":[{"internalType":"uint256","name":"","type":"uint256"}],"stateMutability":"view","type":"function"}],"evm":{"bytecode":{"linkReferences":{},"object":"6080806040523461002c573360005260006020526001604060002055600160075561178d90816100328239f35b600080fdfe608060408181526004908136101561001657600080fd5b600092833560e01c9081630dca59c1146114375750806329ae8114146113ec57806336569e77146113c35780634a10eaa61461125f5780634ba2363a14611236578063503ecf06146111e65780635920375c14610ffc578063626cb3c514610fd357806363fad85e14610fab57806364bd701314610f8c57806365fae35e14610f465780636924500914610ccb5780636ea4255514610bb05780636f265b9314610b8757806384718d8914610b5f57806389ea45d3146109285780639255f809146108f0578063957aa58c146108d1578381639c52a7f11461088757508063bf353dbb14610850578063c3b3ad7f14610827578063c83062c6146106d4578063c939ebfc14610693578063d4e8be83146104ed578063e1340a3d146104c5578063e2702fdc1461039f578063e2b0caef1461037c578063e6ee62aa14610354578063ee6447b51461032c5763fe8507c61461017057600080fd5b346102f55761017e36611453565b929091828552602091600e835281862054156102f9578560018060a01b0360015416858252600e85526b033b2e3c9fd0803ce80000006101c96101c4868520548a6115e1565b611699565b04813b156102f55782916084839287519485938492633088df1760e11b84528c8a85015230602485015233604485015260648401525af180156102eb576102d3575b508490526010835281862033600052835261022a8583600020546116b9565b848752601084528287203360005284528260002055838652601083528186203360005283528160002054338752600f845282872054106102925750907f888c7c01b06fd8004523e2bc9a274be1feaa9f03579ae5f568061dac078793c991519384523393a380f35b82606492519162461bcd60e51b8352820152601c60248201527f456e642f696e73756666696369656e742d6261672d62616c616e6365000000006044820152fd5b6102dc90611511565b6102e757853861020b565b8580fd5b84513d84823e3d90fd5b8280fd5b82606492519162461bcd60e51b8352820152600f60248201526e115b990bd99a5e0b5b9bdd0b5cd95d608a1b6044820152fd5b5090346102f55760203660031901126102f5576020928291358152600b845220549051908152f35b5090346102f55760203660031901126102f5576020928291358152600c845220549051908152f35b83823461039b578160031936011261039b576020906008549051908152f35b5080fd5b5090346102f55760203660031901126102f5578035916103c16007541561155d565b828452600b60205280842054610494576001548151636cb1c69b60e11b815292830184905260a090839060249082906001600160a01b03165afa91821561048a57849085908694610453575b5090610418916115e1565b838552600d60205281852055600b6020528320557f4a9efa0a0e3f548761a6924fe06ac5cb94ecdbc08b10d855bbcc04e37c4910db8280a280f35b9050610418935061047b915060a03d8111610483575b610473818361153b565b81019061159a565b50509361040d565b503d610469565b81513d86823e3d90fd5b906020606492519162461bcd60e51b8352820152600b60248201526a115b990bdd1859cb5cd95d60aa1b6044820152fd5b5090346102f55760203660031901126102f5576020928291358152600d845220549051908152f35b5090346102f557816003193601126102f55780359161050a61147f565b923385528460205261052160018387205414611495565b61052f6001600754146114d6565b621d985d60ea1b810361055d5750505060018060a01b03166001600160601b0360a01b600154161760015580f35b62646f6760e81b810361058b5750505060018060a01b03166001600160601b0360a01b600254161760025580f35b62766f7760e81b81036105b95750505060018060a01b03166001600160601b0360a01b600354161760035580f35b626a756760e81b81036105e857505080546001600160a01b0319166001600160a01b0390921691909117905580f35b621c1bdd60ea1b81036106165750505060018060a01b03166001600160601b0360a01b600554161760055580f35b631cdc1bdd60e21b0361064357505060018060a01b03166001600160601b0360a01b600654161760065580f35b61068f92505191829162461bcd60e51b8352820160609060208152601b60208201527f456e642f66696c652d756e7265636f676e697a65642d706172616d000000000060408201520190565b0390fd5b5090346102f557816003193601126102f557816020936106b161147f565b9235815260108552209060018060a01b0316600052825280600020549051908152f35b50346102f55760203660031901126102f5578135906106f56007541561155d565b60015481516309092f9760e21b8152808501848152336020820152909486926001600160a01b03908116928590889081906040010381865afa96871561081d5784976107ed575b50600354169161074b87611688565b90803b156107e95784928360c4928994895197889687956301eeacfd60e61b8752860152336024860152336044860152606485015260848401528160a48401525af180156107df576107c7575b5050519182527ff26f2b994a5e16f0960958e62541681f9e3e84d4caac2e487d25e0c75243f0d860203393a380f35b6107d090611511565b6107db578338610798565b8380fd5b83513d84823e3d90fd5b8480fd5b61080e919750853d8711610816575b610806818361153b565b810190611672565b50953861073c565b503d6107fc565b85513d86823e3d90fd5b83823461039b578160031936011261039b5760025490516001600160a01b039091168152602090f35b83823461039b57602036600319011261039b5760209181906001600160a01b03610878611469565b16815280845220549051908152f35b8083346108ce5760203660031901126108ce576108a2611469565b338352826020526108b860018385205414611495565b6001600160a01b03168252602082905281205580f35b50fd5b83823461039b578160031936011261039b576020906007549051908152f35b83823461039b57602036600319011261039b5760209181906001600160a01b03610918611469565b168152600f845220549051908152f35b50346102f557806003193601126102f55781359061094461147f565b90828552600b60205261095b818620541515611634565b60015481516309092f9760e21b81528581018581526001600160a01b0385811660208301529283169491928892918590859081906040010381895afa958615610b555783948497610b30575b5060a08860248b89519485938492636cb1c69b60e11b84528301525afa908115610b26576101c46101c492610a0a928791610b03575b506109f76b033b2e3c9fd0803ce80000009485928c6115e1565b048a8752600b60205288872054906115e1565b0493848111610af957610a3590945b888552600c602052610a2f8688872054926116cd565b906116b9565b878452600c60205285842055806001541690806003541698610a5686611688565b90610a6089611688565b92843b15610af55786948b9460c49487938c51998a9889976301eeacfd60e61b8952880152169e8f60248701523060448701526064860152608485015260a48401525af180156102eb57610ae1575b50507fa05b7b56166c25efbac063da905f9ea6aa1dc5101f95b43c7a838aace979ab599282519182526020820152a380f35b610aea90611511565b6102e7578538610aaf565b8680fd5b50610a3584610a19565b610b1b915060a03d811161048357610473818361153b565b5050509050386109dd565b86513d86823e3d90fd5b909650610b4b919450853d871161081657610806818361153b565b93909395386109a7565b85513d85823e3d90fd5b5090346102f557826003193601126102f5575490516001600160a01b03909116815260209150f35b83823461039b578160031936011261039b5760065490516001600160a01b039091168152602090f35b50346102f55760203660031901126102f557813591610bd2600a5415156116da565b6001546003546001600160a01b03918216926b033b2e3c9fd0803ce800000086810293919290911690861587850482141715610cb6578690840403610cb1578387943b156107e9578492836064928851968795869463bb35783b60e01b86523390860152602485015260448401525af180156107df57610c9d575b5050338352600f602052610c6482828520546116b9565b338452600f60205281842055519081527f47a981d8cbc0f6df64c9be4ce0a423071a088bd46c549bbd11a4d566e031fe0c60203392a280f35b610ca690611511565b6102f5578238610c4d565b600080fd5b601183634e487b7160e01b6000525260246000fd5b5091903461039b578160031936011261039b5733825281602052610cf460018484205414611495565b610d026001600754146114d6565b6007829055426008556001546001600160a01b0393908416803b156107db578151948486858183636924500960e01b968783525af18015610f3c57610f28575b8495508060025416803b156102e757835186816024818363389c0bf760e21b9687835265444f47452d4160d01b8c8401525af18015610f1e57908791610f0a575b5050816002541690813b15610af55786916024839287519485938492835265534849422d4160d01b8b8401525af18015610ec457908691610ef6575b50508060035416803b156102e757858091868651809481938883525af18015610ec457908691610ee2575b505080845416803b156102e757858091868651809481938883525af18015610ec457908691610ece575b50508060055416803b156102e757858091868651809481938883525af18015610ec457908691610eb0575b505060065416803b156107e957849384928451958693849283525af1908115610ea75750610e90575b50807f2308ed18a14e800c39b86eb6ea43270105955ca385b603b64eca89f98ae8fbda91a180f35b610e9990611511565b610ea4578038610e68565b80fd5b513d84823e3d90fd5b610eb990611511565b6107e9578438610e3f565b84513d88823e3d90fd5b610ed790611511565b6107e9578438610e14565b610eeb90611511565b6107e9578438610dea565b610eff90611511565b6107e9578438610dbf565b610f1390611511565b6102e7578538610d83565b85513d89823e3d90fd5b939094610f3490611511565b928490610d42565b83513d87823e3d90fd5b83823461039b57602036600319011261039b57600190610f64611469565b33845283602052610f79838386205414611495565b828060a01b031683528260205282205580f35b83823461039b578160031936011261039b576020906009549051908152f35b5090346102f55760203660031901126102f5576020928291358152600e845220549051908152f35b83823461039b578160031936011261039b5760035490516001600160a01b039091168152602090f35b5090346102f557826003193601126102f55761101a6007541561155d565b600a546111b0576001546003548351633612d9a360e11b81526001600160a01b039182168482015260209391909216918381602481865afa9081156111a6578691611179575b5061113f57611074600854600954906116b9565b4210611104578351630dca59c160e01b8152929182918491829088905af19283156110fb575083926110cd575b5050600a557f4df15159e645ba7d02cadde0bc937abef5ad0134623c00de50a31750b85978b98180a180f35b90809250813d83116110f4575b6110e4818361153b565b8101031261039b575138806110a1565b503d6110da565b513d85823e3d90fd5b835162461bcd60e51b81529081018390526015602482015274115b990bddd85a5d0b5b9bdd0b599a5b9a5cda1959605a1b6044820152606490fd5b835162461bcd60e51b81529081018390526014602482015273456e642f737572706c75732d6e6f742d7a65726f60601b6044820152606490fd5b90508381813d831161119f575b611190818361153b565b810103126102e7575138611060565b503d611186565b85513d88823e3d90fd5b6020606492519162461bcd60e51b83528201526011602482015270456e642f646562742d6e6f742d7a65726f60781b6044820152fd5b83823461039b5761120f906111fa36611453565b929091828552600b6020528420541515611634565b7f6687d56ee64642c36984a8548f81634355badcb14a3278fc67746da597b2ab848380a380f35b83823461039b578160031936011261039b5760055490516001600160a01b039091168152602090f35b50346102f557602090816003193601126107db576024833593611285600a5415156116da565b6001548351636cb1c69b60e11b81528281018790529260a09184919082906001600160a01b03165afa9182156113b9578692611394575b50848652600e84528286205461136357506113346113236113126b033b2e3c9fd0803ce80000006112fc6101c4600e968a8c52600d8a52888c20546115e1565b04878952600d875280868a2055600a549061171b565b868852600c865284882054906116cd565b858752600d8552838720549061171b565b92848652528320557f8d1d5ae676a6db1f6f14414f8a6c78941bbfb700fe3f3be6d3245f26c2f2d5508280a280f35b825162461bcd60e51b8152908101849052600b60248201526a115b990bd99a5e0b5cd95d60aa1b6044820152606490fd5b6113ad91925060a03d811161048357610473818361153b565b505050905090386112bc565b83513d88823e3d90fd5b83823461039b578160031936011261039b5760015490516001600160a01b039091168152602090f35b5090346102f5576113fc36611453565b92903385528460205261141460018387205414611495565b6114226001600754146114d6565b631dd85a5d60e21b0361064357505060095580f35b84903461039b578160031936011261039b57602090600a548152f35b6040906003190112610cb1576004359060243590565b600435906001600160a01b0382168203610cb157565b602435906001600160a01b0382168203610cb157565b1561149c57565b60405162461bcd60e51b8152602060048201526012602482015271115b990bdb9bdd0b585d5d1a1bdc9a5e995960721b6044820152606490fd5b156114dd57565b60405162461bcd60e51b815260206004820152600c60248201526b456e642f6e6f742d6c69766560a01b6044820152606490fd5b67ffffffffffffffff811161152557604052565b634e487b7160e01b600052604160045260246000fd5b90601f8019910116810190811067ffffffffffffffff82111761152557604052565b1561156457565b60405162461bcd60e51b815260206004820152600e60248201526d456e642f7374696c6c2d6c69766560901b6044820152606490fd5b908160a0910312610cb1578051916020820151916040810151916080606083015192015190565b81156115cb570490565b634e487b7160e01b600052601260045260246000fd5b6000929180159182156115f8575b505015610cb157565b8082029450915081158285048214171561161e5761161690846115c1565b1438806115ef565b634e487b7160e01b600052601160045260246000fd5b1561163b57565b60405162461bcd60e51b815260206004820152600f60248201526e115b990bdd1859cb5b9bdd0b5cd95d608a1b6044820152606490fd5b9190826040910312610cb1576020825192015190565b600160ff1b811461161e5760000390565b906b019d971e4fe8401e7400000082019182811161161e578210610cb157565b919082019182811161161e578210610cb157565b90810390811161161e5790565b156116e157565b60405162461bcd60e51b8152602060048201526012602482015271456e642f6e6f742d70726f63657373696e6760701b6044820152606490fd5b90670de0b6b3a7640000918281029281840481148215171561161e57830403610cb15761174f611754928260011c906116b9565b6115c1565b9056fea2646970667358221220398474ebb0ff85066fb2ea7efde4a1d85571fa24db5cfad84dab7f3210c930ba64736f6c63430008130033","opcodes":"PUSH1 0x80 DUP1 PUSH1 0x40 MSTORE CALLVALUE PUSH2 0x2C JUMPI CALLER PUSH1 0x0 MSTORE PUSH1 0x0 PUSH1 0x20 MSTORE PUSH1 0x1 PUSH1 0x40 PUSH1 0x0 KECCAK256 SSTORE PUSH1 0x1 PUSH1 0x7 SSTORE PUSH2 0x178D SWAP1 DUP2 PUSH2 0x32 DUP3 CODECOPY RETURN JUMPDEST PUSH1 0x0 DUP1 REVERT INVALID PUSH1 0x80 PUSH1 0x40 DUP2 DUP2 MSTORE PUSH1 0x4 SWAP1 DUP2 CALLDATASIZE LT ISZERO PUSH2 0x16 JUMPI PUSH1 0x0 DUP1 REVERT JUMPDEST PUSH1 0x0 SWAP3 DUP4 CALLDATALOAD PUSH1 0xE0 SHR SWAP1 DUP2 PUSH4 0xDCA59C1 EQ PUSH2 0x1437 JUMPI POP DUP1 PUSH4 0x29AE8114 EQ PUSH2 0x13EC JUMPI DUP1 PUSH4 0x36569E77 EQ PUSH2 0x13C3 JUMPI DUP1 PUSH4 0x4A10EAA6 EQ PUSH2 0x125F JUMPI DUP1 PUSH4 0x4BA2363A EQ PUSH2 0x1236 JUMPI DUP1 PUSH4 0x503ECF06 EQ PUSH2 0x11E6 JUMPI DUP1 PUSH4 0x5920375C EQ PUSH2 0xFFC JUMPI DUP1 PUSH4 0x626CB3C5 EQ PUSH2 0xFD3 JUMPI DUP1 PUSH4 0x63FAD85E EQ PUSH2 0xFAB JUMPI DUP1 PUSH4 0x64BD7013 EQ PUSH2 0xF8C JUMPI DUP1 PUSH4 0x65FAE35E EQ PUSH2 0xF46 JUMPI DUP1 PUSH4 0x69245009 EQ PUSH2 0xCCB JUMPI DUP1 PUSH4 0x6EA42555 EQ PUSH2 0xBB0 JUMPI DUP1 PUSH4 0x6F265B93 EQ PUSH2 0xB87 JUMPI DUP1 PUSH4 0x84718D89 EQ PUSH2 0xB5F JUMPI DUP1 PUSH4 0x89EA45D3 EQ PUSH2 0x928 JUMPI DUP1 PUSH4 0x9255F809 EQ PUSH2 0x8F0 JUMPI DUP1 PUSH4 0x957AA58C EQ PUSH2 0x8D1 JUMPI DUP4 DUP2 PUSH4 0x9C52A7F1 EQ PUSH2 0x887 JUMPI POP DUP1 PUSH4 0xBF353DBB EQ PUSH2 0x850 JUMPI DUP1 PUSH4 0xC3B3AD7F EQ PUSH2 0x827 JUMPI DUP1 PUSH4 0xC83062C6 EQ PUSH2 0x6D4 JUMPI DUP1 PUSH4 0xC939EBFC EQ PUSH2 0x693 JUMPI DUP1 PUSH4 0xD4E8BE83 EQ PUSH2 0x4ED JUMPI DUP1 PUSH4 0xE1340A3D EQ PUSH2 0x4C5 JUMPI DUP1 PUSH4 0xE2702FDC EQ PUSH2 0x39F JUMPI DUP1 PUSH4 0xE2B0CAEF EQ PUSH2 0x37C JUMPI DUP1 PUSH4 0xE6EE62AA EQ PUSH2 0x354 JUMPI DUP1 PUSH4 0xEE6447B5 EQ PUSH2 0x32C JUMPI PUSH4 0xFE8507C6 EQ PUSH2 0x170 JUMPI PUSH1 0x0 DUP1 REVERT JUMPDEST CALLVALUE PUSH2 0x2F5 JUMPI PUSH2 0x17E CALLDATASIZE PUSH2 0x1453 JUMP JUMPDEST SWAP3 SWAP1 SWAP2 DUP3 DUP6 MSTORE PUSH1 0x20 SWAP2 PUSH1 0xE DUP4 MSTORE DUP2 DUP7 KECCAK256 SLOAD ISZERO PUSH2 0x2F9 JUMPI DUP6 PUSH1 0x1 DUP1 PUSH1 0xA0 SHL SUB PUSH1 0x1 SLOAD AND DUP6 DUP3 MSTORE PUSH1 0xE DUP6 MSTORE PUSH12 0x33B2E3C9FD0803CE8000000 PUSH2 0x1C9 PUSH2 0x1C4 DUP7 DUP6 KECCAK256 SLOAD DUP11 PUSH2 0x15E1 JUMP JUMPDEST PUSH2 0x1699 JUMP JUMPDEST DIV DUP2 EXTCODESIZE ISZERO PUSH2 0x2F5 JUMPI DUP3 SWAP2 PUSH1 0x84 DUP4 SWAP3 DUP8 MLOAD SWAP5 DUP6 SWAP4 DUP5 SWAP3 PUSH4 0x3088DF17 PUSH1 0xE1 SHL DUP5 MSTORE DUP13 DUP11 DUP6 ADD MSTORE ADDRESS PUSH1 0x24 DUP6 ADD MSTORE CALLER PUSH1 0x44 DUP6 ADD MSTORE PUSH1 0x64 DUP5 ADD MSTORE GAS CALL DUP1 ISZERO PUSH2 0x2EB JUMPI PUSH2 0x2D3 JUMPI JUMPDEST POP DUP5 SWAP1 MSTORE PUSH1 0x10 DUP4 MSTORE DUP2 DUP7 KECCAK256 CALLER PUSH1 0x0 MSTORE DUP4 MSTORE PUSH2 0x22A DUP6 DUP4 PUSH1 0x0 KECCAK256 SLOAD PUSH2 0x16B9 JUMP JUMPDEST DUP5 DUP8 MSTORE PUSH1 0x10 DUP5 MSTORE DUP3 DUP8 KECCAK256 CALLER PUSH1 0x0 MSTORE DUP5 MSTORE DUP3 PUSH1 0x0 KECCAK256 SSTORE DUP4 DUP7 MSTORE PUSH1 0x10 DUP4 MSTORE DUP2 DUP7 KECCAK256 CALLER PUSH1 0x0 MSTORE DUP4 MSTORE DUP2 PUSH1 0x0 KECCAK256 SLOAD CALLER DUP8 MSTORE PUSH1 0xF DUP5 MSTORE DUP3 DUP8 KECCAK256 SLOAD LT PUSH2 0x292 JUMPI POP SWAP1 PUSH32 0x888C7C01B06FD8004523E2BC9A274BE1FEAA9F03579AE5F568061DAC078793C9 SWAP2 MLOAD SWAP4 DUP5 MSTORE CALLER SWAP4 LOG3 DUP1 RETURN JUMPDEST DUP3 PUSH1 0x64 SWAP3 MLOAD SWAP2 PUSH3 0x461BCD PUSH1 0xE5 SHL DUP4 MSTORE DUP3 ADD MSTORE PUSH1 0x1C PUSH1 0x24 DUP3 ADD MSTORE PUSH32 0x456E642F696E73756666696369656E742D6261672D62616C616E636500000000 PUSH1 0x44 DUP3 ADD MSTORE REVERT JUMPDEST PUSH2 0x2DC SWAP1 PUSH2 0x1511 JUMP JUMPDEST PUSH2 0x2E7 JUMPI DUP6 CODESIZE PUSH2 0x20B JUMP JUMPDEST DUP6 DUP1 REVERT JUMPDEST DUP5 MLOAD RETURNDATASIZE DUP5 DUP3 RETURNDATACOPY RETURNDATASIZE SWAP1 REVERT JUMPDEST DUP3 DUP1 REVERT JUMPDEST DUP3 PUSH1 0x64 SWAP3 MLOAD SWAP2 PUSH3 0x461BCD PUSH1 0xE5 SHL DUP4 MSTORE DUP3 ADD MSTORE PUSH1 0xF PUSH1 0x24 DUP3 ADD MSTORE PUSH15 0x115B990BD99A5E0B5B9BDD0B5CD95D PUSH1 0x8A SHL PUSH1 0x44 DUP3 ADD MSTORE REVERT JUMPDEST POP SWAP1 CALLVALUE PUSH2 0x2F5 JUMPI PUSH1 0x20 CALLDATASIZE PUSH1 0x3 NOT ADD SLT PUSH2 0x2F5 JUMPI PUSH1 0x20 SWAP3 DUP3 SWAP2 CALLDATALOAD DUP2 MSTORE PUSH1 0xB DUP5 MSTORE KECCAK256 SLOAD SWAP1 MLOAD SWAP1 DUP2 MSTORE RETURN JUMPDEST POP SWAP1 CALLVALUE PUSH2 0x2F5 JUMPI PUSH1 0x20 CALLDATASIZE PUSH1 0x3 NOT ADD SLT PUSH2 0x2F5 JUMPI PUSH1 0x20 SWAP3 DUP3 SWAP2 CALLDATALOAD DUP2 MSTORE PUSH1 0xC DUP5 MSTORE KECCAK256 SLOAD SWAP1 MLOAD SWAP1 DUP2 MSTORE RETURN JUMPDEST DUP4 DUP3 CALLVALUE PUSH2 0x39B JUMPI DUP2 PUSH1 0x3 NOT CALLDATASIZE ADD SLT PUSH2 0x39B JUMPI PUSH1 0x20 SWAP1 PUSH1 0x8 SLOAD SWAP1 MLOAD SWAP1 DUP2 MSTORE RETURN JUMPDEST POP DUP1 REVERT JUMPDEST POP SWAP1 CALLVALUE PUSH2 0x2F5 JUMPI PUSH1 0x20 CALLDATASIZE PUSH1 0x3 NOT ADD SLT PUSH2 0x2F5 JUMPI DUP1 CALLDATALOAD SWAP2 PUSH2 0x3C1 PUSH1 0x7 SLOAD ISZERO PUSH2 0x155D JUMP JUMPDEST DUP3 DUP5 MSTORE PUSH1 0xB PUSH1 0x20 MSTORE DUP1 DUP5 KECCAK256 SLOAD PUSH2 0x494 JUMPI PUSH1 0x1 SLOAD DUP2 MLOAD PUSH4 0x6CB1C69B PUSH1 0xE1 SHL DUP2 MSTORE SWAP3 DUP4 ADD DUP5 SWAP1 MSTORE PUSH1 0xA0 SWAP1 DUP4 SWAP1 PUSH1 0x24 SWAP1 DUP3 SWAP1 PUSH1 0x1 PUSH1 0x1 PUSH1 0xA0 SHL SUB AND GAS STATICCALL SWAP2 DUP3 ISZERO PUSH2 0x48A JUMPI DUP5 SWAP1 DUP6 SWAP1 DUP7 SWAP5 PUSH2 0x453 JUMPI JUMPDEST POP SWAP1 PUSH2 0x418 SWAP2 PUSH2 0x15E1 JUMP JUMPDEST DUP4 DUP6 MSTORE PUSH1 0xD PUSH1 0x20 MSTORE DUP2 DUP6 KECCAK256 SSTORE PUSH1 0xB PUSH1 0x20 MSTORE DUP4 KECCAK256 SSTORE PUSH32 0x4A9EFA0A0E3F548761A6924FE06AC5CB94ECDBC08B10D855BBCC04E37C4910DB DUP3 DUP1 LOG2 DUP1 RETURN JUMPDEST SWAP1 POP PUSH2 0x418 SWAP4 POP PUSH2 0x47B SWAP2 POP PUSH1 0xA0 RETURNDATASIZE DUP2 GT PUSH2 0x483 JUMPI JUMPDEST PUSH2 0x473 DUP2 DUP4 PUSH2 0x153B JUMP JUMPDEST DUP2 ADD SWAP1 PUSH2 0x159A JUMP JUMPDEST POP POP SWAP4 PUSH2 0x40D JUMP JUMPDEST POP RETURNDATASIZE PUSH2 0x469 JUMP JUMPDEST DUP2 MLOAD RETURNDATASIZE DUP7 DUP3 RETURNDATACOPY RETURNDATASIZE SWAP1 REVERT JUMPDEST SWAP1 PUSH1 0x20 PUSH1 0x64 SWAP3 MLOAD SWAP2 PUSH3 0x461BCD PUSH1 0xE5 SHL DUP4 MSTORE DUP3 ADD MSTORE PUSH1 0xB PUSH1 0x24 DUP3 ADD MSTORE PUSH11 0x115B990BDD1859CB5CD95D PUSH1 0xAA SHL PUSH1 0x44 DUP3 ADD MSTORE REVERT JUMPDEST POP SWAP1 CALLVALUE PUSH2 0x2F5 JUMPI PUSH1 0x20 CALLDATASIZE PUSH1 0x3 NOT ADD SLT PUSH2 0x2F5 JUMPI PUSH1 0x20 SWAP3 DUP3 SWAP2 CALLDATALOAD DUP2 MSTORE PUSH1 0xD DUP5 MSTORE KECCAK256 SLOAD SWAP1 MLOAD SWAP1 DUP2 MSTORE RETURN JUMPDEST POP SWAP1 CALLVALUE PUSH2 0x2F5 JUMPI DUP2 PUSH1 0x3 NOT CALLDATASIZE ADD SLT PUSH2 0x2F5 JUMPI DUP1 CALLDATALOAD SWAP2 PUSH2 0x50A PUSH2 0x147F JUMP JUMPDEST SWAP3 CALLER DUP6 MSTORE DUP5 PUSH1 0x20 MSTORE PUSH2 0x521 PUSH1 0x1 DUP4 DUP8 KECCAK256 SLOAD EQ PUSH2 0x1495 JUMP JUMPDEST PUSH2 0x52F PUSH1 0x1 PUSH1 0x7 SLOAD EQ PUSH2 0x14D6 JUMP JUMPDEST PUSH3 0x1D985D PUSH1 0xEA SHL DUP2 SUB PUSH2 0x55D JUMPI POP POP POP PUSH1 0x1 DUP1 PUSH1 0xA0 SHL SUB AND PUSH1 0x1 PUSH1 0x1 PUSH1 0x60 SHL SUB PUSH1 0xA0 SHL PUSH1 0x1 SLOAD AND OR PUSH1 0x1 SSTORE DUP1 RETURN JUMPDEST PUSH3 0x646F67 PUSH1 0xE8 SHL DUP2 SUB PUSH2 0x58B JUMPI POP POP POP PUSH1 0x1 DUP1 PUSH1 0xA0 SHL SUB AND PUSH1 0x1 PUSH1 0x1 PUSH1 0x60 SHL SUB PUSH1 0xA0 SHL PUSH1 0x2 SLOAD AND OR PUSH1 0x2 SSTORE DUP1 RETURN JUMPDEST PUSH3 0x766F77 PUSH1 0xE8 SHL DUP2 SUB PUSH2 0x5B9 JUMPI POP POP POP PUSH1 0x1 DUP1 PUSH1 0xA0 SHL SUB AND PUSH1 0x1 PUSH1 0x1 PUSH1 0x60 SHL SUB PUSH1 0xA0 SHL PUSH1 0x3 SLOAD AND OR PUSH1 0x3 SSTORE DUP1 RETURN JUMPDEST PUSH3 0x6A7567 PUSH1 0xE8 SHL DUP2 SUB PUSH2 0x5E8 JUMPI POP POP DUP1 SLOAD PUSH1 0x1 PUSH1 0x1 PUSH1 0xA0 SHL SUB NOT AND PUSH1 0x1 PUSH1 0x1 PUSH1 0xA0 SHL SUB SWAP1 SWAP3 AND SWAP2 SWAP1 SWAP2 OR SWAP1 SSTORE DUP1 RETURN JUMPDEST PUSH3 0x1C1BDD PUSH1 0xEA SHL DUP2 SUB PUSH2 0x616 JUMPI POP POP POP PUSH1 0x1 DUP1 PUSH1 0xA0 SHL SUB AND PUSH1 0x1 PUSH1 0x1 PUSH1 0x60 SHL SUB PUSH1 0xA0 SHL PUSH1 0x5 SLOAD AND OR PUSH1 0x5 SSTORE DUP1 RETURN JUMPDEST PUSH4 0x1CDC1BDD PUSH1 0xE2 SHL SUB PUSH2 0x643 JUMPI POP POP PUSH1 0x1 DUP1 PUSH1 0xA0 SHL SUB AND PUSH1 0x1 PUSH1 0x1 PUSH1 0x60 SHL SUB PUSH1 0xA0 SHL PUSH1 0x6 SLOAD AND OR PUSH1 0x6 SSTORE DUP1 RETURN JUMPDEST PUSH2 0x68F SWAP3 POP MLOAD SWAP2 DUP3 SWAP2 PUSH3 0x461BCD PUSH1 0xE5 SHL DUP4 MSTORE DUP3 ADD PUSH1 0x60 SWAP1 PUSH1 0x20 DUP2 MSTORE PUSH1 0x1B PUSH1 0x20 DUP3 ADD MSTORE PUSH32 0x456E642F66696C652D756E7265636F676E697A65642D706172616D0000000000 PUSH1 0x40 DUP3 ADD MSTORE ADD SWAP1 JUMP JUMPDEST SUB SWAP1 REVERT JUMPDEST POP SWAP1 CALLVALUE PUSH2 0x2F5 JUMPI DUP2 PUSH1 0x3 NOT CALLDATASIZE ADD SLT PUSH2 0x2F5 JUMPI DUP2 PUSH1 0x20 SWAP4 PUSH2 0x6B1 PUSH2 0x147F JUMP JUMPDEST SWAP3 CALLDATALOAD DUP2 MSTORE PUSH1 0x10 DUP6 MSTORE KECCAK256 SWAP1 PUSH1 0x1 DUP1 PUSH1 0xA0 SHL SUB AND PUSH1 0x0 MSTORE DUP3 MSTORE DUP1 PUSH1 0x0 KECCAK256 SLOAD SWAP1 MLOAD SWAP1 DUP2 MSTORE RETURN JUMPDEST POP CALLVALUE PUSH2 0x2F5 JUMPI PUSH1 0x20 CALLDATASIZE PUSH1 0x3 NOT ADD SLT PUSH2 0x2F5 JUMPI DUP2 CALLDATALOAD SWAP1 PUSH2 0x6F5 PUSH1 0x7 SLOAD ISZERO PUSH2 0x155D JUMP JUMPDEST PUSH1 0x1 SLOAD DUP2 MLOAD PUSH4 0x9092F97 PUSH1 0xE2 SHL DUP2 MSTORE DUP1 DUP6 ADD DUP5 DUP2 MSTORE CALLER PUSH1 0x20 DUP3 ADD MSTORE SWAP1 SWAP5 DUP7 SWAP3 PUSH1 0x1 PUSH1 0x1 PUSH1 0xA0 SHL SUB SWAP1 DUP2 AND SWAP3 DUP6 SWAP1 DUP9 SWAP1 DUP2 SWAP1 PUSH1 0x40 ADD SUB DUP2 DUP7 GAS STATICCALL SWAP7 DUP8 ISZERO PUSH2 0x81D JUMPI DUP5 SWAP8 PUSH2 0x7ED JUMPI JUMPDEST POP PUSH1 0x3 SLOAD AND SWAP2 PUSH2 0x74B DUP8 PUSH2 0x1688 JUMP JUMPDEST SWAP1 DUP1 EXTCODESIZE ISZERO PUSH2 0x7E9 JUMPI DUP5 SWAP3 DUP4 PUSH1 0xC4 SWAP3 DUP10 SWAP5 DUP10 MLOAD SWAP8 DUP9 SWAP7 DUP8 SWAP6 PUSH4 0x1EEACFD PUSH1 0xE6 SHL DUP8 MSTORE DUP7 ADD MSTORE CALLER PUSH1 0x24 DUP7 ADD MSTORE CALLER PUSH1 0x44 DUP7 ADD MSTORE PUSH1 0x64 DUP6 ADD MSTORE PUSH1 0x84 DUP5 ADD MSTORE DUP2 PUSH1 0xA4 DUP5 ADD MSTORE GAS CALL DUP1 ISZERO PUSH2 0x7DF JUMPI PUSH2 0x7C7 JUMPI JUMPDEST POP POP MLOAD SWAP2 DUP3 MSTORE PUSH32 0xF26F2B994A5E16F0960958E62541681F9E3E84D4CAAC2E487D25E0C75243F0D8 PUSH1 0x20 CALLER SWAP4 LOG3 DUP1 RETURN JUMPDEST PUSH2 0x7D0 SWAP1 PUSH2 0x1511 JUMP JUMPDEST PUSH2 0x7DB JUMPI DUP4 CODESIZE PUSH2 0x798 JUMP JUMPDEST DUP4 DUP1 REVERT JUMPDEST DUP4 MLOAD RETURNDATASIZE DUP5 DUP3 RETURNDATACOPY RETURNDATASIZE SWAP1 REVERT JUMPDEST DUP5 DUP1 REVERT JUMPDEST PUSH2 0x80E SWAP2 SWAP8 POP DUP6 RETURNDATASIZE DUP8 GT PUSH2 0x816 JUMPI JUMPDEST PUSH2 0x806 DUP2 DUP4 PUSH2 0x153B JUMP JUMPDEST DUP2 ADD SWAP1 PUSH2 0x1672 JUMP JUMPDEST POP SWAP6 CODESIZE PUSH2 0x73C JUMP JUMPDEST POP RETURNDATASIZE PUSH2 0x7FC JUMP JUMPDEST DUP6 MLOAD RETURNDATASIZE DUP7 DUP3 RETURNDATACOPY RETURNDATASIZE SWAP1 REVERT JUMPDEST DUP4 DUP3 CALLVALUE PUSH2 0x39B JUMPI DUP2 PUSH1 0x3 NOT CALLDATASIZE ADD SLT PUSH2 0x39B JUMPI PUSH1 0x2 SLOAD SWAP1 MLOAD PUSH1 0x1 PUSH1 0x1 PUSH1 0xA0 SHL SUB SWAP1 SWAP2 AND DUP2 MSTORE PUSH1 0x20 SWAP1 RETURN JUMPDEST DUP4 DUP3 CALLVALUE PUSH2 0x39B JUMPI PUSH1 0x20 CALLDATASIZE PUSH1 0x3 NOT ADD SLT PUSH2 0x39B JUMPI PUSH1 0x20 SWAP2 DUP2 SWAP1 PUSH1 0x1 PUSH1 0x1 PUSH1 0xA0 SHL SUB PUSH2 0x878 PUSH2 0x1469 JUMP JUMPDEST AND DUP2 MSTORE DUP1 DUP5 MSTORE KECCAK256 SLOAD SWAP1 MLOAD SWAP1 DUP2 MSTORE RETURN JUMPDEST DUP1 DUP4 CALLVALUE PUSH2 0x8CE JUMPI PUSH1 0x20 CALLDATASIZE PUSH1 0x3 NOT ADD SLT PUSH2 0x8CE JUMPI PUSH2 0x8A2 PUSH2 0x1469 JUMP JUMPDEST CALLER DUP4 MSTORE DUP3 PUSH1 0x20 MSTORE PUSH2 0x8B8 PUSH1 0x1 DUP4 DUP6 KECCAK256 SLOAD EQ PUSH2 0x1495 JUMP JUMPDEST PUSH1 0x1 PUSH1 0x1 PUSH1 0xA0 SHL SUB AND DUP3 MSTORE PUSH1 0x20 DUP3 SWAP1 MSTORE DUP2 KECCAK256 SSTORE DUP1 RETURN JUMPDEST POP REVERT JUMPDEST DUP4 DUP3 CALLVALUE PUSH2 0x39B JUMPI DUP2 PUSH1 0x3 NOT CALLDATASIZE ADD SLT PUSH2 0x39B JUMPI PUSH1 0x20 SWAP1 PUSH1 0x7 SLOAD SWAP1 MLOAD SWAP1 DUP2 MSTORE RETURN JUMPDEST DUP4 DUP3 CALLVALUE PUSH2 0x39B JUMPI PUSH1 0x20 CALLDATASIZE PUSH1 0x3 NOT ADD SLT PUSH2 0x39B JUMPI PUSH1 0x20 SWAP2 DUP2 SWAP1 PUSH1 0x1 PUSH1 0x1 PUSH1 0xA0 SHL SUB PUSH2 0x918 PUSH2 0x1469 JUMP JUMPDEST AND DUP2 MSTORE PUSH1 0xF DUP5 MSTORE KECCAK256 SLOAD SWAP1 MLOAD SWAP1 DUP2 MSTORE RETURN JUMPDEST POP CALLVALUE PUSH2 0x2F5 JUMPI DUP1 PUSH1 0x3 NOT CALLDATASIZE ADD SLT PUSH2 0x2F5 JUMPI DUP2 CALLDATALOAD SWAP1 PUSH2 0x944 PUSH2 0x147F JUMP JUMPDEST SWAP1 DUP3 DUP6 MSTORE PUSH1 0xB PUSH1 0x20 MSTORE PUSH2 0x95B DUP2 DUP7 KECCAK256 SLOAD ISZERO ISZERO PUSH2 0x1634 JUMP JUMPDEST PUSH1 0x1 SLOAD DUP2 MLOAD PUSH4 0x9092F97 PUSH1 0xE2 SHL DUP2 MSTORE DUP6 DUP2 ADD DUP6 DUP2 MSTORE PUSH1 0x1 PUSH1 0x1 PUSH1 0xA0 SHL SUB DUP6 DUP2 AND PUSH1 0x20 DUP4 ADD MSTORE SWAP3 DUP4 AND SWAP5 SWAP2 SWAP3 DUP9 SWAP3 SWAP2 DUP6 SWAP1 DUP6 SWAP1 DUP2 SWAP1 PUSH1 0x40 ADD SUB DUP2 DUP10 GAS STATICCALL SWAP6 DUP7 ISZERO PUSH2 0xB55 JUMPI DUP4 SWAP5 DUP5 SWAP8 PUSH2 0xB30 JUMPI JUMPDEST POP PUSH1 0xA0 DUP9 PUSH1 0x24 DUP12 DUP10 MLOAD SWAP5 DUP6 SWAP4 DUP5 SWAP3 PUSH4 0x6CB1C69B PUSH1 0xE1 SHL DUP5 MSTORE DUP4 ADD MSTORE GAS STATICCALL SWAP1 DUP2 ISZERO PUSH2 0xB26 JUMPI PUSH2 0x1C4 PUSH2 0x1C4 SWAP3 PUSH2 0xA0A SWAP3 DUP8 SWAP2 PUSH2 0xB03 JUMPI JUMPDEST POP PUSH2 0x9F7 PUSH12 0x33B2E3C9FD0803CE8000000 SWAP5 DUP6 SWAP3 DUP13 PUSH2 0x15E1 JUMP JUMPDEST DIV DUP11 DUP8 MSTORE PUSH1 0xB PUSH1 0x20 MSTORE DUP9 DUP8 KECCAK256 SLOAD SWAP1 PUSH2 0x15E1 JUMP JUMPDEST DIV SWAP4 DUP5 DUP2 GT PUSH2 0xAF9 JUMPI PUSH2 0xA35 SWAP1 SWAP5 JUMPDEST DUP9 DUP6 MSTORE PUSH1 0xC PUSH1 0x20 MSTORE PUSH2 0xA2F DUP7 DUP9 DUP8 KECCAK256 SLOAD SWAP3 PUSH2 0x16CD JUMP JUMPDEST SWAP1 PUSH2 0x16B9 JUMP JUMPDEST DUP8 DUP5 MSTORE PUSH1 0xC PUSH1 0x20 MSTORE DUP6 DUP5 KECCAK256 SSTORE DUP1 PUSH1 0x1 SLOAD AND SWAP1 DUP1 PUSH1 0x3 SLOAD AND SWAP9 PUSH2 0xA56 DUP7 PUSH2 0x1688 JUMP JUMPDEST SWAP1 PUSH2 0xA60 DUP10 PUSH2 0x1688 JUMP JUMPDEST SWAP3 DUP5 EXTCODESIZE ISZERO PUSH2 0xAF5 JUMPI DUP7 SWAP5 DUP12 SWAP5 PUSH1 0xC4 SWAP5 DUP8 SWAP4 DUP13 MLOAD SWAP10 DUP11 SWAP9 DUP10 SWAP8 PUSH4 0x1EEACFD PUSH1 0xE6 SHL DUP10 MSTORE DUP9 ADD MSTORE AND SWAP15 DUP16 PUSH1 0x24 DUP8 ADD MSTORE ADDRESS PUSH1 0x44 DUP8 ADD MSTORE PUSH1 0x64 DUP7 ADD MSTORE PUSH1 0x84 DUP6 ADD MSTORE PUSH1 0xA4 DUP5 ADD MSTORE GAS CALL DUP1 ISZERO PUSH2 0x2EB JUMPI PUSH2 0xAE1 JUMPI JUMPDEST POP POP PUSH32 0xA05B7B56166C25EFBAC063DA905F9EA6AA1DC5101F95B43C7A838AACE979AB59 SWAP3 DUP3 MLOAD SWAP2 DUP3 MSTORE PUSH1 0x20 DUP3 ADD MSTORE LOG3 DUP1 RETURN JUMPDEST PUSH2 0xAEA SWAP1 PUSH2 0x1511 JUMP JUMPDEST PUSH2 0x2E7 JUMPI DUP6 CODESIZE PUSH2 0xAAF JUMP JUMPDEST DUP7 DUP1 REVERT JUMPDEST POP PUSH2 0xA35 DUP5 PUSH2 0xA19 JUMP JUMPDEST PUSH2 0xB1B SWAP2 POP PUSH1 0xA0 RETURNDATASIZE DUP2 GT PUSH2 0x483 JUMPI PUSH2 0x473 DUP2 DUP4 PUSH2 0x153B JUMP JUMPDEST POP POP POP SWAP1 POP CODESIZE PUSH2 0x9DD JUMP JUMPDEST DUP7 MLOAD RETURNDATASIZE DUP7 DUP3 RETURNDATACOPY RETURNDATASIZE SWAP1 REVERT JUMPDEST SWAP1 SWAP7 POP PUSH2 0xB4B SWAP2 SWAP5 POP DUP6 RETURNDATASIZE DUP8 GT PUSH2 0x816 JUMPI PUSH2 0x806 DUP2 DUP4 PUSH2 0x153B JUMP JUMPDEST SWAP4 SWAP1 SWAP4 SWAP6 CODESIZE PUSH2 0x9A7 JUMP JUMPDEST DUP6 MLOAD RETURNDATASIZE DUP6 DUP3 RETURNDATACOPY RETURNDATASIZE SWAP1 REVERT JUMPDEST POP SWAP1 CALLVALUE PUSH2 0x2F5 JUMPI DUP3 PUSH1 0x3 NOT CALLDATASIZE ADD SLT PUSH2 0x2F5 JUMPI SLOAD SWAP1 MLOAD PUSH1 0x1 PUSH1 0x1 PUSH1 0xA0 SHL SUB SWAP1 SWAP2 AND DUP2 MSTORE PUSH1 0x20 SWAP2 POP RETURN JUMPDEST DUP4 DUP3 CALLVALUE PUSH2 0x39B JUMPI DUP2 PUSH1 0x3 NOT CALLDATASIZE ADD SLT PUSH2 0x39B JUMPI PUSH1 0x6 SLOAD SWAP1 MLOAD PUSH1 0x1 PUSH1 0x1 PUSH1 0xA0 SHL SUB SWAP1 SWAP2 AND DUP2 MSTORE PUSH1 0x20 SWAP1 RETURN JUMPDEST POP CALLVALUE PUSH2 0x2F5 JUMPI PUSH1 0x20 CALLDATASIZE PUSH1 0x3 NOT ADD SLT PUSH2 0x2F5 JUMPI DUP2 CALLDATALOAD SWAP2 PUSH2 0xBD2 PUSH1 0xA SLOAD ISZERO ISZERO PUSH2 0x16DA JUMP JUMPDEST PUSH1 0x1 SLOAD PUSH1 0x3 SLOAD PUSH1 0x1 PUSH1 0x1 PUSH1 0xA0 SHL SUB SWAP2 DUP3 AND SWAP3 PUSH12 0x33B2E3C9FD0803CE8000000 DUP7 DUP2 MUL SWAP4 SWAP2 SWAP3 SWAP1 SWAP2 AND SWAP1 DUP7 ISZERO DUP8 DUP6 DIV DUP3 EQ OR ISZERO PUSH2 0xCB6 JUMPI DUP7 SWAP1 DUP5 DIV SUB PUSH2 0xCB1 JUMPI DUP4 DUP8 SWAP5 EXTCODESIZE ISZERO PUSH2 0x7E9 JUMPI DUP5 SWAP3 DUP4 PUSH1 0x64 SWAP3 DUP9 MLOAD SWAP7 DUP8 SWAP6 DUP7 SWAP5 PUSH4 0xBB35783B PUSH1 0xE0 SHL DUP7 MSTORE CALLER SWAP1 DUP7 ADD MSTORE PUSH1 0x24 DUP6 ADD MSTORE PUSH1 0x44 DUP5 ADD MSTORE GAS CALL DUP1 ISZERO PUSH2 0x7DF JUMPI PUSH2 0xC9D JUMPI JUMPDEST POP POP CALLER DUP4 MSTORE PUSH1 0xF PUSH1 0x20 MSTORE PUSH2 0xC64 DUP3 DUP3 DUP6 KECCAK256 SLOAD PUSH2 0x16B9 JUMP JUMPDEST CALLER DUP5 MSTORE PUSH1 0xF PUSH1 0x20 MSTORE DUP2 DUP5 KECCAK256 SSTORE MLOAD SWAP1 DUP2 MSTORE PUSH32 0x47A981D8CBC0F6DF64C9BE4CE0A423071A088BD46C549BBD11A4D566E031FE0C PUSH1 0x20 CALLER SWAP3 LOG2 DUP1 RETURN JUMPDEST PUSH2 0xCA6 SWAP1 PUSH2 0x1511 JUMP JUMPDEST PUSH2 0x2F5 JUMPI DUP3 CODESIZE PUSH2 0xC4D JUMP JUMPDEST PUSH1 0x0 DUP1 REVERT JUMPDEST PUSH1 0x11 DUP4 PUSH4 0x4E487B71 PUSH1 0xE0 SHL PUSH1 0x0 MSTORE MSTORE PUSH1 0x24 PUSH1 0x0 REVERT JUMPDEST POP SWAP2 SWAP1 CALLVALUE PUSH2 0x39B JUMPI DUP2 PUSH1 0x3 NOT CALLDATASIZE ADD SLT PUSH2 0x39B JUMPI CALLER DUP3 MSTORE DUP2 PUSH1 0x20 MSTORE PUSH2 0xCF4 PUSH1 0x1 DUP5 DUP5 KECCAK256 SLOAD EQ PUSH2 0x1495 JUMP JUMPDEST PUSH2 0xD02 PUSH1 0x1 PUSH1 0x7 SLOAD EQ PUSH2 0x14D6 JUMP JUMPDEST PUSH1 0x7 DUP3 SWAP1 SSTORE TIMESTAMP PUSH1 0x8 SSTORE PUSH1 0x1 SLOAD PUSH1 0x1 PUSH1 0x1 PUSH1 0xA0 SHL SUB SWAP4 SWAP1 DUP5 AND DUP1 EXTCODESIZE ISZERO PUSH2 0x7DB JUMPI DUP2 MLOAD SWAP5 DUP5 DUP7 DUP6 DUP2 DUP4 PUSH4 0x69245009 PUSH1 0xE0 SHL SWAP7 DUP8 DUP4 MSTORE GAS CALL DUP1 ISZERO PUSH2 0xF3C JUMPI PUSH2 0xF28 JUMPI JUMPDEST DUP5 SWAP6 POP DUP1 PUSH1 0x2 SLOAD AND DUP1 EXTCODESIZE ISZERO PUSH2 0x2E7 JUMPI DUP4 MLOAD DUP7 DUP2 PUSH1 0x24 DUP2 DUP4 PUSH4 0x389C0BF7 PUSH1 0xE2 SHL SWAP7 DUP8 DUP4 MSTORE PUSH6 0x444F47452D41 PUSH1 0xD0 SHL DUP13 DUP5 ADD MSTORE GAS CALL DUP1 ISZERO PUSH2 0xF1E JUMPI SWAP1 DUP8 SWAP2 PUSH2 0xF0A JUMPI JUMPDEST POP POP DUP2 PUSH1 0x2 SLOAD AND SWAP1 DUP2 EXTCODESIZE ISZERO PUSH2 0xAF5 JUMPI DUP7 SWAP2 PUSH1 0x24 DUP4 SWAP3 DUP8 MLOAD SWAP5 DUP6 SWAP4 DUP5 SWAP3 DUP4 MSTORE PUSH6 0x534849422D41 PUSH1 0xD0 SHL DUP12 DUP5 ADD MSTORE GAS CALL DUP1 ISZERO PUSH2 0xEC4 JUMPI SWAP1 DUP7 SWAP2 PUSH2 0xEF6 JUMPI JUMPDEST POP POP DUP1 PUSH1 0x3 SLOAD AND DUP1 EXTCODESIZE ISZERO PUSH2 0x2E7 JUMPI DUP6 DUP1 SWAP2 DUP7 DUP7 MLOAD DUP1 SWAP5 DUP2 SWAP4 DUP9 DUP4 MSTORE GAS CALL DUP1 ISZERO PUSH2 0xEC4 JUMPI SWAP1 DUP7 SWAP2 PUSH2 0xEE2 JUMPI JUMPDEST POP POP DUP1 DUP5 SLOAD AND DUP1 EXTCODESIZE ISZERO PUSH2 0x2E7 JUMPI DUP6 DUP1 SWAP2 DUP7 DUP7 MLOAD DUP1 SWAP5 DUP2 SWAP4 DUP9 DUP4 MSTORE GAS CALL DUP1 ISZERO PUSH2 0xEC4 JUMPI SWAP1 DUP7 SWAP2 PUSH2 0xECE JUMPI JUMPDEST POP POP DUP1 PUSH1 0x5 SLOAD AND DUP1 EXTCODESIZE ISZERO PUSH2 0x2E7 JUMPI DUP6 DUP1 SWAP2 DUP7 DUP7 MLOAD DUP1 SWAP5 DUP2 SWAP4 DUP9 DUP4 MSTORE GAS CALL DUP1 ISZERO PUSH2 0xEC4 JUMPI SWAP1 DUP7 SWAP2 PUSH2 0xEB0 JUMPI JUMPDEST POP POP PUSH1 0x6 SLOAD AND DUP1 EXTCODESIZE ISZERO PUSH2 0x7E9 JUMPI DUP5 SWAP4 DUP5 SWAP3 DUP5 MLOAD SWAP6 DUP7 SWAP4 DUP5 SWAP3 DUP4 MSTORE GAS CALL SWAP1 DUP2 ISZERO PUSH2 0xEA7 JUMPI POP PUSH2 0xE90 JUMPI JUMPDEST POP DUP1 PUSH32 0x2308ED18A14E800C39B86EB6EA43270105955CA385B603B64ECA89F98AE8FBDA SWAP2 LOG1 DUP1 RETURN JUMPDEST PUSH2 0xE99 SWAP1 PUSH2 0x1511 JUMP JUMPDEST PUSH2 0xEA4 JUMPI DUP1 CODESIZE PUSH2 0xE68 JUMP JUMPDEST DUP1 REVERT JUMPDEST MLOAD RETURNDATASIZE DUP5 DUP3 RETURNDATACOPY RETURNDATASIZE SWAP1 REVERT JUMPDEST PUSH2 0xEB9 SWAP1 PUSH2 0x1511 JUMP JUMPDEST PUSH2 0x7E9 JUMPI DUP5 CODESIZE PUSH2 0xE3F JUMP JUMPDEST DUP5 MLOAD RETURNDATASIZE DUP9 DUP3 RETURNDATACOPY RETURNDATASIZE SWAP1 REVERT JUMPDEST PUSH2 0xED7 SWAP1 PUSH2 0x1511 JUMP JUMPDEST PUSH2 0x7E9 JUMPI DUP5 CODESIZE PUSH2 0xE14 JUMP JUMPDEST PUSH2 0xEEB SWAP1 PUSH2 0x1511 JUMP JUMPDEST PUSH2 0x7E9 JUMPI DUP5 CODESIZE PUSH2 0xDEA JUMP JUMPDEST PUSH2 0xEFF SWAP1 PUSH2 0x1511 JUMP JUMPDEST PUSH2 0x7E9 JUMPI DUP5 CODESIZE PUSH2 0xDBF JUMP JUMPDEST PUSH2 0xF13 SWAP1 PUSH2 0x1511 JUMP JUMPDEST PUSH2 0x2E7 JUMPI DUP6 CODESIZE PUSH2 0xD83 JUMP JUMPDEST DUP6 MLOAD RETURNDATASIZE DUP10 DUP3 RETURNDATACOPY RETURNDATASIZE SWAP1 REVERT JUMPDEST SWAP4 SWAP1 SWAP5 PUSH2 0xF34 SWAP1 PUSH2 0x1511 JUMP JUMPDEST SWAP3 DUP5 SWAP1 PUSH2 0xD42 JUMP JUMPDEST DUP4 MLOAD RETURNDATASIZE DUP8 DUP3 RETURNDATACOPY RETURNDATASIZE SWAP1 REVERT JUMPDEST DUP4 DUP3 CALLVALUE PUSH2 0x39B JUMPI PUSH1 0x20 CALLDATASIZE PUSH1 0x3 NOT ADD SLT PUSH2 0x39B JUMPI PUSH1 0x1 SWAP1 PUSH2 0xF64 PUSH2 0x1469 JUMP JUMPDEST CALLER DUP5 MSTORE DUP4 PUSH1 0x20 MSTORE PUSH2 0xF79 DUP4 DUP4 DUP7 KECCAK256 SLOAD EQ PUSH2 0x1495 JUMP JUMPDEST DUP3 DUP1 PUSH1 0xA0 SHL SUB AND DUP4 MSTORE DUP3 PUSH1 0x20 MSTORE DUP3 KECCAK256 SSTORE DUP1 RETURN JUMPDEST DUP4 DUP3 CALLVALUE PUSH2 0x39B JUMPI DUP2 PUSH1 0x3 NOT CALLDATASIZE ADD SLT PUSH2 0x39B JUMPI PUSH1 0x20 SWAP1 PUSH1 0x9 SLOAD SWAP1 MLOAD SWAP1 DUP2 MSTORE RETURN JUMPDEST POP SWAP1 CALLVALUE PUSH2 0x2F5 JUMPI PUSH1 0x20 CALLDATASIZE PUSH1 0x3 NOT ADD SLT PUSH2 0x2F5 JUMPI PUSH1 0x20 SWAP3 DUP3 SWAP2 CALLDATALOAD DUP2 MSTORE PUSH1 0xE DUP5 MSTORE KECCAK256 SLOAD SWAP1 MLOAD SWAP1 DUP2 MSTORE RETURN JUMPDEST DUP4 DUP3 CALLVALUE PUSH2 0x39B JUMPI DUP2 PUSH1 0x3 NOT CALLDATASIZE ADD SLT PUSH2 0x39B JUMPI PUSH1 0x3 SLOAD SWAP1 MLOAD PUSH1 0x1 PUSH1 0x1 PUSH1 0xA0 SHL SUB SWAP1 SWAP2 AND DUP2 MSTORE PUSH1 0x20 SWAP1 RETURN JUMPDEST POP SWAP1 CALLVALUE PUSH2 0x2F5 JUMPI DUP3 PUSH1 0x3 NOT CALLDATASIZE ADD SLT PUSH2 0x2F5 JUMPI PUSH2 0x101A PUSH1 0x7 SLOAD ISZERO PUSH2 0x155D JUMP JUMPDEST PUSH1 0xA SLOAD PUSH2 0x11B0 JUMPI PUSH1 0x1 SLOAD PUSH1 0x3 SLOAD DUP4 MLOAD PUSH4 0x3612D9A3 PUSH1 0xE1 SHL DUP2 MSTORE PUSH1 0x1 PUSH1 0x1 PUSH1 0xA0 SHL SUB SWAP2 DUP3 AND DUP5 DUP3 ADD MSTORE PUSH1 0x20 SWAP4 SWAP2 SWAP1 SWAP3 AND SWAP2 DUP4 DUP2 PUSH1 0x24 DUP2 DUP7 GAS STATICCALL SWAP1 DUP2 ISZERO PUSH2 0x11A6 JUMPI DUP7 SWAP2 PUSH2 0x1179 JUMPI JUMPDEST POP PUSH2 0x113F JUMPI PUSH2 0x1074 PUSH1 0x8 SLOAD PUSH1 0x9 SLOAD SWAP1 PUSH2 0x16B9 JUMP JUMPDEST TIMESTAMP LT PUSH2 0x1104 JUMPI DUP4 MLOAD PUSH4 0xDCA59C1 PUSH1 0xE0 SHL DUP2 MSTORE SWAP3 SWAP2 DUP3 SWAP2 DUP5 SWAP2 DUP3 SWAP1 DUP9 SWAP1 GAS CALL SWAP3 DUP4 ISZERO PUSH2 0x10FB JUMPI POP DUP4 SWAP3 PUSH2 0x10CD JUMPI JUMPDEST POP POP PUSH1 0xA SSTORE PUSH32 0x4DF15159E645BA7D02CADDE0BC937ABEF5AD0134623C00DE50A31750B85978B9 DUP2 DUP1 LOG1 DUP1 RETURN JUMPDEST SWAP1 DUP1 SWAP3 POP DUP2 RETURNDATASIZE DUP4 GT PUSH2 0x10F4 JUMPI JUMPDEST PUSH2 0x10E4 DUP2 DUP4 PUSH2 0x153B JUMP JUMPDEST DUP2 ADD SUB SLT PUSH2 0x39B JUMPI MLOAD CODESIZE DUP1 PUSH2 0x10A1 JUMP JUMPDEST POP RETURNDATASIZE PUSH2 0x10DA JUMP JUMPDEST MLOAD RETURNDATASIZE DUP6 DUP3 RETURNDATACOPY RETURNDATASIZE SWAP1 REVERT JUMPDEST DUP4 MLOAD PUSH3 0x461BCD PUSH1 0xE5 SHL DUP2 MSTORE SWAP1 DUP2 ADD DUP4 SWAP1 MSTORE PUSH1 0x15 PUSH1 0x24 DUP3 ADD MSTORE PUSH21 0x115B990BDDD85A5D0B5B9BDD0B599A5B9A5CDA1959 PUSH1 0x5A SHL PUSH1 0x44 DUP3 ADD MSTORE PUSH1 0x64 SWAP1 REVERT JUMPDEST DUP4 MLOAD PUSH3 0x461BCD PUSH1 0xE5 SHL DUP2 MSTORE SWAP1 DUP2 ADD DUP4 SWAP1 MSTORE PUSH1 0x14 PUSH1 0x24 DUP3 ADD MSTORE PUSH20 0x456E642F737572706C75732D6E6F742D7A65726F PUSH1 0x60 SHL PUSH1 0x44 DUP3 ADD MSTORE PUSH1 0x64 SWAP1 REVERT JUMPDEST SWAP1 POP DUP4 DUP2 DUP2 RETURNDATASIZE DUP4 GT PUSH2 0x119F JUMPI JUMPDEST PUSH2 0x1190 DUP2 DUP4 PUSH2 0x153B JUMP JUMPDEST DUP2 ADD SUB SLT PUSH2 0x2E7 JUMPI MLOAD CODESIZE PUSH2 0x1060 JUMP JUMPDEST POP RETURNDATASIZE PUSH2 0x1186 JUMP JUMPDEST DUP6 MLOAD RETURNDATASIZE DUP9 DUP3 RETURNDATACOPY RETURNDATASIZE SWAP1 REVERT JUMPDEST PUSH1 0x20 PUSH1 0x64 SWAP3 MLOAD SWAP2 PUSH3 0x461BCD PUSH1 0xE5 SHL DUP4 MSTORE DUP3 ADD MSTORE PUSH1 0x11 PUSH1 0x24 DUP3 ADD MSTORE PUSH17 0x456E642F646562742D6E6F742D7A65726F PUSH1 0x78 SHL PUSH1 0x44 DUP3 ADD MSTORE REVERT JUMPDEST DUP4 DUP3 CALLVALUE PUSH2 0x39B JUMPI PUSH2 0x120F SWAP1 PUSH2 0x11FA CALLDATASIZE PUSH2 0x1453 JUMP JUMPDEST SWAP3 SWAP1 SWAP2 DUP3 DUP6 MSTORE PUSH1 0xB PUSH1 0x20 MSTORE DUP5 KECCAK256 SLOAD ISZERO ISZERO PUSH2 0x1634 JUMP JUMPDEST PUSH32 0x6687D56EE64642C36984A8548F81634355BADCB14A3278FC67746DA597B2AB84 DUP4 DUP1 LOG3 DUP1 RETURN JUMPDEST DUP4 DUP3 CALLVALUE PUSH2 0x39B JUMPI DUP2 PUSH1 0x3 NOT CALLDATASIZE ADD SLT PUSH2 0x39B JUMPI PUSH1 0x5 SLOAD SWAP1 MLOAD PUSH1 0x1 PUSH1 0x1 PUSH1 0xA0 SHL SUB SWAP1 SWAP2 AND DUP2 MSTORE PUSH1 0x20 SWAP1 RETURN JUMPDEST POP CALLVALUE PUSH2 0x2F5 JUMPI PUSH1 0x20 SWAP1 DUP2 PUSH1 0x3 NOT CALLDATASIZE ADD SLT PUSH2 0x7DB JUMPI PUSH1 0x24 DUP4 CALLDATALOAD SWAP4 PUSH2 0x1285 PUSH1 0xA SLOAD ISZERO ISZERO PUSH2 0x16DA JUMP JUMPDEST PUSH1 0x1 SLOAD DUP4 MLOAD PUSH4 0x6CB1C69B PUSH1 0xE1 SHL DUP2 MSTORE DUP3 DUP2 ADD DUP8 SWAP1 MSTORE SWAP3 PUSH1 0xA0 SWAP2 DUP5 SWAP2 SWAP1 DUP3 SWAP1 PUSH1 0x1 PUSH1 0x1 PUSH1 0xA0 SHL SUB AND GAS STATICCALL SWAP2 DUP3 ISZERO PUSH2 0x13B9 JUMPI DUP7 SWAP3 PUSH2 0x1394 JUMPI JUMPDEST POP DUP5 DUP7 MSTORE PUSH1 0xE DUP5 MSTORE DUP3 DUP7 KECCAK256 SLOAD PUSH2 0x1363 JUMPI POP PUSH2 0x1334 PUSH2 0x1323 PUSH2 0x1312 PUSH12 0x33B2E3C9FD0803CE8000000 PUSH2 0x12FC PUSH2 0x1C4 PUSH1 0xE SWAP7 DUP11 DUP13 MSTORE PUSH1 0xD DUP11 MSTORE DUP9 DUP13 KECCAK256 SLOAD PUSH2 0x15E1 JUMP JUMPDEST DIV DUP8 DUP10 MSTORE PUSH1 0xD DUP8 MSTORE DUP1 DUP7 DUP11 KECCAK256 SSTORE PUSH1 0xA SLOAD SWAP1 PUSH2 0x171B JUMP JUMPDEST DUP7 DUP9 MSTORE PUSH1 0xC DUP7 MSTORE DUP5 DUP9 KECCAK256 SLOAD SWAP1 PUSH2 0x16CD JUMP JUMPDEST DUP6 DUP8 MSTORE PUSH1 0xD DUP6 MSTORE DUP4 DUP8 KECCAK256 SLOAD SWAP1 PUSH2 0x171B JUMP JUMPDEST SWAP3 DUP5 DUP7 MSTORE MSTORE DUP4 KECCAK256 SSTORE PUSH32 0x8D1D5AE676A6DB1F6F14414F8A6C78941BBFB700FE3F3BE6D3245F26C2F2D550 DUP3 DUP1 LOG2 DUP1 RETURN JUMPDEST DUP3 MLOAD PUSH3 0x461BCD PUSH1 0xE5 SHL DUP2 MSTORE SWAP1 DUP2 ADD DUP5 SWAP1 MSTORE PUSH1 0xB PUSH1 0x24 DUP3 ADD MSTORE PUSH11 0x115B990BD99A5E0B5CD95D PUSH1 0xAA SHL PUSH1 0x44 DUP3 ADD MSTORE PUSH1 0x64 SWAP1 REVERT JUMPDEST PUSH2 0x13AD SWAP2 SWAP3 POP PUSH1 0xA0 RETURNDATASIZE DUP2 GT PUSH2 0x483 JUMPI PUSH2 0x473 DUP2 DUP4 PUSH2 0x153B JUMP JUMPDEST POP POP POP SWAP1 POP SWAP1 CODESIZE PUSH2 0x12BC JUMP JUMPDEST DUP4 MLOAD RETURNDATASIZE DUP9 DUP3 RETURNDATACOPY RETURNDATASIZE SWAP1 REVERT JUMPDEST DUP4 DUP3 CALLVALUE PUSH2 0x39B JUMPI DUP2 PUSH1 0x3 NOT CALLDATASIZE ADD SLT PUSH2 0x39B JUMPI PUSH1 0x1 SLOAD SWAP1 MLOAD PUSH1 0x1 PUSH1 0x1 PUSH1 0xA0 SHL SUB SWAP1 SWAP2 AND DUP2 MSTORE PUSH1 0x20 SWAP1 RETURN JUMPDEST POP SWAP1 CALLVALUE PUSH2 0x2F5 JUMPI PUSH2 0x13FC CALLDATASIZE PUSH2 0x1453 JUMP JUMPDEST SWAP3 SWAP1 CALLER DUP6 MSTORE DUP5 PUSH1 0x20 MSTORE PUSH2 0x1414 PUSH1 0x1 DUP4 DUP8 KECCAK256 SLOAD EQ PUSH2 0x1495 JUMP JUMPDEST PUSH2 0x1422 PUSH1 0x1 PUSH1 0x7 SLOAD EQ PUSH2 0x14D6 JUMP JUMPDEST PUSH4 0x1DD85A5D PUSH1 0xE2 SHL SUB PUSH2 0x643 JUMPI POP POP PUSH1 0x9 SSTORE DUP1 RETURN JUMPDEST DUP5 SWAP1 CALLVALUE PUSH2 0x39B JUMPI DUP2 PUSH1 0x3 NOT CALLDATASIZE ADD SLT PUSH2 0x39B JUMPI PUSH1 0x20 SWAP1 PUSH1 0xA SLOAD DUP2 MSTORE RETURN JUMPDEST PUSH1 0x40 SWAP1 PUSH1 0x3 NOT ADD SLT PUSH2 0xCB1 JUMPI PUSH1 0x4 CALLDATALOAD SWAP1 PUSH1 0x24 CALLDATALOAD SWAP1 JUMP JUMPDEST PUSH1 0x4 CALLDATALOAD SWAP1 PUSH1 0x1 PUSH1 0x1 PUSH1 0xA0 SHL SUB DUP3 AND DUP3 SUB PUSH2 0xCB1 JUMPI JUMP JUMPDEST PUSH1 0x24 CALLDATALOAD SWAP1 PUSH1 0x1 PUSH1 0x1 PUSH1 0xA0 SHL SUB DUP3 AND DUP3 SUB PUSH2 0xCB1 JUMPI JUMP JUMPDEST ISZERO PUSH2 0x149C JUMPI JUMP JUMPDEST PUSH1 0x40 MLOAD PUSH3 0x461BCD PUSH1 0xE5 SHL DUP2 MSTORE PUSH1 0x20 PUSH1 0x4 DUP3 ADD MSTORE PUSH1 0x12 PUSH1 0x24 DUP3 ADD MSTORE PUSH18 0x115B990BDB9BDD0B585D5D1A1BDC9A5E9959 PUSH1 0x72 SHL PUSH1 0x44 DUP3 ADD MSTORE PUSH1 0x64 SWAP1 REVERT JUMPDEST ISZERO PUSH2 0x14DD JUMPI JUMP JUMPDEST PUSH1 0x40 MLOAD PUSH3 0x461BCD PUSH1 0xE5 SHL DUP2 MSTORE PUSH1 0x20 PUSH1 0x4 DUP3 ADD MSTORE PUSH1 0xC PUSH1 0x24 DUP3 ADD MSTORE PUSH12 0x456E642F6E6F742D6C697665 PUSH1 0xA0 SHL PUSH1 0x44 DUP3 ADD MSTORE PUSH1 0x64 SWAP1 REVERT JUMPDEST PUSH8 0xFFFFFFFFFFFFFFFF DUP2 GT PUSH2 0x1525 JUMPI PUSH1 0x40 MSTORE JUMP JUMPDEST PUSH4 0x4E487B71 PUSH1 0xE0 SHL PUSH1 0x0 MSTORE PUSH1 0x41 PUSH1 0x4 MSTORE PUSH1 0x24 PUSH1 0x0 REVERT JUMPDEST SWAP1 PUSH1 0x1F DUP1 NOT SWAP2 ADD AND DUP2 ADD SWAP1 DUP2 LT PUSH8 0xFFFFFFFFFFFFFFFF DUP3 GT OR PUSH2 0x1525 JUMPI PUSH1 0x40 MSTORE JUMP JUMPDEST ISZERO PUSH2 0x1564 JUMPI JUMP JUMPDEST PUSH1 0x40 MLOAD PUSH3 0x461BCD PUSH1 0xE5 SHL DUP2 MSTORE PUSH1 0x20 PUSH1 0x4 DUP3 ADD MSTORE PUSH1 0xE PUSH1 0x24 DUP3 ADD MSTORE PUSH14 0x456E642F7374696C6C2D6C697665 PUSH1 0x90 SHL PUSH1 0x44 DUP3 ADD MSTORE PUSH1 0x64 SWAP1 REVERT JUMPDEST SWAP1 DUP2 PUSH1 0xA0 SWAP2 SUB SLT PUSH2 0xCB1 JUMPI DUP1 MLOAD SWAP2 PUSH1 0x20 DUP3 ADD MLOAD SWAP2 PUSH1 0x40 DUP2 ADD MLOAD SWAP2 PUSH1 0x80 PUSH1 0x60 DUP4 ADD MLOAD SWAP3 ADD MLOAD SWAP1 JUMP JUMPDEST DUP2 ISZERO PUSH2 0x15CB JUMPI DIV SWAP1 JUMP JUMPDEST PUSH4 0x4E487B71 PUSH1 0xE0 SHL PUSH1 0x0 MSTORE PUSH1 0x12 PUSH1 0x4 MSTORE PUSH1 0x24 PUSH1 0x0 REVERT JUMPDEST PUSH1 0x0 SWAP3 SWAP2 DUP1 ISZERO SWAP2 DUP3 ISZERO PUSH2 0x15F8 JUMPI JUMPDEST POP POP ISZERO PUSH2 0xCB1 JUMPI JUMP JUMPDEST DUP1 DUP3 MUL SWAP5 POP SWAP2 POP DUP2 ISZERO DUP3 DUP6 DIV DUP3 EQ OR ISZERO PUSH2 0x161E JUMPI PUSH2 0x1616 SWAP1 DUP5 PUSH2 0x15C1 JUMP JUMPDEST EQ CODESIZE DUP1 PUSH2 0x15EF JUMP JUMPDEST PUSH4 0x4E487B71 PUSH1 0xE0 SHL PUSH1 0x0 MSTORE PUSH1 0x11 PUSH1 0x4 MSTORE PUSH1 0x24 PUSH1 0x0 REVERT JUMPDEST ISZERO PUSH2 0x163B JUMPI JUMP JUMPDEST PUSH1 0x40 MLOAD PUSH3 0x461BCD PUSH1 0xE5 SHL DUP2 MSTORE PUSH1 0x20 PUSH1 0x4 DUP3 ADD MSTORE PUSH1 0xF PUSH1 0x24 DUP3 ADD MSTORE PUSH15 0x115B990BDD1859CB5B9BDD0B5CD95D PUSH1 0x8A SHL PUSH1 0x44 DUP3 ADD MSTORE PUSH1 0x64 SWAP1 REVERT JUMPDEST SWAP2 SWAP1 DUP3 PUSH1 0x40 SWAP2 SUB SLT PUSH2 0xCB1 JUMPI PUSH1 0x20 DUP3 MLOAD SWAP3 ADD MLOAD SWAP1 JUMP JUMPDEST PUSH1 0x1 PUSH1 0xFF SHL DUP2 EQ PUSH2 0x161E JUMPI PUSH1 0x0 SUB SWAP1 JUMP JUMPDEST SWAP1 PUSH12 0x19D971E4FE8401E74000000 DUP3 ADD SWAP2 DUP3 DUP2 GT PUSH2 0x161E JUMPI DUP3 LT PUSH2 0xCB1 JUMPI JUMP JUMPDEST SWAP2 SWAP1 DUP3 ADD SWAP2 DUP3 DUP2 GT PUSH2 0x161E JUMPI DUP3 LT PUSH2 0xCB1 JUMPI JUMP JUMPDEST SWAP1 DUP2 SUB SWAP1 DUP2 GT PUSH2 0x161E JUMPI SWAP1 JUMP JUMPDEST ISZERO PUSH2 0x16E1 JUMPI JUMP JUMPDEST PUSH1 0x40 MLOAD PUSH3 0x461BCD PUSH1 0xE5 SHL DUP2 MSTORE PUSH1 0x20 PUSH1 0x4 DUP3 ADD MSTORE PUSH1 0x12 PUSH1 0x24 DUP3 ADD MSTORE PUSH18 0x456E642F6E6F742D70726F63657373696E67 PUSH1 0x70 SHL PUSH1 0x44 DUP3 ADD MSTORE PUSH1 0x64 SWAP1 REVERT JUMPDEST SWAP1 PUSH8 0xDE0B6B3A7640000 SWAP2 DUP3 DUP2 MUL SWAP3 DUP2 DUP5 DIV DUP2 EQ DUP3 ISZERO OR ISZERO PUSH2 0x161E JUMPI DUP4 DIV SUB PUSH2 0xCB1 JUMPI PUSH2 0x174F PUSH2 0x1754 SWAP3 DUP3 PUSH1 0x1 SHR SWAP1 PUSH2 0x16B9 JUMP JUMPDEST PUSH2 0x15C1 JUMP JUMPDEST SWAP1 JUMP INVALID LOG2 PUSH5 0x6970667358 0x22 SLT KECCAK256 CODECOPY DUP5 PUSH21 0xEBB0FF85066FB2EA7EFDE4A1D85571FA24DB5CFAD8 0x4D 0xAB PUSH32 0x3210C930BA64736F6C6343000813003300000000000000000000000000000000 "},"methodIdentifiers":{"Art(bytes32)":"e1340a3d","bag(address)":"9255f809","cage()":"69245009","cage(bytes32)":"e2702fdc","cash(bytes32,uint256)":"fe8507c6","debt()":"0dca59c1","deny(address)":"9c52a7f1","dog()":"c3b3ad7f","file(bytes32,address)":"d4e8be83","file(bytes32,uint256)":"29ae8114","fix(bytes32)":"63fad85e","flow(bytes32)":"4a10eaa6","free(bytes32)":"c83062c6","gap(bytes32)":"e6ee62aa","jug()":"84718d89","live()":"957aa58c","out(bytes32,address)":"c939ebfc","pack(uint256)":"6ea42555","pot()":"4ba2363a","rely(address)":"65fae35e","skim(bytes32,address)":"89ea45d3","skip(bytes32,uint256)":"503ecf06","spot()":"6f265b93","tag(bytes32)":"ee6447b5","thaw()":"5920375c","vat()":"36569e77","vow()":"626cb3c5","wait()":"64bd7013","wards(address)":"bf353dbb","when()":"e2b0caef"}}}}}