{"contracts/Calc.sol":{"ExponentialDecrease":{"abi":[{"inputs":[],"stateMutability":"nonpayable","type":"constructor"},{"inputs":[],"name":"cut","outputs":[{"internalType":"uint256","name":"","type":"uint256"}],"stateMutability":"view","type":"function"},{"inputs":[{"internalType":"address","name":"usr","type":"address"}],"name":"deny","outputs":[],"stateMutability":"nonpayable","type":"function"},{"inputs":[{"internalType":"bytes32","name":"what","type":"bytes32"},{"internalType":"uint256","name":"data","type":"uint256"}],"name":"file","outputs":[],"stateMutability":"nonpayable","type":"function"},{"inputs":[{"internalType":"uint256","name":"top","type":"uint256"},{"internalType":"uint256","name":"dur","type":"uint256"}],"name":"price","outputs":[{"internalType":"uint256","name":"","type":"uint256"}],"stateMutability":"view","type":"function"},{"inputs":[{"internalType":"address","name":"usr","type":"address"}],"name":"rely","outputs":[],"stateMutability":"nonpayable","type":"function"},{"inputs":[{"internalType":"address","name":"","type":"address"}],"name":"wards","outputs":[{"internalType":"uint256","name":"","type":"uint256"}],"stateMutability":"view","type":"function"}],"evm":{"bytecode":{"linkReferences":{},"object":"608080604052346100375733600052600060205260016040600020556b033b2e3c9fd0803ce7ffffff600155610482908161003d8239f35b600080fdfe6040608081526004908136101561001557600080fd5b600091823560e01c90816329ae8114146101e5578163487a23951461015d57816365fae35e14610112578382639c52a7f1146100c557508163bf353dbb14610088575063e6fd604c1461006757600080fd5b346100845781600319360112610084576020906001549051908152f35b5080fd5b9050346100c15760203660031901126100c157356001600160a01b038116908190036100c1578282916020945280845220549051908152f35b8280fd5b9291503461010e57602036600319011261010e57356001600160a01b0381169081900361010e5733835282602052610102600183852054146102d5565b82528160205281205580f35b5050fd5b9050346100c15760203660031901126100c157356001600160a01b03811691908290036100c157600191338452836020526101518383862054146102d5565b83528260205282205580f35b8284346101e257816003193601126101e257506001805460243591808316156101d057815b92811c91825b6101a15760208561019a86893561032c565b9051908152f35b806101ab9161032c565b91828282166101bf575b50811c9182610188565b6101c9919461032c565b92866101b5565b6b033b2e3c9fd0803ce8000000610182565b80fd5b9050346100c157816003193601126100c1576024359133845283602052610211600182862054146102d5565b81356218dd5d60ea1b0361027e576b033b2e3c9fd0803ce800000083101561023b57505060015580f35b906020606492519162461bcd60e51b8352820152602060248201527f4578706f6e656e7469616c44656372656173652f6375742d746f6f2d686967686044820152fd5b906020608492519162461bcd60e51b8352820152602b60248201527f4578706f6e656e7469616c44656372656173652f66696c652d756e7265636f6760448201526a6e697a65642d706172616d60a81b6064820152fd5b156102dc57565b60405162461bcd60e51b815260206004820152602260248201527f4578706f6e656e7469616c44656372656173652f6e6f742d617574686f72697a604482015261195960f21b6064820152608490fd5b9060009181159182156103fe575b5050156103c2576b019d971e4fe8401e740000008101908181116103ac578110610370576b033b2e3c9fd0803ce8000000900490565b60405162461bcd60e51b815260206004820152601460248201527364732d6d6174682d6164642d6f766572666c6f7760601b6044820152606490fd5b634e487b7160e01b600052601160045260246000fd5b60405162461bcd60e51b815260206004820152601460248201527364732d6d6174682d6d756c2d6f766572666c6f7760601b6044820152606490fd5b9091928183029083820483148415171561043857508093610422570414388061033a565b634e487b7160e01b600052601260045260246000fd5b634e487b7160e01b81526011600452602490fdfea2646970667358221220a0e5a4f6a47d6f66cb63a42e7f5563c428ea990982638c0a2c88e8c3f7cc1fcd64736f6c63430008130033","opcodes":"PUSH1 0x80 DUP1 PUSH1 0x40 MSTORE CALLVALUE PUSH2 0x37 JUMPI CALLER PUSH1 0x0 MSTORE PUSH1 0x0 PUSH1 0x20 MSTORE PUSH1 0x1 PUSH1 0x40 PUSH1 0x0 KECCAK256 SSTORE PUSH12 0x33B2E3C9FD0803CE7FFFFFF PUSH1 0x1 SSTORE PUSH2 0x482 SWAP1 DUP2 PUSH2 0x3D DUP3 CODECOPY RETURN JUMPDEST PUSH1 0x0 DUP1 REVERT INVALID PUSH1 0x40 PUSH1 0x80 DUP2 MSTORE PUSH1 0x4 SWAP1 DUP2 CALLDATASIZE LT ISZERO PUSH2 0x15 JUMPI PUSH1 0x0 DUP1 REVERT JUMPDEST PUSH1 0x0 SWAP2 DUP3 CALLDATALOAD PUSH1 0xE0 SHR SWAP1 DUP2 PUSH4 0x29AE8114 EQ PUSH2 0x1E5 JUMPI DUP2 PUSH4 0x487A2395 EQ PUSH2 0x15D JUMPI DUP2 PUSH4 0x65FAE35E EQ PUSH2 0x112 JUMPI DUP4 DUP3 PUSH4 0x9C52A7F1 EQ PUSH2 0xC5 JUMPI POP DUP2 PUSH4 0xBF353DBB EQ PUSH2 0x88 JUMPI POP PUSH4 0xE6FD604C EQ PUSH2 0x67 JUMPI PUSH1 0x0 DUP1 REVERT JUMPDEST CALLVALUE PUSH2 0x84 JUMPI DUP2 PUSH1 0x3 NOT CALLDATASIZE ADD SLT PUSH2 0x84 JUMPI PUSH1 0x20 SWAP1 PUSH1 0x1 SLOAD SWAP1 MLOAD SWAP1 DUP2 MSTORE RETURN JUMPDEST POP DUP1 REVERT JUMPDEST SWAP1 POP CALLVALUE PUSH2 0xC1 JUMPI PUSH1 0x20 CALLDATASIZE PUSH1 0x3 NOT ADD SLT PUSH2 0xC1 JUMPI CALLDATALOAD PUSH1 0x1 PUSH1 0x1 PUSH1 0xA0 SHL SUB DUP2 AND SWAP1 DUP2 SWAP1 SUB PUSH2 0xC1 JUMPI DUP3 DUP3 SWAP2 PUSH1 0x20 SWAP5 MSTORE DUP1 DUP5 MSTORE KECCAK256 SLOAD SWAP1 MLOAD SWAP1 DUP2 MSTORE RETURN JUMPDEST DUP3 DUP1 REVERT JUMPDEST SWAP3 SWAP2 POP CALLVALUE PUSH2 0x10E JUMPI PUSH1 0x20 CALLDATASIZE PUSH1 0x3 NOT ADD SLT PUSH2 0x10E JUMPI CALLDATALOAD PUSH1 0x1 PUSH1 0x1 PUSH1 0xA0 SHL SUB DUP2 AND SWAP1 DUP2 SWAP1 SUB PUSH2 0x10E JUMPI CALLER DUP4 MSTORE DUP3 PUSH1 0x20 MSTORE PUSH2 0x102 PUSH1 0x1 DUP4 DUP6 KECCAK256 SLOAD EQ PUSH2 0x2D5 JUMP JUMPDEST DUP3 MSTORE DUP2 PUSH1 0x20 MSTORE DUP2 KECCAK256 SSTORE DUP1 RETURN JUMPDEST POP POP REVERT JUMPDEST SWAP1 POP CALLVALUE PUSH2 0xC1 JUMPI PUSH1 0x20 CALLDATASIZE PUSH1 0x3 NOT ADD SLT PUSH2 0xC1 JUMPI CALLDATALOAD PUSH1 0x1 PUSH1 0x1 PUSH1 0xA0 SHL SUB DUP2 AND SWAP2 SWAP1 DUP3 SWAP1 SUB PUSH2 0xC1 JUMPI PUSH1 0x1 SWAP2 CALLER DUP5 MSTORE DUP4 PUSH1 0x20 MSTORE PUSH2 0x151 DUP4 DUP4 DUP7 KECCAK256 SLOAD EQ PUSH2 0x2D5 JUMP JUMPDEST DUP4 MSTORE DUP3 PUSH1 0x20 MSTORE DUP3 KECCAK256 SSTORE DUP1 RETURN JUMPDEST DUP3 DUP5 CALLVALUE PUSH2 0x1E2 JUMPI DUP2 PUSH1 0x3 NOT CALLDATASIZE ADD SLT PUSH2 0x1E2 JUMPI POP PUSH1 0x1 DUP1 SLOAD PUSH1 0x24 CALLDATALOAD SWAP2 DUP1 DUP4 AND ISZERO PUSH2 0x1D0 JUMPI DUP2 JUMPDEST SWAP3 DUP2 SHR SWAP2 DUP3 JUMPDEST PUSH2 0x1A1 JUMPI PUSH1 0x20 DUP6 PUSH2 0x19A DUP7 DUP10 CALLDATALOAD PUSH2 0x32C JUMP JUMPDEST SWAP1 MLOAD SWAP1 DUP2 MSTORE RETURN JUMPDEST DUP1 PUSH2 0x1AB SWAP2 PUSH2 0x32C JUMP JUMPDEST SWAP2 DUP3 DUP3 DUP3 AND PUSH2 0x1BF JUMPI JUMPDEST POP DUP2 SHR SWAP2 DUP3 PUSH2 0x188 JUMP JUMPDEST PUSH2 0x1C9 SWAP2 SWAP5 PUSH2 0x32C JUMP JUMPDEST SWAP3 DUP7 PUSH2 0x1B5 JUMP JUMPDEST PUSH12 0x33B2E3C9FD0803CE8000000 PUSH2 0x182 JUMP JUMPDEST DUP1 REVERT JUMPDEST SWAP1 POP CALLVALUE PUSH2 0xC1 JUMPI DUP2 PUSH1 0x3 NOT CALLDATASIZE ADD SLT PUSH2 0xC1 JUMPI PUSH1 0x24 CALLDATALOAD SWAP2 CALLER DUP5 MSTORE DUP4 PUSH1 0x20 MSTORE PUSH2 0x211 PUSH1 0x1 DUP3 DUP7 KECCAK256 SLOAD EQ PUSH2 0x2D5 JUMP JUMPDEST DUP2 CALLDATALOAD PUSH3 0x18DD5D PUSH1 0xEA SHL SUB PUSH2 0x27E JUMPI PUSH12 0x33B2E3C9FD0803CE8000000 DUP4 LT ISZERO PUSH2 0x23B JUMPI POP POP PUSH1 0x1 SSTORE DUP1 RETURN JUMPDEST SWAP1 PUSH1 0x20 PUSH1 0x64 SWAP3 MLOAD SWAP2 PUSH3 0x461BCD PUSH1 0xE5 SHL DUP4 MSTORE DUP3 ADD MSTORE PUSH1 0x20 PUSH1 0x24 DUP3 ADD MSTORE PUSH32 0x4578706F6E656E7469616C44656372656173652F6375742D746F6F2D68696768 PUSH1 0x44 DUP3 ADD MSTORE REVERT JUMPDEST SWAP1 PUSH1 0x20 PUSH1 0x84 SWAP3 MLOAD SWAP2 PUSH3 0x461BCD PUSH1 0xE5 SHL DUP4 MSTORE DUP3 ADD MSTORE PUSH1 0x2B PUSH1 0x24 DUP3 ADD MSTORE PUSH32 0x4578706F6E656E7469616C44656372656173652F66696C652D756E7265636F67 PUSH1 0x44 DUP3 ADD MSTORE PUSH11 0x6E697A65642D706172616D PUSH1 0xA8 SHL PUSH1 0x64 DUP3 ADD MSTORE REVERT JUMPDEST ISZERO PUSH2 0x2DC JUMPI JUMP JUMPDEST PUSH1 0x40 MLOAD PUSH3 0x461BCD PUSH1 0xE5 SHL DUP2 MSTORE PUSH1 0x20 PUSH1 0x4 DUP3 ADD MSTORE PUSH1 0x22 PUSH1 0x24 DUP3 ADD MSTORE PUSH32 0x4578706F6E656E7469616C44656372656173652F6E6F742D617574686F72697A PUSH1 0x44 DUP3 ADD MSTORE PUSH2 0x1959 PUSH1 0xF2 SHL PUSH1 0x64 DUP3 ADD MSTORE PUSH1 0x84 SWAP1 REVERT JUMPDEST SWAP1 PUSH1 0x0 SWAP2 DUP2 ISZERO SWAP2 DUP3 ISZERO PUSH2 0x3FE JUMPI JUMPDEST POP POP ISZERO PUSH2 0x3C2 JUMPI PUSH12 0x19D971E4FE8401E74000000 DUP2 ADD SWAP1 DUP2 DUP2 GT PUSH2 0x3AC JUMPI DUP2 LT PUSH2 0x370 JUMPI PUSH12 0x33B2E3C9FD0803CE8000000 SWAP1 DIV SWAP1 JUMP JUMPDEST PUSH1 0x40 MLOAD PUSH3 0x461BCD PUSH1 0xE5 SHL DUP2 MSTORE PUSH1 0x20 PUSH1 0x4 DUP3 ADD MSTORE PUSH1 0x14 PUSH1 0x24 DUP3 ADD MSTORE PUSH20 0x64732D6D6174682D6164642D6F766572666C6F77 PUSH1 0x60 SHL PUSH1 0x44 DUP3 ADD MSTORE PUSH1 0x64 SWAP1 REVERT JUMPDEST PUSH4 0x4E487B71 PUSH1 0xE0 SHL PUSH1 0x0 MSTORE PUSH1 0x11 PUSH1 0x4 MSTORE PUSH1 0x24 PUSH1 0x0 REVERT JUMPDEST PUSH1 0x40 MLOAD PUSH3 0x461BCD PUSH1 0xE5 SHL DUP2 MSTORE PUSH1 0x20 PUSH1 0x4 DUP3 ADD MSTORE PUSH1 0x14 PUSH1 0x24 DUP3 ADD MSTORE PUSH20 0x64732D6D6174682D6D756C2D6F766572666C6F77 PUSH1 0x60 SHL PUSH1 0x44 DUP3 ADD MSTORE PUSH1 0x64 SWAP1 REVERT JUMPDEST SWAP1 SWAP2 SWAP3 DUP2 DUP4 MUL SWAP1 DUP4 DUP3 DIV DUP4 EQ DUP5 ISZERO OR ISZERO PUSH2 0x438 JUMPI POP DUP1 SWAP4 PUSH2 0x422 JUMPI DIV EQ CODESIZE DUP1 PUSH2 0x33A JUMP JUMPDEST PUSH4 0x4E487B71 PUSH1 0xE0 SHL PUSH1 0x0 MSTORE PUSH1 0x12 PUSH1 0x4 MSTORE PUSH1 0x24 PUSH1 0x0 REVERT JUMPDEST PUSH4 0x4E487B71 PUSH1 0xE0 SHL DUP2 MSTORE PUSH1 0x11 PUSH1 0x4 MSTORE PUSH1 0x24 SWAP1 REVERT INVALID LOG2 PUSH5 0x6970667358 0x22 SLT KECCAK256 LOG0 0xE5 LOG4 0xF6 LOG4 PUSH30 0x6F66CB63A42E7F5563C428EA990982638C0A2C88E8C3F7CC1FCD64736F6C PUSH4 0x43000813 STOP CALLER "},"methodIdentifiers":{"cut()":"e6fd604c","deny(address)":"9c52a7f1","file(bytes32,uint256)":"29ae8114","price(uint256,uint256)":"487a2395","rely(address)":"65fae35e","wards(address)":"bf353dbb"}}}}}