{
  "_format": "hh-sol-artifact-1",
  "contractName": "StableCoin",
  "sourceName": "contracts/StableCoin.sol",
  "abi": [
    {
      "inputs": [
        {
          "internalType": "uint256",
          "name": "chainId_",
          "type": "uint256"
        }
      ],
      "stateMutability": "nonpayable",
      "type": "constructor"
    },
    {
      "anonymous": false,
      "inputs": [
        {
          "indexed": true,
          "internalType": "address",
          "name": "src",
          "type": "address"
        },
        {
          "indexed": true,
          "internalType": "address",
          "name": "guy",
          "type": "address"
        },
        {
          "indexed": false,
          "internalType": "uint256",
          "name": "wad",
          "type": "uint256"
        }
      ],
      "name": "Approval",
      "type": "event"
    },
    {
      "anonymous": false,
      "inputs": [
        {
          "indexed": true,
          "internalType": "address",
          "name": "src",
          "type": "address"
        },
        {
          "indexed": true,
          "internalType": "address",
          "name": "dst",
          "type": "address"
        },
        {
          "indexed": false,
          "internalType": "uint256",
          "name": "wad",
          "type": "uint256"
        }
      ],
      "name": "Transfer",
      "type": "event"
    },
    {
      "inputs": [],
      "name": "DOMAIN_SEPARATOR",
      "outputs": [
        {
          "internalType": "bytes32",
          "name": "",
          "type": "bytes32"
        }
      ],
      "stateMutability": "view",
      "type": "function"
    },
    {
      "inputs": [],
      "name": "PERMIT_TYPEHASH",
      "outputs": [
        {
          "internalType": "bytes32",
          "name": "",
          "type": "bytes32"
        }
      ],
      "stateMutability": "view",
      "type": "function"
    },
    {
      "inputs": [
        {
          "internalType": "address",
          "name": "",
          "type": "address"
        },
        {
          "internalType": "address",
          "name": "",
          "type": "address"
        }
      ],
      "name": "allowance",
      "outputs": [
        {
          "internalType": "uint256",
          "name": "",
          "type": "uint256"
        }
      ],
      "stateMutability": "view",
      "type": "function"
    },
    {
      "inputs": [
        {
          "internalType": "address",
          "name": "usr",
          "type": "address"
        },
        {
          "internalType": "uint256",
          "name": "wad",
          "type": "uint256"
        }
      ],
      "name": "approve",
      "outputs": [
        {
          "internalType": "bool",
          "name": "",
          "type": "bool"
        }
      ],
      "stateMutability": "nonpayable",
      "type": "function"
    },
    {
      "inputs": [
        {
          "internalType": "address",
          "name": "",
          "type": "address"
        }
      ],
      "name": "balanceOf",
      "outputs": [
        {
          "internalType": "uint256",
          "name": "",
          "type": "uint256"
        }
      ],
      "stateMutability": "view",
      "type": "function"
    },
    {
      "inputs": [
        {
          "internalType": "address",
          "name": "usr",
          "type": "address"
        },
        {
          "internalType": "uint256",
          "name": "wad",
          "type": "uint256"
        }
      ],
      "name": "burn",
      "outputs": [],
      "stateMutability": "nonpayable",
      "type": "function"
    },
    {
      "inputs": [],
      "name": "decimals",
      "outputs": [
        {
          "internalType": "uint8",
          "name": "",
          "type": "uint8"
        }
      ],
      "stateMutability": "view",
      "type": "function"
    },
    {
      "inputs": [
        {
          "internalType": "address",
          "name": "guy",
          "type": "address"
        }
      ],
      "name": "deny",
      "outputs": [],
      "stateMutability": "nonpayable",
      "type": "function"
    },
    {
      "inputs": [
        {
          "internalType": "address",
          "name": "usr",
          "type": "address"
        },
        {
          "internalType": "uint256",
          "name": "wad",
          "type": "uint256"
        }
      ],
      "name": "mint",
      "outputs": [],
      "stateMutability": "nonpayable",
      "type": "function"
    },
    {
      "inputs": [],
      "name": "name",
      "outputs": [
        {
          "internalType": "string",
          "name": "",
          "type": "string"
        }
      ],
      "stateMutability": "view",
      "type": "function"
    },
    {
      "inputs": [
        {
          "internalType": "address",
          "name": "",
          "type": "address"
        }
      ],
      "name": "nonces",
      "outputs": [
        {
          "internalType": "uint256",
          "name": "",
          "type": "uint256"
        }
      ],
      "stateMutability": "view",
      "type": "function"
    },
    {
      "inputs": [
        {
          "internalType": "address",
          "name": "owner",
          "type": "address"
        },
        {
          "internalType": "address",
          "name": "spender",
          "type": "address"
        },
        {
          "internalType": "uint256",
          "name": "value",
          "type": "uint256"
        },
        {
          "internalType": "uint256",
          "name": "deadline",
          "type": "uint256"
        },
        {
          "internalType": "uint8",
          "name": "v",
          "type": "uint8"
        },
        {
          "internalType": "bytes32",
          "name": "r",
          "type": "bytes32"
        },
        {
          "internalType": "bytes32",
          "name": "s",
          "type": "bytes32"
        }
      ],
      "name": "permit",
      "outputs": [],
      "stateMutability": "nonpayable",
      "type": "function"
    },
    {
      "inputs": [
        {
          "internalType": "address",
          "name": "guy",
          "type": "address"
        }
      ],
      "name": "rely",
      "outputs": [],
      "stateMutability": "nonpayable",
      "type": "function"
    },
    {
      "inputs": [],
      "name": "symbol",
      "outputs": [
        {
          "internalType": "string",
          "name": "",
          "type": "string"
        }
      ],
      "stateMutability": "view",
      "type": "function"
    },
    {
      "inputs": [],
      "name": "totalSupply",
      "outputs": [
        {
          "internalType": "uint256",
          "name": "",
          "type": "uint256"
        }
      ],
      "stateMutability": "view",
      "type": "function"
    },
    {
      "inputs": [
        {
          "internalType": "address",
          "name": "dst",
          "type": "address"
        },
        {
          "internalType": "uint256",
          "name": "wad",
          "type": "uint256"
        }
      ],
      "name": "transfer",
      "outputs": [
        {
          "internalType": "bool",
          "name": "",
          "type": "bool"
        }
      ],
      "stateMutability": "nonpayable",
      "type": "function"
    },
    {
      "inputs": [
        {
          "internalType": "address",
          "name": "src",
          "type": "address"
        },
        {
          "internalType": "address",
          "name": "dst",
          "type": "address"
        },
        {
          "internalType": "uint256",
          "name": "wad",
          "type": "uint256"
        }
      ],
      "name": "transferFrom",
      "outputs": [
        {
          "internalType": "bool",
          "name": "",
          "type": "bool"
        }
      ],
      "stateMutability": "nonpayable",
      "type": "function"
    },
    {
      "inputs": [],
      "name": "version",
      "outputs": [
        {
          "internalType": "string",
          "name": "",
          "type": "string"
        }
      ],
      "stateMutability": "view",
      "type": "function"
    },
    {
      "inputs": [
        {
          "internalType": "address",
          "name": "",
          "type": "address"
        }
      ],
      "name": "wards",
      "outputs": [
        {
          "internalType": "uint256",
          "name": "",
          "type": "uint256"
        }
      ],
      "stateMutability": "view",
      "type": "function"
    }
  ],
  "bytecode": "0x60803461010f576001600160401b0390601f610cbc38819003918201601f19168301929190848411838510176100f957816020928492604096875283398101031261010f57513360005260006020526001826000205560056020835161006481610114565b82815201645553446f6760d81b8152209160016020825161008481610114565b82815201603160f81b8152209181519260208401947f8b73c3c69bb8fe3d512ecc4cf759cc79239f7b179b0ffacaa9a75d522b39400f865283850152606084015260808301523060a083015260a0825260c0820193828510908511176100f957839052519020600555610b8c90816101308239f35b634e487b7160e01b600052604160045260246000fd5b600080fd5b604081019081106001600160401b038211176100f95760405256fe6040608081526004908136101561001557600080fd5b600091823560e01c90816306fdde031461057a578163095ea7b3146107c257816318160ddd146107a357816323b872dd1461077157816330adf81f14610736578163313ce5671461071a5781633644e515146106fb57816340c10f191461067057816354fd4d501461063357816365fae35e146105ed57816370a08231146105b55781637ecebe001461057f57816395d89b411461057a578382639c52a7f1146105335782639dc29fac1461041957508163a9059cbb146103e6578163bf353dbb146103af578163d505accf14610141575063dd62ed3e146100f657600080fd5b3461013d578060031936011261013d57806020926101126108f1565b61011a610907565b6001600160a01b0391821683526003865283832091168252845220549051908152f35b5080fd5b9050346103ab5760e03660031901126103ab5761015c6108f1565b610164610907565b9260443590606435936084359360ff85168095036103a757428610610364576005549660018060a01b0380921696878a52602096848852858b20998a549a6000198c146103515760018c019055865192858a8501957f6e71edae12b1b97f4d1f60370fef10105fa2faae0126114a169c64845d6126c987528c8a870152169b8c606086015289608086015260a085015260c084015260c0835260e0830167ffffffffffffffff948482108683111761033e578189528451902061010085019261190160f01b8452610102860152610122850152604281526101608401948186109086111761032b57848852519020835261018082015260a4356101a082015260c4356101c0909101528880528590899060809060015afa1561032157875116858115159182610317575b5050156102d65750907f8c5be1e5ebec7d5bd14f71427d1e84f3dd0314c0f7b2291e5b200ac8c7c3b9259291848752600383528087208688528352818188205551908152a380f35b83606492519162461bcd60e51b8352820152601960248201527f537461626c65436f696e2f696e76616c69642d7065726d6974000000000000006044820152fd5b149050853861028e565b82513d89823e3d90fd5b634e487b7160e01b8d526041875260248dfd5b634e487b7160e01b8e526041885260248efd5b634e487b7160e01b8d526011875260248dfd5b506020606492519162461bcd60e51b8352820152601960248201527f537461626c65436f696e2f7065726d69742d65787069726564000000000000006044820152fd5b8780fd5b8280fd5b50503461013d57602036600319011261013d5760209181906001600160a01b036103d76108f1565b16815280845220549051908152f35b50503461013d578060031936011261013d576020906104106104066108f1565b6024359033610a0b565b90519015158152f35b8084346105305780600319360112610530577fddf252ad1be2c89b69c2b068fc378daa952ba7f163c4a11628f55a4df523b3ef6104546108f1565b916024359260018060a01b0316928385526020916002835261047b82828820541015610969565b3385141580610512575b6104c0575b8486526002835261049e8282882054610b49565b85875260028452818720556104b582600154610b49565b60015551908152a380f35b8486526003835280862033875283526104de828288205410156109b5565b8486526003835280862033875283526104fa8282882054610b49565b8587526003845281872033885284528187205561048a565b50848652600383528086203387528352808620546000191415610485565b50fd5b8084346105305760203660031901126105305761054e6108f1565b338352826020526105646001838520541461091d565b6001600160a01b03168252602082905281205580f35b6108ae565b9050346103ab5760203660031901126103ab5760209282916001600160a01b036105a76108f1565b168252845220549051908152f35b50503461013d57602036600319011261013d5760209181906001600160a01b036105dd6108f1565b1681526002845220549051908152f35b50503461013d57602036600319011261013d5760019061060b6108f1565b3384528360205261062083838620541461091d565b828060a01b031683528260205282205580f35b50503461013d578160031936011261013d57805161066c9161065482610833565b60018252603160f81b60208301525191829182610865565b0390f35b50503461013d578060031936011261013d57817fddf252ad1be2c89b69c2b068fc378daa952ba7f163c4a11628f55a4df523b3ef60206106ae6108f1565b602435903385528483526106c76001878720541461091d565b60018060a01b031694858552600283526106e48282872054610b1f565b86865260028452818620556104b582600154610b1f565b50503461013d578160031936011261013d576020906005549051908152f35b50503461013d578160031936011261013d576020905160128152f35b50503461013d578160031936011261013d57602090517f6e71edae12b1b97f4d1f60370fef10105fa2faae0126114a169c64845d6126c98152f35b50503461013d57606036600319011261013d576020906104106107926108f1565b61079a610907565b60443591610a0b565b50503461013d578160031936011261013d576020906001549051908152f35b50503461013d578060031936011261013d57602091816107e06108f1565b91602435918291338152600387528181209460018060a01b0316948582528752205582519081527f8c5be1e5ebec7d5bd14f71427d1e84f3dd0314c0f7b2291e5b200ac8c7c3b925843392a35160018152f35b6040810190811067ffffffffffffffff82111761084f57604052565b634e487b7160e01b600052604160045260246000fd5b6020808252825181830181905290939260005b82811061089a57505060409293506000838284010152601f8019910116010190565b818101860151848201604001528501610878565b346108ec5760003660031901126108ec5761066c6040516108ce81610833565b60058152645553446f6760d81b602082015260405191829182610865565b600080fd5b600435906001600160a01b03821682036108ec57565b602435906001600160a01b03821682036108ec57565b1561092457565b60405162461bcd60e51b815260206004820152601960248201527f537461626c65436f696e2f6e6f742d617574686f72697a6564000000000000006044820152606490fd5b1561097057565b60405162461bcd60e51b815260206004820152601f60248201527f537461626c65436f696e2f696e73756666696369656e742d62616c616e6365006044820152606490fd5b156109bc57565b60405162461bcd60e51b815260206004820152602160248201527f537461626c65436f696e2f696e73756666696369656e742d616c6c6f77616e636044820152606560f81b6064820152608490fd5b7fddf252ad1be2c89b69c2b068fc378daa952ba7f163c4a11628f55a4df523b3ef9092919260018060a01b038091169260009484865260209260028452604091610a5a84848a20541015610969565b3387141580610b01575b610aaf575b86885260028552610a7d84848a2054610b49565b8789526002865283892055169586815281610a9b8482842054610b1f565b9188815260028652205551908152a3600190565b868852600385528288203389528552610acd84848a205410156109b5565b868852600385528288203389528552610ae984848a2054610b49565b87895260038652838920338a52865283892055610a69565b50868852600385528288203389528552828820546000191415610a64565b9190820191828111610b335782106108ec57565b634e487b7160e01b600052601160045260246000fd5b908103908111610b33579056fea2646970667358221220cd8402e6c6d97a03ecf92e0059f4c34b692d654b461d3210e5905dce15577d8064736f6c63430008130033",
  "linkReferences": {},
  "deployedLinkReferences": {}
}