{
  "_format": "hh-sol-artifact-1",
  "contractName": "Multicall",
  "sourceName": "contracts/Multicall.sol",
  "abi": [
    {
      "inputs": [],
      "stateMutability": "nonpayable",
      "type": "constructor"
    },
    {
      "anonymous": true,
      "inputs": [
        {
          "indexed": true,
          "internalType": "bytes4",
          "name": "sig",
          "type": "bytes4"
        },
        {
          "indexed": true,
          "internalType": "address",
          "name": "usr",
          "type": "address"
        },
        {
          "indexed": true,
          "internalType": "bytes32",
          "name": "arg1",
          "type": "bytes32"
        },
        {
          "indexed": true,
          "internalType": "bytes32",
          "name": "arg2",
          "type": "bytes32"
        },
        {
          "indexed": false,
          "internalType": "bytes",
          "name": "data",
          "type": "bytes"
        }
      ],
      "name": "LogNote",
      "type": "event"
    },
    {
      "stateMutability": "payable",
      "type": "fallback"
    },
    {
      "inputs": [
        {
          "components": [
            {
              "internalType": "address",
              "name": "target",
              "type": "address"
            },
            {
              "internalType": "bytes",
              "name": "callData",
              "type": "bytes"
            }
          ],
          "internalType": "struct Multicall.Call[]",
          "name": "calls",
          "type": "tuple[]"
        }
      ],
      "name": "aggregate",
      "outputs": [
        {
          "internalType": "uint256",
          "name": "blockNumber",
          "type": "uint256"
        },
        {
          "internalType": "bytes[]",
          "name": "returnData",
          "type": "bytes[]"
        }
      ],
      "stateMutability": "payable",
      "type": "function"
    },
    {
      "inputs": [
        {
          "components": [
            {
              "internalType": "address",
              "name": "target",
              "type": "address"
            },
            {
              "internalType": "bytes",
              "name": "callData",
              "type": "bytes"
            }
          ],
          "internalType": "struct Multicall.Call[]",
          "name": "calls",
          "type": "tuple[]"
        }
      ],
      "name": "blockAndAggregate",
      "outputs": [
        {
          "internalType": "uint256",
          "name": "blockNumber",
          "type": "uint256"
        },
        {
          "internalType": "bytes32",
          "name": "blockHash",
          "type": "bytes32"
        },
        {
          "components": [
            {
              "internalType": "bool",
              "name": "success",
              "type": "bool"
            },
            {
              "internalType": "bytes",
              "name": "returnData",
              "type": "bytes"
            }
          ],
          "internalType": "struct Multicall.Result[]",
          "name": "returnData",
          "type": "tuple[]"
        }
      ],
      "stateMutability": "payable",
      "type": "function"
    },
    {
      "inputs": [],
      "name": "cage",
      "outputs": [],
      "stateMutability": "nonpayable",
      "type": "function"
    },
    {
      "inputs": [
        {
          "internalType": "address",
          "name": "user",
          "type": "address"
        },
        {
          "internalType": "address",
          "name": "vatAddr",
          "type": "address"
        },
        {
          "internalType": "address",
          "name": "gemJoinAddr",
          "type": "address"
        },
        {
          "internalType": "address",
          "name": "daiJoinAddr",
          "type": "address"
        },
        {
          "internalType": "bytes32",
          "name": "ilk",
          "type": "bytes32"
        },
        {
          "internalType": "uint256",
          "name": "collateralAmount",
          "type": "uint256"
        },
        {
          "internalType": "uint256",
          "name": "daiAmount",
          "type": "uint256"
        }
      ],
      "name": "createCDPBatch",
      "outputs": [
        {
          "components": [
            {
              "internalType": "address",
              "name": "target",
              "type": "address"
            },
            {
              "internalType": "bytes",
              "name": "callData",
              "type": "bytes"
            }
          ],
          "internalType": "struct Multicall.Call[]",
          "name": "calls",
          "type": "tuple[]"
        }
      ],
      "stateMutability": "pure",
      "type": "function"
    },
    {
      "inputs": [
        {
          "internalType": "bytes",
          "name": "data",
          "type": "bytes"
        }
      ],
      "name": "decodeAddress",
      "outputs": [
        {
          "internalType": "address",
          "name": "",
          "type": "address"
        }
      ],
      "stateMutability": "pure",
      "type": "function"
    },
    {
      "inputs": [
        {
          "internalType": "bytes",
          "name": "data",
          "type": "bytes"
        }
      ],
      "name": "decodeBool",
      "outputs": [
        {
          "internalType": "bool",
          "name": "",
          "type": "bool"
        }
      ],
      "stateMutability": "pure",
      "type": "function"
    },
    {
      "inputs": [
        {
          "internalType": "bytes",
          "name": "data",
          "type": "bytes"
        }
      ],
      "name": "decodeUint256",
      "outputs": [
        {
          "internalType": "uint256",
          "name": "",
          "type": "uint256"
        }
      ],
      "stateMutability": "pure",
      "type": "function"
    },
    {
      "inputs": [
        {
          "internalType": "address",
          "name": "usr",
          "type": "address"
        }
      ],
      "name": "deny",
      "outputs": [],
      "stateMutability": "nonpayable",
      "type": "function"
    },
    {
      "inputs": [
        {
          "internalType": "address",
          "name": "target",
          "type": "address"
        },
        {
          "internalType": "bytes",
          "name": "data",
          "type": "bytes"
        }
      ],
      "name": "encodeCall",
      "outputs": [
        {
          "components": [
            {
              "internalType": "address",
              "name": "target",
              "type": "address"
            },
            {
              "internalType": "bytes",
              "name": "callData",
              "type": "bytes"
            }
          ],
          "internalType": "struct Multicall.Call",
          "name": "",
          "type": "tuple"
        }
      ],
      "stateMutability": "pure",
      "type": "function"
    },
    {
      "inputs": [
        {
          "internalType": "uint256",
          "name": "blockNumber",
          "type": "uint256"
        }
      ],
      "name": "getBlockHash",
      "outputs": [
        {
          "internalType": "bytes32",
          "name": "blockHash",
          "type": "bytes32"
        }
      ],
      "stateMutability": "view",
      "type": "function"
    },
    {
      "inputs": [],
      "name": "getBlockNumber",
      "outputs": [
        {
          "internalType": "uint256",
          "name": "blockNumber",
          "type": "uint256"
        }
      ],
      "stateMutability": "view",
      "type": "function"
    },
    {
      "inputs": [],
      "name": "getChainId",
      "outputs": [
        {
          "internalType": "uint256",
          "name": "chainid",
          "type": "uint256"
        }
      ],
      "stateMutability": "view",
      "type": "function"
    },
    {
      "inputs": [],
      "name": "getCurrentBlockCoinbase",
      "outputs": [
        {
          "internalType": "address",
          "name": "coinbase",
          "type": "address"
        }
      ],
      "stateMutability": "view",
      "type": "function"
    },
    {
      "inputs": [],
      "name": "getCurrentBlockDifficulty",
      "outputs": [
        {
          "internalType": "uint256",
          "name": "difficulty",
          "type": "uint256"
        }
      ],
      "stateMutability": "view",
      "type": "function"
    },
    {
      "inputs": [],
      "name": "getCurrentBlockGasLimit",
      "outputs": [
        {
          "internalType": "uint256",
          "name": "gaslimit",
          "type": "uint256"
        }
      ],
      "stateMutability": "view",
      "type": "function"
    },
    {
      "inputs": [],
      "name": "getCurrentBlockTimestamp",
      "outputs": [
        {
          "internalType": "uint256",
          "name": "timestamp",
          "type": "uint256"
        }
      ],
      "stateMutability": "view",
      "type": "function"
    },
    {
      "inputs": [
        {
          "internalType": "address",
          "name": "addr",
          "type": "address"
        }
      ],
      "name": "getEthBalance",
      "outputs": [
        {
          "internalType": "uint256",
          "name": "balance",
          "type": "uint256"
        }
      ],
      "stateMutability": "view",
      "type": "function"
    },
    {
      "inputs": [],
      "name": "getLastBlockHash",
      "outputs": [
        {
          "internalType": "bytes32",
          "name": "blockHash",
          "type": "bytes32"
        }
      ],
      "stateMutability": "view",
      "type": "function"
    },
    {
      "inputs": [],
      "name": "live",
      "outputs": [
        {
          "internalType": "uint256",
          "name": "",
          "type": "uint256"
        }
      ],
      "stateMutability": "view",
      "type": "function"
    },
    {
      "inputs": [
        {
          "internalType": "address",
          "name": "usr",
          "type": "address"
        }
      ],
      "name": "rely",
      "outputs": [],
      "stateMutability": "nonpayable",
      "type": "function"
    },
    {
      "inputs": [
        {
          "internalType": "bool",
          "name": "requireSuccess",
          "type": "bool"
        },
        {
          "components": [
            {
              "internalType": "address",
              "name": "target",
              "type": "address"
            },
            {
              "internalType": "bytes",
              "name": "callData",
              "type": "bytes"
            }
          ],
          "internalType": "struct Multicall.Call[]",
          "name": "calls",
          "type": "tuple[]"
        }
      ],
      "name": "tryAggregate",
      "outputs": [
        {
          "components": [
            {
              "internalType": "bool",
              "name": "success",
              "type": "bool"
            },
            {
              "internalType": "bytes",
              "name": "returnData",
              "type": "bytes"
            }
          ],
          "internalType": "struct Multicall.Result[]",
          "name": "returnData",
          "type": "tuple[]"
        }
      ],
      "stateMutability": "payable",
      "type": "function"
    },
    {
      "inputs": [
        {
          "internalType": "address",
          "name": "",
          "type": "address"
        }
      ],
      "name": "wards",
      "outputs": [
        {
          "internalType": "uint256",
          "name": "",
          "type": "uint256"
        }
      ],
      "stateMutability": "view",
      "type": "function"
    },
    {
      "stateMutability": "payable",
      "type": "receive"
    }
  ],
  "bytecode": "0x6080806040523461002b5733600052600060205260016040600020556001805561101e90816100318239f35b600080fdfe608060408181526004908136101561001f575b505050361561001d57005b005b600092833560e01c9081630f28c97d14610b8b57508063252dba4214610a2657806327e86d6e146109e85780633408e470146109cd57806342cbb15c146109b25780634d2301cc1461098c5780634ed5a4cd146106ac5780635b76f28b1461063757806365fae35e146105f157806369245009146105c25780636d78dc9c1461057357806372425d9d1461055857806386d516e81461053d578063957aa58c1461051e578381639c52a7f1146104d457508063a8b0574e146104b9578063af91c8aa1461045b578063bce38bd714610318578063bf353dbb146102e1578063c3077fa914610197578063c62173d01461013d5763ee82ac5e0361001257346101395760203660031901126101395760209250519035408152f35b8280fd5b509034610139576020366003190112610139578035906001600160401b0382116101935761016d91369101610c5f565b602081805181010312610139576020015190811515809203610139576020925051908152f35b8380fd5b5091602091826003193601126102dd5780356001600160401b038111610139576101c391369101610ca6565b906001906101dc828054146101d781610e8d565b610e8d565b8251926101e884610c12565b936101f587519586610bf1565b808552610204601f1991610c12565b0185835b8281106102c7575050508282905b610240575b86514380825240818801526060818901819052819061023c90820188610dd1565b0390f35b81518110156102c2576102bc9083806001600160a01b036102618487610f46565b5151168961026f8588610f46565b51015190828b83519301915af1610284610f5a565b61028d82610f8a565b89519161029983610ba5565b15158252888201526102ab8288610f46565b526102b68187610f46565b50610ece565b83610216565b61021b565b6102cf610fce565b828289010152018690610208565b5080fd5b8382346102dd5760203660031901126102dd5760209181906001600160a01b03610309610c29565b16815280845220549051908152f35b508060031936011261013957813591821515830361019357602435906001600160401b0382116104575761034e91369101610ca6565b9160019361035e85805414610e8d565b83519361036a85610c12565b9461037785519687610bf1565b808652610386601f1991610c12565b01825b8181106104405750508582905b6103b0575b84516020808252819061023c90820189610dd1565b815181101561043b57610427906001600160a01b036103cf8285610f46565b515116858580602093846103e3878a610f46565b51015190828683519301915af1916103f9610f5a565b9161042d575b88519261040b84610ba5565b1515835282015261041c8289610f46565b526102b68188610f46565b86610396565b61043683610f8a565b6103ff565b61039b565b60209061044b610fce565b82828a01015201610389565b8480fd5b509034610139576020366003190112610139578035906001600160401b0382116101935761048b91369101610c5f565b60208180518101031261013957602001516001600160a01b0381169190829003610139576020925051908152f35b8382346102dd57816003193601126102dd5760209051418152f35b80833461051b57602036600319011261051b576104ef610c29565b3383528260205261050560018385205414610e41565b6001600160a01b03168252602082905281205580f35b50fd5b8382346102dd57816003193601126102dd576020906001549051908152f35b8382346102dd57816003193601126102dd5760209051458152f35b8382346102dd57816003193601126102dd5760209051448152f35b509034610139576020366003190112610139578035906001600160401b038211610193576105a391369101610c5f565b916020838051810103126105bf57506020809201519051908152f35b80fd5b8382346102dd57816003193601126102dd5760016105ea913384528360205283205414610e41565b8060015580f35b8382346102dd5760203660031901126102dd5760019061060f610c29565b33845283602052610624838386205414610e41565b828060a01b031683528260205282205580f35b508290346102dd57806003193601126102dd57610652610c29565b91602435906001600160401b0382116105bf575061023c9361067691369101610c5f565b61067e610fce565b5081519261068b84610ba5565b60018060a01b03168352602083015251918291602083526020830190610da9565b5091346105bf5760e03660031901126105bf576106c7610c29565b6001600160a01b0391906024803584811692919083900361019357604435958587168097036104575760643593868516809503610988579088929160a43560c435928551996107158b610bd6565b818b52895b6080811061096157508651633b4da69f60e01b6020808301919091526001600160a01b038a16888301908152808201869052909d919081906040010398610769601f199a8b8101845283610bf1565b519161077483610ba5565b82528d8201526107838c610ef3565b5261078d8b610ef3565b508c5190637608870360e01b8d8301526084358783015288169283604483015283606483015283608483015260a48201528460c482015260c481526101008101908082106001600160401b0383111761094f57818e526107ec82610ba5565b8482526101208101526107fe8b610f16565b526108088a610f16565b506b033b2e3c9fd0803ce80000009081850291858304148515171561093d5750916108be959493916108b2938d51918d63bb35783b60e01b908401528683015289604483015260648201526064815261086081610bd6565b8c519161086c83610ba5565b82528b82015261087b8a610f26565b5261088589610f26565b508a5163ef693bed60e01b8b8201526001600160a01b039096169286019283526020830152849160400190565b03908101835282610bf1565b8551916108ca83610ba5565b8252848201526108d983610f36565b526108e382610f36565b5083519280840190808552835180925280868601968360051b870101940192955b8287106109115785850386f35b90919293828061092d600193603f198a82030186528851610da9565b9601920196019592919092610904565b634e487b7160e01b8a52601190528489fd5b634e487b7160e01b8b5260418352868bfd5b602091929394959697508b8282610976610fce565b9201015201908c96959493929161071a565b8580fd5b8382346102dd5760203660031901126102dd576020906109aa610c29565b319051908152f35b8382346102dd57816003193601126102dd5760209051438152f35b8382346102dd57816003193601126102dd5760209051468152f35b508290346102dd57816003193601126102dd57600019430191438311610a1357602083835190408152f35b634e487b7160e01b815260118452602490fd5b508290602092836003193601126101395780356001600160401b03811161019357849291610a5691369101610ca6565b92600191610a6683805414610e8d565b845194610a7286610c12565b95610a7f83519788610bf1565b808752610a8e601f1991610c12565b01835b818110610b7c5750508383905b610b05575b505080519381850191438652818601528551809252606085018160608460051b880101970193905b838210610ad85786880387f35b90919293948380610af4839a605f198b82030186528951610d69565b999701959493919091019101610acb565b93809694829693949651811015610b7057610b649087806001600160a01b03610b2e8488610f46565b51511687610b3c8589610f46565b51015190828983519301915af1610b5a610b54610f5a565b91610f8a565b61041c8289610f46565b90949695939295610a9e565b50939594929194610aa3565b60608882018801528601610a91565b8490346102dd57816003193601126102dd57602090428152f35b604081019081106001600160401b03821117610bc057604052565b634e487b7160e01b600052604160045260246000fd5b60a081019081106001600160401b03821117610bc057604052565b90601f801991011681019081106001600160401b03821117610bc057604052565b6001600160401b038111610bc05760051b60200190565b600435906001600160a01b0382168203610c3f57565b600080fd5b6001600160401b038111610bc057601f01601f191660200190565b81601f82011215610c3f57803590610c7682610c44565b92610c846040519485610bf1565b82845260208383010111610c3f57816000926020809301838601378301015290565b81601f82011215610c3f57803590610cbd82610c12565b92604092610ccd84519586610bf1565b808552602093848087019260051b85010193838511610c3f57858101925b858410610cfc575050505050505090565b6001600160401b038435818111610c3f5783019184601f198489030112610c3f578451610d2881610ba5565b838a01356001600160a01b0381168103610c3f57815285840135928311610c3f57610d5a888b80969581960101610c5f565b83820152815201930192610ceb565b919082519283825260005b848110610d95575050826000602080949584010152601f8019910116010190565b602081830181015184830182015201610d74565b9060406020610dce9360018060a01b0381511684520151918160208201520190610d69565b90565b908082519081815260208091019281808460051b8301019501936000915b848310610dff5750505050505090565b9091929394958480610e31600193601f19868203018752828b5180511515835201519060409081858201520190610d69565b9801930193019194939290610def565b15610e4857565b60405162461bcd60e51b815260206004820152601860248201527f4d756c746963616c6c2f6e6f742d617574686f72697a656400000000000000006044820152606490fd5b15610e9457565b60405162461bcd60e51b81526020600482015260126024820152714d756c746963616c6c2f6e6f742d6c69766560701b6044820152606490fd5b6000198114610edd5760010190565b634e487b7160e01b600052601160045260246000fd5b805115610f005760200190565b634e487b7160e01b600052603260045260246000fd5b805160011015610f005760400190565b805160021015610f005760600190565b805160031015610f005760800190565b8051821015610f005760209160051b010190565b3d15610f85573d90610f6b82610c44565b91610f796040519384610bf1565b82523d6000602084013e565b606090565b15610f9157565b60405162461bcd60e51b8152602060048201526015602482015274135d5b1d1a58d85b1b0bd8d85b1b0b59985a5b1959605a1b6044820152606490fd5b60405190610fdb82610ba5565b606060208360008152015256fea2646970667358221220faebd09c85a025774d3d9e3b6a6609b71b3407c895b7608a64ae1d3686c3f6fe64736f6c63430008130033",
  "linkReferences": {},
  "deployedLinkReferences": {}
}