{
  "_format": "hh-sol-artifact-1",
  "contractName": "Vow",
  "sourceName": "contracts/Vow.sol",
  "abi": [
    {
      "inputs": [
        {
          "internalType": "address",
          "name": "vat_",
          "type": "address"
        },
        {
          "internalType": "address",
          "name": "flapper_",
          "type": "address"
        },
        {
          "internalType": "address",
          "name": "flopper_",
          "type": "address"
        }
      ],
      "stateMutability": "nonpayable",
      "type": "constructor"
    },
    {
      "anonymous": false,
      "inputs": [],
      "name": "Cage",
      "type": "event"
    },
    {
      "anonymous": false,
      "inputs": [
        {
          "indexed": true,
          "internalType": "uint256",
          "name": "era",
          "type": "uint256"
        },
        {
          "indexed": false,
          "internalType": "uint256",
          "name": "tab",
          "type": "uint256"
        }
      ],
      "name": "Fess",
      "type": "event"
    },
    {
      "anonymous": false,
      "inputs": [
        {
          "indexed": true,
          "internalType": "uint256",
          "name": "id",
          "type": "uint256"
        },
        {
          "indexed": false,
          "internalType": "uint256",
          "name": "lot",
          "type": "uint256"
        },
        {
          "indexed": false,
          "internalType": "uint256",
          "name": "bid",
          "type": "uint256"
        }
      ],
      "name": "Flap",
      "type": "event"
    },
    {
      "anonymous": false,
      "inputs": [
        {
          "indexed": true,
          "internalType": "uint256",
          "name": "era",
          "type": "uint256"
        },
        {
          "indexed": false,
          "internalType": "uint256",
          "name": "tab",
          "type": "uint256"
        }
      ],
      "name": "Flog",
      "type": "event"
    },
    {
      "anonymous": false,
      "inputs": [
        {
          "indexed": true,
          "internalType": "uint256",
          "name": "id",
          "type": "uint256"
        },
        {
          "indexed": false,
          "internalType": "uint256",
          "name": "lot",
          "type": "uint256"
        },
        {
          "indexed": false,
          "internalType": "uint256",
          "name": "bid",
          "type": "uint256"
        }
      ],
      "name": "Flop",
      "type": "event"
    },
    {
      "anonymous": false,
      "inputs": [
        {
          "indexed": false,
          "internalType": "uint256",
          "name": "rad",
          "type": "uint256"
        }
      ],
      "name": "Heal",
      "type": "event"
    },
    {
      "anonymous": false,
      "inputs": [
        {
          "indexed": false,
          "internalType": "uint256",
          "name": "rad",
          "type": "uint256"
        }
      ],
      "name": "Kiss",
      "type": "event"
    },
    {
      "inputs": [],
      "name": "Ash",
      "outputs": [
        {
          "internalType": "uint256",
          "name": "",
          "type": "uint256"
        }
      ],
      "stateMutability": "view",
      "type": "function"
    },
    {
      "inputs": [],
      "name": "Sin",
      "outputs": [
        {
          "internalType": "uint256",
          "name": "",
          "type": "uint256"
        }
      ],
      "stateMutability": "view",
      "type": "function"
    },
    {
      "inputs": [],
      "name": "bump",
      "outputs": [
        {
          "internalType": "uint256",
          "name": "",
          "type": "uint256"
        }
      ],
      "stateMutability": "view",
      "type": "function"
    },
    {
      "inputs": [],
      "name": "cage",
      "outputs": [],
      "stateMutability": "nonpayable",
      "type": "function"
    },
    {
      "inputs": [
        {
          "internalType": "address",
          "name": "usr",
          "type": "address"
        }
      ],
      "name": "deny",
      "outputs": [],
      "stateMutability": "nonpayable",
      "type": "function"
    },
    {
      "inputs": [],
      "name": "dump",
      "outputs": [
        {
          "internalType": "uint256",
          "name": "",
          "type": "uint256"
        }
      ],
      "stateMutability": "view",
      "type": "function"
    },
    {
      "inputs": [
        {
          "internalType": "uint256",
          "name": "tab",
          "type": "uint256"
        }
      ],
      "name": "fess",
      "outputs": [],
      "stateMutability": "nonpayable",
      "type": "function"
    },
    {
      "inputs": [
        {
          "internalType": "bytes32",
          "name": "what",
          "type": "bytes32"
        },
        {
          "internalType": "uint256",
          "name": "data",
          "type": "uint256"
        }
      ],
      "name": "file",
      "outputs": [],
      "stateMutability": "nonpayable",
      "type": "function"
    },
    {
      "inputs": [
        {
          "internalType": "bytes32",
          "name": "what",
          "type": "bytes32"
        },
        {
          "internalType": "address",
          "name": "data",
          "type": "address"
        }
      ],
      "name": "file",
      "outputs": [],
      "stateMutability": "nonpayable",
      "type": "function"
    },
    {
      "inputs": [],
      "name": "flap",
      "outputs": [
        {
          "internalType": "uint256",
          "name": "id",
          "type": "uint256"
        }
      ],
      "stateMutability": "nonpayable",
      "type": "function"
    },
    {
      "inputs": [],
      "name": "flapper",
      "outputs": [
        {
          "internalType": "contract FlapLike",
          "name": "",
          "type": "address"
        }
      ],
      "stateMutability": "view",
      "type": "function"
    },
    {
      "inputs": [
        {
          "internalType": "uint256",
          "name": "era",
          "type": "uint256"
        }
      ],
      "name": "flog",
      "outputs": [],
      "stateMutability": "nonpayable",
      "type": "function"
    },
    {
      "inputs": [],
      "name": "flop",
      "outputs": [
        {
          "internalType": "uint256",
          "name": "id",
          "type": "uint256"
        }
      ],
      "stateMutability": "nonpayable",
      "type": "function"
    },
    {
      "inputs": [],
      "name": "flopper",
      "outputs": [
        {
          "internalType": "contract FlopLike",
          "name": "",
          "type": "address"
        }
      ],
      "stateMutability": "view",
      "type": "function"
    },
    {
      "inputs": [
        {
          "internalType": "uint256",
          "name": "rad",
          "type": "uint256"
        }
      ],
      "name": "heal",
      "outputs": [],
      "stateMutability": "nonpayable",
      "type": "function"
    },
    {
      "inputs": [],
      "name": "hump",
      "outputs": [
        {
          "internalType": "uint256",
          "name": "",
          "type": "uint256"
        }
      ],
      "stateMutability": "view",
      "type": "function"
    },
    {
      "inputs": [
        {
          "internalType": "uint256",
          "name": "rad",
          "type": "uint256"
        }
      ],
      "name": "kiss",
      "outputs": [],
      "stateMutability": "nonpayable",
      "type": "function"
    },
    {
      "inputs": [],
      "name": "live",
      "outputs": [
        {
          "internalType": "uint256",
          "name": "",
          "type": "uint256"
        }
      ],
      "stateMutability": "view",
      "type": "function"
    },
    {
      "inputs": [
        {
          "internalType": "address",
          "name": "usr",
          "type": "address"
        }
      ],
      "name": "rely",
      "outputs": [],
      "stateMutability": "nonpayable",
      "type": "function"
    },
    {
      "inputs": [
        {
          "internalType": "uint256",
          "name": "",
          "type": "uint256"
        }
      ],
      "name": "sin",
      "outputs": [
        {
          "internalType": "uint256",
          "name": "",
          "type": "uint256"
        }
      ],
      "stateMutability": "view",
      "type": "function"
    },
    {
      "inputs": [],
      "name": "sump",
      "outputs": [
        {
          "internalType": "uint256",
          "name": "",
          "type": "uint256"
        }
      ],
      "stateMutability": "view",
      "type": "function"
    },
    {
      "inputs": [],
      "name": "vat",
      "outputs": [
        {
          "internalType": "contract VatLike",
          "name": "",
          "type": "address"
        }
      ],
      "stateMutability": "view",
      "type": "function"
    },
    {
      "inputs": [],
      "name": "wait",
      "outputs": [
        {
          "internalType": "uint256",
          "name": "",
          "type": "uint256"
        }
      ],
      "stateMutability": "view",
      "type": "function"
    },
    {
      "inputs": [
        {
          "internalType": "address",
          "name": "",
          "type": "address"
        }
      ],
      "name": "wards",
      "outputs": [
        {
          "internalType": "uint256",
          "name": "",
          "type": "uint256"
        }
      ],
      "stateMutability": "view",
      "type": "function"
    }
  ],
  "bytecode": "0x6080346200012f57601f6200137b38819003918201601f1916830192916001600160401b039182851184861017620001345781606092859260409788528339810103126200012f5762000052826200014a565b6200006d8462000065602086016200014a565b94016200014a565b6000933385528460205260018686205560018060a01b03809316928060018060a01b0319928584600154161760015516928383600254161760025516906003541617600355813b156200012b5783929160248492875196879384926328ec8bf160e21b845260048401525af180156200012157620000fa575b836001600c555161121b9081620001608239f35b82116200010d57508152388080620000e6565b634e487b7160e01b81526041600452602490fd5b84513d84823e3d90fd5b8380fd5b600080fd5b634e487b7160e01b600052604160045260246000fd5b51906001600160a01b03821682036200012f5756fe6080604081815260048036101561001557600080fd5b600092833560e01c9081630e01198b14610ded575080631b8e8cfa14610dce5780632506855a14610c4e57806329ae811414610baf5780632a1d2b3c14610b9057806336569e7714610b675780634081d73a14610b3e5780635ca0d72314610b1557806364bd701314610af657806365fae35e14610ab057806368110b2f14610a9157806369245009146108de578063697efb7814610857578063957aa58c14610838578381639c52a7f1146107ee57508063bbbb0d7b146105e8578063bf353dbb146105b1578063c349d36214610592578063cb5cc1091461056c578063d0adc35f1461054d578063d4e8be83146103a9578063d7ee674b146102ed578063e4330545146102ca5763f37ac61c1461012d57600080fd5b3461024e5760209081600319360112610240576001548351633612d9a360e11b8152308184015282359286926001600160a01b0316918581602481865afa90811561028c578491610296575b506101869085111561115e565b855163782c909560e11b815230828201528581602481865afa90811561028c578491610252575b506101ca6101c16101d29260055490611151565b60065490611151565b8511156111a1565b813b1561024e5783602484928389519586948593633cdeb18760e21b85528401525af180156102445761022c575b50507f917d6982889419f491488c036c2e6abe788b07222064ab462158ec64ca2c4db79251908152a180f35b610235906110db565b610240578338610200565b8380fd5b85513d84823e3d90fd5b8280fd5b809450868092503d8311610285575b61026b8183611105565b810103126102805791518692906101ca6101ad565b600080fd5b503d610261565b87513d86823e3d90fd5b809450868092503d83116102c3575b6102af8183611105565b810103126102805761018687935190610179565b503d6102a5565b5050346102e957816003193601126102e9576020906008549051908152f35b5080fd5b509190346102e9576020928360031936011261024e57803561031160075482611127565b421061036f579383946103306005548287528484528587205490611151565b600555808552828252807f77f6d637bdb297972e16e03f99afbda73b21a36342b99e24dca178d404e6ab9f83868820548751908152a284525281205580f35b5083606492519162461bcd60e51b83528201526015602482015274159bddcbddd85a5d0b5b9bdd0b599a5b9a5cda1959605a1b6044820152fd5b503461024e578160031936011261024e578035916024356001600160a01b038181169391849003610280578594338652856020526103ec6001858820541461109a565b66333630b83832b960c91b81036104c8575080600154168160025416813b156104c45786916024839287519485938492636e26907d60e11b8452898401525af180156104ba579086916104a6575b5050600280546001600160a01b031916851790556001541692833b156104a2576024859283855196879485936328ec8bf160e21b85528401525af1908115610499575061048657505080f35b61048f906110db565b6104965780f35b80fd5b513d84823e3d90fd5b8480fd5b6104af906110db565b6104a257843861043a565b84513d88823e3d90fd5b8680fd5b939450909266333637b83832b960c91b141590506104fd5750506bffffffffffffffffffffffff60a01b600354161760035580f35b61054992505191829162461bcd60e51b8352820160609060208152601b60208201527f566f772f66696c652d756e7265636f676e697a65642d706172616d000000000060408201520190565b0390fd5b5050346102e957816003193601126102e9576020906005549051908152f35b503461024e57602036600319011261024e57602092818392358252845220549051908152f35b5050346102e957816003193601126102e9576020906009549051908152f35b5050346102e95760203660031901126102e95760209181906001600160a01b036105d9611084565b16815280845220549051908152f35b509190346102e957816003193601126102e957600954600154825163782c909560e11b81523081870152602095916001600160a01b0391908216908781602481855afa9081156107b557889088926107bf575b5061064b60249260055490611151565b9261066461065c6006548096611151565b8811156111a1565b8751633612d9a360e11b8152308782015292839182905afa9081156107b5578791610788575b5061074e5786929161069e85606493611127565b6006556003541691866008549387519687958694632dfa734960e21b86523090860152602485015260448401525af19283156107435792610714575b50817f71220da0d6a18fdcb119b93d05387ffc264a73b9a1fda95000aeeae4ca846a5f82600854600954825191825287820152a251908152f35b9091508281813d831161073c575b61072c8183611105565b81010312610280575190386106da565b503d610722565b8251903d90823e3d90fd5b845162461bcd60e51b81528084018890526014602482015273566f772f737572706c75732d6e6f742d7a65726f60601b6044820152606490fd5b90508781813d83116107ae575b61079f8183611105565b8101031261028057513861068a565b503d610795565b86513d89823e3d90fd5b809250813d83116107e7575b6107d58183611105565b8101031261028057518761064b61063b565b503d6107cb565b80843461083557602036600319011261083557610809611084565b3383528260205261081f6001838520541461109a565b6001600160a01b03168252602082905281205580f35b50fd5b5050346102e957816003193601126102e957602090600c549051908152f35b50903461024e57602036600319011261024e57813591338452836020526108836001838620541461109a565b428452806020526108978383862054611127565b90428552602052818420556108ae82600554611127565b600555519081527fec6aabc8ebabf9cf9e97376009d8c9a2d2807697fead1b96074a1e786276fb0860204292a280f35b508290346102e957816003193601126102e9573382526020928284526109096001828520541461109a565b6001600c5403610a6057829383600c55836005558360065560018060a01b03908160025416906024818460015416865192838092633612d9a360e11b8252308b8301525afa918215610a56578792610a25575b5050813b15610a21578591602483928651948593849263517c8d7960e11b84528a8401525af18015610a1757908591610a03575b50506003541691823b156109fe578151636924500960e01b81529284918491829084905af190811561049957506109ea575b50807f2308ed18a14e800c39b86eb6ea43270105955ca385b603b64eca89f98ae8fbda91a180f35b6109f3906110db565b6104965780826109c2565b505050fd5b610a0c906110db565b6109fe578386610990565b83513d87823e3d90fd5b8580fd5b8197508092503d8311610a4f575b610a3d8183611105565b8101031261028057859451878061095c565b503d610a33565b85513d89823e3d90fd5b5162461bcd60e51b8152908101839052600c60248201526b566f772f6e6f742d6c69766560a01b6044820152606490fd5b5050346102e957816003193601126102e957602090600a549051908152f35b5050346102e95760203660031901126102e957600190610ace611084565b33845283602052610ae383838620541461109a565b828060a01b031683528260205282205580f35b5050346102e957816003193601126102e9576020906007549051908152f35b5050346102e957816003193601126102e95760025490516001600160a01b039091168152602090f35b5050346102e957816003193601126102e95760035490516001600160a01b039091168152602090f35b5050346102e957816003193601126102e95760015490516001600160a01b039091168152602090f35b5050346102e957816003193601126102e9576020906006549051908152f35b503461024e578160031936011261024e578035916024359233855284602052610bdd6001838720541461109a565b631dd85a5d60e21b8103610bf45750505060075580f35b63064756d760e41b8103610c0b5750505060085580f35b63073756d760e41b8103610c225750505060095580f35b63062756d760e41b8103610c3957505050600a5580f35b63068756d760e41b036104fd575050600b5580f35b508290346102e9576020908160031936011261024e57600654813591818311610d96576001548651633612d9a360e11b815230838201526001600160a01b0390911692908581602481875afa908115610d8c579085918891610d59575b5091610cbc610cc19383111561115e565b611151565b600655813b156104a25782602486928389519586948593633cdeb18760e21b85528401525af18015610d4f57610d1e575b507fdf1d0254f949dd4607095c8a45ed43a96d548776dbb1d6e8347513d07b109e9b929351908152a180f35b92610d497fdf1d0254f949dd4607095c8a45ed43a96d548776dbb1d6e8347513d07b109e9b946110db565b92610cf2565b85513d86823e3d90fd5b809250878092503d8311610d85575b610d728183611105565b810103126104c457518490610cbc610cab565b503d610d68565b88513d89823e3d90fd5b855162461bcd60e51b815290810184905260126024820152710acdeee5edcdee85acadcdeeaced05ac2e6d60731b6044820152606490fd5b5050346102e957816003193601126102e957602090600b549051908152f35b82848634610496578060031936011261049657600154633612d9a360e11b8552308486015260209460249490916001600160a01b0390811687848881845afa938415610fda578594611055575b50855163782c909560e11b8082523085830152909489868a81865afa958615610d8c578796611026575b50610e72600a548097611127565b11610fe457889088885180948193825230888301525afa908115610fda578591610fab575b506101c1610ea89160055490611151565b610f75578692918460449260025416818851998a96879563ca40c41960e01b87528601528401525af1928315610f69578193610f18575b507fbdddd1971eeec114baaa6f1eb123c0f9f9a713ff6374b8d93f711205d472ecc3828492600a5490825191825287820152a251908152f35b909192508381813d8311610f62575b610f318183611105565b810103126102e9575191907fbdddd1971eeec114baaa6f1eb123c0f9f9a713ff6374b8d93f711205d472ecc3610edf565b503d610f27565b509051903d90823e3d90fd5b845162461bcd60e51b815280830188905260118188015270566f772f646562742d6e6f742d7a65726f60781b6044820152606490fd5b90508781813d8311610fd3575b610fc28183611105565b810103126104a257516101c1610e97565b503d610fb8565b86513d87823e3d90fd5b865162461bcd60e51b81528085018a90526018818a01527f566f772f696e73756666696369656e742d737572706c757300000000000000006044820152606490fd5b9095508981813d831161104e575b61103e8183611105565b810103126104c45751948a610e64565b503d611034565b9093508781813d831161107d575b61106d8183611105565b810103126104a257519288610e3a565b503d611063565b600435906001600160a01b038216820361028057565b156110a157565b60405162461bcd60e51b8152602060048201526012602482015271159bddcbdb9bdd0b585d5d1a1bdc9a5e995960721b6044820152606490fd5b67ffffffffffffffff81116110ef57604052565b634e487b7160e01b600052604160045260246000fd5b90601f8019910116810190811067ffffffffffffffff8211176110ef57604052565b919082019182811161113b57821061028057565b634e487b7160e01b600052601160045260246000fd5b90810390811161113b5790565b1561116557565b60405162461bcd60e51b8152602060048201526014602482015273566f772f696e73756666696369656e742d64616960601b6044820152606490fd5b156111a857565b60405162461bcd60e51b8152602060048201526015602482015274159bddcbda5b9cdd59999a58da595b9d0b5919589d605a1b6044820152606490fdfea2646970667358221220637482408c708c8b85c480cb2d4ac406707352c1e39d83dc735334ceefb07cd064736f6c63430008130033",
  "linkReferences": {},
  "deployedLinkReferences": {}
}