{
  "_format": "hh-sol-artifact-1",
  "contractName": "DaiJoin",
  "sourceName": "contracts/Join.sol",
  "abi": [
    {
      "inputs": [
        {
          "internalType": "address",
          "name": "vat_",
          "type": "address"
        },
        {
          "internalType": "address",
          "name": "dai_",
          "type": "address"
        }
      ],
      "stateMutability": "nonpayable",
      "type": "constructor"
    },
    {
      "inputs": [],
      "name": "cage",
      "outputs": [],
      "stateMutability": "nonpayable",
      "type": "function"
    },
    {
      "inputs": [],
      "name": "dai",
      "outputs": [
        {
          "internalType": "contract StableCoinLike",
          "name": "",
          "type": "address"
        }
      ],
      "stateMutability": "view",
      "type": "function"
    },
    {
      "inputs": [
        {
          "internalType": "address",
          "name": "usr",
          "type": "address"
        }
      ],
      "name": "deny",
      "outputs": [],
      "stateMutability": "nonpayable",
      "type": "function"
    },
    {
      "inputs": [
        {
          "internalType": "address",
          "name": "usr",
          "type": "address"
        },
        {
          "internalType": "uint256",
          "name": "wad",
          "type": "uint256"
        }
      ],
      "name": "exit",
      "outputs": [],
      "stateMutability": "nonpayable",
      "type": "function"
    },
    {
      "inputs": [
        {
          "internalType": "address",
          "name": "usr",
          "type": "address"
        },
        {
          "internalType": "uint256",
          "name": "wad",
          "type": "uint256"
        }
      ],
      "name": "join",
      "outputs": [],
      "stateMutability": "nonpayable",
      "type": "function"
    },
    {
      "inputs": [],
      "name": "live",
      "outputs": [
        {
          "internalType": "uint256",
          "name": "",
          "type": "uint256"
        }
      ],
      "stateMutability": "view",
      "type": "function"
    },
    {
      "inputs": [
        {
          "internalType": "address",
          "name": "usr",
          "type": "address"
        }
      ],
      "name": "rely",
      "outputs": [],
      "stateMutability": "nonpayable",
      "type": "function"
    },
    {
      "inputs": [],
      "name": "vat",
      "outputs": [
        {
          "internalType": "contract VatLike",
          "name": "",
          "type": "address"
        }
      ],
      "stateMutability": "view",
      "type": "function"
    },
    {
      "inputs": [
        {
          "internalType": "address",
          "name": "",
          "type": "address"
        }
      ],
      "name": "wards",
      "outputs": [
        {
          "internalType": "uint256",
          "name": "",
          "type": "uint256"
        }
      ],
      "stateMutability": "view",
      "type": "function"
    }
  ],
  "bytecode": "0x60803461009d57601f61063738819003918201601f19168301916001600160401b038311848410176100a257808492604094855283398101031261009d57610052602061004b836100b8565b92016100b8565b3360005260006020526001604060002055600160035560018060a01b03908160018060a01b031993168360015416176001551690600254161760025560405161056a90816100cd8239f35b600080fd5b634e487b7160e01b600052604160045260246000fd5b51906001600160a01b038216820361009d5756fe608060408181526004918236101561001657600080fd5b600092833560e01c91826336569e771461040a575081633b4da69f1461032257816365fae35e146102dc57816369245009146102ad578163957aa58c1461028e578382639c52a7f11461024457508163bf353dbb1461020d578163ef693bed146100b5575063f4b9fa751461008a57600080fd5b346100b157816003193601126100b15760025490516001600160a01b039091168152602090f35b5080fd5b8383346100b157806003193601126100b1576100cf61042f565b90602435936001600354036101d857600154939485946001600160a01b039081166100f9836104b9565b90803b156101d457855163bb35783b60e01b8152338682019081523060208201526040810193909352918891839182908490829060600103925af180156101ca579087916101b6575b505060025416803b156101b25783516340c10f1960e01b81526001600160a01b03909516928501928352602083019190915284918491908290849082906040015b03925af19081156101a957506101965750f35b61019f9061048f565b6101a65780f35b80fd5b513d84823e3d90fd5b8580fd5b6101bf9061048f565b6101b2578588610142565b85513d89823e3d90fd5b8780fd5b6020606492519162461bcd60e51b8352820152601060248201526f4461694a6f696e2f6e6f742d6c69766560801b6044820152fd5b5050346100b15760203660031901126100b15760209181906001600160a01b0361023561042f565b16815280845220549051908152f35b80843461028b57602036600319011261028b5761025f61042f565b338352826020526102756001838520541461044a565b6001600160a01b03168252602082905281205580f35b50fd5b5050346100b157816003193601126100b1576020906003549051908152f35b5050346100b157816003193601126100b15760016102d591338452836020528320541461044a565b8060035580f35b5050346100b15760203660031901126100b1576001906102fa61042f565b3384528360205261030f83838620541461044a565b828060a01b031683528260205282205580f35b839150346100b157826003193601126100b15761033d61042f565b926024359160018060a01b038060015416610357856104b9565b96813b1561040657845163bb35783b60e01b8152308582019081526001600160a01b03909216602083015260408201989098528691889182908490829060600103925af180156103fc576103e8575b8495506002541692833b156103e4578251632770a7eb60e21b8152339281019283526020830191909152928491849190829084908290604001610183565b8480fd5b9390946103f49061048f565b9284906103a6565b83513d87823e3d90fd5b8680fd5b8490346100b157816003193601126100b1576001546001600160a01b03168152602090f35b600435906001600160a01b038216820361044557565b600080fd5b1561045157565b60405162461bcd60e51b815260206004820152601660248201527511185a529bda5b8bdb9bdd0b585d5d1a1bdc9a5e995960521b6044820152606490fd5b67ffffffffffffffff81116104a357604052565b634e487b7160e01b600052604160045260246000fd5b906b033b2e3c9fd0803ce8000000918281029281840481148215171561051e578304036104e257565b60405162461bcd60e51b815260206004820152601460248201527364732d6d6174682d6d756c2d6f766572666c6f7760601b6044820152606490fd5b634e487b7160e01b600052601160045260246000fdfea2646970667358221220264e98459cd9aafd9988eef627ab1c9e1167fb4215037cb10d99bfbf5153435464736f6c63430008130033",
  "linkReferences": {},
  "deployedLinkReferences": {}
}