{
  "_format": "hh-sol-artifact-1",
  "contractName": "End",
  "sourceName": "contracts/End.sol",
  "abi": [
    {
      "inputs": [],
      "stateMutability": "nonpayable",
      "type": "constructor"
    },
    {
      "anonymous": false,
      "inputs": [],
      "name": "Cage",
      "type": "event"
    },
    {
      "anonymous": false,
      "inputs": [
        {
          "indexed": true,
          "internalType": "bytes32",
          "name": "ilk",
          "type": "bytes32"
        }
      ],
      "name": "Cage",
      "type": "event"
    },
    {
      "anonymous": false,
      "inputs": [
        {
          "indexed": true,
          "internalType": "bytes32",
          "name": "ilk",
          "type": "bytes32"
        },
        {
          "indexed": true,
          "internalType": "address",
          "name": "usr",
          "type": "address"
        },
        {
          "indexed": false,
          "internalType": "uint256",
          "name": "wad",
          "type": "uint256"
        }
      ],
      "name": "Cash",
      "type": "event"
    },
    {
      "anonymous": false,
      "inputs": [
        {
          "indexed": true,
          "internalType": "bytes32",
          "name": "ilk",
          "type": "bytes32"
        }
      ],
      "name": "Flow",
      "type": "event"
    },
    {
      "anonymous": false,
      "inputs": [
        {
          "indexed": true,
          "internalType": "bytes32",
          "name": "ilk",
          "type": "bytes32"
        },
        {
          "indexed": true,
          "internalType": "address",
          "name": "usr",
          "type": "address"
        },
        {
          "indexed": false,
          "internalType": "uint256",
          "name": "ink",
          "type": "uint256"
        }
      ],
      "name": "Free",
      "type": "event"
    },
    {
      "anonymous": false,
      "inputs": [
        {
          "indexed": true,
          "internalType": "address",
          "name": "usr",
          "type": "address"
        },
        {
          "indexed": false,
          "internalType": "uint256",
          "name": "wad",
          "type": "uint256"
        }
      ],
      "name": "Pack",
      "type": "event"
    },
    {
      "anonymous": false,
      "inputs": [
        {
          "indexed": true,
          "internalType": "bytes32",
          "name": "ilk",
          "type": "bytes32"
        },
        {
          "indexed": true,
          "internalType": "address",
          "name": "urn",
          "type": "address"
        },
        {
          "indexed": false,
          "internalType": "uint256",
          "name": "wad",
          "type": "uint256"
        },
        {
          "indexed": false,
          "internalType": "uint256",
          "name": "art",
          "type": "uint256"
        }
      ],
      "name": "Skim",
      "type": "event"
    },
    {
      "anonymous": false,
      "inputs": [
        {
          "indexed": true,
          "internalType": "bytes32",
          "name": "ilk",
          "type": "bytes32"
        },
        {
          "indexed": true,
          "internalType": "uint256",
          "name": "id",
          "type": "uint256"
        }
      ],
      "name": "Skip",
      "type": "event"
    },
    {
      "anonymous": false,
      "inputs": [],
      "name": "Thaw",
      "type": "event"
    },
    {
      "inputs": [
        {
          "internalType": "bytes32",
          "name": "",
          "type": "bytes32"
        }
      ],
      "name": "Art",
      "outputs": [
        {
          "internalType": "uint256",
          "name": "",
          "type": "uint256"
        }
      ],
      "stateMutability": "view",
      "type": "function"
    },
    {
      "inputs": [
        {
          "internalType": "address",
          "name": "",
          "type": "address"
        }
      ],
      "name": "bag",
      "outputs": [
        {
          "internalType": "uint256",
          "name": "",
          "type": "uint256"
        }
      ],
      "stateMutability": "view",
      "type": "function"
    },
    {
      "inputs": [],
      "name": "cage",
      "outputs": [],
      "stateMutability": "nonpayable",
      "type": "function"
    },
    {
      "inputs": [
        {
          "internalType": "bytes32",
          "name": "ilk",
          "type": "bytes32"
        }
      ],
      "name": "cage",
      "outputs": [],
      "stateMutability": "nonpayable",
      "type": "function"
    },
    {
      "inputs": [
        {
          "internalType": "bytes32",
          "name": "ilk",
          "type": "bytes32"
        },
        {
          "internalType": "uint256",
          "name": "wad",
          "type": "uint256"
        }
      ],
      "name": "cash",
      "outputs": [],
      "stateMutability": "nonpayable",
      "type": "function"
    },
    {
      "inputs": [],
      "name": "debt",
      "outputs": [
        {
          "internalType": "uint256",
          "name": "",
          "type": "uint256"
        }
      ],
      "stateMutability": "view",
      "type": "function"
    },
    {
      "inputs": [
        {
          "internalType": "address",
          "name": "usr",
          "type": "address"
        }
      ],
      "name": "deny",
      "outputs": [],
      "stateMutability": "nonpayable",
      "type": "function"
    },
    {
      "inputs": [],
      "name": "dog",
      "outputs": [
        {
          "internalType": "contract DogLike",
          "name": "",
          "type": "address"
        }
      ],
      "stateMutability": "view",
      "type": "function"
    },
    {
      "inputs": [
        {
          "internalType": "bytes32",
          "name": "what",
          "type": "bytes32"
        },
        {
          "internalType": "uint256",
          "name": "data",
          "type": "uint256"
        }
      ],
      "name": "file",
      "outputs": [],
      "stateMutability": "nonpayable",
      "type": "function"
    },
    {
      "inputs": [
        {
          "internalType": "bytes32",
          "name": "what",
          "type": "bytes32"
        },
        {
          "internalType": "address",
          "name": "data",
          "type": "address"
        }
      ],
      "name": "file",
      "outputs": [],
      "stateMutability": "nonpayable",
      "type": "function"
    },
    {
      "inputs": [
        {
          "internalType": "bytes32",
          "name": "",
          "type": "bytes32"
        }
      ],
      "name": "fix",
      "outputs": [
        {
          "internalType": "uint256",
          "name": "",
          "type": "uint256"
        }
      ],
      "stateMutability": "view",
      "type": "function"
    },
    {
      "inputs": [
        {
          "internalType": "bytes32",
          "name": "ilk",
          "type": "bytes32"
        }
      ],
      "name": "flow",
      "outputs": [],
      "stateMutability": "nonpayable",
      "type": "function"
    },
    {
      "inputs": [
        {
          "internalType": "bytes32",
          "name": "ilk",
          "type": "bytes32"
        }
      ],
      "name": "free",
      "outputs": [],
      "stateMutability": "nonpayable",
      "type": "function"
    },
    {
      "inputs": [
        {
          "internalType": "bytes32",
          "name": "",
          "type": "bytes32"
        }
      ],
      "name": "gap",
      "outputs": [
        {
          "internalType": "uint256",
          "name": "",
          "type": "uint256"
        }
      ],
      "stateMutability": "view",
      "type": "function"
    },
    {
      "inputs": [],
      "name": "jug",
      "outputs": [
        {
          "internalType": "contract JugLike",
          "name": "",
          "type": "address"
        }
      ],
      "stateMutability": "view",
      "type": "function"
    },
    {
      "inputs": [],
      "name": "live",
      "outputs": [
        {
          "internalType": "uint256",
          "name": "",
          "type": "uint256"
        }
      ],
      "stateMutability": "view",
      "type": "function"
    },
    {
      "inputs": [
        {
          "internalType": "bytes32",
          "name": "",
          "type": "bytes32"
        },
        {
          "internalType": "address",
          "name": "",
          "type": "address"
        }
      ],
      "name": "out",
      "outputs": [
        {
          "internalType": "uint256",
          "name": "",
          "type": "uint256"
        }
      ],
      "stateMutability": "view",
      "type": "function"
    },
    {
      "inputs": [
        {
          "internalType": "uint256",
          "name": "wad",
          "type": "uint256"
        }
      ],
      "name": "pack",
      "outputs": [],
      "stateMutability": "nonpayable",
      "type": "function"
    },
    {
      "inputs": [],
      "name": "pot",
      "outputs": [
        {
          "internalType": "contract PotLike",
          "name": "",
          "type": "address"
        }
      ],
      "stateMutability": "view",
      "type": "function"
    },
    {
      "inputs": [
        {
          "internalType": "address",
          "name": "usr",
          "type": "address"
        }
      ],
      "name": "rely",
      "outputs": [],
      "stateMutability": "nonpayable",
      "type": "function"
    },
    {
      "inputs": [
        {
          "internalType": "bytes32",
          "name": "ilk",
          "type": "bytes32"
        },
        {
          "internalType": "address",
          "name": "urn",
          "type": "address"
        }
      ],
      "name": "skim",
      "outputs": [],
      "stateMutability": "nonpayable",
      "type": "function"
    },
    {
      "inputs": [
        {
          "internalType": "bytes32",
          "name": "ilk",
          "type": "bytes32"
        },
        {
          "internalType": "uint256",
          "name": "id",
          "type": "uint256"
        }
      ],
      "name": "skip",
      "outputs": [],
      "stateMutability": "nonpayable",
      "type": "function"
    },
    {
      "inputs": [],
      "name": "spot",
      "outputs": [
        {
          "internalType": "contract SpotLike",
          "name": "",
          "type": "address"
        }
      ],
      "stateMutability": "view",
      "type": "function"
    },
    {
      "inputs": [
        {
          "internalType": "bytes32",
          "name": "",
          "type": "bytes32"
        }
      ],
      "name": "tag",
      "outputs": [
        {
          "internalType": "uint256",
          "name": "",
          "type": "uint256"
        }
      ],
      "stateMutability": "view",
      "type": "function"
    },
    {
      "inputs": [],
      "name": "thaw",
      "outputs": [],
      "stateMutability": "nonpayable",
      "type": "function"
    },
    {
      "inputs": [],
      "name": "vat",
      "outputs": [
        {
          "internalType": "contract VatLike",
          "name": "",
          "type": "address"
        }
      ],
      "stateMutability": "view",
      "type": "function"
    },
    {
      "inputs": [],
      "name": "vow",
      "outputs": [
        {
          "internalType": "contract VowLike",
          "name": "",
          "type": "address"
        }
      ],
      "stateMutability": "view",
      "type": "function"
    },
    {
      "inputs": [],
      "name": "wait",
      "outputs": [
        {
          "internalType": "uint256",
          "name": "",
          "type": "uint256"
        }
      ],
      "stateMutability": "view",
      "type": "function"
    },
    {
      "inputs": [
        {
          "internalType": "address",
          "name": "",
          "type": "address"
        }
      ],
      "name": "wards",
      "outputs": [
        {
          "internalType": "uint256",
          "name": "",
          "type": "uint256"
        }
      ],
      "stateMutability": "view",
      "type": "function"
    },
    {
      "inputs": [],
      "name": "when",
      "outputs": [
        {
          "internalType": "uint256",
          "name": "",
          "type": "uint256"
        }
      ],
      "stateMutability": "view",
      "type": "function"
    }
  ],
  "bytecode": "0x6080806040523461002c573360005260006020526001604060002055600160075561178d90816100328239f35b600080fdfe608060408181526004908136101561001657600080fd5b600092833560e01c9081630dca59c1146114375750806329ae8114146113ec57806336569e77146113c35780634a10eaa61461125f5780634ba2363a14611236578063503ecf06146111e65780635920375c14610ffc578063626cb3c514610fd357806363fad85e14610fab57806364bd701314610f8c57806365fae35e14610f465780636924500914610ccb5780636ea4255514610bb05780636f265b9314610b8757806384718d8914610b5f57806389ea45d3146109285780639255f809146108f0578063957aa58c146108d1578381639c52a7f11461088757508063bf353dbb14610850578063c3b3ad7f14610827578063c83062c6146106d4578063c939ebfc14610693578063d4e8be83146104ed578063e1340a3d146104c5578063e2702fdc1461039f578063e2b0caef1461037c578063e6ee62aa14610354578063ee6447b51461032c5763fe8507c61461017057600080fd5b346102f55761017e36611453565b929091828552602091600e835281862054156102f9578560018060a01b0360015416858252600e85526b033b2e3c9fd0803ce80000006101c96101c4868520548a6115e1565b611699565b04813b156102f55782916084839287519485938492633088df1760e11b84528c8a85015230602485015233604485015260648401525af180156102eb576102d3575b508490526010835281862033600052835261022a8583600020546116b9565b848752601084528287203360005284528260002055838652601083528186203360005283528160002054338752600f845282872054106102925750907f888c7c01b06fd8004523e2bc9a274be1feaa9f03579ae5f568061dac078793c991519384523393a380f35b82606492519162461bcd60e51b8352820152601c60248201527f456e642f696e73756666696369656e742d6261672d62616c616e6365000000006044820152fd5b6102dc90611511565b6102e757853861020b565b8580fd5b84513d84823e3d90fd5b8280fd5b82606492519162461bcd60e51b8352820152600f60248201526e115b990bd99a5e0b5b9bdd0b5cd95d608a1b6044820152fd5b5090346102f55760203660031901126102f5576020928291358152600b845220549051908152f35b5090346102f55760203660031901126102f5576020928291358152600c845220549051908152f35b83823461039b578160031936011261039b576020906008549051908152f35b5080fd5b5090346102f55760203660031901126102f5578035916103c16007541561155d565b828452600b60205280842054610494576001548151636cb1c69b60e11b815292830184905260a090839060249082906001600160a01b03165afa91821561048a57849085908694610453575b5090610418916115e1565b838552600d60205281852055600b6020528320557f4a9efa0a0e3f548761a6924fe06ac5cb94ecdbc08b10d855bbcc04e37c4910db8280a280f35b9050610418935061047b915060a03d8111610483575b610473818361153b565b81019061159a565b50509361040d565b503d610469565b81513d86823e3d90fd5b906020606492519162461bcd60e51b8352820152600b60248201526a115b990bdd1859cb5cd95d60aa1b6044820152fd5b5090346102f55760203660031901126102f5576020928291358152600d845220549051908152f35b5090346102f557816003193601126102f55780359161050a61147f565b923385528460205261052160018387205414611495565b61052f6001600754146114d6565b621d985d60ea1b810361055d5750505060018060a01b03166001600160601b0360a01b600154161760015580f35b62646f6760e81b810361058b5750505060018060a01b03166001600160601b0360a01b600254161760025580f35b62766f7760e81b81036105b95750505060018060a01b03166001600160601b0360a01b600354161760035580f35b626a756760e81b81036105e857505080546001600160a01b0319166001600160a01b0390921691909117905580f35b621c1bdd60ea1b81036106165750505060018060a01b03166001600160601b0360a01b600554161760055580f35b631cdc1bdd60e21b0361064357505060018060a01b03166001600160601b0360a01b600654161760065580f35b61068f92505191829162461bcd60e51b8352820160609060208152601b60208201527f456e642f66696c652d756e7265636f676e697a65642d706172616d000000000060408201520190565b0390fd5b5090346102f557816003193601126102f557816020936106b161147f565b9235815260108552209060018060a01b0316600052825280600020549051908152f35b50346102f55760203660031901126102f5578135906106f56007541561155d565b60015481516309092f9760e21b8152808501848152336020820152909486926001600160a01b03908116928590889081906040010381865afa96871561081d5784976107ed575b50600354169161074b87611688565b90803b156107e95784928360c4928994895197889687956301eeacfd60e61b8752860152336024860152336044860152606485015260848401528160a48401525af180156107df576107c7575b5050519182527ff26f2b994a5e16f0960958e62541681f9e3e84d4caac2e487d25e0c75243f0d860203393a380f35b6107d090611511565b6107db578338610798565b8380fd5b83513d84823e3d90fd5b8480fd5b61080e919750853d8711610816575b610806818361153b565b810190611672565b50953861073c565b503d6107fc565b85513d86823e3d90fd5b83823461039b578160031936011261039b5760025490516001600160a01b039091168152602090f35b83823461039b57602036600319011261039b5760209181906001600160a01b03610878611469565b16815280845220549051908152f35b8083346108ce5760203660031901126108ce576108a2611469565b338352826020526108b860018385205414611495565b6001600160a01b03168252602082905281205580f35b50fd5b83823461039b578160031936011261039b576020906007549051908152f35b83823461039b57602036600319011261039b5760209181906001600160a01b03610918611469565b168152600f845220549051908152f35b50346102f557806003193601126102f55781359061094461147f565b90828552600b60205261095b818620541515611634565b60015481516309092f9760e21b81528581018581526001600160a01b0385811660208301529283169491928892918590859081906040010381895afa958615610b555783948497610b30575b5060a08860248b89519485938492636cb1c69b60e11b84528301525afa908115610b26576101c46101c492610a0a928791610b03575b506109f76b033b2e3c9fd0803ce80000009485928c6115e1565b048a8752600b60205288872054906115e1565b0493848111610af957610a3590945b888552600c602052610a2f8688872054926116cd565b906116b9565b878452600c60205285842055806001541690806003541698610a5686611688565b90610a6089611688565b92843b15610af55786948b9460c49487938c51998a9889976301eeacfd60e61b8952880152169e8f60248701523060448701526064860152608485015260a48401525af180156102eb57610ae1575b50507fa05b7b56166c25efbac063da905f9ea6aa1dc5101f95b43c7a838aace979ab599282519182526020820152a380f35b610aea90611511565b6102e7578538610aaf565b8680fd5b50610a3584610a19565b610b1b915060a03d811161048357610473818361153b565b5050509050386109dd565b86513d86823e3d90fd5b909650610b4b919450853d871161081657610806818361153b565b93909395386109a7565b85513d85823e3d90fd5b5090346102f557826003193601126102f5575490516001600160a01b03909116815260209150f35b83823461039b578160031936011261039b5760065490516001600160a01b039091168152602090f35b50346102f55760203660031901126102f557813591610bd2600a5415156116da565b6001546003546001600160a01b03918216926b033b2e3c9fd0803ce800000086810293919290911690861587850482141715610cb6578690840403610cb1578387943b156107e9578492836064928851968795869463bb35783b60e01b86523390860152602485015260448401525af180156107df57610c9d575b5050338352600f602052610c6482828520546116b9565b338452600f60205281842055519081527f47a981d8cbc0f6df64c9be4ce0a423071a088bd46c549bbd11a4d566e031fe0c60203392a280f35b610ca690611511565b6102f5578238610c4d565b600080fd5b601183634e487b7160e01b6000525260246000fd5b5091903461039b578160031936011261039b5733825281602052610cf460018484205414611495565b610d026001600754146114d6565b6007829055426008556001546001600160a01b0393908416803b156107db578151948486858183636924500960e01b968783525af18015610f3c57610f28575b8495508060025416803b156102e757835186816024818363389c0bf760e21b9687835265444f47452d4160d01b8c8401525af18015610f1e57908791610f0a575b5050816002541690813b15610af55786916024839287519485938492835265534849422d4160d01b8b8401525af18015610ec457908691610ef6575b50508060035416803b156102e757858091868651809481938883525af18015610ec457908691610ee2575b505080845416803b156102e757858091868651809481938883525af18015610ec457908691610ece575b50508060055416803b156102e757858091868651809481938883525af18015610ec457908691610eb0575b505060065416803b156107e957849384928451958693849283525af1908115610ea75750610e90575b50807f2308ed18a14e800c39b86eb6ea43270105955ca385b603b64eca89f98ae8fbda91a180f35b610e9990611511565b610ea4578038610e68565b80fd5b513d84823e3d90fd5b610eb990611511565b6107e9578438610e3f565b84513d88823e3d90fd5b610ed790611511565b6107e9578438610e14565b610eeb90611511565b6107e9578438610dea565b610eff90611511565b6107e9578438610dbf565b610f1390611511565b6102e7578538610d83565b85513d89823e3d90fd5b939094610f3490611511565b928490610d42565b83513d87823e3d90fd5b83823461039b57602036600319011261039b57600190610f64611469565b33845283602052610f79838386205414611495565b828060a01b031683528260205282205580f35b83823461039b578160031936011261039b576020906009549051908152f35b5090346102f55760203660031901126102f5576020928291358152600e845220549051908152f35b83823461039b578160031936011261039b5760035490516001600160a01b039091168152602090f35b5090346102f557826003193601126102f55761101a6007541561155d565b600a546111b0576001546003548351633612d9a360e11b81526001600160a01b039182168482015260209391909216918381602481865afa9081156111a6578691611179575b5061113f57611074600854600954906116b9565b4210611104578351630dca59c160e01b8152929182918491829088905af19283156110fb575083926110cd575b5050600a557f4df15159e645ba7d02cadde0bc937abef5ad0134623c00de50a31750b85978b98180a180f35b90809250813d83116110f4575b6110e4818361153b565b8101031261039b575138806110a1565b503d6110da565b513d85823e3d90fd5b835162461bcd60e51b81529081018390526015602482015274115b990bddd85a5d0b5b9bdd0b599a5b9a5cda1959605a1b6044820152606490fd5b835162461bcd60e51b81529081018390526014602482015273456e642f737572706c75732d6e6f742d7a65726f60601b6044820152606490fd5b90508381813d831161119f575b611190818361153b565b810103126102e7575138611060565b503d611186565b85513d88823e3d90fd5b6020606492519162461bcd60e51b83528201526011602482015270456e642f646562742d6e6f742d7a65726f60781b6044820152fd5b83823461039b5761120f906111fa36611453565b929091828552600b6020528420541515611634565b7f6687d56ee64642c36984a8548f81634355badcb14a3278fc67746da597b2ab848380a380f35b83823461039b578160031936011261039b5760055490516001600160a01b039091168152602090f35b50346102f557602090816003193601126107db576024833593611285600a5415156116da565b6001548351636cb1c69b60e11b81528281018790529260a09184919082906001600160a01b03165afa9182156113b9578692611394575b50848652600e84528286205461136357506113346113236113126b033b2e3c9fd0803ce80000006112fc6101c4600e968a8c52600d8a52888c20546115e1565b04878952600d875280868a2055600a549061171b565b868852600c865284882054906116cd565b858752600d8552838720549061171b565b92848652528320557f8d1d5ae676a6db1f6f14414f8a6c78941bbfb700fe3f3be6d3245f26c2f2d5508280a280f35b825162461bcd60e51b8152908101849052600b60248201526a115b990bd99a5e0b5cd95d60aa1b6044820152606490fd5b6113ad91925060a03d811161048357610473818361153b565b505050905090386112bc565b83513d88823e3d90fd5b83823461039b578160031936011261039b5760015490516001600160a01b039091168152602090f35b5090346102f5576113fc36611453565b92903385528460205261141460018387205414611495565b6114226001600754146114d6565b631dd85a5d60e21b0361064357505060095580f35b84903461039b578160031936011261039b57602090600a548152f35b6040906003190112610cb1576004359060243590565b600435906001600160a01b0382168203610cb157565b602435906001600160a01b0382168203610cb157565b1561149c57565b60405162461bcd60e51b8152602060048201526012602482015271115b990bdb9bdd0b585d5d1a1bdc9a5e995960721b6044820152606490fd5b156114dd57565b60405162461bcd60e51b815260206004820152600c60248201526b456e642f6e6f742d6c69766560a01b6044820152606490fd5b67ffffffffffffffff811161152557604052565b634e487b7160e01b600052604160045260246000fd5b90601f8019910116810190811067ffffffffffffffff82111761152557604052565b1561156457565b60405162461bcd60e51b815260206004820152600e60248201526d456e642f7374696c6c2d6c69766560901b6044820152606490fd5b908160a0910312610cb1578051916020820151916040810151916080606083015192015190565b81156115cb570490565b634e487b7160e01b600052601260045260246000fd5b6000929180159182156115f8575b505015610cb157565b8082029450915081158285048214171561161e5761161690846115c1565b1438806115ef565b634e487b7160e01b600052601160045260246000fd5b1561163b57565b60405162461bcd60e51b815260206004820152600f60248201526e115b990bdd1859cb5b9bdd0b5cd95d608a1b6044820152606490fd5b9190826040910312610cb1576020825192015190565b600160ff1b811461161e5760000390565b906b019d971e4fe8401e7400000082019182811161161e578210610cb157565b919082019182811161161e578210610cb157565b90810390811161161e5790565b156116e157565b60405162461bcd60e51b8152602060048201526012602482015271456e642f6e6f742d70726f63657373696e6760701b6044820152606490fd5b90670de0b6b3a7640000918281029281840481148215171561161e57830403610cb15761174f611754928260011c906116b9565b6115c1565b9056fea2646970667358221220398474ebb0ff85066fb2ea7efde4a1d85571fa24db5cfad84dab7f3210c930ba64736f6c63430008130033",
  "linkReferences": {},
  "deployedLinkReferences": {}
}