{
  "_format": "hh-sol-artifact-1",
  "contractName": "Api3PriceFeed",
  "sourceName": "contracts/PriceFeed.sol",
  "abi": [
    {
      "inputs": [
        {
          "internalType": "address",
          "name": "_priceFeed",
          "type": "address"
        }
      ],
      "stateMutability": "nonpayable",
      "type": "constructor"
    },
    {
      "inputs": [
        {
          "internalType": "address",
          "name": "usr",
          "type": "address"
        }
      ],
      "name": "deny",
      "outputs": [],
      "stateMutability": "nonpayable",
      "type": "function"
    },
    {
      "inputs": [],
      "name": "peek",
      "outputs": [
        {
          "internalType": "bytes32",
          "name": "",
          "type": "bytes32"
        },
        {
          "internalType": "bool",
          "name": "",
          "type": "bool"
        }
      ],
      "stateMutability": "view",
      "type": "function"
    },
    {
      "inputs": [],
      "name": "read",
      "outputs": [
        {
          "internalType": "bytes32",
          "name": "",
          "type": "bytes32"
        }
      ],
      "stateMutability": "view",
      "type": "function"
    },
    {
      "inputs": [
        {
          "internalType": "address",
          "name": "usr",
          "type": "address"
        }
      ],
      "name": "rely",
      "outputs": [],
      "stateMutability": "nonpayable",
      "type": "function"
    },
    {
      "inputs": [
        {
          "internalType": "uint256",
          "name": "_stalePeriod",
          "type": "uint256"
        }
      ],
      "name": "setStalePeriod",
      "outputs": [],
      "stateMutability": "nonpayable",
      "type": "function"
    },
    {
      "inputs": [],
      "name": "stalePeriod",
      "outputs": [
        {
          "internalType": "uint256",
          "name": "",
          "type": "uint256"
        }
      ],
      "stateMutability": "view",
      "type": "function"
    },
    {
      "inputs": [
        {
          "internalType": "address",
          "name": "",
          "type": "address"
        }
      ],
      "name": "wards",
      "outputs": [
        {
          "internalType": "uint256",
          "name": "",
          "type": "uint256"
        }
      ],
      "stateMutability": "view",
      "type": "function"
    }
  ],
  "bytecode": "0x60803461008757601f61047238819003918201601f19168301916001600160401b0383118484101761008c5780849260209460405283398101031261008757516001600160a01b0381169081900361008757336000526000602052600160406000205560018060a01b03196001541617600155610e106002556040516103cf90816100a38239f35b600080fd5b634e487b7160e01b600052604160045260246000fdfe6040608081526004908136101561001557600080fd5b600091823560e01c806357de26a4146101c157806359e02dd71461019557806365fae35e1461014b578381639c52a7f1146100fe57508063a5b36a36146100db578063a6f4ab2e146100ab5763bf353dbb1461007057600080fd5b346100a75760203660031901126100a757356001600160a01b038116908190036100a7578282916020945280845220549051908152f35b8280fd5b5090346100a75760203660031901126100a75760016100d4913385528460205284205414610231565b3560025580f35b5050346100fa57816003193601126100fa576020906002549051908152f35b5080fd5b8084843461014757602036600319011261014757356001600160a01b03811690819003610147573383528260205261013b60018385205414610231565b82528160205281205580f35b5050fd5b50346100a75760203660031901126100a757356001600160a01b03811691908290036100a75760019133845283602052610189838386205414610231565b83528260205282205580f35b8284346101be57806003193601126101be57506101b061027d565b825191825215156020820152f35b80fd5b5082346101be57806003193601126101be57506101dc61027d565b919091156101ee575060209151908152f35b606490602084519162461bcd60e51b8352820152602060248201527f417069335072696365466565642f696e76616c69642d70726963652d666565646044820152fd5b1561023857565b60405162461bcd60e51b815260206004820152601c60248201527f417069335072696365466565642f6e6f742d617574686f72697a6564000000006044820152606490fd5b600154604080516315f789a960e21b815290918290829060049082906001600160a01b03165afa8091600093849361031b575b50506102c1575b5050600090600090565b600082601b0b1390816102e9575b506102da57806102b7565b6001600160e01b031690600190565b63ffffffff9150164203428111610305576002541015386102cf565b634e487b7160e01b600052601160045260246000fd5b80919293503d8211610392575b601f8101601f1916830167ffffffffffffffff81118482101761037e5782528201829003126100a75780519081601b0b820361037a57602001519263ffffffff841684036101be5750919038806102b0565b8380fd5b634e487b7160e01b86526041600452602486fd5b503d61032856fea26469706673582212200806781bb38e884b1b537b7da8ed6bd87c7a3e113470666a7bf15954a370f37d64736f6c63430008130033",
  "linkReferences": {},
  "deployedLinkReferences": {}
}