{
  "_format": "hh-sol-artifact-1",
  "contractName": "ChainlinkPriceFeed",
  "sourceName": "contracts/PriceFeed.sol",
  "abi": [
    {
      "inputs": [
        {
          "internalType": "address",
          "name": "_priceFeed",
          "type": "address"
        }
      ],
      "stateMutability": "nonpayable",
      "type": "constructor"
    },
    {
      "inputs": [
        {
          "internalType": "address",
          "name": "usr",
          "type": "address"
        }
      ],
      "name": "deny",
      "outputs": [],
      "stateMutability": "nonpayable",
      "type": "function"
    },
    {
      "inputs": [],
      "name": "feedDecimals",
      "outputs": [
        {
          "internalType": "uint8",
          "name": "",
          "type": "uint8"
        }
      ],
      "stateMutability": "view",
      "type": "function"
    },
    {
      "inputs": [],
      "name": "peek",
      "outputs": [
        {
          "internalType": "bytes32",
          "name": "",
          "type": "bytes32"
        },
        {
          "internalType": "bool",
          "name": "",
          "type": "bool"
        }
      ],
      "stateMutability": "view",
      "type": "function"
    },
    {
      "inputs": [],
      "name": "read",
      "outputs": [
        {
          "internalType": "bytes32",
          "name": "",
          "type": "bytes32"
        }
      ],
      "stateMutability": "view",
      "type": "function"
    },
    {
      "inputs": [
        {
          "internalType": "address",
          "name": "usr",
          "type": "address"
        }
      ],
      "name": "rely",
      "outputs": [],
      "stateMutability": "nonpayable",
      "type": "function"
    },
    {
      "inputs": [
        {
          "internalType": "uint256",
          "name": "_stalePeriod",
          "type": "uint256"
        }
      ],
      "name": "setStalePeriod",
      "outputs": [],
      "stateMutability": "nonpayable",
      "type": "function"
    },
    {
      "inputs": [],
      "name": "stalePeriod",
      "outputs": [
        {
          "internalType": "uint256",
          "name": "",
          "type": "uint256"
        }
      ],
      "stateMutability": "view",
      "type": "function"
    },
    {
      "inputs": [
        {
          "internalType": "address",
          "name": "",
          "type": "address"
        }
      ],
      "name": "wards",
      "outputs": [
        {
          "internalType": "uint256",
          "name": "",
          "type": "uint256"
        }
      ],
      "stateMutability": "view",
      "type": "function"
    }
  ],
  "bytecode": "0x60808060405234610108578061063e803803809161001d828561010d565b833960209283918101031261010857516001600160a01b038116908190036101085760009133835282815260016040842055600154928260018060a01b031985161760015560405163313ce56760e01b81528281600481875afa9283156100fd5782936100ba575b5050506001600160a81b03199092161760a09190911b60ff60a01b1617600155610e106002556040516104f790816101478239f35b9080929350813d83116100f6575b6100d2818361010d565b810103126100f257519060ff821682036100ef5750388080610085565b80fd5b5080fd5b503d6100c8565b6040513d84823e3d90fd5b600080fd5b601f909101601f19168101906001600160401b0382119082101761013057604052565b634e487b7160e01b600052604160045260246000fdfe6040608081526004908136101561001557600080fd5b600091823560e01c90816357de26a4146101f557816359e02dd7146101c957816365fae35e1461017e578382639c52a7f11461013157508163a5b36a3614610112578163a6f4ab2e146100e1578163bf353dbb146100a4575063c23953d01461007d57600080fd5b346100a057816003193601126100a05760209060ff60015460a01c169051908152f35b5080fd5b9050346100dd5760203660031901126100dd57356001600160a01b038116908190036100dd578282916020945280845220549051908152f35b8280fd5b919050346100dd5760203660031901126100dd57600161010b913385528460205284205414610274565b3560025580f35b5050346100a057816003193601126100a0576020906002549051908152f35b9291503461017a57602036600319011261017a57356001600160a01b0381169081900361017a573383528260205261016e60018385205414610274565b82528160205281205580f35b5050fd5b9050346100dd5760203660031901126100dd57356001600160a01b03811691908290036100dd57600191338452836020526101bd838386205414610274565b83528260205282205580f35b8284346101f257806003193601126101f257506101e461030d565b825191825215156020820152f35b80fd5b905082346101f257806003193601126101f2575061021161030d565b91909115610223575060209151908152f35b608490602084519162461bcd60e51b8352820152602560248201527f436861696e6c696e6b5072696365466565642f696e76616c69642d70726963656044820152640b5999595960da1b6064820152fd5b1561027b57565b60405162461bcd60e51b815260206004820152602160248201527f436861696e6c696e6b5072696365466565642f6e6f742d617574686f72697a656044820152601960fa1b6064820152608490fd5b519069ffffffffffffffffffff821682036102e157565b600080fd5b60ff16604d81116102f757600a0a90565b634e487b7160e01b600052601160045260246000fd5b600154604051633fabe5a360e21b81529060049060a08383816001600160a01b0385165afa806000948592610442575b5061034f575b50505050600090600090565b60008413908161042c575b506103655780610343565b60a01c60ff1660128110156103cb5760120360ff81116103b657610388906102e6565b918281029281840414901517156103a157505b90600190565b601190634e487b7160e01b6000525260246000fd5b601182634e487b7160e01b6000525260246000fd5b9091906012811115610424576011190160ff811161040f576103ec906102e6565b9182156103fa57500461039b565b601290634e487b7160e01b6000525260246000fd5b601183634e487b7160e01b6000525260246000fd5b50905061039b565b9050420342811161040f5760025410153861035a565b9490915060a03d81116104ba575b601f8101601f1916860167ffffffffffffffff8111878210176104a75760a0918791604052810103126101f25750610487846102ca565b50602084015161049e6080606087015196016102ca565b5093903861033d565b634e487b7160e01b835260418652602483fd5b503d61045056fea2646970667358221220e3d67d74df650c8b431cd4acd257d7bede53bec3bfffd829de83c8b568da38db64736f6c63430008130033",
  "linkReferences": {},
  "deployedLinkReferences": {}
}