{
  "_format": "hh-sol-artifact-1",
  "contractName": "MedianPriceFeed",
  "sourceName": "contracts/PriceFeed.sol",
  "abi": [
    {
      "inputs": [
        {
          "internalType": "bytes32",
          "name": "wat_",
          "type": "bytes32"
        }
      ],
      "stateMutability": "nonpayable",
      "type": "constructor"
    },
    {
      "inputs": [],
      "name": "age",
      "outputs": [
        {
          "internalType": "uint32",
          "name": "",
          "type": "uint32"
        }
      ],
      "stateMutability": "view",
      "type": "function"
    },
    {
      "inputs": [],
      "name": "bar",
      "outputs": [
        {
          "internalType": "uint256",
          "name": "",
          "type": "uint256"
        }
      ],
      "stateMutability": "view",
      "type": "function"
    },
    {
      "inputs": [],
      "name": "compute",
      "outputs": [
        {
          "internalType": "uint128",
          "name": "",
          "type": "uint128"
        },
        {
          "internalType": "uint32",
          "name": "",
          "type": "uint32"
        }
      ],
      "stateMutability": "view",
      "type": "function"
    },
    {
      "inputs": [
        {
          "internalType": "address",
          "name": "usr",
          "type": "address"
        }
      ],
      "name": "deny",
      "outputs": [],
      "stateMutability": "nonpayable",
      "type": "function"
    },
    {
      "inputs": [
        {
          "internalType": "address[]",
          "name": "a",
          "type": "address[]"
        }
      ],
      "name": "drop",
      "outputs": [],
      "stateMutability": "nonpayable",
      "type": "function"
    },
    {
      "inputs": [
        {
          "internalType": "address[]",
          "name": "a",
          "type": "address[]"
        }
      ],
      "name": "lift",
      "outputs": [],
      "stateMutability": "nonpayable",
      "type": "function"
    },
    {
      "inputs": [
        {
          "internalType": "uint256",
          "name": "",
          "type": "uint256"
        }
      ],
      "name": "oracles",
      "outputs": [
        {
          "internalType": "address",
          "name": "",
          "type": "address"
        }
      ],
      "stateMutability": "view",
      "type": "function"
    },
    {
      "inputs": [],
      "name": "peek",
      "outputs": [
        {
          "internalType": "bytes32",
          "name": "",
          "type": "bytes32"
        },
        {
          "internalType": "bool",
          "name": "",
          "type": "bool"
        }
      ],
      "stateMutability": "view",
      "type": "function"
    },
    {
      "inputs": [],
      "name": "poke",
      "outputs": [],
      "stateMutability": "nonpayable",
      "type": "function"
    },
    {
      "inputs": [],
      "name": "read",
      "outputs": [
        {
          "internalType": "bytes32",
          "name": "",
          "type": "bytes32"
        }
      ],
      "stateMutability": "view",
      "type": "function"
    },
    {
      "inputs": [
        {
          "internalType": "address",
          "name": "usr",
          "type": "address"
        }
      ],
      "name": "rely",
      "outputs": [],
      "stateMutability": "nonpayable",
      "type": "function"
    },
    {
      "inputs": [
        {
          "internalType": "uint256",
          "name": "bar_",
          "type": "uint256"
        }
      ],
      "name": "setBar",
      "outputs": [],
      "stateMutability": "nonpayable",
      "type": "function"
    },
    {
      "inputs": [
        {
          "internalType": "address",
          "name": "",
          "type": "address"
        }
      ],
      "name": "slot",
      "outputs": [
        {
          "internalType": "uint256",
          "name": "",
          "type": "uint256"
        }
      ],
      "stateMutability": "view",
      "type": "function"
    },
    {
      "inputs": [],
      "name": "val",
      "outputs": [
        {
          "internalType": "uint128",
          "name": "",
          "type": "uint128"
        }
      ],
      "stateMutability": "view",
      "type": "function"
    },
    {
      "inputs": [
        {
          "internalType": "address",
          "name": "",
          "type": "address"
        }
      ],
      "name": "wards",
      "outputs": [
        {
          "internalType": "uint256",
          "name": "",
          "type": "uint256"
        }
      ],
      "stateMutability": "view",
      "type": "function"
    },
    {
      "inputs": [],
      "name": "wat",
      "outputs": [
        {
          "internalType": "bytes32",
          "name": "",
          "type": "bytes32"
        }
      ],
      "stateMutability": "view",
      "type": "function"
    }
  ],
  "bytecode": "0x60803461006757601f610c6538819003918201601f19168301916001600160401b0383118484101761006c57808492602094604052833981010312610067575160016003553360005260006020526001604060002055600255604051610be290816100838239f35b600080fd5b634e487b7160e01b600052604160045260246000fdfe6040608081526004908136101561001557600080fd5b600091823560e01c90816318178358146106895781631a43c33814610650578163262a9dff14610628578163352d3fba146105515781633c6bb436146105295781634ca299231461050a57816357de26a41461048b57816359e02dd71461045d5781635b69a7d81461041a57816365fae35e146103cf5781636c62fd77146103955781638ef5eaf01461032e5781639431810614610180578382639c52a7f11461013357508163bf353dbb146100f6575063febb0f7e146100d557600080fd5b346100f257816003193601126100f2576020906003549051908152f35b5080fd5b90503461012f57602036600319011261012f57356001600160a01b0381169081900361012f578282916020945280845220549051908152f35b8280fd5b9291503461017c57602036600319011261017c57356001600160a01b0381169081900361017c573383528260205261017060018385205414610777565b82528160205281205580f35b5050fd5b90503461012f5761019036610725565b91903385526020908582526001946101ac868289205414610777565b865b85811061028257505067ffffffffffffffff841161026f5768010000000000000000841161026f57825484845580851061022d575b50918552845b8381106101f4578580f35b849082610200856107f8565b940193817f8a35acfbc15ff81a39ae7d344fd709f28e8600b4aa8c65c6b64bfe7fe36bd19b0155016101e9565b85857f8a35acfbc15ff81a39ae7d344fd709f28e8600b4aa8c65c6b64bfe7fe36bd19b92830192015b8281106102645750506101e3565b888155018690610256565b634e487b7160e01b865260418352602486fd5b6001600160a01b038061029e610299848a886107e8565b6107f8565b16156102eb57878201908183116102d8579082916102c36102996102d3958b896107e8565b168a5260058652838a20556107c3565b6101ae565b634e487b7160e01b8a526011875260248afd5b825162461bcd60e51b8152808701869052601d60248201527f4d656469616e5072696365466565642f6e6f2d636f6e74726163742d300000006044820152606490fd5b5050346100f25761033e36610725565b919033845260209084825261035860018487205414610777565b845b848110610365578580f35b610390906001600160a01b0361037f6102998389876107e8565b1687526005845286858120556107c3565b61035a565b90503461012f57602036600319011261012f57356001600160a01b0381169081900361012f57828291602094526005845220549051908152f35b90503461012f57602036600319011261012f57356001600160a01b038116919082900361012f576001913384528360205261040e838386205414610777565b83528260205282205580f35b82843461045a57602036600319011261045a578235925483101561045a57506104446020926106d8565b905491519160018060a01b039160031b1c168152f35b80fd5b82843461045a578060031936011261045a57506001600160801b036001541681519080825215156020820152f35b9050823461045a578060031936011261045a57506001600160801b03600154169081156104bc575060209151908152f35b608490602084519162461bcd60e51b8352820152602260248201527f4d656469616e5072696365466565642f696e76616c69642d70726963652d6665604482015261195960f21b6064820152fd5b5050346100f257816003193601126100f2576020906002549051908152f35b5050346100f257816003193601126100f2576020906001600160801b03600154169051908152f35b90503461012f57602036600319011261012f578035913384528360205261057d60018286205414610777565b82156105e557600183161561059457505060035580f35b906020608492519162461bcd60e51b8352820152602560248201527f4d656469616e5072696365466565642f71756f72756d2d6e6f742d6f64642d6e6044820152643ab6b132b960d91b6064820152fd5b906020606492519162461bcd60e51b8352820152601e60248201527f4d656469616e5072696365466565642f71756f72756d2d69732d7a65726f00006044820152fd5b5050346100f257816003193601126100f25760209063ffffffff60015460801c169051908152f35b82843461045a578060031936011261045a575063ffffffff610670610870565b6001600160801b03849392935193168352166020820152f35b833461045a578060031936011261045a576106a2610870565b906001600160801b0360015491169163ffffffff60801b9060801b16906bffffffffffffffffffffffff60a01b16171760015580f35b60045481101561070f5760046000527f8a35acfbc15ff81a39ae7d344fd709f28e8600b4aa8c65c6b64bfe7fe36bd19b0190600090565b634e487b7160e01b600052603260045260246000fd5b9060206003198301126107725760043567ffffffffffffffff9283821161077257806023830112156107725781600401359384116107725760248460051b83010111610772576024019190565b600080fd5b1561077e57565b60405162461bcd60e51b815260206004820152601e60248201527f4d656469616e5072696365466565642f6e6f742d617574686f72697a656400006044820152606490fd5b60001981146107d25760010190565b634e487b7160e01b600052601160045260246000fd5b919081101561070f5760051b0190565b356001600160a01b03811681036107725790565b90601f8019910116810190811067ffffffffffffffff82111761082e57604052565b634e487b7160e01b600052604160045260246000fd5b67ffffffffffffffff811161082e5760051b60200190565b805182101561070f5760209160051b010190565b60049081546003805491828110610b685761088a81610844565b9260409061089a8251958661080c565b828552601f196108a984610844565b01926020933685880137600094855b828110610aae575050508310610a5c5750506000905b60001993818501828111610a47578310156109a95760005b83830383811161099457868101908111610994578110156109815761090b818661085c565b51600182019081831161096c57906109359291610928828961085c565b511061093a575b506107c3565b6108e6565b610965610947838961085c565b5191610953818a61085c565b5161095e858b61085c565b528861085c565b523861092f565b601189634e487b7160e01b6000525260246000fd5b5093509061098e906107c3565b906108ce565b601188634e487b7160e01b6000525260246000fd5b94929350905060018116610a295760011c6000198101818111610a1457906109d46109db928561085c565b519361085c565b5182018092116109ff57506001600160801b039060011c5b169063ffffffff421690565b601190634e487b7160e01b6000525260246000fd5b601183634e487b7160e01b6000525260246000fd5b610a419150916001600160801b039260011c9061085c565b516109f3565b601187634e487b7160e01b6000525260246000fd5b5162461bcd60e51b815280860191909152602660248201527f4d656469616e5072696365466565642f6e6f742d656e6f7567682d76616c69646044820152652d666565647360d01b6064820152608490fd5b8985610ab9836106d8565b905482516359e02dd760e01b815293849290918391881b1c6001600160a01b03165afa806000928392610b28575b50610afd575b5050610af8906107c3565b6108b8565b610b08575b80610aed565b87610b2191610b1b610af8949a8c61085c565b526107c3565b9690610b02565b9091508781813d8311610b61575b610b40818361080c565b8101031261012f5788815191015192831515840361045a5750919038610ae7565b503d610b36565b60405162461bcd60e51b8152602081870181905260248201527f4d656469616e5072696365466565642f6e6f742d656e6f7567682d66656564736044820152606490fdfea26469706673582212204389750b6b5ab5603c17df18e203ea3c753e3b78dbc00da2f1f23ab47c9115a364736f6c63430008130033",
  "linkReferences": {},
  "deployedLinkReferences": {}
}