{
  "_format": "hh-sol-artifact-1",
  "contractName": "ShibPriceFeed",
  "sourceName": "contracts/PriceFeed.sol",
  "abi": [
    {
      "inputs": [],
      "stateMutability": "nonpayable",
      "type": "constructor"
    },
    {
      "anonymous": false,
      "inputs": [
        {
          "indexed": false,
          "internalType": "bytes32",
          "name": "val",
          "type": "bytes32"
        }
      ],
      "name": "LogValue",
      "type": "event"
    },
    {
      "inputs": [
        {
          "internalType": "address",
          "name": "usr",
          "type": "address"
        }
      ],
      "name": "deny",
      "outputs": [],
      "stateMutability": "nonpayable",
      "type": "function"
    },
    {
      "inputs": [],
      "name": "peek",
      "outputs": [
        {
          "internalType": "bytes32",
          "name": "",
          "type": "bytes32"
        },
        {
          "internalType": "bool",
          "name": "",
          "type": "bool"
        }
      ],
      "stateMutability": "view",
      "type": "function"
    },
    {
      "inputs": [
        {
          "internalType": "uint128",
          "name": "wut",
          "type": "uint128"
        }
      ],
      "name": "poke",
      "outputs": [],
      "stateMutability": "nonpayable",
      "type": "function"
    },
    {
      "inputs": [],
      "name": "read",
      "outputs": [
        {
          "internalType": "bytes32",
          "name": "",
          "type": "bytes32"
        }
      ],
      "stateMutability": "view",
      "type": "function"
    },
    {
      "inputs": [
        {
          "internalType": "address",
          "name": "usr",
          "type": "address"
        }
      ],
      "name": "rely",
      "outputs": [],
      "stateMutability": "nonpayable",
      "type": "function"
    },
    {
      "inputs": [],
      "name": "val",
      "outputs": [
        {
          "internalType": "uint128",
          "name": "",
          "type": "uint128"
        }
      ],
      "stateMutability": "view",
      "type": "function"
    },
    {
      "inputs": [],
      "name": "void",
      "outputs": [],
      "stateMutability": "nonpayable",
      "type": "function"
    },
    {
      "inputs": [
        {
          "internalType": "address",
          "name": "",
          "type": "address"
        }
      ],
      "name": "wards",
      "outputs": [
        {
          "internalType": "uint256",
          "name": "",
          "type": "uint256"
        }
      ],
      "stateMutability": "view",
      "type": "function"
    },
    {
      "inputs": [],
      "name": "zzz",
      "outputs": [
        {
          "internalType": "uint32",
          "name": "",
          "type": "uint32"
        }
      ],
      "stateMutability": "view",
      "type": "function"
    }
  ],
  "bytecode": "0x6080806040523461004f5733600090815260208190526040902060019081905580546001600160a01b0319164260801b63ffffffff60801b16176509184e72a0001790556103c990816100558239f35b600080fdfe6080604081815260048036101561001557600080fd5b600092833560e01c9081633c6bb436146103225750806357de26a4146102af57806359e02dd71461027e57806365fae35e14610234578381639c52a7f1146101e757508063a4dff0a2146101bf578063ac4c25b21461014a578063bf353dbb146101125763cdd193041461008857600080fd5b3461010e57602036600319011261010e5735906001600160801b03821680920361010e577f296ba4ca62c6c21c95e828080cb8aec7481b71390585605300a8a76f9e95b527916020913385528483526100e660018287205414610347565b600180546001600160a01b03191683174260801b63ffffffff60801b1617905551908152a180f35b8280fd5b503461010e57602036600319011261010e57356001600160a01b0381169081900361010e578282916020945280845220549051908152f35b5050346101bb57816003193601126101bb5760207f296ba4ca62c6c21c95e828080cb8aec7481b71390585605300a8a76f9e95b5279133845283825261019560018286205414610347565b600180546001600160a01b0319164260801b63ffffffff60801b1617905551838152a180f35b5080fd5b5050346101bb57816003193601126101bb5760209063ffffffff60015460801c169051908152f35b8084843461023057602036600319011261023057356001600160a01b03811690819003610230573383528260205261022460018385205414610347565b82528160205281205580f35b5050fd5b503461010e57602036600319011261010e57356001600160a01b038116919082900361010e5760019133845283602052610272838386205414610347565b83528260205282205580f35b8284346102ac57806003193601126102ac57506001600160801b036001541681519080825215156020820152f35b80fd5b5082346102ac57806003193601126102ac57506001600160801b03600154169081156102df575060209151908152f35b606490602084519162461bcd60e51b8352820152601c60248201527f5072696365466565642f696e76616c69642d70726963652d66656564000000006044820152fd5b8490346101bb57816003193601126101bb576020906001600160801b03600154168152f35b1561034e57565b60405162461bcd60e51b815260206004820152601860248201527f5072696365466565642f6e6f742d617574686f72697a656400000000000000006044820152606490fdfea2646970667358221220b2acfc3d61377d777a3070bef602401c0e553dffdaef7112f3d6301b96f34b7164736f6c63430008130033",
  "linkReferences": {},
  "deployedLinkReferences": {}
}