{
  "_format": "hh-sol-artifact-1",
  "contractName": "Jug",
  "sourceName": "contracts/Jug.sol",
  "abi": [
    {
      "inputs": [
        {
          "internalType": "address",
          "name": "vat_",
          "type": "address"
        }
      ],
      "stateMutability": "nonpayable",
      "type": "constructor"
    },
    {
      "anonymous": false,
      "inputs": [
        {
          "indexed": true,
          "internalType": "bytes32",
          "name": "ilk",
          "type": "bytes32"
        },
        {
          "indexed": false,
          "internalType": "uint256",
          "name": "rate",
          "type": "uint256"
        }
      ],
      "name": "Drip",
      "type": "event"
    },
    {
      "anonymous": false,
      "inputs": [
        {
          "indexed": true,
          "internalType": "bytes32",
          "name": "what",
          "type": "bytes32"
        },
        {
          "indexed": false,
          "internalType": "uint256",
          "name": "data",
          "type": "uint256"
        }
      ],
      "name": "File",
      "type": "event"
    },
    {
      "anonymous": false,
      "inputs": [
        {
          "indexed": true,
          "internalType": "bytes32",
          "name": "ilk",
          "type": "bytes32"
        },
        {
          "indexed": true,
          "internalType": "bytes32",
          "name": "what",
          "type": "bytes32"
        },
        {
          "indexed": false,
          "internalType": "uint256",
          "name": "data",
          "type": "uint256"
        }
      ],
      "name": "File",
      "type": "event"
    },
    {
      "anonymous": false,
      "inputs": [
        {
          "indexed": true,
          "internalType": "bytes32",
          "name": "what",
          "type": "bytes32"
        },
        {
          "indexed": false,
          "internalType": "address",
          "name": "data",
          "type": "address"
        }
      ],
      "name": "File",
      "type": "event"
    },
    {
      "anonymous": false,
      "inputs": [
        {
          "indexed": true,
          "internalType": "bytes32",
          "name": "ilk",
          "type": "bytes32"
        }
      ],
      "name": "Init",
      "type": "event"
    },
    {
      "inputs": [],
      "name": "base",
      "outputs": [
        {
          "internalType": "uint256",
          "name": "",
          "type": "uint256"
        }
      ],
      "stateMutability": "view",
      "type": "function"
    },
    {
      "inputs": [],
      "name": "cage",
      "outputs": [],
      "stateMutability": "nonpayable",
      "type": "function"
    },
    {
      "inputs": [
        {
          "internalType": "address",
          "name": "usr",
          "type": "address"
        }
      ],
      "name": "deny",
      "outputs": [],
      "stateMutability": "nonpayable",
      "type": "function"
    },
    {
      "inputs": [
        {
          "internalType": "bytes32",
          "name": "ilk",
          "type": "bytes32"
        }
      ],
      "name": "drip",
      "outputs": [
        {
          "internalType": "uint256",
          "name": "rate",
          "type": "uint256"
        }
      ],
      "stateMutability": "nonpayable",
      "type": "function"
    },
    {
      "inputs": [
        {
          "internalType": "bytes32",
          "name": "ilk",
          "type": "bytes32"
        }
      ],
      "name": "duty",
      "outputs": [
        {
          "internalType": "uint256",
          "name": "",
          "type": "uint256"
        }
      ],
      "stateMutability": "view",
      "type": "function"
    },
    {
      "inputs": [
        {
          "internalType": "bytes32",
          "name": "ilk",
          "type": "bytes32"
        },
        {
          "internalType": "bytes32",
          "name": "what",
          "type": "bytes32"
        },
        {
          "internalType": "uint256",
          "name": "data",
          "type": "uint256"
        }
      ],
      "name": "file",
      "outputs": [],
      "stateMutability": "nonpayable",
      "type": "function"
    },
    {
      "inputs": [
        {
          "internalType": "bytes32",
          "name": "what",
          "type": "bytes32"
        },
        {
          "internalType": "uint256",
          "name": "data",
          "type": "uint256"
        }
      ],
      "name": "file",
      "outputs": [],
      "stateMutability": "nonpayable",
      "type": "function"
    },
    {
      "inputs": [
        {
          "internalType": "bytes32",
          "name": "what",
          "type": "bytes32"
        },
        {
          "internalType": "address",
          "name": "data",
          "type": "address"
        }
      ],
      "name": "file",
      "outputs": [],
      "stateMutability": "nonpayable",
      "type": "function"
    },
    {
      "inputs": [
        {
          "internalType": "bytes32",
          "name": "",
          "type": "bytes32"
        }
      ],
      "name": "ilks",
      "outputs": [
        {
          "internalType": "uint256",
          "name": "duty",
          "type": "uint256"
        },
        {
          "internalType": "uint256",
          "name": "rho",
          "type": "uint256"
        }
      ],
      "stateMutability": "view",
      "type": "function"
    },
    {
      "inputs": [
        {
          "internalType": "bytes32",
          "name": "ilk",
          "type": "bytes32"
        }
      ],
      "name": "init",
      "outputs": [],
      "stateMutability": "nonpayable",
      "type": "function"
    },
    {
      "inputs": [],
      "name": "live",
      "outputs": [
        {
          "internalType": "uint256",
          "name": "",
          "type": "uint256"
        }
      ],
      "stateMutability": "view",
      "type": "function"
    },
    {
      "inputs": [
        {
          "internalType": "address",
          "name": "usr",
          "type": "address"
        }
      ],
      "name": "rely",
      "outputs": [],
      "stateMutability": "nonpayable",
      "type": "function"
    },
    {
      "inputs": [
        {
          "internalType": "bytes32",
          "name": "ilk",
          "type": "bytes32"
        }
      ],
      "name": "rho",
      "outputs": [
        {
          "internalType": "uint256",
          "name": "",
          "type": "uint256"
        }
      ],
      "stateMutability": "view",
      "type": "function"
    },
    {
      "inputs": [],
      "name": "vat",
      "outputs": [
        {
          "internalType": "contract VatLike",
          "name": "",
          "type": "address"
        }
      ],
      "stateMutability": "view",
      "type": "function"
    },
    {
      "inputs": [],
      "name": "vow",
      "outputs": [
        {
          "internalType": "address",
          "name": "",
          "type": "address"
        }
      ],
      "stateMutability": "view",
      "type": "function"
    },
    {
      "inputs": [
        {
          "internalType": "address",
          "name": "",
          "type": "address"
        }
      ],
      "name": "wards",
      "outputs": [
        {
          "internalType": "uint256",
          "name": "",
          "type": "uint256"
        }
      ],
      "stateMutability": "view",
      "type": "function"
    }
  ],
  "bytecode": "0x60803461008657601f610c1738819003918201601f19168301916001600160401b0383118484101761008b5780849260209460405283398101031261008657516001600160a01b0381169081900361008657336000526000602052600160406000205560018060a01b031960025416176002556001600555604051610b7590816100a28239f35b600080fd5b634e487b7160e01b600052604160045260246000fdfe6080604052600436101561001257600080fd5b60003560e01c80631a0b287e1461011757806329ae81141461011257806336569e771461010d5780633b6631951461010857806344e2a5a8146101035780635001f3b5146100fe57806360224e63146100f9578063626cb3c5146100f457806365fae35e146100ef57806369245009146100ea578063957aa58c146100e55780639c52a7f1146100e0578063bf353dbb146100db578063d4e8be83146100d6578063d9638d36146100d15763f436f9cb146100cc57600080fd5b6107bc565b610787565b6106ea565b6106b0565b610663565b610645565b610612565b6105c4565b61056f565b610543565b610525565b610348565b61029f565b610276565b6101ed565b346101e85760603660031901126101e857600435602435604435916000923384528360205261014c60016040862054146107eb565b61015a60016005541461082c565b636475747960e01b83036101a35760207f851aa1caf4888170ad8875449d18f0f512fd6deb2a6571ea1a41fb9f95acbcd19183865260018252806040872055604051908152a380f35b60405162461bcd60e51b815260206004820152601b60248201527f4a75672f66696c652d756e7265636f676e697a65642d706172616d00000000006044820152606490fd5b600080fd5b346101e85760403660031901126101e85760043560243533600052600060205261021e6001604060002054146107eb565b61022c60016005541461082c565b636261736560e01b82036101a3576020817fe986e40cc8c151830d4f61050f4fb2e4add8567caad2d5f5496f9158e91fe4c792600455604051908152a2005b60009103126101e857565b346101e85760003660031901126101e8576002546040516001600160a01b039091168152602090f35b346101e85760203660031901126101e857600435600090338252816020526102cd60016040842054146107eb565b808252600160205260016040832001805461030c574290557feeb45f27c5b399a603237b10d4803743d494bfc24c3a004cadb716c41033a5558280a280f35b60405162461bcd60e51b8152602060048201526014602482015273129d59cbda5b1acb585b1c9958591e4b5a5b9a5d60621b6044820152606490fd5b346101e85760203660031901126101e85760043561037f6001610375836000526001602052604060002090565b0154421015610867565b6002546001600160a01b0316604051636cb1c69b60e11b815260048101839052909160a082602481865afa9182156104eb576000926104f0575b5061040e826104096103e26004546103db866000526001602052604060002090565b5490610a80565b61040360016103fb876000526001602052604060002090565b01544261093a565b90610965565b610a94565b600354909290610428906001600160a01b0316918461094c565b843b156101e85760405163b65337df60e01b8152600481018490526001600160a01b039290921660248301526044820152926000908490606490829084905af19283156104eb576104ce936104d2575b50426001610490836000526001602052604060002090565b01556040518281527f2fbd8559330c6faf38d4ee435b8463427bd58cd6bc7edd1a4e6f3ab6b57de71e90602090a26040519081529081906020820190565b0390f35b806104df6104e5926108a5565b8061026b565b38610478565b610918565b61051291925060a03d811161051e575b61050a81836108cf565b8101906108f1565b505050905090386103b9565b503d610500565b346101e85760003660031901126101e8576020600454604051908152f35b346101e85760203660031901126101e85760043560005260016020526020604060002054604051908152f35b346101e85760003660031901126101e8576003546040516001600160a01b039091168152602090f35b600435906001600160a01b03821682036101e857565b602435906001600160a01b03821682036101e857565b346101e85760203660031901126101e8576105dd610598565b600090338252816020526105f760016040842054146107eb565b6001600160a01b031681526020819052604081206001905580f35b346101e857600080600319360112610642573381528060205261063b60016040832054146107eb565b8060055580f35b80fd5b346101e85760003660031901126101e8576020600554604051908152f35b346101e85760203660031901126101e85761067c610598565b6000903382528160205261069660016040842054146107eb565b6001600160a01b0316815260208190526040812081905580f35b346101e85760203660031901126101e8576001600160a01b036106d1610598565b1660005260006020526020604060002054604051908152f35b346101e85760403660031901126101e8576004356107066105ae565b3360005260006020526107206001604060002054146107eb565b61072e60016005541461082c565b62766f7760e81b82036101a357600380546001600160a01b0319166001600160a01b0390921691821790556040519081527f8fef588b5fc1afbf5b2f06c1a435d513f208da2e6704c3d8f0e0ec91167066ba90602090a2005b346101e85760203660031901126101e85760043560005260016020526040806000206001815491015482519182526020820152f35b346101e85760203660031901126101e85760043560005260016020526020600160406000200154604051908152f35b156107f257565b60405162461bcd60e51b8152602060048201526012602482015271129d59cbdb9bdd0b585d5d1a1bdc9a5e995960721b6044820152606490fd5b1561083357565b60405162461bcd60e51b815260206004820152600c60248201526b4a75672f6e6f742d6c69766560a01b6044820152606490fd5b1561086e57565b60405162461bcd60e51b815260206004820152600f60248201526e4a75672f696e76616c69642d6e6f7760881b6044820152606490fd5b67ffffffffffffffff81116108b957604052565b634e487b7160e01b600052604160045260246000fd5b90601f8019910116810190811067ffffffffffffffff8211176108b957604052565b908160a09103126101e8578051916020820151916040810151916080606083015192015190565b6040513d6000823e3d90fd5b634e487b7160e01b600052601160045260246000fd5b9190820391821161094757565b610924565b8181039291600013801582851316918412161761094757565b9091908015610a08576001838116156109f55781935b811c805b61098857505050565b82800292808404036101e8576b019d971e4fe8401e74000000928381019081106101e8576b033b2e3c9fd0803ce8000000809104938383166109cf575b5050811c8061097f565b848792939702918583041415851515166101e85781019081106101e857049338806109c5565b6b033b2e3c9fd0803ce80000009361097b565b509015610a1457600090565b6b033b2e3c9fd0803ce800000090565b906b019d971e4fe8401e74000000820191828111610947578210610a4457565b60405162461bcd60e51b815260206004820152601460248201527364732d6d6174682d6164642d6f766572666c6f7760601b6044820152606490fd5b9190820191828111610947578210610a4457565b906000918115918215610b06575b505015610aca57610ab5610ac791610a24565b6b033b2e3c9fd0803ce8000000900490565b90565b60405162461bcd60e51b815260206004820152601460248201527364732d6d6174682d6d756c2d6f766572666c6f7760601b6044820152606490fd5b81819293945002828104821483151715610947578093610b295704143880610aa2565b634e487b7160e01b600052601260045260246000fdfea2646970667358221220953409db3b9e687cf8235a24eea8cb4e35ec4851c7aaff41e9ee641354519eb864736f6c63430008130033",
  "linkReferences": {},
  "deployedLinkReferences": {}
}