{
  "_format": "hh-sol-artifact-1",
  "contractName": "Dog",
  "sourceName": "contracts/Dog.sol",
  "abi": [
    {
      "inputs": [
        {
          "internalType": "address",
          "name": "vat_",
          "type": "address"
        }
      ],
      "stateMutability": "nonpayable",
      "type": "constructor"
    },
    {
      "anonymous": false,
      "inputs": [
        {
          "indexed": true,
          "internalType": "bytes32",
          "name": "ilk",
          "type": "bytes32"
        },
        {
          "indexed": true,
          "internalType": "address",
          "name": "urn",
          "type": "address"
        },
        {
          "indexed": false,
          "internalType": "uint256",
          "name": "ink",
          "type": "uint256"
        },
        {
          "indexed": false,
          "internalType": "uint256",
          "name": "art",
          "type": "uint256"
        },
        {
          "indexed": false,
          "internalType": "uint256",
          "name": "due",
          "type": "uint256"
        },
        {
          "indexed": false,
          "internalType": "address",
          "name": "clip",
          "type": "address"
        },
        {
          "indexed": true,
          "internalType": "uint256",
          "name": "id",
          "type": "uint256"
        }
      ],
      "name": "Bark",
      "type": "event"
    },
    {
      "inputs": [],
      "name": "Dirt",
      "outputs": [
        {
          "internalType": "uint256",
          "name": "",
          "type": "uint256"
        }
      ],
      "stateMutability": "view",
      "type": "function"
    },
    {
      "inputs": [],
      "name": "Hole",
      "outputs": [
        {
          "internalType": "uint256",
          "name": "",
          "type": "uint256"
        }
      ],
      "stateMutability": "view",
      "type": "function"
    },
    {
      "inputs": [
        {
          "internalType": "bytes32",
          "name": "ilk",
          "type": "bytes32"
        },
        {
          "internalType": "address",
          "name": "urn",
          "type": "address"
        },
        {
          "internalType": "address",
          "name": "kpr",
          "type": "address"
        }
      ],
      "name": "bark",
      "outputs": [
        {
          "internalType": "uint256",
          "name": "id",
          "type": "uint256"
        }
      ],
      "stateMutability": "nonpayable",
      "type": "function"
    },
    {
      "inputs": [],
      "name": "cage",
      "outputs": [],
      "stateMutability": "nonpayable",
      "type": "function"
    },
    {
      "inputs": [
        {
          "internalType": "bytes32",
          "name": "ilk",
          "type": "bytes32"
        }
      ],
      "name": "cage",
      "outputs": [],
      "stateMutability": "nonpayable",
      "type": "function"
    },
    {
      "inputs": [
        {
          "internalType": "bytes32",
          "name": "ilk",
          "type": "bytes32"
        }
      ],
      "name": "chop",
      "outputs": [
        {
          "internalType": "uint256",
          "name": "",
          "type": "uint256"
        }
      ],
      "stateMutability": "view",
      "type": "function"
    },
    {
      "inputs": [
        {
          "internalType": "address",
          "name": "usr",
          "type": "address"
        }
      ],
      "name": "deny",
      "outputs": [],
      "stateMutability": "nonpayable",
      "type": "function"
    },
    {
      "inputs": [
        {
          "internalType": "bytes32",
          "name": "ilk",
          "type": "bytes32"
        },
        {
          "internalType": "uint256",
          "name": "rad",
          "type": "uint256"
        }
      ],
      "name": "digs",
      "outputs": [],
      "stateMutability": "nonpayable",
      "type": "function"
    },
    {
      "inputs": [
        {
          "internalType": "bytes32",
          "name": "ilk",
          "type": "bytes32"
        },
        {
          "internalType": "bytes32",
          "name": "what",
          "type": "bytes32"
        },
        {
          "internalType": "uint256",
          "name": "data",
          "type": "uint256"
        }
      ],
      "name": "file",
      "outputs": [],
      "stateMutability": "nonpayable",
      "type": "function"
    },
    {
      "inputs": [
        {
          "internalType": "bytes32",
          "name": "what",
          "type": "bytes32"
        },
        {
          "internalType": "uint256",
          "name": "data",
          "type": "uint256"
        }
      ],
      "name": "file",
      "outputs": [],
      "stateMutability": "nonpayable",
      "type": "function"
    },
    {
      "inputs": [
        {
          "internalType": "bytes32",
          "name": "what",
          "type": "bytes32"
        },
        {
          "internalType": "address",
          "name": "data",
          "type": "address"
        }
      ],
      "name": "file",
      "outputs": [],
      "stateMutability": "nonpayable",
      "type": "function"
    },
    {
      "inputs": [
        {
          "internalType": "bytes32",
          "name": "ilk",
          "type": "bytes32"
        },
        {
          "internalType": "bytes32",
          "name": "what",
          "type": "bytes32"
        },
        {
          "internalType": "address",
          "name": "clip",
          "type": "address"
        }
      ],
      "name": "file",
      "outputs": [],
      "stateMutability": "nonpayable",
      "type": "function"
    },
    {
      "inputs": [
        {
          "internalType": "bytes32",
          "name": "",
          "type": "bytes32"
        }
      ],
      "name": "ilks",
      "outputs": [
        {
          "internalType": "contract ClipLike",
          "name": "clip",
          "type": "address"
        },
        {
          "internalType": "uint256",
          "name": "chop",
          "type": "uint256"
        },
        {
          "internalType": "uint256",
          "name": "hole",
          "type": "uint256"
        },
        {
          "internalType": "uint256",
          "name": "dirt",
          "type": "uint256"
        }
      ],
      "stateMutability": "view",
      "type": "function"
    },
    {
      "inputs": [],
      "name": "live",
      "outputs": [
        {
          "internalType": "uint256",
          "name": "",
          "type": "uint256"
        }
      ],
      "stateMutability": "view",
      "type": "function"
    },
    {
      "inputs": [
        {
          "internalType": "address",
          "name": "usr",
          "type": "address"
        }
      ],
      "name": "rely",
      "outputs": [],
      "stateMutability": "nonpayable",
      "type": "function"
    },
    {
      "inputs": [],
      "name": "vat",
      "outputs": [
        {
          "internalType": "contract VatLike",
          "name": "",
          "type": "address"
        }
      ],
      "stateMutability": "view",
      "type": "function"
    },
    {
      "inputs": [],
      "name": "vow",
      "outputs": [
        {
          "internalType": "contract VowLike",
          "name": "",
          "type": "address"
        }
      ],
      "stateMutability": "view",
      "type": "function"
    },
    {
      "inputs": [
        {
          "internalType": "address",
          "name": "",
          "type": "address"
        }
      ],
      "name": "wards",
      "outputs": [
        {
          "internalType": "uint256",
          "name": "",
          "type": "uint256"
        }
      ],
      "stateMutability": "view",
      "type": "function"
    }
  ],
  "bytecode": "0x60803461008657601f610e3638819003918201601f19168301916001600160401b0383118484101761008b5780849260209460405283398101031261008657516001600160a01b0381169081900361008657336000526000602052600160406000205560018060a01b031960025416176002556001600455604051610d9490816100a28239f35b600080fd5b634e487b7160e01b600052604160045260246000fdfe6080604052600436101561001257600080fd5b6000803560e01c80631a0b287e14610b1257806329ae811414610aca57806336569e7714610aa1578063626cb3c514610a7857806365fae35e14610a2c57806369245009146109fd578063957aa58c146109df5780639c52a7f114610994578063af7cfeb114610976578063bf353dbb1461093e578063c87193f4146108db578063d4e8be831461086a578063d79265381461083e578063d9638d36146107e9578063e2702fdc14610796578063ebecb39d146106d4578063ed998908146101035763eda6e121146100e357600080fd5b346101005780600319360112610100576020600654604051908152f35b80fd5b50346101005760603660031901126101005761011d610bc5565b610125610bdb565b90610134600160045414610c32565b600254604080516309092f9760e21b815260048035908201526001600160a01b038481166024830152909216949082604481885afa9182156104e1578190829361069a575b50604051636cb1c69b60e11b815260048035908201529460a0866024818a5afa92831561068e57809781978295610642575b506101b68987610d21565b9788811515918261062e575b5050156105f8576004358252600160205260408220936040519485608081011067ffffffffffffffff6080880111176105e4576080860160405260018060a01b0381541686526001810154602087015260036002820154918260408901520154606087015261023660055460065490610d14565b8082116105dd57505b80670de0b6b3a7640000810204670de0b6b3a764000014811517156105c95780670de0b6b3a76400008082020403610511579061029761028c8c670de0b6b3a76400006102c39502610cb9565b602088015190610cb9565b8089116105bf57506102b3885b6102ae8a84610d21565b610cb9565b8082116105b75750995b87610d21565b94851561057f57851080159061056c575b15610533576003546001600160a01b03166102ee8a610cd9565b916102f888610cd9565b813b1561052f57898580949360c49360405197889687956301eeacfd60e61b8752600435600488015260018060a01b031660248701523060448701526064860152608485015260a48401525af1801561052457610515575b5090670de0b6b3a7640000610369602085015186610d21565b049361038060018060a01b03600354169186610d14565b813b15610511578391602483926040519485938492630d2fdf6f60e31b845260048401525af18015610506579083916104ee575b50506020906103c585600654610d00565b6006556103d6856060860151610d00565b600480358552600184526040808620600301929092558551915163898eb26760e01b815290810199909952602489018690526001600160a01b0388811660448b015291821660648a0152889160849183918691165af19586156104e157819661049c575b8251604080518a815260208181018990529181018790526001600160a01b0392831660608201529091899182918a1690600435907f85258d09e1e4ef299ff3fc11e74af99563f022d21f3f940db982229dc2a3358c90608090a4604051908152f35b90969391949295506020813d6020116104d9575b816104bd60209383610c97565b810103126104d557519295509193909260203861043a565b8680fd5b3d91506104b0565b50604051903d90823e3d90fd5b6104f790610c6d565b6105025781386103b4565b5080fd5b6040513d85823e3d90fd5b8380fd5b61051e90610c6d565b38610350565b6040513d84823e3d90fd5b8480fd5b60405162461bcd60e51b81526020600482015260116024820152702237b397b23ab9ba3c96b0bab1ba34b7b760791b6044820152606490fd5b5087851480156102d457508715156102d4565b60405162461bcd60e51b815260206004820152601060248201526f2237b397b73ab63616b0bab1ba34b7b760811b6044820152606490fd5b9050996102bd565b6102b390986102a4565b634e487b7160e01b84526011600452602484fd5b905061023f565b634e487b7160e01b84526041600452602484fd5b60405162461bcd60e51b815260206004820152600e60248201526d446f672f6e6f742d756e7361666560901b6044820152606490fd5b61063a91925086610d21565b1088386101c2565b98509350955060a0873d8211610686575b8161066060a09383610c97565b81010312610682576020870151956080604089015198015196979693386101ab565b8580fd5b3d9150610653565b604051903d90823e3d90fd5b9250506040823d6040116106cc575b816106b660409383610c97565b8101031261010057602082519201519138610179565b3d91506106a9565b5034610100576060366003190112610100576106ee610bdb565b338252816020526107056001604084205414610bf1565b610713600160045414610c32565b602435630636c69760e41b0361075157600435825260016020526040822080546001600160a01b0319166001600160a01b0390921691909117905580f35b60405162461bcd60e51b815260206004820152601b60248201527f446f672f66696c652d756e7265636f676e697a65642d706172616d00000000006044820152606490fd5b503461010057602036600319011261010057338152806020526107bf6001604083205414610bf1565b6004358152600160205280600360408220670de0b6b3a76400006001820155826002820155015580f35b5034610100576020366003190112610100576040608091600435815260016020522060018060a01b03815416906001810154906003600282015491015491604051938452602084015260408301526060820152f35b503461010057602036600319011261010057600160406020926004358152828452200154604051908152f35b503461010057604036600319011261010057610884610bc5565b3382528160205261089b6001604084205414610bf1565b6108a9600160045414610c32565b60043562766f7760e81b036107515760018060a01b03166bffffffffffffffffffffffff60a01b600354161760035580f35b50346101005761092b6108ed36610b94565b919091338452836020526109076001604086205414610bf1565b61091381600654610d14565b60065582845260016020526003604085200154610d14565b9082526001602052600360408320015580f35b5034610100576020366003190112610100576020906040906001600160a01b03610966610baf565b1681528083522054604051908152f35b50346101005780600319360112610100576020600554604051908152f35b5034610100576020366003190112610100576109ae610baf565b338252816020526109c56001604084205414610bf1565b6001600160a01b0316815260208190526040812081905580f35b50346101005780600319360112610100576020600454604051908152f35b503461010057806003193601126101005733815280602052610a256001604083205414610bf1565b8060045580f35b503461010057602036600319011261010057610a46610baf565b33825281602052610a5d6001604084205414610bf1565b6001600160a01b031681526020819052604081206001905580f35b50346101005780600319360112610100576003546040516001600160a01b039091168152602090f35b50346101005780600319360112610100576002546040516001600160a01b039091168152602090f35b503461010057610ad936610b94565b9033835282602052610af16001604085205414610bf1565b610aff600160045414610c32565b63486f6c6560e01b036107515760055580f35b503461010057606036600319011261010057600435602435906044359133845283602052610b466001604086205414610bf1565b610b54600160045414610c32565b63063686f760e41b8103610b75575082526001602052600160408320015580f35b63686f6c6560e01b036107515782526001602052600260408320015580f35b6040906003190112610baa576004359060243590565b600080fd5b600435906001600160a01b0382168203610baa57565b602435906001600160a01b0382168203610baa57565b604435906001600160a01b0382168203610baa57565b15610bf857565b60405162461bcd60e51b8152602060048201526012602482015271111bd9cbdb9bdd0b585d5d1a1bdc9a5e995960721b6044820152606490fd5b15610c3957565b60405162461bcd60e51b815260206004820152600c60248201526b446f672f6e6f742d6c69766560a01b6044820152606490fd5b67ffffffffffffffff8111610c8157604052565b634e487b7160e01b600052604160045260246000fd5b90601f8019910116810190811067ffffffffffffffff821117610c8157604052565b8115610cc3570490565b634e487b7160e01b600052601260045260246000fd5b600160ff1b8114610cea5760000390565b634e487b7160e01b600052601160045260246000fd5b9190820191828111610cea578210610baa57565b908103908111610cea5790565b600092918015918215610d38575b505015610baa57565b80820294509150811582850482141715610cea57610d569084610cb9565b143880610d2f56fea2646970667358221220b6e281db6ef22fffe74b6f016415922d35c786364082aa7c31d61a366c7a333d64736f6c63430008130033",
  "linkReferences": {},
  "deployedLinkReferences": {}
}