{
  "_format": "hh-sol-artifact-1",
  "contractName": "MockFlapper",
  "sourceName": "contracts/mocks/MockAuctions.sol",
  "abi": [
    {
      "anonymous": false,
      "inputs": [
        {
          "indexed": false,
          "internalType": "uint256",
          "name": "amount",
          "type": "uint256"
        }
      ],
      "name": "Caged",
      "type": "event"
    },
    {
      "inputs": [
        {
          "internalType": "uint256",
          "name": "amount",
          "type": "uint256"
        }
      ],
      "name": "cage",
      "outputs": [],
      "stateMutability": "nonpayable",
      "type": "function"
    }
  ],
  "bytecode": "0x60808060405234601457609e908161001a8239f35b600080fdfe6080806040526004361015601257600080fd5b600090813560e01c63a2f91af214602857600080fd5b34606457602036600319011260645760207f78d0a0122ae8526aabfe855b93dae61d485d27de6ed864657206e95f9f2b367d916004358152a180f35b5080fdfea2646970667358221220e4e821969b67e627f907e44a6aa2b04dd55ff63839c81d0da0c94dbbe2c5a2f964736f6c63430008130033",
  "linkReferences": {},
  "deployedLinkReferences": {}
}