{
  "_format": "hh-sol-artifact-1",
  "contractName": "Spot",
  "sourceName": "contracts/Spot.sol",
  "abi": [
    {
      "inputs": [
        {
          "internalType": "address",
          "name": "vat_",
          "type": "address"
        }
      ],
      "stateMutability": "nonpayable",
      "type": "constructor"
    },
    {
      "anonymous": false,
      "inputs": [
        {
          "indexed": true,
          "internalType": "bytes32",
          "name": "ilk",
          "type": "bytes32"
        },
        {
          "indexed": true,
          "internalType": "bytes32",
          "name": "val",
          "type": "bytes32"
        },
        {
          "indexed": true,
          "internalType": "uint256",
          "name": "spot",
          "type": "uint256"
        }
      ],
      "name": "Poke",
      "type": "event"
    },
    {
      "inputs": [],
      "name": "cage",
      "outputs": [],
      "stateMutability": "nonpayable",
      "type": "function"
    },
    {
      "inputs": [
        {
          "internalType": "address",
          "name": "guy",
          "type": "address"
        }
      ],
      "name": "deny",
      "outputs": [],
      "stateMutability": "nonpayable",
      "type": "function"
    },
    {
      "inputs": [
        {
          "internalType": "bytes32",
          "name": "ilk",
          "type": "bytes32"
        },
        {
          "internalType": "bytes32",
          "name": "what",
          "type": "bytes32"
        },
        {
          "internalType": "uint256",
          "name": "data",
          "type": "uint256"
        }
      ],
      "name": "file",
      "outputs": [],
      "stateMutability": "nonpayable",
      "type": "function"
    },
    {
      "inputs": [
        {
          "internalType": "bytes32",
          "name": "what",
          "type": "bytes32"
        },
        {
          "internalType": "uint256",
          "name": "data",
          "type": "uint256"
        }
      ],
      "name": "file",
      "outputs": [],
      "stateMutability": "nonpayable",
      "type": "function"
    },
    {
      "inputs": [
        {
          "internalType": "bytes32",
          "name": "ilk",
          "type": "bytes32"
        },
        {
          "internalType": "bytes32",
          "name": "what",
          "type": "bytes32"
        },
        {
          "internalType": "address",
          "name": "pip_",
          "type": "address"
        }
      ],
      "name": "file",
      "outputs": [],
      "stateMutability": "nonpayable",
      "type": "function"
    },
    {
      "inputs": [
        {
          "internalType": "bytes32",
          "name": "",
          "type": "bytes32"
        }
      ],
      "name": "ilks",
      "outputs": [
        {
          "internalType": "contract PipLike",
          "name": "pip",
          "type": "address"
        },
        {
          "internalType": "uint256",
          "name": "mat",
          "type": "uint256"
        }
      ],
      "stateMutability": "view",
      "type": "function"
    },
    {
      "inputs": [],
      "name": "live",
      "outputs": [
        {
          "internalType": "uint256",
          "name": "",
          "type": "uint256"
        }
      ],
      "stateMutability": "view",
      "type": "function"
    },
    {
      "inputs": [],
      "name": "par",
      "outputs": [
        {
          "internalType": "uint256",
          "name": "",
          "type": "uint256"
        }
      ],
      "stateMutability": "view",
      "type": "function"
    },
    {
      "inputs": [
        {
          "internalType": "bytes32",
          "name": "ilk",
          "type": "bytes32"
        }
      ],
      "name": "poke",
      "outputs": [],
      "stateMutability": "nonpayable",
      "type": "function"
    },
    {
      "inputs": [
        {
          "internalType": "address",
          "name": "guy",
          "type": "address"
        }
      ],
      "name": "rely",
      "outputs": [],
      "stateMutability": "nonpayable",
      "type": "function"
    },
    {
      "inputs": [],
      "name": "vat",
      "outputs": [
        {
          "internalType": "contract VatLike",
          "name": "",
          "type": "address"
        }
      ],
      "stateMutability": "view",
      "type": "function"
    },
    {
      "inputs": [
        {
          "internalType": "address",
          "name": "",
          "type": "address"
        }
      ],
      "name": "wards",
      "outputs": [
        {
          "internalType": "uint256",
          "name": "",
          "type": "uint256"
        }
      ],
      "stateMutability": "view",
      "type": "function"
    }
  ],
  "bytecode": "0x60803461009657601f6107d138819003918201601f19168301916001600160401b0383118484101761009b5780849260209460405283398101031261009657516001600160a01b0381169081900361009657336000526000602052600160406000205560018060a01b031960025416176002556b033b2e3c9fd0803ce8000000600355600160045560405161071f90816100b28239f35b600080fd5b634e487b7160e01b600052604160045260246000fdfe608060408181526004908136101561001657600080fd5b600092833560e01c9081631504460f14610409575080631a0b287e146103af57806329ae81141461031757806336569e77146102ee578063495d32cb146102cf57806365fae35e1461028957838163692450091461025857508063957aa58c1461023a578381639c52a7f1146101f057508063bf353dbb146101b5578063d9638d361461017c5763ebecb39d146100ac57600080fd5b34610178576060366003190112610178576044356001600160a01b038116929083900361017357338452836020526100e96001838620541461060c565b6100f6600182541461064e565b6024356207069760ec1b03610123573583526001602052822080546001600160a01b031916909117905580f35b905162461bcd60e51b815290819061016f90820160609060208152601c60208201527f53706f742f66696c652d756e7265636f676e697a65642d706172616d0000000060408201520190565b0390fd5b600080fd5b8280fd5b509034610178576020366003190112610178579181923581526001602052206001808060a01b0382541691015482519182526020820152f35b8382346101ec5760203660031901126101ec5760209181906001600160a01b036101dd6105f6565b16815280845220549051908152f35b5080fd5b8083346102375760203660031901126102375761020b6105f6565b338352826020526102216001838520541461060c565b6001600160a01b03168252602082905281205580f35b50fd5b50903461017857826003193601126101785760209250549051908152f35b80848434610285578260031936011261028557600161028191338552846020528420541461060c565b5580f35b5050fd5b8382346101ec5760203660031901126101ec576001906102a76105f6565b338452836020526102bc83838620541461060c565b828060a01b031683528260205282205580f35b8382346101ec57816003193601126101ec576020906003549051908152f35b8382346101ec57816003193601126101ec5760025490516001600160a01b039091168152602090f35b50346101785780600319360112610178573383528260205261033e6001828520541461060c565b61034b600183541461064e565b8135623830b960e91b03610363578260243560035580f35b5162461bcd60e51b81529150819061016f90820160609060208152601c60208201527f53706f742f66696c652d756e7265636f676e697a65642d706172616d0000000060408201520190565b50903461017857606036600319011261017857338352826020526103d86001838520541461060c565b6103e5600182541461064e565b602435621b585d60ea1b036101235735825260016020526001604435918320015580f35b9190503461055b57602036600319011261055b57823590818552600160205260018060a01b03938582858381848a85822054166359e02dd760e01b83525af180156105ea578195829161057b575b50156105725750633b9aca008085029085820481148615171561055f5790858894939282040361055b576104996104b191610494600354916106aa565b61068a565b858552600160205261049460018587200154916106aa565b955b60025416803b1561055b5783906064845180968193630d05943f60e11b83528987840152631cdc1bdd60e21b60248401528b60448401525af1801561055157610521575b5050507fdfd7467e425a8107cfd368d159957692c25085aacbcf5228ce08f10f2146486e8480a480f35b67ffffffffffffffff839794971161053e575052923880806104f7565b634e487b7160e01b845260419052602483fd5b82513d89823e3d90fd5b8380fd5b634e487b7160e01b885260118352602488fd5b919082956104b3565b95505050813d83116105e3575b601f8101601f1916850167ffffffffffffffff8111868210176105d057839186918352810103126105cc5785602085519501519485151586036101ec579438610457565b8580fd5b634e487b7160e01b885260418352602488fd5b503d610588565b508251903d90823e3d90fd5b600435906001600160a01b038216820361017357565b1561061357565b60405162461bcd60e51b815260206004820152601360248201527214dc1bdd0bdb9bdd0b585d5d1a1bdc9a5e9959606a1b6044820152606490fd5b1561065557565b60405162461bcd60e51b815260206004820152600d60248201526c53706f742f6e6f742d6c69766560981b6044820152606490fd5b8115610694570490565b634e487b7160e01b600052601260045260246000fd5b906b033b2e3c9fd0803ce800000091828102928184048114821517156106d35783040361017357565b634e487b7160e01b600052601160045260246000fdfea2646970667358221220854593b408e1830ccca582ed4ae73fde23b52d316bb7249bcecfb6750c30d6d664736f6c63430008130033",
  "linkReferences": {},
  "deployedLinkReferences": {}
}