{
  "_format": "hh-sol-artifact-1",
  "contractName": "Pot",
  "sourceName": "contracts/Pot.sol",
  "abi": [
    {
      "inputs": [
        {
          "internalType": "address",
          "name": "vat_",
          "type": "address"
        }
      ],
      "stateMutability": "nonpayable",
      "type": "constructor"
    },
    {
      "anonymous": false,
      "inputs": [],
      "name": "Cage",
      "type": "event"
    },
    {
      "anonymous": false,
      "inputs": [
        {
          "indexed": false,
          "internalType": "uint256",
          "name": "tmp",
          "type": "uint256"
        }
      ],
      "name": "Drip",
      "type": "event"
    },
    {
      "anonymous": false,
      "inputs": [
        {
          "indexed": true,
          "internalType": "address",
          "name": "usr",
          "type": "address"
        },
        {
          "indexed": false,
          "internalType": "uint256",
          "name": "wad",
          "type": "uint256"
        }
      ],
      "name": "Exit",
      "type": "event"
    },
    {
      "anonymous": false,
      "inputs": [
        {
          "indexed": true,
          "internalType": "bytes32",
          "name": "what",
          "type": "bytes32"
        },
        {
          "indexed": false,
          "internalType": "uint256",
          "name": "data",
          "type": "uint256"
        }
      ],
      "name": "File",
      "type": "event"
    },
    {
      "anonymous": false,
      "inputs": [
        {
          "indexed": true,
          "internalType": "bytes32",
          "name": "what",
          "type": "bytes32"
        },
        {
          "indexed": false,
          "internalType": "address",
          "name": "addr",
          "type": "address"
        }
      ],
      "name": "File",
      "type": "event"
    },
    {
      "anonymous": false,
      "inputs": [
        {
          "indexed": true,
          "internalType": "address",
          "name": "usr",
          "type": "address"
        },
        {
          "indexed": false,
          "internalType": "uint256",
          "name": "wad",
          "type": "uint256"
        }
      ],
      "name": "Join",
      "type": "event"
    },
    {
      "inputs": [],
      "name": "Pie",
      "outputs": [
        {
          "internalType": "uint256",
          "name": "",
          "type": "uint256"
        }
      ],
      "stateMutability": "view",
      "type": "function"
    },
    {
      "inputs": [],
      "name": "cage",
      "outputs": [],
      "stateMutability": "nonpayable",
      "type": "function"
    },
    {
      "inputs": [],
      "name": "chi",
      "outputs": [
        {
          "internalType": "uint256",
          "name": "",
          "type": "uint256"
        }
      ],
      "stateMutability": "view",
      "type": "function"
    },
    {
      "inputs": [
        {
          "internalType": "address",
          "name": "guy",
          "type": "address"
        }
      ],
      "name": "deny",
      "outputs": [],
      "stateMutability": "nonpayable",
      "type": "function"
    },
    {
      "inputs": [],
      "name": "drip",
      "outputs": [
        {
          "internalType": "uint256",
          "name": "tmp",
          "type": "uint256"
        }
      ],
      "stateMutability": "nonpayable",
      "type": "function"
    },
    {
      "inputs": [],
      "name": "dsr",
      "outputs": [
        {
          "internalType": "uint256",
          "name": "",
          "type": "uint256"
        }
      ],
      "stateMutability": "view",
      "type": "function"
    },
    {
      "inputs": [
        {
          "internalType": "uint256",
          "name": "wad",
          "type": "uint256"
        }
      ],
      "name": "exit",
      "outputs": [],
      "stateMutability": "nonpayable",
      "type": "function"
    },
    {
      "inputs": [
        {
          "internalType": "bytes32",
          "name": "what",
          "type": "bytes32"
        },
        {
          "internalType": "uint256",
          "name": "data",
          "type": "uint256"
        }
      ],
      "name": "file",
      "outputs": [],
      "stateMutability": "nonpayable",
      "type": "function"
    },
    {
      "inputs": [
        {
          "internalType": "bytes32",
          "name": "what",
          "type": "bytes32"
        },
        {
          "internalType": "address",
          "name": "addr",
          "type": "address"
        }
      ],
      "name": "file",
      "outputs": [],
      "stateMutability": "nonpayable",
      "type": "function"
    },
    {
      "inputs": [
        {
          "internalType": "uint256",
          "name": "wad",
          "type": "uint256"
        }
      ],
      "name": "join",
      "outputs": [],
      "stateMutability": "nonpayable",
      "type": "function"
    },
    {
      "inputs": [],
      "name": "live",
      "outputs": [
        {
          "internalType": "uint256",
          "name": "",
          "type": "uint256"
        }
      ],
      "stateMutability": "view",
      "type": "function"
    },
    {
      "inputs": [
        {
          "internalType": "address",
          "name": "",
          "type": "address"
        }
      ],
      "name": "pie",
      "outputs": [
        {
          "internalType": "uint256",
          "name": "",
          "type": "uint256"
        }
      ],
      "stateMutability": "view",
      "type": "function"
    },
    {
      "inputs": [
        {
          "internalType": "address",
          "name": "guy",
          "type": "address"
        }
      ],
      "name": "rely",
      "outputs": [],
      "stateMutability": "nonpayable",
      "type": "function"
    },
    {
      "inputs": [],
      "name": "rho",
      "outputs": [
        {
          "internalType": "uint256",
          "name": "",
          "type": "uint256"
        }
      ],
      "stateMutability": "view",
      "type": "function"
    },
    {
      "inputs": [],
      "name": "vat",
      "outputs": [
        {
          "internalType": "contract VatLike",
          "name": "",
          "type": "address"
        }
      ],
      "stateMutability": "view",
      "type": "function"
    },
    {
      "inputs": [],
      "name": "vow",
      "outputs": [
        {
          "internalType": "address",
          "name": "",
          "type": "address"
        }
      ],
      "stateMutability": "view",
      "type": "function"
    },
    {
      "inputs": [
        {
          "internalType": "address",
          "name": "",
          "type": "address"
        }
      ],
      "name": "wards",
      "outputs": [
        {
          "internalType": "uint256",
          "name": "",
          "type": "uint256"
        }
      ],
      "stateMutability": "view",
      "type": "function"
    }
  ],
  "bytecode": "0x60803461009e57601f610cde38819003918201601f19168301916001600160401b038311848410176100a35780849260209460405283398101031261009e57516001600160a01b0381169081900361009e57336000526000602052600160406000205560018060a01b031960055416176005556b033b2e3c9fd0803ce800000080600355600455426007556001600855604051610c2490816100ba8239f35b600080fd5b634e487b7160e01b600052604160045260246000fdfe6080604052600436101561001257600080fd5b60003560e01c8063049878f3146101275780630bebac861461012257806320aba08b1461011d57806329ae8114146101185780632c69ed581461011357806336569e771461010e578063487bf08214610109578063626cb3c51461010457806365fae35e146100ff57806369245009146100fa5780637f8661a1146100f5578063957aa58c146100f05780639c52a7f1146100eb5780639f678cca146100e6578063bf353dbb146100e1578063c92aecc4146100dc5763d4e8be83146100d757600080fd5b6107d2565b6107b4565b61077a565b610644565b6105f7565b6105d9565b6104df565b610478565b61042a565b610401565b6103e3565b6103ba565b61039c565b6102da565b6102bc565b610277565b34610246576020366003190112610246576004356101486007544214610abd565b33600090815260016020526040902061016390829054610aff565b3360009081526001602052604090205561018761018282600254610aff565b600255565b6005546101a4906001600160a01b03165b6001600160a01b031690565b6101b082600454610a86565b90803b156102465760405163bb35783b60e01b815233600482015230602482015260448101929092526000908290606490829084905af1801561024157610228575b5060405190815233907fb4e09949657f21548b58afe74e7b86cd2295da5ff1598ae1e5faecb1cf19ca959080602081015b0390a2005b8061023561023b92610951565b806102b1565b386101f2565b61097b565b600080fd5b600435906001600160a01b038216820361024657565b602435906001600160a01b038216820361024657565b34610246576020366003190112610246576001600160a01b0361029861024b565b1660005260016020526020604060002054604051908152f35b600091031261024657565b34610246576000366003190112610246576020600754604051908152f35b346102465760403660031901126102465760043560243533600052600060205261030b60016040600020541461086f565b6103196001600854146108b0565b623239b960e91b8203610357576020817fe986e40cc8c151830d4f61050f4fb2e4add8567caad2d5f5496f9158e91fe4c792600355604051908152a2005b60405162461bcd60e51b815260206004820152601b60248201527f506f742f66696c652d756e7265636f676e697a65642d706172616d00000000006044820152606490fd5b34610246576000366003190112610246576020600254604051908152f35b34610246576000366003190112610246576005546040516001600160a01b039091168152602090f35b34610246576000366003190112610246576020600354604051908152f35b34610246576000366003190112610246576006546040516001600160a01b039091168152602090f35b346102465760203660031901126102465761044361024b565b6000903382528160205261045d600160408420541461086f565b6001600160a01b031681526020819052604081206001905580f35b34610246576000806003193601126104dc57338152806020526104a1600160408320541461086f565b806008556b033b2e3c9fd0803ce80000006003557f2308ed18a14e800c39b86eb6ea43270105955ca385b603b64eca89f98ae8fbda8180a180f35b80fd5b34610246576020366003190112610246573360009081526001602052604090206004359061050f90829054610a46565b3360009081526001602052604090205561052e61018282600254610a46565b600554610543906001600160a01b0316610198565b61054f82600454610a86565b90803b156102465760405163bb35783b60e01b815230600482015233602482015260448101929092526000908290606490829084905af18015610241576105c6575b5060405190815233907f22d324652c93739755cf4581508b60875ebdd78c20c0cff5cf8e23452b299631908060208101610223565b806102356105d392610951565b38610591565b34610246576000366003190112610246576020600854604051908152f35b346102465760203660031901126102465761061061024b565b6000903382528160205261062a600160408420541461086f565b6001600160a01b0316815260208190526040812081905580f35b34610246576000806003193601126104dc5761067b600754610668814210156108eb565b610675600354914261093f565b90610987565b61069261068b6004548093610b13565b9182610a46565b9161069c82600455565b6106a542600755565b6005546106ba906001600160a01b0316610198565b6006546106d3906001600160a01b031694600254610a86565b90803b156107765760405163f24e23eb60e01b81526001600160a01b0395909516600486015230602486015260448501919091528390606490829084905af19182156102415761075f92610763575b506040518181527f8d4562abe433425096ff8e6c5eccbdd894a1d21198d2ef95803c85f31d2ffb1390602090a16040519081529081906020820190565b0390f35b8061023561077092610951565b38610722565b8280fd5b34610246576020366003190112610246576001600160a01b0361079b61024b565b1660005260006020526020604060002054604051908152f35b34610246576000366003190112610246576020600454604051908152f35b34610246576040366003190112610246576004356107ee610261565b33600052600060205261080860016040600020541461086f565b6108166001600854146108b0565b62766f7760e81b820361035757600680546001600160a01b0319166001600160a01b0390921691821790556040519081527f8fef588b5fc1afbf5b2f06c1a435d513f208da2e6704c3d8f0e0ec91167066ba90602090a2005b1561087657565b60405162461bcd60e51b8152602060048201526012602482015271141bdd0bdb9bdd0b585d5d1a1bdc9a5e995960721b6044820152606490fd5b156108b757565b60405162461bcd60e51b815260206004820152600c60248201526b506f742f6e6f742d6c69766560a01b6044820152606490fd5b156108f257565b60405162461bcd60e51b815260206004820152600f60248201526e506f742f696e76616c69642d6e6f7760881b6044820152606490fd5b634e487b7160e01b600052601160045260246000fd5b9190820391821161094c57565b610929565b67ffffffffffffffff811161096557604052565b634e487b7160e01b600052604160045260246000fd5b6040513d6000823e3d90fd5b9091908015610a2a57600183811615610a175781935b811c805b6109aa57505050565b8280029280840403610246576b019d971e4fe8401e7400000092838101908110610246576b033b2e3c9fd0803ce8000000809104938383166109f1575b5050811c806109a1565b8487929397029185830414158515151661024657810190811061024657049338806109e7565b6b033b2e3c9fd0803ce80000009361099d565b509015610a3657600090565b6b033b2e3c9fd0803ce800000090565b90810390811161094c5790565b8181029291811591840414171561094c57565b8115610a70570490565b634e487b7160e01b600052601260045260246000fd5b600092918015918215610a9d575b50501561024657565b91509250610ab5610aae8483610a53565b9384610a66565b143880610a94565b15610ac457565b60405162461bcd60e51b8152602060048201526013602482015272141bdd0bdc9a1bcb5b9bdd0b5d5c19185d1959606a1b6044820152606490fd5b919082019182811161094c57821061024657565b6000918015918215610bce575b505015610b92576b019d971e4fe8401e7400000081019081811161094c578110610b56576b033b2e3c9fd0803ce8000000900490565b60405162461bcd60e51b815260206004820152601460248201527364732d6d6174682d6164642d6f766572666c6f7760601b6044820152606490fd5b60405162461bcd60e51b815260206004820152601460248201527364732d6d6174682d6d756c2d6f766572666c6f7760601b6044820152606490fd5b91509150610be6610bdf8383610a53565b9283610a66565b143880610b2056fea26469706673582212203eeddbaeb8cfebce506bf2224a7b75ffccc311ea1f5fcd6d01d45a25aac4b2ee64736f6c63430008130033",
  "linkReferences": {},
  "deployedLinkReferences": {}
}