{
  "_format": "hh-sol-artifact-1",
  "contractName": "ExponentialDecrease",
  "sourceName": "contracts/Calc.sol",
  "abi": [
    {
      "inputs": [],
      "stateMutability": "nonpayable",
      "type": "constructor"
    },
    {
      "inputs": [],
      "name": "cut",
      "outputs": [
        {
          "internalType": "uint256",
          "name": "",
          "type": "uint256"
        }
      ],
      "stateMutability": "view",
      "type": "function"
    },
    {
      "inputs": [
        {
          "internalType": "address",
          "name": "usr",
          "type": "address"
        }
      ],
      "name": "deny",
      "outputs": [],
      "stateMutability": "nonpayable",
      "type": "function"
    },
    {
      "inputs": [
        {
          "internalType": "bytes32",
          "name": "what",
          "type": "bytes32"
        },
        {
          "internalType": "uint256",
          "name": "data",
          "type": "uint256"
        }
      ],
      "name": "file",
      "outputs": [],
      "stateMutability": "nonpayable",
      "type": "function"
    },
    {
      "inputs": [
        {
          "internalType": "uint256",
          "name": "top",
          "type": "uint256"
        },
        {
          "internalType": "uint256",
          "name": "dur",
          "type": "uint256"
        }
      ],
      "name": "price",
      "outputs": [
        {
          "internalType": "uint256",
          "name": "",
          "type": "uint256"
        }
      ],
      "stateMutability": "view",
      "type": "function"
    },
    {
      "inputs": [
        {
          "internalType": "address",
          "name": "usr",
          "type": "address"
        }
      ],
      "name": "rely",
      "outputs": [],
      "stateMutability": "nonpayable",
      "type": "function"
    },
    {
      "inputs": [
        {
          "internalType": "address",
          "name": "",
          "type": "address"
        }
      ],
      "name": "wards",
      "outputs": [
        {
          "internalType": "uint256",
          "name": "",
          "type": "uint256"
        }
      ],
      "stateMutability": "view",
      "type": "function"
    }
  ],
  "bytecode": "0x608080604052346100375733600052600060205260016040600020556b033b2e3c9fd0803ce7ffffff600155610482908161003d8239f35b600080fdfe6040608081526004908136101561001557600080fd5b600091823560e01c90816329ae8114146101e5578163487a23951461015d57816365fae35e14610112578382639c52a7f1146100c557508163bf353dbb14610088575063e6fd604c1461006757600080fd5b346100845781600319360112610084576020906001549051908152f35b5080fd5b9050346100c15760203660031901126100c157356001600160a01b038116908190036100c1578282916020945280845220549051908152f35b8280fd5b9291503461010e57602036600319011261010e57356001600160a01b0381169081900361010e5733835282602052610102600183852054146102d5565b82528160205281205580f35b5050fd5b9050346100c15760203660031901126100c157356001600160a01b03811691908290036100c157600191338452836020526101518383862054146102d5565b83528260205282205580f35b8284346101e257816003193601126101e257506001805460243591808316156101d057815b92811c91825b6101a15760208561019a86893561032c565b9051908152f35b806101ab9161032c565b91828282166101bf575b50811c9182610188565b6101c9919461032c565b92866101b5565b6b033b2e3c9fd0803ce8000000610182565b80fd5b9050346100c157816003193601126100c1576024359133845283602052610211600182862054146102d5565b81356218dd5d60ea1b0361027e576b033b2e3c9fd0803ce800000083101561023b57505060015580f35b906020606492519162461bcd60e51b8352820152602060248201527f4578706f6e656e7469616c44656372656173652f6375742d746f6f2d686967686044820152fd5b906020608492519162461bcd60e51b8352820152602b60248201527f4578706f6e656e7469616c44656372656173652f66696c652d756e7265636f6760448201526a6e697a65642d706172616d60a81b6064820152fd5b156102dc57565b60405162461bcd60e51b815260206004820152602260248201527f4578706f6e656e7469616c44656372656173652f6e6f742d617574686f72697a604482015261195960f21b6064820152608490fd5b9060009181159182156103fe575b5050156103c2576b019d971e4fe8401e740000008101908181116103ac578110610370576b033b2e3c9fd0803ce8000000900490565b60405162461bcd60e51b815260206004820152601460248201527364732d6d6174682d6164642d6f766572666c6f7760601b6044820152606490fd5b634e487b7160e01b600052601160045260246000fd5b60405162461bcd60e51b815260206004820152601460248201527364732d6d6174682d6d756c2d6f766572666c6f7760601b6044820152606490fd5b9091928183029083820483148415171561043857508093610422570414388061033a565b634e487b7160e01b600052601260045260246000fd5b634e487b7160e01b81526011600452602490fdfea2646970667358221220a0e5a4f6a47d6f66cb63a42e7f5563c428ea990982638c0a2c88e8c3f7cc1fcd64736f6c63430008130033",
  "linkReferences": {},
  "deployedLinkReferences": {}
}