{
  "_format": "hh-sol-artifact-1",
  "contractName": "LinearDecrease",
  "sourceName": "contracts/Calc.sol",
  "abi": [
    {
      "inputs": [],
      "stateMutability": "nonpayable",
      "type": "constructor"
    },
    {
      "inputs": [
        {
          "internalType": "address",
          "name": "usr",
          "type": "address"
        }
      ],
      "name": "deny",
      "outputs": [],
      "stateMutability": "nonpayable",
      "type": "function"
    },
    {
      "inputs": [
        {
          "internalType": "bytes32",
          "name": "what",
          "type": "bytes32"
        },
        {
          "internalType": "uint256",
          "name": "data",
          "type": "uint256"
        }
      ],
      "name": "file",
      "outputs": [],
      "stateMutability": "nonpayable",
      "type": "function"
    },
    {
      "inputs": [
        {
          "internalType": "uint256",
          "name": "top",
          "type": "uint256"
        },
        {
          "internalType": "uint256",
          "name": "dur",
          "type": "uint256"
        }
      ],
      "name": "price",
      "outputs": [
        {
          "internalType": "uint256",
          "name": "",
          "type": "uint256"
        }
      ],
      "stateMutability": "view",
      "type": "function"
    },
    {
      "inputs": [
        {
          "internalType": "address",
          "name": "usr",
          "type": "address"
        }
      ],
      "name": "rely",
      "outputs": [],
      "stateMutability": "nonpayable",
      "type": "function"
    },
    {
      "inputs": [],
      "name": "tau",
      "outputs": [
        {
          "internalType": "uint256",
          "name": "",
          "type": "uint256"
        }
      ],
      "stateMutability": "view",
      "type": "function"
    },
    {
      "inputs": [
        {
          "internalType": "address",
          "name": "",
          "type": "address"
        }
      ],
      "name": "wards",
      "outputs": [
        {
          "internalType": "uint256",
          "name": "",
          "type": "uint256"
        }
      ],
      "stateMutability": "view",
      "type": "function"
    }
  ],
  "bytecode": "0x6080806040523461002d573360005260006020526001604060002055610e1060015561035090816100338239f35b600080fdfe6040608081526004908136101561001557600080fd5b600091823560e01c90816329ae81141461018a578163487a23951461015d57816365fae35e14610112578382639c52a7f1146100c557508163bf353dbb14610088575063cfc4af551461006757600080fd5b346100845781600319360112610084576020906001549051908152f35b5080fd5b9050346100c15760203660031901126100c157356001600160a01b038116908190036100c1578282916020945280845220549051908152f35b8280fd5b9291503461010e57602036600319011261010e57356001600160a01b0381169081900361010e57338352826020526101026001838520541461021d565b82528160205281205580f35b5050fd5b9050346100c15760203660031901126100c157356001600160a01b03811691908290036100c1576001913384528360205261015183838620541461021d565b83528260205282205580f35b828434610187578160031936011261018757506101806020926024359035610289565b9051908152f35b80fd5b919050346100c157806003193601126100c157338352826020526101b36001828520541461021d565b81356274617560e81b036101cb578260243560015580f35b906020608492519162461bcd60e51b8352820152602660248201527f4c696e65617244656372656173652f66696c652d756e7265636f676e697a65646044820152652d706172616d60d01b6064820152fd5b1561022457565b60405162461bcd60e51b815260206004820152601d60248201527f4c696e65617244656372656173652f6e6f742d617574686f72697a65640000006044820152606490fd5b8115610273570490565b634e487b7160e01b600052601260045260246000fd5b90600154808210156103125760009180159081156102d8575b50156102d3576102b191610269565b81039081116102bd5790565b634e487b7160e01b600052601160045260246000fd5b600080fd5b8091508402928484048214851517156102fe57506102f7849184610269565b14386102a2565b634e487b7160e01b81526011600452602490fd5b50505060009056fea26469706673582212203ec688e2ed24ca225c807ddef54de679b50a64f24a6ff0f6607de6e065ede86564736f6c63430008130033",
  "linkReferences": {},
  "deployedLinkReferences": {}
}