{
  "_format": "hh-sol-artifact-1",
  "contractName": "StairstepExponentialDecrease",
  "sourceName": "contracts/Calc.sol",
  "abi": [
    {
      "inputs": [],
      "stateMutability": "nonpayable",
      "type": "constructor"
    },
    {
      "inputs": [],
      "name": "cut",
      "outputs": [
        {
          "internalType": "uint256",
          "name": "",
          "type": "uint256"
        }
      ],
      "stateMutability": "view",
      "type": "function"
    },
    {
      "inputs": [
        {
          "internalType": "address",
          "name": "usr",
          "type": "address"
        }
      ],
      "name": "deny",
      "outputs": [],
      "stateMutability": "nonpayable",
      "type": "function"
    },
    {
      "inputs": [
        {
          "internalType": "bytes32",
          "name": "what",
          "type": "bytes32"
        },
        {
          "internalType": "uint256",
          "name": "data",
          "type": "uint256"
        }
      ],
      "name": "file",
      "outputs": [],
      "stateMutability": "nonpayable",
      "type": "function"
    },
    {
      "inputs": [
        {
          "internalType": "uint256",
          "name": "top",
          "type": "uint256"
        },
        {
          "internalType": "uint256",
          "name": "dur",
          "type": "uint256"
        }
      ],
      "name": "price",
      "outputs": [
        {
          "internalType": "uint256",
          "name": "",
          "type": "uint256"
        }
      ],
      "stateMutability": "view",
      "type": "function"
    },
    {
      "inputs": [
        {
          "internalType": "address",
          "name": "usr",
          "type": "address"
        }
      ],
      "name": "rely",
      "outputs": [],
      "stateMutability": "nonpayable",
      "type": "function"
    },
    {
      "inputs": [],
      "name": "step",
      "outputs": [
        {
          "internalType": "uint256",
          "name": "",
          "type": "uint256"
        }
      ],
      "stateMutability": "view",
      "type": "function"
    },
    {
      "inputs": [
        {
          "internalType": "address",
          "name": "",
          "type": "address"
        }
      ],
      "name": "wards",
      "outputs": [
        {
          "internalType": "uint256",
          "name": "",
          "type": "uint256"
        }
      ],
      "stateMutability": "view",
      "type": "function"
    }
  ],
  "bytecode": "0x6080806040523461003d57336000526000602052600160406000205561012c6001556b03370b7214c67f98c300000060025561058990816100438239f35b600080fdfe6040608081526004908136101561001557600080fd5b600091823560e01c90816329ae8114146101b3578163487a23951461018657816365fae35e1461013b578382639c52a7f1146100ee57508163bf353dbb146100b157508063e25fe175146100935763e6fd604c1461007257600080fd5b3461008f578160031936011261008f576020906002549051908152f35b5080fd5b503461008f578160031936011261008f576020906001549051908152f35b9050346100ea5760203660031901126100ea57356001600160a01b038116908190036100ea578282916020945280845220549051908152f35b8280fd5b9291503461013757602036600319011261013757356001600160a01b03811690819003610137573383528260205261012b60018385205414610331565b82528160205281205580f35b5050fd5b9050346100ea5760203660031901126100ea57356001600160a01b03811691908290036100ea576001913384528360205261017a838386205414610331565b83528260205282205580f35b8284346101b057816003193601126101b057506101a960209260243590356103b1565b9051908152f35b80fd5b9050346100ea57816003193601126100ea5780359160243592338552846020526101e260018387205414610331565b6218dd5d60ea1b810361026157506b033b2e3c9fd0803ce800000083101561020c57505060025580f35b906020608492519162461bcd60e51b8352820152602960248201527f5374616972737465704578706f6e656e7469616c44656372656173652f63757460448201526805ae8dede5ad0d2ced60bb1b6064820152fd5b630737465760e41b036102d157821561027c57505060015580f35b906020608492519162461bcd60e51b8352820152602960248201527f5374616972737465704578706f6e656e7469616c44656372656173652f737465604482015268702d746f6f2d6c6f7760b81b6064820152fd5b906020608492519162461bcd60e51b8352820152603460248201527f5374616972737465704578706f6e656e7469616c44656372656173652f66696c604482015273652d756e7265636f676e697a65642d706172616d60601b6064820152fd5b1561033857565b60405162461bcd60e51b815260206004820152602b60248201527f5374616972737465704578706f6e656e7469616c44656372656173652f6e6f7460448201526a0b585d5d1a1bdc9a5e995960aa1b6064820152608490fd5b811561039b570490565b634e487b7160e01b600052601260045260246000fd5b60018054909392811561043d57906103c891610391565b90811561043857600254938281161561042657845b92811c94855b6103f75750506103f4929350610446565b90565b8061040191610446565b9485828216610415575b50811c94856103e3565b61041f9194610446565b928561040b565b6b033b2e3c9fd0803ce80000006103dd565b925050565b50600093505050565b906000918115918215610518575b5050156104dc576b019d971e4fe8401e740000008101908181116104c657811061048a576b033b2e3c9fd0803ce8000000900490565b60405162461bcd60e51b815260206004820152601460248201527364732d6d6174682d6164642d6f766572666c6f7760601b6044820152606490fd5b634e487b7160e01b600052601160045260246000fd5b60405162461bcd60e51b815260206004820152601460248201527364732d6d6174682d6d756c2d6f766572666c6f7760601b6044820152606490fd5b8181929350029282840482148315171561053f57506105379083610391565b143880610454565b634e487b7160e01b81526011600452602490fdfea2646970667358221220c92ff80bc7d803c74c953a0e34060f2adb0f3f9542a0442ad080b0fe57ec248f64736f6c63430008130033",
  "linkReferences": {},
  "deployedLinkReferences": {}
}